{
  "contractName": "BurningManager",
  "abi": [
    {
      "anonymous": false,
      "inputs": [
        {
          "indexed": true,
          "internalType": "bytes32",
          "name": "role",
          "type": "bytes32"
        },
        {
          "indexed": true,
          "internalType": "bytes32",
          "name": "previousAdminRole",
          "type": "bytes32"
        },
        {
          "indexed": true,
          "internalType": "bytes32",
          "name": "newAdminRole",
          "type": "bytes32"
        }
      ],
      "name": "RoleAdminChanged",
      "type": "event"
    },
    {
      "anonymous": false,
      "inputs": [
        {
          "indexed": true,
          "internalType": "bytes32",
          "name": "role",
          "type": "bytes32"
        },
        {
          "indexed": true,
          "internalType": "address",
          "name": "account",
          "type": "address"
        },
        {
          "indexed": true,
          "internalType": "address",
          "name": "sender",
          "type": "address"
        }
      ],
      "name": "RoleGranted",
      "type": "event"
    },
    {
      "anonymous": false,
      "inputs": [
        {
          "indexed": true,
          "internalType": "bytes32",
          "name": "role",
          "type": "bytes32"
        },
        {
          "indexed": true,
          "internalType": "address",
          "name": "account",
          "type": "address"
        },
        {
          "indexed": true,
          "internalType": "address",
          "name": "sender",
          "type": "address"
        }
      ],
      "name": "RoleRevoked",
      "type": "event"
    },
    {
      "inputs": [],
      "name": "BURNER_ROLE",
      "outputs": [
        {
          "internalType": "bytes32",
          "name": "",
          "type": "bytes32"
        }
      ],
      "stateMutability": "view",
      "type": "function"
    },
    {
      "inputs": [],
      "name": "DEFAULT_ADMIN_ROLE",
      "outputs": [
        {
          "internalType": "bytes32",
          "name": "",
          "type": "bytes32"
        }
      ],
      "stateMutability": "view",
      "type": "function"
    },
    {
      "inputs": [],
      "name": "GAME_ADMIN",
      "outputs": [
        {
          "internalType": "bytes32",
          "name": "",
          "type": "bytes32"
        }
      ],
      "stateMutability": "view",
      "type": "function"
    },
    {
      "inputs": [],
      "name": "LINK_EQUIPMENT_MANAGER",
      "outputs": [
        {
          "internalType": "uint256",
          "name": "",
          "type": "uint256"
        }
      ],
      "stateMutability": "view",
      "type": "function"
    },
    {
      "inputs": [],
      "name": "PAYMENT_USING_STAKED_SKILL_COST_AFTER_DISCOUNT",
      "outputs": [
        {
          "internalType": "int128",
          "name": "",
          "type": "int128"
        }
      ],
      "stateMutability": "view",
      "type": "function"
    },
    {
      "inputs": [],
      "name": "USERVAR_NON_GENESIS_SOUL_SUPPLY",
      "outputs": [
        {
          "internalType": "uint256",
          "name": "",
          "type": "uint256"
        }
      ],
      "stateMutability": "view",
      "type": "function"
    },
    {
      "inputs": [],
      "name": "USERVAR_SOUL_SUPPLY",
      "outputs": [
        {
          "internalType": "uint256",
          "name": "",
          "type": "uint256"
        }
      ],
      "stateMutability": "view",
      "type": "function"
    },
    {
      "inputs": [],
      "name": "VAR_BURN_POWER_MULTIPLIER",
      "outputs": [
        {
          "internalType": "uint256",
          "name": "",
          "type": "uint256"
        }
      ],
      "stateMutability": "view",
      "type": "function"
    },
    {
      "inputs": [],
      "name": "VAR_ROI_DAYS",
      "outputs": [
        {
          "internalType": "uint256",
          "name": "",
          "type": "uint256"
        }
      ],
      "stateMutability": "view",
      "type": "function"
    },
    {
      "inputs": [],
      "name": "burnWeaponFee",
      "outputs": [
        {
          "internalType": "int128",
          "name": "",
          "type": "int128"
        }
      ],
      "stateMutability": "view",
      "type": "function"
    },
    {
      "inputs": [],
      "name": "characters",
      "outputs": [
        {
          "internalType": "contract Characters",
          "name": "",
          "type": "address"
        }
      ],
      "stateMutability": "view",
      "type": "function"
    },
    {
      "inputs": [],
      "name": "game",
      "outputs": [
        {
          "internalType": "contract CryptoBlades",
          "name": "",
          "type": "address"
        }
      ],
      "stateMutability": "view",
      "type": "function"
    },
    {
      "inputs": [],
      "name": "garrison",
      "outputs": [
        {
          "internalType": "contract Garrison",
          "name": "",
          "type": "address"
        }
      ],
      "stateMutability": "view",
      "type": "function"
    },
    {
      "inputs": [
        {
          "internalType": "bytes32",
          "name": "role",
          "type": "bytes32"
        }
      ],
      "name": "getRoleAdmin",
      "outputs": [
        {
          "internalType": "bytes32",
          "name": "",
          "type": "bytes32"
        }
      ],
      "stateMutability": "view",
      "type": "function"
    },
    {
      "inputs": [
        {
          "internalType": "bytes32",
          "name": "role",
          "type": "bytes32"
        },
        {
          "internalType": "uint256",
          "name": "index",
          "type": "uint256"
        }
      ],
      "name": "getRoleMember",
      "outputs": [
        {
          "internalType": "address",
          "name": "",
          "type": "address"
        }
      ],
      "stateMutability": "view",
      "type": "function"
    },
    {
      "inputs": [
        {
          "internalType": "bytes32",
          "name": "role",
          "type": "bytes32"
        }
      ],
      "name": "getRoleMemberCount",
      "outputs": [
        {
          "internalType": "uint256",
          "name": "",
          "type": "uint256"
        }
      ],
      "stateMutability": "view",
      "type": "function"
    },
    {
      "inputs": [
        {
          "internalType": "bytes32",
          "name": "role",
          "type": "bytes32"
        },
        {
          "internalType": "address",
          "name": "account",
          "type": "address"
        }
      ],
      "name": "grantRole",
      "outputs": [],
      "stateMutability": "nonpayable",
      "type": "function"
    },
    {
      "inputs": [
        {
          "internalType": "bytes32",
          "name": "role",
          "type": "bytes32"
        },
        {
          "internalType": "address",
          "name": "account",
          "type": "address"
        }
      ],
      "name": "hasRole",
      "outputs": [
        {
          "internalType": "bool",
          "name": "",
          "type": "bool"
        }
      ],
      "stateMutability": "view",
      "type": "function"
    },
    {
      "inputs": [
        {
          "internalType": "uint256",
          "name": "",
          "type": "uint256"
        }
      ],
      "name": "links",
      "outputs": [
        {
          "internalType": "address",
          "name": "",
          "type": "address"
        }
      ],
      "stateMutability": "view",
      "type": "function"
    },
    {
      "inputs": [],
      "name": "priceOracleSkillPerUsd",
      "outputs": [
        {
          "internalType": "contract IPriceOracle",
          "name": "",
          "type": "address"
        }
      ],
      "stateMutability": "view",
      "type": "function"
    },
    {
      "inputs": [],
      "name": "reforgeWeaponFee",
      "outputs": [
        {
          "internalType": "int128",
          "name": "",
          "type": "int128"
        }
      ],
      "stateMutability": "view",
      "type": "function"
    },
    {
      "inputs": [],
      "name": "reforgeWeaponWithDustFee",
      "outputs": [
        {
          "internalType": "int128",
          "name": "",
          "type": "int128"
        }
      ],
      "stateMutability": "view",
      "type": "function"
    },
    {
      "inputs": [
        {
          "internalType": "bytes32",
          "name": "role",
          "type": "bytes32"
        },
        {
          "internalType": "address",
          "name": "account",
          "type": "address"
        }
      ],
      "name": "renounceRole",
      "outputs": [],
      "stateMutability": "nonpayable",
      "type": "function"
    },
    {
      "inputs": [
        {
          "internalType": "bytes32",
          "name": "role",
          "type": "bytes32"
        },
        {
          "internalType": "address",
          "name": "account",
          "type": "address"
        }
      ],
      "name": "revokeRole",
      "outputs": [],
      "stateMutability": "nonpayable",
      "type": "function"
    },
    {
      "inputs": [
        {
          "internalType": "address",
          "name": "",
          "type": "address"
        },
        {
          "internalType": "uint256",
          "name": "",
          "type": "uint256"
        }
      ],
      "name": "userVars",
      "outputs": [
        {
          "internalType": "uint256",
          "name": "",
          "type": "uint256"
        }
      ],
      "stateMutability": "view",
      "type": "function"
    },
    {
      "inputs": [
        {
          "internalType": "uint256",
          "name": "",
          "type": "uint256"
        }
      ],
      "name": "vars",
      "outputs": [
        {
          "internalType": "uint256",
          "name": "",
          "type": "uint256"
        }
      ],
      "stateMutability": "view",
      "type": "function"
    },
    {
      "inputs": [],
      "name": "weapons",
      "outputs": [
        {
          "internalType": "contract Weapons",
          "name": "",
          "type": "address"
        }
      ],
      "stateMutability": "view",
      "type": "function"
    },
    {
      "inputs": [
        {
          "internalType": "contract Characters",
          "name": "_characters",
          "type": "address"
        },
        {
          "internalType": "contract Garrison",
          "name": "_garrison",
          "type": "address"
        },
        {
          "internalType": "contract CryptoBlades",
          "name": "_game",
          "type": "address"
        }
      ],
      "name": "initialize",
      "outputs": [],
      "stateMutability": "nonpayable",
      "type": "function"
    },
    {
      "inputs": [
        {
          "internalType": "contract Weapons",
          "name": "_weapons",
          "type": "address"
        },
        {
          "internalType": "contract IPriceOracle",
          "name": "_priceOracleSkillPerUsd",
          "type": "address"
        }
      ],
      "name": "migrateTo_e1fe97c",
      "outputs": [],
      "stateMutability": "nonpayable",
      "type": "function"
    },
    {
      "inputs": [
        {
          "internalType": "uint256[]",
          "name": "burnIds",
          "type": "uint256[]"
        }
      ],
      "name": "burnCharactersFee",
      "outputs": [
        {
          "internalType": "uint256",
          "name": "",
          "type": "uint256"
        }
      ],
      "stateMutability": "view",
      "type": "function"
    },
    {
      "inputs": [
        {
          "internalType": "uint256",
          "name": "burnId",
          "type": "uint256"
        }
      ],
      "name": "burnCharacterFee",
      "outputs": [
        {
          "internalType": "uint256",
          "name": "",
          "type": "uint256"
        }
      ],
      "stateMutability": "view",
      "type": "function"
    },
    {
      "inputs": [
        {
          "internalType": "int128",
          "name": "usdAmount",
          "type": "int128"
        }
      ],
      "name": "usdToSkill",
      "outputs": [
        {
          "internalType": "uint256",
          "name": "",
          "type": "uint256"
        }
      ],
      "stateMutability": "view",
      "type": "function"
    },
    {
      "inputs": [
        {
          "internalType": "uint256",
          "name": "burnId",
          "type": "uint256"
        }
      ],
      "name": "burnCharacterFromMarket",
      "outputs": [],
      "stateMutability": "nonpayable",
      "type": "function"
    },
    {
      "inputs": [
        {
          "internalType": "uint256[]",
          "name": "burnIds",
          "type": "uint256[]"
        },
        {
          "internalType": "uint256",
          "name": "targetId",
          "type": "uint256"
        }
      ],
      "name": "burnCharactersIntoCharacter",
      "outputs": [],
      "stateMutability": "nonpayable",
      "type": "function"
    },
    {
      "inputs": [
        {
          "internalType": "uint256[]",
          "name": "burnIds",
          "type": "uint256[]"
        }
      ],
      "name": "burnCharactersIntoSoul",
      "outputs": [],
      "stateMutability": "nonpayable",
      "type": "function"
    },
    {
      "inputs": [
        {
          "internalType": "address",
          "name": "targetAddress",
          "type": "address"
        },
        {
          "internalType": "uint256",
          "name": "soulAmount",
          "type": "uint256"
        }
      ],
      "name": "transferSoul",
      "outputs": [],
      "stateMutability": "nonpayable",
      "type": "function"
    },
    {
      "inputs": [
        {
          "internalType": "address",
          "name": "targetAddress",
          "type": "address"
        },
        {
          "internalType": "uint256",
          "name": "soulAmount",
          "type": "uint256"
        }
      ],
      "name": "transferNonGenesisSoul",
      "outputs": [],
      "stateMutability": "nonpayable",
      "type": "function"
    },
    {
      "inputs": [
        {
          "internalType": "uint256",
          "name": "targetId",
          "type": "uint256"
        },
        {
          "internalType": "uint256",
          "name": "soulAmount",
          "type": "uint256"
        }
      ],
      "name": "upgradeCharacterWithSoul",
      "outputs": [],
      "stateMutability": "nonpayable",
      "type": "function"
    },
    {
      "inputs": [
        {
          "internalType": "uint256",
          "name": "targetId",
          "type": "uint256"
        },
        {
          "internalType": "uint256",
          "name": "soulAmount",
          "type": "uint256"
        }
      ],
      "name": "upgradeNonGenesisCharacterWithSoul",
      "outputs": [],
      "stateMutability": "nonpayable",
      "type": "function"
    },
    {
      "inputs": [
        {
          "internalType": "uint256[]",
          "name": "burnIDs",
          "type": "uint256[]"
        }
      ],
      "name": "burnWeapons",
      "outputs": [],
      "stateMutability": "nonpayable",
      "type": "function"
    },
    {
      "inputs": [
        {
          "internalType": "uint256",
          "name": "reforgeID",
          "type": "uint256"
        },
        {
          "internalType": "uint256",
          "name": "burnID",
          "type": "uint256"
        }
      ],
      "name": "reforgeWeapon",
      "outputs": [],
      "stateMutability": "nonpayable",
      "type": "function"
    },
    {
      "inputs": [
        {
          "internalType": "uint256",
          "name": "reforgeID",
          "type": "uint256"
        },
        {
          "internalType": "uint8",
          "name": "amountLB",
          "type": "uint8"
        },
        {
          "internalType": "uint8",
          "name": "amount4B",
          "type": "uint8"
        },
        {
          "internalType": "uint8",
          "name": "amount5B",
          "type": "uint8"
        }
      ],
      "name": "reforgeWeaponWithDust",
      "outputs": [],
      "stateMutability": "nonpayable",
      "type": "function"
    },
    {
      "inputs": [
        {
          "internalType": "uint256[]",
          "name": "burnIDs",
          "type": "uint256[]"
        }
      ],
      "name": "burnWeaponsUsingStakedSkill",
      "outputs": [],
      "stateMutability": "nonpayable",
      "type": "function"
    },
    {
      "inputs": [
        {
          "internalType": "uint256",
          "name": "reforgeID",
          "type": "uint256"
        },
        {
          "internalType": "uint256",
          "name": "burnID",
          "type": "uint256"
        }
      ],
      "name": "reforgeWeaponUsingStakedSkill",
      "outputs": [],
      "stateMutability": "nonpayable",
      "type": "function"
    },
    {
      "inputs": [
        {
          "internalType": "uint256",
          "name": "reforgeID",
          "type": "uint256"
        },
        {
          "internalType": "uint8",
          "name": "amountLB",
          "type": "uint8"
        },
        {
          "internalType": "uint8",
          "name": "amount4B",
          "type": "uint8"
        },
        {
          "internalType": "uint8",
          "name": "amount5B",
          "type": "uint8"
        }
      ],
      "name": "reforgeWeaponWithDustUsingStakedSkill",
      "outputs": [],
      "stateMutability": "nonpayable",
      "type": "function"
    },
    {
      "inputs": [
        {
          "internalType": "address",
          "name": "user",
          "type": "address"
        },
        {
          "internalType": "uint256",
          "name": "soulAmount",
          "type": "uint256"
        }
      ],
      "name": "giveAwaySoul",
      "outputs": [],
      "stateMutability": "nonpayable",
      "type": "function"
    },
    {
      "inputs": [
        {
          "internalType": "address",
          "name": "user",
          "type": "address"
        },
        {
          "internalType": "uint256",
          "name": "soulAmount",
          "type": "uint256"
        }
      ],
      "name": "burnSoul",
      "outputs": [],
      "stateMutability": "nonpayable",
      "type": "function"
    },
    {
      "inputs": [
        {
          "internalType": "uint256",
          "name": "varField",
          "type": "uint256"
        },
        {
          "internalType": "uint256",
          "name": "value",
          "type": "uint256"
        }
      ],
      "name": "setVar",
      "outputs": [],
      "stateMutability": "nonpayable",
      "type": "function"
    },
    {
      "inputs": [
        {
          "internalType": "uint256",
          "name": "linkId",
          "type": "uint256"
        },
        {
          "internalType": "address",
          "name": "linkAddress",
          "type": "address"
        }
      ],
      "name": "setLink",
      "outputs": [],
      "stateMutability": "nonpayable",
      "type": "function"
    },
    {
      "inputs": [
        {
          "internalType": "uint256",
          "name": "cents",
          "type": "uint256"
        }
      ],
      "name": "setBurnWeaponValue",
      "outputs": [],
      "stateMutability": "nonpayable",
      "type": "function"
    },
    {
      "inputs": [
        {
          "internalType": "uint256",
          "name": "cents",
          "type": "uint256"
        }
      ],
      "name": "setReforgeWeaponValue",
      "outputs": [],
      "stateMutability": "nonpayable",
      "type": "function"
    },
    {
      "inputs": [
        {
          "internalType": "uint256",
          "name": "cents",
          "type": "uint256"
        }
      ],
      "name": "setReforgeWeaponWithDustValue",
      "outputs": [],
      "stateMutability": "nonpayable",
      "type": "function"
    }
  ],
  "bytecode": "0x608060405234801561001057600080fd5b506135e9806100206000396000f3fe608060405234801561001057600080fd5b506004361061030c5760003560e01c806391d148541161019d578063ce3330f6116100e9578063e6a9076a116100a2578063fa8075781161007c578063fa80757814610a34578063fc19834214610a57578063fddc078d146107b5578063ffd54f2a14610af85761030c565b8063e6a9076a146109ce578063e71a136a146109eb578063f927695c14610a085761030c565b8063ce3330f614610842578063d056fe96146108e3578063d070bb5414610951578063d47270de14610959578063d547741f14610985578063d5ac062b146109b15761030c565b8063a217fddf11610156578063c0c53b8b11610130578063c0c53b8b146107dd578063c3fe3e2814610815578063c563145a1461081d578063ca15c873146108255761030c565b8063a217fddf146107c5578063aa22548b146107cd578063b7e1cd86146107d55761030c565b806391d14854146107245780639462fa1914610764578063979aacf71461076c5780639b4ca210146107895780639e93089c146107b55780639f8c964c146107bd5761030c565b80633f7e1dd51161025c5780636c992a551161021557806379bb7667116101ef57806379bb766714610311578063881d8a40146106765780638c5e36af146106935780639010d07c146107015761030c565b80636c992a551461063057806374b9e1ff146106535780637533e357146103115761030c565b80633f7e1dd5146105775780634389afa91461059b5780634bfe0fa7146105b85780635504d3d2146105db578063592c73e8146105e357806359995f551461060f5761030c565b8063253a4993116102c95780632f10ba3c116102a35780632f10ba3c1461045f5780632f2ff15d14610502578063359238aa1461052e57806336568abe1461054b5761030c565b8063253a4993146103f1578063282c51f3146104295780632ba7f34c146104315761030c565b80630828c521146103115780630a8a92151461032b5780630bbca1541461034b5780630fcb3fb714610370578063199a1071146103a8578063248a9ca3146103d4575b600080fd5b610319610b24565b60408051918252519081900360200190f35b6103196004803603602081101561034157600080fd5b5035600f0b610b29565b61036e6004803603604081101561036157600080fd5b5080359060200135610bbf565b005b61036e6004803603608081101561038657600080fd5b5080359060ff6020820135811691604081013582169160609091013516610c8d565b610319600480360360408110156103be57600080fd5b506001600160a01b038135169060200135610d5b565b610319600480360360208110156103ea57600080fd5b5035610d78565b61036e6004803603608081101561040757600080fd5b5080359060ff6020820135811691604081013582169160609091013516610d8d565b610319610e4c565b61036e6004803603604081101561044757600080fd5b506001600160a01b0381358116916020013516610e6f565b61036e6004803603604081101561047557600080fd5b810190602081018135600160201b81111561048f57600080fd5b8201836020820111156104a157600080fd5b803590602001918460208302840111600160201b831117156104c257600080fd5b9190808060200260200160405190810160405280939291908181526020018383602002808284376000920191909152509295505091359250610f3d915050565b61036e6004803603604081101561051857600080fd5b50803590602001356001600160a01b03166111d6565b61036e6004803603602081101561054457600080fd5b5035611242565b61036e6004803603604081101561056157600080fd5b50803590602001356001600160a01b031661127d565b61057f6112de565b604080516001600160a01b039092168252519081900360200190f35b61036e600480360360208110156105b157600080fd5b50356112ed565b61036e600480360360408110156105ce57600080fd5b508035906020013561172b565b6103196117f1565b61036e600480360360408110156105f957600080fd5b50803590602001356001600160a01b0316611813565b610617611849565b60408051600f92830b90920b8252519081900360200190f35b61036e6004803603604081101561064657600080fd5b5080359060200135611852565b61036e6004803603604081101561066957600080fd5b508035906020013561186c565b61057f6004803603602081101561068c57600080fd5b5035611929565b61036e600480360360208110156106a957600080fd5b810190602081018135600160201b8111156106c357600080fd5b8201836020820111156106d557600080fd5b803590602001918460208302840111600160201b831117156106f657600080fd5b509092509050611944565b61057f6004803603604081101561071757600080fd5b5080359060200135611a82565b6107506004803603604081101561073a57600080fd5b50803590602001356001600160a01b0316611aa7565b604080519115158252519081900360200190f35b61057f611ac5565b61036e6004803603602081101561078257600080fd5b5035611ad4565b61036e6004803603604081101561079f57600080fd5b506001600160a01b038135169060200135611b33565b610319611b69565b610617611b6e565b610319611b77565b610617611b7c565b61057f611b8c565b61036e600480360360608110156107f357600080fd5b506001600160a01b038135811691602081013582169160409091013516611b9b565b61057f611cb8565b610617611cc7565b6103196004803603602081101561083b57600080fd5b5035611cd3565b61036e6004803603602081101561085857600080fd5b810190602081018135600160201b81111561087257600080fd5b82018360208201111561088457600080fd5b803590602001918460208302840111600160201b831117156108a557600080fd5b919080806020026020016040519081016040528093929190818152602001838360200280828437600092019190915250929550611cea945050505050565b61036e600480360360208110156108f957600080fd5b810190602081018135600160201b81111561091357600080fd5b82018360208201111561092557600080fd5b803590602001918460208302840111600160201b8311171561094657600080fd5b509092509050612082565b61057f612204565b61036e6004803603604081101561096f57600080fd5b506001600160a01b038135169060200135612213565b61036e6004803603604081101561099b57600080fd5b50803590602001356001600160a01b03166122b7565b610319600480360360208110156109c757600080fd5b5035612310565b61036e600480360360208110156109e457600080fd5b503561258e565b61031960048036036020811015610a0157600080fd5b5035612600565b61036e60048036036040811015610a1e57600080fd5b506001600160a01b038135169060200135612612565b61036e60048036036040811015610a4a57600080fd5b508035906020013561264f565b61031960048036036020811015610a6d57600080fd5b810190602081018135600160201b811115610a8757600080fd5b820183602082011115610a9957600080fd5b803590602001918460208302840111600160201b83111715610aba57600080fd5b9190808060200260200160405190810160405280939291908181526020018383602002808284376000920191909152509295506126fa945050505050565b61036e60048036036040811015610b0e57600080fd5b506001600160a01b038135169060200135612737565b600181565b6000610bb9606d60009054906101000a90046001600160a01b03166001600160a01b0316639d1b464a6040518163ffffffff1660e01b815260040160206040518083038186803b158015610b7c57600080fd5b505afa158015610b90573d6000803e3d6000fd5b505050506040513d6020811015610ba657600080fd5b5051600f84900b9063ffffffff6127db16565b92915050565b81610bc981612843565b81610bd381612843565b606b54600090610bf890600f90810b900b67cccccccccccccccc63ffffffff6128d016565b6066549091506001600160a01b031662201e8b33610c1584610b29565b6040518363ffffffff1660e01b815260040180836001600160a01b03166001600160a01b0316815260200182815260200192505050600060405180830381600087803b158015610c6457600080fd5b505af1158015610c78573d6000803e3d6000fd5b50505050610c868585612910565b5050505050565b83610c9781612843565b606a54600090610cc390600160801b9004600f90810b900b67cccccccccccccccc63ffffffff6128d016565b6066549091506001600160a01b031662201e8b33610ce084610b29565b6040518363ffffffff1660e01b815260040180836001600160a01b03166001600160a01b0316815260200182815260200192505050600060405180830381600087803b158015610d2f57600080fd5b505af1158015610d43573d6000803e3d6000fd5b50505050610d5386868686612964565b505050505050565b606860209081526000928352604080842090915290825290205481565b60009081526033602052604090206002015490565b83610d9781612843565b606654606a546001600160a01b03909116906333107014903390610dc490600160801b9004600f0b610b29565b6040518363ffffffff1660e01b815260040180836001600160a01b03166001600160a01b0316815260200182815260200192505050608060405180830381600087803b158015610e1357600080fd5b505af1158015610e27573d6000803e3d6000fd5b505050506040513d6080811015610e3d57600080fd5b50610c86905085858585612964565b604080516a4255524e45525f524f4c4560a81b8152905190819003600b01902081565b610e7a600033611aa7565b610e8357600080fd5b606c80546001600160a01b038085166001600160a01b031992831617909255606d805492841692909116919091179055610ebf6002600a6129ca565b606a8054600f9290920b6001600160801b03166001600160801b0319909216919091179055610ef06003600a6129ca565b606a80546001600160801b03908116600160801b600f94850b831681029190911792839055606b80546001600160801b031916918404850b93850b9390930190930b169190911790555050565b81610f4781612a01565b610f4f612b83565b60016000908152606e60209081527f44e4f44bb0aae4b5d1e07207f82567d4201c1d09f6b5859dddcfb50647f55a7054606554604080516317db132b60e01b81526001600160a01b0392831660048201818152602483019384528a5160448401528a5194909516966317db132b9691958b9590949360640192868101929102908190849084905b83811015610fee578181015183820152602001610fd6565b50505050905001935050505060206040518083038186803b15801561101257600080fd5b505afa158015611026573d6000803e3d6000fd5b505050506040513d602081101561103c57600080fd5b505161107d576040805162461bcd60e51b815260206004820152600b60248201526a486176652065717569707360a81b604482015290519081900360640190fd5b6066546001600160a01b031663466cec3333611098866126fa565b6040518363ffffffff1660e01b815260040180836001600160a01b03166001600160a01b0316815260200182815260200192505050600060405180830381600087803b1580156110e757600080fd5b505af11580156110fb573d6000803e3d6000fd5b505060655460026000908152606960209081526000805160206134e683398151915254604051635f7b761360e11b815260248101899052604481018290526060600482019081528a5160648301528a516001600160a01b03909616975063bef6ec2696508a958a95939491938493608401928089019202908190849084905b8381101561119257818101518382015260200161117a565b50505050905001945050505050600060405180830381600087803b1580156111b957600080fd5b505af11580156111cd573d6000803e3d6000fd5b50505050505050565b6000828152603360205260409020600201546111f9906111f4612be3565b611aa7565b6112345760405162461bcd60e51b815260040180806020018281038252602f8152602001806134b7602f913960400191505060405180910390fd5b61123e8282612be7565b5050565b61124a612c56565b6112558160646129ca565b606a8054600f9290920b6001600160801b03166001600160801b031990921691909117905550565b611285612be3565b6001600160a01b0316816001600160a01b0316146112d45760405162461bcd60e51b815260040180806020018281038252602f815260200180613585602f913960400191505060405180910390fd5b61123e8282612cb6565b606d546001600160a01b031681565b6112f5612b83565b604080516a4255524e45525f524f4c4560a81b8152905190819003600b01902061131f9033611aa7565b61135d576040805162461bcd60e51b815260206004820152600a6024820152692737ba10313ab93732b960b11b604482015290519081900360640190fd5b6001600052606e60209081527f44e4f44bb0aae4b5d1e07207f82567d4201c1d09f6b5859dddcfb50647f55a705460655460408051630f100d8960e21b81526001600160a01b0392831660048201526024810186905290519190921692633c4036249260448082019391829003018186803b1580156113db57600080fd5b505afa1580156113ef573d6000803e3d6000fd5b505050506040513d602081101561140557600080fd5b5051611445576040805162461bcd60e51b815260206004820152600a6024820152694861732065717569707360b01b604482015290519081900360640190fd5b6066546001600160a01b031663466cec333261146084612310565b6040518363ffffffff1660e01b815260040180836001600160a01b03166001600160a01b0316815260200182815260200192505050600060405180830381600087803b1580156114af57600080fd5b505af11580156114c3573d6000803e3d6000fd5b50506040805160018082528183019092526060935091506020808301908036833701905050905081816000815181106114f857fe5b60209081029190910181019190915260655460405163b46e6c1760e01b81526004810183815284516024830152845160009485946001600160a01b03169363b46e6c17938893909283926044019185820191028083838b5b83811015611568578181015183820152602001611550565b5050505090500192505050604080518083038186803b15801561158a57600080fd5b505afa15801561159e573d6000803e3d6000fd5b505050506040513d60408110156115b457600080fd5b508051602091820151600260005260699092526000805160206134e68339815191525490935090915061160890670de0b6b3a7640000906115fc90859063ffffffff612d2516565b9063ffffffff612d7e16565b3260009081526068602090815260408083206001845282528220805490930190925560029052606990526000805160206134e68339815191525461166190670de0b6b3a7640000906115fc90849063ffffffff612d2516565b32600090815260686020908152604080832060028452825280832080549094019093556065549251633094e51960e11b8152600481018281528751602483015287516001600160a01b039590951694636129ca3294899492938493604490910192868201929102908190849084905b838110156116e85781810151838201526020016116d0565b5050505090500192505050600060405180830381600087803b15801561170d57600080fd5b505af1158015611721573d6000803e3d6000fd5b5050505050505050565b8161173581612843565b8161173f81612843565b606654606a546001600160a01b0390911690633310701490339061176590600f0b610b29565b6040518363ffffffff1660e01b815260040180836001600160a01b03166001600160a01b0316815260200182815260200192505050608060405180830381600087803b1580156117b457600080fd5b505af11580156117c8573d6000803e3d6000fd5b505050506040513d60808110156117de57600080fd5b506117eb90508484612910565b50505050565b604080516923a0a6a2afa0a226a4a760b11b8152905190819003600a01902081565b61181b612c56565b6000918252606e602052604090912080546001600160a01b0319166001600160a01b03909216919091179055565b606a54600f0b81565b61185a612c56565b60009182526069602052604090912055565b611874612b83565b336000908152606860209081526040808320600284529091529020546118a0908263ffffffff612de516565b33600090815260686020908152604080832060028452909152808220929092556065548251630af04db160e21b815260048101869052602481018590526044810183905292516001600160a01b0390911692632bc136c492606480830193919282900301818387803b15801561191557600080fd5b505af1158015610d53573d6000803e3d6000fd5b606e602052600090815260409020546001600160a01b031681565b8181808060200260200160405190810160405280939291908181526020018383602002808284376000920191909152506119839250839150612e429050565b60006119c267cccccccccccccccc6119b361199d86612ef4565b606a54600f90810b900b9063ffffffff6128d016565b600f0b9063ffffffff6128d016565b6066549091506001600160a01b031662201e8b336119df84610b29565b6040518363ffffffff1660e01b815260040180836001600160a01b03166001600160a01b0316815260200182815260200192505050600060405180830381600087803b158015611a2e57600080fd5b505af1158015611a42573d6000803e3d6000fd5b505050506117eb848480806020026020016040519081016040528093929190818152602001838360200280828437600092019190915250612f1292505050565b6000828152603360205260408120611aa0908363ffffffff612fa316565b9392505050565b6000828152603360205260408120611aa0908363ffffffff612faf16565b6067546001600160a01b031681565b611adc612c56565b611ae78160646129ca565b606a80546001600160801b03908116600160801b600f94850b831681029190911792839055606b80546001600160801b031916918404850b93850b9390930190930b1691909117905550565b611b3b612c56565b6001600160a01b03909116600090815260686020908152604080832060018452909152902080549091019055565b600281565b606b54600f0b81565b600081565b606a54600160801b9004600f0b81565b606c546001600160a01b031681565b600054610100900460ff1680611bb45750611bb4612fc4565b80611bc2575060005460ff16155b611bfd5760405162461bcd60e51b815260040180806020018281038252602e815260200180613536602e913960400191505060405180910390fd5b600054610100900460ff16158015611c28576000805460ff1961ff0019909116610100171660011790555b611c30612fd5565b611c3b600033611234565b604080516923a0a6a2afa0a226a4a760b11b8152905190819003600a019020611c649033611234565b606580546001600160a01b038087166001600160a01b03199283161790925560678054868416908316179055606680549285169290911691909117905580156117eb576000805461ff001916905550505050565b6066546001600160a01b031681565b67cccccccccccccccc81565b6000818152603360205260408120610bb990613086565b80611cf481612a01565b611cfc612b83565b60016000908152606e60209081527f44e4f44bb0aae4b5d1e07207f82567d4201c1d09f6b5859dddcfb50647f55a7054606554604080516317db132b60e01b81526001600160a01b03928316600482018181526024830193845289516044840152895194909516966317db132b9691958a9590949360640192868101929102908190849084905b83811015611d9b578181015183820152602001611d83565b50505050905001935050505060206040518083038186803b158015611dbf57600080fd5b505afa158015611dd3573d6000803e3d6000fd5b505050506040513d6020811015611de957600080fd5b5051611e2a576040805162461bcd60e51b815260206004820152600b60248201526a486176652065717569707360a81b604482015290519081900360640190fd5b6066546001600160a01b031663466cec3333611e45856126fa565b6040518363ffffffff1660e01b815260040180836001600160a01b03166001600160a01b0316815260200182815260200192505050600060405180830381600087803b158015611e9457600080fd5b505af1158015611ea8573d6000803e3d6000fd5b505060655460405163b46e6c1760e01b8152602060048201818152875160248401528751600096508695506001600160a01b039094169363b46e6c17938993839260449092019181860191028083838b5b83811015611f11578181015183820152602001611ef9565b5050505090500192505050604080518083038186803b158015611f3357600080fd5b505afa158015611f47573d6000803e3d6000fd5b505050506040513d6040811015611f5d57600080fd5b508051602091820151600260005260699092526000805160206134e683398151915254909350909150611fa590670de0b6b3a7640000906115fc90859063ffffffff612d2516565b3360009081526068602090815260408083206001845282528220805490930190925560029052606990526000805160206134e683398151915254611ffe90670de0b6b3a7640000906115fc90849063ffffffff612d2516565b3360009081526068602090815260408083206002845282528083208054949094019093556065549251633094e51960e11b8152600481018281528851602483015288516001600160a01b0390951694636129ca32948a94929384936044909101928682019291029081908490849083156116e85781810151838201526020016116d0565b8181808060200260200160405190810160405280939291908181526020018383602002808284376000920191909152506120c19250839150612e429050565b6066546001600160a01b031663331070143382630a8a92156120e561199d88612ef4565b6040518263ffffffff1660e01b81526004018082600f0b600f0b815260200191505060206040518083038186803b15801561211f57600080fd5b505afa158015612133573d6000803e3d6000fd5b505050506040513d602081101561214957600080fd5b5051604080516001600160e01b031960e086901b1681526001600160a01b03909316600484015260248301919091525160448083019260809291908290030181600087803b15801561219a57600080fd5b505af11580156121ae573d6000803e3d6000fd5b505050506040513d60808110156121c457600080fd5b505060408051602084810282810182019093528482526121ff92869186918291850190849080828437600092019190915250612f1292505050565b505050565b6065546001600160a01b031681565b3360009081526068602090815260408083206001845290915290205461223f908263ffffffff612de516565b3360009081526068602081815260408084206001808652908352818520959095556001600160a01b038716845291815281832093835292909252205461228b908263ffffffff61309116565b6001600160a01b0390921660009081526068602090815260408083206001845290915290209190915550565b6000828152603360205260409020600201546122d5906111f4612be3565b6112d45760405162461bcd60e51b81526004018080602001828103825260308152602001806135066030913960400191505060405180910390fd5b60016000908152606960209081527fc073f36c05b6a60b24c30a48974b549770d8fa354751fb3170c9dfd8ca536add54606554604080516370b4670160e11b815260048101879052905192936001600160a01b039092169263e168ce0292602480840193919291829003018186803b15801561238b57600080fd5b505afa15801561239f573d6000803e3d6000fd5b505050506040513d60208110156123b557600080fd5b50516066546040805163cb7c7aa360e01b815290516001600160a01b039092169163e71a136a91839163cb7c7aa391600480820192602092909190829003018186803b15801561240457600080fd5b505afa158015612418573d6000803e3d6000fd5b505050506040513d602081101561242e57600080fd5b5051604080516001600160e01b031960e085901b1681526004810192909252516024808301926020929190829003018186803b15801561246d57600080fd5b505afa158015612481573d6000803e3d6000fd5b505050506040513d602081101561249757600080fd5b5051606654604080516302c59f4b60e21b815290516001600160a01b039092169163e71a136a918391630b167d2c91600480820192602092909190829003018186803b1580156124e657600080fd5b505afa1580156124fa573d6000803e3d6000fd5b505050506040513d602081101561251057600080fd5b5051604080516001600160e01b031960e085901b1681526004810192909252516024808301926020929190829003018186803b15801561254f57600080fd5b505afa158015612563573d6000803e3d6000fd5b505050506040513d602081101561257957600080fd5b50518161258257fe5b04020260070292915050565b612596612c56565b60006125a38260646129ca565b606a54909150600f90810b810b9082900b136125be57600080fd5b606a80546001600160801b03808216600160801b600f93840b8603840b83160217909255606b80546001600160801b0319169390910b90911691909117905550565b60696020526000908152604090205481565b61261a612c56565b6001600160a01b03821660009081526068602090815260408083206001845290915290205461228b908263ffffffff612de516565b612657612b83565b33600090815260686020908152604080832060018452909152902054612683908263ffffffff612de516565b33600090815260686020908152604080832060018085529252808320939093556065548351630af04db160e21b81526004810187905260248101869052604481019290925292516001600160a01b0390931692632bc136c49260648084019391929182900301818387803b15801561191557600080fd5b600080805b83518110156127305761272484828151811061271757fe5b6020026020010151612310565b909101906001016126ff565b5092915050565b33600090815260686020908152604080832060028452909152902054612763908263ffffffff612de516565b3360009081526068602081815260408084206002808652908352818520959095556001600160a01b03871684529181528183209383529290925220546127af908263ffffffff61309116565b6001600160a01b0390921660009081526068602090815260408083206002845290915290209190915550565b6000816127ea57506000610bb9565b600083600f0b12156127fb57600080fd5b600f83900b6001600160801b038316810260401c90608084901c026001600160c01b0381111561282a57600080fd5b60401b811981111561283b57600080fd5b019392505050565b606c54604080516331a9108f60e11b815260048101849052905133926001600160a01b031691636352211e916024808301926020929190829003018186803b15801561288e57600080fd5b505afa1580156128a2573d6000803e3d6000fd5b505050506040513d60208110156128b857600080fd5b50516001600160a01b0316146128cd57600080fd5b50565b6000600f83810b9083900b0260401d6f7fffffffffffffffffffffffffffffff198112801590612907575060016001607f1b038113155b611aa057600080fd5b606c5460408051639abcafef60e01b8152600481018590526024810184905290516001600160a01b0390921691639abcafef9160448082019260009290919082900301818387803b15801561191557600080fd5b606c546040805163c394f9db60e01b81526004810187905260ff808716602483015280861660448301528416606482015290516001600160a01b039092169163c394f9db9160848082019260009290919082900301818387803b15801561170d57600080fd5b6000816129d657600080fd5b60006129e284846130eb565b905060016001607f1b036001600160801b0382161115611aa057600080fd5b60005b815181101561123e57606554825133916001600160a01b031690636352211e90859085908110612a3057fe5b60200260200101516040518263ffffffff1660e01b81526004018082815260200191505060206040518083038186803b158015612a6c57600080fd5b505afa158015612a80573d6000803e3d6000fd5b505050506040513d6020811015612a9657600080fd5b50516001600160a01b03161480612b3e5750606754825133916001600160a01b03169063b8cae95090859085908110612acb57fe5b60200260200101516040518263ffffffff1660e01b81526004018082815260200191505060206040518083038186803b158015612b0757600080fd5b505afa158015612b1b573d6000803e3d6000fd5b505050506040513d6020811015612b3157600080fd5b50516001600160a01b0316145b612b7b576040805162461bcd60e51b81526020600482015260096024820152682737ba1037bbb732b960b91b604482015290519081900360640190fd5b600101612a04565b600260005260696020526000805160206134e683398151915254612be1576040805162461bcd60e51b815260206004820152601060248201526f109d5c9b9a5b99c8191a5cd8589b195960821b604482015290519081900360640190fd5b565b3390565b6000828152603360205260409020612c05908263ffffffff61323416565b1561123e57612c12612be3565b6001600160a01b0316816001600160a01b0316837f2f8788117e7eff1d82e926ec794901d17c78024a50270940304540a733656f0d60405160405180910390a45050565b604080516923a0a6a2afa0a226a4a760b11b8152905190819003600a019020612c7f9033611aa7565b612be1576040805162461bcd60e51b81526020600482015260036024820152624e474160e81b604482015290519081900360640190fd5b6000828152603360205260409020612cd4908263ffffffff61324916565b1561123e57612ce1612be3565b6001600160a01b0316816001600160a01b0316837ff6391f5c32d9c69d2a47ea670b442974b53935d1edc7fd64eb21e047a839171b60405160405180910390a45050565b600082612d3457506000610bb9565b82820282848281612d4157fe5b0414611aa05760405162461bcd60e51b81526004018080602001828103825260218152602001806135646021913960400191505060405180910390fd5b6000808211612dd4576040805162461bcd60e51b815260206004820152601a60248201527f536166654d6174683a206469766973696f6e206279207a65726f000000000000604482015290519081900360640190fd5b818381612ddd57fe5b049392505050565b600082821115612e3c576040805162461bcd60e51b815260206004820152601e60248201527f536166654d6174683a207375627472616374696f6e206f766572666c6f770000604482015290519081900360640190fd5b50900390565b60005b815181101561123e57606c54825133916001600160a01b031690636352211e90859085908110612e7157fe5b60200260200101516040518263ffffffff1660e01b81526004018082815260200191505060206040518083038186803b158015612ead57600080fd5b505afa158015612ec1573d6000803e3d6000fd5b505050506040513d6020811015612ed757600080fd5b50516001600160a01b031614612eec57600080fd5b600101612e45565b6000677fffffffffffffff821115612f0b57600080fd5b5060401b90565b60005b815181101561123e57606c5482516001600160a01b03909116906342966c6890849084908110612f4157fe5b60200260200101516040518263ffffffff1660e01b815260040180828152602001915050600060405180830381600087803b158015612f7f57600080fd5b505af1158015612f93573d6000803e3d6000fd5b505060019092019150612f159050565b6000611aa0838361325e565b6000611aa0836001600160a01b0384166132c2565b6000612fcf306132da565b15905090565b600054610100900460ff1680612fee5750612fee612fc4565b80612ffc575060005460ff16155b6130375760405162461bcd60e51b815260040180806020018281038252602e815260200180613536602e913960400191505060405180910390fd5b600054610100900460ff16158015613062576000805460ff1961ff0019909116610100171660011790555b61306a6132e0565b6130726132e0565b80156128cd576000805461ff001916905550565b6000610bb982613380565b600082820183811015611aa0576040805162461bcd60e51b815260206004820152601b60248201527f536166654d6174683a206164646974696f6e206f766572666c6f770000000000604482015290519081900360640190fd5b6000816130f757600080fd5b60006001600160c01b03841161311c5782604085901b8161311457fe5b049050613220565b60c084811c600160201b8110613134576020918201911c5b620100008110613146576010918201911c5b6101008110613157576008918201911c5b60108110613167576004918201911c5b60048110613177576002918201911c5b60028110613186576001820191505b60bf820360018603901c6001018260ff0387901b816131a157fe5b0492506001600160801b038311156131b857600080fd5b608085901c83026001600160801b038616840260c088901c604089901b828110156131e4576001820391505b608084901b929003828110156131fb576001820391505b829003608084901c821461320b57fe5b88818161321457fe5b04870196505050505050505b6001600160801b03811115611aa057600080fd5b6000611aa0836001600160a01b038416613384565b6000611aa0836001600160a01b0384166133ce565b815460009082106132a05760405162461bcd60e51b81526004018080602001828103825260228152602001806134956022913960400191505060405180910390fd5b8260000182815481106132af57fe5b9060005260206000200154905092915050565b60009081526001919091016020526040902054151590565b3b151590565b600054610100900460ff16806132f957506132f9612fc4565b80613307575060005460ff16155b6133425760405162461bcd60e51b815260040180806020018281038252602e815260200180613536602e913960400191505060405180910390fd5b600054610100900460ff16158015613072576000805460ff1961ff00199091166101001716600117905580156128cd576000805461ff001916905550565b5490565b600061339083836132c2565b6133c657508154600181810184556000848152602080822090930184905584548482528286019093526040902091909155610bb9565b506000610bb9565b6000818152600183016020526040812054801561348a578354600019808301919081019060009087908390811061340157fe5b906000526020600020015490508087600001848154811061341e57fe5b60009182526020808320909101929092558281526001898101909252604090209084019055865487908061344e57fe5b60019003818190600052602060002001600090559055866001016000878152602001908152602001600020600090556001945050505050610bb9565b6000915050610bb956fe456e756d657261626c655365743a20696e646578206f7574206f6620626f756e6473416363657373436f6e74726f6c3a2073656e646572206d75737420626520616e2061646d696e20746f206772616e740e06b3a0ac1d519392f9d33f9b92cd5a527ceb8ad2859e7bfebef5dd54cfca91416363657373436f6e74726f6c3a2073656e646572206d75737420626520616e2061646d696e20746f207265766f6b65496e697469616c697a61626c653a20636f6e747261637420697320616c726561647920696e697469616c697a6564536166654d6174683a206d756c7469706c69636174696f6e206f766572666c6f77416363657373436f6e74726f6c3a2063616e206f6e6c792072656e6f756e636520726f6c657320666f722073656c66a264697066735822122035b3b5d2fbfc006e8a81dbcdca086343db5aa057b90f52e38ceed2e77415ee4064736f6c63430006050033",
  "immutableReferences": {},
  "source": "pragma solidity ^0.6.2;\n\nimport \"@openzeppelin/contracts/math/SafeMath.sol\";\nimport \"abdk-libraries-solidity/ABDKMath64x64.sol\";\nimport \"./Promos.sol\";\nimport \"./util.sol\";\nimport \"./Garrison.sol\";\nimport \"./cryptoblades.sol\";\nimport \"./EquipmentManager.sol\";\n\ncontract BurningManager is Initializable, AccessControlUpgradeable {\n    using SafeMath for uint256;\n    using ABDKMath64x64 for int128;\n\n    bytes32 public constant GAME_ADMIN = keccak256(\"GAME_ADMIN\");\n    bytes32 public constant BURNER_ROLE = keccak256(\"BURNER_ROLE\");\n\n    // STATE\n    Characters public characters;\n    CryptoBlades public game;\n    Garrison public garrison;\n\n    mapping(address => mapping(uint256 => uint256)) public userVars;\n    uint256 public constant USERVAR_SOUL_SUPPLY = 1;\n    uint256 public constant USERVAR_NON_GENESIS_SOUL_SUPPLY = 2;\n    mapping(uint256 => uint256) public vars;\n    uint256 public constant VAR_ROI_DAYS = 1;\n    uint256 public constant VAR_BURN_POWER_MULTIPLIER = 2;\n\n    int128 public burnWeaponFee;\n    int128 public reforgeWeaponWithDustFee;\n    int128 public reforgeWeaponFee;\n    int128 public constant PAYMENT_USING_STAKED_SKILL_COST_AFTER_DISCOUNT = 14757395258967641292; // 0.8 in fixed-point 64x64 format\n\n\n    Weapons public weapons;\n    IPriceOracle public priceOracleSkillPerUsd;\n\n    mapping(uint256 => address) public links;\n    uint256 public constant LINK_EQUIPMENT_MANAGER = 1;\n\n    function initialize(Characters _characters, Garrison _garrison, CryptoBlades _game)\n        public\n        initializer\n    {\n        __AccessControl_init();\n        _setupRole(DEFAULT_ADMIN_ROLE, msg.sender);\n        _setupRole(GAME_ADMIN, msg.sender);\n\n        characters = _characters;\n        garrison = _garrison;\n        game = _game;\n    }\n\n    function migrateTo_e1fe97c(Weapons _weapons, IPriceOracle _priceOracleSkillPerUsd) external {\n        require(hasRole(DEFAULT_ADMIN_ROLE, msg.sender));\n        weapons = _weapons;\n        priceOracleSkillPerUsd = _priceOracleSkillPerUsd;\n        burnWeaponFee = ABDKMath64x64.divu(2, 10); // 0.2 USD\n        reforgeWeaponWithDustFee = ABDKMath64x64.divu(3, 10); // 0.3 USD\n        reforgeWeaponFee = burnWeaponFee + reforgeWeaponWithDustFee; // 0.5 USD\n    }\n\n    // MODIFIERS\n\n    modifier isCharactersOwner(uint256[] memory burnIds) {\n        _isCharactersOwner(burnIds);\n        _;\n    }\n\n    function _isCharactersOwner(uint256[] memory burnIds) internal view {\n        for(uint i = 0; i < burnIds.length; i++) {\n            require(characters.ownerOf(burnIds[i]) == msg.sender || garrison.characterOwner(burnIds[i]) == msg.sender, 'Not owner');\n        }\n    }\n\n    modifier isWeaponOwner(uint256 weapon) {\n        _isWeaponOwner(weapon);\n        _;\n    }\n\n    function _isWeaponOwner(uint256 weapon) internal view {\n        require(weapons.ownerOf(weapon) == msg.sender);\n    }\n\n    modifier isWeaponsOwner(uint256[] memory weaponArray) {\n        _isWeaponsOwner(weaponArray);\n        _;\n    }\n\n    function _isWeaponsOwner(uint256[] memory weaponArray) internal view {\n        for(uint i = 0; i < weaponArray.length; i++) {\n            require(weapons.ownerOf(weaponArray[i]) == msg.sender);\n        }\n    }\n\n    modifier restricted() {\n        _restricted();\n        _;\n    }\n\n    function _restricted() internal view {\n        require(hasRole(GAME_ADMIN, msg.sender), \"NGA\");\n    }\n\n    modifier burningEnabled() {\n        _burningEnabled();\n        _;\n    }\n\n    function _burningEnabled() internal view {\n        require(vars[VAR_BURN_POWER_MULTIPLIER] > 0, \"Burning disabled\");\n    }\n\n    // VIEWS\n\n    function burnCharactersFee(uint256[] memory burnIds) public view returns (uint256) {\n        uint256 burnFee = 0;\n        for(uint i = 0; i < burnIds.length; i++) {\n            burnFee += burnCharacterFee(burnIds[i]);\n        }\n        return burnFee;\n    }\n\n    function burnCharacterFee(uint256 burnId) public view returns (uint256) {\n        return (game.vars(game.VAR_HOURLY_PAY_PER_FIGHT()) / game.vars(game.VAR_HOURLY_MAX_POWER_AVERAGE())) * 7 * characters.getTotalPower(burnId) * vars[VAR_ROI_DAYS];\n    }\n\n    function usdToSkill(int128 usdAmount) public view returns (uint256) {\n        return usdAmount.mulu(priceOracleSkillPerUsd.currentPrice());\n    }\n\n    //FUNCTIONS\n\n    // Characters burning\n    function burnCharacterFromMarket(uint256 burnId) external burningEnabled {\n        require(hasRole(BURNER_ROLE, msg.sender), 'Not burner');\n        require(EquipmentManager(links[LINK_EQUIPMENT_MANAGER])\n            .hasNothingEquipped(address(characters), burnId), 'Has equips');\n        game.payContractTokenOnly(tx.origin, burnCharacterFee(burnId));\n        uint256[] memory burnIds = new uint256[](1);\n        burnIds[0] = burnId;\n        (uint256 genesisSoul, uint256 nonGenesisSoul) = characters.getSoulForBurns(burnIds);\n        userVars[tx.origin][USERVAR_SOUL_SUPPLY] += genesisSoul.mul(vars[VAR_BURN_POWER_MULTIPLIER]).div(1e18);\n        userVars[tx.origin][USERVAR_NON_GENESIS_SOUL_SUPPLY] += nonGenesisSoul.mul(vars[VAR_BURN_POWER_MULTIPLIER]).div(1e18);\n        characters.burnIntoSoul(burnIds);\n    }\n\n    function burnCharactersIntoCharacter(uint256[] memory burnIds, uint256 targetId) public isCharactersOwner(burnIds) burningEnabled {\n        require(EquipmentManager(links[LINK_EQUIPMENT_MANAGER])\n            .haveNothingEquipped(address(characters), burnIds), 'Have equips');\n        game.payContractTokenOnly(msg.sender, burnCharactersFee(burnIds));\n        characters.burnIntoCharacter(burnIds, targetId, vars[VAR_BURN_POWER_MULTIPLIER]);\n    }\n\n    function burnCharactersIntoSoul(uint256[] memory burnIds) public isCharactersOwner(burnIds) burningEnabled {\n        require(EquipmentManager(links[LINK_EQUIPMENT_MANAGER])\n            .haveNothingEquipped(address(characters), burnIds), 'Have equips');\n        game.payContractTokenOnly(msg.sender, burnCharactersFee(burnIds));\n        (uint256 genesisSoul, uint256 nonGenesisSoul) = characters.getSoulForBurns(burnIds);\n        userVars[msg.sender][USERVAR_SOUL_SUPPLY] += genesisSoul.mul(vars[VAR_BURN_POWER_MULTIPLIER]).div(1e18);\n        userVars[msg.sender][USERVAR_NON_GENESIS_SOUL_SUPPLY] += nonGenesisSoul.mul(vars[VAR_BURN_POWER_MULTIPLIER]).div(1e18);\n        characters.burnIntoSoul(burnIds);\n    }\n\n    function transferSoul(address targetAddress, uint256 soulAmount) public {\n        userVars[msg.sender][USERVAR_SOUL_SUPPLY] = userVars[msg.sender][USERVAR_SOUL_SUPPLY].sub(soulAmount);\n        userVars[targetAddress][USERVAR_SOUL_SUPPLY] = userVars[targetAddress][USERVAR_SOUL_SUPPLY].add(soulAmount);\n    }\n\n     function transferNonGenesisSoul(address targetAddress, uint256 soulAmount) public {\n        userVars[msg.sender][USERVAR_NON_GENESIS_SOUL_SUPPLY] = userVars[msg.sender][USERVAR_NON_GENESIS_SOUL_SUPPLY].sub(soulAmount);\n        userVars[targetAddress][USERVAR_NON_GENESIS_SOUL_SUPPLY] = userVars[targetAddress][USERVAR_NON_GENESIS_SOUL_SUPPLY].add(soulAmount);\n    }\n\n    function upgradeCharacterWithSoul(uint256 targetId, uint256 soulAmount) public burningEnabled {\n        userVars[msg.sender][USERVAR_SOUL_SUPPLY] = userVars[msg.sender][USERVAR_SOUL_SUPPLY].sub(soulAmount);\n        characters.upgradeWithSoul(targetId, soulAmount, true);\n    }\n\n    function upgradeNonGenesisCharacterWithSoul(uint256 targetId, uint256 soulAmount) public burningEnabled {\n        userVars[msg.sender][USERVAR_NON_GENESIS_SOUL_SUPPLY] = userVars[msg.sender][USERVAR_NON_GENESIS_SOUL_SUPPLY].sub(soulAmount);\n        characters.upgradeWithSoul(targetId, soulAmount, false);\n    }\n\n    // Weapons burning\n\n    function burnWeapons(uint256[] calldata burnIDs) external isWeaponsOwner(burnIDs) {\n        game.payContractConvertedSupportingStaked(msg.sender, game.usdToSkill(burnWeaponFee.mul(ABDKMath64x64.fromUInt(burnIDs.length))));\n\n        _burnWeaponsLogic(burnIDs);\n    }\n\n    function reforgeWeapon(uint256 reforgeID, uint256 burnID) external isWeaponOwner(reforgeID) isWeaponOwner(burnID) {\n        game.payContractConvertedSupportingStaked(msg.sender, usdToSkill(burnWeaponFee));\n\n        _reforgeWeaponLogic(reforgeID, burnID);\n    }\n\n    function reforgeWeaponWithDust(uint256 reforgeID, uint8 amountLB, uint8 amount4B, uint8 amount5B) external isWeaponOwner(reforgeID) {\n        game.payContractConvertedSupportingStaked(msg.sender, usdToSkill(reforgeWeaponWithDustFee));\n\n        _reforgeWeaponWithDustLogic(reforgeID, amountLB, amount4B, amount5B);\n    }\n\n    function burnWeaponsUsingStakedSkill(uint256[] calldata burnIDs) external isWeaponsOwner(burnIDs) {\n        int128 discountedBurnWeaponFee =\n            burnWeaponFee\n                .mul(ABDKMath64x64.fromUInt(burnIDs.length))\n                .mul(PAYMENT_USING_STAKED_SKILL_COST_AFTER_DISCOUNT);\n        game.payContractStakedOnly(msg.sender, usdToSkill(discountedBurnWeaponFee));\n\n        _burnWeaponsLogic(burnIDs);\n    }\n\n    function reforgeWeaponUsingStakedSkill(uint256 reforgeID, uint256 burnID) external isWeaponOwner(reforgeID) isWeaponOwner(burnID) {\n        int128 discountedReforgeWeaponFee =\n            reforgeWeaponFee\n                .mul(PAYMENT_USING_STAKED_SKILL_COST_AFTER_DISCOUNT);\n        game.payContractStakedOnly(msg.sender, usdToSkill(discountedReforgeWeaponFee));\n\n        _reforgeWeaponLogic(reforgeID, burnID);\n    }\n\n    function reforgeWeaponWithDustUsingStakedSkill(uint256 reforgeID, uint8 amountLB, uint8 amount4B, uint8 amount5B) external isWeaponOwner(reforgeID) {\n        int128 discountedReforgeWeaponWithDustFee =\n            reforgeWeaponWithDustFee\n                .mul(PAYMENT_USING_STAKED_SKILL_COST_AFTER_DISCOUNT);\n        game.payContractStakedOnly(msg.sender, usdToSkill(discountedReforgeWeaponWithDustFee));\n\n        _reforgeWeaponWithDustLogic(reforgeID, amountLB, amount4B, amount5B);\n    }\n\n    function _burnWeaponLogic(uint256 burnID) internal {\n        weapons.burn(burnID);\n    }\n\n    function _burnWeaponsLogic(uint256[] memory burnIDs) internal {\n        for(uint i = 0; i < burnIDs.length; i++) {\n            weapons.burn(burnIDs[i]);\n        }\n    }\n\n    function _reforgeWeaponLogic(uint256 reforgeID, uint256 burnID) internal {\n        weapons.reforge(reforgeID, burnID);\n    }\n\n    function _reforgeWeaponWithDustLogic(uint256 reforgeID, uint8 amountLB, uint8 amount4B, uint8 amount5B) internal {\n        weapons.reforgeWithDust(reforgeID, amountLB, amount4B, amount5B);\n    }\n\n    function giveAwaySoul(address user, uint256 soulAmount) external restricted {\n        userVars[user][USERVAR_SOUL_SUPPLY] += soulAmount;\n    }\n\n    function burnSoul(address user, uint256 soulAmount) external restricted {\n        userVars[user][USERVAR_SOUL_SUPPLY] = userVars[user][USERVAR_SOUL_SUPPLY].sub(soulAmount);\n    }\n\n    // VARS SETTER\n\n    function setVar(uint256 varField, uint256 value) external restricted {\n        vars[varField] = value;\n    }\n\n    function setLink(uint256 linkId, address linkAddress) external restricted {\n        links[linkId] = linkAddress;\n    }\n\n    function setBurnWeaponValue(uint256 cents) public restricted {\n        burnWeaponFee = ABDKMath64x64.divu(cents, 100);\n    }\n\n    function setReforgeWeaponValue(uint256 cents) public restricted {\n        int128 newReforgeWeaponFee = ABDKMath64x64.divu(cents, 100);\n        require(newReforgeWeaponFee > burnWeaponFee);\n        reforgeWeaponWithDustFee = newReforgeWeaponFee - burnWeaponFee;\n        reforgeWeaponFee = newReforgeWeaponFee;\n    }\n\n    function setReforgeWeaponWithDustValue(uint256 cents) public restricted {\n        reforgeWeaponWithDustFee = ABDKMath64x64.divu(cents, 100);\n        reforgeWeaponFee = burnWeaponFee + reforgeWeaponWithDustFee;\n    }\n    \n}\n",
  "sourcePath": "/mnt/e/work/cryptoblades/contracts/BurningManager.sol",
  "compiler": {
    "name": "solc",
    "version": "0.6.5+commit.f956cc89.Emscripten.clang"
  },
  "schemaVersion": "3.3.4",
  "updatedAt": "2023-01-24T17:45:30.911Z",
  "devdoc": {
    "methods": {
      "getRoleAdmin(bytes32)": {
        "details": "Returns the admin role that controls `role`. See {grantRole} and {revokeRole}.     * To change a role's admin, use {_setRoleAdmin}."
      },
      "getRoleMember(bytes32,uint256)": {
        "details": "Returns one of the accounts that have `role`. `index` must be a value between 0 and {getRoleMemberCount}, non-inclusive.     * Role bearers are not sorted in any particular way, and their ordering may change at any point.     * WARNING: When using {getRoleMember} and {getRoleMemberCount}, make sure you perform all queries on the same block. See the following https://forum.openzeppelin.com/t/iterating-over-elements-on-enumerableset-in-openzeppelin-contracts/2296[forum post] for more information."
      },
      "getRoleMemberCount(bytes32)": {
        "details": "Returns the number of accounts that have `role`. Can be used together with {getRoleMember} to enumerate all bearers of a role."
      },
      "grantRole(bytes32,address)": {
        "details": "Grants `role` to `account`.     * If `account` had not been already granted `role`, emits a {RoleGranted} event.     * Requirements:     * - the caller must have ``role``'s admin role."
      },
      "hasRole(bytes32,address)": {
        "details": "Returns `true` if `account` has been granted `role`."
      },
      "renounceRole(bytes32,address)": {
        "details": "Revokes `role` from the calling account.     * Roles are often managed via {grantRole} and {revokeRole}: this function's purpose is to provide a mechanism for accounts to lose their privileges if they are compromised (such as when a trusted device is misplaced).     * If the calling account had been granted `role`, emits a {RoleRevoked} event.     * Requirements:     * - the caller must be `account`."
      },
      "revokeRole(bytes32,address)": {
        "details": "Revokes `role` from `account`.     * If `account` had been granted `role`, emits a {RoleRevoked} event.     * Requirements:     * - the caller must have ``role``'s admin role."
      }
    }
  },
  "userdoc": {
    "methods": {}
  }
}