{
  "contractName": "CBKLandBridgeProxyContract",
  "abi": [
    {
      "anonymous": false,
      "inputs": [
        {
          "indexed": true,
          "internalType": "bytes32",
          "name": "role",
          "type": "bytes32"
        },
        {
          "indexed": true,
          "internalType": "bytes32",
          "name": "previousAdminRole",
          "type": "bytes32"
        },
        {
          "indexed": true,
          "internalType": "bytes32",
          "name": "newAdminRole",
          "type": "bytes32"
        }
      ],
      "name": "RoleAdminChanged",
      "type": "event"
    },
    {
      "anonymous": false,
      "inputs": [
        {
          "indexed": true,
          "internalType": "bytes32",
          "name": "role",
          "type": "bytes32"
        },
        {
          "indexed": true,
          "internalType": "address",
          "name": "account",
          "type": "address"
        },
        {
          "indexed": true,
          "internalType": "address",
          "name": "sender",
          "type": "address"
        }
      ],
      "name": "RoleGranted",
      "type": "event"
    },
    {
      "anonymous": false,
      "inputs": [
        {
          "indexed": true,
          "internalType": "bytes32",
          "name": "role",
          "type": "bytes32"
        },
        {
          "indexed": true,
          "internalType": "address",
          "name": "account",
          "type": "address"
        },
        {
          "indexed": true,
          "internalType": "address",
          "name": "sender",
          "type": "address"
        }
      ],
      "name": "RoleRevoked",
      "type": "event"
    },
    {
      "inputs": [],
      "name": "DEFAULT_ADMIN_ROLE",
      "outputs": [
        {
          "internalType": "bytes32",
          "name": "",
          "type": "bytes32"
        }
      ],
      "stateMutability": "view",
      "type": "function"
    },
    {
      "inputs": [],
      "name": "GAME_ADMIN",
      "outputs": [
        {
          "internalType": "bytes32",
          "name": "",
          "type": "bytes32"
        }
      ],
      "stateMutability": "view",
      "type": "function"
    },
    {
      "inputs": [],
      "name": "UINT_NFT_VAR_ADDRESS",
      "outputs": [
        {
          "internalType": "uint8",
          "name": "",
          "type": "uint8"
        }
      ],
      "stateMutability": "view",
      "type": "function"
    },
    {
      "inputs": [],
      "name": "UINT_NFT_VAR_META",
      "outputs": [
        {
          "internalType": "uint8",
          "name": "",
          "type": "uint8"
        }
      ],
      "stateMutability": "view",
      "type": "function"
    },
    {
      "inputs": [
        {
          "internalType": "bytes32",
          "name": "role",
          "type": "bytes32"
        }
      ],
      "name": "getRoleAdmin",
      "outputs": [
        {
          "internalType": "bytes32",
          "name": "",
          "type": "bytes32"
        }
      ],
      "stateMutability": "view",
      "type": "function"
    },
    {
      "inputs": [
        {
          "internalType": "bytes32",
          "name": "role",
          "type": "bytes32"
        },
        {
          "internalType": "uint256",
          "name": "index",
          "type": "uint256"
        }
      ],
      "name": "getRoleMember",
      "outputs": [
        {
          "internalType": "address",
          "name": "",
          "type": "address"
        }
      ],
      "stateMutability": "view",
      "type": "function"
    },
    {
      "inputs": [
        {
          "internalType": "bytes32",
          "name": "role",
          "type": "bytes32"
        }
      ],
      "name": "getRoleMemberCount",
      "outputs": [
        {
          "internalType": "uint256",
          "name": "",
          "type": "uint256"
        }
      ],
      "stateMutability": "view",
      "type": "function"
    },
    {
      "inputs": [
        {
          "internalType": "bytes32",
          "name": "role",
          "type": "bytes32"
        },
        {
          "internalType": "address",
          "name": "account",
          "type": "address"
        }
      ],
      "name": "grantRole",
      "outputs": [],
      "stateMutability": "nonpayable",
      "type": "function"
    },
    {
      "inputs": [
        {
          "internalType": "bytes32",
          "name": "role",
          "type": "bytes32"
        },
        {
          "internalType": "address",
          "name": "account",
          "type": "address"
        }
      ],
      "name": "hasRole",
      "outputs": [
        {
          "internalType": "bool",
          "name": "",
          "type": "bool"
        }
      ],
      "stateMutability": "view",
      "type": "function"
    },
    {
      "inputs": [
        {
          "internalType": "bytes32",
          "name": "role",
          "type": "bytes32"
        },
        {
          "internalType": "address",
          "name": "account",
          "type": "address"
        }
      ],
      "name": "renounceRole",
      "outputs": [],
      "stateMutability": "nonpayable",
      "type": "function"
    },
    {
      "inputs": [
        {
          "internalType": "bytes32",
          "name": "role",
          "type": "bytes32"
        },
        {
          "internalType": "address",
          "name": "account",
          "type": "address"
        }
      ],
      "name": "revokeRole",
      "outputs": [],
      "stateMutability": "nonpayable",
      "type": "function"
    },
    {
      "inputs": [
        {
          "internalType": "address",
          "name": "nftStorageAddress",
          "type": "address"
        },
        {
          "internalType": "address",
          "name": "cbkLand",
          "type": "address"
        }
      ],
      "name": "initialize",
      "outputs": [],
      "stateMutability": "nonpayable",
      "type": "function"
    },
    {
      "inputs": [
        {
          "internalType": "uint256",
          "name": "tokenId",
          "type": "uint256"
        }
      ],
      "name": "collectData",
      "outputs": [
        {
          "internalType": "uint256[]",
          "name": "uintVars",
          "type": "uint256[]"
        },
        {
          "internalType": "string",
          "name": "stringVar",
          "type": "string"
        }
      ],
      "stateMutability": "view",
      "type": "function"
    },
    {
      "inputs": [],
      "name": "sigVersion",
      "outputs": [
        {
          "internalType": "uint256",
          "name": "",
          "type": "uint256"
        }
      ],
      "stateMutability": "view",
      "type": "function"
    },
    {
      "inputs": [],
      "name": "isEnabled",
      "outputs": [
        {
          "internalType": "bool",
          "name": "",
          "type": "bool"
        }
      ],
      "stateMutability": "view",
      "type": "function"
    },
    {
      "inputs": [
        {
          "internalType": "bool",
          "name": "enabled",
          "type": "bool"
        }
      ],
      "name": "setEnabled",
      "outputs": [],
      "stateMutability": "nonpayable",
      "type": "function"
    },
    {
      "inputs": [
        {
          "internalType": "address",
          "name": "",
          "type": "address"
        },
        {
          "internalType": "uint256",
          "name": "tokenId",
          "type": "uint256"
        },
        {
          "internalType": "uint256[]",
          "name": "uintVars",
          "type": "uint256[]"
        },
        {
          "internalType": "string",
          "name": "stringVar",
          "type": "string"
        }
      ],
      "name": "mintOrUpdate",
      "outputs": [
        {
          "internalType": "uint256",
          "name": "",
          "type": "uint256"
        }
      ],
      "stateMutability": "nonpayable",
      "type": "function"
    },
    {
      "inputs": [
        {
          "internalType": "address",
          "name": "wallet",
          "type": "address"
        },
        {
          "internalType": "uint256",
          "name": "tokenId",
          "type": "uint256"
        },
        {
          "internalType": "uint256",
          "name": "targetChain",
          "type": "uint256"
        }
      ],
      "name": "canBridge",
      "outputs": [
        {
          "internalType": "bool",
          "name": "",
          "type": "bool"
        }
      ],
      "stateMutability": "view",
      "type": "function"
    }
  ],
  "bytecode": "0x608060405234801561001057600080fd5b50611087806100206000396000f3fe608060405234801561001057600080fd5b50600436106101165760003560e01c80634a03f16c116100a257806391d148541161007157806391d148541461038e578063a217fddf146103ba578063ca15c873146103c2578063d547741f146103df578063d58a097c1461040b57610116565b80634a03f16c146103375780635504d3d21461033f5780636aa633b6146103475780639010d07c1461034f57610116565b80632f2ff15d116100e95780632f2ff15d14610288578063328d8f72146102b657806336568abe146102d55780634594fac414610301578063485cc9551461030957610116565b8063135701f71461011b57806319dd746a14610139578063248a9ca3146102135780632d31418a14610242575b600080fd5b6101236104e2565b6040805160ff9092168252519081900360200190f35b6101566004803603602081101561014f57600080fd5b50356104e7565b604051808060200180602001838103835285818151815260200191508051906020019060200280838360005b8381101561019a578181015183820152602001610182565b50505050905001838103825284818151815260200191508051906020019080838360005b838110156101d65781810151838201526020016101be565b50505050905090810190601f1680156102035780820380516001836020036101000a031916815260200191505b5094505050505060405180910390f35b6102306004803603602081101561022957600080fd5b5035610614565b60408051918252519081900360200190f35b6102746004803603606081101561025857600080fd5b506001600160a01b038135169060208101359060400135610629565b604080519115158252519081900360200190f35b6102b46004803603604081101561029e57600080fd5b50803590602001356001600160a01b0316610632565b005b6102b4600480360360208110156102cc57600080fd5b5035151561069e565b6102b4600480360360408110156102eb57600080fd5b50803590602001356001600160a01b03166106c4565b610230610725565b6102b46004803603604081101561031f57600080fd5b506001600160a01b038135811691602001351661072a565b610123610811565b610230610816565b610274610838565b6103726004803603604081101561036557600080fd5b5080359060200135610848565b604080516001600160a01b039092168252519081900360200190f35b610274600480360360408110156103a457600080fd5b50803590602001356001600160a01b031661086f565b6102306104e2565b610230600480360360208110156103d857600080fd5b503561088d565b6102b4600480360360408110156103f557600080fd5b50803590602001356001600160a01b03166108a4565b6102306004803603608081101561042157600080fd5b6001600160a01b038235169160208101359181019060608101604082013564010000000081111561045157600080fd5b82018360208201111561046357600080fd5b8035906020019184602083028401116401000000008311171561048557600080fd5b9193909290916020810190356401000000008111156104a357600080fd5b8201836020820111156104b557600080fd5b803590602001918460018302840111640100000000831117156104d757600080fd5b5090925090506108fd565b600081565b6060806000806000806000606560009054906101000a90046001600160a01b03166001600160a01b0316639507d39a896040518263ffffffff1660e01b81526004018082815260200191505060a06040518083038186803b15801561054b57600080fd5b505afa15801561055f573d6000803e3d6000fd5b505050506040513d60a081101561057557600080fd5b508051602082015160408084015160608086015160809096015183516002808252928101909452949a5092985096509294509092508160200160208202803683370190505096506105c885858585610a94565b87600060ff16815181106105d857fe5b602002602001018181525050806001600160a01b031687600160ff16815181106105fe57fe5b6020026020010181815250505050505050915091565b60009081526033602052604090206002015490565b60019392505050565b60008281526033602052604090206002015461065590610650610aac565b61086f565b6106905760405162461bcd60e51b815260040180806020018281038252602f815260200180610f96602f913960400191505060405180910390fd5b61069a8282610ab0565b5050565b6106a6610b1f565b60668054911515600160a01b0260ff60a01b19909216919091179055565b6106cc610aac565b6001600160a01b0316816001600160a01b03161461071b5760405162461bcd60e51b815260040180806020018281038252602f815260200180611023602f913960400191505060405180910390fd5b61069a8282610b91565b600390565b600054610100900460ff16806107435750610743610c00565b80610751575060005460ff16155b61078c5760405162461bcd60e51b815260040180806020018281038252602e815260200180610ff5602e913960400191505060405180910390fd5b600054610100900460ff161580156107b7576000805460ff1961ff0019909116610100171660011790555b6107bf610c11565b6107ca600033610690565b606680546001600160a01b038086166001600160a01b0319928316179092556065805492851692909116919091179055801561080c576000805461ff00191690555b505050565b600181565b604080516923a0a6a2afa0a226a4a760b11b8152905190819003600a01902081565b606654600160a01b900460ff1690565b6000828152603360205260408120610866908363ffffffff610cc316565b90505b92915050565b6000828152603360205260408120610866908363ffffffff610ccf16565b600081815260336020526040812061086990610ce4565b6000828152603360205260409020600201546108c290610650610aac565b61071b5760405162461bcd60e51b8152600401808060200182810382526030815260200180610fc56030913960400191505060405180910390fd5b6000610907610b1f565b606654600160a01b900460ff16610953576040805162461bcd60e51b815260206004820152600b60248201526a1b9bdd08195b98589b195960aa1b604482015290519081900360640190fd5b60008080806109718989838161096557fe5b90506020020135610cef565b935093509350935060008989600160ff1681811061098b57fe5b905060200201359050606560009054906101000a90046001600160a01b03166001600160a01b031663b83d0c3c8c606660009054906101000a90046001600160a01b031688888888886040518863ffffffff1660e01b815260040180888152602001876001600160a01b03166001600160a01b03168152602001868152602001858152602001848152602001838152602001826001600160a01b03166001600160a01b03168152602001975050505050505050602060405180830381600087803b158015610a5857600080fd5b505af1158015610a6c573d6000803e3d6000fd5b505050506040513d6020811015610a8257600080fd5b50519c9b505050505050505050505050565b60281b60189190911b60089290921b92909217171790565b3390565b6000828152603360205260409020610ace908263ffffffff610d1316565b1561069a57610adb610aac565b6001600160a01b0316816001600160a01b0316837f2f8788117e7eff1d82e926ec794901d17c78024a50270940304540a733656f0d60405160405180910390a45050565b604080516923a0a6a2afa0a226a4a760b11b8152905190819003600a019020610b48903361086f565b80610b595750610b5960003361086f565b610b8f576040805162461bcd60e51b81526020600482015260026024820152614e4160f01b604482015290519081900360640190fd5b565b6000828152603360205260409020610baf908263ffffffff610d2816565b1561069a57610bbc610aac565b6001600160a01b0316816001600160a01b0316837ff6391f5c32d9c69d2a47ea670b442974b53935d1edc7fd64eb21e047a839171b60405160405180910390a45050565b6000610c0b30610d3d565b15905090565b600054610100900460ff1680610c2a5750610c2a610c00565b80610c38575060005460ff16155b610c735760405162461bcd60e51b815260040180806020018281038252602e815260200180610ff5602e913960400191505060405180910390fd5b600054610100900460ff16158015610c9e576000805460ff1961ff0019909116610100171660011790555b610ca6610d43565b610cae610d43565b8015610cc0576000805461ff00191690555b50565b60006108668383610de3565b6000610866836001600160a01b038416610e47565b600061086982610e5f565b60ff81169161ffff600883901c811692601881901c82169260289190911c90911690565b6000610866836001600160a01b038416610e63565b6000610866836001600160a01b038416610ead565b3b151590565b600054610100900460ff1680610d5c5750610d5c610c00565b80610d6a575060005460ff16155b610da55760405162461bcd60e51b815260040180806020018281038252602e815260200180610ff5602e913960400191505060405180910390fd5b600054610100900460ff16158015610cae576000805460ff1961ff0019909116610100171660011790558015610cc0576000805461ff001916905550565b81546000908210610e255760405162461bcd60e51b8152600401808060200182810382526022815260200180610f746022913960400191505060405180910390fd5b826000018281548110610e3457fe5b9060005260206000200154905092915050565b60009081526001919091016020526040902054151590565b5490565b6000610e6f8383610e47565b610ea557508154600181810184556000848152602080822090930184905584548482528286019093526040902091909155610869565b506000610869565b60008181526001830160205260408120548015610f695783546000198083019190810190600090879083908110610ee057fe5b9060005260206000200154905080876000018481548110610efd57fe5b600091825260208083209091019290925582815260018981019092526040902090840190558654879080610f2d57fe5b60019003818190600052602060002001600090559055866001016000878152602001908152602001600020600090556001945050505050610869565b600091505061086956fe456e756d657261626c655365743a20696e646578206f7574206f6620626f756e6473416363657373436f6e74726f6c3a2073656e646572206d75737420626520616e2061646d696e20746f206772616e74416363657373436f6e74726f6c3a2073656e646572206d75737420626520616e2061646d696e20746f207265766f6b65496e697469616c697a61626c653a20636f6e747261637420697320616c726561647920696e697469616c697a6564416363657373436f6e74726f6c3a2063616e206f6e6c792072656e6f756e636520726f6c657320666f722073656c66a26469706673582212205bb6b60bdd791819a297aab675604cd17d136eafee174f9ccb10566a4597c4d764736f6c63430006050033",
  "immutableReferences": {},
  "source": "pragma solidity ^0.6.0;\n\nimport \"@openzeppelin/contracts-upgradeable/proxy/Initializable.sol\";\nimport \"@openzeppelin/contracts-upgradeable/access/AccessControlUpgradeable.sol\";\nimport \"./CBKLand.sol\";\nimport \"./interfaces/IBridgeProxy.sol\";\n\n\ncontract CBKLandBridgeProxyContract is Initializable, AccessControlUpgradeable, IBridgeProxy {\n  \n    bytes32 public constant GAME_ADMIN = keccak256(\"GAME_ADMIN\");\n\n    CBKLand private _cbkLand;\n    address private _nftStorageAddress;\n    bool private _enabled;\n\n    uint8 public constant UINT_NFT_VAR_META = 0;\n    uint8 public constant UINT_NFT_VAR_ADDRESS = 1;\n\n    modifier restricted() {\n        _restricted();\n        _;\n    }\n\n    function _restricted() internal view {\n        require(hasRole(GAME_ADMIN, msg.sender) || hasRole(DEFAULT_ADMIN_ROLE, msg.sender), \"NA\");\n    }\n\n    function initialize(address nftStorageAddress, address cbkLand) public initializer {\n        __AccessControl_init();\n\n        _setupRole(DEFAULT_ADMIN_ROLE, msg.sender);\n\n        _nftStorageAddress = nftStorageAddress;\n        _cbkLand = CBKLand(cbkLand);\n    }\n\n \n    // tier, chunkid, x, y, reseller address\n    function collectData(uint256 tokenId) external view override returns (uint256[] memory uintVars, string memory stringVar) {\n        \n        (uint256 tier, uint256 chunkId, uint256 x, uint256 y, address reseller) = _cbkLand.get(tokenId);\n\n        uintVars = new uint256[](2);\n        uintVars[UINT_NFT_VAR_META] = _packCBKLandData(tier, chunkId, x, y);\n        uintVars[UINT_NFT_VAR_ADDRESS] = uint256(uint160(reseller));\n    }\n\n    // for future use, bot will probe the returned value to know if the proxy contract has proper signature behavior\n    function sigVersion() external view override returns (uint256) {\n        return 3;\n    }\n\n    function isEnabled() external view override returns (bool) {\n        return _enabled;\n    }\n\n    function setEnabled(bool enabled) external restricted {\n        _enabled = enabled;\n    }\n\n    function mintOrUpdate(address /*receiver*/, uint256 tokenId, uint256[] calldata uintVars, string calldata stringVar) external restricted override returns (uint256) {\n        require(_enabled, \"not enabled\");\n\n        (uint256 tier, uint256 chunkId, uint256 x, uint256 y) = _unpackCBKLandData(uintVars[UINT_NFT_VAR_META]);\n        address reseller = address(uint160(uintVars[UINT_NFT_VAR_ADDRESS]));\n\n         tokenId = \n            _cbkLand.mintOrUpdate(tokenId, _nftStorageAddress, tier, chunkId, x, y, reseller);\n\n        return tokenId;\n    }\n\n    // tier => 1, 2 or 3 => 8 bits more than enough\n    // chunkid => max is 9999 => 16 bits more than enough\n    // x => max is 5000 => 16 bits more than enough\n    // y => max is 5000 => 16 bits more than enough\n    function _packCBKLandData(uint256 tier, uint256 chunkId, uint256 x, uint256 y) internal pure returns (uint256) {\n        return  tier | chunkId << 8 | x << 24 | y << 40;\n    }\n\n    function _unpackCBKLandData(uint256 metaData) internal pure returns (uint256 tier, uint256 chunkId, uint256 x, uint256 y) {\n        tier = metaData & 0xFF;\n        chunkId = (metaData >> 8) & 0xFFFF;\n        x = (metaData  >> 24) & 0xFFFF;\n        y = (metaData >> 40) & 0xFFFF;\n    }\n\n    function canBridge(address wallet, uint256 tokenId, uint256 targetChain) external view override returns (bool) {\n        return true;\n    }\n}\n",
  "sourcePath": "/mnt/e/work/cryptoblades/contracts/CBKLandBridgeProxyContract.sol",
  "compiler": {
    "name": "solc",
    "version": "0.6.5+commit.f956cc89.Emscripten.clang"
  },
  "schemaVersion": "3.3.4",
  "updatedAt": "2023-01-24T17:45:30.973Z",
  "devdoc": {
    "methods": {
      "getRoleAdmin(bytes32)": {
        "details": "Returns the admin role that controls `role`. See {grantRole} and {revokeRole}.     * To change a role's admin, use {_setRoleAdmin}."
      },
      "getRoleMember(bytes32,uint256)": {
        "details": "Returns one of the accounts that have `role`. `index` must be a value between 0 and {getRoleMemberCount}, non-inclusive.     * Role bearers are not sorted in any particular way, and their ordering may change at any point.     * WARNING: When using {getRoleMember} and {getRoleMemberCount}, make sure you perform all queries on the same block. See the following https://forum.openzeppelin.com/t/iterating-over-elements-on-enumerableset-in-openzeppelin-contracts/2296[forum post] for more information."
      },
      "getRoleMemberCount(bytes32)": {
        "details": "Returns the number of accounts that have `role`. Can be used together with {getRoleMember} to enumerate all bearers of a role."
      },
      "grantRole(bytes32,address)": {
        "details": "Grants `role` to `account`.     * If `account` had not been already granted `role`, emits a {RoleGranted} event.     * Requirements:     * - the caller must have ``role``'s admin role."
      },
      "hasRole(bytes32,address)": {
        "details": "Returns `true` if `account` has been granted `role`."
      },
      "renounceRole(bytes32,address)": {
        "details": "Revokes `role` from the calling account.     * Roles are often managed via {grantRole} and {revokeRole}: this function's purpose is to provide a mechanism for accounts to lose their privileges if they are compromised (such as when a trusted device is misplaced).     * If the calling account had been granted `role`, emits a {RoleRevoked} event.     * Requirements:     * - the caller must be `account`."
      },
      "revokeRole(bytes32,address)": {
        "details": "Revokes `role` from `account`.     * If `account` had been granted `role`, emits a {RoleRevoked} event.     * Requirements:     * - the caller must have ``role``'s admin role."
      }
    }
  },
  "userdoc": {
    "methods": {}
  }
}