{
  "contractName": "CBKLand",
  "abi": [
    {
      "anonymous": false,
      "inputs": [
        {
          "indexed": true,
          "internalType": "address",
          "name": "owner",
          "type": "address"
        },
        {
          "indexed": true,
          "internalType": "address",
          "name": "approved",
          "type": "address"
        },
        {
          "indexed": true,
          "internalType": "uint256",
          "name": "tokenId",
          "type": "uint256"
        }
      ],
      "name": "Approval",
      "type": "event"
    },
    {
      "anonymous": false,
      "inputs": [
        {
          "indexed": true,
          "internalType": "address",
          "name": "owner",
          "type": "address"
        },
        {
          "indexed": true,
          "internalType": "address",
          "name": "operator",
          "type": "address"
        },
        {
          "indexed": false,
          "internalType": "bool",
          "name": "approved",
          "type": "bool"
        }
      ],
      "name": "ApprovalForAll",
      "type": "event"
    },
    {
      "anonymous": false,
      "inputs": [
        {
          "indexed": true,
          "internalType": "uint256",
          "name": "id",
          "type": "uint256"
        },
        {
          "indexed": false,
          "internalType": "uint256",
          "name": "chunkId",
          "type": "uint256"
        }
      ],
      "name": "LandChunkIdUpdated",
      "type": "event"
    },
    {
      "anonymous": false,
      "inputs": [
        {
          "indexed": true,
          "internalType": "address",
          "name": "minter",
          "type": "address"
        },
        {
          "indexed": false,
          "internalType": "uint256",
          "name": "id",
          "type": "uint256"
        },
        {
          "indexed": false,
          "internalType": "uint256",
          "name": "tier",
          "type": "uint256"
        },
        {
          "indexed": false,
          "internalType": "uint256",
          "name": "chunkId",
          "type": "uint256"
        }
      ],
      "name": "LandMinted",
      "type": "event"
    },
    {
      "anonymous": false,
      "inputs": [
        {
          "indexed": true,
          "internalType": "address",
          "name": "minter",
          "type": "address"
        },
        {
          "indexed": false,
          "internalType": "uint256",
          "name": "id",
          "type": "uint256"
        },
        {
          "indexed": false,
          "internalType": "uint256",
          "name": "tier",
          "type": "uint256"
        },
        {
          "indexed": false,
          "internalType": "uint256",
          "name": "chunkId",
          "type": "uint256"
        },
        {
          "indexed": false,
          "internalType": "address",
          "name": "reseller",
          "type": "address"
        }
      ],
      "name": "LandMintedWithReseller",
      "type": "event"
    },
    {
      "anonymous": false,
      "inputs": [
        {
          "indexed": true,
          "internalType": "address",
          "name": "reseller",
          "type": "address"
        },
        {
          "indexed": true,
          "internalType": "address",
          "name": "minter",
          "type": "address"
        },
        {
          "indexed": false,
          "internalType": "uint256",
          "name": "id",
          "type": "uint256"
        },
        {
          "indexed": false,
          "internalType": "uint256",
          "name": "tier",
          "type": "uint256"
        }
      ],
      "name": "LandTokenMinted",
      "type": "event"
    },
    {
      "anonymous": false,
      "inputs": [
        {
          "indexed": true,
          "internalType": "address",
          "name": "from",
          "type": "address"
        },
        {
          "indexed": true,
          "internalType": "address",
          "name": "to",
          "type": "address"
        },
        {
          "indexed": false,
          "internalType": "uint256",
          "name": "id",
          "type": "uint256"
        }
      ],
      "name": "LandTransfered",
      "type": "event"
    },
    {
      "anonymous": false,
      "inputs": [
        {
          "indexed": true,
          "internalType": "bytes32",
          "name": "role",
          "type": "bytes32"
        },
        {
          "indexed": true,
          "internalType": "bytes32",
          "name": "previousAdminRole",
          "type": "bytes32"
        },
        {
          "indexed": true,
          "internalType": "bytes32",
          "name": "newAdminRole",
          "type": "bytes32"
        }
      ],
      "name": "RoleAdminChanged",
      "type": "event"
    },
    {
      "anonymous": false,
      "inputs": [
        {
          "indexed": true,
          "internalType": "bytes32",
          "name": "role",
          "type": "bytes32"
        },
        {
          "indexed": true,
          "internalType": "address",
          "name": "account",
          "type": "address"
        },
        {
          "indexed": true,
          "internalType": "address",
          "name": "sender",
          "type": "address"
        }
      ],
      "name": "RoleGranted",
      "type": "event"
    },
    {
      "anonymous": false,
      "inputs": [
        {
          "indexed": true,
          "internalType": "bytes32",
          "name": "role",
          "type": "bytes32"
        },
        {
          "indexed": true,
          "internalType": "address",
          "name": "account",
          "type": "address"
        },
        {
          "indexed": true,
          "internalType": "address",
          "name": "sender",
          "type": "address"
        }
      ],
      "name": "RoleRevoked",
      "type": "event"
    },
    {
      "anonymous": false,
      "inputs": [
        {
          "indexed": true,
          "internalType": "address",
          "name": "from",
          "type": "address"
        },
        {
          "indexed": true,
          "internalType": "address",
          "name": "to",
          "type": "address"
        },
        {
          "indexed": true,
          "internalType": "uint256",
          "name": "tokenId",
          "type": "uint256"
        }
      ],
      "name": "Transfer",
      "type": "event"
    },
    {
      "inputs": [],
      "name": "DEFAULT_ADMIN_ROLE",
      "outputs": [
        {
          "internalType": "bytes32",
          "name": "",
          "type": "bytes32"
        }
      ],
      "stateMutability": "view",
      "type": "function"
    },
    {
      "inputs": [],
      "name": "GAME_ADMIN",
      "outputs": [
        {
          "internalType": "bytes32",
          "name": "",
          "type": "bytes32"
        }
      ],
      "stateMutability": "view",
      "type": "function"
    },
    {
      "inputs": [],
      "name": "LAR",
      "outputs": [
        {
          "internalType": "uint256",
          "name": "",
          "type": "uint256"
        }
      ],
      "stateMutability": "view",
      "type": "function"
    },
    {
      "inputs": [],
      "name": "LBT",
      "outputs": [
        {
          "internalType": "uint256",
          "name": "",
          "type": "uint256"
        }
      ],
      "stateMutability": "view",
      "type": "function"
    },
    {
      "inputs": [],
      "name": "LC",
      "outputs": [
        {
          "internalType": "uint256",
          "name": "",
          "type": "uint256"
        }
      ],
      "stateMutability": "view",
      "type": "function"
    },
    {
      "inputs": [],
      "name": "LT",
      "outputs": [
        {
          "internalType": "uint256",
          "name": "",
          "type": "uint256"
        }
      ],
      "stateMutability": "view",
      "type": "function"
    },
    {
      "inputs": [],
      "name": "LX",
      "outputs": [
        {
          "internalType": "uint256",
          "name": "",
          "type": "uint256"
        }
      ],
      "stateMutability": "view",
      "type": "function"
    },
    {
      "inputs": [],
      "name": "LY",
      "outputs": [
        {
          "internalType": "uint256",
          "name": "",
          "type": "uint256"
        }
      ],
      "stateMutability": "view",
      "type": "function"
    },
    {
      "inputs": [],
      "name": "NO_OWNED_LIMIT",
      "outputs": [
        {
          "internalType": "bytes32",
          "name": "",
          "type": "bytes32"
        }
      ],
      "stateMutability": "view",
      "type": "function"
    },
    {
      "inputs": [],
      "name": "TSU",
      "outputs": [
        {
          "internalType": "uint256",
          "name": "",
          "type": "uint256"
        }
      ],
      "stateMutability": "view",
      "type": "function"
    },
    {
      "inputs": [
        {
          "internalType": "address",
          "name": "to",
          "type": "address"
        },
        {
          "internalType": "uint256",
          "name": "tokenId",
          "type": "uint256"
        }
      ],
      "name": "approve",
      "outputs": [],
      "stateMutability": "nonpayable",
      "type": "function"
    },
    {
      "inputs": [
        {
          "internalType": "address",
          "name": "owner",
          "type": "address"
        }
      ],
      "name": "balanceOf",
      "outputs": [
        {
          "internalType": "uint256",
          "name": "",
          "type": "uint256"
        }
      ],
      "stateMutability": "view",
      "type": "function"
    },
    {
      "inputs": [],
      "name": "baseURI",
      "outputs": [
        {
          "internalType": "string",
          "name": "",
          "type": "string"
        }
      ],
      "stateMutability": "view",
      "type": "function"
    },
    {
      "inputs": [
        {
          "internalType": "uint256",
          "name": "tokenId",
          "type": "uint256"
        }
      ],
      "name": "getApproved",
      "outputs": [
        {
          "internalType": "address",
          "name": "",
          "type": "address"
        }
      ],
      "stateMutability": "view",
      "type": "function"
    },
    {
      "inputs": [
        {
          "internalType": "bytes32",
          "name": "role",
          "type": "bytes32"
        }
      ],
      "name": "getRoleAdmin",
      "outputs": [
        {
          "internalType": "bytes32",
          "name": "",
          "type": "bytes32"
        }
      ],
      "stateMutability": "view",
      "type": "function"
    },
    {
      "inputs": [
        {
          "internalType": "bytes32",
          "name": "role",
          "type": "bytes32"
        },
        {
          "internalType": "uint256",
          "name": "index",
          "type": "uint256"
        }
      ],
      "name": "getRoleMember",
      "outputs": [
        {
          "internalType": "address",
          "name": "",
          "type": "address"
        }
      ],
      "stateMutability": "view",
      "type": "function"
    },
    {
      "inputs": [
        {
          "internalType": "bytes32",
          "name": "role",
          "type": "bytes32"
        }
      ],
      "name": "getRoleMemberCount",
      "outputs": [
        {
          "internalType": "uint256",
          "name": "",
          "type": "uint256"
        }
      ],
      "stateMutability": "view",
      "type": "function"
    },
    {
      "inputs": [
        {
          "internalType": "bytes32",
          "name": "role",
          "type": "bytes32"
        },
        {
          "internalType": "address",
          "name": "account",
          "type": "address"
        }
      ],
      "name": "grantRole",
      "outputs": [],
      "stateMutability": "nonpayable",
      "type": "function"
    },
    {
      "inputs": [
        {
          "internalType": "bytes32",
          "name": "role",
          "type": "bytes32"
        },
        {
          "internalType": "address",
          "name": "account",
          "type": "address"
        }
      ],
      "name": "hasRole",
      "outputs": [
        {
          "internalType": "bool",
          "name": "",
          "type": "bool"
        }
      ],
      "stateMutability": "view",
      "type": "function"
    },
    {
      "inputs": [
        {
          "internalType": "address",
          "name": "owner",
          "type": "address"
        },
        {
          "internalType": "address",
          "name": "operator",
          "type": "address"
        }
      ],
      "name": "isApprovedForAll",
      "outputs": [
        {
          "internalType": "bool",
          "name": "",
          "type": "bool"
        }
      ],
      "stateMutability": "view",
      "type": "function"
    },
    {
      "inputs": [],
      "name": "name",
      "outputs": [
        {
          "internalType": "string",
          "name": "",
          "type": "string"
        }
      ],
      "stateMutability": "view",
      "type": "function"
    },
    {
      "inputs": [
        {
          "internalType": "uint256",
          "name": "tokenId",
          "type": "uint256"
        }
      ],
      "name": "ownerOf",
      "outputs": [
        {
          "internalType": "address",
          "name": "",
          "type": "address"
        }
      ],
      "stateMutability": "view",
      "type": "function"
    },
    {
      "inputs": [
        {
          "internalType": "bytes32",
          "name": "role",
          "type": "bytes32"
        },
        {
          "internalType": "address",
          "name": "account",
          "type": "address"
        }
      ],
      "name": "renounceRole",
      "outputs": [],
      "stateMutability": "nonpayable",
      "type": "function"
    },
    {
      "inputs": [
        {
          "internalType": "bytes32",
          "name": "role",
          "type": "bytes32"
        },
        {
          "internalType": "address",
          "name": "account",
          "type": "address"
        }
      ],
      "name": "revokeRole",
      "outputs": [],
      "stateMutability": "nonpayable",
      "type": "function"
    },
    {
      "inputs": [
        {
          "internalType": "address",
          "name": "from",
          "type": "address"
        },
        {
          "internalType": "address",
          "name": "to",
          "type": "address"
        },
        {
          "internalType": "uint256",
          "name": "tokenId",
          "type": "uint256"
        }
      ],
      "name": "safeTransferFrom",
      "outputs": [],
      "stateMutability": "nonpayable",
      "type": "function"
    },
    {
      "inputs": [
        {
          "internalType": "address",
          "name": "from",
          "type": "address"
        },
        {
          "internalType": "address",
          "name": "to",
          "type": "address"
        },
        {
          "internalType": "uint256",
          "name": "tokenId",
          "type": "uint256"
        },
        {
          "internalType": "bytes",
          "name": "_data",
          "type": "bytes"
        }
      ],
      "name": "safeTransferFrom",
      "outputs": [],
      "stateMutability": "nonpayable",
      "type": "function"
    },
    {
      "inputs": [
        {
          "internalType": "address",
          "name": "operator",
          "type": "address"
        },
        {
          "internalType": "bool",
          "name": "approved",
          "type": "bool"
        }
      ],
      "name": "setApprovalForAll",
      "outputs": [],
      "stateMutability": "nonpayable",
      "type": "function"
    },
    {
      "inputs": [
        {
          "internalType": "bytes4",
          "name": "interfaceId",
          "type": "bytes4"
        }
      ],
      "name": "supportsInterface",
      "outputs": [
        {
          "internalType": "bool",
          "name": "",
          "type": "bool"
        }
      ],
      "stateMutability": "view",
      "type": "function"
    },
    {
      "inputs": [],
      "name": "symbol",
      "outputs": [
        {
          "internalType": "string",
          "name": "",
          "type": "string"
        }
      ],
      "stateMutability": "view",
      "type": "function"
    },
    {
      "inputs": [
        {
          "internalType": "uint256",
          "name": "index",
          "type": "uint256"
        }
      ],
      "name": "tokenByIndex",
      "outputs": [
        {
          "internalType": "uint256",
          "name": "",
          "type": "uint256"
        }
      ],
      "stateMutability": "view",
      "type": "function"
    },
    {
      "inputs": [
        {
          "internalType": "address",
          "name": "owner",
          "type": "address"
        },
        {
          "internalType": "uint256",
          "name": "index",
          "type": "uint256"
        }
      ],
      "name": "tokenOfOwnerByIndex",
      "outputs": [
        {
          "internalType": "uint256",
          "name": "",
          "type": "uint256"
        }
      ],
      "stateMutability": "view",
      "type": "function"
    },
    {
      "inputs": [],
      "name": "totalSupply",
      "outputs": [
        {
          "internalType": "uint256",
          "name": "",
          "type": "uint256"
        }
      ],
      "stateMutability": "view",
      "type": "function"
    },
    {
      "inputs": [
        {
          "internalType": "address",
          "name": "from",
          "type": "address"
        },
        {
          "internalType": "address",
          "name": "to",
          "type": "address"
        },
        {
          "internalType": "uint256",
          "name": "tokenId",
          "type": "uint256"
        }
      ],
      "name": "transferFrom",
      "outputs": [],
      "stateMutability": "nonpayable",
      "type": "function"
    },
    {
      "inputs": [],
      "name": "initialize",
      "outputs": [],
      "stateMutability": "nonpayable",
      "type": "function"
    },
    {
      "inputs": [
        {
          "internalType": "uint256",
          "name": "id",
          "type": "uint256"
        }
      ],
      "name": "get",
      "outputs": [
        {
          "internalType": "uint256",
          "name": "",
          "type": "uint256"
        },
        {
          "internalType": "uint256",
          "name": "",
          "type": "uint256"
        },
        {
          "internalType": "uint256",
          "name": "",
          "type": "uint256"
        },
        {
          "internalType": "uint256",
          "name": "",
          "type": "uint256"
        },
        {
          "internalType": "address",
          "name": "",
          "type": "address"
        }
      ],
      "stateMutability": "view",
      "type": "function"
    },
    {
      "inputs": [
        {
          "internalType": "address",
          "name": "owner",
          "type": "address"
        }
      ],
      "name": "getOwned",
      "outputs": [
        {
          "internalType": "uint256[]",
          "name": "ownedIds",
          "type": "uint256[]"
        }
      ],
      "stateMutability": "view",
      "type": "function"
    },
    {
      "inputs": [
        {
          "internalType": "uint256",
          "name": "land",
          "type": "uint256"
        }
      ],
      "name": "getLandReseller",
      "outputs": [
        {
          "internalType": "address",
          "name": "",
          "type": "address"
        }
      ],
      "stateMutability": "view",
      "type": "function"
    },
    {
      "inputs": [
        {
          "internalType": "address",
          "name": "minter",
          "type": "address"
        },
        {
          "internalType": "uint256",
          "name": "tier",
          "type": "uint256"
        },
        {
          "internalType": "uint256",
          "name": "chunkId",
          "type": "uint256"
        }
      ],
      "name": "mint",
      "outputs": [],
      "stateMutability": "nonpayable",
      "type": "function"
    },
    {
      "inputs": [
        {
          "internalType": "address",
          "name": "minter",
          "type": "address"
        },
        {
          "internalType": "uint256",
          "name": "tier",
          "type": "uint256"
        },
        {
          "internalType": "uint256",
          "name": "chunkId",
          "type": "uint256"
        },
        {
          "internalType": "address",
          "name": "reseller",
          "type": "address"
        }
      ],
      "name": "mint",
      "outputs": [],
      "stateMutability": "nonpayable",
      "type": "function"
    },
    {
      "inputs": [
        {
          "internalType": "uint256",
          "name": "tokenID",
          "type": "uint256"
        },
        {
          "internalType": "address",
          "name": "minter",
          "type": "address"
        },
        {
          "internalType": "uint256",
          "name": "tier",
          "type": "uint256"
        },
        {
          "internalType": "uint256",
          "name": "chunkId",
          "type": "uint256"
        },
        {
          "internalType": "uint256",
          "name": "x",
          "type": "uint256"
        },
        {
          "internalType": "uint256",
          "name": "y",
          "type": "uint256"
        },
        {
          "internalType": "address",
          "name": "reseller",
          "type": "address"
        }
      ],
      "name": "mintOrUpdate",
      "outputs": [
        {
          "internalType": "uint256",
          "name": "",
          "type": "uint256"
        }
      ],
      "stateMutability": "nonpayable",
      "type": "function"
    },
    {
      "inputs": [
        {
          "internalType": "address",
          "name": "minter",
          "type": "address"
        },
        {
          "internalType": "uint256",
          "name": "tier",
          "type": "uint256"
        },
        {
          "internalType": "uint256",
          "name": "chunkId",
          "type": "uint256"
        },
        {
          "internalType": "address",
          "name": "reseller",
          "type": "address"
        },
        {
          "internalType": "uint256",
          "name": "quantity",
          "type": "uint256"
        }
      ],
      "name": "massMint",
      "outputs": [],
      "stateMutability": "nonpayable",
      "type": "function"
    },
    {
      "inputs": [
        {
          "internalType": "uint256",
          "name": "id",
          "type": "uint256"
        },
        {
          "internalType": "uint256",
          "name": "chunkId",
          "type": "uint256"
        }
      ],
      "name": "updateChunkId",
      "outputs": [],
      "stateMutability": "nonpayable",
      "type": "function"
    },
    {
      "inputs": [
        {
          "internalType": "uint256[]",
          "name": "ids",
          "type": "uint256[]"
        },
        {
          "internalType": "uint256",
          "name": "chunkId",
          "type": "uint256"
        }
      ],
      "name": "updateChunkId",
      "outputs": [],
      "stateMutability": "nonpayable",
      "type": "function"
    },
    {
      "inputs": [
        {
          "internalType": "uint256[]",
          "name": "ids",
          "type": "uint256[]"
        },
        {
          "internalType": "uint256",
          "name": "chunkId",
          "type": "uint256"
        }
      ],
      "name": "landsBelongToChunk",
      "outputs": [
        {
          "internalType": "bool",
          "name": "",
          "type": "bool"
        }
      ],
      "stateMutability": "view",
      "type": "function"
    },
    {
      "inputs": [
        {
          "internalType": "uint256",
          "name": "id",
          "type": "uint256"
        }
      ],
      "name": "getLandTierURI",
      "outputs": [
        {
          "internalType": "string",
          "name": "uri",
          "type": "string"
        }
      ],
      "stateMutability": "view",
      "type": "function"
    },
    {
      "inputs": [
        {
          "internalType": "uint256",
          "name": "id",
          "type": "uint256"
        }
      ],
      "name": "tokenURI",
      "outputs": [
        {
          "internalType": "string",
          "name": "",
          "type": "string"
        }
      ],
      "stateMutability": "view",
      "type": "function"
    },
    {
      "inputs": [
        {
          "internalType": "uint256",
          "name": "tier",
          "type": "uint256"
        }
      ],
      "name": "getTierURI",
      "outputs": [
        {
          "internalType": "string",
          "name": "uri",
          "type": "string"
        }
      ],
      "stateMutability": "view",
      "type": "function"
    },
    {
      "inputs": [
        {
          "internalType": "uint256",
          "name": "tier",
          "type": "uint256"
        },
        {
          "internalType": "uint256",
          "name": "index",
          "type": "uint256"
        },
        {
          "internalType": "string",
          "name": "val",
          "type": "string"
        }
      ],
      "name": "setTierStr",
      "outputs": [],
      "stateMutability": "nonpayable",
      "type": "function"
    },
    {
      "inputs": [
        {
          "internalType": "uint256",
          "name": "id",
          "type": "uint256"
        }
      ],
      "name": "getLandTier",
      "outputs": [
        {
          "internalType": "uint256",
          "name": "",
          "type": "uint256"
        }
      ],
      "stateMutability": "view",
      "type": "function"
    }
  ],
  "bytecode": "0x608060405234801561001057600080fd5b50612d92806100206000396000f3fe608060405234801561001057600080fd5b50600436106102bb5760003560e01c806381d765dc11610182578063b88d4fde116100e9578063d49ae945116100a2578063e985e9c51161007c578063e985e9c514610b44578063f74bfe8e14610b72578063fbaa177014610bac578063fed860d914610bb4576102bb565b8063d49ae945146109c5578063d547741f14610a75578063e97cf8e014610aa1576102bb565b8063b88d4fde146108aa578063b8943d491461096e578063bec8300b14610590578063c820c33214610590578063c87b56dd1461098b578063ca15c873146109a8576102bb565b8063998969581161013b57806399896958146107535780639a1cdba114610770578063a18e79141461078d578063a217fddf14610590578063a22cb46514610830578063b83d0c3c1461085e576102bb565b806381d765dc146106695780638e1f4fc3146105905780639010d07c146106ab57806391d14854146106ce5780639507d39a146106fa57806395d89b411461074b576102bb565b806342842e0e116102265780635dba06e4116101df5780635dba06e4146105985780636352211e146105a05780636c0360eb146105bd57806370a08231146105c55780637c688597146105eb5780638129fc1c14610661576102bb565b806342842e0e1461050a5780634f6ccce71461054057806354dfd2951461055d5780635504d3d214610565578063571446441461056d5780635b614fec14610590576102bb565b806323b872dd1161027857806323b872dd1461042b578063248a9ca3146104615780632720e4f61461047e5780632f2ff15d146104865780632f745c59146104b257806336568abe146104de576102bb565b806301ffc9a7146102c057806306fdde03146102fb578063081812fc14610378578063095ea7b3146103b1578063156e29f6146103df57806318160ddd14610411575b600080fd5b6102e7600480360360208110156102d657600080fd5b50356001600160e01b031916610bd1565b604080519115158252519081900360200190f35b610303610bf0565b6040805160208082528351818301528351919283929083019185019080838360005b8381101561033d578181015183820152602001610325565b50505050905090810190601f16801561036a5780820380516001836020036101000a031916815260200191505b509250505060405180910390f35b6103956004803603602081101561038e57600080fd5b5035610c87565b604080516001600160a01b039092168252519081900360200190f35b6103dd600480360360408110156103c757600080fd5b506001600160a01b038135169060200135610ce9565b005b6103dd600480360360608110156103f557600080fd5b506001600160a01b038135169060208101359060400135610dc4565b610419610e5b565b60408051918252519081900360200190f35b6103dd6004803603606081101561044157600080fd5b506001600160a01b03813581169160208101359091169060400135610e6c565b6104196004803603602081101561047757600080fd5b5035610ec3565b610419610ed8565b6103dd6004803603604081101561049c57600080fd5b50803590602001356001600160a01b0316610edd565b610419600480360360408110156104c857600080fd5b506001600160a01b038135169060200135610f49565b6103dd600480360360408110156104f457600080fd5b50803590602001356001600160a01b0316610f7a565b6103dd6004803603606081101561052057600080fd5b506001600160a01b03813581169160208101359091169060400135610fdb565b6104196004803603602081101561055657600080fd5b5035610ff6565b610419611012565b610419611017565b6103dd6004803603604081101561058357600080fd5b5080359060200135611039565b610419611095565b61041961109a565b610395600480360360208110156105b657600080fd5b50356110c0565b6103036110ee565b610419600480360360208110156105db57600080fd5b50356001600160a01b031661114f565b6106116004803603602081101561060157600080fd5b50356001600160a01b03166111b7565b60408051602080825283518183015283519192839290830191858101910280838360005b8381101561064d578181015183820152602001610635565b505050509050019250505060405180910390f35b6103dd611245565b6103dd600480360360a081101561067f57600080fd5b506001600160a01b03813581169160208101359160408201359160608101359091169060800135611355565b610395600480360360408110156106c157600080fd5b5080359060200135611384565b6102e7600480360360408110156106e457600080fd5b50803590602001356001600160a01b03166113a2565b6107176004803603602081101561071057600080fd5b50356113c0565b6040805195865260208601949094528484019290925260608401526001600160a01b03166080830152519081900360a00190f35b610303611419565b6103956004803603602081101561076957600080fd5b503561147a565b6104196004803603602081101561078657600080fd5b50356114a0565b6103dd600480360360408110156107a357600080fd5b810190602081018135600160201b8111156107bd57600080fd5b8201836020820111156107cf57600080fd5b803590602001918460208302840111600160201b831117156107f057600080fd5b91908080602002602001604051908101604052809392919081815260200183836020028082843760009201919091525092955050913592506114bd915050565b6103dd6004803603604081101561084657600080fd5b506001600160a01b03813516906020013515156114f6565b610419600480360360e081101561087457600080fd5b508035906001600160a01b03602082013581169160408101359160608201359160808101359160a08201359160c00135166115fb565b6103dd600480360360808110156108c057600080fd5b6001600160a01b03823581169260208101359091169160408201359190810190608081016060820135600160201b8111156108fa57600080fd5b82018360208201111561090c57600080fd5b803590602001918460018302840111600160201b8311171561092d57600080fd5b91908080601f0160208091040260200160405190810160405280939291908181526020018383808284376000920191909152509295506116a2945050505050565b6103036004803603602081101561098457600080fd5b5035611700565b610303600480360360208110156109a157600080fd5b50356117a9565b610419600480360360208110156109be57600080fd5b50356117b4565b6103dd600480360360608110156109db57600080fd5b813591602081013591810190606081016040820135600160201b811115610a0157600080fd5b820183602082011115610a1357600080fd5b803590602001918460018302840111600160201b83111715610a3457600080fd5b91908080601f0160208091040260200160405190810160405280939291908181526020018383808284376000920191909152509295506117cb945050505050565b6103dd60048036036040811015610a8b57600080fd5b50803590602001356001600160a01b03166117fa565b6102e760048036036040811015610ab757600080fd5b810190602081018135600160201b811115610ad157600080fd5b820183602082011115610ae357600080fd5b803590602001918460208302840111600160201b83111715610b0457600080fd5b9190808060200260200160405190810160405280939291908181526020018383602002808284376000920191909152509295505091359250611853915050565b6102e760048036036040811015610b5a57600080fd5b506001600160a01b03813581169160200135166118e2565b6103dd60048036036080811015610b8857600080fd5b506001600160a01b0381358116916020810135916040820135916060013516611910565b6104196119da565b61030360048036036020811015610bca57600080fd5b50356119df565b6001600160e01b03191660009081526033602052604090205460ff1690565b606a8054604080516020601f6002600019610100600188161502019095169490940493840181900481028201810190925282815260609390929091830182828015610c7c5780601f10610c5157610100808354040283529160200191610c7c565b820191906000526020600020905b815481529060010190602001808311610c5f57829003601f168201915b505050505090505b90565b6000610c9282611a02565b610ccd5760405162461bcd60e51b815260040180806020018281038252602c815260200180612c87602c913960400191505060405180910390fd5b506000908152606860205260409020546001600160a01b031690565b6000610cf4826110c0565b9050806001600160a01b0316836001600160a01b03161415610d475760405162461bcd60e51b8152600401808060200182810382526021815260200180612cdc6021913960400191505060405180910390fd5b806001600160a01b0316610d59611a15565b6001600160a01b03161480610d7a5750610d7a81610d75611a15565b6118e2565b610db55760405162461bcd60e51b8152600401808060200182810382526038815260200180612bac6038913960400191505060405180910390fd5b610dbf8383611a19565b505050565b610dcc611a87565b60c980546001808201909255600081815260ca6020908152604080832083805290915280822086905592815291909120829055610e098482611af9565b604080518281526020810185905280820184905290516001600160a01b038616917fec81cf35afa3e6238d13ae3b6841f31c87c9d0308c0dbc3fc7f3c53b037eb3c5919081900360600190a250505050565b6000610e676066611c33565b905090565b610e7d610e77611a15565b82611c3e565b610eb85760405162461bcd60e51b8152600401808060200182810382526031815260200180612cfd6031913960400191505060405180910390fd5b610dbf838383611ce2565b60009081526097602052604090206002015490565b600181565b600082815260976020526040902060020154610f0090610efb611a15565b6113a2565b610f3b5760405162461bcd60e51b815260040180806020018281038252602f815260200180612acb602f913960400191505060405180910390fd5b610f458282611e40565b5050565b6001600160a01b0382166000908152606560205260408120610f71908363ffffffff611eaf16565b90505b92915050565b610f82611a15565b6001600160a01b0316816001600160a01b031614610fd15760405162461bcd60e51b815260040180806020018281038252602f815260200180612d2e602f913960400191505060405180910390fd5b610f458282611ebb565b610dbf838383604051806020016040528060008152506116a2565b60008061100a60668463ffffffff611f2a16565b509392505050565b600381565b604080516923a0a6a2afa0a226a4a760b11b8152905190819003600a01902081565b611041611a87565b600082815260ca60209081526040808320600184528252918290208390558151838152915184927f2e85b301306999ae012fd2ac66de0bea91e6ea98d76c25b269004b2d74b3631a92908290030190a25050565b600081565b604080516d1393d7d3d5d3915117d31253525560921b8152905190819003600e01902081565b6000610f7482604051806060016040528060298152602001612c0e602991396066919063ffffffff611f4616565b606d8054604080516020601f6002600019610100600188161502019095169490940493840181900481028201810190925282815260609390929091830182828015610c7c5780601f10610c5157610100808354040283529160200191610c7c565b60006001600160a01b0382166111965760405162461bcd60e51b815260040180806020018281038252602a815260200180612be4602a913960400191505060405180910390fd5b6001600160a01b0382166000908152606560205260409020610f7490611c33565b606060006111c48361114f565b90508067ffffffffffffffff811180156111dd57600080fd5b50604051908082528060200260200182016040528015611207578160200160208202803683370190505b50915060005b8181101561123e5761121f8482610f49565b83828151811061122b57fe5b602090810291909101015260010161120d565b5050919050565b600054610100900460ff168061125e575061125e611f53565b8061126c575060005460ff16155b6112a75760405162461bcd60e51b815260040180806020018281038252602e815260200180612c37602e913960400191505060405180910390fd5b600054610100900460ff161580156112d2576000805460ff1961ff0019909116610100171660011790555b61132d6040518060400160405280601981526020017f43727970746f426c616465734b696e67646f6d73204c616e64000000000000008152506040518060400160405280600481526020016310d092d360e21b815250611f64565b611335612021565b611340600033610f3b565b8015611352576000805461ff00191690555b50565b61135d611a87565b60005b8181101561137c5761137486868686611910565b600101611360565b505050505050565b6000828152609760205260408120610f71908363ffffffff611eaf16565b6000828152609760205260408120610f71908363ffffffff6120c116565b600081815260ca6020908152604080832083805282528083205460018452818420546002855282852054600386528386205496865260cd855283862086805290945291909320549294909391926001600160a01b031690565b606b8054604080516020601f6002600019610100600188161502019095169490940493840181900481028201810190925282815260609390929091830182828015610c7c5780601f10610c5157610100808354040283529160200191610c7c565b600090815260cd602090815260408083208380529091529020546001600160a01b031690565b600090815260ca6020908152604080832083805290915290205490565b6114c5611a87565b60005b8251811015610dbf576114ee8382815181106114e057fe5b602002602001015183611039565b6001016114c8565b6114fe611a15565b6001600160a01b0316826001600160a01b03161415611564576040805162461bcd60e51b815260206004820152601960248201527f4552433732313a20617070726f766520746f2063616c6c657200000000000000604482015290519081900360640190fd5b8060696000611571611a15565b6001600160a01b03908116825260208083019390935260409182016000908120918716808252919093529120805460ff1916921515929092179091556115b5611a15565b60408051841515815290516001600160a01b0392909216917f17307eab39ab6107e8899845ad3d59bd9653f200f220920489ca2b5937696c319181900360200190a35050565b6000611605611a87565b876116695760c980546001810190915597506116218789611af9565b600088815260ca6020908152604080832083805282528083208990558a835260cd8252808320838052909152902080546001600160a01b0319166001600160a01b0384161790555b5050600086815260ca60209081526040808320600284529091528082209390935560038152828120919091556001815220555090919050565b6116b36116ad611a15565b83611c3e565b6116ee5760405162461bcd60e51b8152600401808060200182810382526031815260200180612cfd6031913960400191505060405180910390fd5b6116fa848484846120d6565b50505050565b600081815260ce6020908152604080832083805282529182902080548351601f600260001961010060018616150201909316929092049182018490048402810184019094528084526060939283018282801561179d5780601f106117725761010080835404028352916020019161179d565b820191906000526020600020905b81548152906001019060200180831161178057829003601f168201915b50505050509050919050565b6060610f74826119df565b6000818152609760205260408120610f7490611c33565b6117d3611a87565b600083815260ce60209081526040808320858452825290912082516116fa92840190612a10565b60008281526097602052604090206002015461181890610efb611a15565b610fd15760405162461bcd60e51b8152600401808060200182810382526030815260200180612b7c6030913960400191505060405180910390fd5b6000805b83518110156118d8578260ca600086848151811061187157fe5b6020026020010151815260200190815260200160002060006001815260200190815260200160002054146118a9576000915050610f74565b60c9548482815181106118b857fe5b602002602001015111156118d0576000915050610f74565b600101611857565b5060019392505050565b6001600160a01b03918216600090815260696020908152604080832093909416825291909152205460ff1690565b611918611a87565b60c980546001808201909255600081815260ca60209081526040808320838052825280832088905593825283822086905582825260cd815283822082805290529190912080546001600160a01b0319166001600160a01b03841617905561197f8582611af9565b60408051828152602081018690528082018590526001600160a01b0384811660608301529151918716917feb0eeaa397ba5d2edc0e0e59bfd16fe5faccce0491744a5f5e7d53549e198d669181900360800190a25050505050565b600281565b606060006119ec836113c0565b5050505090506119fb81611700565b9392505050565b6000610f7460668363ffffffff61212816565b3390565b600081815260686020526040902080546001600160a01b0319166001600160a01b0384169081179091558190611a4e826110c0565b6001600160a01b03167f8c5be1e5ebec7d5bd14f71427d1e84f3dd0314c0f7b2291e5b200ac8c7c3b92560405160405180910390a45050565b604080516923a0a6a2afa0a226a4a760b11b8152905190819003600a019020611ab090336113a2565b80611ac15750611ac16000336113a2565b611af7576040805162461bcd60e51b81526020600482015260026024820152614e4160f01b604482015290519081900360640190fd5b565b6001600160a01b038216611b54576040805162461bcd60e51b815260206004820181905260248201527f4552433732313a206d696e7420746f20746865207a65726f2061646472657373604482015290519081900360640190fd5b611b5d81611a02565b15611baf576040805162461bcd60e51b815260206004820152601c60248201527f4552433732313a20746f6b656e20616c7265616479206d696e74656400000000604482015290519081900360640190fd5b611bbb60008383610dbf565b6001600160a01b0382166000908152606560205260409020611be3908263ffffffff61213416565b50611bf66066828463ffffffff61214016565b5060405181906001600160a01b038416906000907fddf252ad1be2c89b69c2b068fc378daa952ba7f163c4a11628f55a4df523b3ef908290a45050565b6000610f7482612156565b6000611c4982611a02565b611c845760405162461bcd60e51b815260040180806020018281038252602c815260200180612b50602c913960400191505060405180910390fd5b6000611c8f836110c0565b9050806001600160a01b0316846001600160a01b03161480611cca5750836001600160a01b0316611cbf84610c87565b6001600160a01b0316145b80611cda5750611cda81856118e2565b949350505050565b826001600160a01b0316611cf5826110c0565b6001600160a01b031614611d3a5760405162461bcd60e51b8152600401808060200182810382526029815260200180612cb36029913960400191505060405180910390fd5b6001600160a01b038216611d7f5760405162461bcd60e51b8152600401808060200182810382526024815260200180612b2c6024913960400191505060405180910390fd5b611d8a838383610dbf565b611d95600082611a19565b6001600160a01b0383166000908152606560205260409020611dbd908263ffffffff61215a16565b506001600160a01b0382166000908152606560205260409020611de6908263ffffffff61213416565b50611df96066828463ffffffff61214016565b5080826001600160a01b0316846001600160a01b03167fddf252ad1be2c89b69c2b068fc378daa952ba7f163c4a11628f55a4df523b3ef60405160405180910390a4505050565b6000828152609760205260409020611e5e908263ffffffff61216616565b15610f4557611e6b611a15565b6001600160a01b0316816001600160a01b0316837f2f8788117e7eff1d82e926ec794901d17c78024a50270940304540a733656f0d60405160405180910390a45050565b6000610f71838361217b565b6000828152609760205260409020611ed9908263ffffffff6121df16565b15610f4557611ee6611a15565b6001600160a01b0316816001600160a01b0316837ff6391f5c32d9c69d2a47ea670b442974b53935d1edc7fd64eb21e047a839171b60405160405180910390a45050565b6000808080611f3986866121f4565b9097909650945050505050565b6000611cda84848461226f565b6000611f5e30612339565b15905090565b600054610100900460ff1680611f7d5750611f7d611f53565b80611f8b575060005460ff16155b611fc65760405162461bcd60e51b815260040180806020018281038252602e815260200180612c37602e913960400191505060405180910390fd5b600054610100900460ff16158015611ff1576000805460ff1961ff0019909116610100171660011790555b611ff9612021565b61200161233f565b61200b83836123dc565b8015610dbf576000805461ff0019169055505050565b600054610100900460ff168061203a575061203a611f53565b80612048575060005460ff16155b6120835760405162461bcd60e51b815260040180806020018281038252602e815260200180612c37602e913960400191505060405180910390fd5b600054610100900460ff16158015611340576000805460ff1961ff0019909116610100171660011790558015611352576000805461ff001916905550565b6000610f71836001600160a01b0384166124c1565b6120e1848484611ce2565b6120ed848484846124d9565b6116fa5760405162461bcd60e51b8152600401808060200182810382526032815260200180612afa6032913960400191505060405180910390fd5b6000610f7183836124c1565b6000610f718383612659565b6000611cda84846001600160a01b0385166126a3565b5490565b6000610f71838361273a565b6000610f71836001600160a01b038416612659565b815460009082106121bd5760405162461bcd60e51b8152600401808060200182810382526022815260200180612aa96022913960400191505060405180910390fd5b8260000182815481106121cc57fe5b9060005260206000200154905092915050565b6000610f71836001600160a01b03841661273a565b8154600090819083106122385760405162461bcd60e51b8152600401808060200182810382526022815260200180612c656022913960400191505060405180910390fd5b600084600001848154811061224957fe5b906000526020600020906002020190508060000154816001015492509250509250929050565b6000828152600184016020526040812054828161230a5760405162461bcd60e51b81526004018080602001828103825283818151815260200191508051906020019080838360005b838110156122cf5781810151838201526020016122b7565b50505050905090810190601f1680156122fc5780820380516001836020036101000a031916815260200191505b509250505060405180910390fd5b5084600001600182038154811061231d57fe5b9060005260206000209060020201600101549150509392505050565b3b151590565b600054610100900460ff16806123585750612358611f53565b80612366575060005460ff16155b6123a15760405162461bcd60e51b815260040180806020018281038252602e815260200180612c37602e913960400191505060405180910390fd5b600054610100900460ff161580156123cc576000805460ff1961ff0019909116610100171660011790555b6113406301ffc9a760e01b612800565b600054610100900460ff16806123f557506123f5611f53565b80612403575060005460ff16155b61243e5760405162461bcd60e51b815260040180806020018281038252602e815260200180612c37602e913960400191505060405180910390fd5b600054610100900460ff16158015612469576000805460ff1961ff0019909116610100171660011790555b825161247c90606a906020860190612a10565b50815161249090606b906020850190612a10565b506124a16380ac58cd60e01b612800565b6124b1635b5e139f60e01b612800565b61200b63780e9d6360e01b612800565b60009081526001919091016020526040902054151590565b60006124ed846001600160a01b0316612339565b6124f957506001611cda565b606061261f630a85bd0160e11b61250e611a15565b88878760405160240180856001600160a01b03166001600160a01b03168152602001846001600160a01b03166001600160a01b0316815260200183815260200180602001828103825283818151815260200191508051906020019080838360005b8381101561258757818101518382015260200161256f565b50505050905090810190601f1680156125b45780820380516001836020036101000a031916815260200191505b5095505050505050604051602081830303815290604052906001600160e01b0319166020820180516001600160e01b038381831617835250505050604051806060016040528060328152602001612afa603291396001600160a01b038816919063ffffffff61288416565b9050600081806020019051602081101561263857600080fd5b50516001600160e01b031916630a85bd0160e11b1492505050949350505050565b600061266583836124c1565b61269b57508154600181810184556000848152602080822090930184905584548482528286019093526040902091909155610f74565b506000610f74565b6000828152600184016020526040812054806127085750506040805180820182528381526020808201848152865460018181018955600089815284812095516002909302909501918255915190820155865486845281880190925292909120556119fb565b8285600001600183038154811061271b57fe5b90600052602060002090600202016001018190555060009150506119fb565b600081815260018301602052604081205480156127f6578354600019808301919081019060009087908390811061276d57fe5b906000526020600020015490508087600001848154811061278a57fe5b6000918252602080832090910192909255828152600189810190925260409020908401905586548790806127ba57fe5b60019003818190600052602060002001600090559055866001016000878152602001908152602001600020600090556001945050505050610f74565b6000915050610f74565b6001600160e01b0319808216141561285f576040805162461bcd60e51b815260206004820152601c60248201527f4552433136353a20696e76616c696420696e7465726661636520696400000000604482015290519081900360640190fd5b6001600160e01b0319166000908152603360205260409020805460ff19166001179055565b6060611cda84846000858561289885612339565b6128e9576040805162461bcd60e51b815260206004820152601d60248201527f416464726573733a2063616c6c20746f206e6f6e2d636f6e7472616374000000604482015290519081900360640190fd5b60006060866001600160a01b031685876040518082805190602001908083835b602083106129285780518252601f199092019160209182019101612909565b6001836020036101000a03801982511681845116808217855250505050505090500191505060006040518083038185875af1925050503d806000811461298a576040519150601f19603f3d011682016040523d82523d6000602084013e61298f565b606091505b509150915061299f8282866129aa565b979650505050505050565b606083156129b95750816119fb565b8251156129c95782518084602001fd5b60405162461bcd60e51b81526020600482018181528451602484015284518593919283926044019190850190808383600083156122cf5781810151838201526020016122b7565b828054600181600116156101000203166002900490600052602060002090601f016020900481019282601f10612a5157805160ff1916838001178555612a7e565b82800160010185558215612a7e579182015b82811115612a7e578251825591602001919060010190612a63565b50612a8a929150612a8e565b5090565b610c8491905b80821115612a8a5760008155600101612a9456fe456e756d657261626c655365743a20696e646578206f7574206f6620626f756e6473416363657373436f6e74726f6c3a2073656e646572206d75737420626520616e2061646d696e20746f206772616e744552433732313a207472616e7366657220746f206e6f6e20455243373231526563656976657220696d706c656d656e7465724552433732313a207472616e7366657220746f20746865207a65726f20616464726573734552433732313a206f70657261746f7220717565727920666f72206e6f6e6578697374656e7420746f6b656e416363657373436f6e74726f6c3a2073656e646572206d75737420626520616e2061646d696e20746f207265766f6b654552433732313a20617070726f76652063616c6c6572206973206e6f74206f776e6572206e6f7220617070726f76656420666f7220616c6c4552433732313a2062616c616e636520717565727920666f7220746865207a65726f20616464726573734552433732313a206f776e657220717565727920666f72206e6f6e6578697374656e7420746f6b656e496e697469616c697a61626c653a20636f6e747261637420697320616c726561647920696e697469616c697a6564456e756d657261626c654d61703a20696e646578206f7574206f6620626f756e64734552433732313a20617070726f76656420717565727920666f72206e6f6e6578697374656e7420746f6b656e4552433732313a207472616e73666572206f6620746f6b656e2074686174206973206e6f74206f776e4552433732313a20617070726f76616c20746f2063757272656e74206f776e65724552433732313a207472616e736665722063616c6c6572206973206e6f74206f776e6572206e6f7220617070726f766564416363657373436f6e74726f6c3a2063616e206f6e6c792072656e6f756e636520726f6c657320666f722073656c66a2646970667358221220ef2ff2f36d5b43e570754aaa5e685bb444a416c372c3ea7d5c9e7148267a0f1f64736f6c63430006050033",
  "immutableReferences": {},
  "source": "pragma solidity ^0.6.0;\n\nimport \"@openzeppelin/contracts-upgradeable/proxy/Initializable.sol\";\nimport \"@openzeppelin/contracts-upgradeable/token/ERC721/ERC721Upgradeable.sol\";\nimport \"@openzeppelin/contracts-upgradeable/access/AccessControlUpgradeable.sol\";\nimport \"@openzeppelin/contracts/math/SafeMath.sol\";\nimport \"./util.sol\";\n\ncontract CBKLand is Initializable, ERC721Upgradeable, AccessControlUpgradeable {\n\n    bytes32 public constant GAME_ADMIN = keccak256(\"GAME_ADMIN\");\n    bytes32 public constant NO_OWNED_LIMIT = keccak256(\"NO_OWNED_LIMIT\");\n\n    // Land specific\n    uint256 public constant LT = 0; // Land Tier\n    uint256 public constant LC = 1; // Land Chunk Id\n    uint256 public constant LX = 2; // Land Coordinate X\n    uint256 public constant LY = 3; // Land Coordinate Y\n    \n\n    event LandMinted(address indexed minter, uint256 id, uint256 tier, uint256 chunkId);\n    event LandTransfered(address indexed from, address indexed to, uint256 id);\n    event LandTokenMinted(address indexed reseller, address indexed minter, uint256 id, uint256 tier);\n    event LandMintedWithReseller(address indexed minter, uint256 id, uint256 tier, uint256 chunkId, address reseller);\n    event LandChunkIdUpdated(uint256 indexed id, uint256 chunkId);\n\n    // TotalLand\n    uint256 landMinted;\n    // Avoiding structs for stats\n    mapping(uint256 => mapping(uint256 => uint256)) landData;\n\n    mapping(uint256 => mapping(uint256 => string)) landStrData;\n\n    uint256 public constant LBT = 0; // Land is a Token, it will have its chunkId updated later\n    mapping(uint256 => mapping(uint256 => bool)) landBoolData;\n\n    uint256 public constant LAR = 0; // Land Reseller, the one who minted the token\n    mapping(uint256 => mapping(uint256 => address)) landAddressData;\n\n    uint256 public constant TSU = 0; // URI of a tier. Will put this in land NFT because it kinda belongs here\n    mapping(uint256 => mapping(uint256 => string)) tierStrData;\n\n    function initialize () public initializer {\n        __ERC721_init(\"CryptoBladesKingdoms Land\", \"CBKL\");\n        __AccessControl_init_unchained();\n\n        _setupRole(DEFAULT_ADMIN_ROLE, msg.sender);\n    }\n\n    modifier restricted() {\n        _restricted();\n        _;\n    }\n\n    function _restricted() internal view {\n        require(hasRole(GAME_ADMIN, msg.sender) || hasRole(DEFAULT_ADMIN_ROLE, msg.sender), \"NA\");\n    }\n\n     // tier, chunkid, x, y, reseller address\n    function get(uint256 id) public view returns (uint256, uint256, uint256, uint256, address) {\n        return (landData[id][LT], landData[id][LC], landData[id][LX], landData[id][LY], landAddressData[id][LAR]);\n    }\n\n    function getOwned(address owner) public view returns (uint256[] memory ownedIds) {\n        uint256 ownedLandCount = balanceOf(owner);\n        ownedIds = new uint256[](ownedLandCount);\n         for(uint256 i = 0; i < ownedLandCount; i++) {\n             ownedIds[i] = tokenOfOwnerByIndex(owner, i);\n        }\n    }\n\n    function getLandReseller(uint256 land) public view returns (address) {\n        return landAddressData[land][LAR];\n    }\n\n    // DO NOT call directly outside the logic of CBKLandSale to avoid breaking tier and chunk logic\n    function mint(address minter, uint256 tier, uint256 chunkId) public restricted {\n        uint256 tokenID = landMinted++;\n        \n        landData[tokenID][LT] = tier;\n        landData[tokenID][LC] = chunkId;\n        //landData[tokenID][LX] = x; // not yet\n        //landData[tokenID][LY] = y; // not yet\n        \n        _mint(minter, tokenID);\n        emit LandMinted(minter, tokenID, tier, chunkId);\n    }\n\n    function mint(address minter, uint256 tier, uint256 chunkId, address reseller) public restricted {\n        uint256 tokenID = landMinted++;\n        \n        landData[tokenID][LT] = tier;\n        landData[tokenID][LC] = chunkId;\n        //landData[tokenID][LX] = x; // not yet\n        //landData[tokenID][LY] = y; // not yet\n        \n        landAddressData[tokenID][LAR] = reseller;\n\n        _mint(minter, tokenID);\n        emit LandMintedWithReseller(minter, tokenID, tier, chunkId, reseller);\n    }\n\n    // To be used by the NFT bridge. This is fine as the logic will still be maintend by CBKLandSale deployed to BSC.\n    // ChunkId set on global T1s or reseller T1s will include BE server which has access to BSC CBKLandSale\n    function mintOrUpdate(uint256 tokenID, address minter, uint256 tier, uint256 chunkId, uint256 x, uint256 y, address reseller) public restricted returns (uint256) {\n        \n        if(tokenID == 0) {\n            tokenID = landMinted++;\n            _mint(minter, tokenID);\n            landData[tokenID][LT] = tier;\n            landAddressData[tokenID][LAR] = reseller;\n        }\n        \n        // Unlike vars above, these may change at some point (or multiple)        \n        landData[tokenID][LX] = x;\n        landData[tokenID][LY] = y;\n        landData[tokenID][LC] = chunkId;\n\n        return tokenID;\n    }\n\n    function massMint(address minter, uint256 tier, uint256 chunkId, address reseller, uint256 quantity) public restricted {\n        for(uint256 i = 0; i < quantity; i++) {\n            mint(minter, tier, chunkId, reseller);\n        }\n    }\n\n    function updateChunkId(uint256 id, uint256 chunkId) public restricted {\n        landData[id][LC] = chunkId;\n        emit LandChunkIdUpdated(id, chunkId);\n    }\n\n    function updateChunkId(uint256[] memory ids, uint256 chunkId) public restricted {\n        for(uint256 i = 0; i < ids.length; i++) {\n            updateChunkId(ids[i], chunkId);\n        }\n    }\n\n    // Helper function for bulk moving land without having to jump chains\n    function landsBelongToChunk(uint256[] memory ids, uint256 chunkId) public view returns (bool) {\n        for(uint256 i = 0; i < ids.length; i++) {\n            if(landData[ids[i]][LC] != chunkId) {\n                return false;\n            }\n\n            if(ids[i] > landMinted) {\n                return false;\n            }\n        }\n\n        return true;\n    }\n\n    function getLandTierURI(uint256 id) public view returns (string memory uri) {\n       (uint256 tier,,,,) = get(id);\n        return getTierURI(tier);\n    }\n\n    function tokenURI(uint256 id) public view override returns (string memory) {\n        return getLandTierURI(id);\n    }\n\n    function getTierURI(uint256 tier) public view returns (string memory uri) {\n        return tierStrData[tier][TSU];\n    }\n\n    function setTierStr(uint256 tier, uint256 index, string memory val) public restricted {\n        tierStrData[tier][index] = val;\n    }\n\n    function getLandTier(uint256 id) public view returns (uint256) {\n        return landData[id][LT];\n    }\n}\n",
  "sourcePath": "/mnt/e/work/cryptoblades/contracts/CBKLand.sol",
  "compiler": {
    "name": "solc",
    "version": "0.6.5+commit.f956cc89.Emscripten.clang"
  },
  "schemaVersion": "3.3.4",
  "updatedAt": "2023-01-24T17:45:30.946Z",
  "devdoc": {
    "methods": {
      "approve(address,uint256)": {
        "details": "See {IERC721-approve}."
      },
      "balanceOf(address)": {
        "details": "See {IERC721-balanceOf}."
      },
      "baseURI()": {
        "details": "Returns the base URI set via {_setBaseURI}. This will be automatically added as a prefix in {tokenURI} to each token's URI, or to the token ID if no specific URI is set for that token ID."
      },
      "getApproved(uint256)": {
        "details": "See {IERC721-getApproved}."
      },
      "getRoleAdmin(bytes32)": {
        "details": "Returns the admin role that controls `role`. See {grantRole} and {revokeRole}.     * To change a role's admin, use {_setRoleAdmin}."
      },
      "getRoleMember(bytes32,uint256)": {
        "details": "Returns one of the accounts that have `role`. `index` must be a value between 0 and {getRoleMemberCount}, non-inclusive.     * Role bearers are not sorted in any particular way, and their ordering may change at any point.     * WARNING: When using {getRoleMember} and {getRoleMemberCount}, make sure you perform all queries on the same block. See the following https://forum.openzeppelin.com/t/iterating-over-elements-on-enumerableset-in-openzeppelin-contracts/2296[forum post] for more information."
      },
      "getRoleMemberCount(bytes32)": {
        "details": "Returns the number of accounts that have `role`. Can be used together with {getRoleMember} to enumerate all bearers of a role."
      },
      "grantRole(bytes32,address)": {
        "details": "Grants `role` to `account`.     * If `account` had not been already granted `role`, emits a {RoleGranted} event.     * Requirements:     * - the caller must have ``role``'s admin role."
      },
      "hasRole(bytes32,address)": {
        "details": "Returns `true` if `account` has been granted `role`."
      },
      "isApprovedForAll(address,address)": {
        "details": "See {IERC721-isApprovedForAll}."
      },
      "name()": {
        "details": "See {IERC721Metadata-name}."
      },
      "ownerOf(uint256)": {
        "details": "See {IERC721-ownerOf}."
      },
      "renounceRole(bytes32,address)": {
        "details": "Revokes `role` from the calling account.     * Roles are often managed via {grantRole} and {revokeRole}: this function's purpose is to provide a mechanism for accounts to lose their privileges if they are compromised (such as when a trusted device is misplaced).     * If the calling account had been granted `role`, emits a {RoleRevoked} event.     * Requirements:     * - the caller must be `account`."
      },
      "revokeRole(bytes32,address)": {
        "details": "Revokes `role` from `account`.     * If `account` had been granted `role`, emits a {RoleRevoked} event.     * Requirements:     * - the caller must have ``role``'s admin role."
      },
      "safeTransferFrom(address,address,uint256)": {
        "details": "See {IERC721-safeTransferFrom}."
      },
      "safeTransferFrom(address,address,uint256,bytes)": {
        "details": "See {IERC721-safeTransferFrom}."
      },
      "setApprovalForAll(address,bool)": {
        "details": "See {IERC721-setApprovalForAll}."
      },
      "supportsInterface(bytes4)": {
        "details": "See {IERC165-supportsInterface}.     * Time complexity O(1), guaranteed to always use less than 30 000 gas."
      },
      "symbol()": {
        "details": "See {IERC721Metadata-symbol}."
      },
      "tokenByIndex(uint256)": {
        "details": "See {IERC721Enumerable-tokenByIndex}."
      },
      "tokenOfOwnerByIndex(address,uint256)": {
        "details": "See {IERC721Enumerable-tokenOfOwnerByIndex}."
      },
      "totalSupply()": {
        "details": "See {IERC721Enumerable-totalSupply}."
      },
      "transferFrom(address,address,uint256)": {
        "details": "See {IERC721-transferFrom}."
      }
    }
  },
  "userdoc": {
    "methods": {}
  }
}