{
  "contractName": "ChainlinkRandoms",
  "abi": [
    {
      "inputs": [
        {
          "internalType": "address",
          "name": "_vrfCoordinator",
          "type": "address"
        },
        {
          "internalType": "address",
          "name": "_link",
          "type": "address"
        },
        {
          "internalType": "bytes32",
          "name": "_keyHash",
          "type": "bytes32"
        },
        {
          "internalType": "uint256",
          "name": "_fee",
          "type": "uint256"
        }
      ],
      "stateMutability": "nonpayable",
      "type": "constructor"
    },
    {
      "anonymous": false,
      "inputs": [
        {
          "indexed": false,
          "internalType": "address",
          "name": "account",
          "type": "address"
        }
      ],
      "name": "Paused",
      "type": "event"
    },
    {
      "anonymous": false,
      "inputs": [
        {
          "indexed": true,
          "internalType": "bytes32",
          "name": "role",
          "type": "bytes32"
        },
        {
          "indexed": true,
          "internalType": "bytes32",
          "name": "previousAdminRole",
          "type": "bytes32"
        },
        {
          "indexed": true,
          "internalType": "bytes32",
          "name": "newAdminRole",
          "type": "bytes32"
        }
      ],
      "name": "RoleAdminChanged",
      "type": "event"
    },
    {
      "anonymous": false,
      "inputs": [
        {
          "indexed": true,
          "internalType": "bytes32",
          "name": "role",
          "type": "bytes32"
        },
        {
          "indexed": true,
          "internalType": "address",
          "name": "account",
          "type": "address"
        },
        {
          "indexed": true,
          "internalType": "address",
          "name": "sender",
          "type": "address"
        }
      ],
      "name": "RoleGranted",
      "type": "event"
    },
    {
      "anonymous": false,
      "inputs": [
        {
          "indexed": true,
          "internalType": "bytes32",
          "name": "role",
          "type": "bytes32"
        },
        {
          "indexed": true,
          "internalType": "address",
          "name": "account",
          "type": "address"
        },
        {
          "indexed": true,
          "internalType": "address",
          "name": "sender",
          "type": "address"
        }
      ],
      "name": "RoleRevoked",
      "type": "event"
    },
    {
      "anonymous": false,
      "inputs": [
        {
          "indexed": false,
          "internalType": "address",
          "name": "account",
          "type": "address"
        }
      ],
      "name": "Unpaused",
      "type": "event"
    },
    {
      "inputs": [],
      "name": "DEFAULT_ADMIN_ROLE",
      "outputs": [
        {
          "internalType": "bytes32",
          "name": "",
          "type": "bytes32"
        }
      ],
      "stateMutability": "view",
      "type": "function"
    },
    {
      "inputs": [],
      "name": "RANDOMNESS_REQUESTER",
      "outputs": [
        {
          "internalType": "bytes32",
          "name": "",
          "type": "bytes32"
        }
      ],
      "stateMutability": "view",
      "type": "function"
    },
    {
      "inputs": [
        {
          "internalType": "bytes32",
          "name": "role",
          "type": "bytes32"
        }
      ],
      "name": "getRoleAdmin",
      "outputs": [
        {
          "internalType": "bytes32",
          "name": "",
          "type": "bytes32"
        }
      ],
      "stateMutability": "view",
      "type": "function"
    },
    {
      "inputs": [
        {
          "internalType": "bytes32",
          "name": "role",
          "type": "bytes32"
        },
        {
          "internalType": "uint256",
          "name": "index",
          "type": "uint256"
        }
      ],
      "name": "getRoleMember",
      "outputs": [
        {
          "internalType": "address",
          "name": "",
          "type": "address"
        }
      ],
      "stateMutability": "view",
      "type": "function"
    },
    {
      "inputs": [
        {
          "internalType": "bytes32",
          "name": "role",
          "type": "bytes32"
        }
      ],
      "name": "getRoleMemberCount",
      "outputs": [
        {
          "internalType": "uint256",
          "name": "",
          "type": "uint256"
        }
      ],
      "stateMutability": "view",
      "type": "function"
    },
    {
      "inputs": [
        {
          "internalType": "bytes32",
          "name": "role",
          "type": "bytes32"
        },
        {
          "internalType": "address",
          "name": "account",
          "type": "address"
        }
      ],
      "name": "grantRole",
      "outputs": [],
      "stateMutability": "nonpayable",
      "type": "function"
    },
    {
      "inputs": [
        {
          "internalType": "bytes32",
          "name": "role",
          "type": "bytes32"
        },
        {
          "internalType": "address",
          "name": "account",
          "type": "address"
        }
      ],
      "name": "hasRole",
      "outputs": [
        {
          "internalType": "bool",
          "name": "",
          "type": "bool"
        }
      ],
      "stateMutability": "view",
      "type": "function"
    },
    {
      "inputs": [],
      "name": "paused",
      "outputs": [
        {
          "internalType": "bool",
          "name": "",
          "type": "bool"
        }
      ],
      "stateMutability": "view",
      "type": "function"
    },
    {
      "inputs": [
        {
          "internalType": "bytes32",
          "name": "requestId",
          "type": "bytes32"
        },
        {
          "internalType": "uint256",
          "name": "randomness",
          "type": "uint256"
        }
      ],
      "name": "rawFulfillRandomness",
      "outputs": [],
      "stateMutability": "nonpayable",
      "type": "function"
    },
    {
      "inputs": [
        {
          "internalType": "bytes32",
          "name": "role",
          "type": "bytes32"
        },
        {
          "internalType": "address",
          "name": "account",
          "type": "address"
        }
      ],
      "name": "renounceRole",
      "outputs": [],
      "stateMutability": "nonpayable",
      "type": "function"
    },
    {
      "inputs": [
        {
          "internalType": "bytes32",
          "name": "role",
          "type": "bytes32"
        },
        {
          "internalType": "address",
          "name": "account",
          "type": "address"
        }
      ],
      "name": "revokeRole",
      "outputs": [],
      "stateMutability": "nonpayable",
      "type": "function"
    },
    {
      "inputs": [
        {
          "internalType": "address",
          "name": "user",
          "type": "address"
        }
      ],
      "name": "getRandomSeed",
      "outputs": [
        {
          "internalType": "uint256",
          "name": "",
          "type": "uint256"
        }
      ],
      "stateMutability": "view",
      "type": "function"
    },
    {
      "inputs": [
        {
          "internalType": "address",
          "name": "user",
          "type": "address"
        },
        {
          "internalType": "bytes32",
          "name": "hash",
          "type": "bytes32"
        }
      ],
      "name": "getRandomSeedUsingHash",
      "outputs": [
        {
          "internalType": "uint256",
          "name": "",
          "type": "uint256"
        }
      ],
      "stateMutability": "view",
      "type": "function"
    },
    {
      "inputs": [],
      "name": "requestRandomNumber",
      "outputs": [],
      "stateMutability": "nonpayable",
      "type": "function"
    },
    {
      "inputs": [],
      "name": "pause",
      "outputs": [],
      "stateMutability": "nonpayable",
      "type": "function"
    },
    {
      "inputs": [],
      "name": "unpause",
      "outputs": [],
      "stateMutability": "nonpayable",
      "type": "function"
    },
    {
      "inputs": [
        {
          "internalType": "uint256",
          "name": "tokenAmount",
          "type": "uint256"
        }
      ],
      "name": "withdrawLink",
      "outputs": [],
      "stateMutability": "nonpayable",
      "type": "function"
    }
  ],
  "bytecode": "0x60c06040523480156200001157600080fd5b50604051620015db380380620015db833981810160405260808110156200003757600080fd5b508051602082015160408301516060938401516000805460ff191681556001600160601b031985871b811660a0529584901b909516608052600382905560048190559293919290916200009490336001600160e01b036200009e16565b50505050620001d8565b620000b382826001600160e01b03620000b716565b5050565b6000828152600160209081526040909120620000de91839062000d3f6200013b821b17901c565b15620000b357620000f76001600160e01b036200016416565b6001600160a01b0316816001600160a01b0316837f2f8788117e7eff1d82e926ec794901d17c78024a50270940304540a733656f0d60405160405180910390a45050565b60006200015b836001600160a01b0384166001600160e01b036200016816565b90505b92915050565b3390565b60006200017f83836001600160e01b03620001c016565b620001b7575081546001818101845560008481526020808220909301849055845484825282860190935260409020919091556200015e565b5060006200015e565b60009081526001919091016020526040902054151590565b60805160601c60a05160601c6113ca62000211600039806107fe5280610b7e52508061054352806106995280610b4f52506113ca6000f3fe608060405234801561001057600080fd5b506004361061010b5760003560e01c80637a8042bd116100a257806391d148541161007157806391d148541461028357806394985ddd146102af578063a217fddf146102d2578063ca15c873146102da578063d547741f146102f75761010b565b80637a8042bd146102175780638456cb59146102345780638678a7b21461023c5780639010d07c146102445761010b565b80633883d854116100de5780633883d854146101c55780633f4ba83a146101eb5780635c975abb146101f3578063790273dd1461020f5761010b565b8063248a9ca3146101105780632f2ff15d1461013f578063319b22a71461016d57806336568abe14610199575b600080fd5b61012d6004803603602081101561012657600080fd5b5035610323565b60408051918252519081900360200190f35b61016b6004803603604081101561015557600080fd5b50803590602001356001600160a01b0316610338565b005b61012d6004803603604081101561018357600080fd5b506001600160a01b0381351690602001356103a4565b61016b600480360360408110156101af57600080fd5b50803590602001356001600160a01b03166103f6565b61012d600480360360208110156101db57600080fd5b50356001600160a01b0316610457565b61016b610467565b6101fb6104b9565b604080519115158252519081900360200190f35b61012d6104c2565b61016b6004803603602081101561022d57600080fd5b50356104ee565b61016b610573565b61016b6105c3565b6102676004803603604081101561025a57600080fd5b50803590602001356107b0565b604080516001600160a01b039092168252519081900360200190f35b6101fb6004803603604081101561029957600080fd5b50803590602001356001600160a01b03166107d5565b61016b600480360360408110156102c557600080fd5b50803590602001356107f3565b61012d61087a565b61012d600480360360208110156102f057600080fd5b503561087f565b61016b6004803603604081101561030d57600080fd5b50803590602001356001600160a01b0316610896565b60009081526001602052604090206002015490565b60008281526001602052604090206002015461035b906103566108ef565b6107d5565b6103965760405162461bcd60e51b815260040180806020018281038252602f8152602001806112b7602f913960400191505060405180910390fd5b6103a082826108f3565b5050565b600554604080516bffffffffffffffffffffffff19606086901b166020808301919091526034820193909352605480820185905282518083039091018152607490910190915280519101205b92915050565b6103fe6108ef565b6001600160a01b0316816001600160a01b03161461044d5760405162461bcd60e51b815260040180806020018281038252602f815260200180611366602f913960400191505060405180910390fd5b6103a08282610962565b60006103f08260014303406103a4565b6104726000336107d5565b6104af576040805162461bcd60e51b81526020600482015260096024820152682737ba1030b236b4b760b91b604482015290519081900360640190fd5b6104b76109d1565b565b60005460ff1690565b60408051732920a72227a6a722a9a9afa922a8aaa2a9aa22a960611b8152905190819003601401902081565b6104f96000336107d5565b610536576040805162461bcd60e51b81526020600482015260096024820152682737ba1030b236b4b760b91b604482015290519081900360640190fd5b6105706001600160a01b037f000000000000000000000000000000000000000000000000000000000000000016338363ffffffff610a7116565b50565b61057e6000336107d5565b6105bb576040805162461bcd60e51b81526020600482015260096024820152682737ba1030b236b4b760b91b604482015290519081900360640190fd5b6104b7610ac8565b6105cb6104b9565b15610610576040805162461bcd60e51b815260206004820152601060248201526f14185d5cd8589b194e881c185d5cd95960821b604482015290519081900360640190fd5b60408051732920a72227a6a722a9a9afa922a8aaa2a9aa22a960611b8152905190819003601401902061064390336107d5565b610694576040805162461bcd60e51b815260206004820152601a60248201527f53656e6465722063616e6e6f7420726571756573742073656564000000000000604482015290519081900360640190fd5b6004547f00000000000000000000000000000000000000000000000000000000000000006001600160a01b03166370a08231306040518263ffffffff1660e01b815260040180826001600160a01b03166001600160a01b0316815260200191505060206040518083038186803b15801561070d57600080fd5b505afa158015610721573d6000803e3d6000fd5b505050506040513d602081101561073757600080fd5b5051101561077e576040805162461bcd60e51b815260206004820152600f60248201526e4e6f7420656e6f756768204c494e4b60881b604482015290519081900360640190fd5b600354600454604080516b43727970746f426c6164657360a01b8152905190819003600c019020610570929190610b4b565b60008281526001602052604081206107ce908363ffffffff610d0d16565b9392505050565b60008281526001602052604081206107ce908363ffffffff610d1916565b336001600160a01b037f00000000000000000000000000000000000000000000000000000000000000001614610870576040805162461bcd60e51b815260206004820152601f60248201527f4f6e6c7920565246436f6f7264696e61746f722063616e2066756c66696c6c00604482015290519081900360640190fd5b6103a08282610d2e565b600081565b60008181526001602052604081206103f090610d34565b6000828152600160205260409020600201546108b4906103566108ef565b61044d5760405162461bcd60e51b815260040180806020018281038252603081526020018061130c6030913960400191505060405180910390fd5b3390565b6000828152600160205260409020610911908263ffffffff610d3f16565b156103a05761091e6108ef565b6001600160a01b0316816001600160a01b0316837f2f8788117e7eff1d82e926ec794901d17c78024a50270940304540a733656f0d60405160405180910390a45050565b6000828152600160205260409020610980908263ffffffff610d5416565b156103a05761098d6108ef565b6001600160a01b0316816001600160a01b0316837ff6391f5c32d9c69d2a47ea670b442974b53935d1edc7fd64eb21e047a839171b60405160405180910390a45050565b6109d96104b9565b610a21576040805162461bcd60e51b815260206004820152601460248201527314185d5cd8589b194e881b9bdd081c185d5cd95960621b604482015290519081900360640190fd5b6000805460ff191690557f5db9ee0a495bf2e6ff9c91a7834c1ba4fdd244a5e8aa4e537bd38aeae4b073aa610a546108ef565b604080516001600160a01b039092168252519081900360200190a1565b604080516001600160a01b038416602482015260448082018490528251808303909101815260649091019091526020810180516001600160e01b031663a9059cbb60e01b179052610ac3908490610d69565b505050565b610ad06104b9565b15610b15576040805162461bcd60e51b815260206004820152601060248201526f14185d5cd8589b194e881c185d5cd95960821b604482015290519081900360640190fd5b6000805460ff191660011790557f62e78cea01bee320cd4e420270b5ea74000d11b0c9f74754ebdbfc544b05a258610a546108ef565b60007f00000000000000000000000000000000000000000000000000000000000000006001600160a01b0316634000aea07f000000000000000000000000000000000000000000000000000000000000000085878660405160200180838152602001828152602001925050506040516020818303038152906040526040518463ffffffff1660e01b815260040180846001600160a01b03166001600160a01b0316815260200183815260200180602001828103825283818151815260200191508051906020019080838360005b83811015610c30578181015183820152602001610c18565b50505050905090810190601f168015610c5d5780820380516001836020036101000a031916815260200191505b50945050505050602060405180830381600087803b158015610c7e57600080fd5b505af1158015610c92573d6000803e3d6000fd5b505050506040513d6020811015610ca857600080fd5b5050600084815260026020526040812054610cc890869085903090610e1a565b600086815260026020526040902054909150610ceb90600163ffffffff610e6116565b600086815260026020526040902055610d048582610ebb565b95945050505050565b60006107ce8383610ee7565b60006107ce836001600160a01b038416610f4b565b60055550565b60006103f082610f63565b60006107ce836001600160a01b038416610f67565b60006107ce836001600160a01b038416610fb1565b6060610dbe826040518060400160405280602081526020017f5361666545524332303a206c6f772d6c6576656c2063616c6c206661696c6564815250856001600160a01b03166110779092919063ffffffff16565b805190915015610ac357808060200190516020811015610ddd57600080fd5b5051610ac35760405162461bcd60e51b815260040180806020018281038252602a81526020018061133c602a913960400191505060405180910390fd5b60408051602080820196909652808201949094526001600160a01b039290921660608401526080808401919091528151808403909101815260a09092019052805191012090565b6000828201838110156107ce576040805162461bcd60e51b815260206004820152601b60248201527f536166654d6174683a206164646974696f6e206f766572666c6f770000000000604482015290519081900360640190fd5b604080516020808201949094528082019290925280518083038201815260609092019052805191012090565b81546000908210610f295760405162461bcd60e51b81526004018080602001828103825260228152602001806112956022913960400191505060405180910390fd5b826000018281548110610f3857fe5b9060005260206000200154905092915050565b60009081526001919091016020526040902054151590565b5490565b6000610f738383610f4b565b610fa9575081546001818101845560008481526020808220909301849055845484825282860190935260409020919091556103f0565b5060006103f0565b6000818152600183016020526040812054801561106d5783546000198083019190810190600090879083908110610fe457fe5b906000526020600020015490508087600001848154811061100157fe5b60009182526020808320909101929092558281526001898101909252604090209084019055865487908061103157fe5b600190038181906000526020600020016000905590558660010160008781526020019081526020016000206000905560019450505050506103f0565b60009150506103f0565b6060611086848460008561108e565b949350505050565b6060824710156110cf5760405162461bcd60e51b81526004018080602001828103825260268152602001806112e66026913960400191505060405180910390fd5b6110d8856111ea565b611129576040805162461bcd60e51b815260206004820152601d60248201527f416464726573733a2063616c6c20746f206e6f6e2d636f6e7472616374000000604482015290519081900360640190fd5b60006060866001600160a01b031685876040518082805190602001908083835b602083106111685780518252601f199092019160209182019101611149565b6001836020036101000a03801982511681845116808217855250505050505090500191505060006040518083038185875af1925050503d80600081146111ca576040519150601f19603f3d011682016040523d82523d6000602084013e6111cf565b606091505b50915091506111df8282866111f0565b979650505050505050565b3b151590565b606083156111ff5750816107ce565b82511561120f5782518084602001fd5b8160405162461bcd60e51b81526004018080602001828103825283818151815260200191508051906020019080838360005b83811015611259578181015183820152602001611241565b50505050905090810190601f1680156112865780820380516001836020036101000a031916815260200191505b509250505060405180910390fdfe456e756d657261626c655365743a20696e646578206f7574206f6620626f756e6473416363657373436f6e74726f6c3a2073656e646572206d75737420626520616e2061646d696e20746f206772616e74416464726573733a20696e73756666696369656e742062616c616e636520666f722063616c6c416363657373436f6e74726f6c3a2073656e646572206d75737420626520616e2061646d696e20746f207265766f6b655361666545524332303a204552433230206f7065726174696f6e20646964206e6f742073756363656564416363657373436f6e74726f6c3a2063616e206f6e6c792072656e6f756e636520726f6c657320666f722073656c66a2646970667358221220a2d60ada8826cbf26ce8fc0ee32b4d172bd7af5c1573f1857deaf7f543ec45cb64736f6c63430006050033",
  "immutableReferences": {
    "61704": [
      {
        "length": 32,
        "start": 1347
      },
      {
        "length": 32,
        "start": 1689
      },
      {
        "length": 32,
        "start": 2895
      }
    ],
    "61706": [
      {
        "length": 32,
        "start": 2046
      },
      {
        "length": 32,
        "start": 2942
      }
    ]
  },
  "source": "pragma solidity ^0.6.0;\n\nimport \"@openzeppelin/contracts/access/AccessControl.sol\";\nimport \"@openzeppelin/contracts/utils/Pausable.sol\";\nimport \"@openzeppelin/contracts/token/ERC20/SafeERC20.sol\";\nimport \"@openzeppelin/contracts/token/ERC20/IERC20.sol\";\nimport \"@chainlink/contracts/src/v0.6/VRFConsumerBase.sol\";\nimport \"./interfaces/IRandoms.sol\";\n\nstruct SeedState {\n    bytes32 requestId;\n    uint256 seed;\n    bool isAvailable;\n}\n\ncontract ChainlinkRandoms is IRandoms, Pausable, AccessControl, VRFConsumerBase {\n    using SafeERC20 for IERC20;\n\n    uint256 constant VRF_MAGIC_SEED = uint256(keccak256(\"CryptoBlades\"));\n\n    bytes32 public constant RANDOMNESS_REQUESTER = keccak256(\"RANDOMNESS_REQUESTER\");\n\n    bytes32 private keyHash;\n    uint256 private fee;\n\n    uint256 private seed;\n\n    // BSC testnet details:\n    // LINK token: 0x84b9B910527Ad5C03A9Ca831909E21e236EA7b06\n    // VRF Coordinator: 0xa555fC018435bef5A13C6c6870a9d4C11DEC329C\n    // Key Hash: 0xcaf3c3727e033261d383b315559476f48034c13b18f8cafed4d871abe5049186\n    // Fee: 0.1 * 10 ** 18 // 0.1 LINK\n\n    constructor(address _vrfCoordinator, address _link, bytes32 _keyHash, uint256 _fee)\n        VRFConsumerBase(\n            _vrfCoordinator, // VRF Coordinator\n            _link  // LINK Token\n        ) public\n    {\n        keyHash = _keyHash;\n        fee = _fee;\n\n        _setupRole(DEFAULT_ADMIN_ROLE, msg.sender);\n    }\n\n    // Views\n    function getRandomSeed(address user) external override view returns (uint256) {\n        return getRandomSeedUsingHash(user, blockhash(block.number - 1));\n    }\n\n    function getRandomSeedUsingHash(address user, bytes32 hash) public override view returns (uint256) {\n        return uint256(keccak256(abi.encodePacked(user, seed, hash)));\n    }\n\n    // Mutative\n\n    /**\n     * Requests randomness from a user-provided seed\n     */\n    function requestRandomNumber() external whenNotPaused {\n        require(hasRole(RANDOMNESS_REQUESTER, msg.sender), \"Sender cannot request seed\");\n        require(LINK.balanceOf(address(this)) >= fee, \"Not enough LINK\");\n\n        // the user-provided seed is not necessary, as per the docs\n        // hence we set it to an arbitrary constant\n        requestRandomness(keyHash, fee, VRF_MAGIC_SEED);\n    }\n\n    function pause() external onlyOwner {\n        _pause();\n    }\n\n    function unpause() external onlyOwner {\n        _unpause();\n    }\n\n    /**\n     * Callback function used by VRF Coordinator\n     */\n    function fulfillRandomness(bytes32 /* requestId */, uint256 randomness) internal override {\n        seed = randomness;\n    }\n\n    function withdrawLink(uint256 tokenAmount) external onlyOwner {\n        // very awkward - but should be safe given that the LINK token is ERC20-compatible\n        IERC20(address(LINK)).safeTransfer(msg.sender, tokenAmount);\n    }\n\n    // Modifiers\n    modifier onlyOwner() {\n        require(hasRole(DEFAULT_ADMIN_ROLE, msg.sender), \"Not admin\");\n        _;\n    }\n}\n",
  "sourcePath": "/mnt/e/work/cryptoblades/contracts/ChainlinkRandoms.sol",
  "compiler": {
    "name": "solc",
    "version": "0.6.5+commit.f956cc89.Emscripten.clang"
  },
  "schemaVersion": "3.3.4",
  "updatedAt": "2023-01-24T17:45:31.075Z",
  "devdoc": {
    "methods": {
      "getRoleAdmin(bytes32)": {
        "details": "Returns the admin role that controls `role`. See {grantRole} and {revokeRole}.     * To change a role's admin, use {_setRoleAdmin}."
      },
      "getRoleMember(bytes32,uint256)": {
        "details": "Returns one of the accounts that have `role`. `index` must be a value between 0 and {getRoleMemberCount}, non-inclusive.     * Role bearers are not sorted in any particular way, and their ordering may change at any point.     * WARNING: When using {getRoleMember} and {getRoleMemberCount}, make sure you perform all queries on the same block. See the following https://forum.openzeppelin.com/t/iterating-over-elements-on-enumerableset-in-openzeppelin-contracts/2296[forum post] for more information."
      },
      "getRoleMemberCount(bytes32)": {
        "details": "Returns the number of accounts that have `role`. Can be used together with {getRoleMember} to enumerate all bearers of a role."
      },
      "grantRole(bytes32,address)": {
        "details": "Grants `role` to `account`.     * If `account` had not been already granted `role`, emits a {RoleGranted} event.     * Requirements:     * - the caller must have ``role``'s admin role."
      },
      "hasRole(bytes32,address)": {
        "details": "Returns `true` if `account` has been granted `role`."
      },
      "paused()": {
        "details": "Returns true if the contract is paused, and false otherwise."
      },
      "renounceRole(bytes32,address)": {
        "details": "Revokes `role` from the calling account.     * Roles are often managed via {grantRole} and {revokeRole}: this function's purpose is to provide a mechanism for accounts to lose their privileges if they are compromised (such as when a trusted device is misplaced).     * If the calling account had been granted `role`, emits a {RoleRevoked} event.     * Requirements:     * - the caller must be `account`."
      },
      "revokeRole(bytes32,address)": {
        "details": "Revokes `role` from `account`.     * If `account` had been granted `role`, emits a {RoleRevoked} event.     * Requirements:     * - the caller must have ``role``'s admin role."
      }
    }
  },
  "userdoc": {
    "methods": {
      "requestRandomNumber()": {
        "notice": "Requests randomness from a user-provided seed"
      }
    }
  }
}