{
  "contractName": "CharacterWaterTraitChangeConsumables",
  "abi": [
    {
      "anonymous": false,
      "inputs": [
        {
          "indexed": true,
          "internalType": "address",
          "name": "owner",
          "type": "address"
        },
        {
          "indexed": true,
          "internalType": "uint256",
          "name": "character",
          "type": "uint256"
        },
        {
          "indexed": false,
          "internalType": "uint8",
          "name": "from",
          "type": "uint8"
        }
      ],
      "name": "CharacterTraitChangedToWater",
      "type": "event"
    },
    {
      "anonymous": false,
      "inputs": [
        {
          "indexed": true,
          "internalType": "address",
          "name": "owner",
          "type": "address"
        },
        {
          "indexed": false,
          "internalType": "uint32",
          "name": "amount",
          "type": "uint32"
        }
      ],
      "name": "ConsumableGiven",
      "type": "event"
    },
    {
      "anonymous": false,
      "inputs": [
        {
          "indexed": true,
          "internalType": "bytes32",
          "name": "role",
          "type": "bytes32"
        },
        {
          "indexed": true,
          "internalType": "bytes32",
          "name": "previousAdminRole",
          "type": "bytes32"
        },
        {
          "indexed": true,
          "internalType": "bytes32",
          "name": "newAdminRole",
          "type": "bytes32"
        }
      ],
      "name": "RoleAdminChanged",
      "type": "event"
    },
    {
      "anonymous": false,
      "inputs": [
        {
          "indexed": true,
          "internalType": "bytes32",
          "name": "role",
          "type": "bytes32"
        },
        {
          "indexed": true,
          "internalType": "address",
          "name": "account",
          "type": "address"
        },
        {
          "indexed": true,
          "internalType": "address",
          "name": "sender",
          "type": "address"
        }
      ],
      "name": "RoleGranted",
      "type": "event"
    },
    {
      "anonymous": false,
      "inputs": [
        {
          "indexed": true,
          "internalType": "bytes32",
          "name": "role",
          "type": "bytes32"
        },
        {
          "indexed": true,
          "internalType": "address",
          "name": "account",
          "type": "address"
        },
        {
          "indexed": true,
          "internalType": "address",
          "name": "sender",
          "type": "address"
        }
      ],
      "name": "RoleRevoked",
      "type": "event"
    },
    {
      "inputs": [],
      "name": "DEFAULT_ADMIN_ROLE",
      "outputs": [
        {
          "internalType": "bytes32",
          "name": "",
          "type": "bytes32"
        }
      ],
      "stateMutability": "view",
      "type": "function"
    },
    {
      "inputs": [],
      "name": "GAME_ADMIN",
      "outputs": [
        {
          "internalType": "bytes32",
          "name": "",
          "type": "bytes32"
        }
      ],
      "stateMutability": "view",
      "type": "function"
    },
    {
      "inputs": [],
      "name": "getItemCount",
      "outputs": [
        {
          "internalType": "uint32",
          "name": "",
          "type": "uint32"
        }
      ],
      "stateMutability": "view",
      "type": "function"
    },
    {
      "inputs": [
        {
          "internalType": "bytes32",
          "name": "role",
          "type": "bytes32"
        }
      ],
      "name": "getRoleAdmin",
      "outputs": [
        {
          "internalType": "bytes32",
          "name": "",
          "type": "bytes32"
        }
      ],
      "stateMutability": "view",
      "type": "function"
    },
    {
      "inputs": [
        {
          "internalType": "bytes32",
          "name": "role",
          "type": "bytes32"
        },
        {
          "internalType": "uint256",
          "name": "index",
          "type": "uint256"
        }
      ],
      "name": "getRoleMember",
      "outputs": [
        {
          "internalType": "address",
          "name": "",
          "type": "address"
        }
      ],
      "stateMutability": "view",
      "type": "function"
    },
    {
      "inputs": [
        {
          "internalType": "bytes32",
          "name": "role",
          "type": "bytes32"
        }
      ],
      "name": "getRoleMemberCount",
      "outputs": [
        {
          "internalType": "uint256",
          "name": "",
          "type": "uint256"
        }
      ],
      "stateMutability": "view",
      "type": "function"
    },
    {
      "inputs": [
        {
          "internalType": "address",
          "name": "buyer",
          "type": "address"
        },
        {
          "internalType": "uint32",
          "name": "amount",
          "type": "uint32"
        }
      ],
      "name": "giveItem",
      "outputs": [],
      "stateMutability": "nonpayable",
      "type": "function"
    },
    {
      "inputs": [
        {
          "internalType": "address",
          "name": "receiver",
          "type": "address"
        },
        {
          "internalType": "uint32",
          "name": "amount",
          "type": "uint32"
        }
      ],
      "name": "giveItemByAdmin",
      "outputs": [],
      "stateMutability": "nonpayable",
      "type": "function"
    },
    {
      "inputs": [
        {
          "internalType": "bytes32",
          "name": "role",
          "type": "bytes32"
        },
        {
          "internalType": "address",
          "name": "account",
          "type": "address"
        }
      ],
      "name": "grantRole",
      "outputs": [],
      "stateMutability": "nonpayable",
      "type": "function"
    },
    {
      "inputs": [
        {
          "internalType": "bytes32",
          "name": "role",
          "type": "bytes32"
        },
        {
          "internalType": "address",
          "name": "account",
          "type": "address"
        }
      ],
      "name": "hasRole",
      "outputs": [
        {
          "internalType": "bool",
          "name": "",
          "type": "bool"
        }
      ],
      "stateMutability": "view",
      "type": "function"
    },
    {
      "inputs": [],
      "name": "itemEnabled",
      "outputs": [
        {
          "internalType": "bool",
          "name": "",
          "type": "bool"
        }
      ],
      "stateMutability": "view",
      "type": "function"
    },
    {
      "inputs": [
        {
          "internalType": "address",
          "name": "",
          "type": "address"
        }
      ],
      "name": "owned",
      "outputs": [
        {
          "internalType": "uint32",
          "name": "",
          "type": "uint32"
        }
      ],
      "stateMutability": "view",
      "type": "function"
    },
    {
      "inputs": [
        {
          "internalType": "bytes32",
          "name": "role",
          "type": "bytes32"
        },
        {
          "internalType": "address",
          "name": "account",
          "type": "address"
        }
      ],
      "name": "renounceRole",
      "outputs": [],
      "stateMutability": "nonpayable",
      "type": "function"
    },
    {
      "inputs": [
        {
          "internalType": "bytes32",
          "name": "role",
          "type": "bytes32"
        },
        {
          "internalType": "address",
          "name": "account",
          "type": "address"
        }
      ],
      "name": "revokeRole",
      "outputs": [],
      "stateMutability": "nonpayable",
      "type": "function"
    },
    {
      "inputs": [
        {
          "internalType": "address",
          "name": "target",
          "type": "address"
        },
        {
          "internalType": "uint32",
          "name": "amount",
          "type": "uint32"
        }
      ],
      "name": "takeItemByAdmin",
      "outputs": [],
      "stateMutability": "nonpayable",
      "type": "function"
    },
    {
      "inputs": [
        {
          "internalType": "bool",
          "name": "canUse",
          "type": "bool"
        }
      ],
      "name": "toggleItemCanUse",
      "outputs": [],
      "stateMutability": "nonpayable",
      "type": "function"
    },
    {
      "inputs": [],
      "name": "initialize",
      "outputs": [],
      "stateMutability": "nonpayable",
      "type": "function"
    },
    {
      "inputs": [
        {
          "internalType": "contract Characters",
          "name": "_characters",
          "type": "address"
        }
      ],
      "name": "initialize",
      "outputs": [],
      "stateMutability": "nonpayable",
      "type": "function"
    },
    {
      "inputs": [
        {
          "internalType": "uint256",
          "name": "characterId",
          "type": "uint256"
        }
      ],
      "name": "changeCharacterTrait",
      "outputs": [],
      "stateMutability": "nonpayable",
      "type": "function"
    }
  ],
  "bytecode": "0x608060405234801561001057600080fd5b50611182806100206000396000f3fe608060405234801561001057600080fd5b50600436106101215760003560e01c806391d14854116100ad578063c59284ee11610071578063c59284ee14610334578063ca15c87314610366578063d547741f14610383578063ec36f849146103af578063f9e54cb4146103ce57610121565b806391d1485414610283578063a217fddf146102c3578063b1ab9317146102cb578063bd4ea7c0146102f1578063c4d66de81461030e57610121565b80634d375128116100f45780634d375128146101e15780635504d3d2146102135780637749cf231461021b5780638129fc1c1461023c5780639010d07c1461024457610121565b8063248a9ca3146101265780632f2ff15d146101555780632ff6a0441461018357806336568abe146101b5575b600080fd5b6101436004803603602081101561013c57600080fd5b50356103d6565b60408051918252519081900360200190f35b6101816004803603604081101561016b57600080fd5b50803590602001356001600160a01b03166103eb565b005b6101816004803603604081101561019957600080fd5b5080356001600160a01b0316906020013563ffffffff16610457565b610181600480360360408110156101cb57600080fd5b50803590602001356001600160a01b03166104d7565b610181600480360360408110156101f757600080fd5b5080356001600160a01b0316906020013563ffffffff16610538565b6101436105ad565b6102236105cf565b6040805163ffffffff9092168252519081900360200190f35b6101816105e8565b6102676004803603604081101561025a57600080fd5b50803590602001356106aa565b604080516001600160a01b039092168252519081900360200190f35b6102af6004803603604081101561029957600080fd5b50803590602001356001600160a01b03166106d1565b604080519115158252519081900360200190f35b6101436106ef565b610223600480360360208110156102e157600080fd5b50356001600160a01b03166106f4565b6101816004803603602081101561030757600080fd5b503561070c565b6101816004803603602081101561032457600080fd5b50356001600160a01b0316610917565b6101816004803603604081101561034a57600080fd5b5080356001600160a01b0316906020013563ffffffff166109f5565b6101436004803603602081101561037c57600080fd5b5035610ade565b6101816004803603604081101561039957600080fd5b50803590602001356001600160a01b0316610af5565b610181600480360360208110156103c557600080fd5b50351515610b4e565b6102af610ba9565b60009081526033602052604090206002015490565b60008281526033602052604090206002015461040e90610409610bb2565b6106d1565b6104495760405162461bcd60e51b815260040180806020018281038252602f815260200180611091602f913960400191505060405180910390fd5b6104538282610bb6565b5050565b6104626000336106d1565b61049f576040805162461bcd60e51b81526020600482015260096024820152682737ba1030b236b4b760b91b604482015290519081900360640190fd5b6001600160a01b03919091166000908152606560205260409020805463ffffffff19811663ffffffff91821690930116919091179055565b6104df610bb2565b6001600160a01b0316816001600160a01b03161461052e5760405162461bcd60e51b815260040180806020018281038252602f81526020018061111e602f913960400191505060405180910390fd5b6104538282610c25565b610540610c94565b6001600160a01b038216600081815260656020908152604091829020805463ffffffff19811663ffffffff91821687018216179091558251908516815291517f90a3437fc374e1839a62ff1148f9bdb4f02dc5e02e8393ff6cbc68b1fcec49a19281900390910190a25050565b604080516923a0a6a2afa0a226a4a760b11b8152905190819003600a01902081565b3360009081526065602052604090205463ffffffff1690565b600054610100900460ff16806106015750610601610d01565b8061060f575060005460ff16155b61064a5760405162461bcd60e51b815260040180806020018281038252602e8152602001806110f0602e913960400191505060405180910390fd5b600054610100900460ff16158015610675576000805460ff1961ff0019909116610100171660011790555b61067d610d12565b610688600033610449565b6066805460ff1916600117905580156106a7576000805461ff00191690555b50565b60008281526033602052604081206106c8908363ffffffff610db316565b90505b92915050565b60008281526033602052604081206106c8908363ffffffff610dbf16565b600081565b60656020526000908152604090205463ffffffff1681565b606654604080516331a9108f60e11b8152600481018490529051339261010090046001600160a01b031691636352211e916024808301926020929190829003018186803b15801561075c57600080fd5b505afa158015610770573d6000803e3d6000fd5b505050506040513d602081101561078657600080fd5b50516001600160a01b0316146107e3576040805162461bcd60e51b815260206004820152601760248201527f4e6f742074686520636861726163746572206f776e6572000000000000000000604482015290519081900360640190fd5b6107ed6001610dd4565b6066546040805163acb586df60e01b8152600481018490529051839233927fa1b80121614573ea442456373a4eb428b5440ea927e3359f748cbc7a530c9909926101009092046001600160a01b03169163acb586df91602480820192602092909190829003018186803b15801561086357600080fd5b505afa158015610877573d6000803e3d6000fd5b505050506040513d602081101561088d57600080fd5b50516040805160ff9092168252519081900360200190a360665460408051637e74b1a760e11b8152600481018490526003602482015290516101009092046001600160a01b03169163fce9634e9160448082019260009290919082900301818387803b1580156108fc57600080fd5b505af1158015610910573d6000803e3d6000fd5b5050505050565b600054610100900460ff16806109305750610930610d01565b8061093e575060005460ff16155b6109795760405162461bcd60e51b815260040180806020018281038252602e8152602001806110f0602e913960400191505060405180910390fd5b600054610100900460ff161580156109a4576000805460ff1961ff0019909116610100171660011790555b6109ac610d12565b6109b7600033610449565b60668054600160ff1990911617610100600160a81b0319166101006001600160a01b038516021790558015610453576000805461ff00191690555050565b610a006000336106d1565b610a3d576040805162461bcd60e51b81526020600482015260096024820152682737ba1030b236b4b760b91b604482015290519081900360640190fd5b6001600160a01b03821660009081526065602052604090205463ffffffff80831691161015610aa5576040805162461bcd60e51b815260206004820152600f60248201526e4e6f7420656e6f756768206974656d60881b604482015290519081900360640190fd5b6001600160a01b03919091166000908152606560205260409020805463ffffffff19811663ffffffff9182169390930316919091179055565b60008181526033602052604081206106cb90610ea3565b600082815260336020526040902060020154610b1390610409610bb2565b61052e5760405162461bcd60e51b81526004018080602001828103825260308152602001806110c06030913960400191505060405180910390fd5b610b596000336106d1565b610b96576040805162461bcd60e51b81526020600482015260096024820152682737ba1030b236b4b760b91b604482015290519081900360640190fd5b6066805460ff1916911515919091179055565b60665460ff1690565b3390565b6000828152603360205260409020610bd4908263ffffffff610eae16565b1561045357610be1610bb2565b6001600160a01b0316816001600160a01b0316837f2f8788117e7eff1d82e926ec794901d17c78024a50270940304540a733656f0d60405160405180910390a45050565b6000828152603360205260409020610c43908263ffffffff610ec316565b1561045357610c50610bb2565b6001600160a01b0316816001600160a01b0316837ff6391f5c32d9c69d2a47ea670b442974b53935d1edc7fd64eb21e047a839171b60405160405180910390a45050565b604080516923a0a6a2afa0a226a4a760b11b8152905190819003600a019020610cbd90336106d1565b610cff576040805162461bcd60e51b815260206004820152600e60248201526d2737ba1033b0b6b29030b236b4b760911b604482015290519081900360640190fd5b565b6000610d0c30610ed8565b15905090565b600054610100900460ff1680610d2b5750610d2b610d01565b80610d39575060005460ff16155b610d745760405162461bcd60e51b815260040180806020018281038252602e8152602001806110f0602e913960400191505060405180910390fd5b600054610100900460ff16158015610d9f576000805460ff1961ff0019909116610100171660011790555b80156106a7576000805461ff001916905550565b60006106c88383610ede565b60006106c8836001600160a01b038416610f42565b33600090815260656020526040902054819063ffffffff80831691161015610e2d576040805162461bcd60e51b81526020600482015260076024820152664e6f206974656d60c81b604482015290519081900360640190fd5b60665460ff16610e74576040805162461bcd60e51b815260206004820152600d60248201526c125d195b48191a5cd8589b1959609a1b604482015290519081900360640190fd5b50336000908152606560205260409020805463ffffffff19811663ffffffff9182169390930316919091179055565b60006106cb82610f5a565b60006106c8836001600160a01b038416610f5e565b60006106c8836001600160a01b038416610fa8565b3b151590565b81546000908210610f205760405162461bcd60e51b815260040180806020018281038252602281526020018061106f6022913960400191505060405180910390fd5b826000018281548110610f2f57fe5b9060005260206000200154905092915050565b60009081526001919091016020526040902054151590565b5490565b6000610f6a8383610f42565b610fa0575081546001818101845560008481526020808220909301849055845484825282860190935260409020919091556106cb565b5060006106cb565b600081815260018301602052604081205480156110645783546000198083019190810190600090879083908110610fdb57fe5b9060005260206000200154905080876000018481548110610ff857fe5b60009182526020808320909101929092558281526001898101909252604090209084019055865487908061102857fe5b600190038181906000526020600020016000905590558660010160008781526020019081526020016000206000905560019450505050506106cb565b60009150506106cb56fe456e756d657261626c655365743a20696e646578206f7574206f6620626f756e6473416363657373436f6e74726f6c3a2073656e646572206d75737420626520616e2061646d696e20746f206772616e74416363657373436f6e74726f6c3a2073656e646572206d75737420626520616e2061646d696e20746f207265766f6b65496e697469616c697a61626c653a20636f6e747261637420697320616c726561647920696e697469616c697a6564416363657373436f6e74726f6c3a2063616e206f6e6c792072656e6f756e636520726f6c657320666f722073656c66a26469706673582212209e2eadd9a3e0e7f555c70f0c49a057c5b78dcd14c0fbc0ec505e616acdcefdb364736f6c63430006050033",
  "immutableReferences": {},
  "source": "pragma solidity ^0.6.5;\n\nimport \"./Consumables.sol\";\nimport \"./characters.sol\";\n\ncontract CharacterWaterTraitChangeConsumables is Consumables {\n\n    Characters characters;\n\n    event CharacterTraitChangedToWater(address indexed owner, uint256 indexed character, uint8 from);\n\n    function initialize(Characters _characters)\n        public\n        initializer\n    {\n        __AccessControl_init_unchained();\n\n        _setupRole(DEFAULT_ADMIN_ROLE, msg.sender);\n\n        _enabled = true;\n\n        characters = _characters;\n    }\n\n    function changeCharacterTrait(uint256 characterId) public {\n        require(characters.ownerOf(characterId) == msg.sender, \"Not the character owner\");\n        consumeItem(1);\n        emit CharacterTraitChangedToWater(msg.sender, characterId, characters.getTrait(characterId));\n        characters.setTrait(characterId, 3);\n    }\n}\n",
  "sourcePath": "/mnt/e/work/cryptoblades/contracts/CharacterWaterTraitChangeConsumables.sol",
  "compiler": {
    "name": "solc",
    "version": "0.6.5+commit.f956cc89.Emscripten.clang"
  },
  "schemaVersion": "3.3.4",
  "updatedAt": "2023-01-24T17:45:31.162Z",
  "devdoc": {
    "methods": {
      "getRoleAdmin(bytes32)": {
        "details": "Returns the admin role that controls `role`. See {grantRole} and {revokeRole}.     * To change a role's admin, use {_setRoleAdmin}."
      },
      "getRoleMember(bytes32,uint256)": {
        "details": "Returns one of the accounts that have `role`. `index` must be a value between 0 and {getRoleMemberCount}, non-inclusive.     * Role bearers are not sorted in any particular way, and their ordering may change at any point.     * WARNING: When using {getRoleMember} and {getRoleMemberCount}, make sure you perform all queries on the same block. See the following https://forum.openzeppelin.com/t/iterating-over-elements-on-enumerableset-in-openzeppelin-contracts/2296[forum post] for more information."
      },
      "getRoleMemberCount(bytes32)": {
        "details": "Returns the number of accounts that have `role`. Can be used together with {getRoleMember} to enumerate all bearers of a role."
      },
      "grantRole(bytes32,address)": {
        "details": "Grants `role` to `account`.     * If `account` had not been already granted `role`, emits a {RoleGranted} event.     * Requirements:     * - the caller must have ``role``'s admin role."
      },
      "hasRole(bytes32,address)": {
        "details": "Returns `true` if `account` has been granted `role`."
      },
      "renounceRole(bytes32,address)": {
        "details": "Revokes `role` from the calling account.     * Roles are often managed via {grantRole} and {revokeRole}: this function's purpose is to provide a mechanism for accounts to lose their privileges if they are compromised (such as when a trusted device is misplaced).     * If the calling account had been granted `role`, emits a {RoleRevoked} event.     * Requirements:     * - the caller must be `account`."
      },
      "revokeRole(bytes32,address)": {
        "details": "Revokes `role` from `account`.     * If `account` had been granted `role`, emits a {RoleRevoked} event.     * Requirements:     * - the caller must have ``role``'s admin role."
      }
    }
  },
  "userdoc": {
    "methods": {}
  }
}