{
  "contractName": "CharactersBridgeProxyContract",
  "abi": [
    {
      "anonymous": false,
      "inputs": [
        {
          "indexed": true,
          "internalType": "bytes32",
          "name": "role",
          "type": "bytes32"
        },
        {
          "indexed": true,
          "internalType": "bytes32",
          "name": "previousAdminRole",
          "type": "bytes32"
        },
        {
          "indexed": true,
          "internalType": "bytes32",
          "name": "newAdminRole",
          "type": "bytes32"
        }
      ],
      "name": "RoleAdminChanged",
      "type": "event"
    },
    {
      "anonymous": false,
      "inputs": [
        {
          "indexed": true,
          "internalType": "bytes32",
          "name": "role",
          "type": "bytes32"
        },
        {
          "indexed": true,
          "internalType": "address",
          "name": "account",
          "type": "address"
        },
        {
          "indexed": true,
          "internalType": "address",
          "name": "sender",
          "type": "address"
        }
      ],
      "name": "RoleGranted",
      "type": "event"
    },
    {
      "anonymous": false,
      "inputs": [
        {
          "indexed": true,
          "internalType": "bytes32",
          "name": "role",
          "type": "bytes32"
        },
        {
          "indexed": true,
          "internalType": "address",
          "name": "account",
          "type": "address"
        },
        {
          "indexed": true,
          "internalType": "address",
          "name": "sender",
          "type": "address"
        }
      ],
      "name": "RoleRevoked",
      "type": "event"
    },
    {
      "inputs": [],
      "name": "DEFAULT_ADMIN_ROLE",
      "outputs": [
        {
          "internalType": "bytes32",
          "name": "",
          "type": "bytes32"
        }
      ],
      "stateMutability": "view",
      "type": "function"
    },
    {
      "inputs": [],
      "name": "GAME_ADMIN",
      "outputs": [
        {
          "internalType": "bytes32",
          "name": "",
          "type": "bytes32"
        }
      ],
      "stateMutability": "view",
      "type": "function"
    },
    {
      "inputs": [],
      "name": "UINT_NFT_VAR_META",
      "outputs": [
        {
          "internalType": "uint8",
          "name": "",
          "type": "uint8"
        }
      ],
      "stateMutability": "view",
      "type": "function"
    },
    {
      "inputs": [],
      "name": "UINT_NFT_VAR_SEED3DCOSMETIC",
      "outputs": [
        {
          "internalType": "uint8",
          "name": "",
          "type": "uint8"
        }
      ],
      "stateMutability": "view",
      "type": "function"
    },
    {
      "inputs": [
        {
          "internalType": "bytes32",
          "name": "role",
          "type": "bytes32"
        }
      ],
      "name": "getRoleAdmin",
      "outputs": [
        {
          "internalType": "bytes32",
          "name": "",
          "type": "bytes32"
        }
      ],
      "stateMutability": "view",
      "type": "function"
    },
    {
      "inputs": [
        {
          "internalType": "bytes32",
          "name": "role",
          "type": "bytes32"
        },
        {
          "internalType": "uint256",
          "name": "index",
          "type": "uint256"
        }
      ],
      "name": "getRoleMember",
      "outputs": [
        {
          "internalType": "address",
          "name": "",
          "type": "address"
        }
      ],
      "stateMutability": "view",
      "type": "function"
    },
    {
      "inputs": [
        {
          "internalType": "bytes32",
          "name": "role",
          "type": "bytes32"
        }
      ],
      "name": "getRoleMemberCount",
      "outputs": [
        {
          "internalType": "uint256",
          "name": "",
          "type": "uint256"
        }
      ],
      "stateMutability": "view",
      "type": "function"
    },
    {
      "inputs": [
        {
          "internalType": "bytes32",
          "name": "role",
          "type": "bytes32"
        },
        {
          "internalType": "address",
          "name": "account",
          "type": "address"
        }
      ],
      "name": "grantRole",
      "outputs": [],
      "stateMutability": "nonpayable",
      "type": "function"
    },
    {
      "inputs": [
        {
          "internalType": "bytes32",
          "name": "role",
          "type": "bytes32"
        },
        {
          "internalType": "address",
          "name": "account",
          "type": "address"
        }
      ],
      "name": "hasRole",
      "outputs": [
        {
          "internalType": "bool",
          "name": "",
          "type": "bool"
        }
      ],
      "stateMutability": "view",
      "type": "function"
    },
    {
      "inputs": [
        {
          "internalType": "bytes32",
          "name": "role",
          "type": "bytes32"
        },
        {
          "internalType": "address",
          "name": "account",
          "type": "address"
        }
      ],
      "name": "renounceRole",
      "outputs": [],
      "stateMutability": "nonpayable",
      "type": "function"
    },
    {
      "inputs": [
        {
          "internalType": "bytes32",
          "name": "role",
          "type": "bytes32"
        },
        {
          "internalType": "address",
          "name": "account",
          "type": "address"
        }
      ],
      "name": "revokeRole",
      "outputs": [],
      "stateMutability": "nonpayable",
      "type": "function"
    },
    {
      "inputs": [
        {
          "internalType": "address",
          "name": "_nftStorageAddress",
          "type": "address"
        },
        {
          "internalType": "address",
          "name": "_characters",
          "type": "address"
        },
        {
          "internalType": "address",
          "name": "_characterCosmetics",
          "type": "address"
        },
        {
          "internalType": "address",
          "name": "_characterRenameTagConsumables",
          "type": "address"
        }
      ],
      "name": "initialize",
      "outputs": [],
      "stateMutability": "nonpayable",
      "type": "function"
    },
    {
      "inputs": [
        {
          "internalType": "contract Promos",
          "name": "_newPromos",
          "type": "address"
        }
      ],
      "name": "migrate_c906001",
      "outputs": [],
      "stateMutability": "nonpayable",
      "type": "function"
    },
    {
      "inputs": [
        {
          "internalType": "contract EquipmentManager",
          "name": "_equipmentManager",
          "type": "address"
        }
      ],
      "name": "migrate_68c6936",
      "outputs": [],
      "stateMutability": "nonpayable",
      "type": "function"
    },
    {
      "inputs": [
        {
          "internalType": "uint256",
          "name": "tokenId",
          "type": "uint256"
        }
      ],
      "name": "collectData",
      "outputs": [
        {
          "internalType": "uint256[]",
          "name": "uintVars",
          "type": "uint256[]"
        },
        {
          "internalType": "string",
          "name": "stringVar",
          "type": "string"
        }
      ],
      "stateMutability": "view",
      "type": "function"
    },
    {
      "inputs": [],
      "name": "sigVersion",
      "outputs": [
        {
          "internalType": "uint256",
          "name": "",
          "type": "uint256"
        }
      ],
      "stateMutability": "view",
      "type": "function"
    },
    {
      "inputs": [],
      "name": "isEnabled",
      "outputs": [
        {
          "internalType": "bool",
          "name": "",
          "type": "bool"
        }
      ],
      "stateMutability": "view",
      "type": "function"
    },
    {
      "inputs": [
        {
          "internalType": "bool",
          "name": "_enabled",
          "type": "bool"
        }
      ],
      "name": "setEnabled",
      "outputs": [],
      "stateMutability": "nonpayable",
      "type": "function"
    },
    {
      "inputs": [
        {
          "internalType": "address",
          "name": "receiver",
          "type": "address"
        },
        {
          "internalType": "uint256",
          "name": "tokenId",
          "type": "uint256"
        },
        {
          "internalType": "uint256[]",
          "name": "uintVars",
          "type": "uint256[]"
        },
        {
          "internalType": "string",
          "name": "stringVar",
          "type": "string"
        }
      ],
      "name": "mintOrUpdate",
      "outputs": [
        {
          "internalType": "uint256",
          "name": "",
          "type": "uint256"
        }
      ],
      "stateMutability": "nonpayable",
      "type": "function"
    },
    {
      "inputs": [
        {
          "internalType": "address",
          "name": "wallet",
          "type": "address"
        },
        {
          "internalType": "uint256",
          "name": "tokenId",
          "type": "uint256"
        },
        {
          "internalType": "uint256",
          "name": "targetChain",
          "type": "uint256"
        }
      ],
      "name": "canBridge",
      "outputs": [
        {
          "internalType": "bool",
          "name": "",
          "type": "bool"
        }
      ],
      "stateMutability": "view",
      "type": "function"
    }
  ],
  "bytecode": "0x608060405234801561001057600080fd5b5061190a806100206000396000f3fe608060405234801561001057600080fd5b506004361061012c5760003560e01c80635504d3d2116100ad578063ca15c87311610071578063ca15c873146103ee578063cf17d1b41461040b578063d547741f14610413578063d58a097c1461043f578063f8c8765e146105125761012c565b80635504d3d21461036b5780636aa633b6146103735780639010d07c1461037b57806391d14854146103ba578063a217fddf146103e65761012c565b8063328d8f72116100f4578063328d8f72146102cc57806335fb8e33146102eb578063361227511461031157806336568abe146103375780634594fac4146103635761012c565b8063135701f71461013157806319dd746a1461014f578063248a9ca3146102295780632d31418a146102585780632f2ff15d1461029e575b600080fd5b610139610550565b6040805160ff9092168252519081900360200190f35b61016c6004803603602081101561016557600080fd5b5035610555565b604051808060200180602001838103835285818151815260200191508051906020019060200280838360005b838110156101b0578181015183820152602001610198565b50505050905001838103825284818151815260200191508051906020019080838360005b838110156101ec5781810151838201526020016101d4565b50505050905090810190601f1680156102195780820380516001836020036101000a031916815260200191505b5094505050505060405180910390f35b6102466004803603602081101561023f57600080fd5b50356106fb565b60408051918252519081900360200190f35b61028a6004803603606081101561026e57600080fd5b506001600160a01b038135169060208101359060400135610710565b604080519115158252519081900360200190f35b6102ca600480360360408110156102b457600080fd5b50803590602001356001600160a01b031661082b565b005b6102ca600480360360208110156102e257600080fd5b50351515610897565b6102ca6004803603602081101561030157600080fd5b50356001600160a01b03166108bd565b6102ca6004803603602081101561032757600080fd5b50356001600160a01b03166108f3565b6102ca6004803603604081101561034d57600080fd5b50803590602001356001600160a01b0316610929565b61024661098a565b61024661098f565b61028a6109b1565b61039e6004803603604081101561039157600080fd5b50803590602001356109c1565b604080516001600160a01b039092168252519081900360200190f35b61028a600480360360408110156103d057600080fd5b50803590602001356001600160a01b03166109e8565b610246610550565b6102466004803603602081101561040457600080fd5b5035610a06565b610139610a1d565b6102ca6004803603604081101561042957600080fd5b50803590602001356001600160a01b0316610a22565b6102466004803603608081101561045557600080fd5b6001600160a01b0382351691602081013591810190606081016040820135600160201b81111561048457600080fd5b82018360208201111561049657600080fd5b803590602001918460208302840111600160201b831117156104b757600080fd5b919390929091602081019035600160201b8111156104d457600080fd5b8201836020820111156104e657600080fd5b803590602001918460018302840111600160201b8311171561050757600080fd5b509092509050610a7b565b6102ca6004803603608081101561052857600080fd5b506001600160a01b038135811691602081013582169160408201358116916060013516610c61565b600081565b60675460408051633715665760e01b8152600481018490529051606092839283926001600160a01b0390921691633715665791602480820192600092909190829003018186803b1580156105a857600080fd5b505afa1580156105bc573d6000803e3d6000fd5b505050506040513d6000823e601f3d908101601f1916820160405260208110156105e557600080fd5b8101908080516040519392919084600160201b82111561060457600080fd5b90830190602082018581111561061957600080fd5b8251600160201b81118282018810171561063257600080fd5b82525081516020918201929091019080838360005b8381101561065f578181015183820152602001610647565b50505050905090810190601f16801561068c5780820380516001836020036101000a031916815260200191505b5060028082526060820160405294955093925050508160200160208202803683370190505092506106bc84610d64565b85600060ff16815181106106cc57fe5b6020026020010186600160ff16815181106106e357fe5b60209081029190910101929092525052919391925050565b60009081526033602052604090206002015490565b6065546040805163783efb2560e01b8152600481018590526003602482015290516000926001600160a01b03169163783efb25916044808301926020929190829003018186803b15801561076357600080fd5b505afa158015610777573d6000803e3d6000fd5b505050506040513d602081101561078d57600080fd5b50511580156108235750606a5460655460408051631254c4c960e21b81526001600160a01b0392831660048201526024810187905260016044820152905191909216916349531324916064808301926020929190829003018186803b1580156107f557600080fd5b505afa158015610809573d6000803e3d6000fd5b505050506040513d602081101561081f57600080fd5b5051155b949350505050565b60008281526033602052604090206002015461084e906108496111ec565b6109e8565b6108895760405162461bcd60e51b815260040180806020018281038252602f815260200180611819602f913960400191505060405180910390fd5b61089382826111f0565b5050565b61089f61125f565b60688054911515600160a01b0260ff60a01b19909216919091179055565b6108c86000336109e8565b6108d157600080fd5b606980546001600160a01b0319166001600160a01b0392909216919091179055565b6108fe6000336109e8565b61090757600080fd5b606a80546001600160a01b0319166001600160a01b0392909216919091179055565b6109316111ec565b6001600160a01b0316816001600160a01b0316146109805760405162461bcd60e51b815260040180806020018281038252602f8152602001806118a6602f913960400191505060405180910390fd5b61089382826112d1565b600390565b604080516923a0a6a2afa0a226a4a760b11b8152905190819003600a01902081565b606854600160a01b900460ff1690565b60008281526033602052604081206109df908363ffffffff61134016565b90505b92915050565b60008281526033602052604081206109df908363ffffffff61134c16565b60008181526033602052604081206109e290611361565b600181565b600082815260336020526040902060020154610a40906108496111ec565b6109805760405162461bcd60e51b81526004018080602001828103825260308152602001806118486030913960400191505060405180910390fd5b6000610a8561125f565b606854600160a01b900460ff16610ad1576040805162461bcd60e51b815260206004820152600b60248201526a1b9bdd08195b98589b195960aa1b604482015290519081900360640190fd5b60008080808080610af18b8b8381610ae557fe5b9050602002013561136c565b955095509550955095509550610b228c8686868f8f600160ff16818110610b1457fe5b9050602002013587876113a2565b9b5063ffffffff861615610ba25760665460408051630244b00760e41b8152600481018f905263ffffffff8916602482015290516001600160a01b039092169163244b00709160448082019260009290919082900301818387803b158015610b8957600080fd5b505af1158015610b9d573d6000803e3d6000fd5b505050505b8715610c5057606760009054906101000a90046001600160a01b03166001600160a01b031663fe55932a8d8b8b6040518463ffffffff1660e01b815260040180848152602001806020018281038252848482818152602001925080828437600081840152601f19601f820116905080830192505050945050505050600060405180830381600087803b158015610c3757600080fd5b505af1158015610c4b573d6000803e3d6000fd5b505050505b50999b9a5050505050505050505050565b600054610100900460ff1680610c7a5750610c7a61147a565b80610c88575060005460ff16155b610cc35760405162461bcd60e51b815260040180806020018281038252602e815260200180611878602e913960400191505060405180910390fd5b600054610100900460ff16158015610cee576000805460ff1961ff0019909116610100171660011790555b610cf661148b565b610d01600033610889565b606880546001600160a01b038088166001600160a01b031992831617909255606580548784169083161790556066805486841690831617905560678054928516929091169190911790558015610d5d576000805461ff00191690555b5050505050565b60008060606000806000606560009054906101000a90046001600160a01b03166001600160a01b0316639507d39a886040518263ffffffff1660e01b8152600401808281526020019150506101406040518083038186803b158015610dc857600080fd5b505afa158015610ddc573d6000803e3d6000fd5b505050506040513d610140811015610df357600080fd5b50805160208083015160409384015160665485516319b1756360e31b8152600481018e9052955194985091965094506000936001600160a01b039091169263cd8bab1892602480840193919291829003018186803b158015610e5457600080fd5b505afa158015610e68573d6000803e3d6000fd5b505050506040513d6020811015610e7e57600080fd5b505160675460408051633715665760e01b8152600481018c905290519293506001600160a01b0390911691633715665791602480820192600092909190829003018186803b158015610ecf57600080fd5b505afa158015610ee3573d6000803e3d6000fd5b505050506040513d6000823e601f3d908101601f191682016040526020811015610f0c57600080fd5b8101908080516040519392919084600160201b821115610f2b57600080fd5b908301906020820185811115610f4057600080fd5b8251600160201b811182820188101715610f5957600080fd5b82525081516020918201929091019080838360005b83811015610f86578181015183820152602001610f6e565b50505050905090810190601f168015610fb35780820380516001836020036101000a031916815260200191505b50604081815260655463098ad60560e21b8352600483018f90529051959a506001600160a01b03169463262b5814945060248083019450602093509091829003018186803b15801561100457600080fd5b505afa158015611018573d6000803e3d6000fd5b505050506040513d602081101561102e57600080fd5b50516065546040805163783efb2560e01b8152600481018c90526002602482015290519298506000926001600160a01b039092169163783efb2591604480820192602092909190829003018186803b15801561108957600080fd5b505afa15801561109d573d6000803e3d6000fd5b505050506040513d60208110156110b357600080fd5b50516065546040805163783efb2560e01b8152600481018d90526067602482015290519293506000926001600160a01b039092169163783efb2591604480820192602092909190829003018186803b15801561110e57600080fd5b505afa158015611122573d6000803e3d6000fd5b505050506040513d602081101561113857600080fd5b50516065546040805163783efb2560e01b8152600481018e90526003602482015290519293506000926001600160a01b039092169163783efb2591604480820192602092909190829003018186803b15801561119357600080fd5b505afa1580156111a7573d6000803e3d6000fd5b505050506040513d60208110156111bd57600080fd5b505190506111dc84888861ff00600886901b16891760ff16878761153d565b9950505050505050509193909250565b3390565b600082815260336020526040902061120e908263ffffffff61159616565b156108935761121b6111ec565b6001600160a01b0316816001600160a01b0316837f2f8788117e7eff1d82e926ec794901d17c78024a50270940304540a733656f0d60405160405180910390a45050565b604080516923a0a6a2afa0a226a4a760b11b8152905190819003600a01902061128890336109e8565b8061129957506112996000336109e8565b6112cf576040805162461bcd60e51b81526020600482015260026024820152614e4160f01b604482015290519081900360640190fd5b565b60008281526033602052604090206112ef908263ffffffff6115ab16565b15610893576112fc6111ec565b6001600160a01b0316816001600160a01b0316837ff6391f5c32d9c69d2a47ea670b442974b53935d1edc7fd64eb21e047a839171b60405160405180910390a45050565b60006109df83836115c0565b60006109df836001600160a01b038416611624565b60006109e28261163c565b602881901c63ffffffff169161ffff601883901c811692601081901c60ff169282821692604883901c62ffffff169260601c1690565b6065546068546040805163fa5aa08160e01b81526001600160a01b03928316600482015261ffff808b16602483015260ff808b166044840152808a1660648401526084830189905260a483018d905262ffffff881660c484015290861660e4830152600889901c166101048201529051600093929092169163fa5aa081916101248082019260209290919082900301818787803b15801561144257600080fd5b505af1158015611456573d6000803e3d6000fd5b505050506040513d602081101561146c57600080fd5b505198975050505050505050565b600061148530611640565b15905090565b600054610100900460ff16806114a457506114a461147a565b806114b2575060005460ff16155b6114ed5760405162461bcd60e51b815260040180806020018281038252602e815260200180611878602e913960400191505060405180910390fd5b600054610100900460ff16158015611518576000805460ff1961ff0019909116610100171660011790555b611520611646565b611528611646565b801561153a576000805461ff00191690555b50565b61ffff831662ff0000601086901b161764ffff000000601887901b161768ffffffff0000000000602888901b16176bffffff000000000000000000604884901b161761ffff60601b606083901b16179695505050505050565b60006109df836001600160a01b0384166116e6565b60006109df836001600160a01b038416611730565b815460009082106116025760405162461bcd60e51b81526004018080602001828103825260228152602001806117f76022913960400191505060405180910390fd5b82600001828154811061161157fe5b9060005260206000200154905092915050565b60009081526001919091016020526040902054151590565b5490565b3b151590565b600054610100900460ff168061165f575061165f61147a565b8061166d575060005460ff16155b6116a85760405162461bcd60e51b815260040180806020018281038252602e815260200180611878602e913960400191505060405180910390fd5b600054610100900460ff16158015611528576000805460ff1961ff001990911661010017166001179055801561153a576000805461ff001916905550565b60006116f28383611624565b611728575081546001818101845560008481526020808220909301849055845484825282860190935260409020919091556109e2565b5060006109e2565b600081815260018301602052604081205480156117ec578354600019808301919081019060009087908390811061176357fe5b906000526020600020015490508087600001848154811061178057fe5b6000918252602080832090910192909255828152600189810190925260409020908401905586548790806117b057fe5b600190038181906000526020600020016000905590558660010160008781526020019081526020016000206000905560019450505050506109e2565b60009150506109e256fe456e756d657261626c655365743a20696e646578206f7574206f6620626f756e6473416363657373436f6e74726f6c3a2073656e646572206d75737420626520616e2061646d696e20746f206772616e74416363657373436f6e74726f6c3a2073656e646572206d75737420626520616e2061646d696e20746f207265766f6b65496e697469616c697a61626c653a20636f6e747261637420697320616c726561647920696e697469616c697a6564416363657373436f6e74726f6c3a2063616e206f6e6c792072656e6f756e636520726f6c657320666f722073656c66a2646970667358221220dc81d6171c607357853f71b2cb7d86f2b964a55dde805776366f266efcb9e31264736f6c63430006050033",
  "immutableReferences": {},
  "source": "pragma solidity ^0.6.0;\n\nimport \"@openzeppelin/contracts-upgradeable/proxy/Initializable.sol\";\nimport \"@openzeppelin/contracts-upgradeable/access/AccessControlUpgradeable.sol\";\nimport \"./CharacterCosmetics.sol\";\nimport \"./CharacterRenameTagConsumables.sol\";\nimport \"./characters.sol\";\nimport \"./interfaces/IBridgeProxy.sol\";\nimport \"./Promos.sol\";\nimport \"./EquipmentManager.sol\";\n\n\ncontract CharactersBridgeProxyContract is Initializable, AccessControlUpgradeable, IBridgeProxy {\n  \n    bytes32 public constant GAME_ADMIN = keccak256(\"GAME_ADMIN\");\n\n    Characters characters;\n    CharacterCosmetics characterCosmetics;\n    CharacterRenameTagConsumables characterRenameTagConsumables;\n    address nftStorageAddress;\n    bool enabled;\n    bool giveawayGen2Enabled;\n\n    uint8 public constant UINT_NFT_VAR_META = 0;\n    uint8 public constant UINT_NFT_VAR_SEED3DCOSMETIC = 1;\n\n    Promos promos;\n    EquipmentManager equipmentManager;\n\n\n    modifier restricted() {\n        _restricted();\n        _;\n    }\n\n    function _restricted() internal view {\n        require(hasRole(GAME_ADMIN, msg.sender) || hasRole(DEFAULT_ADMIN_ROLE, msg.sender), \"NA\");\n    }\n\n    function initialize(address _nftStorageAddress, address _characters, address _characterCosmetics, address _characterRenameTagConsumables) public initializer {\n        __AccessControl_init();\n\n        _setupRole(DEFAULT_ADMIN_ROLE, msg.sender);\n\n        nftStorageAddress = _nftStorageAddress;\n        characters = Characters(_characters);\n        characterCosmetics = CharacterCosmetics(_characterCosmetics);\n        characterRenameTagConsumables = CharacterRenameTagConsumables(_characterRenameTagConsumables);\n    }\n\n    function migrate_c906001(Promos _newPromos) external {\n        require(hasRole(DEFAULT_ADMIN_ROLE, msg.sender));\n        promos = _newPromos;\n    }\n\n    function migrate_68c6936(EquipmentManager _equipmentManager) external {\n        require(hasRole(DEFAULT_ADMIN_ROLE, msg.sender));\n        equipmentManager = _equipmentManager;\n    }\n\n \n    function collectData(uint256 tokenId) external view override returns (uint256[] memory uintVars,  string memory stringVar) {\n        string memory rename = characterRenameTagConsumables.getCharacterRename(tokenId);\n        uintVars = new uint256[](2);\n        (uintVars[UINT_NFT_VAR_META], uintVars[UINT_NFT_VAR_SEED3DCOSMETIC], stringVar) = _packedCharacterData(tokenId);\n\n        stringVar = rename;\n    }\n\n    // for future use, bot will probe the returned value to know if the proxy contract has proper signature behavior\n    function sigVersion() external view override returns (uint256) {\n        return 3;\n    }\n\n    function isEnabled() external view override returns (bool) {\n        return enabled;\n    }\n\n    function setEnabled(bool _enabled) external restricted {\n        enabled = _enabled;\n    }\n\n    function mintOrUpdate(address receiver, uint256 tokenId, uint256[] calldata uintVars,  string calldata stringVar) external restricted override returns (uint256) {\n        require(enabled, \"not enabled\");\n\n        (uint32 appliedCosmetic, uint16 xp, uint8 level, uint16 traitAndVersion, uint24 bonusPower, uint16 reputation) = _unpackCharactersData(uintVars[UINT_NFT_VAR_META]); \n\n        tokenId =  _mintOrUpdate(tokenId, xp, level, traitAndVersion, uintVars[UINT_NFT_VAR_SEED3DCOSMETIC], bonusPower, reputation);\n        \n        if(appliedCosmetic > 0) {\n            characterCosmetics.setCharacterCosmetic(tokenId, uint32(appliedCosmetic));\n        }\n\n        if(bytes(stringVar).length > 0) {\n            characterRenameTagConsumables.setName(tokenId, stringVar);\n        }\n\n        return tokenId;\n    }\n\n    function _mintOrUpdate(uint256 tokenId, uint16 xp, uint8 level, uint16 traitAndVersion, uint256 seed, uint24 bonusPower, uint16 reputation) internal returns (uint256) {\n        tokenId = \n            characters.customMint(nftStorageAddress, xp, level, uint8(traitAndVersion & 0xFF), seed, tokenId, bonusPower, reputation, uint8((traitAndVersion >> 8) & 0xFF));\n\n        return tokenId;\n    }\n\n    function _unpackCharactersData(uint256 metaData) internal pure returns (uint32 appliedCosmetic, uint16 xp, uint8 level, uint16 traitAndVersion, uint24 bonusPower, uint16 reputation) {\n        traitAndVersion = uint16((metaData) & 0xFFFF);\n        level = uint8((metaData >> 16) & 0xFF);\n        xp = uint16(metaData  >> 24 & 0xFFFF);\n        appliedCosmetic = uint32((metaData >> 40) & 0xFFFFFFFF);\n        bonusPower = uint24((metaData >> 72) & 0xFFFFFF);\n        reputation = uint16((metaData >> 96) & 0xFFFF);\n    }\n\n\n    function _packedCharacterData(uint256 characterId) internal view returns (uint256 packedData, uint256 seed3dCosmetics, string memory rename) {\n        (uint16 xp, uint8 level, uint8 trait,,,,,,,) = characters.get(characterId);\n        uint32 appliedCosmetic = characterCosmetics.getCharacterCosmetic(characterId);\n        rename = characterRenameTagConsumables.getCharacterRename(characterId);\n        seed3dCosmetics = characters.getCosmeticsSeed(characterId);\n        uint24 bonusPower = uint24(characters.getNftVar(characterId, 2)); // 2 => bonus Power\n        uint16 reputation = uint16(characters.getNftVar(characterId, 103)); // 103 => reputation\n        uint8 version = uint8(characters.getNftVar(characterId, 3)); // 3 => version\n        packedData = _packCharactersData(appliedCosmetic, xp, level, uint16(trait | (version << 8)), bonusPower, reputation);\n    }\n\n    function _packCharactersData(uint32 appliedCosmetic, uint16 xp, uint8 level, uint16 traitAndVersion, uint24 bonusPower, uint16 reputation) internal pure returns (uint256) {\n        return  uint256(uint256(traitAndVersion) | (uint256(level) << 16) | (uint256(xp) << 24) | (uint256(appliedCosmetic) << 40) | (uint256(bonusPower) << 72) | (uint256(reputation) << 96));\n    }\n\n    function canBridge(address wallet, uint256 tokenId, uint256 targetChain) external view override returns (bool) {\n        return characters.getNftVar(tokenId, 3) == 0 // Only gen 1 is allowed\n        && equipmentManager.getNftVar(address(characters), tokenId, 1) == 0; // Nothing equipped\n    }\n}\n",
  "sourcePath": "/mnt/e/work/cryptoblades/contracts/CharactersBridgeProxyContract.sol",
  "compiler": {
    "name": "solc",
    "version": "0.6.5+commit.f956cc89.Emscripten.clang"
  },
  "schemaVersion": "3.3.4",
  "updatedAt": "2023-01-24T17:45:31.174Z",
  "devdoc": {
    "methods": {
      "getRoleAdmin(bytes32)": {
        "details": "Returns the admin role that controls `role`. See {grantRole} and {revokeRole}.     * To change a role's admin, use {_setRoleAdmin}."
      },
      "getRoleMember(bytes32,uint256)": {
        "details": "Returns one of the accounts that have `role`. `index` must be a value between 0 and {getRoleMemberCount}, non-inclusive.     * Role bearers are not sorted in any particular way, and their ordering may change at any point.     * WARNING: When using {getRoleMember} and {getRoleMemberCount}, make sure you perform all queries on the same block. See the following https://forum.openzeppelin.com/t/iterating-over-elements-on-enumerableset-in-openzeppelin-contracts/2296[forum post] for more information."
      },
      "getRoleMemberCount(bytes32)": {
        "details": "Returns the number of accounts that have `role`. Can be used together with {getRoleMember} to enumerate all bearers of a role."
      },
      "grantRole(bytes32,address)": {
        "details": "Grants `role` to `account`.     * If `account` had not been already granted `role`, emits a {RoleGranted} event.     * Requirements:     * - the caller must have ``role``'s admin role."
      },
      "hasRole(bytes32,address)": {
        "details": "Returns `true` if `account` has been granted `role`."
      },
      "renounceRole(bytes32,address)": {
        "details": "Revokes `role` from the calling account.     * Roles are often managed via {grantRole} and {revokeRole}: this function's purpose is to provide a mechanism for accounts to lose their privileges if they are compromised (such as when a trusted device is misplaced).     * If the calling account had been granted `role`, emits a {RoleRevoked} event.     * Requirements:     * - the caller must be `account`."
      },
      "revokeRole(bytes32,address)": {
        "details": "Revokes `role` from `account`.     * If `account` had been granted `role`, emits a {RoleRevoked} event.     * Requirements:     * - the caller must have ``role``'s admin role."
      }
    }
  },
  "userdoc": {
    "methods": {}
  }
}