{
  "contractName": "Consumables",
  "abi": [
    {
      "anonymous": false,
      "inputs": [
        {
          "indexed": true,
          "internalType": "address",
          "name": "owner",
          "type": "address"
        },
        {
          "indexed": false,
          "internalType": "uint32",
          "name": "amount",
          "type": "uint32"
        }
      ],
      "name": "ConsumableGiven",
      "type": "event"
    },
    {
      "anonymous": false,
      "inputs": [
        {
          "indexed": true,
          "internalType": "bytes32",
          "name": "role",
          "type": "bytes32"
        },
        {
          "indexed": true,
          "internalType": "bytes32",
          "name": "previousAdminRole",
          "type": "bytes32"
        },
        {
          "indexed": true,
          "internalType": "bytes32",
          "name": "newAdminRole",
          "type": "bytes32"
        }
      ],
      "name": "RoleAdminChanged",
      "type": "event"
    },
    {
      "anonymous": false,
      "inputs": [
        {
          "indexed": true,
          "internalType": "bytes32",
          "name": "role",
          "type": "bytes32"
        },
        {
          "indexed": true,
          "internalType": "address",
          "name": "account",
          "type": "address"
        },
        {
          "indexed": true,
          "internalType": "address",
          "name": "sender",
          "type": "address"
        }
      ],
      "name": "RoleGranted",
      "type": "event"
    },
    {
      "anonymous": false,
      "inputs": [
        {
          "indexed": true,
          "internalType": "bytes32",
          "name": "role",
          "type": "bytes32"
        },
        {
          "indexed": true,
          "internalType": "address",
          "name": "account",
          "type": "address"
        },
        {
          "indexed": true,
          "internalType": "address",
          "name": "sender",
          "type": "address"
        }
      ],
      "name": "RoleRevoked",
      "type": "event"
    },
    {
      "inputs": [],
      "name": "DEFAULT_ADMIN_ROLE",
      "outputs": [
        {
          "internalType": "bytes32",
          "name": "",
          "type": "bytes32"
        }
      ],
      "stateMutability": "view",
      "type": "function"
    },
    {
      "inputs": [],
      "name": "GAME_ADMIN",
      "outputs": [
        {
          "internalType": "bytes32",
          "name": "",
          "type": "bytes32"
        }
      ],
      "stateMutability": "view",
      "type": "function"
    },
    {
      "inputs": [
        {
          "internalType": "bytes32",
          "name": "role",
          "type": "bytes32"
        }
      ],
      "name": "getRoleAdmin",
      "outputs": [
        {
          "internalType": "bytes32",
          "name": "",
          "type": "bytes32"
        }
      ],
      "stateMutability": "view",
      "type": "function"
    },
    {
      "inputs": [
        {
          "internalType": "bytes32",
          "name": "role",
          "type": "bytes32"
        },
        {
          "internalType": "uint256",
          "name": "index",
          "type": "uint256"
        }
      ],
      "name": "getRoleMember",
      "outputs": [
        {
          "internalType": "address",
          "name": "",
          "type": "address"
        }
      ],
      "stateMutability": "view",
      "type": "function"
    },
    {
      "inputs": [
        {
          "internalType": "bytes32",
          "name": "role",
          "type": "bytes32"
        }
      ],
      "name": "getRoleMemberCount",
      "outputs": [
        {
          "internalType": "uint256",
          "name": "",
          "type": "uint256"
        }
      ],
      "stateMutability": "view",
      "type": "function"
    },
    {
      "inputs": [
        {
          "internalType": "bytes32",
          "name": "role",
          "type": "bytes32"
        },
        {
          "internalType": "address",
          "name": "account",
          "type": "address"
        }
      ],
      "name": "grantRole",
      "outputs": [],
      "stateMutability": "nonpayable",
      "type": "function"
    },
    {
      "inputs": [
        {
          "internalType": "bytes32",
          "name": "role",
          "type": "bytes32"
        },
        {
          "internalType": "address",
          "name": "account",
          "type": "address"
        }
      ],
      "name": "hasRole",
      "outputs": [
        {
          "internalType": "bool",
          "name": "",
          "type": "bool"
        }
      ],
      "stateMutability": "view",
      "type": "function"
    },
    {
      "inputs": [
        {
          "internalType": "address",
          "name": "",
          "type": "address"
        }
      ],
      "name": "owned",
      "outputs": [
        {
          "internalType": "uint32",
          "name": "",
          "type": "uint32"
        }
      ],
      "stateMutability": "view",
      "type": "function"
    },
    {
      "inputs": [
        {
          "internalType": "bytes32",
          "name": "role",
          "type": "bytes32"
        },
        {
          "internalType": "address",
          "name": "account",
          "type": "address"
        }
      ],
      "name": "renounceRole",
      "outputs": [],
      "stateMutability": "nonpayable",
      "type": "function"
    },
    {
      "inputs": [
        {
          "internalType": "bytes32",
          "name": "role",
          "type": "bytes32"
        },
        {
          "internalType": "address",
          "name": "account",
          "type": "address"
        }
      ],
      "name": "revokeRole",
      "outputs": [],
      "stateMutability": "nonpayable",
      "type": "function"
    },
    {
      "inputs": [],
      "name": "initialize",
      "outputs": [],
      "stateMutability": "nonpayable",
      "type": "function"
    },
    {
      "inputs": [
        {
          "internalType": "address",
          "name": "buyer",
          "type": "address"
        },
        {
          "internalType": "uint32",
          "name": "amount",
          "type": "uint32"
        }
      ],
      "name": "giveItem",
      "outputs": [],
      "stateMutability": "nonpayable",
      "type": "function"
    },
    {
      "inputs": [],
      "name": "getItemCount",
      "outputs": [
        {
          "internalType": "uint32",
          "name": "",
          "type": "uint32"
        }
      ],
      "stateMutability": "view",
      "type": "function"
    },
    {
      "inputs": [
        {
          "internalType": "bool",
          "name": "canUse",
          "type": "bool"
        }
      ],
      "name": "toggleItemCanUse",
      "outputs": [],
      "stateMutability": "nonpayable",
      "type": "function"
    },
    {
      "inputs": [
        {
          "internalType": "address",
          "name": "receiver",
          "type": "address"
        },
        {
          "internalType": "uint32",
          "name": "amount",
          "type": "uint32"
        }
      ],
      "name": "giveItemByAdmin",
      "outputs": [],
      "stateMutability": "nonpayable",
      "type": "function"
    },
    {
      "inputs": [
        {
          "internalType": "address",
          "name": "target",
          "type": "address"
        },
        {
          "internalType": "uint32",
          "name": "amount",
          "type": "uint32"
        }
      ],
      "name": "takeItemByAdmin",
      "outputs": [],
      "stateMutability": "nonpayable",
      "type": "function"
    },
    {
      "inputs": [],
      "name": "itemEnabled",
      "outputs": [
        {
          "internalType": "bool",
          "name": "",
          "type": "bool"
        }
      ],
      "stateMutability": "view",
      "type": "function"
    }
  ],
  "bytecode": "0x608060405234801561001057600080fd5b50610d71806100206000396000f3fe608060405234801561001057600080fd5b506004361061010b5760003560e01c80639010d07c116100a2578063c59284ee11610071578063c59284ee146102db578063ca15c8731461030d578063d547741f1461032a578063ec36f84914610356578063f9e54cb4146103755761010b565b80639010d07c1461022e57806391d148541461026d578063a217fddf146102ad578063b1ab9317146102b55761010b565b80634d375128116100de5780634d375128146101cb5780635504d3d2146101fd5780637749cf23146102055780638129fc1c146102265761010b565b8063248a9ca3146101105780632f2ff15d1461013f5780632ff6a0441461016d57806336568abe1461019f575b600080fd5b61012d6004803603602081101561012657600080fd5b503561037d565b60408051918252519081900360200190f35b61016b6004803603604081101561015557600080fd5b50803590602001356001600160a01b0316610392565b005b61016b6004803603604081101561018357600080fd5b5080356001600160a01b0316906020013563ffffffff166103fe565b61016b600480360360408110156101b557600080fd5b50803590602001356001600160a01b031661047e565b61016b600480360360408110156101e157600080fd5b5080356001600160a01b0316906020013563ffffffff166104df565b61012d610554565b61020d610576565b6040805163ffffffff9092168252519081900360200190f35b61016b61058f565b6102516004803603604081101561024457600080fd5b5080359060200135610651565b604080516001600160a01b039092168252519081900360200190f35b6102996004803603604081101561028357600080fd5b50803590602001356001600160a01b0316610678565b604080519115158252519081900360200190f35b61012d610696565b61020d600480360360208110156102cb57600080fd5b50356001600160a01b031661069b565b61016b600480360360408110156102f157600080fd5b5080356001600160a01b0316906020013563ffffffff166106b3565b61012d6004803603602081101561032357600080fd5b503561079c565b61016b6004803603604081101561034057600080fd5b50803590602001356001600160a01b03166107b3565b61016b6004803603602081101561036c57600080fd5b5035151561080c565b610299610867565b60009081526033602052604090206002015490565b6000828152603360205260409020600201546103b5906103b0610870565b610678565b6103f05760405162461bcd60e51b815260040180806020018281038252602f815260200180610c80602f913960400191505060405180910390fd5b6103fa8282610874565b5050565b610409600033610678565b610446576040805162461bcd60e51b81526020600482015260096024820152682737ba1030b236b4b760b91b604482015290519081900360640190fd5b6001600160a01b03919091166000908152606560205260409020805463ffffffff19811663ffffffff91821690930116919091179055565b610486610870565b6001600160a01b0316816001600160a01b0316146104d55760405162461bcd60e51b815260040180806020018281038252602f815260200180610d0d602f913960400191505060405180910390fd5b6103fa82826108e3565b6104e7610952565b6001600160a01b038216600081815260656020908152604091829020805463ffffffff19811663ffffffff91821687018216179091558251908516815291517f90a3437fc374e1839a62ff1148f9bdb4f02dc5e02e8393ff6cbc68b1fcec49a19281900390910190a25050565b604080516923a0a6a2afa0a226a4a760b11b8152905190819003600a01902081565b3360009081526065602052604090205463ffffffff1690565b600054610100900460ff16806105a857506105a86109bf565b806105b6575060005460ff16155b6105f15760405162461bcd60e51b815260040180806020018281038252602e815260200180610cdf602e913960400191505060405180910390fd5b600054610100900460ff1615801561061c576000805460ff1961ff0019909116610100171660011790555b6106246109d0565b61062f6000336103f0565b6066805460ff19166001179055801561064e576000805461ff00191690555b50565b600082815260336020526040812061066f908363ffffffff610a7116565b90505b92915050565b600082815260336020526040812061066f908363ffffffff610a7d16565b600081565b60656020526000908152604090205463ffffffff1681565b6106be600033610678565b6106fb576040805162461bcd60e51b81526020600482015260096024820152682737ba1030b236b4b760b91b604482015290519081900360640190fd5b6001600160a01b03821660009081526065602052604090205463ffffffff80831691161015610763576040805162461bcd60e51b815260206004820152600f60248201526e4e6f7420656e6f756768206974656d60881b604482015290519081900360640190fd5b6001600160a01b03919091166000908152606560205260409020805463ffffffff19811663ffffffff9182169390930316919091179055565b600081815260336020526040812061067290610a92565b6000828152603360205260409020600201546107d1906103b0610870565b6104d55760405162461bcd60e51b8152600401808060200182810382526030815260200180610caf6030913960400191505060405180910390fd5b610817600033610678565b610854576040805162461bcd60e51b81526020600482015260096024820152682737ba1030b236b4b760b91b604482015290519081900360640190fd5b6066805460ff1916911515919091179055565b60665460ff1690565b3390565b6000828152603360205260409020610892908263ffffffff610a9d16565b156103fa5761089f610870565b6001600160a01b0316816001600160a01b0316837f2f8788117e7eff1d82e926ec794901d17c78024a50270940304540a733656f0d60405160405180910390a45050565b6000828152603360205260409020610901908263ffffffff610ab216565b156103fa5761090e610870565b6001600160a01b0316816001600160a01b0316837ff6391f5c32d9c69d2a47ea670b442974b53935d1edc7fd64eb21e047a839171b60405160405180910390a45050565b604080516923a0a6a2afa0a226a4a760b11b8152905190819003600a01902061097b9033610678565b6109bd576040805162461bcd60e51b815260206004820152600e60248201526d2737ba1033b0b6b29030b236b4b760911b604482015290519081900360640190fd5b565b60006109ca30610ac7565b15905090565b600054610100900460ff16806109e957506109e96109bf565b806109f7575060005460ff16155b610a325760405162461bcd60e51b815260040180806020018281038252602e815260200180610cdf602e913960400191505060405180910390fd5b600054610100900460ff16158015610a5d576000805460ff1961ff0019909116610100171660011790555b801561064e576000805461ff001916905550565b600061066f8383610acd565b600061066f836001600160a01b038416610b31565b600061067282610b49565b600061066f836001600160a01b038416610b4d565b600061066f836001600160a01b038416610b97565b3b151590565b81546000908210610b0f5760405162461bcd60e51b8152600401808060200182810382526022815260200180610c5e6022913960400191505060405180910390fd5b826000018281548110610b1e57fe5b9060005260206000200154905092915050565b60009081526001919091016020526040902054151590565b5490565b6000610b598383610b31565b610b8f57508154600181810184556000848152602080822090930184905584548482528286019093526040902091909155610672565b506000610672565b60008181526001830160205260408120548015610c535783546000198083019190810190600090879083908110610bca57fe5b9060005260206000200154905080876000018481548110610be757fe5b600091825260208083209091019290925582815260018981019092526040902090840190558654879080610c1757fe5b60019003818190600052602060002001600090559055866001016000878152602001908152602001600020600090556001945050505050610672565b600091505061067256fe456e756d657261626c655365743a20696e646578206f7574206f6620626f756e6473416363657373436f6e74726f6c3a2073656e646572206d75737420626520616e2061646d696e20746f206772616e74416363657373436f6e74726f6c3a2073656e646572206d75737420626520616e2061646d696e20746f207265766f6b65496e697469616c697a61626c653a20636f6e747261637420697320616c726561647920696e697469616c697a6564416363657373436f6e74726f6c3a2063616e206f6e6c792072656e6f756e636520726f6c657320666f722073656c66a26469706673582212207e40f1fcdde566ce3c12ee518b6ddb2a78a0d7b3cb33512a605d6f4d4b8120de64736f6c63430006050033",
  "immutableReferences": {},
  "source": "pragma solidity ^0.6.5;\n\nimport \"@openzeppelin/contracts-upgradeable/proxy/Initializable.sol\";\nimport \"@openzeppelin/contracts-upgradeable/access/AccessControlUpgradeable.sol\";\n\n\ncontract Consumables is Initializable, AccessControlUpgradeable {\n\n    bytes32 public constant GAME_ADMIN = keccak256(\"GAME_ADMIN\");\n\n    event ConsumableGiven(address indexed owner, uint32 amount);\n\n    mapping(address => uint32) public owned;\n    \n    bool internal _enabled;\n\n    function initialize()\n        public\n        initializer\n    {\n        __AccessControl_init_unchained();\n\n        _setupRole(DEFAULT_ADMIN_ROLE, msg.sender);\n\n        _enabled = true;\n    }\n\n    modifier isAdmin() {\n         require(hasRole(DEFAULT_ADMIN_ROLE, msg.sender), \"Not admin\");\n        _;\n    }\n\n    modifier itemNotDisabled() {\n         require(_enabled, \"Item disabled\");\n        _;\n    }\n\n    modifier restricted() {\n        _restricted();\n        _;\n    }\n\n    function _restricted() internal view {\n        require(hasRole(GAME_ADMIN, msg.sender), \"Not game admin\");\n    }\n\n    modifier haveItem(uint32 amount) {\n        require(owned[msg.sender] >= amount, \"No item\");\n        _;\n    }\n\n    function giveItem(address buyer, uint32 amount) public restricted {\n        owned[buyer] += amount;\n        emit ConsumableGiven(buyer, amount);\n    }\n\n    function consumeItem(uint32 amount) internal haveItem(amount) itemNotDisabled {\n        owned[msg.sender] -= amount;\n    }\n\n    function getItemCount() public view returns (uint32) {\n        return owned[msg.sender];\n    }\n\n    function toggleItemCanUse(bool canUse) external isAdmin {\n        _enabled = canUse;\n    }\n\n    function giveItemByAdmin(address receiver, uint32 amount) external isAdmin {\n        owned[receiver] += amount;\n    }\n\n    function takeItemByAdmin(address target, uint32 amount) external isAdmin {\n        require(owned[target] >= amount, 'Not enough item');\n        owned[target] -= amount;\n    }\n\n    function itemEnabled() public view returns (bool){\n        return _enabled;\n    }\n}",
  "sourcePath": "/mnt/e/work/cryptoblades/contracts/Consumables.sol",
  "compiler": {
    "name": "solc",
    "version": "0.6.5+commit.f956cc89.Emscripten.clang"
  },
  "schemaVersion": "3.3.4",
  "updatedAt": "2023-01-24T17:45:31.189Z",
  "devdoc": {
    "methods": {
      "getRoleAdmin(bytes32)": {
        "details": "Returns the admin role that controls `role`. See {grantRole} and {revokeRole}.     * To change a role's admin, use {_setRoleAdmin}."
      },
      "getRoleMember(bytes32,uint256)": {
        "details": "Returns one of the accounts that have `role`. `index` must be a value between 0 and {getRoleMemberCount}, non-inclusive.     * Role bearers are not sorted in any particular way, and their ordering may change at any point.     * WARNING: When using {getRoleMember} and {getRoleMemberCount}, make sure you perform all queries on the same block. See the following https://forum.openzeppelin.com/t/iterating-over-elements-on-enumerableset-in-openzeppelin-contracts/2296[forum post] for more information."
      },
      "getRoleMemberCount(bytes32)": {
        "details": "Returns the number of accounts that have `role`. Can be used together with {getRoleMember} to enumerate all bearers of a role."
      },
      "grantRole(bytes32,address)": {
        "details": "Grants `role` to `account`.     * If `account` had not been already granted `role`, emits a {RoleGranted} event.     * Requirements:     * - the caller must have ``role``'s admin role."
      },
      "hasRole(bytes32,address)": {
        "details": "Returns `true` if `account` has been granted `role`."
      },
      "renounceRole(bytes32,address)": {
        "details": "Revokes `role` from the calling account.     * Roles are often managed via {grantRole} and {revokeRole}: this function's purpose is to provide a mechanism for accounts to lose their privileges if they are compromised (such as when a trusted device is misplaced).     * If the calling account had been granted `role`, emits a {RoleRevoked} event.     * Requirements:     * - the caller must be `account`."
      },
      "revokeRole(bytes32,address)": {
        "details": "Revokes `role` from `account`.     * If `account` had been granted `role`, emits a {RoleRevoked} event.     * Requirements:     * - the caller must have ``role``'s admin role."
      }
    }
  },
  "userdoc": {
    "methods": {}
  }
}