{
  "contractName": "Cosmetics",
  "abi": [
    {
      "anonymous": false,
      "inputs": [
        {
          "indexed": true,
          "internalType": "address",
          "name": "owner",
          "type": "address"
        },
        {
          "indexed": false,
          "internalType": "uint32",
          "name": "cosmetic",
          "type": "uint32"
        },
        {
          "indexed": false,
          "internalType": "uint32",
          "name": "amount",
          "type": "uint32"
        }
      ],
      "name": "CosmeticGiven",
      "type": "event"
    },
    {
      "anonymous": false,
      "inputs": [
        {
          "indexed": true,
          "internalType": "address",
          "name": "owner",
          "type": "address"
        },
        {
          "indexed": false,
          "internalType": "uint32",
          "name": "cosmetic",
          "type": "uint32"
        },
        {
          "indexed": false,
          "internalType": "uint32",
          "name": "amount",
          "type": "uint32"
        }
      ],
      "name": "CosmeticGivenByAdmin",
      "type": "event"
    },
    {
      "anonymous": false,
      "inputs": [
        {
          "indexed": true,
          "internalType": "address",
          "name": "owner",
          "type": "address"
        },
        {
          "indexed": false,
          "internalType": "uint32",
          "name": "cosmetic",
          "type": "uint32"
        },
        {
          "indexed": false,
          "internalType": "uint32",
          "name": "amount",
          "type": "uint32"
        }
      ],
      "name": "CosmeticRestored",
      "type": "event"
    },
    {
      "anonymous": false,
      "inputs": [
        {
          "indexed": true,
          "internalType": "address",
          "name": "owner",
          "type": "address"
        },
        {
          "indexed": false,
          "internalType": "uint32",
          "name": "cosmetic",
          "type": "uint32"
        },
        {
          "indexed": false,
          "internalType": "uint32",
          "name": "amount",
          "type": "uint32"
        }
      ],
      "name": "CosmeticTakenByAdmin",
      "type": "event"
    },
    {
      "anonymous": false,
      "inputs": [
        {
          "indexed": true,
          "internalType": "address",
          "name": "owner",
          "type": "address"
        },
        {
          "indexed": false,
          "internalType": "uint32",
          "name": "cosmetic",
          "type": "uint32"
        },
        {
          "indexed": false,
          "internalType": "uint32",
          "name": "amount",
          "type": "uint32"
        }
      ],
      "name": "CosmeticUsed",
      "type": "event"
    },
    {
      "anonymous": false,
      "inputs": [
        {
          "indexed": true,
          "internalType": "bytes32",
          "name": "role",
          "type": "bytes32"
        },
        {
          "indexed": true,
          "internalType": "bytes32",
          "name": "previousAdminRole",
          "type": "bytes32"
        },
        {
          "indexed": true,
          "internalType": "bytes32",
          "name": "newAdminRole",
          "type": "bytes32"
        }
      ],
      "name": "RoleAdminChanged",
      "type": "event"
    },
    {
      "anonymous": false,
      "inputs": [
        {
          "indexed": true,
          "internalType": "bytes32",
          "name": "role",
          "type": "bytes32"
        },
        {
          "indexed": true,
          "internalType": "address",
          "name": "account",
          "type": "address"
        },
        {
          "indexed": true,
          "internalType": "address",
          "name": "sender",
          "type": "address"
        }
      ],
      "name": "RoleGranted",
      "type": "event"
    },
    {
      "anonymous": false,
      "inputs": [
        {
          "indexed": true,
          "internalType": "bytes32",
          "name": "role",
          "type": "bytes32"
        },
        {
          "indexed": true,
          "internalType": "address",
          "name": "account",
          "type": "address"
        },
        {
          "indexed": true,
          "internalType": "address",
          "name": "sender",
          "type": "address"
        }
      ],
      "name": "RoleRevoked",
      "type": "event"
    },
    {
      "inputs": [],
      "name": "DEFAULT_ADMIN_ROLE",
      "outputs": [
        {
          "internalType": "bytes32",
          "name": "",
          "type": "bytes32"
        }
      ],
      "stateMutability": "view",
      "type": "function"
    },
    {
      "inputs": [],
      "name": "GAME_ADMIN",
      "outputs": [
        {
          "internalType": "bytes32",
          "name": "",
          "type": "bytes32"
        }
      ],
      "stateMutability": "view",
      "type": "function"
    },
    {
      "inputs": [
        {
          "internalType": "bytes32",
          "name": "role",
          "type": "bytes32"
        }
      ],
      "name": "getRoleAdmin",
      "outputs": [
        {
          "internalType": "bytes32",
          "name": "",
          "type": "bytes32"
        }
      ],
      "stateMutability": "view",
      "type": "function"
    },
    {
      "inputs": [
        {
          "internalType": "bytes32",
          "name": "role",
          "type": "bytes32"
        },
        {
          "internalType": "uint256",
          "name": "index",
          "type": "uint256"
        }
      ],
      "name": "getRoleMember",
      "outputs": [
        {
          "internalType": "address",
          "name": "",
          "type": "address"
        }
      ],
      "stateMutability": "view",
      "type": "function"
    },
    {
      "inputs": [
        {
          "internalType": "bytes32",
          "name": "role",
          "type": "bytes32"
        }
      ],
      "name": "getRoleMemberCount",
      "outputs": [
        {
          "internalType": "uint256",
          "name": "",
          "type": "uint256"
        }
      ],
      "stateMutability": "view",
      "type": "function"
    },
    {
      "inputs": [
        {
          "internalType": "bytes32",
          "name": "role",
          "type": "bytes32"
        },
        {
          "internalType": "address",
          "name": "account",
          "type": "address"
        }
      ],
      "name": "grantRole",
      "outputs": [],
      "stateMutability": "nonpayable",
      "type": "function"
    },
    {
      "inputs": [
        {
          "internalType": "bytes32",
          "name": "role",
          "type": "bytes32"
        },
        {
          "internalType": "address",
          "name": "account",
          "type": "address"
        }
      ],
      "name": "hasRole",
      "outputs": [
        {
          "internalType": "bool",
          "name": "",
          "type": "bool"
        }
      ],
      "stateMutability": "view",
      "type": "function"
    },
    {
      "inputs": [
        {
          "internalType": "address",
          "name": "",
          "type": "address"
        },
        {
          "internalType": "uint32",
          "name": "",
          "type": "uint32"
        }
      ],
      "name": "owned",
      "outputs": [
        {
          "internalType": "uint32",
          "name": "",
          "type": "uint32"
        }
      ],
      "stateMutability": "view",
      "type": "function"
    },
    {
      "inputs": [
        {
          "internalType": "bytes32",
          "name": "role",
          "type": "bytes32"
        },
        {
          "internalType": "address",
          "name": "account",
          "type": "address"
        }
      ],
      "name": "renounceRole",
      "outputs": [],
      "stateMutability": "nonpayable",
      "type": "function"
    },
    {
      "inputs": [
        {
          "internalType": "bytes32",
          "name": "role",
          "type": "bytes32"
        },
        {
          "internalType": "address",
          "name": "account",
          "type": "address"
        }
      ],
      "name": "revokeRole",
      "outputs": [],
      "stateMutability": "nonpayable",
      "type": "function"
    },
    {
      "inputs": [],
      "name": "initialize",
      "outputs": [],
      "stateMutability": "nonpayable",
      "type": "function"
    },
    {
      "inputs": [
        {
          "internalType": "address",
          "name": "buyer",
          "type": "address"
        },
        {
          "internalType": "uint32",
          "name": "cosmetic",
          "type": "uint32"
        },
        {
          "internalType": "uint32",
          "name": "amount",
          "type": "uint32"
        }
      ],
      "name": "giveCosmetic",
      "outputs": [],
      "stateMutability": "nonpayable",
      "type": "function"
    },
    {
      "inputs": [
        {
          "internalType": "uint32",
          "name": "cosmetic",
          "type": "uint32"
        }
      ],
      "name": "getCosmeticCount",
      "outputs": [
        {
          "internalType": "uint32",
          "name": "",
          "type": "uint32"
        }
      ],
      "stateMutability": "view",
      "type": "function"
    },
    {
      "inputs": [
        {
          "internalType": "uint32",
          "name": "cosmetic",
          "type": "uint32"
        }
      ],
      "name": "isCosmeticAvailable",
      "outputs": [
        {
          "internalType": "bool",
          "name": "",
          "type": "bool"
        }
      ],
      "stateMutability": "view",
      "type": "function"
    },
    {
      "inputs": [
        {
          "internalType": "uint32",
          "name": "cosmetic",
          "type": "uint32"
        },
        {
          "internalType": "bool",
          "name": "available",
          "type": "bool"
        }
      ],
      "name": "toggleCosmeticAvailable",
      "outputs": [],
      "stateMutability": "nonpayable",
      "type": "function"
    },
    {
      "inputs": [
        {
          "internalType": "address",
          "name": "receiver",
          "type": "address"
        },
        {
          "internalType": "uint32",
          "name": "cosmetic",
          "type": "uint32"
        },
        {
          "internalType": "uint32",
          "name": "amount",
          "type": "uint32"
        }
      ],
      "name": "giveCosmeticByAdmin",
      "outputs": [],
      "stateMutability": "nonpayable",
      "type": "function"
    },
    {
      "inputs": [
        {
          "internalType": "address",
          "name": "target",
          "type": "address"
        },
        {
          "internalType": "uint32",
          "name": "cosmetic",
          "type": "uint32"
        },
        {
          "internalType": "uint32",
          "name": "amount",
          "type": "uint32"
        }
      ],
      "name": "takeCosmeticByAdmin",
      "outputs": [],
      "stateMutability": "nonpayable",
      "type": "function"
    }
  ],
  "bytecode": "0x608060405234801561001057600080fd5b50610f1c806100206000396000f3fe608060405234801561001057600080fd5b506004361061010b5760003560e01c806391d14854116100a2578063ad590ea411610071578063ad590ea4146102f2578063bd7b9d261461032e578063ca15c87314610360578063d547741f1461037d578063ef1099dc146103a95761010b565b806391d14854146102595780639c8e440f14610285578063a217fddf146102b0578063a52fac67146102b85761010b565b806336568abe116100de57806336568abe146101de5780635504d3d21461020a5780638129fc1c146102125780639010d07c1461021a5761010b565b8063133e4974146101105780631ee1f5c91461014c578063248a9ca3146101835780632f2ff15d146101b2575b600080fd5b61014a6004803603606081101561012657600080fd5b506001600160a01b038135169063ffffffff602082013581169160400135166103e3565b005b61016f6004803603602081101561016257600080fd5b503563ffffffff1661046c565b604080519115158252519081900360200190f35b6101a06004803603602081101561019957600080fd5b5035610487565b60408051918252519081900360200190f35b61014a600480360360408110156101c857600080fd5b50803590602001356001600160a01b031661049c565b61014a600480360360408110156101f457600080fd5b50803590602001356001600160a01b0316610508565b6101a0610569565b61014a61058b565b61023d6004803603604081101561023057600080fd5b5080359060200135610640565b604080516001600160a01b039092168252519081900360200190f35b61016f6004803603604081101561026f57600080fd5b50803590602001356001600160a01b0316610667565b61014a6004803603604081101561029b57600080fd5b5063ffffffff81351690602001351515610685565b6101a06106f5565b61014a600480360360608110156102ce57600080fd5b506001600160a01b038135169063ffffffff602082013581169160400135166106fa565b6103156004803603602081101561030857600080fd5b503563ffffffff1661083d565b6040805163ffffffff9092168252519081900360200190f35b6103156004803603604081101561034457600080fd5b5080356001600160a01b0316906020013563ffffffff16610863565b6101a06004803603602081101561037657600080fd5b5035610886565b61014a6004803603604081101561039357600080fd5b50803590602001356001600160a01b031661089d565b61014a600480360360608110156103bf57600080fd5b506001600160a01b038135169063ffffffff602082013581169160400135166108f6565b6103eb610a1c565b6001600160a01b038316600081815260656020908152604080832063ffffffff87811680865291845293829020805463ffffffff1981169086168801861617905581519081529285169183019190915280517f300a60b37421121b3a49ed548490bd1e41e617e9eb676a26bcd786d6d8a794e19281900390910190a2505050565b63ffffffff1660009081526066602052604090205460ff1690565b60009081526033602052604090206002015490565b6000828152603360205260409020600201546104bf906104ba610a89565b610667565b6104fa5760405162461bcd60e51b815260040180806020018281038252602f815260200180610e2b602f913960400191505060405180910390fd5b6105048282610a8d565b5050565b610510610a89565b6001600160a01b0316816001600160a01b03161461055f5760405162461bcd60e51b815260040180806020018281038252602f815260200180610eb8602f913960400191505060405180910390fd5b6105048282610afc565b604080516923a0a6a2afa0a226a4a760b11b8152905190819003600a01902081565b600054610100900460ff16806105a457506105a4610b6b565b806105b2575060005460ff16155b6105ed5760405162461bcd60e51b815260040180806020018281038252602e815260200180610e8a602e913960400191505060405180910390fd5b600054610100900460ff16158015610618576000805460ff1961ff0019909116610100171660011790555b610620610b7c565b61062b6000336104fa565b801561063d576000805461ff00191690555b50565b600082815260336020526040812061065e908363ffffffff610c1c16565b90505b92915050565b600082815260336020526040812061065e908363ffffffff610c2816565b610690600033610667565b6106cd576040805162461bcd60e51b81526020600482015260096024820152682737ba1030b236b4b760b91b604482015290519081900360640190fd5b63ffffffff919091166000908152606660205260409020805460ff1916911515919091179055565b600081565b610705600033610667565b610742576040805162461bcd60e51b81526020600482015260096024820152682737ba1030b236b4b760b91b604482015290519081900360640190fd5b6001600160a01b038316600090815260656020908152604080832063ffffffff8681168552925290912054818316911610156107bb576040805162461bcd60e51b81526020600482015260136024820152724e6f7420656e6f75676820636f736d6574696360681b604482015290519081900360640190fd5b6001600160a01b038316600081815260656020908152604080832063ffffffff87811680865291845293829020805463ffffffff198116908616889003861617905581519081529285169183019190915280517ffcf3e674add1628d6cfe91578cdfd2b25614c275d2a504fff80bcdbf5311a1639281900390910190a2505050565b33600090815260656020908152604080832063ffffffff94851684529091529020541690565b606560209081526000928352604080842090915290825290205463ffffffff1681565b600081815260336020526040812061066190610c3d565b6000828152603360205260409020600201546108bb906104ba610a89565b61055f5760405162461bcd60e51b8152600401808060200182810382526030815260200180610e5a6030913960400191505060405180910390fd5b610901600033610667565b61093e576040805162461bcd60e51b81526020600482015260096024820152682737ba1030b236b4b760b91b604482015290519081900360640190fd5b63ffffffff8216600090815260666020526040902054829060ff1661099a576040805162461bcd60e51b815260206004820152600d60248201526c4e6f7420617661696c61626c6560981b604482015290519081900360640190fd5b6001600160a01b038416600081815260656020908152604080832063ffffffff88811680865291845293829020805463ffffffff1981169086168901861617905581519081529286169183019190915280517f62af5ce10f22564720d801f6b9187b7eb61b5642cf0cc55050414de2960aba599281900390910190a250505050565b604080516923a0a6a2afa0a226a4a760b11b8152905190819003600a019020610a459033610667565b610a87576040805162461bcd60e51b815260206004820152600e60248201526d2737ba1033b0b6b29030b236b4b760911b604482015290519081900360640190fd5b565b3390565b6000828152603360205260409020610aab908263ffffffff610c4816565b1561050457610ab8610a89565b6001600160a01b0316816001600160a01b0316837f2f8788117e7eff1d82e926ec794901d17c78024a50270940304540a733656f0d60405160405180910390a45050565b6000828152603360205260409020610b1a908263ffffffff610c5d16565b1561050457610b27610a89565b6001600160a01b0316816001600160a01b0316837ff6391f5c32d9c69d2a47ea670b442974b53935d1edc7fd64eb21e047a839171b60405160405180910390a45050565b6000610b7630610c72565b15905090565b600054610100900460ff1680610b955750610b95610b6b565b80610ba3575060005460ff16155b610bde5760405162461bcd60e51b815260040180806020018281038252602e815260200180610e8a602e913960400191505060405180910390fd5b600054610100900460ff1615801561062b576000805460ff1961ff001990911661010017166001179055801561063d576000805461ff001916905550565b600061065e8383610c78565b600061065e836001600160a01b038416610cdc565b600061066182610cf4565b600061065e836001600160a01b038416610cf8565b600061065e836001600160a01b038416610d42565b3b151590565b81546000908210610cba5760405162461bcd60e51b8152600401808060200182810382526022815260200180610e096022913960400191505060405180910390fd5b826000018281548110610cc957fe5b9060005260206000200154905092915050565b60009081526001919091016020526040902054151590565b5490565b6000610d048383610cdc565b610d3a57508154600181810184556000848152602080822090930184905584548482528286019093526040902091909155610661565b506000610661565b60008181526001830160205260408120548015610dfe5783546000198083019190810190600090879083908110610d7557fe5b9060005260206000200154905080876000018481548110610d9257fe5b600091825260208083209091019290925582815260018981019092526040902090840190558654879080610dc257fe5b60019003818190600052602060002001600090559055866001016000878152602001908152602001600020600090556001945050505050610661565b600091505061066156fe456e756d657261626c655365743a20696e646578206f7574206f6620626f756e6473416363657373436f6e74726f6c3a2073656e646572206d75737420626520616e2061646d696e20746f206772616e74416363657373436f6e74726f6c3a2073656e646572206d75737420626520616e2061646d696e20746f207265766f6b65496e697469616c697a61626c653a20636f6e747261637420697320616c726561647920696e697469616c697a6564416363657373436f6e74726f6c3a2063616e206f6e6c792072656e6f756e636520726f6c657320666f722073656c66a2646970667358221220c64336fe89cc8341fa9f67902ad129ef197e971f9cd80468818a3dff0d81c53c64736f6c63430006050033",
  "immutableReferences": {},
  "source": "pragma solidity ^0.6.5;\n\nimport \"@openzeppelin/contracts-upgradeable/proxy/Initializable.sol\";\nimport \"@openzeppelin/contracts-upgradeable/access/AccessControlUpgradeable.sol\";\n\n\ncontract Cosmetics is Initializable, AccessControlUpgradeable {\n\n    bytes32 public constant GAME_ADMIN = keccak256(\"GAME_ADMIN\");\n\n    event CosmeticGiven(address indexed owner, uint32 cosmetic, uint32 amount);\n    event CosmeticUsed(address indexed owner, uint32 cosmetic, uint32 amount);\n    event CosmeticRestored(address indexed owner, uint32 cosmetic, uint32 amount);\n    \n    event CosmeticGivenByAdmin(address indexed owner, uint32 cosmetic, uint32 amount);\n    event CosmeticTakenByAdmin(address indexed owner, uint32 cosmetic, uint32 amount);\n\n    mapping(address => mapping(uint32 => uint32)) public owned;\n\n    mapping(uint32 => bool) internal _cosmeticAvailable;\n\n    uint32 internal constant _noCosmetic = 0;\n\n    function initialize()\n        public\n        initializer\n    {\n        __AccessControl_init_unchained();\n\n        _setupRole(DEFAULT_ADMIN_ROLE, msg.sender);\n    }\n\n    modifier isAdmin() {\n         require(hasRole(DEFAULT_ADMIN_ROLE, msg.sender), \"Not admin\");\n        _;\n    }\n\n    modifier cosmeticAvailable(uint32 cosmetic) {\n         require(_cosmeticAvailable[cosmetic], \"Not available\");\n        _;\n    }\n\n    modifier restricted() {\n        _restricted();\n        _;\n    }\n\n    function _restricted() internal view {\n        require(hasRole(GAME_ADMIN, msg.sender), \"Not game admin\");\n    }\n\n    modifier haveCosmetic(uint32 cosmetic, uint32 amount) {\n        require(owned[msg.sender][cosmetic] >= amount, \"No cosmetic\");\n        _;\n    }\n\n    function giveCosmetic(address buyer, uint32 cosmetic, uint32 amount) public restricted {\n        owned[buyer][cosmetic] += amount;\n        emit CosmeticGiven(buyer, cosmetic, amount);\n    }\n\n    function useCosmetic(uint32 cosmetic, uint32 amount) internal haveCosmetic(cosmetic, amount) cosmeticAvailable(cosmetic) {\n        owned[msg.sender][cosmetic] -= amount;\n        emit CosmeticUsed(msg.sender, cosmetic, amount);\n    }\n\n    function _restoreCosmetic(uint32 cosmetic, uint32 amount) internal {\n        owned[msg.sender][cosmetic] += amount;\n        emit CosmeticRestored(msg.sender, cosmetic, amount);\n    }\n\n    function getCosmeticCount(uint32 cosmetic) public view returns(uint32) {\n        return owned[msg.sender][cosmetic];\n    }\n\n    function isCosmeticAvailable(uint32 cosmetic) public view returns (bool){\n        return _cosmeticAvailable[cosmetic];\n    }\n\n    function toggleCosmeticAvailable(uint32 cosmetic, bool available) external isAdmin {\n        _cosmeticAvailable[cosmetic] = available;\n    }\n\n    function giveCosmeticByAdmin(address receiver, uint32 cosmetic, uint32 amount) external isAdmin cosmeticAvailable(cosmetic) {\n        owned[receiver][cosmetic] += amount;\n        emit CosmeticGivenByAdmin(receiver, cosmetic, amount);\n    }\n\n    function takeCosmeticByAdmin(address target, uint32 cosmetic, uint32 amount) external isAdmin {\n        require(owned[target][cosmetic] >= amount, 'Not enough cosmetic');\n        owned[target][cosmetic] -= amount;\n        emit CosmeticTakenByAdmin(target, cosmetic, amount);\n    }\n}",
  "sourcePath": "/mnt/e/work/cryptoblades/contracts/Cosmetics.sol",
  "compiler": {
    "name": "solc",
    "version": "0.6.5+commit.f956cc89.Emscripten.clang"
  },
  "schemaVersion": "3.3.4",
  "updatedAt": "2023-01-24T17:45:31.199Z",
  "devdoc": {
    "methods": {
      "getRoleAdmin(bytes32)": {
        "details": "Returns the admin role that controls `role`. See {grantRole} and {revokeRole}.     * To change a role's admin, use {_setRoleAdmin}."
      },
      "getRoleMember(bytes32,uint256)": {
        "details": "Returns one of the accounts that have `role`. `index` must be a value between 0 and {getRoleMemberCount}, non-inclusive.     * Role bearers are not sorted in any particular way, and their ordering may change at any point.     * WARNING: When using {getRoleMember} and {getRoleMemberCount}, make sure you perform all queries on the same block. See the following https://forum.openzeppelin.com/t/iterating-over-elements-on-enumerableset-in-openzeppelin-contracts/2296[forum post] for more information."
      },
      "getRoleMemberCount(bytes32)": {
        "details": "Returns the number of accounts that have `role`. Can be used together with {getRoleMember} to enumerate all bearers of a role."
      },
      "grantRole(bytes32,address)": {
        "details": "Grants `role` to `account`.     * If `account` had not been already granted `role`, emits a {RoleGranted} event.     * Requirements:     * - the caller must have ``role``'s admin role."
      },
      "hasRole(bytes32,address)": {
        "details": "Returns `true` if `account` has been granted `role`."
      },
      "renounceRole(bytes32,address)": {
        "details": "Revokes `role` from the calling account.     * Roles are often managed via {grantRole} and {revokeRole}: this function's purpose is to provide a mechanism for accounts to lose their privileges if they are compromised (such as when a trusted device is misplaced).     * If the calling account had been granted `role`, emits a {RoleRevoked} event.     * Requirements:     * - the caller must be `account`."
      },
      "revokeRole(bytes32,address)": {
        "details": "Revokes `role` from `account`.     * If `account` had been granted `role`, emits a {RoleRevoked} event.     * Requirements:     * - the caller must have ``role``'s admin role."
      }
    }
  },
  "userdoc": {
    "methods": {}
  }
}