{
  "contractName": "Dex",
  "abi": [
    {
      "anonymous": false,
      "inputs": [
        {
          "indexed": true,
          "internalType": "address",
          "name": "token1",
          "type": "address"
        },
        {
          "indexed": false,
          "internalType": "uint256",
          "name": "token1Amount",
          "type": "uint256"
        },
        {
          "indexed": true,
          "internalType": "address",
          "name": "token2",
          "type": "address"
        },
        {
          "indexed": false,
          "internalType": "uint256",
          "name": "token2Amount",
          "type": "uint256"
        }
      ],
      "name": "LiquidityAdded",
      "type": "event"
    },
    {
      "anonymous": false,
      "inputs": [
        {
          "indexed": true,
          "internalType": "bytes32",
          "name": "role",
          "type": "bytes32"
        },
        {
          "indexed": true,
          "internalType": "bytes32",
          "name": "previousAdminRole",
          "type": "bytes32"
        },
        {
          "indexed": true,
          "internalType": "bytes32",
          "name": "newAdminRole",
          "type": "bytes32"
        }
      ],
      "name": "RoleAdminChanged",
      "type": "event"
    },
    {
      "anonymous": false,
      "inputs": [
        {
          "indexed": true,
          "internalType": "bytes32",
          "name": "role",
          "type": "bytes32"
        },
        {
          "indexed": true,
          "internalType": "address",
          "name": "account",
          "type": "address"
        },
        {
          "indexed": true,
          "internalType": "address",
          "name": "sender",
          "type": "address"
        }
      ],
      "name": "RoleGranted",
      "type": "event"
    },
    {
      "anonymous": false,
      "inputs": [
        {
          "indexed": true,
          "internalType": "bytes32",
          "name": "role",
          "type": "bytes32"
        },
        {
          "indexed": true,
          "internalType": "address",
          "name": "account",
          "type": "address"
        },
        {
          "indexed": true,
          "internalType": "address",
          "name": "sender",
          "type": "address"
        }
      ],
      "name": "RoleRevoked",
      "type": "event"
    },
    {
      "anonymous": false,
      "inputs": [
        {
          "indexed": false,
          "internalType": "uint256",
          "name": "id",
          "type": "uint256"
        },
        {
          "indexed": true,
          "internalType": "address",
          "name": "token1",
          "type": "address"
        },
        {
          "indexed": true,
          "internalType": "address",
          "name": "token2",
          "type": "address"
        }
      ],
      "name": "TokenPairAdded",
      "type": "event"
    },
    {
      "anonymous": false,
      "inputs": [
        {
          "indexed": true,
          "internalType": "address",
          "name": "token1",
          "type": "address"
        },
        {
          "indexed": false,
          "internalType": "uint256",
          "name": "token1Amount",
          "type": "uint256"
        },
        {
          "indexed": true,
          "internalType": "address",
          "name": "token2",
          "type": "address"
        },
        {
          "indexed": false,
          "internalType": "uint256",
          "name": "token2Amount",
          "type": "uint256"
        }
      ],
      "name": "TokenPairSwapped",
      "type": "event"
    },
    {
      "inputs": [],
      "name": "DEFAULT_ADMIN_ROLE",
      "outputs": [
        {
          "internalType": "bytes32",
          "name": "",
          "type": "bytes32"
        }
      ],
      "stateMutability": "view",
      "type": "function"
    },
    {
      "inputs": [],
      "name": "FEE_DENOMINATOR",
      "outputs": [
        {
          "internalType": "uint256",
          "name": "",
          "type": "uint256"
        }
      ],
      "stateMutability": "view",
      "type": "function"
    },
    {
      "inputs": [],
      "name": "GAME_ADMIN",
      "outputs": [
        {
          "internalType": "bytes32",
          "name": "",
          "type": "bytes32"
        }
      ],
      "stateMutability": "view",
      "type": "function"
    },
    {
      "inputs": [],
      "name": "VAR_CONTRACT_ENABLED",
      "outputs": [
        {
          "internalType": "uint8",
          "name": "",
          "type": "uint8"
        }
      ],
      "stateMutability": "view",
      "type": "function"
    },
    {
      "inputs": [],
      "name": "VAR_FEE",
      "outputs": [
        {
          "internalType": "uint8",
          "name": "",
          "type": "uint8"
        }
      ],
      "stateMutability": "view",
      "type": "function"
    },
    {
      "inputs": [
        {
          "internalType": "address",
          "name": "",
          "type": "address"
        }
      ],
      "name": "collectedFees",
      "outputs": [
        {
          "internalType": "uint256",
          "name": "",
          "type": "uint256"
        }
      ],
      "stateMutability": "view",
      "type": "function"
    },
    {
      "inputs": [
        {
          "internalType": "bytes32",
          "name": "role",
          "type": "bytes32"
        }
      ],
      "name": "getRoleAdmin",
      "outputs": [
        {
          "internalType": "bytes32",
          "name": "",
          "type": "bytes32"
        }
      ],
      "stateMutability": "view",
      "type": "function"
    },
    {
      "inputs": [
        {
          "internalType": "bytes32",
          "name": "role",
          "type": "bytes32"
        },
        {
          "internalType": "uint256",
          "name": "index",
          "type": "uint256"
        }
      ],
      "name": "getRoleMember",
      "outputs": [
        {
          "internalType": "address",
          "name": "",
          "type": "address"
        }
      ],
      "stateMutability": "view",
      "type": "function"
    },
    {
      "inputs": [
        {
          "internalType": "bytes32",
          "name": "role",
          "type": "bytes32"
        }
      ],
      "name": "getRoleMemberCount",
      "outputs": [
        {
          "internalType": "uint256",
          "name": "",
          "type": "uint256"
        }
      ],
      "stateMutability": "view",
      "type": "function"
    },
    {
      "inputs": [
        {
          "internalType": "bytes32",
          "name": "role",
          "type": "bytes32"
        },
        {
          "internalType": "address",
          "name": "account",
          "type": "address"
        }
      ],
      "name": "grantRole",
      "outputs": [],
      "stateMutability": "nonpayable",
      "type": "function"
    },
    {
      "inputs": [
        {
          "internalType": "bytes32",
          "name": "role",
          "type": "bytes32"
        },
        {
          "internalType": "address",
          "name": "account",
          "type": "address"
        }
      ],
      "name": "hasRole",
      "outputs": [
        {
          "internalType": "bool",
          "name": "",
          "type": "bool"
        }
      ],
      "stateMutability": "view",
      "type": "function"
    },
    {
      "inputs": [
        {
          "internalType": "bytes32",
          "name": "role",
          "type": "bytes32"
        },
        {
          "internalType": "address",
          "name": "account",
          "type": "address"
        }
      ],
      "name": "renounceRole",
      "outputs": [],
      "stateMutability": "nonpayable",
      "type": "function"
    },
    {
      "inputs": [
        {
          "internalType": "bytes32",
          "name": "role",
          "type": "bytes32"
        },
        {
          "internalType": "address",
          "name": "account",
          "type": "address"
        }
      ],
      "name": "revokeRole",
      "outputs": [],
      "stateMutability": "nonpayable",
      "type": "function"
    },
    {
      "inputs": [
        {
          "internalType": "uint256",
          "name": "",
          "type": "uint256"
        }
      ],
      "name": "tokenPairs",
      "outputs": [
        {
          "internalType": "address",
          "name": "token1",
          "type": "address"
        },
        {
          "internalType": "uint256",
          "name": "token1Amount",
          "type": "uint256"
        },
        {
          "internalType": "address",
          "name": "token2",
          "type": "address"
        },
        {
          "internalType": "uint256",
          "name": "token2Amount",
          "type": "uint256"
        }
      ],
      "stateMutability": "view",
      "type": "function"
    },
    {
      "inputs": [
        {
          "internalType": "uint256",
          "name": "",
          "type": "uint256"
        }
      ],
      "name": "vars",
      "outputs": [
        {
          "internalType": "uint256",
          "name": "",
          "type": "uint256"
        }
      ],
      "stateMutability": "view",
      "type": "function"
    },
    {
      "inputs": [],
      "name": "initialize",
      "outputs": [],
      "stateMutability": "nonpayable",
      "type": "function"
    },
    {
      "inputs": [
        {
          "internalType": "address",
          "name": "tokenA",
          "type": "address"
        },
        {
          "internalType": "address",
          "name": "tokenB",
          "type": "address"
        },
        {
          "internalType": "uint256",
          "name": "amountA",
          "type": "uint256"
        }
      ],
      "name": "swap",
      "outputs": [],
      "stateMutability": "nonpayable",
      "type": "function"
    },
    {
      "inputs": [
        {
          "internalType": "address",
          "name": "tokenA",
          "type": "address"
        },
        {
          "internalType": "address",
          "name": "tokenB",
          "type": "address"
        }
      ],
      "name": "getTokenPairId",
      "outputs": [
        {
          "internalType": "uint256",
          "name": "id",
          "type": "uint256"
        }
      ],
      "stateMutability": "pure",
      "type": "function"
    },
    {
      "inputs": [
        {
          "internalType": "address",
          "name": "tokenA",
          "type": "address"
        },
        {
          "internalType": "address",
          "name": "tokenB",
          "type": "address"
        },
        {
          "internalType": "uint256",
          "name": "amountA",
          "type": "uint256"
        }
      ],
      "name": "getAmountOut",
      "outputs": [
        {
          "internalType": "uint256",
          "name": "amountTo",
          "type": "uint256"
        }
      ],
      "stateMutability": "view",
      "type": "function"
    },
    {
      "inputs": [
        {
          "internalType": "uint256[]",
          "name": "varFields",
          "type": "uint256[]"
        }
      ],
      "name": "getVars",
      "outputs": [
        {
          "internalType": "uint256[]",
          "name": "",
          "type": "uint256[]"
        }
      ],
      "stateMutability": "view",
      "type": "function"
    },
    {
      "inputs": [
        {
          "internalType": "uint256",
          "name": "varField",
          "type": "uint256"
        },
        {
          "internalType": "uint256",
          "name": "value",
          "type": "uint256"
        }
      ],
      "name": "setVar",
      "outputs": [],
      "stateMutability": "nonpayable",
      "type": "function"
    },
    {
      "inputs": [
        {
          "internalType": "address",
          "name": "tokenA",
          "type": "address"
        },
        {
          "internalType": "uint256",
          "name": "amountA",
          "type": "uint256"
        },
        {
          "internalType": "address",
          "name": "tokenB",
          "type": "address"
        },
        {
          "internalType": "uint256",
          "name": "amountB",
          "type": "uint256"
        }
      ],
      "name": "addPair",
      "outputs": [],
      "stateMutability": "nonpayable",
      "type": "function"
    },
    {
      "inputs": [
        {
          "internalType": "address",
          "name": "tokenA",
          "type": "address"
        },
        {
          "internalType": "uint256",
          "name": "amountA",
          "type": "uint256"
        },
        {
          "internalType": "address",
          "name": "tokenB",
          "type": "address"
        },
        {
          "internalType": "uint256",
          "name": "amountB",
          "type": "uint256"
        }
      ],
      "name": "addLiquidity",
      "outputs": [],
      "stateMutability": "nonpayable",
      "type": "function"
    },
    {
      "inputs": [
        {
          "internalType": "address",
          "name": "token",
          "type": "address"
        }
      ],
      "name": "collectFees",
      "outputs": [],
      "stateMutability": "nonpayable",
      "type": "function"
    }
  ],
  "bytecode": "0x608060405234801561001057600080fd5b50611d41806100206000396000f3fe608060405234801561001057600080fd5b50600436106101585760003560e01c806391d14854116100c3578063d547741f1161007c578063d547741f146104d7578063d73792a914610503578063de2d5e821461050b578063df791e5014610545578063e71a136a1461057b578063e9ec56841461059857610158565b806391d14854146103dc578063a15369d11461041c578063a217fddf1461046e578063a480ca7914610476578063c2a741031461049c578063ca15c873146104ba57610158565b80634aa06652116101155780634aa06652146103065780635504d3d21461033c57806357d454d4146103445780636c992a55146103725780638129fc1c146103955780639010d07c1461039d57610158565b80631cead9a71461015d578063248a9ca3146101955780632f2ff15d146101b257806336568abe146101e0578063376d3d5d1461020c5780633c6fce1114610246575b600080fd5b6101836004803603602081101561017357600080fd5b50356001600160a01b03166105a0565b60408051918252519081900360200190f35b610183600480360360208110156101ab57600080fd5b50356105b2565b6101de600480360360408110156101c857600080fd5b50803590602001356001600160a01b03166105c7565b005b6101de600480360360408110156101f657600080fd5b50803590602001356001600160a01b0316610633565b6101de6004803603608081101561022257600080fd5b506001600160a01b0381358116916020810135916040820135169060600135610694565b6102b66004803603602081101561025c57600080fd5b81019060208101813564010000000081111561027757600080fd5b82018360208201111561028957600080fd5b803590602001918460208302840111640100000000831117156102ab57600080fd5b5090925090506108bf565b60408051602080825283518183015283519192839290830191858101910280838360005b838110156102f25781810151838201526020016102da565b505050509050019250505060405180910390f35b6101836004803603606081101561031c57600080fd5b506001600160a01b03813581169160208101359091169060400135610960565b610183610a7c565b6101836004803603604081101561035a57600080fd5b506001600160a01b0381358116916020013516610a9e565b6101de6004803603604081101561038857600080fd5b5080359060200135610b13565b6101de610b2d565b6103c0600480360360408110156103b357600080fd5b5080359060200135610c0b565b604080516001600160a01b039092168252519081900360200190f35b610408600480360360408110156103f257600080fd5b50803590602001356001600160a01b0316610c30565b604080519115158252519081900360200190f35b6104396004803603602081101561043257600080fd5b5035610c4e565b604080516001600160a01b03958616815260208101949094529190931682820152606082019290925290519081900360800190f35b610183610c83565b6101de6004803603602081101561048c57600080fd5b50356001600160a01b0316610c88565b6104a4610dd1565b6040805160ff9092168252519081900360200190f35b610183600480360360208110156104d057600080fd5b5035610dd6565b6101de600480360360408110156104ed57600080fd5b50803590602001356001600160a01b0316610ded565b610183610e46565b6101de6004803603608081101561052157600080fd5b506001600160a01b0381358116916020810135916040820135169060600135610e4c565b6101de6004803603606081101561055b57600080fd5b506001600160a01b03813581169160208101359091169060400135610ff0565b6101836004803603602081101561059157600080fd5b50356113b0565b6104a4610c83565b60666020526000908152604090205481565b60009081526033602052604090206002015490565b6000828152603360205260409020600201546105ea906105e56113c2565b610c30565b6106255760405162461bcd60e51b815260040180806020018281038252602f815260200180611c2f602f913960400191505060405180910390fd5b61062f82826113c6565b5050565b61063b6113c2565b6001600160a01b0316816001600160a01b03161461068a5760405162461bcd60e51b815260040180806020018281038252602f815260200180611cdd602f913960400191505060405180910390fd5b61062f8282611435565b61069c6114a4565b600080600080856001600160a01b0316886001600160a01b0316106106c457858589896106c9565b878787875b935093509350935060006106dd8584610a9e565b90506106e7611bd2565b50600081815260656020908152604091829020825160808101845281546001600160a01b039081168083526001840154948301949094526002830154811694820194909452600390910154606082015291871614801561075c5750836001600160a01b031681604001516001600160a01b0316145b61079c576040805162461bcd60e51b815260206004820152600c60248201526b24b73b30b634b2103830b4b960a11b604482015290519081900360640190fd5b6000851180156107ac5750600083115b6107ee576040805162461bcd60e51b815260206004820152600e60248201526d125b9d985b1a5908185b5bdd5b9d60921b604482015290519081900360640190fd5b6107fa86333088611516565b945061080884333086611516565b602082810180518801815260608401805184018152600086815260658452604090819020865181546001600160a01b03199081166001600160a01b0392831617835594516001830155828801516002830180549096169082161790945591516003909201919091558051898152928301849052805193965087821693918a16927fc18aa71171b358b706fe3dd345299685ba21a5316c66ffa9e319268b033c44b0929081900390910190a350505050505050505050565b6060808267ffffffffffffffff811180156108d957600080fd5b50604051908082528060200260200182016040528015610903578160200160208202803683370190505b50905060005b83811015610956576067600086868481811061092157fe5b9050602002013581526020019081526020016000205482828151811061094357fe5b6020908102919091010152600101610909565b5090505b92915050565b60008061096d8585610a9e565b9050610977611bd2565b50600081815260656020908152604091829020825160808101845281546001600160a01b039081168252600183015493820193909352600282015490921692820192909252600390910154606082015283610a0a576040805162461bcd60e51b815260206004820152600e60248201526d125b9d985b1a5908185b5bdd5b9d60921b604482015290519081900360640190fd5b80516001600160a01b0387811691161415610a5157610a4a8160200151610a3e86846060015161170a90919063ffffffff16565b9063ffffffff61176316565b9250610a73565b610a708160600151610a3e86846020015161170a90919063ffffffff16565b92505b50509392505050565b604080516923a0a6a2afa0a226a4a760b11b8152905190819003600a01902081565b6000806000836001600160a01b0316856001600160a01b031610610ac3578385610ac6565b84845b604080516bffffffffffffffffffffffff19606094851b81166020808401919091529390941b90931660348401528051602881850301815260489093019052815191012095945050505050565b610b1b6114a4565b60009182526067602052604090912055565b600054610100900460ff1680610b465750610b466117ca565b80610b54575060005460ff16155b610b8f5760405162461bcd60e51b815260040180806020018281038252602e815260200180611c8e602e913960400191505060405180910390fd5b600054610100900460ff16158015610bba576000805460ff1961ff0019909116610100171660011790555b610bc26117db565b610bcd600032610625565b604080516923a0a6a2afa0a226a4a760b11b8152905190819003600a019020610bf69032610625565b8015610c08576000805461ff00191690555b50565b6000828152603360205260408120610c29908363ffffffff61187b16565b9392505050565b6000828152603360205260408120610c29908363ffffffff61188716565b60656020526000908152604090208054600182015460028301546003909301546001600160a01b039283169391929091169084565b600081565b610c906114a4565b600060666000836001600160a01b03166001600160a01b03168152602001908152602001600020549050816001600160a01b031663a9059cbb33610d3b84866001600160a01b031663313ce5676040518163ffffffff1660e01b815260040160206040518083038186803b158015610d0757600080fd5b505afa158015610d1b573d6000803e3d6000fd5b505050506040513d6020811015610d3157600080fd5b505160ff1661189c565b6040518363ffffffff1660e01b815260040180836001600160a01b03166001600160a01b0316815260200182815260200192505050602060405180830381600087803b158015610d8a57600080fd5b505af1158015610d9e573d6000803e3d6000fd5b505050506040513d6020811015610db457600080fd5b5050506001600160a01b0316600090815260666020526040812055565b600181565b600081815260336020526040812061095a906118dc565b600082815260336020526040902060020154610e0b906105e56113c2565b61068a5760405162461bcd60e51b8152600401808060200182810382526030815260200180611c5e6030913960400191505060405180910390fd5b61271081565b610e546114a4565b600080600080856001600160a01b0316886001600160a01b031610610e7c5785858989610e81565b878787875b93509350935093506000610e958584610a9e565b6000818152606560205260409020549091506001600160a01b0316158015610ed557506000818152606560205260409020600201546001600160a01b0316155b610f1c576040805162461bcd60e51b81526020600482015260136024820152725061697220616c72656164792065786973747360681b604482015290519081900360640190fd5b610f2885333087611516565b9350610f3683333085611516565b604080516080810182526001600160a01b0380891680835260208084018a81528984168587018181526060870189815260008b815260658652899020975188549088166001600160a01b0319918216178955935160018901559051600288018054919097169316929092179094555160039094019390935583518681529351949650909390927f410708e5e5968a72576471687bfc3f0e3a2571454b9532e5fe5080434d2f820292908290030190a3505050505050505050565b610ff86118e7565b60006110048484610a9e565b905061100e611bd2565b50600081815260656020908152604091829020825160808101845281546001600160a01b03908116808352600184015494830194909452600283015481169482019490945260039091015460608201529186161480156110835750836001600160a01b031681604001516001600160a01b0316145b806110c35750846001600160a01b031681604001516001600160a01b03161480156110c35750836001600160a01b031681600001516001600160a01b0316145b611103576040805162461bcd60e51b815260206004820152600c60248201526b24b73b30b634b2103830b4b960a11b604482015290519081900360640190fd5b61110f85333086611516565b9250600061111e868686610960565b905060008111611166576040805162461bcd60e51b815260206004820152600e60248201526d125b9d985b1a5908185b5bdd5b9d60921b604482015290519081900360640190fd5b81516001600160a01b0387811691161415611195576020820180518501905260608201805182900390526111ab565b6020820180518290039052606082018051850190525b6000838152606560209081526040808320855181546001600160a01b03199081166001600160a01b03928316178355878501516001840155928701516002830180549094169116179091556060850151600390910155818052606790527fd4e1ac8b62c3ff1e2c1b7113742533b8310ce5ab8a8767ead9ba8b250c7e3cc95461123d9061271090610a3e90859061170a565b6001600160a01b038716600090815260666020526040902054909150611269908263ffffffff61195b16565b60666000886001600160a01b03166001600160a01b0316815260200190815260200160002081905550856001600160a01b031663a9059cbb336112e18486038a6001600160a01b031663313ce5676040518163ffffffff1660e01b815260040160206040518083038186803b158015610d0757600080fd5b6040518363ffffffff1660e01b815260040180836001600160a01b03166001600160a01b0316815260200182815260200192505050602060405180830381600087803b15801561133057600080fd5b505af1158015611344573d6000803e3d6000fd5b505050506040513d602081101561135a57600080fd5b5050604080518681526020810184905281516001600160a01b03808a1693908b16927f7b3ca7703170ecc2bcd426d43e1cb2076261fac5cb99fc2d28b1ce28ea75a794929081900390910190a350505050505050565b60676020526000908152604090205481565b3390565b60008281526033602052604090206113e4908263ffffffff6119b516565b1561062f576113f16113c2565b6001600160a01b0316816001600160a01b0316837f2f8788117e7eff1d82e926ec794901d17c78024a50270940304540a733656f0d60405160405180910390a45050565b6000828152603360205260409020611453908263ffffffff6119ca16565b1561062f576114606113c2565b6001600160a01b0316816001600160a01b0316837ff6391f5c32d9c69d2a47ea670b442974b53935d1edc7fd64eb21e047a839171b60405160405180910390a45050565b604080516923a0a6a2afa0a226a4a760b11b8152905190819003600a0190206114cd9033610c30565b806114de57506114de600033610c30565b611514576040805162461bcd60e51b81526020600482015260026024820152614e4160f01b604482015290519081900360640190fd5b565b604080516370a0823160e01b8152306004820152905160009182916001600160a01b038816916370a08231916024808301926020929190829003018186803b15801561156157600080fd5b505afa158015611575573d6000803e3d6000fd5b505050506040513d602081101561158b57600080fd5b50516040805163313ce56760e01b815290519192506001600160a01b038816916323b872dd91889188916115e3918991879163313ce56791600480820192602092909190829003018186803b158015610d0757600080fd5b6040518463ffffffff1660e01b815260040180846001600160a01b03166001600160a01b03168152602001836001600160a01b03166001600160a01b031681526020018281526020019350505050602060405180830381600087803b15801561164b57600080fd5b505af115801561165f573d6000803e3d6000fd5b505050506040513d602081101561167557600080fd5b5050604080516370a0823160e01b815230600482015290516000916001600160a01b038916916370a0823191602480820192602092909190829003018186803b1580156116c157600080fd5b505afa1580156116d5573d6000803e3d6000fd5b505050506040513d60208110156116eb57600080fd5b505190506116ff818363ffffffff6119df16565b979650505050505050565b6000826117195750600061095a565b8282028284828161172657fe5b0414610c295760405162461bcd60e51b8152600401808060200182810382526021815260200180611cbc6021913960400191505060405180910390fd5b60008082116117b9576040805162461bcd60e51b815260206004820152601a60248201527f536166654d6174683a206469766973696f6e206279207a65726f000000000000604482015290519081900360640190fd5b8183816117c257fe5b049392505050565b60006117d530611a3c565b15905090565b600054610100900460ff16806117f457506117f46117ca565b80611802575060005460ff16155b61183d5760405162461bcd60e51b815260040180806020018281038252602e815260200180611c8e602e913960400191505060405180910390fd5b600054610100900460ff16158015610bf6576000805460ff1961ff0019909116610100171660011790558015610c08576000805461ff001916905550565b6000610c298383611a42565b6000610c29836001600160a01b038416611aa6565b600060128211156118c5576118be836011198401600a0a63ffffffff61170a16565b905061095a565b610c29836012849003600a0a63ffffffff61176316565b600061095a82611abe565b6001600081905260676020527f6bee784efeb983674392298ab585b22866bedf00ebb0eea949d1e66f3f50e71d5414611514576040805162461bcd60e51b815260206004820152601160248201527010dbdb9d1c9858dd08191a5cd8589b1959607a1b604482015290519081900360640190fd5b600082820183811015610c29576040805162461bcd60e51b815260206004820152601b60248201527f536166654d6174683a206164646974696f6e206f766572666c6f770000000000604482015290519081900360640190fd5b6000610c29836001600160a01b038416611ac2565b6000610c29836001600160a01b038416611b0c565b600082821115611a36576040805162461bcd60e51b815260206004820152601e60248201527f536166654d6174683a207375627472616374696f6e206f766572666c6f770000604482015290519081900360640190fd5b50900390565b3b151590565b81546000908210611a845760405162461bcd60e51b8152600401808060200182810382526022815260200180611c0d6022913960400191505060405180910390fd5b826000018281548110611a9357fe5b9060005260206000200154905092915050565b60009081526001919091016020526040902054151590565b5490565b6000611ace8383611aa6565b611b045750815460018181018455600084815260208082209093018490558454848252828601909352604090209190915561095a565b50600061095a565b60008181526001830160205260408120548015611bc85783546000198083019190810190600090879083908110611b3f57fe5b9060005260206000200154905080876000018481548110611b5c57fe5b600091825260208083209091019290925582815260018981019092526040902090840190558654879080611b8c57fe5b6001900381819060005260206000200160009055905586600101600087815260200190815260200160002060009055600194505050505061095a565b600091505061095a565b604051806080016040528060006001600160a01b031681526020016000815260200160006001600160a01b0316815260200160008152509056fe456e756d657261626c655365743a20696e646578206f7574206f6620626f756e6473416363657373436f6e74726f6c3a2073656e646572206d75737420626520616e2061646d696e20746f206772616e74416363657373436f6e74726f6c3a2073656e646572206d75737420626520616e2061646d696e20746f207265766f6b65496e697469616c697a61626c653a20636f6e747261637420697320616c726561647920696e697469616c697a6564536166654d6174683a206d756c7469706c69636174696f6e206f766572666c6f77416363657373436f6e74726f6c3a2063616e206f6e6c792072656e6f756e636520726f6c657320666f722073656c66a26469706673582212200978fec6b04813ea6e314ae257f974b142730140bfcda79e4caaa9e4280a1d5d64736f6c63430006050033",
  "immutableReferences": {},
  "source": "// SPDX-License-Identifier: UNLICENSED\npragma solidity ^0.6.5;\n\nimport \"@openzeppelin/contracts/math/SafeMath.sol\";\nimport \"@openzeppelin/contracts-upgradeable/proxy/Initializable.sol\";\nimport \"@openzeppelin/contracts-upgradeable/access/AccessControlUpgradeable.sol\";\nimport \"@openzeppelin/contracts/token/ERC20/IERC20.sol\";\nimport \"@openzeppelin/contracts/token/ERC20/ERC20.sol\";\n\nimport \"./common.sol\";\n\ncontract Dex is Initializable, AccessControlUpgradeable {\n    using SafeMath for uint256;\n\n    bytes32 public constant GAME_ADMIN = keccak256(\"GAME_ADMIN\");\n    uint public constant FEE_DENOMINATOR = 10000;\n\n    uint8 public constant VAR_FEE = 0;\n    uint8 public constant VAR_CONTRACT_ENABLED = 1;\n\n    struct TokenPair {\n        address token1;\n        uint token1Amount;\n        address token2;\n        uint token2Amount;\n    }\n\n    mapping(uint => TokenPair) public tokenPairs;\n    mapping(address => uint) public collectedFees;\n    mapping(uint256 => uint256) public vars;\n\n    event TokenPairSwapped(address indexed token1, uint token1Amount, address indexed token2, uint token2Amount);\n    event TokenPairAdded(uint id, address indexed token1, address indexed token2);\n    event LiquidityAdded(address indexed token1, uint token1Amount, address indexed token2, uint token2Amount);\n\n    function initialize() virtual public initializer {\n        __AccessControl_init_unchained();\n        _setupRole(DEFAULT_ADMIN_ROLE, tx.origin);\n        _setupRole(GAME_ADMIN, tx.origin);\n    }\n\n    modifier restricted() {\n        _restricted();\n        _;\n    }\n\n    function _restricted() internal view {\n        require(hasRole(GAME_ADMIN, msg.sender) || hasRole(DEFAULT_ADMIN_ROLE, msg.sender), \"NA\");\n    }\n\n    modifier contractEnabled() {\n        _contractEnabled();\n        _;\n    }\n\n    function _contractEnabled() internal view {\n        require(vars[VAR_CONTRACT_ENABLED] == 1, \"Contract disabled\");\n    }\n\n    // FUNCTIONS\n\n    function swap(address tokenA, address tokenB, uint amountA) external contractEnabled {\n        uint id = getTokenPairId(tokenA, tokenB);\n        TokenPair memory pair = tokenPairs[id];\n        require((pair.token1 == tokenA && pair.token2 == tokenB) || (pair.token2 == tokenA && pair.token1 == tokenB), \"Invalid pair\");\n        amountA = transferWithAdditionalAmountCheck(tokenA, msg.sender, address(this), amountA);\n        uint amountB = getAmountOut(tokenA, tokenB, amountA);\n        require(amountB > 0, \"Invalid amount\");\n        if (tokenA == pair.token1) {\n            pair.token1Amount += amountA;\n            pair.token2Amount -= amountB;\n        } else {\n            pair.token1Amount -= amountB;\n            pair.token2Amount += amountA;\n        }\n        tokenPairs[id] = pair;\n        uint fee = amountB.mul(vars[VAR_FEE]).div(FEE_DENOMINATOR);\n        collectedFees[tokenB] = collectedFees[tokenB].add(fee);\n        IERC20(tokenB).transfer(msg.sender, Common.adjustDecimals(amountB - fee, ERC20(tokenB).decimals()));\n        emit TokenPairSwapped(tokenA, amountA, tokenB, amountB);\n    }\n\n    // VIEWS\n\n    function getTokenPairId(address tokenA, address tokenB) public pure returns (uint id) {\n        (address token1, address token2) = tokenA < tokenB ? (tokenA, tokenB) : (tokenB, tokenA);\n        id = uint(keccak256(abi.encodePacked(token1, token2)));\n    }\n\n    function getAmountOut(address tokenA, address tokenB, uint amountA) public view returns (uint amountTo) {\n        uint id = getTokenPairId(tokenA, tokenB);\n        TokenPair memory pair = tokenPairs[id];\n        require(amountA > 0, \"Invalid amount\");\n        if (tokenA == pair.token1) {\n            amountTo = pair.token2Amount.mul(amountA).div(pair.token1Amount);\n        } else {\n            amountTo = pair.token1Amount.mul(amountA).div(pair.token2Amount);\n        }\n    }\n\n    function getVars(uint256[] calldata varFields) external view returns (uint256[] memory) {\n        uint256[] memory result = new uint256[](varFields.length);\n        for (uint i = 0; i < varFields.length; i++) {\n            result[i] = vars[varFields[i]];\n        }\n        return result;\n    }\n\n    // ADMIN\n\n    function setVar(uint256 varField, uint256 value) external restricted {\n        vars[varField] = value;\n    }\n\n    function addPair(address tokenA, uint amountA, address tokenB, uint amountB) external restricted {\n        (address token1, uint amount1, address token2, uint amount2) = tokenA < tokenB ? (tokenA, amountA, tokenB, amountB) : (tokenB, amountB, tokenA, amountA);\n        uint id = getTokenPairId(token1, token2);\n        require(tokenPairs[id].token1 == address(0) && tokenPairs[id].token2 == address(0), \"Pair already exists\");\n        amount1 = transferWithAdditionalAmountCheck(token1, msg.sender, address(this), amount1);\n        amount2 = transferWithAdditionalAmountCheck(token2, msg.sender, address(this), amount2);\n        tokenPairs[id] = TokenPair(token1, amount1, token2, amount2);\n        emit TokenPairAdded(id, token1, token2);\n    }\n\n\n    function addLiquidity(address tokenA, uint amountA, address tokenB, uint amountB) external restricted {\n        (address token1, uint amount1, address token2, uint amount2) = tokenA < tokenB ? (tokenA, amountA, tokenB, amountB) : (tokenB, amountB, tokenA, amountA);\n        uint id = getTokenPairId(token1, token2);\n        TokenPair memory pair = tokenPairs[id];\n        require(pair.token1 == token1 && pair.token2 == token2, \"Invalid pair\");\n        require(amount1 > 0 && amount2 > 0, \"Invalid amount\");\n        amount1 = transferWithAdditionalAmountCheck(token1, msg.sender, address(this), amount1);\n        amount2 = transferWithAdditionalAmountCheck(token2, msg.sender, address(this), amount2);\n        pair.token1Amount += amount1;\n        pair.token2Amount += amount2;\n        tokenPairs[id] = pair;\n        emit LiquidityAdded(token1, amount1, token2, amount2);\n    }\n\n    function collectFees(address token) external restricted {\n        uint fee = collectedFees[token];\n        IERC20(token).transfer(msg.sender, Common.adjustDecimals(fee, ERC20(token).decimals()));\n        collectedFees[token] = 0;\n    }\n\n    // PRIVATE\n\n    function transferWithAdditionalAmountCheck(address token, address from, address to, uint amount) private returns (uint) {\n        uint amountBefore = IERC20(token).balanceOf(address(this));\n        IERC20(token).transferFrom(from, to, Common.adjustDecimals(amount, ERC20(token).decimals()));\n        uint amountAfter = IERC20(token).balanceOf(address(this));\n        return amountAfter.sub(amountBefore);\n    }\n\n}",
  "sourcePath": "/mnt/e/work/cryptoblades/contracts/Dex.sol",
  "compiler": {
    "name": "solc",
    "version": "0.6.5+commit.f956cc89.Emscripten.clang"
  },
  "schemaVersion": "3.3.4",
  "updatedAt": "2023-01-24T17:45:31.214Z",
  "devdoc": {
    "methods": {
      "getRoleAdmin(bytes32)": {
        "details": "Returns the admin role that controls `role`. See {grantRole} and {revokeRole}.     * To change a role's admin, use {_setRoleAdmin}."
      },
      "getRoleMember(bytes32,uint256)": {
        "details": "Returns one of the accounts that have `role`. `index` must be a value between 0 and {getRoleMemberCount}, non-inclusive.     * Role bearers are not sorted in any particular way, and their ordering may change at any point.     * WARNING: When using {getRoleMember} and {getRoleMemberCount}, make sure you perform all queries on the same block. See the following https://forum.openzeppelin.com/t/iterating-over-elements-on-enumerableset-in-openzeppelin-contracts/2296[forum post] for more information."
      },
      "getRoleMemberCount(bytes32)": {
        "details": "Returns the number of accounts that have `role`. Can be used together with {getRoleMember} to enumerate all bearers of a role."
      },
      "grantRole(bytes32,address)": {
        "details": "Grants `role` to `account`.     * If `account` had not been already granted `role`, emits a {RoleGranted} event.     * Requirements:     * - the caller must have ``role``'s admin role."
      },
      "hasRole(bytes32,address)": {
        "details": "Returns `true` if `account` has been granted `role`."
      },
      "renounceRole(bytes32,address)": {
        "details": "Revokes `role` from the calling account.     * Roles are often managed via {grantRole} and {revokeRole}: this function's purpose is to provide a mechanism for accounts to lose their privileges if they are compromised (such as when a trusted device is misplaced).     * If the calling account had been granted `role`, emits a {RoleRevoked} event.     * Requirements:     * - the caller must be `account`."
      },
      "revokeRole(bytes32,address)": {
        "details": "Revokes `role` from `account`.     * If `account` had been granted `role`, emits a {RoleRevoked} event.     * Requirements:     * - the caller must have ``role``'s admin role."
      }
    }
  },
  "userdoc": {
    "methods": {}
  }
}