{
  "contractName": "EquipmentManager",
  "abi": [
    {
      "anonymous": false,
      "inputs": [
        {
          "indexed": true,
          "internalType": "address",
          "name": "onAddr",
          "type": "address"
        },
        {
          "indexed": true,
          "internalType": "uint256",
          "name": "onID",
          "type": "uint256"
        },
        {
          "indexed": true,
          "internalType": "uint256",
          "name": "slot",
          "type": "uint256"
        },
        {
          "indexed": false,
          "internalType": "address",
          "name": "itemAddr",
          "type": "address"
        },
        {
          "indexed": false,
          "internalType": "uint256",
          "name": "itemID",
          "type": "uint256"
        }
      ],
      "name": "Equipped",
      "type": "event"
    },
    {
      "anonymous": false,
      "inputs": [
        {
          "indexed": true,
          "internalType": "address",
          "name": "onAddr",
          "type": "address"
        },
        {
          "indexed": true,
          "internalType": "uint256",
          "name": "onID",
          "type": "uint256"
        },
        {
          "indexed": true,
          "internalType": "uint256",
          "name": "calculationID",
          "type": "uint256"
        }
      ],
      "name": "Recalculated",
      "type": "event"
    },
    {
      "anonymous": false,
      "inputs": [
        {
          "indexed": true,
          "internalType": "bytes32",
          "name": "role",
          "type": "bytes32"
        },
        {
          "indexed": true,
          "internalType": "bytes32",
          "name": "previousAdminRole",
          "type": "bytes32"
        },
        {
          "indexed": true,
          "internalType": "bytes32",
          "name": "newAdminRole",
          "type": "bytes32"
        }
      ],
      "name": "RoleAdminChanged",
      "type": "event"
    },
    {
      "anonymous": false,
      "inputs": [
        {
          "indexed": true,
          "internalType": "bytes32",
          "name": "role",
          "type": "bytes32"
        },
        {
          "indexed": true,
          "internalType": "address",
          "name": "account",
          "type": "address"
        },
        {
          "indexed": true,
          "internalType": "address",
          "name": "sender",
          "type": "address"
        }
      ],
      "name": "RoleGranted",
      "type": "event"
    },
    {
      "anonymous": false,
      "inputs": [
        {
          "indexed": true,
          "internalType": "bytes32",
          "name": "role",
          "type": "bytes32"
        },
        {
          "indexed": true,
          "internalType": "address",
          "name": "account",
          "type": "address"
        },
        {
          "indexed": true,
          "internalType": "address",
          "name": "sender",
          "type": "address"
        }
      ],
      "name": "RoleRevoked",
      "type": "event"
    },
    {
      "anonymous": false,
      "inputs": [
        {
          "indexed": true,
          "internalType": "address",
          "name": "onAddr",
          "type": "address"
        },
        {
          "indexed": true,
          "internalType": "uint256",
          "name": "onID",
          "type": "uint256"
        },
        {
          "indexed": true,
          "internalType": "uint256",
          "name": "slot",
          "type": "uint256"
        }
      ],
      "name": "Unequipped",
      "type": "event"
    },
    {
      "inputs": [],
      "name": "DEFAULT_ADMIN_ROLE",
      "outputs": [
        {
          "internalType": "bytes32",
          "name": "",
          "type": "bytes32"
        }
      ],
      "stateMutability": "view",
      "type": "function"
    },
    {
      "inputs": [],
      "name": "GAME_ADMIN",
      "outputs": [
        {
          "internalType": "bytes32",
          "name": "",
          "type": "bytes32"
        }
      ],
      "stateMutability": "view",
      "type": "function"
    },
    {
      "inputs": [],
      "name": "LINK_CHARACTERS",
      "outputs": [
        {
          "internalType": "uint256",
          "name": "",
          "type": "uint256"
        }
      ],
      "stateMutability": "view",
      "type": "function"
    },
    {
      "inputs": [],
      "name": "LINK_SHIELDS",
      "outputs": [
        {
          "internalType": "uint256",
          "name": "",
          "type": "uint256"
        }
      ],
      "stateMutability": "view",
      "type": "function"
    },
    {
      "inputs": [],
      "name": "LINK_WEAPONS",
      "outputs": [
        {
          "internalType": "uint256",
          "name": "",
          "type": "uint256"
        }
      ],
      "stateMutability": "view",
      "type": "function"
    },
    {
      "inputs": [],
      "name": "NFTVAR_EQUIPPED_SLOTS",
      "outputs": [
        {
          "internalType": "uint256",
          "name": "",
          "type": "uint256"
        }
      ],
      "stateMutability": "view",
      "type": "function"
    },
    {
      "inputs": [],
      "name": "SLOT_CHARACTER_SHIELD",
      "outputs": [
        {
          "internalType": "uint256",
          "name": "",
          "type": "uint256"
        }
      ],
      "stateMutability": "view",
      "type": "function"
    },
    {
      "inputs": [],
      "name": "SLOT_CHARACTER_WEAPON",
      "outputs": [
        {
          "internalType": "uint256",
          "name": "",
          "type": "uint256"
        }
      ],
      "stateMutability": "view",
      "type": "function"
    },
    {
      "inputs": [],
      "name": "VAR_WEAPON_EQUIP_DURABILITY",
      "outputs": [
        {
          "internalType": "uint256",
          "name": "",
          "type": "uint256"
        }
      ],
      "stateMutability": "view",
      "type": "function"
    },
    {
      "inputs": [
        {
          "internalType": "address",
          "name": "",
          "type": "address"
        },
        {
          "internalType": "uint256",
          "name": "",
          "type": "uint256"
        },
        {
          "internalType": "uint256",
          "name": "",
          "type": "uint256"
        }
      ],
      "name": "equippedSlotAddress",
      "outputs": [
        {
          "internalType": "address",
          "name": "",
          "type": "address"
        }
      ],
      "stateMutability": "view",
      "type": "function"
    },
    {
      "inputs": [
        {
          "internalType": "address",
          "name": "",
          "type": "address"
        },
        {
          "internalType": "uint256",
          "name": "",
          "type": "uint256"
        },
        {
          "internalType": "uint256",
          "name": "",
          "type": "uint256"
        }
      ],
      "name": "equippedSlotID",
      "outputs": [
        {
          "internalType": "uint256",
          "name": "",
          "type": "uint256"
        }
      ],
      "stateMutability": "view",
      "type": "function"
    },
    {
      "inputs": [
        {
          "internalType": "bytes32",
          "name": "role",
          "type": "bytes32"
        }
      ],
      "name": "getRoleAdmin",
      "outputs": [
        {
          "internalType": "bytes32",
          "name": "",
          "type": "bytes32"
        }
      ],
      "stateMutability": "view",
      "type": "function"
    },
    {
      "inputs": [
        {
          "internalType": "bytes32",
          "name": "role",
          "type": "bytes32"
        },
        {
          "internalType": "uint256",
          "name": "index",
          "type": "uint256"
        }
      ],
      "name": "getRoleMember",
      "outputs": [
        {
          "internalType": "address",
          "name": "",
          "type": "address"
        }
      ],
      "stateMutability": "view",
      "type": "function"
    },
    {
      "inputs": [
        {
          "internalType": "bytes32",
          "name": "role",
          "type": "bytes32"
        }
      ],
      "name": "getRoleMemberCount",
      "outputs": [
        {
          "internalType": "uint256",
          "name": "",
          "type": "uint256"
        }
      ],
      "stateMutability": "view",
      "type": "function"
    },
    {
      "inputs": [
        {
          "internalType": "bytes32",
          "name": "role",
          "type": "bytes32"
        },
        {
          "internalType": "address",
          "name": "account",
          "type": "address"
        }
      ],
      "name": "grantRole",
      "outputs": [],
      "stateMutability": "nonpayable",
      "type": "function"
    },
    {
      "inputs": [
        {
          "internalType": "bytes32",
          "name": "role",
          "type": "bytes32"
        },
        {
          "internalType": "address",
          "name": "account",
          "type": "address"
        }
      ],
      "name": "hasRole",
      "outputs": [
        {
          "internalType": "bool",
          "name": "",
          "type": "bool"
        }
      ],
      "stateMutability": "view",
      "type": "function"
    },
    {
      "inputs": [
        {
          "internalType": "uint256",
          "name": "",
          "type": "uint256"
        }
      ],
      "name": "links",
      "outputs": [
        {
          "internalType": "address",
          "name": "",
          "type": "address"
        }
      ],
      "stateMutability": "view",
      "type": "function"
    },
    {
      "inputs": [
        {
          "internalType": "address",
          "name": "",
          "type": "address"
        },
        {
          "internalType": "uint256",
          "name": "",
          "type": "uint256"
        },
        {
          "internalType": "uint256",
          "name": "",
          "type": "uint256"
        }
      ],
      "name": "nftVars",
      "outputs": [
        {
          "internalType": "uint256",
          "name": "",
          "type": "uint256"
        }
      ],
      "stateMutability": "view",
      "type": "function"
    },
    {
      "inputs": [
        {
          "internalType": "bytes32",
          "name": "role",
          "type": "bytes32"
        },
        {
          "internalType": "address",
          "name": "account",
          "type": "address"
        }
      ],
      "name": "renounceRole",
      "outputs": [],
      "stateMutability": "nonpayable",
      "type": "function"
    },
    {
      "inputs": [
        {
          "internalType": "bytes32",
          "name": "role",
          "type": "bytes32"
        },
        {
          "internalType": "address",
          "name": "account",
          "type": "address"
        }
      ],
      "name": "revokeRole",
      "outputs": [],
      "stateMutability": "nonpayable",
      "type": "function"
    },
    {
      "inputs": [
        {
          "internalType": "address",
          "name": "",
          "type": "address"
        },
        {
          "internalType": "uint256",
          "name": "",
          "type": "uint256"
        }
      ],
      "name": "userVars",
      "outputs": [
        {
          "internalType": "uint256",
          "name": "",
          "type": "uint256"
        }
      ],
      "stateMutability": "view",
      "type": "function"
    },
    {
      "inputs": [
        {
          "internalType": "uint256",
          "name": "",
          "type": "uint256"
        }
      ],
      "name": "vars",
      "outputs": [
        {
          "internalType": "uint256",
          "name": "",
          "type": "uint256"
        }
      ],
      "stateMutability": "view",
      "type": "function"
    },
    {
      "inputs": [],
      "name": "initialize",
      "outputs": [],
      "stateMutability": "nonpayable",
      "type": "function"
    },
    {
      "inputs": [
        {
          "internalType": "address",
          "name": "onAddr",
          "type": "address"
        },
        {
          "internalType": "uint256",
          "name": "onID",
          "type": "uint256"
        },
        {
          "internalType": "uint256",
          "name": "slot",
          "type": "uint256"
        },
        {
          "internalType": "address",
          "name": "itemAddr",
          "type": "address"
        },
        {
          "internalType": "uint256",
          "name": "itemID",
          "type": "uint256"
        }
      ],
      "name": "equipNFT",
      "outputs": [],
      "stateMutability": "nonpayable",
      "type": "function"
    },
    {
      "inputs": [
        {
          "internalType": "address",
          "name": "onAddr",
          "type": "address"
        },
        {
          "internalType": "uint256",
          "name": "onID",
          "type": "uint256"
        },
        {
          "internalType": "uint256",
          "name": "slot",
          "type": "uint256"
        }
      ],
      "name": "unequipNFT",
      "outputs": [],
      "stateMutability": "nonpayable",
      "type": "function"
    },
    {
      "inputs": [
        {
          "internalType": "address",
          "name": "onAddr",
          "type": "address"
        },
        {
          "internalType": "uint256",
          "name": "onID",
          "type": "uint256"
        }
      ],
      "name": "recalculate",
      "outputs": [],
      "stateMutability": "nonpayable",
      "type": "function"
    },
    {
      "inputs": [
        {
          "internalType": "uint256",
          "name": "onID",
          "type": "uint256"
        }
      ],
      "name": "getPowerData",
      "outputs": [
        {
          "internalType": "uint256",
          "name": "",
          "type": "uint256"
        }
      ],
      "stateMutability": "view",
      "type": "function"
    },
    {
      "inputs": [
        {
          "internalType": "uint256",
          "name": "charID",
          "type": "uint256"
        }
      ],
      "name": "getStoredPowerData",
      "outputs": [
        {
          "internalType": "uint24[5]",
          "name": "pvePower",
          "type": "uint24[5]"
        },
        {
          "internalType": "uint16[4]",
          "name": "pvpTierPower",
          "type": "uint16[4]"
        },
        {
          "internalType": "uint16[4]",
          "name": "pvpFfaPower",
          "type": "uint16[4]"
        },
        {
          "internalType": "uint8",
          "name": "level",
          "type": "uint8"
        },
        {
          "internalType": "uint8",
          "name": "charTrait",
          "type": "uint8"
        },
        {
          "internalType": "uint8",
          "name": "wepTrait",
          "type": "uint8"
        },
        {
          "internalType": "uint8",
          "name": "shieldTrait",
          "type": "uint8"
        },
        {
          "internalType": "uint256",
          "name": "powerData",
          "type": "uint256"
        }
      ],
      "stateMutability": "view",
      "type": "function"
    },
    {
      "inputs": [
        {
          "internalType": "uint256",
          "name": "charID",
          "type": "uint256"
        }
      ],
      "name": "getPowerDataBytes",
      "outputs": [
        {
          "internalType": "uint8[32]",
          "name": "data",
          "type": "uint8[32]"
        }
      ],
      "stateMutability": "view",
      "type": "function"
    },
    {
      "inputs": [
        {
          "internalType": "address",
          "name": "onAddr",
          "type": "address"
        },
        {
          "internalType": "uint256",
          "name": "slot",
          "type": "uint256"
        },
        {
          "internalType": "address",
          "name": "itemAddr",
          "type": "address"
        }
      ],
      "name": "isEquippable",
      "outputs": [
        {
          "internalType": "bool",
          "name": "",
          "type": "bool"
        }
      ],
      "stateMutability": "view",
      "type": "function"
    },
    {
      "inputs": [
        {
          "internalType": "address",
          "name": "onAddr",
          "type": "address"
        },
        {
          "internalType": "uint256",
          "name": "onID",
          "type": "uint256"
        },
        {
          "internalType": "uint256",
          "name": "slot",
          "type": "uint256"
        }
      ],
      "name": "getEquippedItem",
      "outputs": [
        {
          "internalType": "address",
          "name": "",
          "type": "address"
        },
        {
          "internalType": "uint256",
          "name": "",
          "type": "uint256"
        }
      ],
      "stateMutability": "view",
      "type": "function"
    },
    {
      "inputs": [
        {
          "internalType": "address",
          "name": "onAddr",
          "type": "address"
        },
        {
          "internalType": "uint256",
          "name": "onID",
          "type": "uint256"
        },
        {
          "internalType": "uint256",
          "name": "slot",
          "type": "uint256"
        }
      ],
      "name": "hasSlotEquipped",
      "outputs": [
        {
          "internalType": "bool",
          "name": "",
          "type": "bool"
        }
      ],
      "stateMutability": "view",
      "type": "function"
    },
    {
      "inputs": [
        {
          "internalType": "address",
          "name": "onAddr",
          "type": "address"
        },
        {
          "internalType": "uint256",
          "name": "onID",
          "type": "uint256"
        }
      ],
      "name": "hasNothingEquipped",
      "outputs": [
        {
          "internalType": "bool",
          "name": "",
          "type": "bool"
        }
      ],
      "stateMutability": "view",
      "type": "function"
    },
    {
      "inputs": [
        {
          "internalType": "address",
          "name": "onAddr",
          "type": "address"
        },
        {
          "internalType": "uint256[]",
          "name": "onIDs",
          "type": "uint256[]"
        }
      ],
      "name": "haveNothingEquipped",
      "outputs": [
        {
          "internalType": "bool",
          "name": "",
          "type": "bool"
        }
      ],
      "stateMutability": "view",
      "type": "function"
    },
    {
      "inputs": [
        {
          "internalType": "uint256",
          "name": "varField",
          "type": "uint256"
        },
        {
          "internalType": "uint256",
          "name": "value",
          "type": "uint256"
        }
      ],
      "name": "setVar",
      "outputs": [],
      "stateMutability": "nonpayable",
      "type": "function"
    },
    {
      "inputs": [
        {
          "internalType": "uint256[]",
          "name": "varFields",
          "type": "uint256[]"
        },
        {
          "internalType": "uint256[]",
          "name": "values",
          "type": "uint256[]"
        }
      ],
      "name": "setVars",
      "outputs": [],
      "stateMutability": "nonpayable",
      "type": "function"
    },
    {
      "inputs": [
        {
          "internalType": "address",
          "name": "onAddr",
          "type": "address"
        },
        {
          "internalType": "uint256",
          "name": "onID",
          "type": "uint256"
        },
        {
          "internalType": "uint256",
          "name": "nftVar",
          "type": "uint256"
        }
      ],
      "name": "getNftVar",
      "outputs": [
        {
          "internalType": "uint256",
          "name": "",
          "type": "uint256"
        }
      ],
      "stateMutability": "view",
      "type": "function"
    },
    {
      "inputs": [
        {
          "internalType": "address",
          "name": "onAddr",
          "type": "address"
        },
        {
          "internalType": "uint256",
          "name": "onID",
          "type": "uint256"
        },
        {
          "internalType": "uint256",
          "name": "nftVar",
          "type": "uint256"
        },
        {
          "internalType": "uint256",
          "name": "value",
          "type": "uint256"
        }
      ],
      "name": "setNftVar",
      "outputs": [],
      "stateMutability": "nonpayable",
      "type": "function"
    },
    {
      "inputs": [
        {
          "internalType": "uint256",
          "name": "linkId",
          "type": "uint256"
        },
        {
          "internalType": "address",
          "name": "linkAddress",
          "type": "address"
        }
      ],
      "name": "setLink",
      "outputs": [],
      "stateMutability": "nonpayable",
      "type": "function"
    },
    {
      "inputs": [
        {
          "internalType": "address",
          "name": "onAddr",
          "type": "address"
        },
        {
          "internalType": "uint256",
          "name": "slot",
          "type": "uint256"
        },
        {
          "internalType": "address",
          "name": "itemAddr",
          "type": "address"
        },
        {
          "internalType": "bool",
          "name": "equippable",
          "type": "bool"
        }
      ],
      "name": "setEquippable",
      "outputs": [],
      "stateMutability": "nonpayable",
      "type": "function"
    }
  ],
  "bytecode": "0x608060405234801561001057600080fd5b506130ff806100206000396000f3fe608060405234801561001057600080fd5b50600436106102485760003560e01c8063695d4da51161013b578063a217fddf116100b8578063cd9df6621161007c578063cd9df6621461091f578063d547741f14610955578063e574957c14610981578063e71a136a146109bd578063eb794165146109da57610248565b8063a217fddf146107e8578063ae090845146107f0578063bb09d7381461069d578063c5311d5114610828578063ca15c8731461090257610248565b80638a1e3472116100ff5780638a1e3472146107745780638c8057fe1461024d5780638e859054146107915780639010d07c1461079957806391d14854146107bc57610248565b8063695d4da5146106a55780636c58cfba146106d75780636c992a551461072c5780638129fc1c1461074f578063881d8a401461075757610248565b806336568abe116101c957806358044e201161018d57806358044e20146105d9578063592c73e8146105e15780635d0141cf1461060d57806364d09fe01461065b5780636517c2361461069d57610248565b806336568abe146104f15780633c4036241461051d578063495313241461054957806350d9e7431461057b5780635504d3d2146105d157610248565b80632e254844116102105780632e254844146104355780632f2ff15d14610467578063334f1f5c1461024d57806334f2c744146104935780633637b156146104bf57610248565b8063029393201461024d5780630a7501bb1461026757806317db132b14610327578063199a1071146103ec578063248a9ca314610418575b600080fd5b610255610a0c565b60408051918252519081900360200190f35b6103256004803603604081101561027d57600080fd5b810190602081018135600160201b81111561029757600080fd5b8201836020820111156102a957600080fd5b803590602001918460208302840111600160201b831117156102ca57600080fd5b919390929091602081019035600160201b8111156102e757600080fd5b8201836020820111156102f957600080fd5b803590602001918460208302840111600160201b8311171561031a57600080fd5b509092509050610a11565b005b6103d86004803603604081101561033d57600080fd5b6001600160a01b038235169190810190604081016020820135600160201b81111561036757600080fd5b82018360208201111561037957600080fd5b803590602001918460208302840111600160201b8311171561039a57600080fd5b919080806020026020016040519081016040528093929190818152602001838360200280828437600092019190915250929550610a70945050505050565b604080519115158252519081900360200190f35b6102556004803603604081101561040257600080fd5b506001600160a01b038135169060200135610abc565b6102556004803603602081101561042e57600080fd5b5035610ad9565b6103256004803603606081101561044b57600080fd5b506001600160a01b038135169060208101359060400135610aee565b6103256004803603604081101561047d57600080fd5b50803590602001356001600160a01b0316610ce9565b610325600480360360408110156104a957600080fd5b506001600160a01b038135169060200135610d55565b6103d8600480360360608110156104d557600080fd5b506001600160a01b038135169060208101359060400135610e0c565b6103256004803603604081101561050757600080fd5b50803590602001356001600160a01b0316610e40565b6103d86004803603604081101561053357600080fd5b506001600160a01b038135169060200135610ea1565b6102556004803603606081101561055f57600080fd5b506001600160a01b038135169060208101359060400135610ed3565b6105986004803603602081101561059157600080fd5b5035610f06565b604051808261040080838360005b838110156105be5781810151838201526020016105a6565b5050505090500191505060405180910390f35b610255610fdf565b610255611001565b610325600480360360408110156105f757600080fd5b50803590602001356001600160a01b0316611006565b61063f6004803603606081101561062357600080fd5b506001600160a01b03813516906020810135906040013561103c565b604080516001600160a01b039092168252519081900360200190f35b610325600480360360a081101561067157600080fd5b506001600160a01b03813581169160208101359160408201359160608101359091169060800135611068565b61025561131a565b610255600480360360608110156106bb57600080fd5b506001600160a01b03813516906020810135906040013561131f565b610709600480360360608110156106ed57600080fd5b506001600160a01b038135169060208101359060400135611342565b604080516001600160a01b03909316835260208301919091528051918290030190f35b6103256004803603604081101561074257600080fd5b5080359060200135611392565b6103256113ac565b61063f6004803603602081101561076d57600080fd5b5035611461565b6102556004803603602081101561078a57600080fd5b503561147c565b6102556117d7565b61063f600480360360408110156107af57600080fd5b50803590602001356117dc565b6103d8600480360360408110156107d257600080fd5b50803590602001356001600160a01b0316611801565b61025561181f565b6103256004803603608081101561080657600080fd5b506001600160a01b038135169060208101359060408101359060600135611824565b6108456004803603602081101561083e57600080fd5b503561185c565b604051808960a080838360005b8381101561086a578181015183820152602001610852565b5050505090500188600460200280838360005b8381101561089557818101518382015260200161087d565b5050505090500187600460200280838360005b838110156108c05781810151838201526020016108a8565b50505060ff998a1693909101928352505094861660208601525091841660408085019190915293166060830152608082015290519081900360a0019350915050f35b6102556004803603602081101561091857600080fd5b50356119e0565b6103d86004803603606081101561093557600080fd5b506001600160a01b038135811691602081013591604090910135166119f7565b6103256004803603604081101561096b57600080fd5b50803590602001356001600160a01b0316611a32565b6103256004803603608081101561099757600080fd5b506001600160a01b03813581169160208101359160408201351690606001351515611a8b565b610255600480360360208110156109d357600080fd5b5035611b0b565b610255600480360360608110156109f057600080fd5b506001600160a01b038135169060208101359060400135611b1d565b600181565b610a19611b40565b60005b83811015610a6957828282818110610a3057fe5b9050602002013560656000878785818110610a4757fe5b6020908102929092013583525081019190915260400160002055600101610a1c565b5050505050565b6000805b8251811015610ab057610a9a84848381518110610a8d57fe5b6020026020010151610ea1565b610aa8576000915050610ab6565b600101610a74565b50600190505b92915050565b606760209081526000928352604080842090915290825290205481565b60009081526033602052604090206002015490565b336001600160a01b0316836001600160a01b0316636352211e846040518263ffffffff1660e01b81526004018082815260200191505060206040518083038186803b158015610b3c57600080fd5b505afa158015610b50573d6000803e3d6000fd5b505050506040513d6020811015610b6657600080fd5b50516001600160a01b031614610b7b57600080fd5b6001600160a01b0380841660008181526069602090815260408083208784528252808320868452825280832054938352606a825280832087845282528083208684529091528082205481516323b872dd60e01b81523060048201523360248201526044810191909152905192909316926323b872dd926064808301939282900301818387803b158015610c0d57600080fd5b505af1158015610c21573d6000803e3d6000fd5b505050506001600160a01b03831660008181526069602090815260408083208684528252808320858452825280832080546001600160a01b0319169055838352606a82528083208684528252808320858452825280832083905592825260688152828220858352815282822060018084529152919020805491831b199091169055610cac8383610d55565b8082846001600160a01b03167f51b4804b5c5cc549d6d13b27527e5976da974045a9132fa5fc31dddce0fce71c60405160405180910390a4505050565b600082815260336020526040902060020154610d0c90610d07611ba1565b611801565b610d475760405162461bcd60e51b815260040180806020018281038252602f815260200180612fcd602f913960400191505060405180910390fd5b610d518282611ba5565b5050565b60016000526066602052600080516020612ffc833981519152546001600160a01b0383811691161415610d9057610d8b81611c14565b610dcf565b6040805162461bcd60e51b815260206004820152600f60248201526e139bdd081a5b5c1b195b595b9d1959608a1b604482015290519081900360640190fd5b600081836001600160a01b03167fd2ef13ff76df1e8bb1d84745d8bbafa6085a402e4a818524c4cc4056df86c8b560405160405180910390a45050565b6001600160a01b03928316600090815260696020908152604080832094835293815283822092825291909152205416151590565b610e48611ba1565b6001600160a01b0316816001600160a01b031614610e975760405162461bcd60e51b815260040180806020018281038252602f81526020018061309b602f913960400191505060405180910390fd5b610d518282611f7b565b6001600160a01b0391909116600090815260686020908152604080832093835292815282822060018352905220541590565b6001600160a01b038316600090815260686020908152604080832085845282528083208484529091529020549392505050565b610f0e612eeb565b6001600090815260666020908152600080516020612ffc833981519152546040805163783efb2560e01b8152600481018790526005602482015290516001600160a01b039092169263783efb2592604480840193829003018186803b158015610f7657600080fd5b505afa158015610f8a573d6000803e3d6000fd5b505050506040513d6020811015610fa057600080fd5b5051905060005b6020811015610fd8578060080282901c838260208110610fc357fe5b60ff9092166020929092020152600101610fa7565b5050919050565b604080516923a0a6a2afa0a226a4a760b11b8152905190819003600a01902081565b606581565b61100e611b40565b60009182526066602052604090912080546001600160a01b0319166001600160a01b03909216919091179055565b60696020908152600093845260408085208252928452828420905282529020546001600160a01b031681565b6110738584846119f7565b6110b3576040805162461bcd60e51b815260206004820152600c60248201526b496e76616c6964206974656d60a01b604482015290519081900360640190fd5b336001600160a01b0316856001600160a01b0316636352211e866040518263ffffffff1660e01b81526004018082815260200191505060206040518083038186803b15801561110157600080fd5b505afa158015611115573d6000803e3d6000fd5b505050506040513d602081101561112b57600080fd5b50516001600160a01b03161461114057600080fd5b6001600160a01b038581166000908152606960209081526040808320888452825280832087845290915290205416156111ad576040805162461bcd60e51b815260206004820152600a60248201526929b637ba103a30b5b2b760b11b604482015290519081900360640190fd5b6001600160a01b0385811660008181526069602090815260408083208984528252808320888452825280832080546001600160a01b03191695881695909517909455828252606a8152838220888352815283822087835281528382208590559181526068825282812087825282528281206001808352925291909120805491851b90911790556112408585858585611fea565b604080516323b872dd60e01b81523360048201523060248201526044810183905290516001600160a01b038416916323b872dd91606480830192600092919082900301818387803b15801561129457600080fd5b505af11580156112a8573d6000803e3d6000fd5b505050506112b68585610d55565b8284866001600160a01b03167fddac7c971ce4e199e6082b60b64c990f8d75bd8990f2d267568b567b5fdb29fc858560405180836001600160a01b03166001600160a01b031681526020018281526020019250505060405180910390a45050505050565b600281565b606a60209081526000938452604080852082529284528284209052825290205481565b6001600160a01b0392831660008181526069602090815260408083208684528252808320858452825280832054938352606a82528083209583529481528482209382529290925291902054911691565b61139a611b40565b60009182526065602052604090912055565b600054610100900460ff16806113c557506113c56120f1565b806113d3575060005460ff16155b61140e5760405162461bcd60e51b815260040180806020018281038252602e81526020018061304c602e913960400191505060405180910390fd5b600054610100900460ff16158015611439576000805460ff1961ff0019909116610100171660011790555b611441612102565b61144c600033610d47565b801561145e576000805461ff00191690555b50565b6066602052600090815260409020546001600160a01b031681565b600160009081526066602052600080516020612ffc833981519152546001600160a01b03166114a9612f0a565b6040518061018001604052808581526020016000815260200160008152602001600081526020016000600f0b81526020016000600f0b8152602001836001600160a01b031663e168ce02876040518263ffffffff1660e01b81526004018082815260200191505060206040518083038186803b15801561152857600080fd5b505afa15801561153c573d6000803e3d6000fd5b505050506040513d602081101561155257600080fd5b505162ffffff168152600060208281019190915260408051630219207560e61b815260048101899052815191909301926001600160a01b038716926386481d4092602480840193829003018186803b1580156115ad57600080fd5b505afa1580156115c1573d6000803e3d6000fd5b505050506040513d60208110156115d757600080fd5b505160ff1681526040805163acb586df60e01b81526004810188905290516020928301926001600160a01b0387169263acb586df9260248083019392829003018186803b15801561162757600080fd5b505afa15801561163b573d6000803e3d6000fd5b505050506040513d602081101561165157600080fd5b505160ff90811682526000602083810182905260409384018290527f8a9614ba8c677ead4620d2169d8ea794c0a1c3b5c9b380bc9dc10aaa393fb41954600080516020612ffc833981519152546001600160a01b039081168452606a83528584208b8552835285842060018552909252848320546101208701518651631ab044f960e31b815260048101929092529094166024850152935194955090938493849384939091169163d58227c891604480820192608092909190829003018186803b15801561171e57600080fd5b505afa158015611732573d6000803e3d6000fd5b505050506040513d608081101561174857600080fd5b50805160208201516040830151606090930151600f83810b810b60808b015282810b900b60a08a0181905262ffffff851660e08b0181905260ff83166101408c015260c08b015194995092975093955093506117a492906121a2565b62ffffff1660208601526117b7856121d4565b506117c185612457565b6117ca866125e3565b1798975050505050505050565b600381565b60008281526033602052604081206117fa908363ffffffff6126d116565b9392505050565b60008281526033602052604081206117fa908363ffffffff6126dd16565b600081565b61182c611b40565b6001600160a01b039093166000908152606860209081526040808320948352938152838220928252919091522055565b611864612f6e565b61186c612f8c565b611874612f8c565b6001600090815260666020908152600080516020612ffc833981519152546040805163783efb2560e01b81526004810189905260056024820152905184938493849384936001600160a01b039092169263783efb2592604480840193829003018186803b1580156118e457600080fd5b505afa1580156118f8573d6000803e3d6000fd5b505050506040513d602081101561190e57600080fd5b505162ffffff8082168a52601882901c81166020808c0191909152603083901c82166040808d0191909152604884901c83166060808e019190915284811c90931660808d0152613fff607885901c81168c52608685901c81168c840152609485901c81168c83015260a285901c81168c85015260b085901c81168b5260be85901c8116928b019290925260cc84901c8216908a015260da83901c16908801529799969850949660ff60e882901c1696600360f083901c8116975060f283901c8116965060f483901c1694509092509050565b6000818152603360205260408120610ab6906126f2565b6001600160a01b0383166000908152606c602090815260408083208584529091528120611a2a908363ffffffff6126dd16565b949350505050565b600082815260336020526040902060020154611a5090610d07611ba1565b610e975760405162461bcd60e51b815260040180806020018281038252603081526020018061301c6030913960400191505060405180910390fd5b611a93611b40565b8015611ad2576001600160a01b0384166000908152606c602090815260408083208684529091529020611acc908363ffffffff6126fd16565b50611b05565b6001600160a01b0384166000908152606c602090815260408083208684529091529020610a69908363ffffffff61271216565b50505050565b60656020526000908152604090205481565b606860209081526000938452604080852082529284528284209052825290205481565b604080516923a0a6a2afa0a226a4a760b11b8152905190819003600a019020611b699033611801565b611b9f576040805162461bcd60e51b81526020600482015260026024820152614e4160f01b604482015290519081900360640190fd5b565b3390565b6000828152603360205260409020611bc3908263ffffffff6126fd16565b15610d5157611bd0611ba1565b6001600160a01b0316816001600160a01b0316837f2f8788117e7eff1d82e926ec794901d17c78024a50270940304540a733656f0d60405160405180910390a45050565b6001600081905260666020908152600080516020612ffc833981519152546040805163783efb2560e01b8152600481018690526024810194909452516001600160a01b0390911692839263783efb2592604480840193829003018186803b158015611c7e57600080fd5b505afa158015611c92573d6000803e3d6000fd5b505050506040513d6020811015611ca857600080fd5b505115611ce5576040805162461bcd60e51b815260206004808301919091526024820152634275737960e01b604482015290519081900360640190fd5b611cf26001836001612727565b15611f0c576040805160028082526060808301845292602083019080368337019050509050600481600081518110611d2657fe5b602002602001018181525050600581600181518110611d4157fe5b60209081029190910101526040805160028082526060828101909352816020016020820280368337019050509050826001600160a01b031663e71a136a60016040518263ffffffff1660e01b81526004018082815260200191505060206040518083038186803b158015611db457600080fd5b505afa158015611dc8573d6000803e3d6000fd5b505050506040513d6020811015611dde57600080fd5b505181518290600090611ded57fe5b602002602001018181525050611e028461147c565b81600181518110611e0f57fe5b602002602001018181525050826001600160a01b0316639a550fd28584846040518463ffffffff1660e01b8152600401808481526020018060200180602001838103835285818151815260200191508051906020019060200280838360005b83811015611e86578181015183820152602001611e6e565b50505050905001838103825284818151815260200191508051906020019060200280838360005b83811015611ec5578181015183820152602001611ead565b5050505090500195505050505050600060405180830381600087803b158015611eed57600080fd5b505af1158015611f01573d6000803e3d6000fd5b505050505050610d51565b60408051631f771def60e31b81526004818101859052602482015260006044820181905291516001600160a01b0384169263fbb8ef78926064808201939182900301818387803b158015611f5f57600080fd5b505af1158015611f73573d6000803e3d6000fd5b505050505050565b6000828152603360205260409020611f99908263ffffffff61271216565b15610d5157611fa6611ba1565b6001600160a01b0316816001600160a01b0316837ff6391f5c32d9c69d2a47ea670b442974b53935d1edc7fd64eb21e047a839171b60405160405180910390a45050565b600260005260666020527f8a9614ba8c677ead4620d2169d8ea794c0a1c3b5c9b380bc9dc10aaa393fb419546001600160a01b0383811691161415610a69577f8a9614ba8c677ead4620d2169d8ea794c0a1c3b5c9b380bc9dc10aaa393fb41954606560008181526020919091527f6ccb05e07cfd8079089ab58e008f326bb5bb2632e8e6b1b79bc8c67682811af854604080516305f75b7d60e21b81526004810186905260ff909216602483015260448201839052516001600160a01b039093169283926317dd6df4926064808201939182900301818387803b1580156120d157600080fd5b505af11580156120e5573d6000803e3d6000fd5b50505050505050505050565b60006120fc30612766565b15905090565b600054610100900460ff168061211b575061211b6120f1565b80612129575060005460ff16155b6121645760405162461bcd60e51b815260040180806020018281038252602e81526020018061304c602e913960400191505060405180910390fd5b600054610100900460ff1615801561144c576000805460ff1961ff001990911661010017166001179055801561145e576000805461ff001916905550565b6000611a2a8262ffffff166121c88662ffffff1686600f0b61276c90919063ffffffff16565b9063ffffffff6127d416565b6121dc612f0a565b6003600090815260666020527fab85c4cd4478c33dd554873cedded4adcfce323c02b7f45103bdac1e0ee0d7ce5483516001600160a01b03909116919060049061222a906001906002612727565b156123d657612327600a612318600261230961224461282e565b600080516020612ffc833981519152546001600160a01b039081166000908152606a602090815260408083208f518452825280832060028452825291829020546101208f0151835163f5de8f4b60e01b8152600481019290925260ff1660248201529151928c169263f5de8f4b926044808201939291829003018186803b1580156122ce57600080fd5b505afa1580156122e2573d6000803e3d6000fd5b505050506040513d60208110156122f857600080fd5b5051600f0b9063ffffffff61283f16565b600f0b9063ffffffff61287316565b600f0b9063ffffffff6128a916565b600080516020612ffc833981519152546001600160a01b039081166000908152606a602090815260408083208a51845282528083206002845282529182902054825163acb586df60e01b8152600481019190915291519395509186169263acb586df92602480840193919291829003018186803b1580156123a757600080fd5b505afa1580156123bb573d6000803e3d6000fd5b505050506040513d60208110156123d157600080fd5b505190505b6124106123e78661010001516128fb565b62ffffff16612406848860a00151600f0b61294b90919063ffffffff16565b8760e0015161297e565b62ffffff1660408601526124276123e760226128fb565b62ffffff166060860152600460ff8216146124425780612445565b60005b60ff1661016086015250929392505050565b600060f482610160015160ff16901b60da61249b846060015161248c86610120015187610140015188610160015160036129b2565b600f0b9063ffffffff61276c16565b613fff16901b60cc6124c7856060015161248c87610120015188610140015189610160015160026129b2565b613fff16901b60be6124f3866060015161248c8861012001518961014001518a610160015160016129b2565b613fff16901b60b061251f876060015161248c8961012001518a61014001518b610160015160006129b2565b613fff16901b60a261254b886040015161248c8a61012001518b61014001518c610160015160036129b2565b613fff16901b6094612577896040015161248c8b61012001518c61014001518d610160015160026129b2565b613fff16901b60866125a38a6040015161248c8c61012001518d61014001518e610160015160016129b2565b613fff16901b60786125cf8b6040015161248c8d61012001518e61014001518f610160015160006129b2565b613fff16901b171717171717171792915050565b600060f282610140015160ff16901b60f083610120015160ff16901b60e884610100015160ff16901b60606126258660c0015187608001518860e001516121a2565b62ffffff16901b604861264c876020015161248c8961012001518a61014001516003612a56565b62ffffff16901b6030612673886020015161248c8a61012001518b61014001516002612a56565b62ffffff16901b601861269a896020015161248c8b61012001518c61014001516001612a56565b62ffffff16901b6126bf896020015161248c8b61012001518c61014001516000612a56565b62ffffff161717171717171792915050565b60006117fa8383612acb565b60006117fa836001600160a01b038416612b2f565b6000610ab682612b47565b60006117fa836001600160a01b038416612b4b565b60006117fa836001600160a01b038416612b95565b6000928352606660209081526040808520546001600160a01b039081168652606983528186209486529382528085209285529190529091205416151590565b3b151590565b60008161277b57506000610ab6565b600083600f0b121561278c57600080fd5b600f83900b6001600160801b038316810260401c90608084901c026001600160c01b038111156127bb57600080fd5b60401b81198111156127cc57600080fd5b019392505050565b6000828201838110156117fa576040805162461bcd60e51b815260206004820152601b60248201527f536166654d6174683a206164646974696f6e206f766572666c6f770000000000604482015290519081900360640190fd5b600061283a6001612c5b565b905090565b6000600f82810b9084900b0360016001607f1b0319811280159061286a575060016001607f1b038113155b6117fa57600080fd5b6000600f83810b9083900b0260401d60016001607f1b0319811280159061286a575060016001607f1b038113156117fa57600080fd5b600081600f0b600014156128bc57600080fd5b600082600f0b604085600f0b901b816128d157fe5b05905060016001607f1b0319811280159061286a575060016001607f1b038113156117fa57600080fd5b6000610ab661291960016121c860ff8616600a63ffffffff612c7916565b61293f61293060ff8616600a63ffffffff612ce016565b6103e89063ffffffff6127d416565b9063ffffffff612ce016565b6000600f83810b9083900b0160016001607f1b0319811280159061286a575060016001607f1b038113156117fa57600080fd5b6000611a2a6103e86121c860646129a662ffffff871683600f8a900b8b63ffffffff61276c16565b9063ffffffff612c7916565b6000806129c0868685612a56565b90508460ff168660ff1614156129f4576129f16129e06002612309612d39565b600f83900b9063ffffffff61294b16565b90505b60048460ff161015612a4d57612a0a8484612d48565b15612a3057612a29600a612318600f84900b600b63ffffffff61287316565b9050612a4d565b612a4a6064612318600f84900b606763ffffffff61287316565b90505b95945050505050565b600080612a6161282e565b90508360ff168560ff161415612a7f57612a7c6129e0612d39565b90505b612a898584612d48565b15612aa057612a996129e0612d39565b9050611a2a565b612aaa8386612d48565b15611a2a57612a4d612aba612d39565b600f83900b9063ffffffff61283f16565b81546000908210612b0d5760405162461bcd60e51b8152600401808060200182810382526022815260200180612fab6022913960400191505060405180910390fd5b826000018281548110612b1c57fe5b9060005260206000200154905092915050565b60009081526001919091016020526040902054151590565b5490565b6000612b578383612b2f565b612b8d57508154600181810184556000848152602080822090930184905584548482528286019093526040902091909155610ab6565b506000610ab6565b60008181526001830160205260408120548015612c515783546000198083019190810190600090879083908110612bc857fe5b9060005260206000200154905080876000018481548110612be557fe5b600091825260208083209091019290925582815260018981019092526040902090840190558654879080612c1557fe5b60019003818190600052602060002001600090559055866001016000878152602001908152602001600020600090556001945050505050610ab6565b6000915050610ab6565b6000677fffffffffffffff821115612c7257600080fd5b5060401b90565b6000808211612ccf576040805162461bcd60e51b815260206004820152601a60248201527f536166654d6174683a206469766973696f6e206279207a65726f000000000000604482015290519081900360640190fd5b818381612cd857fe5b049392505050565b600082612cef57506000610ab6565b82820282848281612cfc57fe5b04146117fa5760405162461bcd60e51b815260040180806020018281038252602181526020018061307a6021913960400191505060405180910390fd5b600061283a604b6103e8612d6b565b60008160ff1660048460010160ff1681612d5e57fe5b0660ff1614905092915050565b600081612d7757600080fd5b6000612d838484612da2565b905060016001607f1b036001600160801b03821611156117fa57600080fd5b600081612dae57600080fd5b60006001600160c01b038411612dd35782604085901b81612dcb57fe5b049050612ed7565b60c084811c600160201b8110612deb576020918201911c5b620100008110612dfd576010918201911c5b6101008110612e0e576008918201911c5b60108110612e1e576004918201911c5b60048110612e2e576002918201911c5b60028110612e3d576001820191505b60bf820360018603901c6001018260ff0387901b81612e5857fe5b0492506001600160801b03831115612e6f57600080fd5b608085901c83026001600160801b038616840260c088901c604089901b82811015612e9b576001820391505b608084901b92900382811015612eb2576001820391505b829003608084901c8214612ec257fe5b888181612ecb57fe5b04870196505050505050505b6001600160801b038111156117fa57600080fd5b6040518061040001604052806020906020820280368337509192915050565b6040805161018081018252600080825260208201819052918101829052606081018290526080810182905260a0810182905260c0810182905260e0810182905261010081018290526101208101829052610140810182905261016081019190915290565b6040518060a001604052806005906020820280368337509192915050565b6040518060800160405280600490602082028036833750919291505056fe456e756d657261626c655365743a20696e646578206f7574206f6620626f756e6473416363657373436f6e74726f6c3a2073656e646572206d75737420626520616e2061646d696e20746f206772616e74e34b8b74e1cdcaa1b90aa77af7dd89e496ad9a4ae4a4d4759712101c7da2dce6416363657373436f6e74726f6c3a2073656e646572206d75737420626520616e2061646d696e20746f207265766f6b65496e697469616c697a61626c653a20636f6e747261637420697320616c726561647920696e697469616c697a6564536166654d6174683a206d756c7469706c69636174696f6e206f766572666c6f77416363657373436f6e74726f6c3a2063616e206f6e6c792072656e6f756e636520726f6c657320666f722073656c66a2646970667358221220e00022f36fefb05f9c7f0f0962df4063d9e4a902626408bca13c25ea27ec9d1364736f6c63430006050033",
  "immutableReferences": {},
  "source": "pragma solidity ^0.6.0;\n\nimport \"@openzeppelin/contracts-upgradeable/proxy/Initializable.sol\";\nimport \"@openzeppelin/contracts-upgradeable/access/AccessControlUpgradeable.sol\";\nimport \"@openzeppelin/contracts/math/SafeMath.sol\";\nimport \"@openzeppelin/contracts/utils/EnumerableSet.sol\";\nimport \"abdk-libraries-solidity/ABDKMath64x64.sol\";\nimport \"./characters.sol\";\nimport \"./weapons.sol\";\nimport \"./shields.sol\";\nimport \"./util.sol\";\n\ncontract EquipmentManager is Initializable, AccessControlUpgradeable {\n\n    using ABDKMath64x64 for int128;\n    using EnumerableSet for EnumerableSet.UintSet;\n    using EnumerableSet for EnumerableSet.AddressSet;\n\n    ////////////\n    // CONSTANTS\n    ////////////\n\n    // Permissions\n\n    bytes32 public constant GAME_ADMIN = keccak256(\"GAME_ADMIN\");\n\n    // Contract Vars\n\n    uint256 public constant VAR_WEAPON_EQUIP_DURABILITY = 101;\n\n    // Contract links\n\n    uint256 public constant LINK_CHARACTERS = 1;\n    uint256 public constant LINK_WEAPONS = 2;\n    uint256 public constant LINK_SHIELDS = 3;\n\n    // User vars\n\n    //uint256 public constant USERVAR_ = 10001;\n\n    // NFT vars\n\n    uint256 public constant NFTVAR_EQUIPPED_SLOTS = 1;//each bit corresponding to its slot\n\n    // Misc\n\n    uint256 public constant SLOT_CHARACTER_WEAPON = 1;\n    uint256 public constant SLOT_CHARACTER_SHIELD = 2;\n\n\n    //////////\n    // GENERAL\n    //////////\n    struct PowerData {\n        uint256 onID;\n        uint256 souledPower;\n        uint256 pvpPower;\n        uint256 ffaPower;\n        int128 weaponMultBase;\n        int128 weaponMultFight;\n        uint24 souledBasePower;\n        uint24 weaponBonusPower;\n        uint8 level;\n        uint8 charTrait;\n        uint8 weaponTrait;\n        uint8 shieldTrait;\n    }\n\n    event Equipped(address indexed onAddr, uint256 indexed onID, uint256 indexed slot, address itemAddr, uint256 itemID);\n    event Unequipped(address indexed onAddr, uint256 indexed onID, uint256 indexed slot);\n    event Recalculated(address indexed onAddr, uint256 indexed onID, uint256 indexed calculationID);\n\n    function initialize () public initializer {\n        __AccessControl_init_unchained();\n        _setupRole(DEFAULT_ADMIN_ROLE, msg.sender);\n    }\n\n    modifier restricted() {\n        _restricted();\n        _;\n    }\n\n    function _restricted() internal view {\n        require(hasRole(GAME_ADMIN, msg.sender), \"NA\");\n    }\n\n\n    //////////////////\n    // STATE VARIABLES\n    //////////////////\n\n    mapping(uint256 => uint256) public vars;\n    mapping(uint256 => address) public links;\n    mapping(address => mapping(uint256 => uint256)) public userVars;\n    mapping(address => mapping(uint256 => mapping(uint256 => uint256))) public nftVars;//contract>id>field>value\n\n    // equipper address, ID, slot, equipped item address\n    mapping(address => mapping(uint256 => mapping(uint256 => address))) public equippedSlotAddress;\n    // equipper address, ID, slot, equipped item ID(/amount?)\n    mapping(address => mapping(uint256 => mapping(uint256 => uint256))) public equippedSlotID;\n\n    // equipper address, calculation identifier (future use), proxy address (default = this)\n    mapping(address => mapping(uint256 => address)) calculatorProxy;\n    // equipper address, slot, set of addresses supported\n    mapping(address => mapping(uint256 => EnumerableSet.AddressSet)) private equippableInSlot;\n\n\n    ////////////\n    // FUNCTIONS\n    ////////////\n\n    // Mutative\n\n    function equipNFT(address onAddr, uint256 onID, uint256 slot, address itemAddr, uint256 itemID) external {\n        require(isEquippable(onAddr, slot, itemAddr), \"Invalid item\");\n        require(IERC721(onAddr).ownerOf(onID) == msg.sender);//item owner check done on transfer\n        require(equippedSlotAddress[onAddr][onID][slot] == address(0), \"Slot taken\");\n\n        equippedSlotAddress[onAddr][onID][slot] = itemAddr;\n        equippedSlotID[onAddr][onID][slot] = itemID;\n        nftVars[onAddr][onID][NFTVAR_EQUIPPED_SLOTS] |= (0x1 << slot);//turn slot bit on\n\n        processEquippedItem(onAddr, onID, slot, itemAddr, itemID);\n        IERC721(itemAddr).transferFrom(msg.sender, address(this), itemID);\n\n        recalculate(onAddr, onID);\n        emit Equipped(onAddr, onID, slot, itemAddr, itemID);\n    }\n\n    function unequipNFT(address onAddr, uint256 onID, uint256 slot) external {\n        require(IERC721(onAddr).ownerOf(onID) == msg.sender);\n\n        IERC721(equippedSlotAddress[onAddr][onID][slot])\n            .transferFrom(address(this), msg.sender, equippedSlotID[onAddr][onID][slot]);\n\n        equippedSlotAddress[onAddr][onID][slot] = address(0);\n        equippedSlotID[onAddr][onID][slot] = 0;\n        nftVars[onAddr][onID][NFTVAR_EQUIPPED_SLOTS] &= ~(0x1 << slot);//turns the slot bit off\n\n        recalculate(onAddr, onID);\n        emit Unequipped(onAddr, onID, slot);\n    }\n\n    function recalculate(address onAddr, uint256 onID) public {\n        // will use proxy later, for now we assume all items use the manager directly for chars\n        if(onAddr == links[LINK_CHARACTERS])\n            calculateCharacterVars(onID);\n        else\n            revert(\"Not implemented\");\n        emit Recalculated(onAddr, onID, 0);\n    }\n\n    function processEquippedItem(address onAddr, uint256 onID, uint256 slot, address itemAddr, uint256 itemID) internal {\n        if(itemAddr == links[LINK_WEAPONS]) {\n            Weapons weapons = Weapons(links[LINK_WEAPONS]);\n            // Limit sharing by draining durability on equip\n            weapons.drainDurability(itemID, uint8(vars[VAR_WEAPON_EQUIP_DURABILITY]), false);\n        }\n    }\n\n    // Would-be proxy functions\n\n    function calculateCharacterVars(uint256 onID) internal {\n        Characters characters = Characters(links[LINK_CHARACTERS]);\n        require(characters.getNftVar(onID, 1) == 0, \"Busy\");//don't let them switcharoo while in arena etc\n\n        // equipped weapon is required for anything to be calculated\n        if(_hasSlotEquipped(LINK_CHARACTERS, onID, SLOT_CHARACTER_WEAPON)) {\n            uint256[] memory fields = new uint256[](2);\n            fields[0] = 4;\n            fields[1] = 5;\n            uint256[] memory values = new uint256[](2);\n            values[0] = characters.vars(1/*equip version*/);\n            values[1] = getPowerData(onID);\n        \n            characters.setNFTVars(onID, fields, values );\n        }\n        else {\n            // no weapon equipped, we null out the equipment version\n            characters.setNftVar(onID, 4/*nft equipment version*/, 0);\n        }\n    }\n\n    function getPowerData(uint256 onID) public view returns (uint256) {\n        // May be called from frontend to check if a refresh is required/advised\n        // Compare with characters.getNftVar(NFTVAR_POWER_DATA)\n\n        Characters characters = Characters(links[LINK_CHARACTERS]);\n        // Some values are set later\n        PowerData memory pd = PowerData(\n            onID,\n            0,0,0,0,0,//souledPower,pvpPower,ffaPower,weaponMultBase,weaponMultFight\n            uint24(characters.getTotalPower(onID)),//souledBasePower\n            0,//weaponBonusPower\n            characters.getLevel(onID),\n            characters.getTrait(onID),\n            0,0//weaponTrait, shieldTrait\n        );\n\n        // assume weapon slot is using weapon address for now, will revert anyway if not\n        (int128 weaponMultBase, // does not contain stat trait benefits\n            int128 weaponMultFight, // contains stat benefits (not wep-char trait match yet though!)\n            uint24 weaponBonusPower,\n            uint8 weaponTrait) = Weapons(links[LINK_WEAPONS])\n                .getFightData(equippedSlotID[links[LINK_CHARACTERS]][onID][SLOT_CHARACTER_WEAPON],\n                                    pd.charTrait);\n        pd.weaponMultBase = weaponMultBase;\n        pd.weaponMultFight = weaponMultFight;\n        pd.weaponBonusPower = weaponBonusPower;\n        pd.weaponTrait = weaponTrait;\n        pd.souledPower = Common.getPlayerPower(pd.souledBasePower, pd.weaponMultFight, pd.weaponBonusPower);\n        cachePvpData(pd);\n        return getPvePowerData(pd) | getPvpPowerData(pd);\n    }\n\n    function getPvePowerData(PowerData memory pd) internal pure returns(uint256) {\n        // pve, 24 bits each\n        return (getPveTraitBonus(pd.charTrait, pd.weaponTrait, 0).mulu(pd.souledPower) & 0xFFFFFF)//v fire\n            | ((getPveTraitBonus(pd.charTrait, pd.weaponTrait, 1).mulu(pd.souledPower) & 0xFFFFFF) << 24)//v earth\n            | ((getPveTraitBonus(pd.charTrait, pd.weaponTrait, 2).mulu(pd.souledPower) & 0xFFFFFF) << 48)//v lightning\n            | ((getPveTraitBonus(pd.charTrait, pd.weaponTrait, 3).mulu(pd.souledPower) & 0xFFFFFF) << 72)//v water\n            | (uint256(Common.getPlayerPower(pd.souledBasePower, pd.weaponMultBase, pd.weaponBonusPower)) << 96)//base(target)\n            // some extra info to save on calls, if necessary\n            | (uint256(pd.level) << 232)\n            | (uint256(pd.charTrait) << 240)\n            | (uint256(pd.weaponTrait) << 242)\n        ;\n    }\n\n    function cachePvpData(PowerData memory pd) internal view returns (PowerData memory) {\n        Shields shields = Shields(links[LINK_SHIELDS]);\n        int128 shieldMult = 0;\n        uint8 shieldTrait = 4; // signifies no shield\n        if(_hasSlotEquipped(LINK_CHARACTERS, pd.onID, SLOT_CHARACTER_SHIELD)) {\n            shieldMult = shields.getDefenseMultiplierForTrait(\n                equippedSlotID[links[LINK_CHARACTERS]][pd.onID][SLOT_CHARACTER_SHIELD],\n                pd.charTrait)\n                .sub(mathOneFrac()).mul(2).div(10); // 20% multiplier contribution vs weapons\n            shieldTrait = shields.getTrait(equippedSlotID[links[LINK_CHARACTERS]][pd.onID][SLOT_CHARACTER_SHIELD]);\n        }\n\n        pd.pvpPower = Common.getPlayerPowerBase100(Common.getPowerAtLevel(pd.level),\n            pd.weaponMultFight.add(shieldMult), pd.weaponBonusPower);\n        pd.ffaPower = Common.getPlayerPowerBase100(Common.getPowerAtLevel(34),\n            pd.weaponMultFight.add(shieldMult), pd.weaponBonusPower);\n        pd.shieldTrait = shieldTrait == 4 ? 0 : shieldTrait;\n        return pd;\n    }\n\n    function getPvpPowerData(PowerData memory pd) internal pure returns (uint256) {\n        //pvp, 14 bits each, tiered\n        return ((getPvpTraitBonus(pd.charTrait, pd.weaponTrait, pd.shieldTrait, 0).mulu(pd.pvpPower) & 0x3FFF) << 120)//v fire\n            | ((getPvpTraitBonus(pd.charTrait, pd.weaponTrait, pd.shieldTrait, 1).mulu(pd.pvpPower) & 0x3FFF) << 134)//v earth\n            | ((getPvpTraitBonus(pd.charTrait, pd.weaponTrait, pd.shieldTrait, 2).mulu(pd.pvpPower) & 0x3FFF) << 148)//v lightning\n            | ((getPvpTraitBonus(pd.charTrait, pd.weaponTrait, pd.shieldTrait, 3).mulu(pd.pvpPower) & 0x3FFF) << 162)//v water\n            // pvp, 14 bits each, ffa\n            | ((getPvpTraitBonus(pd.charTrait, pd.weaponTrait, pd.shieldTrait, 0).mulu(pd.ffaPower) & 0x3FFF) << 176)//v fire\n            | ((getPvpTraitBonus(pd.charTrait, pd.weaponTrait, pd.shieldTrait, 1).mulu(pd.ffaPower) & 0x3FFF) << 190)//v earth\n            | ((getPvpTraitBonus(pd.charTrait, pd.weaponTrait, pd.shieldTrait, 2).mulu(pd.ffaPower) & 0x3FFF) << 204)//v lightning\n            | ((getPvpTraitBonus(pd.charTrait, pd.weaponTrait, pd.shieldTrait, 3).mulu(pd.ffaPower) & 0x3FFF) << 218)//v water\n            \n            | (uint256(pd.shieldTrait) << 244);\n    }\n\n    function getPveTraitBonus(uint8 char, uint8 wep, uint8 enemy) internal pure returns (int128) {\n        int128 traitBonus = mathOneFrac();\n        if(char == wep)\n            traitBonus = traitBonus.add(mathTraitBonus());\n        \n        if(Common.isTraitEffectiveAgainst(char, enemy))\n            traitBonus = traitBonus.add(mathTraitBonus());\n        else if(Common.isTraitEffectiveAgainst(enemy, char))\n            traitBonus = traitBonus.sub(mathTraitBonus());\n        \n        return traitBonus;\n    }\n\n    function getPvpTraitBonus(uint8 char, uint8 wep, uint8 shield, uint8 enemy) internal pure returns (int128) {\n        int128 traitBonus = getPveTraitBonus(char, wep, enemy);\n        if(char == wep)\n            traitBonus = traitBonus.add(mathTraitBonus().mul(2));//for a total of 3x weapon trait boost\n\n        //4 or higher means no shield\n        if(shield < 4) {\n            if(Common.isTraitEffectiveAgainst(shield, enemy))\n                traitBonus = traitBonus.mul(11).div(10); //+10% power for shield vs enemy\n            else\n                traitBonus = traitBonus.mul(103).div(100); //+3% power just for having a shield\n        }\n        \n        return traitBonus;\n    }\n\n    function getStoredPowerData(uint256 charID) external view returns (\n        uint24[5] memory pvePower,\n        uint16[4] memory pvpTierPower,\n        uint16[4] memory pvpFfaPower,\n        uint8 level,\n        uint8 charTrait,\n        uint8 wepTrait,\n        uint8 shieldTrait,\n        uint256 powerData\n        ) {\n        powerData = Characters(links[LINK_CHARACTERS]).getNftVar(charID, 5);\n\n        pvePower[0] = uint24(powerData & 0xFFFFFF);\n        pvePower[1] = uint24((powerData >> 24) & 0xFFFFFF);\n        pvePower[2] = uint24((powerData >> 48) & 0xFFFFFF);\n        pvePower[3] = uint24((powerData >> 72) & 0xFFFFFF);\n        pvePower[4] = uint24((powerData >> 96) & 0xFFFFFF);\n\n        pvpTierPower[0] = uint16((powerData >> 120) & 0x3FFF);\n        pvpTierPower[1] = uint16((powerData >> 134) & 0x3FFF);\n        pvpTierPower[2] = uint16((powerData >> 148) & 0x3FFF);\n        pvpTierPower[3] = uint16((powerData >> 162) & 0x3FFF);\n        \n        pvpFfaPower[0] = uint16((powerData >> 176) & 0x3FFF);\n        pvpFfaPower[1] = uint16((powerData >> 190) & 0x3FFF);\n        pvpFfaPower[2] = uint16((powerData >> 204) & 0x3FFF);\n        pvpFfaPower[3] = uint16((powerData >> 218) & 0x3FFF);\n\n        level = uint8((powerData >> 232) & 0xFF);\n        charTrait = uint8((powerData >> 240) & 0x3);\n        wepTrait = uint8((powerData >> 242) & 0x3);\n        shieldTrait = uint8((powerData >> 244) & 0x3);\n    }\n\n    function getPowerDataBytes(uint charID) external view returns (uint8[32] memory data) {\n        uint256 powerData = Characters(links[LINK_CHARACTERS]).getNftVar(charID, 5);\n        for(uint i = 0; i < 32; i++) {\n            data[i] = uint8(powerData >> i*8);\n        }\n    }\n\n    // Read-only\n\n    function isEquippable(address onAddr, uint256 slot, address itemAddr) public view returns (bool) {\n        return equippableInSlot[onAddr][slot].contains(itemAddr);\n    }\n\n    function getEquippedItem(address onAddr, uint256 onID, uint256 slot) public view returns(address, uint256) {\n        return (equippedSlotAddress[onAddr][onID][slot], equippedSlotID[onAddr][onID][slot]);\n    }\n\n    function _hasSlotEquipped(uint256 link, uint256 onID, uint256 slot) internal view returns (bool) {\n        return equippedSlotAddress[links[link]][onID][slot] != address(0);\n    }\n\n    function hasSlotEquipped(address onAddr, uint256 onID, uint256 slot) public view returns (bool) {\n        return equippedSlotAddress[onAddr][onID][slot] != address(0);\n    }\n\n    function hasNothingEquipped(address onAddr, uint256 onID) public view returns (bool) {\n        return nftVars[onAddr][onID][NFTVAR_EQUIPPED_SLOTS] == 0;\n    }\n\n    function haveNothingEquipped(address onAddr, uint256[] memory onIDs) public view returns (bool) {\n        for(uint i = 0; i < onIDs.length; i++) {\n            if(!hasNothingEquipped(onAddr, onIDs[i]))\n                return false;\n        }\n        return true;\n    }\n\n    function mathOneFrac() internal pure returns (int128) {\n        return ABDKMath64x64.fromUInt(1);\n    }\n\n    function mathTraitBonus() internal pure returns (int128) {\n        return ABDKMath64x64.divu(75, 1000);\n    }\n\n    // Admin\n\n    function setVar(uint256 varField, uint256 value) external restricted {\n        vars[varField] = value;\n    }\n\n    function setVars(uint256[] calldata varFields, uint256[] calldata values) external restricted {\n        for(uint i = 0; i < varFields.length; i++) {\n            vars[varFields[i]] = values[i];\n        }\n    }\n\n    function getNftVar(address onAddr, uint256 onID, uint256 nftVar) public view returns(uint256) {\n        return nftVars[onAddr][onID][nftVar];\n    }\n    function setNftVar(address onAddr, uint256 onID, uint256 nftVar, uint256 value) public restricted {\n        nftVars[onAddr][onID][nftVar] = value;\n    }\n\n    function setLink(uint256 linkId, address linkAddress) external restricted {\n        links[linkId] = linkAddress;\n    }\n\n    function setEquippable(address onAddr, uint256 slot, address itemAddr, bool equippable) external restricted {\n        if(equippable)\n            equippableInSlot[onAddr][slot].add(itemAddr);\n        else\n            equippableInSlot[onAddr][slot].remove(itemAddr);\n    }\n\n}",
  "sourcePath": "/mnt/e/work/cryptoblades/contracts/EquipmentManager.sol",
  "compiler": {
    "name": "solc",
    "version": "0.6.5+commit.f956cc89.Emscripten.clang"
  },
  "schemaVersion": "3.3.4",
  "updatedAt": "2023-01-24T17:45:31.268Z",
  "devdoc": {
    "methods": {
      "getRoleAdmin(bytes32)": {
        "details": "Returns the admin role that controls `role`. See {grantRole} and {revokeRole}.     * To change a role's admin, use {_setRoleAdmin}."
      },
      "getRoleMember(bytes32,uint256)": {
        "details": "Returns one of the accounts that have `role`. `index` must be a value between 0 and {getRoleMemberCount}, non-inclusive.     * Role bearers are not sorted in any particular way, and their ordering may change at any point.     * WARNING: When using {getRoleMember} and {getRoleMemberCount}, make sure you perform all queries on the same block. See the following https://forum.openzeppelin.com/t/iterating-over-elements-on-enumerableset-in-openzeppelin-contracts/2296[forum post] for more information."
      },
      "getRoleMemberCount(bytes32)": {
        "details": "Returns the number of accounts that have `role`. Can be used together with {getRoleMember} to enumerate all bearers of a role."
      },
      "grantRole(bytes32,address)": {
        "details": "Grants `role` to `account`.     * If `account` had not been already granted `role`, emits a {RoleGranted} event.     * Requirements:     * - the caller must have ``role``'s admin role."
      },
      "hasRole(bytes32,address)": {
        "details": "Returns `true` if `account` has been granted `role`."
      },
      "renounceRole(bytes32,address)": {
        "details": "Revokes `role` from the calling account.     * Roles are often managed via {grantRole} and {revokeRole}: this function's purpose is to provide a mechanism for accounts to lose their privileges if they are compromised (such as when a trusted device is misplaced).     * If the calling account had been granted `role`, emits a {RoleRevoked} event.     * Requirements:     * - the caller must be `account`."
      },
      "revokeRole(bytes32,address)": {
        "details": "Revokes `role` from `account`.     * If `account` had been granted `role`, emits a {RoleRevoked} event.     * Requirements:     * - the caller must have ``role``'s admin role."
      }
    }
  },
  "userdoc": {
    "methods": {
      "equipNFT(address,uint256,uint256,address,uint256)": {
        "notice": "/////////"
      }
    }
  }
}