{
  "contractName": "ERC20Bridge",
  "abi": [
    {
      "anonymous": false,
      "inputs": [
        {
          "indexed": true,
          "internalType": "address",
          "name": "receiver",
          "type": "address"
        },
        {
          "indexed": true,
          "internalType": "address",
          "name": "erc20",
          "type": "address"
        },
        {
          "indexed": true,
          "internalType": "uint256",
          "name": "sourceChain",
          "type": "uint256"
        },
        {
          "indexed": false,
          "internalType": "uint256",
          "name": "sourceId",
          "type": "uint256"
        },
        {
          "indexed": false,
          "internalType": "uint256",
          "name": "amount",
          "type": "uint256"
        }
      ],
      "name": "BridgeIn",
      "type": "event"
    },
    {
      "anonymous": false,
      "inputs": [
        {
          "indexed": true,
          "internalType": "address",
          "name": "sender",
          "type": "address"
        },
        {
          "indexed": true,
          "internalType": "address",
          "name": "erc20",
          "type": "address"
        },
        {
          "indexed": true,
          "internalType": "uint256",
          "name": "destinationChain",
          "type": "uint256"
        },
        {
          "indexed": false,
          "internalType": "uint256",
          "name": "requestId",
          "type": "uint256"
        },
        {
          "indexed": false,
          "internalType": "uint256",
          "name": "amount",
          "type": "uint256"
        }
      ],
      "name": "BridgeOut",
      "type": "event"
    },
    {
      "anonymous": false,
      "inputs": [
        {
          "indexed": true,
          "internalType": "bytes32",
          "name": "role",
          "type": "bytes32"
        },
        {
          "indexed": true,
          "internalType": "bytes32",
          "name": "previousAdminRole",
          "type": "bytes32"
        },
        {
          "indexed": true,
          "internalType": "bytes32",
          "name": "newAdminRole",
          "type": "bytes32"
        }
      ],
      "name": "RoleAdminChanged",
      "type": "event"
    },
    {
      "anonymous": false,
      "inputs": [
        {
          "indexed": true,
          "internalType": "bytes32",
          "name": "role",
          "type": "bytes32"
        },
        {
          "indexed": true,
          "internalType": "address",
          "name": "account",
          "type": "address"
        },
        {
          "indexed": true,
          "internalType": "address",
          "name": "sender",
          "type": "address"
        }
      ],
      "name": "RoleGranted",
      "type": "event"
    },
    {
      "anonymous": false,
      "inputs": [
        {
          "indexed": true,
          "internalType": "bytes32",
          "name": "role",
          "type": "bytes32"
        },
        {
          "indexed": true,
          "internalType": "address",
          "name": "account",
          "type": "address"
        },
        {
          "indexed": true,
          "internalType": "address",
          "name": "sender",
          "type": "address"
        }
      ],
      "name": "RoleRevoked",
      "type": "event"
    },
    {
      "inputs": [],
      "name": "BRIDGE_TOKEN_VAR_FEE_INDEX",
      "outputs": [
        {
          "internalType": "uint8",
          "name": "",
          "type": "uint8"
        }
      ],
      "stateMutability": "view",
      "type": "function"
    },
    {
      "inputs": [],
      "name": "BRIDGE_TOKEN_VAR_MAX_AMOUNT_INDEX",
      "outputs": [
        {
          "internalType": "uint8",
          "name": "",
          "type": "uint8"
        }
      ],
      "stateMutability": "view",
      "type": "function"
    },
    {
      "inputs": [],
      "name": "BRIDGE_TOKEN_VAR_MIN_AMOUNT_INDEX",
      "outputs": [
        {
          "internalType": "uint8",
          "name": "",
          "type": "uint8"
        }
      ],
      "stateMutability": "view",
      "type": "function"
    },
    {
      "inputs": [],
      "name": "BRIDGE_TOKEN_VAR_OPEN_TO_PUBLIC",
      "outputs": [
        {
          "internalType": "uint8",
          "name": "",
          "type": "uint8"
        }
      ],
      "stateMutability": "view",
      "type": "function"
    },
    {
      "inputs": [],
      "name": "DEFAULT_ADMIN_ROLE",
      "outputs": [
        {
          "internalType": "bytes32",
          "name": "",
          "type": "bytes32"
        }
      ],
      "stateMutability": "view",
      "type": "function"
    },
    {
      "inputs": [],
      "name": "GAME_ADMIN",
      "outputs": [
        {
          "internalType": "bytes32",
          "name": "",
          "type": "bytes32"
        }
      ],
      "stateMutability": "view",
      "type": "function"
    },
    {
      "inputs": [],
      "name": "TRANSFER_OUT_STATUS_DONE",
      "outputs": [
        {
          "internalType": "uint8",
          "name": "",
          "type": "uint8"
        }
      ],
      "stateMutability": "view",
      "type": "function"
    },
    {
      "inputs": [],
      "name": "TRANSFER_OUT_STATUS_ERROR",
      "outputs": [
        {
          "internalType": "uint8",
          "name": "",
          "type": "uint8"
        }
      ],
      "stateMutability": "view",
      "type": "function"
    },
    {
      "inputs": [],
      "name": "TRANSFER_OUT_STATUS_NONE",
      "outputs": [
        {
          "internalType": "uint8",
          "name": "",
          "type": "uint8"
        }
      ],
      "stateMutability": "view",
      "type": "function"
    },
    {
      "inputs": [],
      "name": "TRANSFER_OUT_STATUS_PENDING",
      "outputs": [
        {
          "internalType": "uint8",
          "name": "",
          "type": "uint8"
        }
      ],
      "stateMutability": "view",
      "type": "function"
    },
    {
      "inputs": [],
      "name": "TRANSFER_OUT_STATUS_PROCESSING",
      "outputs": [
        {
          "internalType": "uint8",
          "name": "",
          "type": "uint8"
        }
      ],
      "stateMutability": "view",
      "type": "function"
    },
    {
      "inputs": [],
      "name": "game",
      "outputs": [
        {
          "internalType": "contract CryptoBlades",
          "name": "",
          "type": "address"
        }
      ],
      "stateMutability": "view",
      "type": "function"
    },
    {
      "inputs": [
        {
          "internalType": "bytes32",
          "name": "role",
          "type": "bytes32"
        }
      ],
      "name": "getRoleAdmin",
      "outputs": [
        {
          "internalType": "bytes32",
          "name": "",
          "type": "bytes32"
        }
      ],
      "stateMutability": "view",
      "type": "function"
    },
    {
      "inputs": [
        {
          "internalType": "bytes32",
          "name": "role",
          "type": "bytes32"
        },
        {
          "internalType": "uint256",
          "name": "index",
          "type": "uint256"
        }
      ],
      "name": "getRoleMember",
      "outputs": [
        {
          "internalType": "address",
          "name": "",
          "type": "address"
        }
      ],
      "stateMutability": "view",
      "type": "function"
    },
    {
      "inputs": [
        {
          "internalType": "bytes32",
          "name": "role",
          "type": "bytes32"
        }
      ],
      "name": "getRoleMemberCount",
      "outputs": [
        {
          "internalType": "uint256",
          "name": "",
          "type": "uint256"
        }
      ],
      "stateMutability": "view",
      "type": "function"
    },
    {
      "inputs": [
        {
          "internalType": "bytes32",
          "name": "role",
          "type": "bytes32"
        },
        {
          "internalType": "address",
          "name": "account",
          "type": "address"
        }
      ],
      "name": "grantRole",
      "outputs": [],
      "stateMutability": "nonpayable",
      "type": "function"
    },
    {
      "inputs": [
        {
          "internalType": "bytes32",
          "name": "role",
          "type": "bytes32"
        },
        {
          "internalType": "address",
          "name": "account",
          "type": "address"
        }
      ],
      "name": "hasRole",
      "outputs": [
        {
          "internalType": "bool",
          "name": "",
          "type": "bool"
        }
      ],
      "stateMutability": "view",
      "type": "function"
    },
    {
      "inputs": [
        {
          "internalType": "bytes32",
          "name": "role",
          "type": "bytes32"
        },
        {
          "internalType": "address",
          "name": "account",
          "type": "address"
        }
      ],
      "name": "renounceRole",
      "outputs": [],
      "stateMutability": "nonpayable",
      "type": "function"
    },
    {
      "inputs": [
        {
          "internalType": "bytes32",
          "name": "role",
          "type": "bytes32"
        },
        {
          "internalType": "address",
          "name": "account",
          "type": "address"
        }
      ],
      "name": "revokeRole",
      "outputs": [],
      "stateMutability": "nonpayable",
      "type": "function"
    },
    {
      "inputs": [
        {
          "internalType": "contract CryptoBlades",
          "name": "_game",
          "type": "address"
        }
      ],
      "name": "initialize",
      "outputs": [],
      "stateMutability": "nonpayable",
      "type": "function"
    },
    {
      "inputs": [
        {
          "internalType": "contract IERC20",
          "name": "_tokenAddress",
          "type": "address"
        }
      ],
      "name": "isTokenSupported",
      "outputs": [
        {
          "internalType": "bool",
          "name": "",
          "type": "bool"
        }
      ],
      "stateMutability": "view",
      "type": "function"
    },
    {
      "inputs": [],
      "name": "getSupportedTokenTypes",
      "outputs": [
        {
          "internalType": "contract IERC20[]",
          "name": "",
          "type": "address[]"
        }
      ],
      "stateMutability": "view",
      "type": "function"
    },
    {
      "inputs": [
        {
          "internalType": "contract IERC20",
          "name": "_tokenAddress",
          "type": "address"
        }
      ],
      "name": "allowToken",
      "outputs": [],
      "stateMutability": "nonpayable",
      "type": "function"
    },
    {
      "inputs": [
        {
          "internalType": "contract IERC20",
          "name": "_tokenAddress",
          "type": "address"
        }
      ],
      "name": "disallowToken",
      "outputs": [],
      "stateMutability": "nonpayable",
      "type": "function"
    },
    {
      "inputs": [],
      "name": "bridgeIsEnabled",
      "outputs": [
        {
          "internalType": "bool",
          "name": "",
          "type": "bool"
        }
      ],
      "stateMutability": "view",
      "type": "function"
    },
    {
      "inputs": [
        {
          "internalType": "bool",
          "name": "enabled",
          "type": "bool"
        }
      ],
      "name": "setBridgeEnabled",
      "outputs": [],
      "stateMutability": "nonpayable",
      "type": "function"
    },
    {
      "inputs": [
        {
          "internalType": "uint256",
          "name": "chainId",
          "type": "uint256"
        }
      ],
      "name": "chainBridgeEnabled",
      "outputs": [
        {
          "internalType": "bool",
          "name": "",
          "type": "bool"
        }
      ],
      "stateMutability": "view",
      "type": "function"
    },
    {
      "inputs": [],
      "name": "getEnabledChainsForBridging",
      "outputs": [
        {
          "internalType": "uint256[]",
          "name": "chainIds",
          "type": "uint256[]"
        }
      ],
      "stateMutability": "view",
      "type": "function"
    },
    {
      "inputs": [
        {
          "internalType": "uint256",
          "name": "chainId",
          "type": "uint256"
        },
        {
          "internalType": "bool",
          "name": "enable",
          "type": "bool"
        }
      ],
      "name": "toggleChainBridgeEnabled",
      "outputs": [],
      "stateMutability": "nonpayable",
      "type": "function"
    },
    {
      "inputs": [
        {
          "internalType": "address",
          "name": "_tokenAddress",
          "type": "address"
        },
        {
          "internalType": "uint256",
          "name": "_amount",
          "type": "uint256"
        },
        {
          "internalType": "uint256",
          "name": "targetChain",
          "type": "uint256"
        }
      ],
      "name": "bridgeOutToken",
      "outputs": [],
      "stateMutability": "nonpayable",
      "type": "function"
    },
    {
      "inputs": [
        {
          "internalType": "address",
          "name": "receiver",
          "type": "address"
        },
        {
          "internalType": "address",
          "name": "_tokenAddress",
          "type": "address"
        },
        {
          "internalType": "uint256",
          "name": "_amount",
          "type": "uint256"
        },
        {
          "internalType": "uint256",
          "name": "sourceChain",
          "type": "uint256"
        },
        {
          "internalType": "uint256",
          "name": "sourceTransferId",
          "type": "uint256"
        }
      ],
      "name": "bridgeInToken",
      "outputs": [],
      "stateMutability": "nonpayable",
      "type": "function"
    },
    {
      "inputs": [],
      "name": "getBridgeTransfers",
      "outputs": [
        {
          "internalType": "uint256",
          "name": "",
          "type": "uint256"
        }
      ],
      "stateMutability": "view",
      "type": "function"
    },
    {
      "inputs": [
        {
          "internalType": "uint256",
          "name": "index",
          "type": "uint256"
        }
      ],
      "name": "getBridgeVal",
      "outputs": [
        {
          "internalType": "uint256",
          "name": "",
          "type": "uint256"
        }
      ],
      "stateMutability": "view",
      "type": "function"
    },
    {
      "inputs": [
        {
          "internalType": "uint256",
          "name": "index",
          "type": "uint256"
        },
        {
          "internalType": "uint256",
          "name": "value",
          "type": "uint256"
        }
      ],
      "name": "setBridgeVal",
      "outputs": [],
      "stateMutability": "nonpayable",
      "type": "function"
    },
    {
      "inputs": [
        {
          "internalType": "contract IERC20",
          "name": "token",
          "type": "address"
        },
        {
          "internalType": "uint256",
          "name": "index",
          "type": "uint256"
        }
      ],
      "name": "getTokenBridgeVal",
      "outputs": [
        {
          "internalType": "uint256",
          "name": "",
          "type": "uint256"
        }
      ],
      "stateMutability": "view",
      "type": "function"
    },
    {
      "inputs": [
        {
          "internalType": "contract IERC20",
          "name": "token",
          "type": "address"
        },
        {
          "internalType": "uint256",
          "name": "index",
          "type": "uint256"
        },
        {
          "internalType": "uint256",
          "name": "value",
          "type": "uint256"
        }
      ],
      "name": "setTokenBridgeVal",
      "outputs": [],
      "stateMutability": "nonpayable",
      "type": "function"
    },
    {
      "inputs": [
        {
          "internalType": "address",
          "name": "player",
          "type": "address"
        }
      ],
      "name": "getBridgeTransferOfPlayer",
      "outputs": [
        {
          "internalType": "uint256",
          "name": "",
          "type": "uint256"
        }
      ],
      "stateMutability": "view",
      "type": "function"
    },
    {
      "inputs": [
        {
          "internalType": "address",
          "name": "player",
          "type": "address"
        }
      ],
      "name": "getBridgeOutTransferOfPlayerHistory",
      "outputs": [
        {
          "internalType": "uint256[]",
          "name": "history",
          "type": "uint256[]"
        }
      ],
      "stateMutability": "view",
      "type": "function"
    },
    {
      "inputs": [
        {
          "internalType": "address",
          "name": "player",
          "type": "address"
        }
      ],
      "name": "getBridgeInTransferOfPlayerHistory",
      "outputs": [
        {
          "internalType": "uint256[]",
          "name": "history",
          "type": "uint256[]"
        }
      ],
      "stateMutability": "view",
      "type": "function"
    },
    {
      "inputs": [
        {
          "internalType": "uint256",
          "name": "bridgeTransferId",
          "type": "uint256"
        }
      ],
      "name": "getBridgeOutTransfer",
      "outputs": [
        {
          "internalType": "address",
          "name": "",
          "type": "address"
        },
        {
          "internalType": "address",
          "name": "",
          "type": "address"
        },
        {
          "internalType": "uint256",
          "name": "",
          "type": "uint256"
        },
        {
          "internalType": "uint256",
          "name": "",
          "type": "uint256"
        },
        {
          "internalType": "uint8",
          "name": "",
          "type": "uint8"
        },
        {
          "internalType": "uint256",
          "name": "",
          "type": "uint256"
        }
      ],
      "stateMutability": "view",
      "type": "function"
    },
    {
      "inputs": [
        {
          "internalType": "uint256",
          "name": "bridgeTransferId",
          "type": "uint256"
        }
      ],
      "name": "getBridgeInTransfer",
      "outputs": [
        {
          "internalType": "address",
          "name": "",
          "type": "address"
        },
        {
          "internalType": "address",
          "name": "",
          "type": "address"
        },
        {
          "internalType": "uint256",
          "name": "",
          "type": "uint256"
        },
        {
          "internalType": "uint256",
          "name": "",
          "type": "uint256"
        },
        {
          "internalType": "uint256",
          "name": "",
          "type": "uint256"
        },
        {
          "internalType": "uint256",
          "name": "",
          "type": "uint256"
        }
      ],
      "stateMutability": "view",
      "type": "function"
    },
    {
      "inputs": [
        {
          "internalType": "uint256",
          "name": "bridgeTransferId",
          "type": "uint256"
        },
        {
          "internalType": "uint8",
          "name": "status",
          "type": "uint8"
        },
        {
          "internalType": "bool",
          "name": "forced",
          "type": "bool"
        }
      ],
      "name": "updateBridgeTransferStatus",
      "outputs": [],
      "stateMutability": "nonpayable",
      "type": "function"
    },
    {
      "inputs": [
        {
          "internalType": "uint256",
          "name": "sourceChain",
          "type": "uint256"
        },
        {
          "internalType": "uint256",
          "name": "sourceTransferId",
          "type": "uint256"
        }
      ],
      "name": "getTransferInFromLog",
      "outputs": [
        {
          "internalType": "uint256",
          "name": "",
          "type": "uint256"
        }
      ],
      "stateMutability": "view",
      "type": "function"
    },
    {
      "inputs": [
        {
          "internalType": "address",
          "name": "token",
          "type": "address"
        },
        {
          "internalType": "address",
          "name": "proxy",
          "type": "address"
        },
        {
          "internalType": "bool",
          "name": "forced",
          "type": "bool"
        }
      ],
      "name": "setProxyContract",
      "outputs": [],
      "stateMutability": "nonpayable",
      "type": "function"
    },
    {
      "inputs": [
        {
          "internalType": "address",
          "name": "token",
          "type": "address"
        }
      ],
      "name": "getProxyContract",
      "outputs": [
        {
          "internalType": "address",
          "name": "",
          "type": "address"
        }
      ],
      "stateMutability": "view",
      "type": "function"
    },
    {
      "inputs": [
        {
          "internalType": "address",
          "name": "token",
          "type": "address"
        },
        {
          "internalType": "uint256[]",
          "name": "chainIds",
          "type": "uint256[]"
        },
        {
          "internalType": "bool",
          "name": "support",
          "type": "bool"
        }
      ],
      "name": "setChainSupportedForERC20",
      "outputs": [],
      "stateMutability": "nonpayable",
      "type": "function"
    },
    {
      "inputs": [
        {
          "internalType": "address",
          "name": "token",
          "type": "address"
        }
      ],
      "name": "getChainsSupportingERCs",
      "outputs": [
        {
          "internalType": "uint256[]",
          "name": "chains",
          "type": "uint256[]"
        }
      ],
      "stateMutability": "view",
      "type": "function"
    },
    {
      "inputs": [
        {
          "internalType": "uint256",
          "name": "chain",
          "type": "uint256"
        }
      ],
      "name": "getERCsSupportedByChain",
      "outputs": [
        {
          "internalType": "address[]",
          "name": "tokens",
          "type": "address[]"
        }
      ],
      "stateMutability": "view",
      "type": "function"
    },
    {
      "inputs": [
        {
          "internalType": "address",
          "name": "token",
          "type": "address"
        },
        {
          "internalType": "uint256",
          "name": "amount",
          "type": "uint256"
        }
      ],
      "name": "recoverToken",
      "outputs": [],
      "stateMutability": "nonpayable",
      "type": "function"
    },
    {
      "inputs": [
        {
          "internalType": "address",
          "name": "token",
          "type": "address"
        },
        {
          "internalType": "address[]",
          "name": "wallets",
          "type": "address[]"
        },
        {
          "internalType": "bool",
          "name": "enable",
          "type": "bool"
        }
      ],
      "name": "updateWhitelistedWallets",
      "outputs": [],
      "stateMutability": "nonpayable",
      "type": "function"
    },
    {
      "inputs": [
        {
          "internalType": "address",
          "name": "token",
          "type": "address"
        }
      ],
      "name": "getWhitelistedWallets",
      "outputs": [
        {
          "internalType": "address[]",
          "name": "wallets",
          "type": "address[]"
        }
      ],
      "stateMutability": "view",
      "type": "function"
    }
  ],
  "bytecode": "0x608060405234801561001057600080fd5b50612e8a806100206000396000f3fe608060405234801561001057600080fd5b50600436106102f15760003560e01c806375151b631161019d578063c4d66de8116100e9578063d61e43c7116100a2578063e91ee8de1161007c578063e91ee8de14610a24578063ed12d7f614610a4a578063ed585a55146105af578063fc4fdd3d14610a67576102f1565b8063d61e43c714610997578063e769fede1461099f578063e79767af146109fe576102f1565b8063c4d66de8146108fa578063ca15c87314610920578063cb8ac9891461093d578063cf8569e414610945578063d127e1cb14610335578063d547741f1461096b576102f1565b8063a445207911610156578063b53472ef11610130578063b53472ef1461084a578063bdd811ff14610870578063bf465b761461059f578063c3fe3e28146108f2576102f1565b8063a4452079146107c6578063a7879def146107f8578063b29a81401461081e576102f1565b806375151b63146106d55780638cb5267a146106fb5780639010d07c1461072d57806391d148541461076c5780639643ed2714610798578063a217fddf146107be576102f1565b80633b7d2e891161025c57806344a3ee5a1161021557806366f83113116101ef57806366f8311314610639578063691c44801461065e5780636bd1dd311461068c5780636f7c53a9146106b8576102f1565b806344a3ee5a146105e85780635429784c1461060b5780635504d3d214610631576102f1565b80633b7d2e89146105975780633e4a81c21461059f578063418aa21f146102f65780634304c790146105a7578063435e156a146105af578063449b4e37146105b7576102f1565b8063237fe117116102ae578063237fe1171461045d578063248a9ca3146104955780632f2ff15d146104c457806330a61af3146104f057806336568abe14610548578063397c9b2a14610574576102f1565b80630a4215f4146102f65780630c700d71146103145780630d5e5805146103355780630dd6fbd51461033d578063105a764e146103bf5780632024ff3814610401575b600080fd5b6102fe610a8d565b6040805160ff9092168252519081900360200190f35b6103336004803603602081101561032a57600080fd5b50351515610a92565b005b6102fe610ae6565b6103336004803603606081101561035357600080fd5b6001600160a01b03823516919081019060408101602082013564010000000081111561037e57600080fd5b82018360208201111561039057600080fd5b803590602001918460208302840111640100000000831117156103b257600080fd5b9193509150351515610aeb565b610333600480360360a08110156103d557600080fd5b506001600160a01b03813581169160208101359091169060408101359060608101359060800135610cb8565b61041e6004803603602081101561041757600080fd5b5035610f42565b604080516001600160a01b039788168152959096166020860152848601939093526060840191909152608083015260a082015290519081900360c00190f35b6103336004803603606081101561047357600080fd5b506001600160a01b038135811691602081013590911690604001351515610f84565b6104b2600480360360208110156104ab57600080fd5b503561104e565b60408051918252519081900360200190f35b610333600480360360408110156104da57600080fd5b50803590602001356001600160a01b0316611063565b6104f86110cf565b60408051602080825283518183015283519192839290830191858101910280838360005b8381101561053457818101518382015260200161051c565b505050509050019250505060405180910390f35b6103336004803603604081101561055e57600080fd5b50803590602001356001600160a01b0316611169565b6104b26004803603604081101561058a57600080fd5b50803590602001356111ca565b6104b26111eb565b6102fe6111f1565b6104f86111f6565b6102fe611296565b6105d4600480360360208110156105cd57600080fd5b503561129b565b604080519115158252519081900360200190f35b610333600480360360408110156105fe57600080fd5b50803590602001356112b0565b6104f86004803603602081101561062157600080fd5b50356001600160a01b0316611303565b6104b26113e6565b6103336004803603604081101561064f57600080fd5b50803590602001351515611408565b6103336004803603606081101561067457600080fd5b5080359060ff60208201351690604001351515611499565b6104b2600480360360408110156106a257600080fd5b506001600160a01b0381351690602001356115ca565b6104f8600480360360208110156106ce57600080fd5b50356115f2565b6105d4600480360360208110156106eb57600080fd5b50356001600160a01b03166116be565b6103336004803603606081101561071157600080fd5b506001600160a01b0381351690602081013590604001356116d1565b6107506004803603604081101561074357600080fd5b5080359060200135611738565b604080516001600160a01b039092168252519081900360200190f35b6105d46004803603604081101561078257600080fd5b50803590602001356001600160a01b031661175d565b6104b2600480360360208110156107ae57600080fd5b50356001600160a01b031661177b565b6104b2610ae6565b610333600480360360608110156107dc57600080fd5b506001600160a01b038135169060208101359060400135611796565b6104f86004803603602081101561080e57600080fd5b50356001600160a01b0316611e7e565b6103336004803603604081101561083457600080fd5b506001600160a01b038135169060200135611f5b565b6103336004803603602081101561086057600080fd5b50356001600160a01b0316611fb6565b6103336004803603606081101561088657600080fd5b6001600160a01b0382351691908101906040810160208201356401000000008111156108b157600080fd5b8201836020820111156108c357600080fd5b803590602001918460208302840111640100000000831117156108e557600080fd5b9193509150351515612008565b6107506121c9565b6103336004803603602081101561091057600080fd5b50356001600160a01b03166121d8565b6104b26004803603602081101561093657600080fd5b50356122a8565b6102fe6122bf565b6104f86004803603602081101561095b57600080fd5b50356001600160a01b03166122c4565b6103336004803603604081101561098157600080fd5b50803590602001356001600160a01b03166123ae565b6105d4612407565b6109bc600480360360208110156109b557600080fd5b5035612410565b604080516001600160a01b03978816815295909616602086015284860193909352606084019190915260ff16608083015260a082015290519081900360c00190f35b61033360048036036020811015610a1457600080fd5b50356001600160a01b0316612458565b6104f860048036036020811015610a3a57600080fd5b50356001600160a01b03166124aa565b6104b260048036036020811015610a6057600080fd5b5035612587565b61075060048036036020811015610a7d57600080fd5b50356001600160a01b0316612599565b600281565b610a9d60003361175d565b610ad3576040805162461bcd60e51b8152602060048201526002602482015261414f60f01b604482015290519081900360640190fd5b6065805460ff1916911515919091179055565b600081565b610af660003361175d565b610b2c576040805162461bcd60e51b8152602060048201526002602482015261414f60f01b604482015290519081900360640190fd5b60005b82811015610cb1576000848483818110610b4557fe5b9050602002013590508215610c00576001600160a01b0386166000908152607760205260409020610b7c908263ffffffff6125b716565b15610bb3576040805162461bcd60e51b81526020600482015260026024820152614e4160f01b604482015290519081900360640190fd5b6001600160a01b0386166000908152607760205260409020610bdb908263ffffffff6125c316565b506000818152607860205260409020610bfa908763ffffffff6125cf16565b50610ca8565b6001600160a01b0386166000908152607760205260409020610c28908263ffffffff6125b716565b610c5f576040805162461bcd60e51b815260206004820152600360248201526227209960e91b604482015290519081900360640190fd5b6001600160a01b0386166000908152607760205260409020610c87908263ffffffff6125e416565b506000818152607860205260409020610ca6908763ffffffff6125f016565b505b50600101610b2f565b5050505050565b604080516923a0a6a2afa0a226a4a760b11b8152905190819003600a019020610ce1903361175d565b80610cf25750610cf260003361175d565b610d29576040805162461bcd60e51b81526020600482015260036024820152624e474160e81b604482015290519081900360640190fd5b600082815260766020908152604080832084845290915290205415610d89576040805162461bcd60e51b8152602060048201526011602482015270105b1c9958591e48141c9bd8d95cdcd959607a1b604482015290519081900360640190fd5b836001600160a01b031663a9059cbb86856040518363ffffffff1660e01b815260040180836001600160a01b03166001600160a01b0316815260200182815260200192505050602060405180830381600087803b158015610de957600080fd5b505af1158015610dfd573d6000803e3d6000fd5b505050506040513d6020811015610e1357600080fd5b50506040805160c0810182526001600160a01b03808816808352878216602084810191825284860189815260608601898152608087018981524360a08901908152606b805460019081018083556000908152606c88528c81209b518c54908c166001600160a01b0319918216178d559851918c01805492909b1691909816179098559251600289015590516003880155516004870155516005909501949094559154908252606f90925291909120610ed09163ffffffff6125c316565b50606b546000838152607660209081526040808320858452825291829020929092558051838152918201859052805184926001600160a01b0380891693908a16927fc08d2dd931624985405b9682adb057bb2e8f5a4d7b6ca7c30d5dc27a3e56d3f29281900390910190a45050505050565b6000908152606c60205260409020805460018201546002830154600384015460048501546005909501546001600160a01b039485169694909316949193909290565b610f8f60003361175d565b610fc5576040805162461bcd60e51b8152602060048201526002602482015261414f60f01b604482015290519081900360640190fd5b8080610fe957506001600160a01b0383811660009081526075602052604090205416155b61101f576040805162461bcd60e51b81526020600482015260026024820152614e4160f01b604482015290519081900360640190fd5b506001600160a01b03918216600090815260756020526040902080546001600160a01b03191691909216179055565b60009081526033602052604090206002015490565b60008281526033602052604090206002015461108690611081612605565b61175d565b6110c15760405162461bcd60e51b815260040180806020018281038252602f815260200180612d49602f913960400191505060405180910390fd5b6110cb8282612609565b5050565b606060006110dd6072612678565b90508067ffffffffffffffff811180156110f657600080fd5b50604051908082528060200260200182016040528015611120578160200160208202803683370190505b50915060005b8181101561116457600061114160728363ffffffff61268316565b90508084838151811061115057fe5b602090810291909101015250600101611126565b505090565b611171612605565b6001600160a01b0316816001600160a01b0316146111c05760405162461bcd60e51b815260040180806020018281038252602f815260200180612e26602f913960400191505060405180910390fd5b6110cb828261268f565b60008281526076602090815260408083208484529091529020545b92915050565b60685490565b600381565b606060708161120482612678565b67ffffffffffffffff8111801561121a57600080fd5b50604051908082528060200260200182016040528015611244578160200160208202803683370190505b50905060005b815181101561128f57611263838263ffffffff61268316565b82828151811061126f57fe5b6001600160a01b039092166020928302919091019091015260010161124a565b5091505090565b600181565b60009081526069602052604090205460ff1690565b6112bb60003361175d565b6112f1576040805162461bcd60e51b8152602060048201526002602482015261414f60f01b604482015290519081900360640190fd5b60009182526066602052604090912055565b6001600160a01b0381166000908152606f6020526040902060609061132790612678565b67ffffffffffffffff8111801561133d57600080fd5b50604051908082528060200260200182016040528015611367578160200160208202803683370190505b50905060005b6001600160a01b0383166000908152606f6020526040902061138e90612678565b8110156113e0576001600160a01b0383166000908152606f602052604081206113bd908363ffffffff61268316565b9050808383815181106113cc57fe5b60209081029190910101525060010161136d565b50919050565b604080516923a0a6a2afa0a226a4a760b11b8152905190819003600a01902081565b61141360003361175d565b611449576040805162461bcd60e51b8152602060048201526002602482015261414f60f01b604482015290519081900360640190fd5b6000828152606960205260409020805460ff191682158015919091179091556114835761147d60728363ffffffff6125c316565b506110cb565b61149460728363ffffffff6125e416565b505050565b604080516923a0a6a2afa0a226a4a760b11b8152905190819003600a0190206114c2903361175d565b806114d357506114d360003361175d565b61150a576040805162461bcd60e51b81526020600482015260036024820152624e474160e81b604482015290519081900360640190fd5b6000838152606a6020526040902081806115395750600481015460ff166001148015611539575060ff83166002145b806115595750600481015460ff166002148015611559575060ff83166003145b80611567575060ff83166004145b6115b0576040805162461bcd60e51b8152602060048201526015602482015274496e76616c696420737461747573206368616e676560581b604482015290519081900360640190fd5b600401805460ff191660ff93909316929092179091555050565b6001600160a01b03919091166000908152606760209081526040808320938352929052205490565b600081815260786020526040902060609061160c90612678565b67ffffffffffffffff8111801561162257600080fd5b5060405190808252806020026020018201604052801561164c578160200160208202803683370190505b50905060005b600083815260786020526040902061166990612678565b8110156113e057600083815260786020526040812061168e908363ffffffff61268316565b90508083838151811061169d57fe5b6001600160a01b039092166020928302919091019091015250600101611652565b60006111e560708363ffffffff6126fe16565b6116dc60003361175d565b611712576040805162461bcd60e51b8152602060048201526002602482015261414f60f01b604482015290519081900360640190fd5b6001600160a01b0390921660009081526067602090815260408083209383529290522055565b6000828152603360205260408120611756908363ffffffff61268316565b9392505050565b6000828152603360205260408120611756908363ffffffff6126fe16565b6001600160a01b03166000908152606d602052604090205490565b826117a0816116be565b6117d9576040805162461bcd60e51b815260206004820152600560248201526422b93937b960d91b604482015290519081900360640190fd5b6001600160a01b038416600090815260776020526040902084908390611805908263ffffffff6125b716565b61183f576040805162461bcd60e51b81526020600480830191909152602482015263424e533160e01b604482015290519081900360640190fd5b6001600160a01b0380831660009081526075602090815260409182902054825163355319db60e11b81529251931692636aa633b6926004808201939291829003018186803b15801561189057600080fd5b505afa1580156118a4573d6000803e3d6000fd5b505050506040513d60208110156118ba57600080fd5b50516118f6576040805162461bcd60e51b815260206004808301919091526024820152632127299960e11b604482015290519081900360640190fd5b600084815260696020526040902054849060ff1661194f576040805162461bcd60e51b8152602060048201526011602482015270189c9a5919da5b99c8191a5cd8589b1959607a1b604482015290519081900360640190fd5b336000908152606d60209081526040808320548352606a90915290206004015460ff1615806119a05750336000908152606d60209081526040808320548352606a90915290206004015460ff166003145b6119f1576040805162461bcd60e51b815260206004820152601760248201527f43616e6e6f742072657175657374206120627269646765000000000000000000604482015290519081900360640190fd5b60655460ff161515600114611a3f576040805162461bcd60e51b815260206004820152600f60248201526e189c9a5919d948191a5cd8589b1959608a1b604482015290519081900360640190fd5b6001600160a01b0387166000908152606760209081526040808320838052909152902054861015611a9d576040805162461bcd60e51b81526020600482015260036024820152624e413160e81b604482015290519081900360640190fd5b6001600160a01b038716600090815260676020908152604080832060028452909152902054861115611afc576040805162461bcd60e51b815260206004820152600360248201526227209960e91b604482015290519081900360640190fd5b6001600160a01b03808816600090815260756020908152604091829020548251631698a0c560e11b8152336004820152602481018b9052604481018a90529251931692632d31418a926064808201939291829003018186803b158015611b6157600080fd5b505afa158015611b75573d6000803e3d6000fd5b505050506040513d6020811015611b8b57600080fd5b5051611bc4576040805162461bcd60e51b81526020600482015260036024820152624e413360e81b604482015290519081900360640190fd5b6001600160a01b03871660009081526067602090815260408083206003845290915290205460011480611c1a57506001600160a01b0387166000908152607960205260409020611c1a903363ffffffff6126fe16565b611c51576040805162461bcd60e51b815260206004820152600360248201526213904d60ea1b604482015290519081900360640190fd5b6074546001600160a01b0388811660009081526067602090815260408083206001845290915280822054815163466cec3360e01b815233600482015260248101919091529051929093169263466cec33926044808301939282900301818387803b158015611cbe57600080fd5b505af1158015611cd2573d6000803e3d6000fd5b5050604080516323b872dd60e01b8152336004820152306024820152604481018a905290516001600160a01b038b1693506323b872dd925060648083019260209291908290030181600087803b158015611d2b57600080fd5b505af1158015611d3f573d6000803e3d6000fd5b505050506040513d6020811015611d5557600080fd5b50506040805160c081018252338082526001600160a01b038a811660208085019182528486018c8152606086018c81526001608088018181524360a08a019081526068805484018082556000908152606a88528c81209b518c546001600160a01b0319908116918c16919091178d559851948c01805490991694909916939093179096559251600289015590516003880155905160048701805460ff191660ff909216919091179055915160059095019490945554918152606d8352838120829055606e909252919020611e28916125c3565b506068546040805191825260208201889052805187926001600160a01b038b169233927f3d393b967b20450c8036c28e559eea07c3819f685622acf32125e7d68bee25e99281900390910190a450505050505050565b6001600160a01b0381166000908152606e60205260409020606090611ea290612678565b67ffffffffffffffff81118015611eb857600080fd5b50604051908082528060200260200182016040528015611ee2578160200160208202803683370190505b50905060005b6001600160a01b0383166000908152606e60205260409020611f0990612678565b8110156113e0576001600160a01b0383166000908152606e60205260408120611f38908363ffffffff61268316565b905080838381518110611f4757fe5b602090810291909101015250600101611ee8565b611f6660003361175d565b611f9c576040805162461bcd60e51b8152602060048201526002602482015261414f60f01b604482015290519081900360640190fd5b6110cb6001600160a01b038316338363ffffffff61271316565b611fc160003361175d565b611ff7576040805162461bcd60e51b8152602060048201526002602482015261414f60f01b604482015290519081900360640190fd5b6110cb60708263ffffffff6125cf16565b604080516923a0a6a2afa0a226a4a760b11b8152905190819003600a019020612031903361175d565b80612042575061204260003361175d565b612079576040805162461bcd60e51b81526020600482015260036024820152624e474160e81b604482015290519081900360640190fd5b60005b82811015610cb157600084848381811061209257fe5b905060200201356001600160a01b031690508215612137576001600160a01b03861660009081526079602052604090206120d2908263ffffffff6126fe16565b15612109576040805162461bcd60e51b81526020600482015260026024820152614e4160f01b604482015290519081900360640190fd5b6001600160a01b0386166000908152607960205260409020612131908263ffffffff6125cf16565b506121c0565b6001600160a01b038616600090815260796020526040902061215f908263ffffffff6126fe16565b612196576040805162461bcd60e51b815260206004820152600360248201526227209960e91b604482015290519081900360640190fd5b6001600160a01b03861660009081526079602052604090206121be908263ffffffff6125f016565b505b5060010161207c565b6074546001600160a01b031681565b600054610100900460ff16806121f157506121f1612765565b806121ff575060005460ff16155b61223a5760405162461bcd60e51b815260040180806020018281038252602e815260200180612dce602e913960400191505060405180910390fd5b600054610100900460ff16158015612265576000805460ff1961ff0019909116610100171660011790555b61226d612776565b6122786000336110c1565b607480546001600160a01b0319166001600160a01b03841617905580156110cb576000805461ff00191690555050565b60008181526033602052604081206111e590612678565b600481565b6001600160a01b03811660009081526079602052604090206060906122e890612678565b67ffffffffffffffff811180156122fe57600080fd5b50604051908082528060200260200182016040528015612328578160200160208202803683370190505b50905060005b6001600160a01b038316600090815260796020526040902061234f90612678565b8110156113e0576001600160a01b038316600090815260796020526040812061237e908363ffffffff61268316565b90508083838151811061238d57fe5b6001600160a01b03909216602092830291909101909101525060010161232e565b6000828152603360205260409020600201546123cc90611081612605565b6111c05760405162461bcd60e51b8152600401808060200182810382526030815260200180612d9e6030913960400191505060405180910390fd5b60655460ff1690565b6000908152606a60205260409020805460018201546002830154600384015460048501546005909501546001600160a01b039485169694909316949193909260ff9092169190565b61246360003361175d565b612499576040805162461bcd60e51b8152602060048201526002602482015261414f60f01b604482015290519081900360640190fd5b6110cb60708263ffffffff6125f016565b6001600160a01b03811660009081526077602052604090206060906124ce90612678565b67ffffffffffffffff811180156124e457600080fd5b5060405190808252806020026020018201604052801561250e578160200160208202803683370190505b50905060005b6001600160a01b038316600090815260776020526040902061253590612678565b8110156113e0576001600160a01b0383166000908152607760205260408120612564908363ffffffff61268316565b90508083838151811061257357fe5b602090810291909101015250600101612514565b60009081526066602052604090205490565b6001600160a01b039081166000908152607560205260409020541690565b60006117568383612828565b60006117568383612840565b6000611756836001600160a01b038416612840565b6000611756838361288a565b6000611756836001600160a01b03841661288a565b3390565b6000828152603360205260409020612627908263ffffffff6125cf16565b156110cb57612634612605565b6001600160a01b0316816001600160a01b0316837f2f8788117e7eff1d82e926ec794901d17c78024a50270940304540a733656f0d60405160405180910390a45050565b60006111e582612950565b60006117568383612954565b60008281526033602052604090206126ad908263ffffffff6125f016565b156110cb576126ba612605565b6001600160a01b0316816001600160a01b0316837ff6391f5c32d9c69d2a47ea670b442974b53935d1edc7fd64eb21e047a839171b60405160405180910390a45050565b6000611756836001600160a01b038416612828565b604080516001600160a01b038416602482015260448082018490528251808303909101815260649091019091526020810180516001600160e01b031663a9059cbb60e01b1790526114949084906129b8565b600061277030612a69565b15905090565b600054610100900460ff168061278f575061278f612765565b8061279d575060005460ff16155b6127d85760405162461bcd60e51b815260040180806020018281038252602e815260200180612dce602e913960400191505060405180910390fd5b600054610100900460ff16158015612803576000805460ff1961ff0019909116610100171660011790555b61280b612a6f565b612813612a6f565b8015612825576000805461ff00191690555b50565b60009081526001919091016020526040902054151590565b600061284c8383612828565b612882575081546001818101845560008481526020808220909301849055845484825282860190935260409020919091556111e5565b5060006111e5565b6000818152600183016020526040812054801561294657835460001980830191908101906000908790839081106128bd57fe5b90600052602060002001549050808760000184815481106128da57fe5b60009182526020808320909101929092558281526001898101909252604090209084019055865487908061290a57fe5b600190038181906000526020600020016000905590558660010160008781526020019081526020016000206000905560019450505050506111e5565b60009150506111e5565b5490565b815460009082106129965760405162461bcd60e51b8152600401808060200182810382526022815260200180612d276022913960400191505060405180910390fd5b8260000182815481106129a557fe5b9060005260206000200154905092915050565b6060612a0d826040518060400160405280602081526020017f5361666545524332303a206c6f772d6c6576656c2063616c6c206661696c6564815250856001600160a01b0316612b0f9092919063ffffffff16565b80519091501561149457808060200190516020811015612a2c57600080fd5b50516114945760405162461bcd60e51b815260040180806020018281038252602a815260200180612dfc602a913960400191505060405180910390fd5b3b151590565b600054610100900460ff1680612a885750612a88612765565b80612a96575060005460ff16155b612ad15760405162461bcd60e51b815260040180806020018281038252602e815260200180612dce602e913960400191505060405180910390fd5b600054610100900460ff16158015612813576000805460ff1961ff0019909116610100171660011790558015612825576000805461ff001916905550565b6060612b1e8484600085612b26565b949350505050565b606082471015612b675760405162461bcd60e51b8152600401808060200182810382526026815260200180612d786026913960400191505060405180910390fd5b612b7085612a69565b612bc1576040805162461bcd60e51b815260206004820152601d60248201527f416464726573733a2063616c6c20746f206e6f6e2d636f6e7472616374000000604482015290519081900360640190fd5b60006060866001600160a01b031685876040518082805190602001908083835b60208310612c005780518252601f199092019160209182019101612be1565b6001836020036101000a03801982511681845116808217855250505050505090500191505060006040518083038185875af1925050503d8060008114612c62576040519150601f19603f3d011682016040523d82523d6000602084013e612c67565b606091505b5091509150612c77828286612c82565b979650505050505050565b60608315612c91575081611756565b825115612ca15782518084602001fd5b8160405162461bcd60e51b81526004018080602001828103825283818151815260200191508051906020019080838360005b83811015612ceb578181015183820152602001612cd3565b50505050905090810190601f168015612d185780820380516001836020036101000a031916815260200191505b509250505060405180910390fdfe456e756d657261626c655365743a20696e646578206f7574206f6620626f756e6473416363657373436f6e74726f6c3a2073656e646572206d75737420626520616e2061646d696e20746f206772616e74416464726573733a20696e73756666696369656e742062616c616e636520666f722063616c6c416363657373436f6e74726f6c3a2073656e646572206d75737420626520616e2061646d696e20746f207265766f6b65496e697469616c697a61626c653a20636f6e747261637420697320616c726561647920696e697469616c697a65645361666545524332303a204552433230206f7065726174696f6e20646964206e6f742073756363656564416363657373436f6e74726f6c3a2063616e206f6e6c792072656e6f756e636520726f6c657320666f722073656c66a264697066735822122091f1ab887fa214eae10304ebe5c3a1ea49c5005c6f07b7e6d564b4c74afb9e0864736f6c63430006050033",
  "immutableReferences": {},
  "source": "pragma solidity ^0.6.0;\n\nimport \"@openzeppelin/contracts-upgradeable/proxy/Initializable.sol\";\nimport \"@openzeppelin/contracts-upgradeable/access/AccessControlUpgradeable.sol\";\nimport \"@openzeppelin/contracts/utils/EnumerableSet.sol\";\nimport \"@openzeppelin/contracts/token/ERC20/IERC20.sol\";\nimport \"@openzeppelin/contracts/token/ERC20/SafeERC20.sol\";\nimport \"./cryptoblades.sol\";\nimport \"./interfaces/IERC20BridgeProxy.sol\";\n\ncontract ERC20Bridge is Initializable, AccessControlUpgradeable\n{\n    using SafeERC20 for IERC20;\n    using EnumerableSet for EnumerableSet.UintSet;\n    using EnumerableSet for EnumerableSet.AddressSet;\n\n    bytes32 public constant GAME_ADMIN = keccak256(\"GAME_ADMIN\");\n   \n    bool private _erc20BridgeEnabled;\n\n    uint8 public constant BRIDGE_TOKEN_VAR_MIN_AMOUNT_INDEX = 0; // can't request bridge less than this value; value is in wei\n    uint8 public constant BRIDGE_TOKEN_VAR_FEE_INDEX = 1;\n    uint8 public constant BRIDGE_TOKEN_VAR_MAX_AMOUNT_INDEX = 2; // can't request bridge greater than this value; value is in wei\n    uint8 public constant BRIDGE_TOKEN_VAR_OPEN_TO_PUBLIC = 3; // token is public or whitelisted only\n\n    mapping(uint256 => uint256) private _bridgeVars;\n    mapping(address => mapping(uint256 => uint256)) private _bridgeTokenVars;\n\n    uint8 public constant TRANSFER_OUT_STATUS_NONE = 0;\n    uint8 public constant TRANSFER_OUT_STATUS_PENDING = 1;\n    uint8 public constant TRANSFER_OUT_STATUS_PROCESSING = 2;\n    uint8 public constant TRANSFER_OUT_STATUS_DONE = 3;\n    uint8 public constant TRANSFER_OUT_STATUS_ERROR = 4;\n\n    struct ERC20BridgeOutRequests {\n        address owner;\n        address erc20Address;\n        uint256 amount;\n\n        uint256 chainId;\n        uint8 status; // enumeration. 0 => nothing, 1 => transfer requested, 2 => processing, 3 => done\n\n        uint256 blockNumber;\n    }\n\n    struct ERC20BridgeReceivedTokens {\n        address owner;\n        address erc20Address;\n        uint256 amount;\n\n        uint256 sourceChain;\n        uint256 sourceTransferId;\n\n        uint256 blockNumber;\n    }\n\n\n    uint256 private _transfersOutCount;\n    mapping(uint256 => bool) private _bridgeEnabled; // Which chain can we go to from here?\n    mapping(uint256 => ERC20BridgeOutRequests) private _transferOuts;\n\n    uint256 private _transferInsCount;\n    mapping(uint256 => ERC20BridgeReceivedTokens) private _transferIns;\n\n    // Player stuff\n    // Player => bridgeTransferId\n    mapping(address => uint256) private _transferOutOfPlayers;\n    mapping(address => EnumerableSet.UintSet) private _transferOutOfPlayersHistory;\n    mapping(address => EnumerableSet.UintSet) private _transferInOfPlayersHistory;\n\n    // address is IERC20\n    EnumerableSet.AddressSet private _supportedTokenTypes;\n    EnumerableSet.UintSet private _supportedChains;\n\n    CryptoBlades public game;\n\n    // Proxy contracts\n    mapping(address => address) private _erc20ProxyContract;\n    // Source chain => transfer out id of source chain => transfer in id\n    mapping(uint256 => mapping(uint256 => uint256)) private _botLog;\n    // ERC20 => allowed networks to bridge into\n    mapping(address => EnumerableSet.UintSet) private _erc20AllowedChains;\n    // Target network => allowed ERC20s\n    mapping(uint256 => EnumerableSet.AddressSet) private _targetChainAllowedERC20s;\n\n    // Whitelisted wallets\n    mapping(address => EnumerableSet.AddressSet) private _whitelistedWallets;\n\n    event BridgeIn(address indexed receiver, address indexed erc20, uint256 indexed sourceChain, uint256 sourceId, uint256 amount);\n    event BridgeOut(address indexed sender, address indexed erc20, uint256 indexed destinationChain, uint256 requestId, uint256 amount);\n\n    function initialize(CryptoBlades _game)\n        public\n        initializer\n    {\n        __AccessControl_init();\n\n        _setupRole(DEFAULT_ADMIN_ROLE, msg.sender);\n\n        game = _game;\n    }\n\n    modifier restricted() {\n        require(hasRole(DEFAULT_ADMIN_ROLE, msg.sender), \"AO\");\n        _;\n    }\n\n    modifier gameAdminRestricted() {\n        require(hasRole(GAME_ADMIN, msg.sender) || hasRole(DEFAULT_ADMIN_ROLE, msg.sender), \"NGA\");\n        _;\n    }\n\n    modifier tokenNotBanned(IERC20 _tokenAddress) {\n        require(\n            isTokenSupported(_tokenAddress),\n            \"Error\"\n        );\n        _;\n    }\n\n     modifier canBridge() {\n         require(\n            _erc20BridgeEnabled == true,\n            \"bridge disabled\"\n        );\n        _;\n    }\n\n     modifier bridgeEnabled(uint256 targetChain) {\n         require(\n            _bridgeEnabled[targetChain],\n            \"bridging disabled\"\n        );\n        _;\n    }\n\n    modifier noPendingBridge() {\n         require(\n            _transferOuts[_transferOutOfPlayers[msg.sender]].status == TRANSFER_OUT_STATUS_NONE\n            || _transferOuts[_transferOutOfPlayers[msg.sender]].status == TRANSFER_OUT_STATUS_DONE,\n            \"Cannot request a bridge\"\n        );\n        _;\n    }\n\n    modifier bridgeSupported(IERC20 _tokenAddress, uint256 targetChain) {\n        require(_erc20AllowedChains[address(_tokenAddress)].contains(targetChain), \"BNS1\"); // We support bridging from this chain to that chain\n        require(IERC20BridgeProxy(_erc20ProxyContract[address(_tokenAddress)]).isEnabled(), \"BNS2\");\n        _;\n    }\n    \n    function isTokenSupported(IERC20 _tokenAddress) public view returns (bool) {\n        return _supportedTokenTypes.contains(address(_tokenAddress));\n    }\n\n    function getSupportedTokenTypes() public view returns (IERC20[] memory) {\n        EnumerableSet.AddressSet storage set = _supportedTokenTypes;\n        IERC20[] memory tokens = new IERC20[](set.length());\n\n        for (uint256 i = 0; i < tokens.length; i++) {\n            tokens[i] = IERC20(set.at(i));\n        }\n        return tokens;\n    }\n\n    function allowToken(IERC20 _tokenAddress) public restricted {\n        _supportedTokenTypes.add(address(_tokenAddress));\n    }\n\n    function disallowToken(IERC20 _tokenAddress) public restricted {\n        _supportedTokenTypes.remove(address(_tokenAddress));\n    }\n\n    function bridgeIsEnabled() public view returns (bool) {\n        return _erc20BridgeEnabled;\n    }\n\n    function setBridgeEnabled(bool enabled) public restricted {\n        _erc20BridgeEnabled = enabled;\n    }\n\n    // bridge stuff\n    function chainBridgeEnabled(uint256 chainId) public view returns (bool) {\n        return _bridgeEnabled[chainId];\n    }\n\n    function getEnabledChainsForBridging() public view  returns (uint256[] memory chainIds) {\n        uint256 amount = _supportedChains.length();\n        chainIds = new uint256[](amount);\n\n        for (uint256 i = 0; i < amount; i++) {\n            uint256 id = _supportedChains.at(i);\n                chainIds[i] = id;\n        }\n    }\n\n\n    function toggleChainBridgeEnabled(uint256 chainId, bool enable) public restricted {\n        _bridgeEnabled[chainId] = enable;\n\n        if(enable) {\n            _supportedChains.add(chainId);\n        } else {\n            _supportedChains.remove(chainId);\n        }\n    }\n\n    // Player requests to bridge an erc20\n    function bridgeOutToken(\n        address _tokenAddress,\n        uint256 _amount,\n        uint256 targetChain\n    )\n        public\n        tokenNotBanned(IERC20(_tokenAddress))\n        bridgeSupported(IERC20(_tokenAddress), targetChain)\n        bridgeEnabled(targetChain)\n        noPendingBridge()\n        canBridge()\n    {\n        require(_amount >= _bridgeTokenVars[_tokenAddress][BRIDGE_TOKEN_VAR_MIN_AMOUNT_INDEX], \"NA1\");\n        require(_amount <= _bridgeTokenVars[_tokenAddress][BRIDGE_TOKEN_VAR_MAX_AMOUNT_INDEX], \"NA2\");\n        require(IERC20BridgeProxy(_erc20ProxyContract[_tokenAddress]).canBridge(msg.sender, _amount, targetChain), \"NA3\");\n        require(_bridgeTokenVars[_tokenAddress][BRIDGE_TOKEN_VAR_OPEN_TO_PUBLIC] == 1 \n                            || _whitelistedWallets[_tokenAddress].contains(msg.sender), \"NA4\");\n\n        game.payContractTokenOnly(msg.sender, _bridgeTokenVars[_tokenAddress][BRIDGE_TOKEN_VAR_FEE_INDEX]);\n        IERC20(_tokenAddress).transferFrom(msg.sender, address(this), _amount);\n        \n        _transferOuts[++_transfersOutCount] = ERC20BridgeOutRequests(msg.sender, _tokenAddress, _amount, targetChain, TRANSFER_OUT_STATUS_PENDING, block.number);\n        _transferOutOfPlayers[msg.sender] = _transfersOutCount;\n        _transferOutOfPlayersHistory[msg.sender].add(_transfersOutCount);\n\n        emit BridgeOut(msg.sender, _tokenAddress, targetChain, _transfersOutCount, _amount);\n    }\n\n    function bridgeInToken(\n        address receiver,\n        address _tokenAddress,\n        uint256 _amount,\n        uint256 sourceChain,\n        uint256 sourceTransferId\n    ) public gameAdminRestricted\n    {\n        require(_botLog[sourceChain][sourceTransferId] == 0, \"Already Processed\");\n        IERC20(_tokenAddress).transfer(receiver, _amount);\n        _transferIns[++_transferInsCount] = ERC20BridgeReceivedTokens(receiver, _tokenAddress, _amount, sourceChain, sourceTransferId, block.number);\n        _transferInOfPlayersHistory[receiver].add(_transferInsCount);\n        _botLog[sourceChain][sourceTransferId] = _transferInsCount;\n        emit BridgeIn(receiver, _tokenAddress, sourceChain, sourceTransferId, _amount);\n    }\n    \n    function getBridgeTransfers() public view returns (uint256) {\n        return _transfersOutCount;\n    }\n\n    function getBridgeVal(uint256 index) public view returns (uint256) {\n        return  _bridgeVars[index];\n    }\n\n    function setBridgeVal(uint256 index, uint256 value) public restricted {\n        _bridgeVars[index] = value;\n    }\n\n    function getTokenBridgeVal(IERC20 token, uint256 index) public view returns (uint256) {\n        return  _bridgeTokenVars[address(token)][index];\n    }\n\n    function setTokenBridgeVal(IERC20 token, uint256 index, uint256 value) public restricted {\n        _bridgeTokenVars[address(token)][index] = value;\n    }\n\n    function getBridgeTransferOfPlayer(address player) public view returns (uint256) {\n        return _transferOutOfPlayers[player];\n    }\n\n    function getBridgeOutTransferOfPlayerHistory(address player)  public view returns (uint256[] memory history) {\n        history = new uint256[](_transferOutOfPlayersHistory[player].length());\n\n        for (uint256 i = 0; i < _transferOutOfPlayersHistory[player].length(); i++) {\n            uint256 id = _transferOutOfPlayersHistory[player].at(i);\n                history[i] = id;\n        }\n    }\n\n    function getBridgeInTransferOfPlayerHistory(address player)  public view returns (uint256[] memory history) {\n        history = new uint256[](_transferInOfPlayersHistory[player].length());\n\n        for (uint256 i = 0; i < _transferInOfPlayersHistory[player].length(); i++) {\n            uint256 id = _transferInOfPlayersHistory[player].at(i);\n                history[i] = id;\n        }\n    }\n\n    function getBridgeOutTransfer(uint256 bridgeTransferId) public view returns (address, address, uint256, uint256, uint8, uint256) {\n        ERC20BridgeOutRequests storage transferOut = _transferOuts[bridgeTransferId];\n        return (transferOut.owner,\n                transferOut.erc20Address,\n                transferOut.amount,\n                transferOut.chainId,\n                transferOut.status,\n                transferOut.blockNumber);\n    }\n\n    function getBridgeInTransfer(uint256 bridgeTransferId) public view returns (address, address, uint256, uint256, uint256, uint256) {\n        ERC20BridgeReceivedTokens storage transferIn = _transferIns[bridgeTransferId];\n        return (transferIn.owner,\n                transferIn.erc20Address,\n                transferIn.amount,\n                transferIn.sourceChain,\n                transferIn.sourceTransferId,\n                transferIn.blockNumber);\n    }\n\n    // Bot to update status of a transfer request (this chain => outside chain)\n    function updateBridgeTransferStatus(uint256 bridgeTransferId, uint8 status, bool forced) public gameAdminRestricted {\n        ERC20BridgeOutRequests storage transferOut = _transferOuts[bridgeTransferId];\n        require(forced ||\n        (transferOut.status == TRANSFER_OUT_STATUS_PENDING && status == TRANSFER_OUT_STATUS_PROCESSING)\n        || (transferOut.status == TRANSFER_OUT_STATUS_PROCESSING && status == TRANSFER_OUT_STATUS_DONE)\n        || status == TRANSFER_OUT_STATUS_ERROR, 'Invalid status change');\n        transferOut.status = status;\n    }\n\n     function getTransferInFromLog(uint256 sourceChain, uint256 sourceTransferId) public view returns (uint256) {\n        return _botLog[sourceChain][sourceTransferId];\n    }\n\n    function setProxyContract(address token, address proxy, bool forced) external restricted {\n        require(forced || _erc20ProxyContract[token] == address(0), \"NA\");\n        _erc20ProxyContract[token] = proxy;\n    }\n\n    function getProxyContract(address token) public view returns (address) {\n        return _erc20ProxyContract[token];\n    }\n\n    function setChainSupportedForERC20(address token, uint256[] calldata chainIds, bool support) external restricted {\n        for (uint256 i = 0; i < chainIds.length; i++) {\n            uint256 chainId = chainIds[i];\n            if(support) {\n                require(!_erc20AllowedChains[token].contains(chainId), \"NA\");\n                _erc20AllowedChains[token].add(chainId);\n                _targetChainAllowedERC20s[chainId].add(token);\n            } else {\n                require(_erc20AllowedChains[token].contains(chainId), \"NA2\");\n                _erc20AllowedChains[token].remove(chainId);\n                _targetChainAllowedERC20s[chainId].remove(token);\n            }\n        }\n    }\n\n    function getChainsSupportingERCs(address token) public view returns (uint256[] memory chains) {\n        chains = new uint256[](_erc20AllowedChains[token].length());\n\n        for (uint256 i = 0; i < _erc20AllowedChains[token].length(); i++) {\n            uint256 id = _erc20AllowedChains[token].at(i);\n                chains[i] = id;\n        }\n    }\n\n    function getERCsSupportedByChain(uint256 chain) public view returns (address[] memory tokens) {\n        tokens = new address[](_targetChainAllowedERC20s[chain].length());\n\n        for (uint256 i = 0; i < _targetChainAllowedERC20s[chain].length(); i++) {\n            address token = _targetChainAllowedERC20s[chain].at(i);\n                tokens[i] = token;\n        }\n    }\n\n    function recoverToken(address token, uint256 amount) public restricted {\n        IERC20(token).safeTransfer(msg.sender, amount);\n    }\n\n\n    function updateWhitelistedWallets(address token, address[] calldata wallets, bool enable) external gameAdminRestricted {\n        for (uint256 i = 0; i < wallets.length; i++) {\n            address wallet = wallets[i];\n            if(enable) {\n                require(!_whitelistedWallets[token].contains(wallet), \"NA\");\n                _whitelistedWallets[token].add(wallet);\n            } else {\n                require(_whitelistedWallets[token].contains(wallet), \"NA2\");\n                _whitelistedWallets[token].remove(wallet);\n            }\n        }\n    }\n\n    function getWhitelistedWallets(address token) public view returns (address[] memory wallets) {\n        wallets = new address[](_whitelistedWallets[token].length());\n\n        for (uint256 i = 0; i < _whitelistedWallets[token].length(); i++) {\n            address wallet = _whitelistedWallets[token].at(i);\n                wallets[i] = wallet;\n        }\n    }\n}\n",
  "sourcePath": "/mnt/e/work/cryptoblades/contracts/ERC20Bridge.sol",
  "compiler": {
    "name": "solc",
    "version": "0.6.5+commit.f956cc89.Emscripten.clang"
  },
  "schemaVersion": "3.3.4",
  "updatedAt": "2023-01-24T17:45:31.241Z",
  "devdoc": {
    "methods": {
      "getRoleAdmin(bytes32)": {
        "details": "Returns the admin role that controls `role`. See {grantRole} and {revokeRole}.     * To change a role's admin, use {_setRoleAdmin}."
      },
      "getRoleMember(bytes32,uint256)": {
        "details": "Returns one of the accounts that have `role`. `index` must be a value between 0 and {getRoleMemberCount}, non-inclusive.     * Role bearers are not sorted in any particular way, and their ordering may change at any point.     * WARNING: When using {getRoleMember} and {getRoleMemberCount}, make sure you perform all queries on the same block. See the following https://forum.openzeppelin.com/t/iterating-over-elements-on-enumerableset-in-openzeppelin-contracts/2296[forum post] for more information."
      },
      "getRoleMemberCount(bytes32)": {
        "details": "Returns the number of accounts that have `role`. Can be used together with {getRoleMember} to enumerate all bearers of a role."
      },
      "grantRole(bytes32,address)": {
        "details": "Grants `role` to `account`.     * If `account` had not been already granted `role`, emits a {RoleGranted} event.     * Requirements:     * - the caller must have ``role``'s admin role."
      },
      "hasRole(bytes32,address)": {
        "details": "Returns `true` if `account` has been granted `role`."
      },
      "renounceRole(bytes32,address)": {
        "details": "Revokes `role` from the calling account.     * Roles are often managed via {grantRole} and {revokeRole}: this function's purpose is to provide a mechanism for accounts to lose their privileges if they are compromised (such as when a trusted device is misplaced).     * If the calling account had been granted `role`, emits a {RoleRevoked} event.     * Requirements:     * - the caller must be `account`."
      },
      "revokeRole(bytes32,address)": {
        "details": "Revokes `role` from `account`.     * If `account` had been granted `role`, emits a {RoleRevoked} event.     * Requirements:     * - the caller must have ``role``'s admin role."
      }
    }
  },
  "userdoc": {
    "methods": {}
  }
}