{
  "contractName": "Junk",
  "abi": [
    {
      "anonymous": false,
      "inputs": [
        {
          "indexed": true,
          "internalType": "address",
          "name": "owner",
          "type": "address"
        },
        {
          "indexed": true,
          "internalType": "address",
          "name": "approved",
          "type": "address"
        },
        {
          "indexed": true,
          "internalType": "uint256",
          "name": "tokenId",
          "type": "uint256"
        }
      ],
      "name": "Approval",
      "type": "event"
    },
    {
      "anonymous": false,
      "inputs": [
        {
          "indexed": true,
          "internalType": "address",
          "name": "owner",
          "type": "address"
        },
        {
          "indexed": true,
          "internalType": "address",
          "name": "operator",
          "type": "address"
        },
        {
          "indexed": false,
          "internalType": "bool",
          "name": "approved",
          "type": "bool"
        }
      ],
      "name": "ApprovalForAll",
      "type": "event"
    },
    {
      "anonymous": false,
      "inputs": [
        {
          "indexed": true,
          "internalType": "uint256",
          "name": "id",
          "type": "uint256"
        },
        {
          "indexed": true,
          "internalType": "address",
          "name": "burner",
          "type": "address"
        }
      ],
      "name": "Burned",
      "type": "event"
    },
    {
      "anonymous": false,
      "inputs": [
        {
          "indexed": true,
          "internalType": "uint256",
          "name": "id",
          "type": "uint256"
        },
        {
          "indexed": true,
          "internalType": "address",
          "name": "minter",
          "type": "address"
        }
      ],
      "name": "Minted",
      "type": "event"
    },
    {
      "anonymous": false,
      "inputs": [
        {
          "indexed": true,
          "internalType": "bytes32",
          "name": "role",
          "type": "bytes32"
        },
        {
          "indexed": true,
          "internalType": "bytes32",
          "name": "previousAdminRole",
          "type": "bytes32"
        },
        {
          "indexed": true,
          "internalType": "bytes32",
          "name": "newAdminRole",
          "type": "bytes32"
        }
      ],
      "name": "RoleAdminChanged",
      "type": "event"
    },
    {
      "anonymous": false,
      "inputs": [
        {
          "indexed": true,
          "internalType": "bytes32",
          "name": "role",
          "type": "bytes32"
        },
        {
          "indexed": true,
          "internalType": "address",
          "name": "account",
          "type": "address"
        },
        {
          "indexed": true,
          "internalType": "address",
          "name": "sender",
          "type": "address"
        }
      ],
      "name": "RoleGranted",
      "type": "event"
    },
    {
      "anonymous": false,
      "inputs": [
        {
          "indexed": true,
          "internalType": "bytes32",
          "name": "role",
          "type": "bytes32"
        },
        {
          "indexed": true,
          "internalType": "address",
          "name": "account",
          "type": "address"
        },
        {
          "indexed": true,
          "internalType": "address",
          "name": "sender",
          "type": "address"
        }
      ],
      "name": "RoleRevoked",
      "type": "event"
    },
    {
      "anonymous": false,
      "inputs": [
        {
          "indexed": true,
          "internalType": "address",
          "name": "from",
          "type": "address"
        },
        {
          "indexed": true,
          "internalType": "address",
          "name": "to",
          "type": "address"
        },
        {
          "indexed": true,
          "internalType": "uint256",
          "name": "tokenId",
          "type": "uint256"
        }
      ],
      "name": "Transfer",
      "type": "event"
    },
    {
      "inputs": [],
      "name": "DEFAULT_ADMIN_ROLE",
      "outputs": [
        {
          "internalType": "bytes32",
          "name": "",
          "type": "bytes32"
        }
      ],
      "stateMutability": "view",
      "type": "function"
    },
    {
      "inputs": [],
      "name": "GAME_ADMIN",
      "outputs": [
        {
          "internalType": "bytes32",
          "name": "",
          "type": "bytes32"
        }
      ],
      "stateMutability": "view",
      "type": "function"
    },
    {
      "inputs": [
        {
          "internalType": "address",
          "name": "to",
          "type": "address"
        },
        {
          "internalType": "uint256",
          "name": "tokenId",
          "type": "uint256"
        }
      ],
      "name": "approve",
      "outputs": [],
      "stateMutability": "nonpayable",
      "type": "function"
    },
    {
      "inputs": [
        {
          "internalType": "address",
          "name": "owner",
          "type": "address"
        }
      ],
      "name": "balanceOf",
      "outputs": [
        {
          "internalType": "uint256",
          "name": "",
          "type": "uint256"
        }
      ],
      "stateMutability": "view",
      "type": "function"
    },
    {
      "inputs": [],
      "name": "baseURI",
      "outputs": [
        {
          "internalType": "string",
          "name": "",
          "type": "string"
        }
      ],
      "stateMutability": "view",
      "type": "function"
    },
    {
      "inputs": [
        {
          "internalType": "uint256",
          "name": "tokenId",
          "type": "uint256"
        }
      ],
      "name": "getApproved",
      "outputs": [
        {
          "internalType": "address",
          "name": "",
          "type": "address"
        }
      ],
      "stateMutability": "view",
      "type": "function"
    },
    {
      "inputs": [
        {
          "internalType": "bytes32",
          "name": "role",
          "type": "bytes32"
        }
      ],
      "name": "getRoleAdmin",
      "outputs": [
        {
          "internalType": "bytes32",
          "name": "",
          "type": "bytes32"
        }
      ],
      "stateMutability": "view",
      "type": "function"
    },
    {
      "inputs": [
        {
          "internalType": "bytes32",
          "name": "role",
          "type": "bytes32"
        },
        {
          "internalType": "uint256",
          "name": "index",
          "type": "uint256"
        }
      ],
      "name": "getRoleMember",
      "outputs": [
        {
          "internalType": "address",
          "name": "",
          "type": "address"
        }
      ],
      "stateMutability": "view",
      "type": "function"
    },
    {
      "inputs": [
        {
          "internalType": "bytes32",
          "name": "role",
          "type": "bytes32"
        }
      ],
      "name": "getRoleMemberCount",
      "outputs": [
        {
          "internalType": "uint256",
          "name": "",
          "type": "uint256"
        }
      ],
      "stateMutability": "view",
      "type": "function"
    },
    {
      "inputs": [
        {
          "internalType": "bytes32",
          "name": "role",
          "type": "bytes32"
        },
        {
          "internalType": "address",
          "name": "account",
          "type": "address"
        }
      ],
      "name": "grantRole",
      "outputs": [],
      "stateMutability": "nonpayable",
      "type": "function"
    },
    {
      "inputs": [
        {
          "internalType": "bytes32",
          "name": "role",
          "type": "bytes32"
        },
        {
          "internalType": "address",
          "name": "account",
          "type": "address"
        }
      ],
      "name": "hasRole",
      "outputs": [
        {
          "internalType": "bool",
          "name": "",
          "type": "bool"
        }
      ],
      "stateMutability": "view",
      "type": "function"
    },
    {
      "inputs": [
        {
          "internalType": "address",
          "name": "owner",
          "type": "address"
        },
        {
          "internalType": "address",
          "name": "operator",
          "type": "address"
        }
      ],
      "name": "isApprovedForAll",
      "outputs": [
        {
          "internalType": "bool",
          "name": "",
          "type": "bool"
        }
      ],
      "stateMutability": "view",
      "type": "function"
    },
    {
      "inputs": [],
      "name": "name",
      "outputs": [
        {
          "internalType": "string",
          "name": "",
          "type": "string"
        }
      ],
      "stateMutability": "view",
      "type": "function"
    },
    {
      "inputs": [],
      "name": "nextTokenID",
      "outputs": [
        {
          "internalType": "uint256",
          "name": "",
          "type": "uint256"
        }
      ],
      "stateMutability": "view",
      "type": "function"
    },
    {
      "inputs": [
        {
          "internalType": "uint256",
          "name": "tokenId",
          "type": "uint256"
        }
      ],
      "name": "ownerOf",
      "outputs": [
        {
          "internalType": "address",
          "name": "",
          "type": "address"
        }
      ],
      "stateMutability": "view",
      "type": "function"
    },
    {
      "inputs": [],
      "name": "promos",
      "outputs": [
        {
          "internalType": "contract Promos",
          "name": "",
          "type": "address"
        }
      ],
      "stateMutability": "view",
      "type": "function"
    },
    {
      "inputs": [
        {
          "internalType": "bytes32",
          "name": "role",
          "type": "bytes32"
        },
        {
          "internalType": "address",
          "name": "account",
          "type": "address"
        }
      ],
      "name": "renounceRole",
      "outputs": [],
      "stateMutability": "nonpayable",
      "type": "function"
    },
    {
      "inputs": [
        {
          "internalType": "bytes32",
          "name": "role",
          "type": "bytes32"
        },
        {
          "internalType": "address",
          "name": "account",
          "type": "address"
        }
      ],
      "name": "revokeRole",
      "outputs": [],
      "stateMutability": "nonpayable",
      "type": "function"
    },
    {
      "inputs": [
        {
          "internalType": "address",
          "name": "from",
          "type": "address"
        },
        {
          "internalType": "address",
          "name": "to",
          "type": "address"
        },
        {
          "internalType": "uint256",
          "name": "tokenId",
          "type": "uint256"
        }
      ],
      "name": "safeTransferFrom",
      "outputs": [],
      "stateMutability": "nonpayable",
      "type": "function"
    },
    {
      "inputs": [
        {
          "internalType": "address",
          "name": "from",
          "type": "address"
        },
        {
          "internalType": "address",
          "name": "to",
          "type": "address"
        },
        {
          "internalType": "uint256",
          "name": "tokenId",
          "type": "uint256"
        },
        {
          "internalType": "bytes",
          "name": "_data",
          "type": "bytes"
        }
      ],
      "name": "safeTransferFrom",
      "outputs": [],
      "stateMutability": "nonpayable",
      "type": "function"
    },
    {
      "inputs": [
        {
          "internalType": "address",
          "name": "operator",
          "type": "address"
        },
        {
          "internalType": "bool",
          "name": "approved",
          "type": "bool"
        }
      ],
      "name": "setApprovalForAll",
      "outputs": [],
      "stateMutability": "nonpayable",
      "type": "function"
    },
    {
      "inputs": [
        {
          "internalType": "bytes4",
          "name": "interfaceId",
          "type": "bytes4"
        }
      ],
      "name": "supportsInterface",
      "outputs": [
        {
          "internalType": "bool",
          "name": "",
          "type": "bool"
        }
      ],
      "stateMutability": "view",
      "type": "function"
    },
    {
      "inputs": [],
      "name": "symbol",
      "outputs": [
        {
          "internalType": "string",
          "name": "",
          "type": "string"
        }
      ],
      "stateMutability": "view",
      "type": "function"
    },
    {
      "inputs": [
        {
          "internalType": "uint256",
          "name": "index",
          "type": "uint256"
        }
      ],
      "name": "tokenByIndex",
      "outputs": [
        {
          "internalType": "uint256",
          "name": "",
          "type": "uint256"
        }
      ],
      "stateMutability": "view",
      "type": "function"
    },
    {
      "inputs": [
        {
          "internalType": "address",
          "name": "owner",
          "type": "address"
        },
        {
          "internalType": "uint256",
          "name": "index",
          "type": "uint256"
        }
      ],
      "name": "tokenOfOwnerByIndex",
      "outputs": [
        {
          "internalType": "uint256",
          "name": "",
          "type": "uint256"
        }
      ],
      "stateMutability": "view",
      "type": "function"
    },
    {
      "inputs": [
        {
          "internalType": "uint256",
          "name": "",
          "type": "uint256"
        }
      ],
      "name": "tokenStars",
      "outputs": [
        {
          "internalType": "uint8",
          "name": "",
          "type": "uint8"
        }
      ],
      "stateMutability": "view",
      "type": "function"
    },
    {
      "inputs": [
        {
          "internalType": "uint256",
          "name": "tokenId",
          "type": "uint256"
        }
      ],
      "name": "tokenURI",
      "outputs": [
        {
          "internalType": "string",
          "name": "",
          "type": "string"
        }
      ],
      "stateMutability": "view",
      "type": "function"
    },
    {
      "inputs": [],
      "name": "totalSupply",
      "outputs": [
        {
          "internalType": "uint256",
          "name": "",
          "type": "uint256"
        }
      ],
      "stateMutability": "view",
      "type": "function"
    },
    {
      "inputs": [
        {
          "internalType": "address",
          "name": "from",
          "type": "address"
        },
        {
          "internalType": "address",
          "name": "to",
          "type": "address"
        },
        {
          "internalType": "uint256",
          "name": "tokenId",
          "type": "uint256"
        }
      ],
      "name": "transferFrom",
      "outputs": [],
      "stateMutability": "nonpayable",
      "type": "function"
    },
    {
      "inputs": [
        {
          "internalType": "contract Promos",
          "name": "_promos",
          "type": "address"
        }
      ],
      "name": "initialize",
      "outputs": [],
      "stateMutability": "nonpayable",
      "type": "function"
    },
    {
      "inputs": [
        {
          "internalType": "uint256",
          "name": "id",
          "type": "uint256"
        }
      ],
      "name": "get",
      "outputs": [
        {
          "internalType": "uint8",
          "name": "_stars",
          "type": "uint8"
        }
      ],
      "stateMutability": "view",
      "type": "function"
    },
    {
      "inputs": [],
      "name": "getOwned",
      "outputs": [
        {
          "internalType": "uint256[]",
          "name": "",
          "type": "uint256[]"
        }
      ],
      "stateMutability": "view",
      "type": "function"
    },
    {
      "inputs": [
        {
          "internalType": "address",
          "name": "owner",
          "type": "address"
        }
      ],
      "name": "getOwnedBy",
      "outputs": [
        {
          "internalType": "uint256[]",
          "name": "tokens",
          "type": "uint256[]"
        }
      ],
      "stateMutability": "view",
      "type": "function"
    },
    {
      "inputs": [
        {
          "internalType": "uint256[]",
          "name": "ids",
          "type": "uint256[]"
        }
      ],
      "name": "getStars",
      "outputs": [
        {
          "internalType": "uint8[]",
          "name": "stars",
          "type": "uint8[]"
        }
      ],
      "stateMutability": "view",
      "type": "function"
    },
    {
      "inputs": [
        {
          "internalType": "address",
          "name": "minter",
          "type": "address"
        },
        {
          "internalType": "uint8",
          "name": "mintStars",
          "type": "uint8"
        }
      ],
      "name": "mint",
      "outputs": [
        {
          "internalType": "uint256",
          "name": "tokenID",
          "type": "uint256"
        }
      ],
      "stateMutability": "nonpayable",
      "type": "function"
    },
    {
      "inputs": [
        {
          "internalType": "address",
          "name": "minter",
          "type": "address"
        },
        {
          "internalType": "uint256",
          "name": "metaData",
          "type": "uint256"
        },
        {
          "internalType": "uint256",
          "name": "tokenID",
          "type": "uint256"
        }
      ],
      "name": "performMintJunkDetailed",
      "outputs": [
        {
          "internalType": "uint256",
          "name": "",
          "type": "uint256"
        }
      ],
      "stateMutability": "nonpayable",
      "type": "function"
    },
    {
      "inputs": [
        {
          "internalType": "address",
          "name": "minter",
          "type": "address"
        },
        {
          "internalType": "uint8",
          "name": "mintStars",
          "type": "uint8"
        },
        {
          "internalType": "uint32",
          "name": "amount",
          "type": "uint32"
        }
      ],
      "name": "mintN",
      "outputs": [
        {
          "internalType": "uint256[]",
          "name": "tokenIds",
          "type": "uint256[]"
        }
      ],
      "stateMutability": "nonpayable",
      "type": "function"
    },
    {
      "inputs": [
        {
          "internalType": "uint256",
          "name": "tokenID",
          "type": "uint256"
        }
      ],
      "name": "burn",
      "outputs": [],
      "stateMutability": "nonpayable",
      "type": "function"
    },
    {
      "inputs": [
        {
          "internalType": "uint256[]",
          "name": "tokenIDs",
          "type": "uint256[]"
        }
      ],
      "name": "burn",
      "outputs": [],
      "stateMutability": "nonpayable",
      "type": "function"
    },
    {
      "inputs": [
        {
          "internalType": "uint256",
          "name": "to",
          "type": "uint256"
        }
      ],
      "name": "setNextTokenID",
      "outputs": [],
      "stateMutability": "nonpayable",
      "type": "function"
    },
    {
      "inputs": [
        {
          "internalType": "string",
          "name": "baseUri",
          "type": "string"
        }
      ],
      "name": "setBaseURI",
      "outputs": [],
      "stateMutability": "nonpayable",
      "type": "function"
    }
  ],
  "bytecode": "0x608060405234801561001057600080fd5b506133ae806100206000396000f3fe608060405234801561001057600080fd5b50600436106102535760003560e01c806365bb214c11610146578063a22cb465116100c3578063c87b56dd11610087578063c87b56dd146109f1578063ca15c87314610a0e578063d547741f14610a2b578063e291298f14610a57578063e985e9c514610a7d578063f101e48114610aab57610253565b8063a22cb46514610830578063b80f55c91461085e578063b88d4fde146108ff578063c3027525146109c3578063c4d66de8146109cb57610253565b80639010d07c1161010a5780639010d07c146107b457806391d14854146107d75780639507d39a1461080357806395d89b4114610820578063a217fddf1461082857610253565b806365bb214c14610708578063691562a0146107255780636c0360eb1461075457806370a082311461075c578063862ae4df1461078257610253565b80632f745c59116101d45780634f6ccce7116101985780634f6ccce71461061a57806351e717ac146106375780635504d3d21461063f57806355f804b3146106475780636352211e146106eb57610253565b80632f745c59146104ce57806336568abe146104fa57806338b003541461052657806342842e0e146105c757806342966c68146105fd57610253565b806318160ddd1161021b57806318160ddd146104025780631cfb777e1461041c57806323b872dd1461044f578063248a9ca3146104855780632f2ff15d146104a257610253565b806301ffc9a71461025857806306fdde0314610293578063081812fc146103105780630955886314610349578063095ea7b3146103d4575b600080fd5b61027f6004803603602081101561026e57600080fd5b50356001600160e01b031916610ab3565b604080519115158252519081900360200190f35b61029b610ad6565b6040805160208082528351818301528351919283929083019185019080838360005b838110156102d55781810151838201526020016102bd565b50505050905090810190601f1680156103025780820380516001836020036101000a031916815260200191505b509250505060405180910390f35b61032d6004803603602081101561032657600080fd5b5035610b6d565b604080516001600160a01b039092168252519081900360200190f35b6103846004803603606081101561035f57600080fd5b5080356001600160a01b031690602081013560ff16906040013563ffffffff16610bcf565b60408051602080825283518183015283519192839290830191858101910280838360005b838110156103c05781810151838201526020016103a8565b505050509050019250505060405180910390f35b610400600480360360408110156103ea57600080fd5b506001600160a01b038135169060200135610cc9565b005b61040a610da4565b60408051918252519081900360200190f35b6104396004803603602081101561043257600080fd5b5035610db5565b6040805160ff9092168252519081900360200190f35b6104006004803603606081101561046557600080fd5b506001600160a01b03813581169160208101359091169060400135610dca565b61040a6004803603602081101561049b57600080fd5b5035610e21565b610400600480360360408110156104b857600080fd5b50803590602001356001600160a01b0316610e36565b61040a600480360360408110156104e457600080fd5b506001600160a01b038135169060200135610ea2565b6104006004803603604081101561051057600080fd5b50803590602001356001600160a01b0316610ed3565b6103846004803603602081101561053c57600080fd5b810190602081018135600160201b81111561055657600080fd5b82018360208201111561056857600080fd5b803590602001918460208302840111600160201b8311171561058957600080fd5b919080806020026020016040519081016040528093929190818152602001838360200280828437600092019190915250929550610f34945050505050565b610400600480360360608110156105dd57600080fd5b506001600160a01b03813581169160208101359091169060400135610fe7565b6104006004803603602081101561061357600080fd5b5035611002565b61040a6004803603602081101561063057600080fd5b50356110bd565b61032d6110d1565b61040a6110e0565b6104006004803603602081101561065d57600080fd5b810190602081018135600160201b81111561067757600080fd5b82018360208201111561068957600080fd5b803590602001918460018302840111600160201b831117156106aa57600080fd5b91908080601f016020809104026020016040519081016040528093929190818152602001838380828437600092019190915250929550611102945050505050565b61032d6004803603602081101561070157600080fd5b5035611179565b6104006004803603602081101561071e57600080fd5b50356111a7565b61040a6004803603604081101561073b57600080fd5b5080356001600160a01b0316906020013560ff16611217565b61029b6112f2565b61040a6004803603602081101561077257600080fd5b50356001600160a01b0316611353565b61040a6004803603606081101561079857600080fd5b506001600160a01b0381351690602081013590604001356113bb565b61032d600480360360408110156107ca57600080fd5b508035906020013561146b565b61027f600480360360408110156107ed57600080fd5b50803590602001356001600160a01b0316611489565b6104396004803603602081101561081957600080fd5b50356114a7565b61029b6114bc565b61040a61151d565b6104006004803603604081101561084657600080fd5b506001600160a01b0381351690602001351515611522565b6104006004803603602081101561087457600080fd5b810190602081018135600160201b81111561088e57600080fd5b8201836020820111156108a057600080fd5b803590602001918460208302840111600160201b831117156108c157600080fd5b919080806020026020016040519081016040528093929190818152602001838360200280828437600092019190915250929550611627945050505050565b6104006004803603608081101561091557600080fd5b6001600160a01b03823581169260208101359091169160408201359190810190608081016060820135600160201b81111561094f57600080fd5b82018360208201111561096157600080fd5b803590602001918460018302840111600160201b8311171561098257600080fd5b91908080601f0160208091040260200160405190810160405280939291908181526020018383808284376000920191909152509295506116c2945050505050565b610384611720565b610400600480360360208110156109e157600080fd5b50356001600160a01b031661172b565b61029b60048036036020811015610a0757600080fd5b5035611849565b61040a60048036036020811015610a2457600080fd5b5035611acc565b61040060048036036040811015610a4157600080fd5b50803590602001356001600160a01b0316611ae3565b61038460048036036020811015610a6d57600080fd5b50356001600160a01b0316611b3c565b61027f60048036036040811015610a9357600080fd5b506001600160a01b0381358116916020013516611bbf565b61040a611bed565b6001600160e01b0319811660009081526033602052604090205460ff165b919050565b606a8054604080516020601f6002600019610100600188161502019095169490940493840181900481028201810190925282815260609390929091830182828015610b625780601f10610b3757610100808354040283529160200191610b62565b820191906000526020600020905b815481529060010190602001808311610b4557829003601f168201915b505050505090505b90565b6000610b7882611bf3565b610bb35760405162461bcd60e51b815260040180806020018281038252602c815260200180613274602c913960400191505060405180910390fd5b506000908152606860205260409020546001600160a01b031690565b604080516923a0a6a2afa0a226a4a760b11b8152905190819003600a019020606090610bfb9033611489565b610c3d576040805162461bcd60e51b815260206004820152600e60248201526d2737ba1033b0b6b29030b236b4b760911b604482015290519081900360640190fd5b8163ffffffff1667ffffffffffffffff81118015610c5a57600080fd5b50604051908082528060200260200182016040528015610c84578160200160208202803683370190505b50905060005b8263ffffffff16811015610cc157610ca28585611217565b828281518110610cae57fe5b6020908102919091010152600101610c8a565b509392505050565b6000610cd482611179565b9050806001600160a01b0316836001600160a01b03161415610d275760405162461bcd60e51b81526004018080602001828103825260218152602001806132f86021913960400191505060405180910390fd5b806001600160a01b0316610d39611c06565b6001600160a01b03161480610d5a5750610d5a81610d55611c06565b611bbf565b610d955760405162461bcd60e51b81526004018080602001828103825260388152602001806131996038913960400191505060405180910390fd5b610d9f8383611c0a565b505050565b6000610db06066611c78565b905090565b60ca6020526000908152604090205460ff1681565b610ddb610dd5611c06565b82611c83565b610e165760405162461bcd60e51b81526004018080602001828103825260318152602001806133196031913960400191505060405180910390fd5b610d9f838383611d27565b60009081526097602052604090206002015490565b600082815260976020526040902060020154610e5990610e54611c06565b611489565b610e945760405162461bcd60e51b815260040180806020018281038252602f815260200180613092602f913960400191505060405180910390fd5b610e9e8282611e85565b5050565b6001600160a01b0382166000908152606560205260408120610eca908363ffffffff611ef416565b90505b92915050565b610edb611c06565b6001600160a01b0316816001600160a01b031614610f2a5760405162461bcd60e51b815260040180806020018281038252602f81526020018061334a602f913960400191505060405180910390fd5b610e9e8282611f00565b6060815167ffffffffffffffff81118015610f4e57600080fd5b50604051908082528060200260200182016040528015610f78578160200160208202803683370190505b50905060005b8251811015610fe15760ca6000848381518110610f9757fe5b6020026020010151815260200190815260200160002060009054906101000a900460ff16828281518110610fc757fe5b60ff90921660209283029190910190910152600101610f7e565b50919050565b610d9f838383604051806020016040528060008152506116c2565b604080516923a0a6a2afa0a226a4a760b11b8152905190819003600a01902061102b9033611489565b61106d576040805162461bcd60e51b815260206004820152600e60248201526d2737ba1033b0b6b29030b236b4b760911b604482015290519081900360640190fd5b600061107882611179565b905061108382611f6f565b6040516001600160a01b0382169083907fe861e0b12c283de7ca3f4d68d33f3bfc6fc01e4896cddf05e52b8f2a1e548e2490600090a35050565b600080610cc160668463ffffffff61204816565b60c9546001600160a01b031681565b604080516923a0a6a2afa0a226a4a760b11b8152905190819003600a01902081565b604080516923a0a6a2afa0a226a4a760b11b8152905190819003600a01902061112b9033611489565b61116d576040805162461bcd60e51b815260206004820152600e60248201526d2737ba1033b0b6b29030b236b4b760911b604482015290519081900360640190fd5b61117681612064565b50565b6000610ecd826040518060600160405280602981526020016131fb602991396066919063ffffffff61207716565b604080516923a0a6a2afa0a226a4a760b11b8152905190819003600a0190206111d09033611489565b611212576040805162461bcd60e51b815260206004820152600e60248201526d2737ba1033b0b6b29030b236b4b760911b604482015290519081900360640190fd5b60cb55565b604080516923a0a6a2afa0a226a4a760b11b8152905190819003600a0190206000906112439033611489565b611285576040805162461bcd60e51b815260206004820152600e60248201526d2737ba1033b0b6b29030b236b4b760911b604482015290519081900360640190fd5b5060cb805460018101909155600081815260ca60205260409020805460ff191660ff84161790556112b68382612084565b6040516001600160a01b0384169082907fb9203d657e9c0ec8274c818292ab0f58b04e1970050716891770eb1bab5d655e90600090a392915050565b606d8054604080516020601f6002600019610100600188161502019095169490940493840181900481028201810190925282815260609390929091830182828015610b625780601f10610b3757610100808354040283529160200191610b62565b60006001600160a01b03821661139a5760405162461bcd60e51b815260040180806020018281038252602a8152602001806131d1602a913960400191505060405180910390fd5b6001600160a01b0382166000908152606560205260409020610ecd90611c78565b604080516923a0a6a2afa0a226a4a760b11b8152905190819003600a0190206000906113e79033611489565b611429576040805162461bcd60e51b815260206004820152600e60248201526d2737ba1033b0b6b29030b236b4b760911b604482015290519081900360640190fd5b60ff8316826114435761143c8582611217565b925061145f565b600083815260ca60205260409020805460ff191660ff83161790555b829150505b9392505050565b6000828152609760205260408120610eca908363ffffffff611ef416565b6000828152609760205260408120610eca908363ffffffff6121be16565b600090815260ca602052604090205460ff1690565b606b8054604080516020601f6002600019610100600188161502019095169490940493840181900481028201810190925282815260609390929091830182828015610b625780601f10610b3757610100808354040283529160200191610b62565b600081565b61152a611c06565b6001600160a01b0316826001600160a01b03161415611590576040805162461bcd60e51b815260206004820152601960248201527f4552433732313a20617070726f766520746f2063616c6c657200000000000000604482015290519081900360640190fd5b806069600061159d611c06565b6001600160a01b03908116825260208083019390935260409182016000908120918716808252919093529120805460ff1916921515929092179091556115e1611c06565b60408051841515815290516001600160a01b0392909216917f17307eab39ab6107e8899845ad3d59bd9653f200f220920489ca2b5937696c319181900360200190a35050565b604080516923a0a6a2afa0a226a4a760b11b8152905190819003600a0190206116509033611489565b611692576040805162461bcd60e51b815260206004820152600e60248201526d2737ba1033b0b6b29030b236b4b760911b604482015290519081900360640190fd5b60005b8151811015610e9e576116ba8282815181106116ad57fe5b6020026020010151611002565b600101611695565b6116d36116cd611c06565b83611c83565b61170e5760405162461bcd60e51b81526004018080602001828103825260318152602001806133196031913960400191505060405180910390fd5b61171a848484846121d3565b50505050565b6060610db033611b3c565b600054610100900460ff16806117445750611744612225565b80611752575060005460ff16155b61178d5760405162461bcd60e51b815260040180806020018281038252602e815260200180613224602e913960400191505060405180910390fd5b600054610100900460ff161580156117b8576000805460ff1961ff0019909116610100171660011790555b6118066040518060400160405280601181526020017043727970746f426c61646573204a756e6b60781b8152506040518060400160405280600381526020016221a12560e91b815250612236565b61180e6122f3565b611819600033610e94565b60c980546001600160a01b0319166001600160a01b0384161790558015610e9e576000805461ff00191690555050565b606061185482611bf3565b61188f5760405162461bcd60e51b815260040180806020018281038252602f8152602001806132c9602f913960400191505060405180910390fd5b6000828152606c602090815260409182902080548351601f60026000196101006001861615020190931692909204918201849004840281018401909452808452606093928301828280156119245780601f106118f957610100808354040283529160200191611924565b820191906000526020600020905b81548152906001019060200180831161190757829003601f168201915b5050505050905060606119356112f2565b905080516000141561194957509050610ad1565b815115611a0a5780826040516020018083805190602001908083835b602083106119845780518252601f199092019160209182019101611965565b51815160209384036101000a600019018019909216911617905285519190930192850191508083835b602083106119cc5780518252601f1990920191602091820191016119ad565b6001836020036101000a0380198251168184511680821785525050505050509050019250505060405160208183030381529060405292505050610ad1565b80611a1485612394565b6040516020018083805190602001908083835b60208310611a465780518252601f199092019160209182019101611a27565b51815160209384036101000a600019018019909216911617905285519190930192850191508083835b60208310611a8e5780518252601f199092019160209182019101611a6f565b6001836020036101000a0380198251168184511680821785525050505050509050019250505060405160208183030381529060405292505050919050565b6000818152609760205260408120610ecd90611c78565b600082815260976020526040902060020154611b0190610e54611c06565b610f2a5760405162461bcd60e51b81526004018080602001828103825260308152602001806131696030913960400191505060405180910390fd5b6060611b4782611353565b67ffffffffffffffff81118015611b5d57600080fd5b50604051908082528060200260200182016040528015611b87578160200160208202803683370190505b50905060005b8151811015610fe157611ba08382610ea2565b828281518110611bac57fe5b6020908102919091010152600101611b8d565b6001600160a01b03918216600090815260696020908152604080832093909416825291909152205460ff1690565b60cb5481565b6000610ecd60668363ffffffff61246f16565b3390565b600081815260686020526040902080546001600160a01b0319166001600160a01b0384169081179091558190611c3f82611179565b6001600160a01b03167f8c5be1e5ebec7d5bd14f71427d1e84f3dd0314c0f7b2291e5b200ac8c7c3b92560405160405180910390a45050565b6000610ecd8261247b565b6000611c8e82611bf3565b611cc95760405162461bcd60e51b815260040180806020018281038252602c81526020018061313d602c913960400191505060405180910390fd5b6000611cd483611179565b9050806001600160a01b0316846001600160a01b03161480611d0f5750836001600160a01b0316611d0484610b6d565b6001600160a01b0316145b80611d1f5750611d1f8185611bbf565b949350505050565b826001600160a01b0316611d3a82611179565b6001600160a01b031614611d7f5760405162461bcd60e51b81526004018080602001828103825260298152602001806132a06029913960400191505060405180910390fd5b6001600160a01b038216611dc45760405162461bcd60e51b81526004018080602001828103825260248152602001806130f36024913960400191505060405180910390fd5b611dcf83838361247f565b611dda600082611c0a565b6001600160a01b0383166000908152606560205260409020611e02908263ffffffff61259616565b506001600160a01b0382166000908152606560205260409020611e2b908263ffffffff6125a216565b50611e3e6066828463ffffffff6125ae16565b5080826001600160a01b0316846001600160a01b03167fddf252ad1be2c89b69c2b068fc378daa952ba7f163c4a11628f55a4df523b3ef60405160405180910390a4505050565b6000828152609760205260409020611ea3908263ffffffff6125c416565b15610e9e57611eb0611c06565b6001600160a01b0316816001600160a01b0316837f2f8788117e7eff1d82e926ec794901d17c78024a50270940304540a733656f0d60405160405180910390a45050565b6000610eca83836125d9565b6000828152609760205260409020611f1e908263ffffffff61263d16565b15610e9e57611f2b611c06565b6001600160a01b0316816001600160a01b0316837ff6391f5c32d9c69d2a47ea670b442974b53935d1edc7fd64eb21e047a839171b60405160405180910390a45050565b6000611f7a82611179565b9050611f888160008461247f565b611f93600083611c0a565b6000828152606c60205260409020546002600019610100600184161502019091160415611fd1576000828152606c60205260408120611fd191612f93565b6001600160a01b0381166000908152606560205260409020611ff9908363ffffffff61259616565b5061200b60668363ffffffff61265216565b5060405182906000906001600160a01b038416907fddf252ad1be2c89b69c2b068fc378daa952ba7f163c4a11628f55a4df523b3ef908390a45050565b6000808080612057868661265e565b9097909650945050505050565b8051610e9e90606d906020840190612fd7565b6000611d1f8484846126d9565b6001600160a01b0382166120df576040805162461bcd60e51b815260206004820181905260248201527f4552433732313a206d696e7420746f20746865207a65726f2061646472657373604482015290519081900360640190fd5b6120e881611bf3565b1561213a576040805162461bcd60e51b815260206004820152601c60248201527f4552433732313a20746f6b656e20616c7265616479206d696e74656400000000604482015290519081900360640190fd5b6121466000838361247f565b6001600160a01b038216600090815260656020526040902061216e908263ffffffff6125a216565b506121816066828463ffffffff6125ae16565b5060405181906001600160a01b038416906000907fddf252ad1be2c89b69c2b068fc378daa952ba7f163c4a11628f55a4df523b3ef908290a45050565b6000610eca836001600160a01b0384166127a3565b6121de848484611d27565b6121ea848484846127bb565b61171a5760405162461bcd60e51b81526004018080602001828103825260328152602001806130c16032913960400191505060405180910390fd5b60006122303061293b565b15905090565b600054610100900460ff168061224f575061224f612225565b8061225d575060005460ff16155b6122985760405162461bcd60e51b815260040180806020018281038252602e815260200180613224602e913960400191505060405180910390fd5b600054610100900460ff161580156122c3576000805460ff1961ff0019909116610100171660011790555b6122cb6122f3565b6122d3612941565b6122dd83836129de565b8015610d9f576000805461ff0019169055505050565b600054610100900460ff168061230c575061230c612225565b8061231a575060005460ff16155b6123555760405162461bcd60e51b815260040180806020018281038252602e815260200180613224602e913960400191505060405180910390fd5b600054610100900460ff16158015612380576000805460ff1961ff0019909116610100171660011790555b8015611176576000805461ff001916905550565b6060816123b957506040805180820190915260018152600360fc1b6020820152610ad1565b8160005b81156123d157600101600a820491506123bd565b60608167ffffffffffffffff811180156123ea57600080fd5b506040519080825280601f01601f191660200182016040528015612415576020820181803683370190505b50859350905060001982015b831561246657600a840660300160f81b8282806001900393508151811061244457fe5b60200101906001600160f81b031916908160001a905350600a84049350612421565b50949350505050565b6000610eca83836127a3565b5490565b60c9546040805163434d82a360e01b81526001600160a01b0386811660048381019190915260248301529151919092169163434d82a3916044808301926020929190829003018186803b1580156124d557600080fd5b505afa1580156124e9573d6000803e3d6000fd5b505050506040513d60208110156124ff57600080fd5b505115801561258d575060c9546040805163434d82a360e01b81526001600160a01b0385811660048381019190915260248301529151919092169163434d82a3916044808301926020929190829003018186803b15801561255f57600080fd5b505afa158015612573573d6000803e3d6000fd5b505050506040513d602081101561258957600080fd5b5051155b610d9f57600080fd5b6000610eca8383612ac3565b6000610eca8383612b89565b6000611d1f84846001600160a01b038516612bd3565b6000610eca836001600160a01b038416612b89565b8154600090821061261b5760405162461bcd60e51b81526004018080602001828103825260228152602001806130706022913960400191505060405180910390fd5b82600001828154811061262a57fe5b9060005260206000200154905092915050565b6000610eca836001600160a01b038416612ac3565b6000610eca8383612c6a565b8154600090819083106126a25760405162461bcd60e51b81526004018080602001828103825260228152602001806132526022913960400191505060405180910390fd5b60008460000184815481106126b357fe5b906000526020600020906002020190508060000154816001015492509250509250929050565b600082815260018401602052604081205482816127745760405162461bcd60e51b81526004018080602001828103825283818151815260200191508051906020019080838360005b83811015612739578181015183820152602001612721565b50505050905090810190601f1680156127665780820380516001836020036101000a031916815260200191505b509250505060405180910390fd5b5084600001600182038154811061278757fe5b9060005260206000209060020201600101549150509392505050565b60009081526001919091016020526040902054151590565b60006127cf846001600160a01b031661293b565b6127db57506001611d1f565b6060612901630a85bd0160e11b6127f0611c06565b88878760405160240180856001600160a01b03166001600160a01b03168152602001846001600160a01b03166001600160a01b0316815260200183815260200180602001828103825283818151815260200191508051906020019080838360005b83811015612869578181015183820152602001612851565b50505050905090810190601f1680156128965780820380516001836020036101000a031916815260200191505b5095505050505050604051602081830303815290604052906001600160e01b0319166020820180516001600160e01b0383818316178352505050506040518060600160405280603281526020016130c1603291396001600160a01b038816919063ffffffff612d3e16565b9050600081806020019051602081101561291a57600080fd5b50516001600160e01b031916630a85bd0160e11b1492505050949350505050565b3b151590565b600054610100900460ff168061295a575061295a612225565b80612968575060005460ff16155b6129a35760405162461bcd60e51b815260040180806020018281038252602e815260200180613224602e913960400191505060405180910390fd5b600054610100900460ff161580156129ce576000805460ff1961ff0019909116610100171660011790555b6123806301ffc9a760e01b612d4d565b600054610100900460ff16806129f757506129f7612225565b80612a05575060005460ff16155b612a405760405162461bcd60e51b815260040180806020018281038252602e815260200180613224602e913960400191505060405180910390fd5b600054610100900460ff16158015612a6b576000805460ff1961ff0019909116610100171660011790555b8251612a7e90606a906020860190612fd7565b508151612a9290606b906020850190612fd7565b50612aa36380ac58cd60e01b612d4d565b612ab3635b5e139f60e01b612d4d565b6122dd63780e9d6360e01b612d4d565b60008181526001830160205260408120548015612b7f5783546000198083019190810190600090879083908110612af657fe5b9060005260206000200154905080876000018481548110612b1357fe5b600091825260208083209091019290925582815260018981019092526040902090840190558654879080612b4357fe5b60019003818190600052602060002001600090559055866001016000878152602001908152602001600020600090556001945050505050610ecd565b6000915050610ecd565b6000612b9583836127a3565b612bcb57508154600181810184556000848152602080822090930184905584548482528286019093526040902091909155610ecd565b506000610ecd565b600082815260018401602052604081205480612c38575050604080518082018252838152602080820184815286546001818101895560008981528481209551600290930290950191825591519082015586548684528188019092529290912055611464565b82856000016001830381548110612c4b57fe5b9060005260206000209060020201600101819055506000915050611464565b60008181526001830160205260408120548015612b7f5783546000198083019190810190600090879083908110612c9d57fe5b9060005260206000209060020201905080876000018481548110612cbd57fe5b600091825260208083208454600290930201918255600193840154918401919091558354825289830190526040902090840190558654879080612cfc57fe5b6000828152602080822060026000199094019384020182815560019081018390559290935588815289820190925260408220919091559450610ecd9350505050565b6060611d1f8484600085612dd1565b6001600160e01b03198082161415612dac576040805162461bcd60e51b815260206004820152601c60248201527f4552433136353a20696e76616c696420696e7465726661636520696400000000604482015290519081900360640190fd5b6001600160e01b0319166000908152603360205260409020805460ff19166001179055565b606082471015612e125760405162461bcd60e51b81526004018080602001828103825260268152602001806131176026913960400191505060405180910390fd5b612e1b8561293b565b612e6c576040805162461bcd60e51b815260206004820152601d60248201527f416464726573733a2063616c6c20746f206e6f6e2d636f6e7472616374000000604482015290519081900360640190fd5b60006060866001600160a01b031685876040518082805190602001908083835b60208310612eab5780518252601f199092019160209182019101612e8c565b6001836020036101000a03801982511681845116808217855250505050505090500191505060006040518083038185875af1925050503d8060008114612f0d576040519150601f19603f3d011682016040523d82523d6000602084013e612f12565b606091505b5091509150612f22828286612f2d565b979650505050505050565b60608315612f3c575081611464565b825115612f4c5782518084602001fd5b60405162461bcd60e51b8152602060048201818152845160248401528451859391928392604401919085019080838360008315612739578181015183820152602001612721565b50805460018160011615610100020316600290046000825580601f10612fb95750611176565b601f0160209004906000526020600020908101906111769190613055565b828054600181600116156101000203166002900490600052602060002090601f016020900481019282601f1061301857805160ff1916838001178555613045565b82800160010185558215613045579182015b8281111561304557825182559160200191906001019061302a565b50613051929150613055565b5090565b610b6a91905b80821115613051576000815560010161305b56fe456e756d657261626c655365743a20696e646578206f7574206f6620626f756e6473416363657373436f6e74726f6c3a2073656e646572206d75737420626520616e2061646d696e20746f206772616e744552433732313a207472616e7366657220746f206e6f6e20455243373231526563656976657220696d706c656d656e7465724552433732313a207472616e7366657220746f20746865207a65726f2061646472657373416464726573733a20696e73756666696369656e742062616c616e636520666f722063616c6c4552433732313a206f70657261746f7220717565727920666f72206e6f6e6578697374656e7420746f6b656e416363657373436f6e74726f6c3a2073656e646572206d75737420626520616e2061646d696e20746f207265766f6b654552433732313a20617070726f76652063616c6c6572206973206e6f74206f776e6572206e6f7220617070726f76656420666f7220616c6c4552433732313a2062616c616e636520717565727920666f7220746865207a65726f20616464726573734552433732313a206f776e657220717565727920666f72206e6f6e6578697374656e7420746f6b656e496e697469616c697a61626c653a20636f6e747261637420697320616c726561647920696e697469616c697a6564456e756d657261626c654d61703a20696e646578206f7574206f6620626f756e64734552433732313a20617070726f76656420717565727920666f72206e6f6e6578697374656e7420746f6b656e4552433732313a207472616e73666572206f6620746f6b656e2074686174206973206e6f74206f776e4552433732314d657461646174613a2055524920717565727920666f72206e6f6e6578697374656e7420746f6b656e4552433732313a20617070726f76616c20746f2063757272656e74206f776e65724552433732313a207472616e736665722063616c6c6572206973206e6f74206f776e6572206e6f7220617070726f766564416363657373436f6e74726f6c3a2063616e206f6e6c792072656e6f756e636520726f6c657320666f722073656c66a2646970667358221220365f80a3211f2aaa866a405c09e1907380a77ab4f8dfa8632a9e790f4951f36c64736f6c63430006050033",
  "immutableReferences": {},
  "source": "pragma solidity ^0.6.0;\n\nimport \"@openzeppelin/contracts-upgradeable/proxy/Initializable.sol\";\nimport \"@openzeppelin/contracts-upgradeable/token/ERC721/ERC721Upgradeable.sol\";\nimport \"@openzeppelin/contracts-upgradeable/access/AccessControlUpgradeable.sol\";\nimport \"@openzeppelin/contracts/math/SafeMath.sol\";\nimport \"abdk-libraries-solidity/ABDKMath64x64.sol\";\nimport \"../Promos.sol\";\n\ncontract Junk is Initializable, ERC721Upgradeable, AccessControlUpgradeable {\n\n    bytes32 public constant GAME_ADMIN = keccak256(\"GAME_ADMIN\");\n\n    function initialize (Promos _promos) public initializer {\n        __ERC721_init(\"CryptoBlades Junk\", \"CBJ\");\n        __AccessControl_init_unchained();\n\n        _setupRole(DEFAULT_ADMIN_ROLE, msg.sender);\n\n        promos = _promos;\n    }\n\n    Promos public promos;\n\n    mapping(uint256 => uint8) public tokenStars;\n\n    uint256 public nextTokenID;\n\n    event Minted(uint256 indexed id, address indexed minter);\n    event Burned(uint256 indexed id, address indexed burner);\n\n    modifier restricted() {\n        require(hasRole(GAME_ADMIN, msg.sender), \"Not game admin\");\n        _;\n    }\n\n    function get(uint256 id) public view\n        returns (\n            uint8 _stars\n    ) {\n        _stars = tokenStars[id];\n    }\n\n    function getOwned() public view returns(uint256[] memory) {\n        return getOwnedBy(msg.sender);\n    }\n\n    function getOwnedBy(address owner) public view returns(uint256[] memory tokens) {\n        tokens = new uint256[](balanceOf(owner));\n        for(uint256 i = 0; i < tokens.length; i++) {\n            tokens[i] = tokenOfOwnerByIndex(owner, i);\n        }\n    }\n\n    function getStars(uint256[] memory ids) public view returns (uint8[] memory stars) {\n        stars = new uint8[](ids.length);\n        for(uint256 i = 0; i < ids.length; i++) {\n            stars[i] = tokenStars[ids[i]];\n        }\n    }\n\n    function mint(address minter, uint8 mintStars) public restricted returns(uint256 tokenID) {\n        tokenID = nextTokenID++;\n        tokenStars[tokenID] = mintStars;\n        _mint(minter, tokenID);\n        emit Minted(tokenID, minter);\n    }\n\n    function performMintJunkDetailed(address minter,\n        uint256 metaData, uint256 tokenID\n    ) public restricted returns(uint256) {\n\n        uint8 mintStars = uint8(metaData & 0xFF);\n\n        // tokenId 0 => it's a new mint\n        if(tokenID == 0){\n            tokenID = mint(minter, mintStars);\n        } else {\n            // tokenId is not 0 => we are updating an existing mint; update the stars in case they can change\n            tokenStars[tokenID] = mintStars;\n        }\n\n        return tokenID;\n    }\n\n    function mintN(address minter, uint8 mintStars, uint32 amount) public restricted returns(uint256[] memory tokenIds) {\n        tokenIds = new uint256[](amount);\n        for(uint i = 0; i < amount; i++) {\n            tokenIds[i] = mint(minter, mintStars);\n        }\n    }\n\n    function burn(uint256 tokenID) public restricted {\n        address burner = ownerOf(tokenID);\n        _burn(tokenID);\n        emit Burned(tokenID, burner);\n    }\n\n    function burn(uint256[] memory tokenIDs) public restricted {\n        for(uint i = 0; i < tokenIDs.length; i++) {\n            burn(tokenIDs[i]);\n        }\n    }\n\n    function _beforeTokenTransfer(address from, address to, uint256 tokenId) internal override {\n        require(promos.getBit(from, 4) == false && promos.getBit(to, 4) == false);\n    }\n\n    function setNextTokenID(uint to) public restricted {\n        nextTokenID = to;\n    }\n\n    function setBaseURI(string memory baseUri) public restricted {\n        _setBaseURI(baseUri);\n    }\n}\n",
  "sourcePath": "/mnt/e/work/cryptoblades/contracts/items/Junk.sol",
  "compiler": {
    "name": "solc",
    "version": "0.6.5+commit.f956cc89.Emscripten.clang"
  },
  "schemaVersion": "3.3.4",
  "updatedAt": "2023-01-24T17:45:32.053Z",
  "devdoc": {
    "methods": {
      "approve(address,uint256)": {
        "details": "See {IERC721-approve}."
      },
      "balanceOf(address)": {
        "details": "See {IERC721-balanceOf}."
      },
      "baseURI()": {
        "details": "Returns the base URI set via {_setBaseURI}. This will be automatically added as a prefix in {tokenURI} to each token's URI, or to the token ID if no specific URI is set for that token ID."
      },
      "getApproved(uint256)": {
        "details": "See {IERC721-getApproved}."
      },
      "getRoleAdmin(bytes32)": {
        "details": "Returns the admin role that controls `role`. See {grantRole} and {revokeRole}.     * To change a role's admin, use {_setRoleAdmin}."
      },
      "getRoleMember(bytes32,uint256)": {
        "details": "Returns one of the accounts that have `role`. `index` must be a value between 0 and {getRoleMemberCount}, non-inclusive.     * Role bearers are not sorted in any particular way, and their ordering may change at any point.     * WARNING: When using {getRoleMember} and {getRoleMemberCount}, make sure you perform all queries on the same block. See the following https://forum.openzeppelin.com/t/iterating-over-elements-on-enumerableset-in-openzeppelin-contracts/2296[forum post] for more information."
      },
      "getRoleMemberCount(bytes32)": {
        "details": "Returns the number of accounts that have `role`. Can be used together with {getRoleMember} to enumerate all bearers of a role."
      },
      "grantRole(bytes32,address)": {
        "details": "Grants `role` to `account`.     * If `account` had not been already granted `role`, emits a {RoleGranted} event.     * Requirements:     * - the caller must have ``role``'s admin role."
      },
      "hasRole(bytes32,address)": {
        "details": "Returns `true` if `account` has been granted `role`."
      },
      "isApprovedForAll(address,address)": {
        "details": "See {IERC721-isApprovedForAll}."
      },
      "name()": {
        "details": "See {IERC721Metadata-name}."
      },
      "ownerOf(uint256)": {
        "details": "See {IERC721-ownerOf}."
      },
      "renounceRole(bytes32,address)": {
        "details": "Revokes `role` from the calling account.     * Roles are often managed via {grantRole} and {revokeRole}: this function's purpose is to provide a mechanism for accounts to lose their privileges if they are compromised (such as when a trusted device is misplaced).     * If the calling account had been granted `role`, emits a {RoleRevoked} event.     * Requirements:     * - the caller must be `account`."
      },
      "revokeRole(bytes32,address)": {
        "details": "Revokes `role` from `account`.     * If `account` had been granted `role`, emits a {RoleRevoked} event.     * Requirements:     * - the caller must have ``role``'s admin role."
      },
      "safeTransferFrom(address,address,uint256)": {
        "details": "See {IERC721-safeTransferFrom}."
      },
      "safeTransferFrom(address,address,uint256,bytes)": {
        "details": "See {IERC721-safeTransferFrom}."
      },
      "setApprovalForAll(address,bool)": {
        "details": "See {IERC721-setApprovalForAll}."
      },
      "supportsInterface(bytes4)": {
        "details": "See {IERC165-supportsInterface}.     * Time complexity O(1), guaranteed to always use less than 30 000 gas."
      },
      "symbol()": {
        "details": "See {IERC721Metadata-symbol}."
      },
      "tokenByIndex(uint256)": {
        "details": "See {IERC721Enumerable-tokenByIndex}."
      },
      "tokenOfOwnerByIndex(address,uint256)": {
        "details": "See {IERC721Enumerable-tokenOfOwnerByIndex}."
      },
      "tokenURI(uint256)": {
        "details": "See {IERC721Metadata-tokenURI}."
      },
      "totalSupply()": {
        "details": "See {IERC721Enumerable-totalSupply}."
      },
      "transferFrom(address,address,uint256)": {
        "details": "See {IERC721-transferFrom}."
      }
    }
  },
  "userdoc": {
    "methods": {}
  }
}