{
  "contractName": "JunkBridgeProxyContract",
  "abi": [
    {
      "anonymous": false,
      "inputs": [
        {
          "indexed": true,
          "internalType": "bytes32",
          "name": "role",
          "type": "bytes32"
        },
        {
          "indexed": true,
          "internalType": "bytes32",
          "name": "previousAdminRole",
          "type": "bytes32"
        },
        {
          "indexed": true,
          "internalType": "bytes32",
          "name": "newAdminRole",
          "type": "bytes32"
        }
      ],
      "name": "RoleAdminChanged",
      "type": "event"
    },
    {
      "anonymous": false,
      "inputs": [
        {
          "indexed": true,
          "internalType": "bytes32",
          "name": "role",
          "type": "bytes32"
        },
        {
          "indexed": true,
          "internalType": "address",
          "name": "account",
          "type": "address"
        },
        {
          "indexed": true,
          "internalType": "address",
          "name": "sender",
          "type": "address"
        }
      ],
      "name": "RoleGranted",
      "type": "event"
    },
    {
      "anonymous": false,
      "inputs": [
        {
          "indexed": true,
          "internalType": "bytes32",
          "name": "role",
          "type": "bytes32"
        },
        {
          "indexed": true,
          "internalType": "address",
          "name": "account",
          "type": "address"
        },
        {
          "indexed": true,
          "internalType": "address",
          "name": "sender",
          "type": "address"
        }
      ],
      "name": "RoleRevoked",
      "type": "event"
    },
    {
      "inputs": [],
      "name": "DEFAULT_ADMIN_ROLE",
      "outputs": [
        {
          "internalType": "bytes32",
          "name": "",
          "type": "bytes32"
        }
      ],
      "stateMutability": "view",
      "type": "function"
    },
    {
      "inputs": [],
      "name": "GAME_ADMIN",
      "outputs": [
        {
          "internalType": "bytes32",
          "name": "",
          "type": "bytes32"
        }
      ],
      "stateMutability": "view",
      "type": "function"
    },
    {
      "inputs": [],
      "name": "UINT_NFT_VAR_META",
      "outputs": [
        {
          "internalType": "uint8",
          "name": "",
          "type": "uint8"
        }
      ],
      "stateMutability": "view",
      "type": "function"
    },
    {
      "inputs": [
        {
          "internalType": "bytes32",
          "name": "role",
          "type": "bytes32"
        }
      ],
      "name": "getRoleAdmin",
      "outputs": [
        {
          "internalType": "bytes32",
          "name": "",
          "type": "bytes32"
        }
      ],
      "stateMutability": "view",
      "type": "function"
    },
    {
      "inputs": [
        {
          "internalType": "bytes32",
          "name": "role",
          "type": "bytes32"
        },
        {
          "internalType": "uint256",
          "name": "index",
          "type": "uint256"
        }
      ],
      "name": "getRoleMember",
      "outputs": [
        {
          "internalType": "address",
          "name": "",
          "type": "address"
        }
      ],
      "stateMutability": "view",
      "type": "function"
    },
    {
      "inputs": [
        {
          "internalType": "bytes32",
          "name": "role",
          "type": "bytes32"
        }
      ],
      "name": "getRoleMemberCount",
      "outputs": [
        {
          "internalType": "uint256",
          "name": "",
          "type": "uint256"
        }
      ],
      "stateMutability": "view",
      "type": "function"
    },
    {
      "inputs": [
        {
          "internalType": "bytes32",
          "name": "role",
          "type": "bytes32"
        },
        {
          "internalType": "address",
          "name": "account",
          "type": "address"
        }
      ],
      "name": "grantRole",
      "outputs": [],
      "stateMutability": "nonpayable",
      "type": "function"
    },
    {
      "inputs": [
        {
          "internalType": "bytes32",
          "name": "role",
          "type": "bytes32"
        },
        {
          "internalType": "address",
          "name": "account",
          "type": "address"
        }
      ],
      "name": "hasRole",
      "outputs": [
        {
          "internalType": "bool",
          "name": "",
          "type": "bool"
        }
      ],
      "stateMutability": "view",
      "type": "function"
    },
    {
      "inputs": [
        {
          "internalType": "bytes32",
          "name": "role",
          "type": "bytes32"
        },
        {
          "internalType": "address",
          "name": "account",
          "type": "address"
        }
      ],
      "name": "renounceRole",
      "outputs": [],
      "stateMutability": "nonpayable",
      "type": "function"
    },
    {
      "inputs": [
        {
          "internalType": "bytes32",
          "name": "role",
          "type": "bytes32"
        },
        {
          "internalType": "address",
          "name": "account",
          "type": "address"
        }
      ],
      "name": "revokeRole",
      "outputs": [],
      "stateMutability": "nonpayable",
      "type": "function"
    },
    {
      "inputs": [
        {
          "internalType": "address",
          "name": "_nftStorageAddress",
          "type": "address"
        },
        {
          "internalType": "address",
          "name": "_junk",
          "type": "address"
        }
      ],
      "name": "initialize",
      "outputs": [],
      "stateMutability": "nonpayable",
      "type": "function"
    },
    {
      "inputs": [
        {
          "internalType": "uint256",
          "name": "tokenId",
          "type": "uint256"
        }
      ],
      "name": "collectData",
      "outputs": [
        {
          "internalType": "uint256[]",
          "name": "uintVars",
          "type": "uint256[]"
        },
        {
          "internalType": "string",
          "name": "stringVar",
          "type": "string"
        }
      ],
      "stateMutability": "view",
      "type": "function"
    },
    {
      "inputs": [],
      "name": "sigVersion",
      "outputs": [
        {
          "internalType": "uint256",
          "name": "",
          "type": "uint256"
        }
      ],
      "stateMutability": "view",
      "type": "function"
    },
    {
      "inputs": [],
      "name": "isEnabled",
      "outputs": [
        {
          "internalType": "bool",
          "name": "",
          "type": "bool"
        }
      ],
      "stateMutability": "view",
      "type": "function"
    },
    {
      "inputs": [
        {
          "internalType": "bool",
          "name": "_enabled",
          "type": "bool"
        }
      ],
      "name": "setEnabled",
      "outputs": [],
      "stateMutability": "nonpayable",
      "type": "function"
    },
    {
      "inputs": [
        {
          "internalType": "address",
          "name": "",
          "type": "address"
        },
        {
          "internalType": "uint256",
          "name": "tokenId",
          "type": "uint256"
        },
        {
          "internalType": "uint256[]",
          "name": "uintVars",
          "type": "uint256[]"
        },
        {
          "internalType": "string",
          "name": "stringVar",
          "type": "string"
        }
      ],
      "name": "mintOrUpdate",
      "outputs": [
        {
          "internalType": "uint256",
          "name": "",
          "type": "uint256"
        }
      ],
      "stateMutability": "nonpayable",
      "type": "function"
    },
    {
      "inputs": [
        {
          "internalType": "uint8",
          "name": "stars",
          "type": "uint8"
        }
      ],
      "name": "_packJunkData",
      "outputs": [
        {
          "internalType": "uint256",
          "name": "",
          "type": "uint256"
        }
      ],
      "stateMutability": "pure",
      "type": "function"
    },
    {
      "inputs": [
        {
          "internalType": "address",
          "name": "wallet",
          "type": "address"
        },
        {
          "internalType": "uint256",
          "name": "tokenId",
          "type": "uint256"
        },
        {
          "internalType": "uint256",
          "name": "targetChain",
          "type": "uint256"
        }
      ],
      "name": "canBridge",
      "outputs": [
        {
          "internalType": "bool",
          "name": "",
          "type": "bool"
        }
      ],
      "stateMutability": "view",
      "type": "function"
    }
  ],
  "bytecode": "0x608060405234801561001057600080fd5b50610f7c806100206000396000f3fe608060405234801561001057600080fd5b50600436106101165760003560e01c8063485cc955116100a257806391d148541161007157806391d14854146103a6578063a217fddf146103d2578063ca15c873146103da578063d547741f146103f7578063d58a097c1461042357610116565b8063485cc955146103295780635504d3d2146103575780636aa633b61461035f5780639010d07c1461036757610116565b80632d31418a116100e95780632d31418a146102625780632f2ff15d146102a8578063328d8f72146102d657806336568abe146102f55780634594fac41461032157610116565b8063135701f71461011b57806319dd746a146101395780631e30c7f114610213578063248a9ca314610245575b600080fd5b6101236104fa565b6040805160ff9092168252519081900360200190f35b6101566004803603602081101561014f57600080fd5b50356104ff565b604051808060200180602001838103835285818151815260200191508051906020019060200280838360005b8381101561019a578181015183820152602001610182565b50505050905001838103825284818151815260200191508051906020019080838360005b838110156101d65781810151838201526020016101be565b50505050905090810190601f1680156102035780820380516001836020036101000a031916815260200191505b5094505050505060405180910390f35b6102336004803603602081101561022957600080fd5b503560ff166105cc565b60408051918252519081900360200190f35b6102336004803603602081101561025b57600080fd5b50356105d2565b6102946004803603606081101561027857600080fd5b506001600160a01b0381351690602081013590604001356105e7565b604080519115158252519081900360200190f35b6102d4600480360360408110156102be57600080fd5b50803590602001356001600160a01b03166105f0565b005b6102d4600480360360208110156102ec57600080fd5b5035151561065c565b6102d46004803603604081101561030b57600080fd5b50803590602001356001600160a01b0316610682565b6102336106e3565b6102d46004803603604081101561033f57600080fd5b506001600160a01b03813581169160200135166106e8565b6102336107cf565b6102946107f1565b61038a6004803603604081101561037d57600080fd5b5080359060200135610801565b604080516001600160a01b039092168252519081900360200190f35b610294600480360360408110156103bc57600080fd5b50803590602001356001600160a01b0316610828565b6102336104fa565b610233600480360360208110156103f057600080fd5b5035610846565b6102d46004803603604081101561040d57600080fd5b50803590602001356001600160a01b031661085d565b6102336004803603608081101561043957600080fd5b6001600160a01b038235169160208101359181019060608101604082013564010000000081111561046957600080fd5b82018360208201111561047b57600080fd5b8035906020019184602083028401116401000000008311171561049d57600080fd5b9193909290916020810190356401000000008111156104bb57600080fd5b8201836020820111156104cd57600080fd5b803590602001918460018302840111640100000000831117156104ef57600080fd5b5090925090506108b6565b600081565b60655460408051634a83e9cd60e11b815260048101849052905160609283926000926001600160a01b0390921691639507d39a91602480820192602092909190829003018186803b15801561055357600080fd5b505afa158015610567573d6000803e3d6000fd5b505050506040513d602081101561057d57600080fd5b5051604080516001808252818301909252919250602080830190803683370190505092506105aa816105cc565b83600060ff16815181106105ba57fe5b60200260200101818152505050915091565b60ff1690565b60009081526033602052604090206002015490565b60019392505050565b6000828152603360205260409020600201546106139061060e6109c5565b610828565b61064e5760405162461bcd60e51b815260040180806020018281038252602f815260200180610e8b602f913960400191505060405180910390fd5b61065882826109c9565b5050565b610664610a38565b60668054911515600160a01b0260ff60a01b19909216919091179055565b61068a6109c5565b6001600160a01b0316816001600160a01b0316146106d95760405162461bcd60e51b815260040180806020018281038252602f815260200180610f18602f913960400191505060405180910390fd5b6106588282610aaa565b600390565b600054610100900460ff16806107015750610701610b19565b8061070f575060005460ff16155b61074a5760405162461bcd60e51b815260040180806020018281038252602e815260200180610eea602e913960400191505060405180910390fd5b600054610100900460ff16158015610775576000805460ff1961ff0019909116610100171660011790555b61077d610b2a565b61078860003361064e565b606680546001600160a01b038086166001600160a01b031992831617909255606580549285169290911691909117905580156107ca576000805461ff00191690555b505050565b604080516923a0a6a2afa0a226a4a760b11b8152905190819003600a01902081565b606654600160a01b900460ff1690565b600082815260336020526040812061081f908363ffffffff610bdc16565b90505b92915050565b600082815260336020526040812061081f908363ffffffff610be816565b600081815260336020526040812061082290610bfd565b60008281526033602052604090206002015461087b9061060e6109c5565b6106d95760405162461bcd60e51b8152600401808060200182810382526030815260200180610eba6030913960400191505060405180910390fd5b60006108c0610a38565b606654600160a01b900460ff1661090c576040805162461bcd60e51b815260206004820152600b60248201526a1b9bdd08195b98589b195960aa1b604482015290519081900360640190fd5b6065546066546001600160a01b039182169163862ae4df9116878760008161093057fe5b90506020020135896040518463ffffffff1660e01b815260040180846001600160a01b03166001600160a01b031681526020018381526020018281526020019350505050602060405180830381600087803b15801561098e57600080fd5b505af11580156109a2573d6000803e3d6000fd5b505050506040513d60208110156109b857600080fd5b5051979650505050505050565b3390565b60008281526033602052604090206109e7908263ffffffff610c0816565b15610658576109f46109c5565b6001600160a01b0316816001600160a01b0316837f2f8788117e7eff1d82e926ec794901d17c78024a50270940304540a733656f0d60405160405180910390a45050565b604080516923a0a6a2afa0a226a4a760b11b8152905190819003600a019020610a619033610828565b80610a725750610a72600033610828565b610aa8576040805162461bcd60e51b81526020600482015260026024820152614e4160f01b604482015290519081900360640190fd5b565b6000828152603360205260409020610ac8908263ffffffff610c1d16565b1561065857610ad56109c5565b6001600160a01b0316816001600160a01b0316837ff6391f5c32d9c69d2a47ea670b442974b53935d1edc7fd64eb21e047a839171b60405160405180910390a45050565b6000610b2430610c32565b15905090565b600054610100900460ff1680610b435750610b43610b19565b80610b51575060005460ff16155b610b8c5760405162461bcd60e51b815260040180806020018281038252602e815260200180610eea602e913960400191505060405180910390fd5b600054610100900460ff16158015610bb7576000805460ff1961ff0019909116610100171660011790555b610bbf610c38565b610bc7610c38565b8015610bd9576000805461ff00191690555b50565b600061081f8383610cd8565b600061081f836001600160a01b038416610d3c565b600061082282610d54565b600061081f836001600160a01b038416610d58565b600061081f836001600160a01b038416610da2565b3b151590565b600054610100900460ff1680610c515750610c51610b19565b80610c5f575060005460ff16155b610c9a5760405162461bcd60e51b815260040180806020018281038252602e815260200180610eea602e913960400191505060405180910390fd5b600054610100900460ff16158015610bc7576000805460ff1961ff0019909116610100171660011790558015610bd9576000805461ff001916905550565b81546000908210610d1a5760405162461bcd60e51b8152600401808060200182810382526022815260200180610e696022913960400191505060405180910390fd5b826000018281548110610d2957fe5b9060005260206000200154905092915050565b60009081526001919091016020526040902054151590565b5490565b6000610d648383610d3c565b610d9a57508154600181810184556000848152602080822090930184905584548482528286019093526040902091909155610822565b506000610822565b60008181526001830160205260408120548015610e5e5783546000198083019190810190600090879083908110610dd557fe5b9060005260206000200154905080876000018481548110610df257fe5b600091825260208083209091019290925582815260018981019092526040902090840190558654879080610e2257fe5b60019003818190600052602060002001600090559055866001016000878152602001908152602001600020600090556001945050505050610822565b600091505061082256fe456e756d657261626c655365743a20696e646578206f7574206f6620626f756e6473416363657373436f6e74726f6c3a2073656e646572206d75737420626520616e2061646d696e20746f206772616e74416363657373436f6e74726f6c3a2073656e646572206d75737420626520616e2061646d696e20746f207265766f6b65496e697469616c697a61626c653a20636f6e747261637420697320616c726561647920696e697469616c697a6564416363657373436f6e74726f6c3a2063616e206f6e6c792072656e6f756e636520726f6c657320666f722073656c66a2646970667358221220fec78d36a4849b9842e2f1352141249e3c4172d4967bf038577e66015a81db2e64736f6c63430006050033",
  "immutableReferences": {},
  "source": "pragma solidity ^0.6.0;\n\nimport \"@openzeppelin/contracts-upgradeable/proxy/Initializable.sol\";\nimport \"@openzeppelin/contracts-upgradeable/access/AccessControlUpgradeable.sol\";\nimport \"./items/Junk.sol\";\nimport \"./interfaces/IBridgeProxy.sol\";\n\n\ncontract JunkBridgeProxyContract is Initializable, AccessControlUpgradeable, IBridgeProxy {\n  \n    bytes32 public constant GAME_ADMIN = keccak256(\"GAME_ADMIN\");\n\n    Junk junk;\n    address nftStorageAddress;\n    bool enabled;\n\n    uint8 public constant UINT_NFT_VAR_META = 0;\n\n    modifier restricted() {\n        _restricted();\n        _;\n    }\n\n    function _restricted() internal view {\n        require(hasRole(GAME_ADMIN, msg.sender) || hasRole(DEFAULT_ADMIN_ROLE, msg.sender), \"NA\");\n    }\n\n    function initialize(address _nftStorageAddress, address _junk) public initializer {\n        __AccessControl_init();\n\n        _setupRole(DEFAULT_ADMIN_ROLE, msg.sender);\n\n        nftStorageAddress = _nftStorageAddress;\n        junk = Junk(_junk);\n    }\n\n \n    function collectData(uint256 tokenId) external view override returns (uint256[] memory uintVars, string memory stringVar) {\n        \n        (uint8 _stars) = junk.get(tokenId);\n\n        uintVars = new uint256[](1);\n        uintVars[UINT_NFT_VAR_META] = _packJunkData(_stars);\n    }\n\n    // for future use, bot will probe the returned value to know if the proxy contract has proper signature behavior\n    function sigVersion() external view override returns (uint256) {\n        return 3;\n    }\n\n    function isEnabled() external view override returns (bool) {\n        return enabled;\n    }\n\n    function setEnabled(bool _enabled) external restricted {\n        enabled = _enabled;\n    }\n\n    function mintOrUpdate(address /*receiver*/, uint256 tokenId, uint256[] calldata uintVars, string calldata stringVar) external restricted override returns (uint256) {\n        require(enabled, \"not enabled\");\n\n         tokenId = \n            junk.performMintJunkDetailed(nftStorageAddress, uintVars[UINT_NFT_VAR_META], tokenId);\n\n        return tokenId;\n    }\n\n    function _packJunkData(uint8 stars) public pure returns (uint256) {\n        return  uint256(stars);\n    }\n\n    function canBridge(address wallet, uint256 tokenId, uint256 targetChain) external view override returns (bool) {\n        return true;\n    }\n}\n",
  "sourcePath": "/mnt/e/work/cryptoblades/contracts/JunkBridgeProxyContract.sol",
  "compiler": {
    "name": "solc",
    "version": "0.6.5+commit.f956cc89.Emscripten.clang"
  },
  "schemaVersion": "3.3.4",
  "updatedAt": "2023-01-24T17:45:31.330Z",
  "devdoc": {
    "methods": {
      "getRoleAdmin(bytes32)": {
        "details": "Returns the admin role that controls `role`. See {grantRole} and {revokeRole}.     * To change a role's admin, use {_setRoleAdmin}."
      },
      "getRoleMember(bytes32,uint256)": {
        "details": "Returns one of the accounts that have `role`. `index` must be a value between 0 and {getRoleMemberCount}, non-inclusive.     * Role bearers are not sorted in any particular way, and their ordering may change at any point.     * WARNING: When using {getRoleMember} and {getRoleMemberCount}, make sure you perform all queries on the same block. See the following https://forum.openzeppelin.com/t/iterating-over-elements-on-enumerableset-in-openzeppelin-contracts/2296[forum post] for more information."
      },
      "getRoleMemberCount(bytes32)": {
        "details": "Returns the number of accounts that have `role`. Can be used together with {getRoleMember} to enumerate all bearers of a role."
      },
      "grantRole(bytes32,address)": {
        "details": "Grants `role` to `account`.     * If `account` had not been already granted `role`, emits a {RoleGranted} event.     * Requirements:     * - the caller must have ``role``'s admin role."
      },
      "hasRole(bytes32,address)": {
        "details": "Returns `true` if `account` has been granted `role`."
      },
      "renounceRole(bytes32,address)": {
        "details": "Revokes `role` from the calling account.     * Roles are often managed via {grantRole} and {revokeRole}: this function's purpose is to provide a mechanism for accounts to lose their privileges if they are compromised (such as when a trusted device is misplaced).     * If the calling account had been granted `role`, emits a {RoleRevoked} event.     * Requirements:     * - the caller must be `account`."
      },
      "revokeRole(bytes32,address)": {
        "details": "Revokes `role` from `account`.     * If `account` had been granted `role`, emits a {RoleRevoked} event.     * Requirements:     * - the caller must have ``role``'s admin role."
      }
    }
  },
  "userdoc": {
    "methods": {}
  }
}