{
  "contractName": "Launchpad",
  "abi": [
    {
      "anonymous": false,
      "inputs": [
        {
          "indexed": true,
          "internalType": "uint256",
          "name": "launchId",
          "type": "uint256"
        },
        {
          "indexed": false,
          "internalType": "uint256",
          "name": "amount",
          "type": "uint256"
        }
      ],
      "name": "FundsWithdrawn",
      "type": "event"
    },
    {
      "anonymous": false,
      "inputs": [
        {
          "indexed": true,
          "internalType": "address",
          "name": "user",
          "type": "address"
        },
        {
          "indexed": false,
          "internalType": "uint256",
          "name": "amount",
          "type": "uint256"
        }
      ],
      "name": "Invested",
      "type": "event"
    },
    {
      "anonymous": false,
      "inputs": [
        {
          "indexed": true,
          "internalType": "uint256",
          "name": "launchId",
          "type": "uint256"
        },
        {
          "indexed": false,
          "internalType": "uint256",
          "name": "phase",
          "type": "uint256"
        }
      ],
      "name": "LaunchAdded",
      "type": "event"
    },
    {
      "anonymous": false,
      "inputs": [
        {
          "indexed": true,
          "internalType": "address",
          "name": "user",
          "type": "address"
        },
        {
          "indexed": true,
          "internalType": "uint256",
          "name": "launchId",
          "type": "uint256"
        },
        {
          "indexed": false,
          "internalType": "uint256",
          "name": "amount",
          "type": "uint256"
        }
      ],
      "name": "LinearVestingClaimed",
      "type": "event"
    },
    {
      "anonymous": false,
      "inputs": [
        {
          "indexed": true,
          "internalType": "uint256",
          "name": "launchId",
          "type": "uint256"
        },
        {
          "indexed": false,
          "internalType": "uint256",
          "name": "timestamp",
          "type": "uint256"
        }
      ],
      "name": "LinearVestingEnabled",
      "type": "event"
    },
    {
      "anonymous": false,
      "inputs": [
        {
          "indexed": true,
          "internalType": "address",
          "name": "user",
          "type": "address"
        },
        {
          "indexed": true,
          "internalType": "uint256",
          "name": "launchId",
          "type": "uint256"
        },
        {
          "indexed": true,
          "internalType": "uint256",
          "name": "vestingId",
          "type": "uint256"
        },
        {
          "indexed": false,
          "internalType": "uint256",
          "name": "amount",
          "type": "uint256"
        }
      ],
      "name": "PeriodicVestingClaimed",
      "type": "event"
    },
    {
      "anonymous": false,
      "inputs": [
        {
          "indexed": true,
          "internalType": "uint256",
          "name": "launchId",
          "type": "uint256"
        },
        {
          "indexed": true,
          "internalType": "uint256",
          "name": "vestingId",
          "type": "uint256"
        },
        {
          "indexed": false,
          "internalType": "uint256",
          "name": "timestamp",
          "type": "uint256"
        }
      ],
      "name": "PeriodicVestingEnabled",
      "type": "event"
    },
    {
      "anonymous": false,
      "inputs": [
        {
          "indexed": true,
          "internalType": "bytes32",
          "name": "role",
          "type": "bytes32"
        },
        {
          "indexed": true,
          "internalType": "bytes32",
          "name": "previousAdminRole",
          "type": "bytes32"
        },
        {
          "indexed": true,
          "internalType": "bytes32",
          "name": "newAdminRole",
          "type": "bytes32"
        }
      ],
      "name": "RoleAdminChanged",
      "type": "event"
    },
    {
      "anonymous": false,
      "inputs": [
        {
          "indexed": true,
          "internalType": "bytes32",
          "name": "role",
          "type": "bytes32"
        },
        {
          "indexed": true,
          "internalType": "address",
          "name": "account",
          "type": "address"
        },
        {
          "indexed": true,
          "internalType": "address",
          "name": "sender",
          "type": "address"
        }
      ],
      "name": "RoleGranted",
      "type": "event"
    },
    {
      "anonymous": false,
      "inputs": [
        {
          "indexed": true,
          "internalType": "bytes32",
          "name": "role",
          "type": "bytes32"
        },
        {
          "indexed": true,
          "internalType": "address",
          "name": "account",
          "type": "address"
        },
        {
          "indexed": true,
          "internalType": "address",
          "name": "sender",
          "type": "address"
        }
      ],
      "name": "RoleRevoked",
      "type": "event"
    },
    {
      "anonymous": false,
      "inputs": [
        {
          "indexed": true,
          "internalType": "address",
          "name": "user",
          "type": "address"
        },
        {
          "indexed": true,
          "internalType": "address",
          "name": "targetWallet",
          "type": "address"
        },
        {
          "indexed": true,
          "internalType": "uint256",
          "name": "launchId",
          "type": "uint256"
        },
        {
          "indexed": false,
          "internalType": "uint256",
          "name": "amount",
          "type": "uint256"
        }
      ],
      "name": "SkillCommitted",
      "type": "event"
    },
    {
      "inputs": [],
      "name": "DEFAULT_ADMIN_ROLE",
      "outputs": [
        {
          "internalType": "bytes32",
          "name": "",
          "type": "bytes32"
        }
      ],
      "stateMutability": "view",
      "type": "function"
    },
    {
      "inputs": [],
      "name": "GAME_ADMIN",
      "outputs": [
        {
          "internalType": "bytes32",
          "name": "",
          "type": "bytes32"
        }
      ],
      "stateMutability": "view",
      "type": "function"
    },
    {
      "inputs": [],
      "name": "VAR_FUNDING_PERIOD_PHASE_1",
      "outputs": [
        {
          "internalType": "uint256",
          "name": "",
          "type": "uint256"
        }
      ],
      "stateMutability": "view",
      "type": "function"
    },
    {
      "inputs": [],
      "name": "VAR_FUNDING_PERIOD_PHASE_2",
      "outputs": [
        {
          "internalType": "uint256",
          "name": "",
          "type": "uint256"
        }
      ],
      "stateMutability": "view",
      "type": "function"
    },
    {
      "inputs": [],
      "name": "VAR_TIERS_AMOUNT",
      "outputs": [
        {
          "internalType": "uint256",
          "name": "",
          "type": "uint256"
        }
      ],
      "stateMutability": "view",
      "type": "function"
    },
    {
      "inputs": [],
      "name": "VAR_UNCLAIMED_ALLOCATION_PERCENTAGE",
      "outputs": [
        {
          "internalType": "uint256",
          "name": "",
          "type": "uint256"
        }
      ],
      "stateMutability": "view",
      "type": "function"
    },
    {
      "inputs": [],
      "name": "VAR_UNCLAIMED_COMMIT_START_OFFSET",
      "outputs": [
        {
          "internalType": "uint256",
          "name": "",
          "type": "uint256"
        }
      ],
      "stateMutability": "view",
      "type": "function"
    },
    {
      "inputs": [],
      "name": "VAR_UNCLAIMED_COMMIT_WINDOW",
      "outputs": [
        {
          "internalType": "uint256",
          "name": "",
          "type": "uint256"
        }
      ],
      "stateMutability": "view",
      "type": "function"
    },
    {
      "inputs": [],
      "name": "VAR_UNCLAIMED_TO_ALLOCATION_MULTIPLIER",
      "outputs": [
        {
          "internalType": "uint256",
          "name": "",
          "type": "uint256"
        }
      ],
      "stateMutability": "view",
      "type": "function"
    },
    {
      "inputs": [
        {
          "internalType": "address",
          "name": "",
          "type": "address"
        },
        {
          "internalType": "uint256",
          "name": "",
          "type": "uint256"
        }
      ],
      "name": "didUserCommitToLaunch",
      "outputs": [
        {
          "internalType": "bool",
          "name": "",
          "type": "bool"
        }
      ],
      "stateMutability": "view",
      "type": "function"
    },
    {
      "inputs": [
        {
          "internalType": "bytes32",
          "name": "role",
          "type": "bytes32"
        }
      ],
      "name": "getRoleAdmin",
      "outputs": [
        {
          "internalType": "bytes32",
          "name": "",
          "type": "bytes32"
        }
      ],
      "stateMutability": "view",
      "type": "function"
    },
    {
      "inputs": [
        {
          "internalType": "bytes32",
          "name": "role",
          "type": "bytes32"
        },
        {
          "internalType": "uint256",
          "name": "index",
          "type": "uint256"
        }
      ],
      "name": "getRoleMember",
      "outputs": [
        {
          "internalType": "address",
          "name": "",
          "type": "address"
        }
      ],
      "stateMutability": "view",
      "type": "function"
    },
    {
      "inputs": [
        {
          "internalType": "bytes32",
          "name": "role",
          "type": "bytes32"
        }
      ],
      "name": "getRoleMemberCount",
      "outputs": [
        {
          "internalType": "uint256",
          "name": "",
          "type": "uint256"
        }
      ],
      "stateMutability": "view",
      "type": "function"
    },
    {
      "inputs": [
        {
          "internalType": "bytes32",
          "name": "role",
          "type": "bytes32"
        },
        {
          "internalType": "address",
          "name": "account",
          "type": "address"
        }
      ],
      "name": "grantRole",
      "outputs": [],
      "stateMutability": "nonpayable",
      "type": "function"
    },
    {
      "inputs": [
        {
          "internalType": "bytes32",
          "name": "role",
          "type": "bytes32"
        },
        {
          "internalType": "address",
          "name": "account",
          "type": "address"
        }
      ],
      "name": "hasRole",
      "outputs": [
        {
          "internalType": "bool",
          "name": "",
          "type": "bool"
        }
      ],
      "stateMutability": "view",
      "type": "function"
    },
    {
      "inputs": [
        {
          "internalType": "uint256",
          "name": "",
          "type": "uint256"
        }
      ],
      "name": "launchBaseAllocation",
      "outputs": [
        {
          "internalType": "uint256",
          "name": "",
          "type": "uint256"
        }
      ],
      "stateMutability": "view",
      "type": "function"
    },
    {
      "inputs": [
        {
          "internalType": "uint256",
          "name": "",
          "type": "uint256"
        }
      ],
      "name": "launchFundsToRaise",
      "outputs": [
        {
          "internalType": "uint256",
          "name": "",
          "type": "uint256"
        }
      ],
      "stateMutability": "view",
      "type": "function"
    },
    {
      "inputs": [
        {
          "internalType": "uint256",
          "name": "",
          "type": "uint256"
        }
      ],
      "name": "launchLinearVestingsDurations",
      "outputs": [
        {
          "internalType": "uint256",
          "name": "",
          "type": "uint256"
        }
      ],
      "stateMutability": "view",
      "type": "function"
    },
    {
      "inputs": [
        {
          "internalType": "uint256",
          "name": "",
          "type": "uint256"
        }
      ],
      "name": "launchLinearVestingsStartTimestamps",
      "outputs": [
        {
          "internalType": "uint256",
          "name": "",
          "type": "uint256"
        }
      ],
      "stateMutability": "view",
      "type": "function"
    },
    {
      "inputs": [
        {
          "internalType": "uint256",
          "name": "",
          "type": "uint256"
        },
        {
          "internalType": "uint256",
          "name": "",
          "type": "uint256"
        }
      ],
      "name": "launchPeriodicVestingsStartTimestamps",
      "outputs": [
        {
          "internalType": "uint256",
          "name": "",
          "type": "uint256"
        }
      ],
      "stateMutability": "view",
      "type": "function"
    },
    {
      "inputs": [
        {
          "internalType": "uint256",
          "name": "",
          "type": "uint256"
        }
      ],
      "name": "launchStartTime",
      "outputs": [
        {
          "internalType": "uint256",
          "name": "",
          "type": "uint256"
        }
      ],
      "stateMutability": "view",
      "type": "function"
    },
    {
      "inputs": [
        {
          "internalType": "uint256",
          "name": "",
          "type": "uint256"
        }
      ],
      "name": "launchTokenAddress",
      "outputs": [
        {
          "internalType": "address",
          "name": "",
          "type": "address"
        }
      ],
      "stateMutability": "view",
      "type": "function"
    },
    {
      "inputs": [
        {
          "internalType": "uint256",
          "name": "",
          "type": "uint256"
        }
      ],
      "name": "launchTokenPrice",
      "outputs": [
        {
          "internalType": "uint256",
          "name": "",
          "type": "uint256"
        }
      ],
      "stateMutability": "view",
      "type": "function"
    },
    {
      "inputs": [
        {
          "internalType": "uint256",
          "name": "",
          "type": "uint256"
        }
      ],
      "name": "launchTotalRaised",
      "outputs": [
        {
          "internalType": "uint256",
          "name": "",
          "type": "uint256"
        }
      ],
      "stateMutability": "view",
      "type": "function"
    },
    {
      "inputs": [
        {
          "internalType": "uint256",
          "name": "",
          "type": "uint256"
        }
      ],
      "name": "launchTotalUnclaimedSkillCommittedValue",
      "outputs": [
        {
          "internalType": "uint256",
          "name": "",
          "type": "uint256"
        }
      ],
      "stateMutability": "view",
      "type": "function"
    },
    {
      "inputs": [
        {
          "internalType": "uint256",
          "name": "",
          "type": "uint256"
        },
        {
          "internalType": "address",
          "name": "",
          "type": "address"
        }
      ],
      "name": "launchUserInvestment",
      "outputs": [
        {
          "internalType": "uint256",
          "name": "",
          "type": "uint256"
        }
      ],
      "stateMutability": "view",
      "type": "function"
    },
    {
      "inputs": [
        {
          "internalType": "uint256",
          "name": "",
          "type": "uint256"
        },
        {
          "internalType": "address",
          "name": "",
          "type": "address"
        }
      ],
      "name": "launchUserStakedAmountSnapshot",
      "outputs": [
        {
          "internalType": "uint256",
          "name": "",
          "type": "uint256"
        }
      ],
      "stateMutability": "view",
      "type": "function"
    },
    {
      "inputs": [
        {
          "internalType": "uint256",
          "name": "",
          "type": "uint256"
        },
        {
          "internalType": "address",
          "name": "",
          "type": "address"
        }
      ],
      "name": "launchUserTotalUnclaimedSkillCommittedValue",
      "outputs": [
        {
          "internalType": "uint256",
          "name": "",
          "type": "uint256"
        }
      ],
      "stateMutability": "view",
      "type": "function"
    },
    {
      "inputs": [
        {
          "internalType": "uint256",
          "name": "",
          "type": "uint256"
        },
        {
          "internalType": "address",
          "name": "",
          "type": "address"
        }
      ],
      "name": "launchUserUnclaimedSkillCommittedValue",
      "outputs": [
        {
          "internalType": "uint256",
          "name": "",
          "type": "uint256"
        }
      ],
      "stateMutability": "view",
      "type": "function"
    },
    {
      "inputs": [
        {
          "internalType": "uint256",
          "name": "",
          "type": "uint256"
        }
      ],
      "name": "launches",
      "outputs": [
        {
          "internalType": "string",
          "name": "name",
          "type": "string"
        },
        {
          "internalType": "string",
          "name": "tokenSymbol",
          "type": "string"
        },
        {
          "internalType": "string",
          "name": "detailsJsonUri",
          "type": "string"
        },
        {
          "internalType": "string",
          "name": "imageUrl",
          "type": "string"
        },
        {
          "internalType": "address",
          "name": "fundingTokenAddress",
          "type": "address"
        },
        {
          "internalType": "uint256",
          "name": "phase",
          "type": "uint256"
        },
        {
          "internalType": "bool",
          "name": "commitOnly",
          "type": "bool"
        }
      ],
      "stateMutability": "view",
      "type": "function"
    },
    {
      "inputs": [],
      "name": "nextLaunchId",
      "outputs": [
        {
          "internalType": "uint256",
          "name": "",
          "type": "uint256"
        }
      ],
      "stateMutability": "view",
      "type": "function"
    },
    {
      "inputs": [
        {
          "internalType": "bytes32",
          "name": "role",
          "type": "bytes32"
        },
        {
          "internalType": "address",
          "name": "account",
          "type": "address"
        }
      ],
      "name": "renounceRole",
      "outputs": [],
      "stateMutability": "nonpayable",
      "type": "function"
    },
    {
      "inputs": [
        {
          "internalType": "bytes32",
          "name": "role",
          "type": "bytes32"
        },
        {
          "internalType": "address",
          "name": "account",
          "type": "address"
        }
      ],
      "name": "revokeRole",
      "outputs": [],
      "stateMutability": "nonpayable",
      "type": "function"
    },
    {
      "inputs": [],
      "name": "skillPrice",
      "outputs": [
        {
          "internalType": "uint256",
          "name": "",
          "type": "uint256"
        }
      ],
      "stateMutability": "view",
      "type": "function"
    },
    {
      "inputs": [
        {
          "internalType": "uint256",
          "name": "",
          "type": "uint256"
        }
      ],
      "name": "tierAllocationWeight",
      "outputs": [
        {
          "internalType": "uint256",
          "name": "",
          "type": "uint256"
        }
      ],
      "stateMutability": "view",
      "type": "function"
    },
    {
      "inputs": [
        {
          "internalType": "uint256",
          "name": "",
          "type": "uint256"
        }
      ],
      "name": "tierStakingRequirement",
      "outputs": [
        {
          "internalType": "uint256",
          "name": "",
          "type": "uint256"
        }
      ],
      "stateMutability": "view",
      "type": "function"
    },
    {
      "inputs": [
        {
          "internalType": "address",
          "name": "",
          "type": "address"
        },
        {
          "internalType": "uint256",
          "name": "",
          "type": "uint256"
        },
        {
          "internalType": "uint256",
          "name": "",
          "type": "uint256"
        }
      ],
      "name": "userClaimedVestingPortion",
      "outputs": [
        {
          "internalType": "bool",
          "name": "",
          "type": "bool"
        }
      ],
      "stateMutability": "view",
      "type": "function"
    },
    {
      "inputs": [
        {
          "internalType": "address",
          "name": "",
          "type": "address"
        },
        {
          "internalType": "uint256",
          "name": "",
          "type": "uint256"
        }
      ],
      "name": "userLinearVestingClaimTimestamp",
      "outputs": [
        {
          "internalType": "uint256",
          "name": "",
          "type": "uint256"
        }
      ],
      "stateMutability": "view",
      "type": "function"
    },
    {
      "inputs": [
        {
          "internalType": "uint256",
          "name": "",
          "type": "uint256"
        }
      ],
      "name": "vars",
      "outputs": [
        {
          "internalType": "uint256",
          "name": "",
          "type": "uint256"
        }
      ],
      "stateMutability": "view",
      "type": "function"
    },
    {
      "inputs": [
        {
          "internalType": "contract CryptoBlades",
          "name": "game",
          "type": "address"
        }
      ],
      "name": "initialize",
      "outputs": [],
      "stateMutability": "nonpayable",
      "type": "function"
    },
    {
      "inputs": [
        {
          "internalType": "uint256",
          "name": "amount",
          "type": "uint256"
        }
      ],
      "name": "getTierForStakedAmount",
      "outputs": [
        {
          "internalType": "uint256",
          "name": "tier",
          "type": "uint256"
        }
      ],
      "stateMutability": "view",
      "type": "function"
    },
    {
      "inputs": [
        {
          "internalType": "uint256",
          "name": "launchId",
          "type": "uint256"
        },
        {
          "internalType": "uint256",
          "name": "tier",
          "type": "uint256"
        }
      ],
      "name": "getLaunchAllocationForTier",
      "outputs": [
        {
          "internalType": "uint256",
          "name": "",
          "type": "uint256"
        }
      ],
      "stateMutability": "view",
      "type": "function"
    },
    {
      "inputs": [
        {
          "internalType": "address",
          "name": "user",
          "type": "address"
        },
        {
          "internalType": "uint256",
          "name": "launchId",
          "type": "uint256"
        }
      ],
      "name": "getUserRemainingAllocationForLaunch",
      "outputs": [
        {
          "internalType": "uint256",
          "name": "maxAllocation",
          "type": "uint256"
        }
      ],
      "stateMutability": "view",
      "type": "function"
    },
    {
      "inputs": [
        {
          "internalType": "uint256",
          "name": "launchId",
          "type": "uint256"
        },
        {
          "internalType": "uint256",
          "name": "vestingId",
          "type": "uint256"
        }
      ],
      "name": "getAvailableClaimAmount",
      "outputs": [
        {
          "internalType": "uint256",
          "name": "claimAmount",
          "type": "uint256"
        }
      ],
      "stateMutability": "view",
      "type": "function"
    },
    {
      "inputs": [
        {
          "internalType": "uint256",
          "name": "launchId",
          "type": "uint256"
        }
      ],
      "name": "getLinearClaimAmount",
      "outputs": [
        {
          "internalType": "uint256",
          "name": "claimAmount",
          "type": "uint256"
        }
      ],
      "stateMutability": "view",
      "type": "function"
    },
    {
      "inputs": [
        {
          "internalType": "uint256",
          "name": "launchId",
          "type": "uint256"
        }
      ],
      "name": "getLaunchDetails",
      "outputs": [
        {
          "internalType": "uint256",
          "name": "tokenPrice",
          "type": "uint256"
        },
        {
          "internalType": "uint256",
          "name": "startTime",
          "type": "uint256"
        },
        {
          "internalType": "uint256",
          "name": "fundsToRaise",
          "type": "uint256"
        },
        {
          "internalType": "uint256",
          "name": "maxAllocation",
          "type": "uint256"
        },
        {
          "internalType": "uint256",
          "name": "totalRaised",
          "type": "uint256"
        },
        {
          "internalType": "address",
          "name": "tokenAddress",
          "type": "address"
        }
      ],
      "stateMutability": "view",
      "type": "function"
    },
    {
      "inputs": [
        {
          "internalType": "uint256",
          "name": "launchId",
          "type": "uint256"
        }
      ],
      "name": "getOverallMaxAllocation",
      "outputs": [
        {
          "internalType": "uint256",
          "name": "",
          "type": "uint256"
        }
      ],
      "stateMutability": "view",
      "type": "function"
    },
    {
      "inputs": [
        {
          "internalType": "address",
          "name": "user",
          "type": "address"
        },
        {
          "internalType": "uint256",
          "name": "launchId",
          "type": "uint256"
        }
      ],
      "name": "isUserWhitelisted",
      "outputs": [
        {
          "internalType": "bool",
          "name": "",
          "type": "bool"
        }
      ],
      "stateMutability": "view",
      "type": "function"
    },
    {
      "inputs": [
        {
          "internalType": "uint256",
          "name": "launchId",
          "type": "uint256"
        }
      ],
      "name": "getTotalUnlockedPercentage",
      "outputs": [
        {
          "internalType": "uint256",
          "name": "totalUnlockedPercentage",
          "type": "uint256"
        }
      ],
      "stateMutability": "view",
      "type": "function"
    },
    {
      "inputs": [
        {
          "internalType": "uint256",
          "name": "launchId",
          "type": "uint256"
        }
      ],
      "name": "getLaunchVestingPercentages",
      "outputs": [
        {
          "internalType": "uint256[]",
          "name": "",
          "type": "uint256[]"
        }
      ],
      "stateMutability": "view",
      "type": "function"
    },
    {
      "inputs": [
        {
          "internalType": "uint256",
          "name": "launchId",
          "type": "uint256"
        }
      ],
      "name": "getTotalLaunchUserInvestment",
      "outputs": [
        {
          "internalType": "uint256",
          "name": "",
          "type": "uint256"
        }
      ],
      "stateMutability": "view",
      "type": "function"
    },
    {
      "inputs": [
        {
          "internalType": "uint256",
          "name": "launchId",
          "type": "uint256"
        }
      ],
      "name": "getUnclaimedCommittedValue",
      "outputs": [
        {
          "internalType": "uint256",
          "name": "",
          "type": "uint256"
        }
      ],
      "stateMutability": "view",
      "type": "function"
    },
    {
      "inputs": [
        {
          "internalType": "uint256[]",
          "name": "tierIds",
          "type": "uint256[]"
        },
        {
          "internalType": "uint256[]",
          "name": "stakingRequirements",
          "type": "uint256[]"
        },
        {
          "internalType": "uint256[]",
          "name": "tierWeights",
          "type": "uint256[]"
        }
      ],
      "name": "setBrandNewTiers",
      "outputs": [],
      "stateMutability": "nonpayable",
      "type": "function"
    },
    {
      "inputs": [
        {
          "internalType": "uint256[]",
          "name": "tierIds",
          "type": "uint256[]"
        },
        {
          "internalType": "uint256[]",
          "name": "stakingRequirements",
          "type": "uint256[]"
        }
      ],
      "name": "setTiersRequirements",
      "outputs": [],
      "stateMutability": "nonpayable",
      "type": "function"
    },
    {
      "inputs": [
        {
          "internalType": "uint256[]",
          "name": "tierIds",
          "type": "uint256[]"
        },
        {
          "internalType": "uint256[]",
          "name": "tierWeights",
          "type": "uint256[]"
        }
      ],
      "name": "setTiersAllocationWeights",
      "outputs": [],
      "stateMutability": "nonpayable",
      "type": "function"
    },
    {
      "inputs": [
        {
          "internalType": "string",
          "name": "name",
          "type": "string"
        },
        {
          "internalType": "string",
          "name": "tokenSymbol",
          "type": "string"
        },
        {
          "internalType": "string",
          "name": "detailsJsonUri",
          "type": "string"
        },
        {
          "internalType": "string",
          "name": "imageUrl",
          "type": "string"
        },
        {
          "internalType": "address",
          "name": "fundingTokenAddress",
          "type": "address"
        },
        {
          "internalType": "bool",
          "name": "commitOnly",
          "type": "bool"
        }
      ],
      "name": "addNewLaunch",
      "outputs": [],
      "stateMutability": "nonpayable",
      "type": "function"
    },
    {
      "inputs": [
        {
          "internalType": "uint256",
          "name": "launchId",
          "type": "uint256"
        },
        {
          "internalType": "uint256",
          "name": "startTime",
          "type": "uint256"
        }
      ],
      "name": "addSecondPhaseForLaunch",
      "outputs": [],
      "stateMutability": "nonpayable",
      "type": "function"
    },
    {
      "inputs": [
        {
          "internalType": "uint256",
          "name": "launchId",
          "type": "uint256"
        }
      ],
      "name": "removeLaunch",
      "outputs": [],
      "stateMutability": "nonpayable",
      "type": "function"
    },
    {
      "inputs": [
        {
          "internalType": "uint256",
          "name": "launchId",
          "type": "uint256"
        },
        {
          "internalType": "uint256",
          "name": "tokenPrice",
          "type": "uint256"
        },
        {
          "internalType": "uint256",
          "name": "startTime",
          "type": "uint256"
        },
        {
          "internalType": "uint256",
          "name": "fundsToRaise",
          "type": "uint256"
        }
      ],
      "name": "setLaunchDetails",
      "outputs": [],
      "stateMutability": "nonpayable",
      "type": "function"
    },
    {
      "inputs": [
        {
          "internalType": "uint256",
          "name": "launchId",
          "type": "uint256"
        },
        {
          "internalType": "string",
          "name": "name",
          "type": "string"
        }
      ],
      "name": "updateLaunchName",
      "outputs": [],
      "stateMutability": "nonpayable",
      "type": "function"
    },
    {
      "inputs": [
        {
          "internalType": "uint256",
          "name": "launchId",
          "type": "uint256"
        },
        {
          "internalType": "string",
          "name": "tokenSymbol",
          "type": "string"
        }
      ],
      "name": "updateLaunchTokenSymbol",
      "outputs": [],
      "stateMutability": "nonpayable",
      "type": "function"
    },
    {
      "inputs": [
        {
          "internalType": "uint256",
          "name": "launchId",
          "type": "uint256"
        },
        {
          "internalType": "string",
          "name": "detailsJsonUri",
          "type": "string"
        }
      ],
      "name": "updateLaunchDetailsJsonUri",
      "outputs": [],
      "stateMutability": "nonpayable",
      "type": "function"
    },
    {
      "inputs": [
        {
          "internalType": "uint256",
          "name": "launchId",
          "type": "uint256"
        },
        {
          "internalType": "string",
          "name": "imageUrl",
          "type": "string"
        }
      ],
      "name": "updateLaunchImageUrl",
      "outputs": [],
      "stateMutability": "nonpayable",
      "type": "function"
    },
    {
      "inputs": [
        {
          "internalType": "uint256",
          "name": "launchId",
          "type": "uint256"
        },
        {
          "internalType": "address",
          "name": "fundingTokenAddress",
          "type": "address"
        }
      ],
      "name": "updateLaunchFundingTokenAddress",
      "outputs": [],
      "stateMutability": "nonpayable",
      "type": "function"
    },
    {
      "inputs": [
        {
          "internalType": "uint256",
          "name": "launchId",
          "type": "uint256"
        },
        {
          "internalType": "bool",
          "name": "commitOnly",
          "type": "bool"
        }
      ],
      "name": "updateLaunchIsCommitOnly",
      "outputs": [],
      "stateMutability": "nonpayable",
      "type": "function"
    },
    {
      "inputs": [
        {
          "internalType": "uint256",
          "name": "launchId",
          "type": "uint256"
        },
        {
          "internalType": "uint256",
          "name": "tokenPrice",
          "type": "uint256"
        }
      ],
      "name": "updateLaunchTokenPrice",
      "outputs": [],
      "stateMutability": "nonpayable",
      "type": "function"
    },
    {
      "inputs": [
        {
          "internalType": "uint256",
          "name": "launchId",
          "type": "uint256"
        },
        {
          "internalType": "uint256",
          "name": "startTime",
          "type": "uint256"
        }
      ],
      "name": "updateLaunchStartTime",
      "outputs": [],
      "stateMutability": "nonpayable",
      "type": "function"
    },
    {
      "inputs": [
        {
          "internalType": "uint256",
          "name": "launchId",
          "type": "uint256"
        },
        {
          "internalType": "uint256",
          "name": "fundsToRaise",
          "type": "uint256"
        }
      ],
      "name": "updateLaunchFundsToRaise",
      "outputs": [],
      "stateMutability": "nonpayable",
      "type": "function"
    },
    {
      "inputs": [
        {
          "internalType": "uint256",
          "name": "launchId",
          "type": "uint256"
        },
        {
          "internalType": "address",
          "name": "tokenAddress",
          "type": "address"
        }
      ],
      "name": "updateLaunchTokenAddress",
      "outputs": [],
      "stateMutability": "nonpayable",
      "type": "function"
    },
    {
      "inputs": [
        {
          "internalType": "uint256",
          "name": "launchId",
          "type": "uint256"
        },
        {
          "internalType": "uint256",
          "name": "percentage",
          "type": "uint256"
        }
      ],
      "name": "enablePeriodicVesting",
      "outputs": [],
      "stateMutability": "nonpayable",
      "type": "function"
    },
    {
      "inputs": [
        {
          "internalType": "uint256",
          "name": "launchId",
          "type": "uint256"
        },
        {
          "internalType": "uint256",
          "name": "duration",
          "type": "uint256"
        }
      ],
      "name": "enableLinearVesting",
      "outputs": [],
      "stateMutability": "nonpayable",
      "type": "function"
    },
    {
      "inputs": [
        {
          "internalType": "uint256",
          "name": "launchId",
          "type": "uint256"
        },
        {
          "internalType": "address[]",
          "name": "users",
          "type": "address[]"
        },
        {
          "internalType": "uint256[]",
          "name": "stakedAmounts",
          "type": "uint256[]"
        }
      ],
      "name": "setEligibleUsersData",
      "outputs": [],
      "stateMutability": "nonpayable",
      "type": "function"
    },
    {
      "inputs": [
        {
          "internalType": "uint256",
          "name": "launchId",
          "type": "uint256"
        },
        {
          "internalType": "address[]",
          "name": "users",
          "type": "address[]"
        },
        {
          "internalType": "uint256[]",
          "name": "totalCommittedValues",
          "type": "uint256[]"
        }
      ],
      "name": "setTotalUnclaimedCommitted",
      "outputs": [],
      "stateMutability": "nonpayable",
      "type": "function"
    },
    {
      "inputs": [
        {
          "internalType": "uint256",
          "name": "launchId",
          "type": "uint256"
        }
      ],
      "name": "withdrawRaisedFunds",
      "outputs": [],
      "stateMutability": "nonpayable",
      "type": "function"
    },
    {
      "inputs": [
        {
          "internalType": "uint256",
          "name": "varField",
          "type": "uint256"
        },
        {
          "internalType": "uint256",
          "name": "value",
          "type": "uint256"
        }
      ],
      "name": "setVar",
      "outputs": [],
      "stateMutability": "nonpayable",
      "type": "function"
    },
    {
      "inputs": [
        {
          "internalType": "uint256[]",
          "name": "varFields",
          "type": "uint256[]"
        },
        {
          "internalType": "uint256[]",
          "name": "values",
          "type": "uint256[]"
        }
      ],
      "name": "setVars",
      "outputs": [],
      "stateMutability": "nonpayable",
      "type": "function"
    },
    {
      "inputs": [
        {
          "internalType": "uint256",
          "name": "price",
          "type": "uint256"
        }
      ],
      "name": "setSkillPrice",
      "outputs": [],
      "stateMutability": "nonpayable",
      "type": "function"
    },
    {
      "inputs": [
        {
          "internalType": "uint256",
          "name": "launchId",
          "type": "uint256"
        },
        {
          "internalType": "uint256",
          "name": "amount",
          "type": "uint256"
        }
      ],
      "name": "invest",
      "outputs": [],
      "stateMutability": "nonpayable",
      "type": "function"
    },
    {
      "inputs": [
        {
          "internalType": "uint256",
          "name": "launchId",
          "type": "uint256"
        },
        {
          "internalType": "uint256",
          "name": "vestingId",
          "type": "uint256"
        }
      ],
      "name": "claimPeriodic",
      "outputs": [],
      "stateMutability": "nonpayable",
      "type": "function"
    },
    {
      "inputs": [
        {
          "internalType": "uint256",
          "name": "launchId",
          "type": "uint256"
        }
      ],
      "name": "claimLinear",
      "outputs": [],
      "stateMutability": "nonpayable",
      "type": "function"
    },
    {
      "inputs": [
        {
          "internalType": "uint256",
          "name": "launchId",
          "type": "uint256"
        },
        {
          "internalType": "uint256",
          "name": "amount",
          "type": "uint256"
        },
        {
          "internalType": "address",
          "name": "whitelistedWallet",
          "type": "address"
        }
      ],
      "name": "commitUnclaimedSkill",
      "outputs": [],
      "stateMutability": "nonpayable",
      "type": "function"
    }
  ],
  "bytecode": "0x608060405234801561001057600080fd5b506159fd80620000216000396000f3fe608060405234801561001057600080fd5b506004361061048b5760003560e01c8063811f0b5a11610262578063bbe7305911610151578063d5803e3c116100ce578063e088237311610092578063e08823731461167c578063e298597b146116a1578063e6315a76146116a9578063e71a136a146116c6578063ea6a9471146116e3578063f41f2ef0146117005761048b565b8063d5803e3c146114df578063d83cedef14611502578063d87aa6431461151f578063dcce7b3a14611542578063dec0e417146116505761048b565b8063ca15c87311610115578063ca15c873146113ee578063cc4f8e9c1461140b578063d062e2a21461143d578063d24d144514611496578063d547741f146114b35761048b565b8063bbe73059146112fe578063c1a9a5c814611321578063c1bb24001461138e578063c4d66de8146113ab578063c8070b05146113d15761048b565b80639654e1e5116101df578063a217fddf116101a3578063a217fddf146111ac578063b37ff4c9146111b4578063b5235959146111bc578063b65b0352146111c4578063bba6610a146112395761048b565b80639654e1e51461106b578063979bd9cc146110975780639a273a091461109f5780639b686f4f14611114578063a13b2223146111895761048b565b80639010d07c116102265780639010d07c14610f9a57806391a5149314610fd957806391d14854146110055780639318943514611031578063961012a11461104e5761048b565b8063811f0b5a14610eee578063823c9aba14610f0b57806389db0a8314610f2e5780638c07d89714610f4b5780638fc2452a14610f775761048b565b80634a3d719d1161037e57806364908f93116102fb5780636c992a55116102bf5780636c992a5514610bda5780636e743fef14610bfd578063718588b614610c1a5780637371e30314610c375780637b443a7614610cfc5761048b565b806364908f9314610b26578063661c548e14610b6c5780636aa3ee3514610b985780636adb125d14610bb55780636ba7590b14610bd25761048b565b80635653d8c0116103425780635653d8c01461092e57806358f4c922146109515780635c49d33e1461096e5780635f5ef80514610add5780636231f75c14610b095761048b565b80634a3d719d146108a05780634bbbd68a146108c35780634c017ef1146108e65780634f2ef0f3146109035780635504d3d2146109265761048b565b8063320d56951161040c5780633e71bf57116103d05780633e71bf571461071c57806341724619146107485780634707d517146107505780634756e29a1461080e578063483237841461082b5761048b565b8063320d56951461067f57806336568abe146106ae578063391e5826146106da578063392dc77b146106e25780633a4c7026146106ff5761048b565b80632992af98116104535780632992af98146105df5780632bf0b0fa146106025780632f2ff15d1461061f57806331107a4a1461064b57806331a7ef60146106775761048b565b80630115a75d146104905780630979db90146104ce5780630a7501bb146104fc578063248a9ca3146105ba5780632970793a146105d7575b600080fd5b6104bc600480360360408110156104a657600080fd5b50803590602001356001600160a01b03166117be565b60408051918252519081900360200190f35b6104fa600480360360408110156104e457600080fd5b50803590602001356001600160a01b03166117db565b005b6104fa6004803603604081101561051257600080fd5b810190602081018135600160201b81111561052c57600080fd5b82018360208201111561053e57600080fd5b803590602001918460208302840111600160201b8311171561055f57600080fd5b919390929091602081019035600160201b81111561057c57600080fd5b82018360208201111561058e57600080fd5b803590602001918460208302840111600160201b831117156105af57600080fd5b509092509050611830565b6104bc600480360360208110156105d057600080fd5b503561188f565b6104bc6118a4565b6104fa600480360360408110156105f557600080fd5b50803590602001356118a9565b6104bc6004803603602081101561061857600080fd5b50356118ce565b6104fa6004803603604081101561063557600080fd5b50803590602001356001600160a01b0316611917565b6104bc6004803603604081101561066157600080fd5b506001600160a01b038135169060200135611983565b6104bc6119a0565b6104fa6004803603608081101561069557600080fd5b50803590602081013590604081013590606001356119a5565b6104fa600480360360408110156106c457600080fd5b50803590602001356001600160a01b03166119d7565b6104bc611a38565b6104bc600480360360208110156106f857600080fd5b5035611a3d565b6104bc6004803603602081101561071557600080fd5b5035611a4f565b6104bc6004803603604081101561073257600080fd5b50803590602001356001600160a01b0316611a61565b6104bc611a7e565b6104fa6004803603604081101561076657600080fd5b810190602081018135600160201b81111561078057600080fd5b82018360208201111561079257600080fd5b803590602001918460208302840111600160201b831117156107b357600080fd5b919390929091602081019035600160201b8111156107d057600080fd5b8201836020820111156107e257600080fd5b803590602001918460208302840111600160201b8311171561080357600080fd5b509092509050611a83565b6104bc6004803603602081101561082457600080fd5b5035611c05565b6104fa6004803603604081101561084157600080fd5b81359190810190604081016020820135600160201b81111561086257600080fd5b82018360208201111561087457600080fd5b803590602001918460018302840111600160201b8311171561089557600080fd5b509092509050611c17565b6104bc600480360360408110156108b657600080fd5b5080359060200135611c3e565b6104fa600480360360408110156108d957600080fd5b5080359060200135611d9b565b6104bc600480360360208110156108fc57600080fd5b5035611ef8565b6104fa6004803603604081101561091957600080fd5b5080359060200135611f0a565b6104bc6121a6565b6104fa6004803603604081101561094457600080fd5b50803590602001356121c8565b6104bc6004803603602081101561096757600080fd5b5035612247565b6104fa600480360360c081101561098457600080fd5b810190602081018135600160201b81111561099e57600080fd5b8201836020820111156109b057600080fd5b803590602001918460018302840111600160201b831117156109d157600080fd5b919390929091602081019035600160201b8111156109ee57600080fd5b820183602082011115610a0057600080fd5b803590602001918460018302840111600160201b83111715610a2157600080fd5b919390929091602081019035600160201b811115610a3e57600080fd5b820183602082011115610a5057600080fd5b803590602001918460018302840111600160201b83111715610a7157600080fd5b919390929091602081019035600160201b811115610a8e57600080fd5b820183602082011115610aa057600080fd5b803590602001918460018302840111600160201b83111715610ac157600080fd5b91935091506001600160a01b0381351690602001351515612259565b6104bc60048036036040811015610af357600080fd5b50803590602001356001600160a01b0316612489565b6104bc60048036036020811015610b1f57600080fd5b50356124a6565b610b5860048036036060811015610b3c57600080fd5b506001600160a01b0381351690602081013590604001356124b8565b604080519115158252519081900360200190f35b6104bc60048036036040811015610b8257600080fd5b50803590602001356001600160a01b03166124de565b6104bc60048036036020811015610bae57600080fd5b50356124fb565b6104fa60048036036020811015610bcb57600080fd5b503561250d565b6104bc6126ae565b6104fa60048036036040811015610bf057600080fd5b50803590602001356126b3565b6104bc60048036036020811015610c1357600080fd5b50356126cd565b6104bc60048036036020811015610c3057600080fd5b50356126f4565b6104fa60048036036060811015610c4d57600080fd5b81359190810190604081016020820135600160201b811115610c6e57600080fd5b820183602082011115610c8057600080fd5b803590602001918460208302840111600160201b83111715610ca157600080fd5b919390929091602081019035600160201b811115610cbe57600080fd5b820183602082011115610cd057600080fd5b803590602001918460208302840111600160201b83111715610cf157600080fd5b509092509050612706565b610d1960048036036020811015610d1257600080fd5b50356128b0565b6040518080602001806020018060200180602001886001600160a01b03166001600160a01b031681526020018781526020018615151515815260200185810385528c818151815260200191508051906020019080838360005b83811015610d8a578181015183820152602001610d72565b50505050905090810190601f168015610db75780820380516001836020036101000a031916815260200191505b5085810384528b5181528b516020918201918d019080838360005b83811015610dea578181015183820152602001610dd2565b50505050905090810190601f168015610e175780820380516001836020036101000a031916815260200191505b5085810383528a5181528a516020918201918c019080838360005b83811015610e4a578181015183820152602001610e32565b50505050905090810190601f168015610e775780820380516001836020036101000a031916815260200191505b5085810382528951815289516020918201918b019080838360005b83811015610eaa578181015183820152602001610e92565b50505050905090810190601f168015610ed75780820380516001836020036101000a031916815260200191505b509b50505050505050505050505060405180910390f35b6104bc60048036036020811015610f0457600080fd5b5035612b32565b6104fa60048036036040811015610f2157600080fd5b5080359060200135612b44565b6104bc60048036036020811015610f4457600080fd5b503561316d565b6104bc60048036036040811015610f6157600080fd5b506001600160a01b0381351690602001356131c4565b6104bc60048036036040811015610f8d57600080fd5b50803590602001356132f4565b610fbd60048036036040811015610fb057600080fd5b5080359060200135613320565b604080516001600160a01b039092168252519081900360200190f35b610b5860048036036040811015610fef57600080fd5b506001600160a01b03813516906020013561333e565b610b586004803603604081101561101b57600080fd5b50803590602001356001600160a01b031661335e565b6104fa6004803603602081101561104757600080fd5b503561337c565b6104bc6004803603602081101561106457600080fd5b5035613452565b610b586004803603604081101561108157600080fd5b506001600160a01b0381351690602001356135f0565b6104bc61362c565b6104fa600480360360408110156110b557600080fd5b81359190810190604081016020820135600160201b8111156110d657600080fd5b8201836020820111156110e857600080fd5b803590602001918460018302840111600160201b8311171561110957600080fd5b509092509050613632565b6104fa6004803603604081101561112a57600080fd5b81359190810190604081016020820135600160201b81111561114b57600080fd5b82018360208201111561115d57600080fd5b803590602001918460018302840111600160201b8311171561117e57600080fd5b509092509050613656565b6104fa6004803603604081101561119f57600080fd5b508035906020013561367a565b6104bc61369f565b6104bc6136a4565b6104bc6136a9565b6104fa600480360360408110156111da57600080fd5b81359190810190604081016020820135600160201b8111156111fb57600080fd5b82018360208201111561120d57600080fd5b803590602001918460018302840111600160201b8311171561122e57600080fd5b5090925090506136af565b6104fa6004803603606081101561124f57600080fd5b81359190810190604081016020820135600160201b81111561127057600080fd5b82018360208201111561128257600080fd5b803590602001918460208302840111600160201b831117156112a357600080fd5b919390929091602081019035600160201b8111156112c057600080fd5b8201836020820111156112d257600080fd5b803590602001918460208302840111600160201b831117156112f357600080fd5b5090925090506136d3565b6104fa6004803603604081101561131457600080fd5b50803590602001356138db565b61133e6004803603602081101561133757600080fd5b5035613bfe565b60408051602080825283518183015283519192839290830191858101910280838360005b8381101561137a578181015183820152602001611362565b505050509050019250505060405180910390f35b610fbd600480360360208110156113a457600080fd5b5035613c60565b6104fa600480360360208110156113c157600080fd5b50356001600160a01b0316613c7b565b6104bc600480360360208110156113e757600080fd5b5035613d79565b6104bc6004803603602081101561140457600080fd5b5035613d8b565b6104fa6004803603606081101561142157600080fd5b50803590602081013590604001356001600160a01b0316613da2565b61145a6004803603602081101561145357600080fd5b50356140aa565b60408051968752602087019590955285850193909352606085019190915260808401526001600160a01b031660a0830152519081900360c00190f35b6104fa600480360360208110156114ac57600080fd5b503561410f565b6104fa600480360360408110156114c957600080fd5b50803590602001356001600160a01b0316614182565b6104bc600480360360408110156114f557600080fd5b50803590602001356141db565b6104fa6004803603602081101561151857600080fd5b50356141f8565b6104fa6004803603604081101561153557600080fd5b5080359060200135614205565b6104fa6004803603606081101561155857600080fd5b810190602081018135600160201b81111561157257600080fd5b82018360208201111561158457600080fd5b803590602001918460208302840111600160201b831117156115a557600080fd5b919390929091602081019035600160201b8111156115c257600080fd5b8201836020820111156115d457600080fd5b803590602001918460208302840111600160201b831117156115f557600080fd5b919390929091602081019035600160201b81111561161257600080fd5b82018360208201111561162457600080fd5b803590602001918460208302840111600160201b8311171561164557600080fd5b5090925090506147f2565b6104fa6004803603604081101561166657600080fd5b50803590602001356001600160a01b0316614976565b6104fa6004803603604081101561169257600080fd5b508035906020013515156149ba565b6104bc6149f0565b6104bc600480360360208110156116bf57600080fd5b50356149f5565b6104bc600480360360208110156116dc57600080fd5b5035614a47565b6104bc600480360360208110156116f957600080fd5b5035614a59565b6104fa6004803603604081101561171657600080fd5b810190602081018135600160201b81111561173057600080fd5b82018360208201111561174257600080fd5b803590602001918460208302840111600160201b8311171561176357600080fd5b919390929091602081019035600160201b81111561178057600080fd5b82018360208201111561179257600080fd5b803590602001918460208302840111600160201b831117156117b357600080fd5b509092509050614aa6565b607060209081526000928352604080842090915290825290205481565b816117e581614c28565b6117ed614c7c565b506000828152606e602052604080822080546001600160a01b039094166001600160a01b0319948516811790915560019094018252902080549091169091179055565b611838614c7c565b60005b838110156118885782828281811061184f57fe5b905060200201356065600087878581811061186657fe5b602090810292909201358352508101919091526040016000205560010161183b565b5050505050565b60009081526033602052604090206002015490565b600281565b816118b381614ce9565b6118bb614c7c565b506000918252606b602052604090912055565b7ffe5763447401b7824374db37a18d1b70c48b3096356db8b084cc5f29ca9debf7546000828152607360205260408120549091611911919063ffffffff614d5316565b92915050565b60008281526033602052604090206002015461193a90611935614dac565b61335e565b6119755760405162461bcd60e51b815260040180806020018281038252602f815260200180615853602f913960400191505060405180910390fd5b61197f8282614db1565b5050565b607960209081526000928352604080842090915290825290205481565b600581565b6119ad614c7c565b600093845260696020908152604080862094909455606a815283852092909255606b909152912055565b6119df614dac565b6001600160a01b0316816001600160a01b031614611a2e5760405162461bcd60e51b815260040180806020018281038252602f815260200180615999602f913960400191505060405180910390fd5b61197f8282614e20565b600181565b606d6020526000908152604090205481565b60776020526000908152604090205481565b607260209081526000928352604080842090915290825290205481565b600681565b611a8b614c7c565b600160005260656020526000805160206158a883398151915254831115611aea576040805162461bcd60e51b815260206004820152600e60248201526d546f6f206d616e7920746965727360901b604482015290519081900360640190fd5b828114611b2c576040805162461bcd60e51b815260206004820152600b60248201526a15dc9bdb99c81a5b9c1d5d60aa1b604482015290519081900360640190fd5b60005b83811015611888576000858583818110611b4557fe5b90506020020135118015611b845750600160005260656020526000805160206158a883398151915254858583818110611b7a57fe5b9050602002013511155b611bc0576040805162461bcd60e51b815260206004820152600860248201526715dc9bdb99c81a5960c21b604482015290519081900360640190fd5b828282818110611bcc57fe5b9050602002013560676000878785818110611be357fe5b6020908102929092013583525081019190915260400160002055600101611b2f565b606c6020526000908152604090205481565b611c1f614c7c565b6000838152606860205260409020611c389083836156a2565b50505050565b600082611c4a81614c28565b6000848152606e6020908152604080832054815163313ce56760e01b815291516001600160a01b039091169263313ce5679260048082019391829003018186803b158015611c9757600080fd5b505afa158015611cab573d6000803e3d6000fd5b505050506040513d6020811015611cc157600080fd5b505160018601600090815260716020818152604080842033808652908352818520548b865293835281852090855290915282205460ff90931693509091611d0d9163ffffffff614e8f16565b9050611d856064611d6d607560008a81526020019081526020016000208881548110611d3557fe5b60009182526020808320909101548b83526069909152604090912054611d7990611d6d87670de0b6b3a764000063ffffffff614d5316565b9063ffffffff614ee916565b9063ffffffff614d5316565b9350611d918483614f50565b9695505050505050565b600082815260756020526040902054811115611dec576040805162461bcd60e51b815260206004820152600b60248201526a556e617661696c61626c6560a81b604482015290519081900360640190fd5b336000908152607a60209081526040808320858452825280832084845290915290205460ff1615611e56576040805162461bcd60e51b815260206004820152600f60248201526e105b1c9958591e4818db185a5b5959608a1b604482015290519081900360640190fd5b336000908152607a6020908152604080832085845282528083208484529091528120805460ff19166001179055611e8d8383611c3e565b6000848152606e6020526040902054909150611eb9906001600160a01b0316338363ffffffff614f9016565b6040805182815290518391859133917f88dd0c2bfab61b673e422b5446e53cec3ab2c8da47bd98221a09a37afba6045f919081900360200190a4505050565b606b6020526000908152604090205481565b81611f1481614c28565b82611f1e81614fe7565b611f26614c7c565b60008311611f3357600080fd5b60008481526075602052604090205415611f94576040805162461bcd60e51b815260206004820152601860248201527f506572696f6469632076657374696e6720656e61626c65640000000000000000604482015290519081900360640190fd5b600184016000908152606d60205260408082205486835290822054611fbe9163ffffffff614e8f16565b6000868152606e602090815260408083205481516370a0823160e01b8152306004820152915194955092936001600160a01b03909316926370a0823192602480840193919291829003018186803b15801561201857600080fd5b505afa15801561202c573d6000803e3d6000fd5b505050506040513d602081101561204257600080fd5b50516000878152606e6020908152604080832054815163313ce56760e01b8152915194955092936001600160a01b039093169263313ce56792600480840193919291829003018186803b15801561209857600080fd5b505afa1580156120ac573d6000803e3d6000fd5b505050506040513d60208110156120c257600080fd5b505160ff1690506120d38282614f50565b60008881526069602052604090205490925061210190611d6d85670de0b6b3a764000063ffffffff614d5316565b82101561214a576040805162461bcd60e51b81526020600482015260126024820152714e6f7420656e6f7567682062616c616e636560701b604482015290519081900360640190fd5b6000878152607760209081526040808320899055607882529182902042908190558251908152915189927f95ee33ad74b754efcc1976efd8e8df5674414ef294f1ab6892a3e4e40a9291eb92908290030190a250505050505050565b604080516923a0a6a2afa0a226a4a760b11b8152905190819003600a01902081565b6121d0614c7c565b600082815260696020526040902054158015906121fa57506000828152606b602052604090205415155b6122355760405162461bcd60e51b81526004018080602001828103825260288152602001806159716028913960400191505060405180910390fd5b6000918252606a602052604090912055565b60666020526000908152604090205481565b612261614c7c565b6040518060e001604052808b8b8080601f016020809104026020016040519081016040528093929190818152602001838380828437600092019190915250505090825250604080516020601f8c018190048102820181019092528a815291810191908b908b9081908401838280828437600092019190915250505090825250604080516020601f8a0181900481028201810190925288815291810191908990899081908401838280828437600092019190915250505090825250604080516020601f88018190048102820181019092528681529181019190879087908190840183828082843760009201829052509385525050506001600160a01b0385166020808401919091526001604080850191909152851515606090940193909352607b548252606881529190208251805191926123a092849290910190615720565b5060208281015180516123b99260018501920190615720565b50604082015180516123d5916002840191602090910190615720565b50606082015180516123f1916003840191602090910190615720565b5060808201516004820180546001600160a01b0319166001600160a01b0390921691909117905560a0820151600582015560c0909101516006909101805460ff1916911515919091179055607b54604080516001815290517f54562cb97f802ccc9f17deae8b01b5bf9af044cf16290c28d637e6e4e4c561d2916020908290030190a25050607b805460020190555050505050505050565b607160209081526000928352604080842090915290825290205481565b606a6020526000908152604090205481565b607a60209081526000938452604080852082529284528284209052825290205460ff1681565b607460209081526000928352604080842090915290825290205481565b60676020526000908152604090205481565b8061251781614c28565b61252260003361335e565b61255f576040805162461bcd60e51b81526020600482015260096024820152682737ba1037bbb732b960b91b604482015290519081900360640190fd5b7f2336b9432076a604ce9991266add6a78e7a0892d327c1598093d6435659e56fc546000838152606a602052604090205401421180156125d357507ff08cf23b9096e47c93681aae499ab9bfe983e27d836cc8ef3d90a528deceea0c54600183016000908152606a60205260409020540142115b61261a576040805162461bcd60e51b815260206004820152601360248201527213185d5b98da081b9bdd08199a5b9a5cda1959606a1b604482015290519081900360640190fd5b600182016000908152606d602052604080822054848352908220546126449163ffffffff614e8f16565b600084815260686020526040902060040154909150612673906001600160a01b0316338363ffffffff614f9016565b60408051828152905184917fd66662c0ded9e58fd31d5e44944bcfd07ffc15e6927ecc1382e7941cb7bd24c4919081900360200190a2505050565b600381565b6126bb614c7c565b60009182526065602052604090912055565b6001600090815260656020526000805160206158a8833981519152546119119083906132f4565b60696020526000908152604090205481565b8461271081614c28565b8561271a81614ce9565b612722614c7c565b86607b541015612764576040805162461bcd60e51b815260206004820152600860248201526715dc9bdb99c8125160c21b604482015290519081900360640190fd5b841580159061277257508483145b6127af576040805162461bcd60e51b8152602060048201526009602482015268109859081a5b9c1d5d60ba1b604482015290519081900360640190fd5b6000805b86811015612845578585828181106127c757fe5b90506020020135607460008b815260200190815260200160002060008a8a858181106127ef57fe5b905060200201356001600160a01b03166001600160a01b03166001600160a01b031681526020019081526020016000208190555085858281811061282f57fe5b60200291909101359290920191506001016127b3565b506000888152606b6020908152604080832054606c909252909120546128949161287991611d6d908563ffffffff614d5316565b60008a8152606c60205260409020549063ffffffff61504816565b6000988952606c60205260409098209790975550505050505050565b60686020908152600091825260409182902080548351601f600260001961010060018616150201909316929092049182018490048402810184019094528084529092918391908301828280156129475780601f1061291c57610100808354040283529160200191612947565b820191906000526020600020905b81548152906001019060200180831161292a57829003601f168201915b505050505090806001018054600181600116156101000203166002900480601f0160208091040260200160405190810160405280929190818152602001828054600181600116156101000203166002900480156129e55780601f106129ba576101008083540402835291602001916129e5565b820191906000526020600020905b8154815290600101906020018083116129c857829003601f168201915b50505060028085018054604080516020601f6000196101006001871615020190941695909504928301859004850281018501909152818152959695945090925090830182828015612a775780601f10612a4c57610100808354040283529160200191612a77565b820191906000526020600020905b815481529060010190602001808311612a5a57829003601f168201915b5050505060038301805460408051602060026001851615610100026000190190941693909304601f8101849004840282018401909252818152949594935090830182828015612b075780601f10612adc57610100808354040283529160200191612b07565b820191906000526020600020905b815481529060010190602001808311612aea57829003601f168201915b505050506004830154600584015460069094015492936001600160a01b039091169290915060ff1687565b60736020526000908152604090205481565b81612b4e81614c28565b612b56614c7c565b612b5e61578e565b60008481526068602090815260409182902082518154600260018216156101009081026000190190921604601f81018590049094028201810190945260e08101838152909391928492849190840182828015612bfb5780601f10612bd057610100808354040283529160200191612bfb565b820191906000526020600020905b815481529060010190602001808311612bde57829003601f168201915b50505050508152602001600182018054600181600116156101000203166002900480601f016020809104026020016040519081016040528092919081815260200182805460018160011615610100020316600290048015612c9d5780601f10612c7257610100808354040283529160200191612c9d565b820191906000526020600020905b815481529060010190602001808311612c8057829003601f168201915b5050509183525050600282810180546040805160206001841615610100026000190190931694909404601f81018390048302850183019091528084529381019390830182828015612d2f5780601f10612d0457610100808354040283529160200191612d2f565b820191906000526020600020905b815481529060010190602001808311612d1257829003601f168201915b505050918352505060038201805460408051602060026001851615610100026000190190941693909304601f8101849004840282018401909252818152938201939291830182828015612dc35780601f10612d9857610100808354040283529160200191612dc3565b820191906000526020600020905b815481529060010190602001808311612da657829003601f168201915b505050918352505060048201546001600160a01b031660208201526005820154604082015260069091015460ff161515606090910152607b549091508410612e3d576040805162461bcd60e51b815260206004820152600860248201526715dc9bdb99c81a5960c21b604482015290519081900360640190fd5b600184016000908152606a602052604090205415612e92576040805162461bcd60e51b815260206004820152600d60248201526c105b1c9958591e481859191959609a1b604482015290519081900360640190fd5b7f2336b9432076a604ce9991266add6a78e7a0892d327c1598093d6435659e56fc546000858152606a6020526040902054014211612f0e576040805162461bcd60e51b8152602060048201526014602482015273141a185cd9480c481b9bdd08199a5b9a5cda195960621b604482015290519081900360640190fd5b6000848152606d6020908152604080832054606b909252822054612f379163ffffffff61504816565b11612f7b576040805162461bcd60e51b815260206004820152600f60248201526e151bdad95b9cc81cdbdb19081bdd5d608a1b604482015290519081900360640190fd5b6040805160e08101825282518152602080840151818301528383015182840152606080850151908301526080808501516001600160a01b031690830152600260a083015260c08085015115159083015260018701600090815260688252929092208151805192939192612ff19284920190615720565b50602082810151805161300a9260018501920190615720565b5060408201518051613026916002840191602090910190615720565b5060608201518051613042916003840191602090910190615720565b5060808201516004820180546001600160a01b0319166001600160a01b0390921691909117905560a0820151600582015560c0909101516006909101805460ff1916911515919091179055600184016000818152606a60209081526040808320879055878352606982528083205493835280832093909355868252606d815282822054606b909152919020546130d791615048565b600185016000818152606b6020908152604080832094909455878252606c81528382205483835284832055878252606e8152838220548383529184902080546001600160a01b0319166001600160a01b0390931692909217909155825160028152925191927f54562cb97f802ccc9f17deae8b01b5bf9af044cf16290c28d637e6e4e4c561d2929081900390910190a250505050565b60008161317981614c28565b6001830160009081526071602081815260408084203380865290835281852054888652938352818520908552909152909120546131bb9163ffffffff614e8f16565b91505b50919050565b60006002820661322d5761322682613221607060006131ea84600163ffffffff61504816565b81526020019081526020016000206000876001600160a01b03166001600160a01b03168152602001908152602001600020546149f5565b6132f4565b9050613262565b60008281526070602090815260408083206001600160a01b038716845290915290205461325f908390613221906149f5565b90505b7ffe5763447401b7824374db37a18d1b70c48b3096356db8b084cc5f29ca9debf75460008381526074602090815260408083206001600160a01b03881684529091529020546132b69163ffffffff614d5316565b60008381526071602090815260408083206001600160a01b03881684529091529020549101906132ed90829063ffffffff61504816565b9392505050565b600081815260676020908152604080832054858452606c9092528220546132ed9163ffffffff614d5316565b60008281526033602052604081206132ed908363ffffffff6150a516565b607e60209081526000928352604080842090915290825290205460ff1681565b60008281526033602052604081206132ed908363ffffffff6150b116565b6000818152607760205260409020546133ca576040805162461bcd60e51b815260206004820152600b60248201526a556e617661696c61626c6560a81b604482015290519081900360640190fd5b60006133d582613452565b3360008181526079602090815260408083208784528252808320429055606e909152902054919250613417916001600160a01b0316908363ffffffff614f9016565b604080518281529051839133917f633be38749668b813cbafe64bf2a720b5dbb5b6914c703a88fc03218f4d39c119181900360200190a35050565b60008161345e81614c28565b6000838152606e6020908152604080832054815163313ce56760e01b815291516001600160a01b039091169263313ce5679260048082019391829003018186803b1580156134ab57600080fd5b505afa1580156134bf573d6000803e3d6000fd5b505050506040513d60208110156134d557600080fd5b505160018501600090815260716020818152604080842033808652908352818520548a865293835281852090855290915282205460ff909316935090916135219163ffffffff614e8f16565b3360009081526079602090815260408083208984529091529020549091508061355557506000858152607860205260409020545b600086815260776020908152604080832054607890925290912054014281111561357c5750425b80821115613588578091505b6000878152607760205260409020546135d990611d6d6135ae848663ffffffff61504816565b60008b815260696020526040902054611d7990611d6d89670de0b6b3a764000063ffffffff614d5316565b95506135e58685614f50565b979650505050505050565b60006002820661360e5761360b82600163ffffffff61504816565b91505b6000828152606f602052604090206132ed908463ffffffff6150b116565b607b5481565b61363a614c7c565b6000838152606860205260409020611c389060010183836156a2565b61365e614c7c565b6000838152606860205260409020611c389060030183836156a2565b8161368481614ce9565b61368c614c7c565b5060009182526069602052604090912055565b600081565b600481565b607c5481565b6136b7614c7c565b6000838152606860205260409020611c389060020183836156a2565b846136dd81614c28565b856136e781614ce9565b6136ef614c7c565b86607b541015613731576040805162461bcd60e51b815260206004820152600860248201526715dc9bdb99c8125160c21b604482015290519081900360640190fd5b841580159061373f57508483145b61377c576040805162461bcd60e51b8152602060048201526009602482015268109859081a5b9c1d5d60ba1b604482015290519081900360640190fd5b6000878152606c6020526040812054156137bf576000888152606c6020908152604080832054606b909252909120546137ba9163ffffffff614ee916565b6137c2565b60005b905060005b868110156138bb5761380f8888838181106137de57fe5b905060200201356001600160a01b0316606f60008c81526020019081526020016000206150c690919063ffffffff16565b613818576138b3565b85858281811061382457fe5b90506020020135607060008b815260200190815260200160002060008a8a8581811061384c57fe5b905060200201356001600160a01b03166001600160a01b03166001600160a01b03168152602001908152602001600020819055506067600061389f88888581811061389357fe5b905060200201356149f5565b815260200190815260200160002054820191505b6001016137c7565b506000888152606b6020526040902054612894908263ffffffff614ee916565b816138e581614c28565b826138ef81614fe7565b6138f7614c7c565b60008481526077602052604090205415613951576040805162461bcd60e51b8152602060048201526016602482015275131a5b99585c881d995cdd1a5b99c8195b98589b195960521b604482015290519081900360640190fd5b60648361395d86614a59565b0111156139b1576040805162461bcd60e51b815260206004820152601960248201527f546f74616c2070657263656e7461676520657863656564656400000000000000604482015290519081900360640190fd5b600184016000908152606d602052604080822054868352908220546139db9163ffffffff614e8f16565b6000868152606e602090815260408083205481516370a0823160e01b8152306004820152915194955092936001600160a01b03909316926370a0823192602480840193919291829003018186803b158015613a3557600080fd5b505afa158015613a49573d6000803e3d6000fd5b505050506040513d6020811015613a5f57600080fd5b50516000878152606e6020908152604080832054815163313ce56760e01b8152915194955092936001600160a01b039093169263313ce56792600480840193919291829003018186803b158015613ab557600080fd5b505afa158015613ac9573d6000803e3d6000fd5b505050506040513d6020811015613adf57600080fd5b505160ff169050613af08282614f50565b9150613b326064611d6d88613b048b614a59565b60008c815260696020526040902054910190611d7990611d6d89670de0b6b3a764000063ffffffff614d5316565b821015613b7b576040805162461bcd60e51b81526020600482015260126024820152714e6f7420656e6f7567682062616c616e636560701b604482015290519081900360640190fd5b60008781526075602090815260408083208054600181018255818552838520018a90558a845254607683528184206000199091018085529083529281902042908190558151908152905183928b927f88ef35ad1d14b976b2b27864185275925573e114a8f1e246b2ffd06f5c4b4b9d929081900390910190a35050505050505050565b600081815260756020908152604091829020805483518184028101840190945280845260609392830182828015613c5457602002820191906000526020600020905b815481526020019060010190808311613c40575b50505050509050919050565b606e602052600090815260409020546001600160a01b031681565b600054610100900460ff1680613c945750613c946150db565b80613ca2575060005460ff16155b613cdd5760405162461bcd60e51b815260040180806020018281038252602e8152602001806158f8602e913960400191505060405180910390fd5b600054610100900460ff16158015613d08576000805460ff1961ff0019909116610100171660011790555b613d106150ec565b613d1b600033611975565b604080516923a0a6a2afa0a226a4a760b11b8152905190819003600a019020613d449033611975565b607d80546001600160a01b0319166001600160a01b0384161790556001607b55801561197f576000805461ff00191690555050565b60786020526000908152604090205481565b60008181526033602052604081206119119061518d565b8083613dae8282615198565b84613db881614ce9565b85613dc281614c28565b7fb04664816ed18805f9f76c183dfc790ae2199deac78ef4875d3977c4556d8aa9546000888152606a60205260408120549091613e05919063ffffffff61504816565b9050804210158015613e535750600660005260656020527f04a5731ce8ad6be395c578c475212c2c17a7a79e2d18742d54199a610648d25154613e4f90829063ffffffff614e8f16565b4211155b613e9a576040805162461bcd60e51b81526020600482015260136024820152724e6f74206120636f6d6d69742077696e646f7760681b604482015290519081900360640190fd5b6000613ebd670de0b6b3a7640000611d6d607c548b614d5390919063ffffffff16565b60008a8152606b602090815260408220546005909252606590527fa658daa5290735f9f8eb96735ff19e7edf66e9fa2410847039992283ea5ce9b254919250613f1391606491611d6d919063ffffffff614d5316565b7ffe5763447401b7824374db37a18d1b70c48b3096356db8b084cc5f29ca9debf75460008b815260736020526040902054613f599190611d79908563ffffffff614e8f16565b1115613fac576040805162461bcd60e51b815260206004820152601760248201527f556e636c61696d6564206c696d69742072656163686564000000000000000000604482015290519081900360640190fd5b336000908152607e602090815260408083208c845290915290205460ff1615614010576040805162461bcd60e51b8152602060048201526011602482015270105b1c9958591e4818dbdb5b5a5d1d1959607a1b604482015290519081900360640190fd5b60008981526072602090815260408083206001600160a01b038b168085529083528184208054860190558c84526073835281842080548601905533808552607e84528285208e8652845293829020805460ff1916600117905581518c815291518d94919391927fc41de2d6f2a9b2a36a9852a734ce57886aa31eeb4dc7495987593c1fceabcb2892908290030190a4505050505050505050565b600081815260696020908152604080832054606a835281842054606b90935290832054909280806140da876126cd565b6000978852606d60209081526040808a2054606e9092529098205496989597949690956001600160a01b039091169350915050565b614117614c7c565b60008181526068602052604081209061413082826157d6565b61413e6001830160006157d6565b61414c6002830160006157d6565b61415a6003830160006157d6565b506004810180546001600160a01b031916905560006005820155600601805460ff1916905550565b6000828152603360205260409020600201546141a090611935614dac565b611a2e5760405162461bcd60e51b81526004018080602001828103825260308152602001806158c86030913960400191505060405180910390fd5b607660209081526000928352604080842090915290825290205481565b614200614c7c565b607c55565b33826142118282615198565b61421961578e565b60008581526068602090815260409182902082518154600260018216156101009081026000190190921604601f81018590049094028201810190945260e081018381529093919284928491908401828280156142b65780601f1061428b576101008083540402835291602001916142b6565b820191906000526020600020905b81548152906001019060200180831161429957829003601f168201915b50505050508152602001600182018054600181600116156101000203166002900480601f0160208091040260200160405190810160405280929190818152602001828054600181600116156101000203166002900480156143585780601f1061432d57610100808354040283529160200191614358565b820191906000526020600020905b81548152906001019060200180831161433b57829003601f168201915b5050509183525050600282810180546040805160206001841615610100026000190190931694909404601f810183900483028501830190915280845293810193908301828280156143ea5780601f106143bf576101008083540402835291602001916143ea565b820191906000526020600020905b8154815290600101906020018083116143cd57829003601f168201915b505050918352505060038201805460408051602060026001851615610100026000190190941693909304601f810184900484028201840190925281815293820193929183018282801561447e5780601f106144535761010080835404028352916020019161447e565b820191906000526020600020905b81548152906001019060200180831161446157829003601f168201915b505050918352505060048201546001600160a01b031660208201526005820154604082015260069091015460ff16151560609091015260c081015190915015614505576040805162461bcd60e51b815260206004820152601460248201527324b73b32b9ba1037b7103234b3331031b430b4b760611b604482015290519081900360640190fd5b6000858152606a60205260409020541580159061452f57506000858152606a602052604090205442115b614575576040805162461bcd60e51b815260206004820152601260248201527113185d5b98da081b9bdd081cdd185c9d195960721b604482015290519081900360640190fd5b8060a0015160011480156145b957507f2336b9432076a604ce9991266add6a78e7a0892d327c1598093d6435659e56fc546000868152606a60205260409020540142105b8061460357508060a00151600214801561460357507ff08cf23b9096e47c93681aae499ab9bfe983e27d836cc8ef3d90a528deceea0c546000868152606a60205260409020540142105b614643576040805162461bcd60e51b815260206004820152600c60248201526b13185d5b98da08195b99195960a21b604482015290519081900360640190fd5b600085815260696020526040902054614699576040805162461bcd60e51b8152602060048201526013602482015272151bdad95b881c1c9a58d9481b9bdd081cd95d606a1b604482015290519081900360640190fd5b6000858152606b6020908152604080832054606d9092529091205485011115614709576040805162461bcd60e51b815260206004820152601f60248201527f416d6f756e7420657863656564732072656d61696e696e6720737570706c7900604482015290519081900360640190fd5b8361471433876131c4565b1015614767576040805162461bcd60e51b815260206004820152601d60248201527f416c6c6f636174696f6e20616c6c6f77616e6365206578636565646564000000604482015290519081900360640190fd5b6080810151614787906001600160a01b031633308763ffffffff6151e516565b600085815260716020908152604080832033808552908352818420805489019055888452606d835292819020805488019055805187815290517fc3f75dfc78f6efac88ad5abb5e606276b903647d97b2a62a1ef89840a658bbc3929181900390910190a25050505050565b6147fa614c7c565b84831461483c576040805162461bcd60e51b815260206004820152600b60248201526a15dc9bdb99c81a5b9c1d5d60aa1b604482015290519081900360640190fd5b6001600090815260656020526000805160206158a88339815191528690555b8581101561496d57600087878381811061487157fe5b905060200201351180156148b05750600160005260656020526000805160206158a8833981519152548787838181106148a657fe5b9050602002013511155b6148ec576040805162461bcd60e51b815260206004820152600860248201526715dc9bdb99c81a5960c21b604482015290519081900360640190fd5b8484828181106148f857fe5b905060200201356066600089898581811061490f57fe5b9050602002013581526020019081526020016000208190555082828281811061493457fe5b905060200201356067600089898581811061494b57fe5b602090810292909201358352508101919091526040016000205560010161485b565b50505050505050565b8161498081614ce9565b614988614c7c565b5060009182526068602052604090912060040180546001600160a01b0319166001600160a01b03909216919091179055565b816149c481614ce9565b6149cc614c7c565b50600091825260686020526040909120600601805460ff1916911515919091179055565b600781565b600060015b600160005260656020526000805160206158a88339815191525481116131be576000818152606660205260409020548310614a3a57600190910190614a3f565b6131be565b6001016149fa565b60656020526000908152604090205481565b6000805b6000838152607560205260409020548110156131be576000838152607560205260409020805482908110614a8d57fe5b6000918252602090912001549190910190600101614a5d565b614aae614c7c565b600160005260656020526000805160206158a883398151915254831115614b0d576040805162461bcd60e51b815260206004820152600e60248201526d546f6f206d616e7920746965727360901b604482015290519081900360640190fd5b828114614b4f576040805162461bcd60e51b815260206004820152600b60248201526a15dc9bdb99c81a5b9c1d5d60aa1b604482015290519081900360640190fd5b60005b83811015611888576000858583818110614b6857fe5b90506020020135118015614ba75750600160005260656020526000805160206158a883398151915254858583818110614b9d57fe5b9050602002013511155b614be3576040805162461bcd60e51b815260206004820152600860248201526715dc9bdb99c81a5960c21b604482015290519081900360640190fd5b828282818110614bef57fe5b9050602002013560666000878785818110614c0657fe5b6020908102929092013583525081019190915260400160002055600101614b52565b60028106600114614c79576040805162461bcd60e51b8152602060048201526016602482015275557361626c65206f6e6c79206f6e207068617365203160501b604482015290519081900360640190fd5b50565b604080516923a0a6a2afa0a226a4a760b11b8152905190819003600a019020614ca5903361335e565b614ce7576040805162461bcd60e51b815260206004820152600e60248201526d2737ba1033b0b6b29030b236b4b760911b604482015290519081900360640190fd5b565b6000818152606a60205260409020541580614d1157506000818152606a602052604090205442105b614c79576040805162461bcd60e51b815260206004820152600e60248201526d13185d5b98da081cdd185c9d195960921b604482015290519081900360640190fd5b600082614d6257506000611911565b82820282848281614d6f57fe5b04146132ed5760405162461bcd60e51b81526004018080602001828103825260218152602001806159266021913960400191505060405180910390fd5b335b90565b6000828152603360205260409020614dcf908263ffffffff6150c616565b1561197f57614ddc614dac565b6001600160a01b0316816001600160a01b0316837f2f8788117e7eff1d82e926ec794901d17c78024a50270940304540a733656f0d60405160405180910390a45050565b6000828152603360205260409020614e3e908263ffffffff61523f16565b1561197f57614e4b614dac565b6001600160a01b0316816001600160a01b0316837ff6391f5c32d9c69d2a47ea670b442974b53935d1edc7fd64eb21e047a839171b60405160405180910390a45050565b6000828201838110156132ed576040805162461bcd60e51b815260206004820152601b60248201527f536166654d6174683a206164646974696f6e206f766572666c6f770000000000604482015290519081900360640190fd5b6000808211614f3f576040805162461bcd60e51b815260206004820152601a60248201527f536166654d6174683a206469766973696f6e206279207a65726f000000000000604482015290519081900360640190fd5b818381614f4857fe5b049392505050565b60006012821115614f7957614f72836011198401600a0a63ffffffff614d5316565b9050611911565b6132ed836012849003600a0a63ffffffff614ee916565b604080516001600160a01b038416602482015260448082018490528251808303909101815260649091019091526020810180516001600160e01b031663a9059cbb60e01b179052614fe2908490615254565b505050565b6000818152606e60205260409020546001600160a01b0316614c79576040805162461bcd60e51b8152602060048201526015602482015274151bdad95b881859191c995cdcc81b9bdd081cd95d605a1b604482015290519081900360640190fd5b60008282111561509f576040805162461bcd60e51b815260206004820152601e60248201527f536166654d6174683a207375627472616374696f6e206f766572666c6f770000604482015290519081900360640190fd5b50900390565b60006132ed8383615305565b60006132ed836001600160a01b038416615369565b60006132ed836001600160a01b038416615381565b60006150e6306153cb565b15905090565b600054610100900460ff168061510557506151056150db565b80615113575060005460ff16155b61514e5760405162461bcd60e51b815260040180806020018281038252602e8152602001806158f8602e913960400191505060405180910390fd5b600054610100900460ff16158015615179576000805460ff1961ff0019909116610100171660011790555b8015614c79576000805461ff001916905550565b6000611911826153d1565b6151a282826135f0565b61197f576040805162461bcd60e51b815260206004820152600f60248201526e139bdd081dda1a5d195b1a5cdd1959608a1b604482015290519081900360640190fd5b604080516001600160a01b0380861660248301528416604482015260648082018490528251808303909101815260849091019091526020810180516001600160e01b03166323b872dd60e01b179052611c38908590615254565b60006132ed836001600160a01b0384166153d5565b60606152a9826040518060400160405280602081526020017f5361666545524332303a206c6f772d6c6576656c2063616c6c206661696c6564815250856001600160a01b031661549b9092919063ffffffff16565b805190915015614fe2578080602001905160208110156152c857600080fd5b5051614fe25760405162461bcd60e51b815260040180806020018281038252602a815260200180615947602a913960400191505060405180910390fd5b815460009082106153475760405162461bcd60e51b81526004018080602001828103825260228152602001806158316022913960400191505060405180910390fd5b82600001828154811061535657fe5b9060005260206000200154905092915050565b60009081526001919091016020526040902054151590565b600061538d8383615369565b6153c357508154600181810184556000848152602080822090930184905584548482528286019093526040902091909155611911565b506000611911565b3b151590565b5490565b60008181526001830160205260408120548015615491578354600019808301919081019060009087908390811061540857fe5b906000526020600020015490508087600001848154811061542557fe5b60009182526020808320909101929092558281526001898101909252604090209084019055865487908061545557fe5b60019003818190600052602060002001600090559055866001016000878152602001908152602001600020600090556001945050505050611911565b6000915050611911565b60606154aa84846000856154b2565b949350505050565b6060824710156154f35760405162461bcd60e51b81526004018080602001828103825260268152602001806158826026913960400191505060405180910390fd5b6154fc856153cb565b61554d576040805162461bcd60e51b815260206004820152601d60248201527f416464726573733a2063616c6c20746f206e6f6e2d636f6e7472616374000000604482015290519081900360640190fd5b60006060866001600160a01b031685876040518082805190602001908083835b6020831061558c5780518252601f19909201916020918201910161556d565b6001836020036101000a03801982511681845116808217855250505050505090500191505060006040518083038185875af1925050503d80600081146155ee576040519150601f19603f3d011682016040523d82523d6000602084013e6155f3565b606091505b50915091506135e58282866060831561560d5750816132ed565b82511561561d5782518084602001fd5b8160405162461bcd60e51b81526004018080602001828103825283818151815260200191508051906020019080838360005b8381101561566757818101518382015260200161564f565b50505050905090810190601f1680156156945780820380516001836020036101000a031916815260200191505b509250505060405180910390fd5b828054600181600116156101000203166002900490600052602060002090601f016020900481019282601f106156e35782800160ff19823516178555615710565b82800160010185558215615710579182015b828111156157105782358255916020019190600101906156f5565b5061571c929150615816565b5090565b828054600181600116156101000203166002900490600052602060002090601f016020900481019282601f1061576157805160ff1916838001178555615710565b82800160010185558215615710579182015b82811115615710578251825591602001919060010190615773565b6040518060e001604052806060815260200160608152602001606081526020016060815260200160006001600160a01b03168152602001600081526020016000151581525090565b50805460018160011615610100020316600290046000825580601f106157fc5750614c79565b601f016020900490600052602060002090810190614c7991905b614dae91905b8082111561571c576000815560010161581c56fe456e756d657261626c655365743a20696e646578206f7574206f6620626f756e6473416363657373436f6e74726f6c3a2073656e646572206d75737420626520616e2061646d696e20746f206772616e74416464726573733a20696e73756666696369656e742062616c616e636520666f722063616c6c4d5a9bd2e41301728d41c8e705190becb4e74abe869f75bdb405b63716a35f9e416363657373436f6e74726f6c3a2073656e646572206d75737420626520616e2061646d696e20746f207265766f6b65496e697469616c697a61626c653a20636f6e747261637420697320616c726561647920696e697469616c697a6564536166654d6174683a206d756c7469706c69636174696f6e206f766572666c6f775361666545524332303a204552433230206f7065726174696f6e20646964206e6f74207375636365656453657420746f6b656e20707269636520616e642066756e647320746f207261697365206669727374416363657373436f6e74726f6c3a2063616e206f6e6c792072656e6f756e636520726f6c657320666f722073656c66a26469706673582212202ada148102362d0af5e67b50f1c11330a2b1ed7d69fcebba1783ba3ffa2120ae64736f6c63430006050033",
  "immutableReferences": {},
  "source": "pragma solidity ^0.6.2;\n\nimport \"@openzeppelin/contracts-upgradeable/proxy/Initializable.sol\";\nimport \"@openzeppelin/contracts-upgradeable/access/AccessControlUpgradeable.sol\";\nimport \"@openzeppelin/contracts/utils/EnumerableSet.sol\";\nimport \"@openzeppelin/contracts/token/ERC20/IERC20.sol\";\nimport \"@openzeppelin/contracts/token/ERC20/ERC20.sol\";\nimport \"@openzeppelin/contracts/token/ERC20/SafeERC20.sol\";\nimport \"@openzeppelin/contracts/math/SafeMath.sol\";\n\nimport \"./common.sol\";\nimport \"./cryptoblades.sol\";\n\ncontract Launchpad is Initializable, AccessControlUpgradeable {\n    using SafeMath for uint256;\n    using SafeERC20 for IERC20;\n    using EnumerableSet for EnumerableSet.AddressSet;\n\n    bytes32 public constant GAME_ADMIN = keccak256(\"GAME_ADMIN\");\n\n    struct Launch {\n        string name;\n        string tokenSymbol;\n        string detailsJsonUri;\n        string imageUrl;\n        address fundingTokenAddress;\n        uint256 phase;\n        bool commitOnly;\n    }\n\n    // VARS\n    mapping(uint256 => uint256) public vars;\n    uint256 public constant VAR_TIERS_AMOUNT = 1;\n    uint256 public constant VAR_FUNDING_PERIOD_PHASE_1 = 2;\n    uint256 public constant VAR_FUNDING_PERIOD_PHASE_2 = 3;\n    uint256 public constant VAR_UNCLAIMED_TO_ALLOCATION_MULTIPLIER = 4;\n    uint256 public constant VAR_UNCLAIMED_ALLOCATION_PERCENTAGE = 5;\n    uint256 public constant VAR_UNCLAIMED_COMMIT_WINDOW = 6;\n    uint256 public constant VAR_UNCLAIMED_COMMIT_START_OFFSET = 7;\n    \n\n    // TIERS INFO\n    mapping(uint256 => uint256) public tierStakingRequirement;\n    mapping(uint256 => uint256) public tierAllocationWeight;\n\n    // LAUNCHPAD PROJECT INFO\n    mapping(uint256 => Launch) public launches;\n    mapping(uint256 => uint256) public launchTokenPrice;\n    mapping(uint256 => uint256) public launchStartTime;\n    mapping(uint256 => uint256) public launchFundsToRaise;\n    mapping(uint256 => uint256) public launchBaseAllocation;\n    mapping(uint256 => uint256) public launchTotalRaised;\n    mapping(uint256 => address) public launchTokenAddress;\n\n    // USER INFO\n    mapping(uint256 => EnumerableSet.AddressSet) launchEligibleUsersSnapshot;\n    mapping(uint256 => mapping(address => uint256)) public launchUserStakedAmountSnapshot;    \n    mapping(uint256 => mapping(address => uint256)) public launchUserInvestment;\n    mapping(uint256 => mapping(address => uint256)) public launchUserUnclaimedSkillCommittedValue;\n    mapping(uint256 => uint256) public launchTotalUnclaimedSkillCommittedValue;\n    mapping(uint256 => mapping(address => uint256)) public launchUserTotalUnclaimedSkillCommittedValue;\n\n    // VESTING INFO\n    mapping(uint256 => uint256[]) launchPeriodicVestingsPercentages;\n    mapping(uint256 => mapping(uint256 => uint256)) public launchPeriodicVestingsStartTimestamps;\n    mapping(uint256 => uint256) public launchLinearVestingsDurations;\n    mapping(uint256 => uint256) public launchLinearVestingsStartTimestamps;\n    mapping(address => mapping(uint256 => uint256)) public userLinearVestingClaimTimestamp;\n    mapping(address => mapping(uint256 => mapping(uint256 => bool))) public userClaimedVestingPortion;\n\n    uint256 public nextLaunchId;\n    uint256 public skillPrice;\n\n    CryptoBlades _game;\n\n    mapping(address => mapping(uint256 => bool)) public didUserCommitToLaunch;\n\n    function initialize(CryptoBlades game) public initializer {\n        __AccessControl_init_unchained();\n        _setupRole(DEFAULT_ADMIN_ROLE, msg.sender);\n        _setupRole(GAME_ADMIN, msg.sender);\n\n        _game = game;\n        nextLaunchId = 1;\n    }\n\n    event LaunchAdded(uint256 indexed launchId, uint256 phase);\n    event Invested(address indexed user, uint256 amount);\n    event SkillCommitted(address indexed user, address indexed targetWallet, uint256 indexed launchId, uint256 amount);\n    event PeriodicVestingClaimed(address indexed user, uint256 indexed launchId, uint256 indexed vestingId, uint256 amount);\n    event LinearVestingClaimed(address indexed user, uint256 indexed launchId, uint256 amount);\n    event FundsWithdrawn(uint256 indexed launchId, uint256 amount);\n    event PeriodicVestingEnabled(uint256 indexed launchId, uint256 indexed vestingId, uint256 timestamp);\n    event LinearVestingEnabled(uint256 indexed launchId, uint256 timestamp);\n\n    // MODIFIERS\n    modifier restricted() {\n        _restricted();\n        _;\n    }\n\n    function _restricted() internal view {\n        require(hasRole(GAME_ADMIN, msg.sender), \"Not game admin\");\n    }\n\n    modifier onlyPhase1(uint256 launchId) {\n        _onlyPhase1(launchId);\n        _;\n    }\n\n    function _onlyPhase1(uint256 launchId) internal pure {\n        require(launchId % 2 == 1, \"Usable only on phase 1\");\n    }\n\n    modifier isUserWhitelistedForLaunch(address user, uint256 launchId) {\n        _isUserWhitelistedForLaunch(user, launchId);\n        _;\n    }\n\n    function _isUserWhitelistedForLaunch(address user, uint256 launchId) internal view {\n        require(isUserWhitelisted(user, launchId), \"Not whitelisted\");\n    }\n\n    modifier isTokenAddressSet(uint256 launchId) {\n        _isTokenAddressSet(launchId);\n        _;\n    }\n\n    function _isTokenAddressSet(uint256 launchId) internal view {\n        require(launchTokenAddress[launchId] != address(0), \"Token address not set\");\n    }\n\n    modifier launchNotStarted(uint256 launchId) {\n        _launchNotStarted(launchId);\n        _;\n    }\n\n    function _launchNotStarted(uint256 launchId) internal view {\n        require(launchStartTime[launchId] == 0 || launchStartTime[launchId] > block.timestamp, \"Launch started\");\n    }\n\n    // VIEWS\n\n    function getTierForStakedAmount(uint256 amount) public view returns (uint256 tier) {\n        for (uint256 i = 1; i <= vars[VAR_TIERS_AMOUNT]; i++) {\n            if (amount >= tierStakingRequirement[i]) {\n                tier++;\n            } else {\n                break;\n            }\n        }\n    }\n\n    function getLaunchAllocationForTier(uint256 launchId, uint256 tier) public view returns (uint256) {\n        return launchBaseAllocation[launchId].mul(tierAllocationWeight[tier]);\n    }\n\n    function getUserRemainingAllocationForLaunch(address user, uint256 launchId) public view returns (uint256 maxAllocation) {\n        if(launchId % 2 == 0) {\n            maxAllocation = getLaunchAllocationForTier(launchId, getTierForStakedAmount(launchUserStakedAmountSnapshot[launchId.sub(1)][user]));\n        }\n        else {\n            maxAllocation = getLaunchAllocationForTier(launchId, getTierForStakedAmount(launchUserStakedAmountSnapshot[launchId][user]));\n        }\n        maxAllocation += launchUserTotalUnclaimedSkillCommittedValue[launchId][user].mul(vars[VAR_UNCLAIMED_TO_ALLOCATION_MULTIPLIER]);\n        maxAllocation = maxAllocation.sub(launchUserInvestment[launchId][user]);\n    }\n\n    function getAvailableClaimAmount(uint256 launchId, uint256 vestingId) public onlyPhase1(launchId) view returns (uint256 claimAmount) {\n        uint256 decimals = ERC20(launchTokenAddress[launchId]).decimals();\n        uint256 totalUserInvestment = launchUserInvestment[launchId][msg.sender].add(launchUserInvestment[launchId + 1][msg.sender]);\n        claimAmount = totalUserInvestment.mul(1e18).div(launchTokenPrice[launchId]).mul(launchPeriodicVestingsPercentages[launchId][vestingId]).div(100);\n        claimAmount = Common.adjustDecimals(claimAmount, decimals);\n    }\n\n    function getLinearClaimAmount(uint256 launchId) public onlyPhase1(launchId) view returns (uint256 claimAmount) {\n        uint256 decimals = ERC20(launchTokenAddress[launchId]).decimals();\n        uint256 totalUserInvestment = launchUserInvestment[launchId][msg.sender].add(launchUserInvestment[launchId + 1][msg.sender]);\n        uint256 lastClaimTimestamp = userLinearVestingClaimTimestamp[msg.sender][launchId];\n        if(lastClaimTimestamp == 0) {\n            lastClaimTimestamp = launchLinearVestingsStartTimestamps[launchId];\n        }\n        uint256 effectiveClaimTimestamp = launchLinearVestingsStartTimestamps[launchId] + launchLinearVestingsDurations[launchId];\n        if(block.timestamp < effectiveClaimTimestamp) {\n            effectiveClaimTimestamp = block.timestamp;\n        }\n        if(lastClaimTimestamp > effectiveClaimTimestamp) {\n            lastClaimTimestamp = effectiveClaimTimestamp;\n        }\n        \n        claimAmount = totalUserInvestment.mul(1e18).div(launchTokenPrice[launchId]).mul(effectiveClaimTimestamp.sub(lastClaimTimestamp)).div(launchLinearVestingsDurations[launchId]);\n        claimAmount = Common.adjustDecimals(claimAmount, decimals);\n    }\n\n    function getLaunchDetails(uint256 launchId) public view returns (\n        uint256 tokenPrice,\n        uint256 startTime,\n        uint256 fundsToRaise,\n        uint256 maxAllocation,\n        uint256 totalRaised,\n        address tokenAddress) \n    {\n        tokenPrice = launchTokenPrice[launchId];\n        startTime = launchStartTime[launchId];\n        fundsToRaise = launchFundsToRaise[launchId];\n        maxAllocation = getOverallMaxAllocation(launchId);\n        totalRaised = launchTotalRaised[launchId];\n        tokenAddress = launchTokenAddress[launchId];\n    }\n\n    function getOverallMaxAllocation(uint256 launchId) public view returns (uint256) {\n        return getLaunchAllocationForTier(launchId, vars[VAR_TIERS_AMOUNT]);\n    }\n\n    function isUserWhitelisted(address user, uint256 launchId) public view returns (bool) {\n        if(launchId % 2 == 0) launchId = launchId.sub(1);\n        return launchEligibleUsersSnapshot[launchId].contains(user);\n    }\n\n    function getTotalUnlockedPercentage(uint256 launchId) public view returns (uint256 totalUnlockedPercentage) {\n        for(uint i = 0; i < launchPeriodicVestingsPercentages[launchId].length; i++) {\n            totalUnlockedPercentage += launchPeriodicVestingsPercentages[launchId][i];\n        }\n    }\n\n    function getLaunchVestingPercentages(uint256 launchId) public view returns(uint256[] memory) {\n        return launchPeriodicVestingsPercentages[launchId];\n    }\n\n    function getTotalLaunchUserInvestment(uint256 launchId) public onlyPhase1(launchId) view returns(uint256) {\n        return launchUserInvestment[launchId][msg.sender].add(launchUserInvestment[launchId + 1][msg.sender]);\n    }\n\n    function getUnclaimedCommittedValue(uint256 launchId) public view returns(uint256) {\n        return launchTotalUnclaimedSkillCommittedValue[launchId].mul(vars[VAR_UNCLAIMED_TO_ALLOCATION_MULTIPLIER]);\n    }\n\n    // RESTRICTED FUNCTIONS\n\n    // TIERS\n\n    function setBrandNewTiers(uint256[] calldata tierIds, uint256[] calldata stakingRequirements, uint256[] calldata tierWeights) external restricted {\n        require(tierIds.length == stakingRequirements.length, \"Wrong input\");\n        vars[VAR_TIERS_AMOUNT] = tierIds.length;\n        for (uint256 i = 0; i < tierIds.length; i++) {\n            require(tierIds[i] > 0 && tierIds[i] <= vars[VAR_TIERS_AMOUNT], \"Wrong id\");\n            tierStakingRequirement[tierIds[i]] = stakingRequirements[i];\n            tierAllocationWeight[tierIds[i]] = tierWeights[i];\n        }\n    }\n\n    function setTiersRequirements(uint256[] calldata tierIds, uint256[] calldata stakingRequirements) external restricted {\n        require(tierIds.length <= vars[VAR_TIERS_AMOUNT], \"Too many tiers\");\n        require(tierIds.length == stakingRequirements.length, \"Wrong input\");\n        for (uint256 i = 0; i < tierIds.length; i++) {\n            require(tierIds[i] > 0 && tierIds[i] <= vars[VAR_TIERS_AMOUNT], \"Wrong id\");\n            tierStakingRequirement[tierIds[i]] = stakingRequirements[i];\n        }\n    }\n\n    function setTiersAllocationWeights(uint256[] calldata tierIds, uint256[] calldata tierWeights) external restricted {\n        require(tierIds.length <= vars[VAR_TIERS_AMOUNT], \"Too many tiers\");\n        require(tierIds.length == tierWeights.length, \"Wrong input\");\n        for (uint256 i = 0; i < tierIds.length; i++) {\n            require(tierIds[i] > 0 && tierIds[i] <= vars[VAR_TIERS_AMOUNT], \"Wrong id\");\n            tierAllocationWeight[tierIds[i]] = tierWeights[i];\n        }\n    }\n\n    // PROJECT DETAILS\n\n    function addNewLaunch(\n        string calldata name,\n        string calldata tokenSymbol,\n        string calldata detailsJsonUri,\n        string calldata imageUrl,\n        address fundingTokenAddress,\n        bool commitOnly\n    ) external restricted {\n        launches[nextLaunchId] = Launch(\n            name,\n            tokenSymbol,\n            detailsJsonUri,\n            imageUrl,\n            fundingTokenAddress,\n            1,\n            commitOnly\n        );\n\n        emit LaunchAdded(nextLaunchId, 1);\n        // nextLaunchId + 1 is reserved for Phase 2s\n        nextLaunchId += 2;\n    }\n\n    function addSecondPhaseForLaunch(uint256 launchId, uint256 startTime) external onlyPhase1(launchId) restricted {\n        Launch memory lp = launches[launchId];\n        require(launchId < nextLaunchId, \"Wrong id\");\n        require(launchStartTime[launchId + 1] == 0, \"Already added\");\n        require(block.timestamp > launchStartTime[launchId] + vars[VAR_FUNDING_PERIOD_PHASE_1], \"Phase 1 not finished\");\n        require(launchFundsToRaise[launchId].sub(launchTotalRaised[launchId]) > 0, \"Tokens sold out\");\n        launches[launchId + 1] = Launch(\n            lp.name,\n            lp.tokenSymbol,\n            lp.detailsJsonUri,\n            lp.imageUrl,\n            lp.fundingTokenAddress,\n            2,\n            lp.commitOnly\n        );\n        \n        launchStartTime[launchId + 1] = startTime;\n        launchTokenPrice[launchId + 1] = launchTokenPrice[launchId];\n        launchFundsToRaise[launchId + 1] = launchFundsToRaise[launchId].sub(launchTotalRaised[launchId]);\n        launchBaseAllocation[launchId + 1] = launchBaseAllocation[launchId];\n        launchTokenAddress[launchId + 1] = launchTokenAddress[launchId];\n\n        emit LaunchAdded(launchId + 1, 2);\n    }\n\n    function removeLaunch(uint256 launchId) external restricted {\n        delete launches[launchId];\n    }\n\n    // UPDATING DETAILS\n    function setLaunchDetails(uint256 launchId, uint256 tokenPrice, uint256 startTime, uint256 fundsToRaise) external restricted {\n        launchTokenPrice[launchId] = tokenPrice;\n        launchStartTime[launchId] = startTime;\n        launchFundsToRaise[launchId] = fundsToRaise;\n    }\n\n    function updateLaunchName(uint256 launchId, string calldata name) external restricted {\n        launches[launchId].name = name;\n    }\n\n    function updateLaunchTokenSymbol(uint256 launchId, string calldata tokenSymbol) external restricted {\n        launches[launchId].tokenSymbol = tokenSymbol;\n    }\n\n    function updateLaunchDetailsJsonUri(uint256 launchId, string calldata detailsJsonUri) external restricted {\n        launches[launchId].detailsJsonUri = detailsJsonUri;\n    }\n\n    function updateLaunchImageUrl(uint256 launchId, string calldata imageUrl) external restricted {\n        launches[launchId].imageUrl = imageUrl;\n    }\n\n    function updateLaunchFundingTokenAddress(uint256 launchId, address fundingTokenAddress) external launchNotStarted(launchId) restricted {\n        launches[launchId].fundingTokenAddress = fundingTokenAddress;\n    }\n\n    function updateLaunchIsCommitOnly(uint256 launchId, bool commitOnly) external launchNotStarted(launchId) restricted {\n        launches[launchId].commitOnly = commitOnly;\n    }\n\n    function updateLaunchTokenPrice(uint256 launchId, uint256 tokenPrice) external launchNotStarted(launchId) restricted {\n        launchTokenPrice[launchId] = tokenPrice;\n    }\n\n    function updateLaunchStartTime(uint256 launchId, uint256 startTime) external restricted {\n        require(launchTokenPrice[launchId] != 0 && launchFundsToRaise[launchId] != 0, \"Set token price and funds to raise first\");\n        launchStartTime[launchId] = startTime;\n    }\n\n    function updateLaunchFundsToRaise(uint256 launchId, uint256 fundsToRaise) external launchNotStarted(launchId) restricted {\n        launchFundsToRaise[launchId] = fundsToRaise;\n    }\n\n    function updateLaunchTokenAddress(uint256 launchId, address tokenAddress) external onlyPhase1(launchId) restricted {\n        launchTokenAddress[launchId] = tokenAddress;\n        launchTokenAddress[launchId + 1] = tokenAddress;\n    }\n\n    // VESTING\n\n    function enablePeriodicVesting(uint256 launchId, uint256 percentage) external onlyPhase1(launchId) isTokenAddressSet(launchId) restricted {\n        require(launchLinearVestingsDurations[launchId] == 0, \"Linear vesting enabled\");\n        require(getTotalUnlockedPercentage(launchId) + percentage <= 100, \"Total percentage exceeded\");\n        uint256 totalLaunchRaised = launchTotalRaised[launchId].add(launchTotalRaised[launchId + 1]);\n        uint256 contractBalance = IERC20(launchTokenAddress[launchId]).balanceOf(address(this));\n        uint256 decimals = ERC20(launchTokenAddress[launchId]).decimals();\n        contractBalance = Common.adjustDecimals(contractBalance, decimals);\n        require(contractBalance >=\n            totalLaunchRaised.mul(1e18).div(launchTokenPrice[launchId]).mul(getTotalUnlockedPercentage(launchId) + percentage).div(100),\n            \"Not enough balance\");\n\n        launchPeriodicVestingsPercentages[launchId].push(percentage);\n        uint256 newVestingId = launchPeriodicVestingsPercentages[launchId].length - 1;\n        launchPeriodicVestingsStartTimestamps[launchId][newVestingId] = block.timestamp;\n        emit PeriodicVestingEnabled(launchId, newVestingId, block.timestamp);\n    }\n\n    function enableLinearVesting(uint256 launchId, uint256 duration) external onlyPhase1(launchId) isTokenAddressSet(launchId) restricted {\n        require(duration > 0);\n        require(launchPeriodicVestingsPercentages[launchId].length == 0, \"Periodic vesting enabled\");\n        uint256 totalLaunchRaised = launchTotalRaised[launchId].add(launchTotalRaised[launchId + 1]);\n        uint256 contractBalance = IERC20(launchTokenAddress[launchId]).balanceOf(address(this));\n        uint256 decimals = ERC20(launchTokenAddress[launchId]).decimals();\n        contractBalance = Common.adjustDecimals(contractBalance, decimals);\n        require(contractBalance >= totalLaunchRaised.mul(1e18).div(launchTokenPrice[launchId]), \"Not enough balance\");\n\n        launchLinearVestingsDurations[launchId] = duration;\n        launchLinearVestingsStartTimestamps[launchId] = block.timestamp;\n\n        emit LinearVestingEnabled(launchId, block.timestamp);\n    }\n\n    // WHITELISTING\n\n    function setEligibleUsersData(uint256 launchId, address[] calldata users, uint256[] calldata stakedAmounts) external onlyPhase1(launchId) launchNotStarted(launchId) restricted {\n        require(nextLaunchId >= launchId, \"Wrong ID\");\n        require(users.length > 0 && users.length == stakedAmounts.length, \"Bad input\");\n\n        uint totalWeight = launchBaseAllocation[launchId] == 0 ? 0 : launchFundsToRaise[launchId].div(launchBaseAllocation[launchId]);\n        for(uint i = 0; i < users.length; i++) {\n            if(!launchEligibleUsersSnapshot[launchId].add(users[i])) continue;\n            launchUserStakedAmountSnapshot[launchId][users[i]] = stakedAmounts[i];\n            totalWeight += tierAllocationWeight[getTierForStakedAmount(stakedAmounts[i])];\n        }\n        launchBaseAllocation[launchId] = launchFundsToRaise[launchId].div(totalWeight);\n    }\n\n    function setTotalUnclaimedCommitted(uint256 launchId, address[] calldata users, uint256[] calldata totalCommittedValues) external onlyPhase1(launchId) launchNotStarted(launchId) restricted {\n        require(nextLaunchId >= launchId, \"Wrong ID\");\n        require(users.length > 0 && users.length == totalCommittedValues.length, \"Bad input\");\n        uint256 unclaimedCommittedValue = 0;\n        for(uint i = 0; i < users.length; i++) {\n            launchUserTotalUnclaimedSkillCommittedValue[launchId][users[i]] = totalCommittedValues[i];\n            unclaimedCommittedValue += totalCommittedValues[i];\n        }\n        launchBaseAllocation[launchId] = launchBaseAllocation[launchId].sub(launchBaseAllocation[launchId].mul(unclaimedCommittedValue).div(launchFundsToRaise[launchId]));\n    }\n\n    // WITHDRAW RAISED FUNDS\n\n    function withdrawRaisedFunds(uint256 launchId) external onlyPhase1(launchId) {\n        require(hasRole(DEFAULT_ADMIN_ROLE, msg.sender), \"Not owner\");\n        require(\n            block.timestamp > launchStartTime[launchId] + vars[VAR_FUNDING_PERIOD_PHASE_1] &&\n            block.timestamp > launchStartTime[launchId + 1] + vars[VAR_FUNDING_PERIOD_PHASE_2],\n            \"Launch not finished\"\n        );\n\n        uint256 raisedFunds = launchTotalRaised[launchId].add(launchTotalRaised[launchId + 1]);\n\n        IERC20(launches[launchId].fundingTokenAddress).safeTransfer(msg.sender, raisedFunds);\n        emit FundsWithdrawn(launchId, raisedFunds);\n    }\n\n    // VARS SETTERS\n\n    function setVar(uint256 varField, uint256 value) external restricted {\n        vars[varField] = value;\n    }\n\n    function setVars(uint256[] calldata varFields, uint256[] calldata values) external restricted {\n        for (uint256 i = 0; i < varFields.length; i++) {\n            vars[varFields[i]] = values[i];\n        }\n    }\n\n    function setSkillPrice(uint256 price) external restricted {\n        skillPrice = price;\n    }\n\n    // USER FUNCTIONS\n\n    function invest(uint256 launchId, uint256 amount) external isUserWhitelistedForLaunch(msg.sender, launchId) {\n        Launch memory lp = launches[launchId];\n        require(!lp.commitOnly, \"Invest on diff chain\");\n        require(launchStartTime[launchId] != 0 && block.timestamp > launchStartTime[launchId], \"Launch not started\");\n        require((lp.phase == 1 && block.timestamp < launchStartTime[launchId] + vars[VAR_FUNDING_PERIOD_PHASE_1])\n            || (lp.phase == 2 && block.timestamp < launchStartTime[launchId] + vars[VAR_FUNDING_PERIOD_PHASE_2]), \"Launch ended\");\n        require(launchTokenPrice[launchId] != 0, \"Token price not set\");\n        require(launchTotalRaised[launchId] + amount <= launchFundsToRaise[launchId], \"Amount exceeds remaining supply\");\n        require(getUserRemainingAllocationForLaunch(msg.sender, launchId) >= amount, \"Allocation allowance exceeded\");\n\n        IERC20(lp.fundingTokenAddress).safeTransferFrom(msg.sender, address(this), amount);\n        launchUserInvestment[launchId][msg.sender] += amount;\n        launchTotalRaised[launchId] += amount;\n\n        emit Invested(msg.sender, amount);\n    }\n\n    function claimPeriodic(uint256 launchId, uint256 vestingId) external {\n        require(launchPeriodicVestingsPercentages[launchId].length >= vestingId, \"Unavailable\");\n        require(!userClaimedVestingPortion[msg.sender][launchId][vestingId], \"Already claimed\");\n\n        userClaimedVestingPortion[msg.sender][launchId][vestingId] = true;\n        uint256 claimAmount = getAvailableClaimAmount(launchId, vestingId);\n        IERC20(launchTokenAddress[launchId]).safeTransfer(msg.sender, claimAmount);\n\n        emit PeriodicVestingClaimed(msg.sender, launchId, vestingId, claimAmount);\n    }\n\n    function claimLinear(uint256 launchId) external {\n        require(launchLinearVestingsDurations[launchId] > 0, \"Unavailable\");\n\n        uint256 claimAmount = getLinearClaimAmount(launchId);\n        userLinearVestingClaimTimestamp[msg.sender][launchId] = block.timestamp;\n        IERC20(launchTokenAddress[launchId]).safeTransfer(msg.sender, claimAmount);\n\n        emit LinearVestingClaimed(msg.sender, launchId, claimAmount);\n    }\n\n    function commitUnclaimedSkill(uint256 launchId, uint256 amount, address whitelistedWallet) external isUserWhitelistedForLaunch(whitelistedWallet, launchId) launchNotStarted(launchId) onlyPhase1(launchId) {\n        uint256 windowStartTime = launchStartTime[launchId].sub(vars[VAR_UNCLAIMED_COMMIT_START_OFFSET]);\n        require(block.timestamp >= windowStartTime && block.timestamp <= windowStartTime.add(vars[VAR_UNCLAIMED_COMMIT_WINDOW]), \"Not a commit window\");\n        uint256 committingValue = amount.mul(skillPrice).div(1e18);\n        require((launchTotalUnclaimedSkillCommittedValue[launchId].add(committingValue)).mul(vars[VAR_UNCLAIMED_TO_ALLOCATION_MULTIPLIER]) <= vars[VAR_UNCLAIMED_ALLOCATION_PERCENTAGE].mul(launchFundsToRaise[launchId]).div(100), \"Unclaimed limit reached\");\n        //_game.deductAfterPartnerClaim(amount, msg.sender); // turned off (temporarily?), supposedly shouldn't deduct unclaimed on committing\n        require(!didUserCommitToLaunch[msg.sender][launchId], \"Already committed\");\n        launchUserUnclaimedSkillCommittedValue[launchId][whitelistedWallet] += committingValue;\n        launchTotalUnclaimedSkillCommittedValue[launchId] += committingValue;\n        didUserCommitToLaunch[msg.sender][launchId] = true;\n        \n        emit SkillCommitted(msg.sender, whitelistedWallet, launchId, amount);\n    }\n}\n",
  "sourcePath": "/mnt/e/work/cryptoblades/contracts/Launchpad.sol",
  "compiler": {
    "name": "solc",
    "version": "0.6.5+commit.f956cc89.Emscripten.clang"
  },
  "schemaVersion": "3.3.4",
  "updatedAt": "2023-01-24T17:45:31.410Z",
  "devdoc": {
    "methods": {
      "getRoleAdmin(bytes32)": {
        "details": "Returns the admin role that controls `role`. See {grantRole} and {revokeRole}.     * To change a role's admin, use {_setRoleAdmin}."
      },
      "getRoleMember(bytes32,uint256)": {
        "details": "Returns one of the accounts that have `role`. `index` must be a value between 0 and {getRoleMemberCount}, non-inclusive.     * Role bearers are not sorted in any particular way, and their ordering may change at any point.     * WARNING: When using {getRoleMember} and {getRoleMemberCount}, make sure you perform all queries on the same block. See the following https://forum.openzeppelin.com/t/iterating-over-elements-on-enumerableset-in-openzeppelin-contracts/2296[forum post] for more information."
      },
      "getRoleMemberCount(bytes32)": {
        "details": "Returns the number of accounts that have `role`. Can be used together with {getRoleMember} to enumerate all bearers of a role."
      },
      "grantRole(bytes32,address)": {
        "details": "Grants `role` to `account`.     * If `account` had not been already granted `role`, emits a {RoleGranted} event.     * Requirements:     * - the caller must have ``role``'s admin role."
      },
      "hasRole(bytes32,address)": {
        "details": "Returns `true` if `account` has been granted `role`."
      },
      "renounceRole(bytes32,address)": {
        "details": "Revokes `role` from the calling account.     * Roles are often managed via {grantRole} and {revokeRole}: this function's purpose is to provide a mechanism for accounts to lose their privileges if they are compromised (such as when a trusted device is misplaced).     * If the calling account had been granted `role`, emits a {RoleRevoked} event.     * Requirements:     * - the caller must be `account`."
      },
      "revokeRole(bytes32,address)": {
        "details": "Revokes `role` from `account`.     * If `account` had been granted `role`, emits a {RoleRevoked} event.     * Requirements:     * - the caller must have ``role``'s admin role."
      }
    }
  },
  "userdoc": {
    "methods": {}
  }
}