{
  "contractName": "NFTStorage",
  "abi": [
    {
      "anonymous": false,
      "inputs": [
        {
          "indexed": true,
          "internalType": "address",
          "name": "owner",
          "type": "address"
        },
        {
          "indexed": true,
          "internalType": "contract IERC721",
          "name": "nftAddress",
          "type": "address"
        },
        {
          "indexed": true,
          "internalType": "uint256",
          "name": "nftID",
          "type": "uint256"
        }
      ],
      "name": "NFTStored",
      "type": "event"
    },
    {
      "anonymous": false,
      "inputs": [
        {
          "indexed": true,
          "internalType": "address",
          "name": "owner",
          "type": "address"
        }
      ],
      "name": "NFTTransferOutCanceled",
      "type": "event"
    },
    {
      "anonymous": false,
      "inputs": [
        {
          "indexed": true,
          "internalType": "address",
          "name": "owner",
          "type": "address"
        },
        {
          "indexed": true,
          "internalType": "contract IERC721",
          "name": "nftAddress",
          "type": "address"
        },
        {
          "indexed": true,
          "internalType": "uint256",
          "name": "nftID",
          "type": "uint256"
        }
      ],
      "name": "NFTTransferOutRequest",
      "type": "event"
    },
    {
      "anonymous": false,
      "inputs": [
        {
          "indexed": true,
          "internalType": "uint256",
          "name": "requestId",
          "type": "uint256"
        },
        {
          "indexed": false,
          "internalType": "uint8",
          "name": "status",
          "type": "uint8"
        },
        {
          "indexed": false,
          "internalType": "bool",
          "name": "forced",
          "type": "bool"
        }
      ],
      "name": "NFTTransferUpdate",
      "type": "event"
    },
    {
      "anonymous": false,
      "inputs": [
        {
          "indexed": true,
          "internalType": "address",
          "name": "owner",
          "type": "address"
        },
        {
          "indexed": true,
          "internalType": "contract IERC721",
          "name": "nftAddress",
          "type": "address"
        },
        {
          "indexed": true,
          "internalType": "uint256",
          "name": "nftID",
          "type": "uint256"
        }
      ],
      "name": "NFTWithdrawn",
      "type": "event"
    },
    {
      "anonymous": false,
      "inputs": [
        {
          "indexed": true,
          "internalType": "address",
          "name": "receiver",
          "type": "address"
        },
        {
          "indexed": true,
          "internalType": "uint256",
          "name": "bridgedId",
          "type": "uint256"
        },
        {
          "indexed": false,
          "internalType": "uint8",
          "name": "nftType",
          "type": "uint8"
        },
        {
          "indexed": true,
          "internalType": "uint256",
          "name": "mintedId",
          "type": "uint256"
        }
      ],
      "name": "NFTWithdrawnFromBridge",
      "type": "event"
    },
    {
      "anonymous": false,
      "inputs": [
        {
          "indexed": true,
          "internalType": "bytes32",
          "name": "role",
          "type": "bytes32"
        },
        {
          "indexed": true,
          "internalType": "bytes32",
          "name": "previousAdminRole",
          "type": "bytes32"
        },
        {
          "indexed": true,
          "internalType": "bytes32",
          "name": "newAdminRole",
          "type": "bytes32"
        }
      ],
      "name": "RoleAdminChanged",
      "type": "event"
    },
    {
      "anonymous": false,
      "inputs": [
        {
          "indexed": true,
          "internalType": "bytes32",
          "name": "role",
          "type": "bytes32"
        },
        {
          "indexed": true,
          "internalType": "address",
          "name": "account",
          "type": "address"
        },
        {
          "indexed": true,
          "internalType": "address",
          "name": "sender",
          "type": "address"
        }
      ],
      "name": "RoleGranted",
      "type": "event"
    },
    {
      "anonymous": false,
      "inputs": [
        {
          "indexed": true,
          "internalType": "bytes32",
          "name": "role",
          "type": "bytes32"
        },
        {
          "indexed": true,
          "internalType": "address",
          "name": "account",
          "type": "address"
        },
        {
          "indexed": true,
          "internalType": "address",
          "name": "sender",
          "type": "address"
        }
      ],
      "name": "RoleRevoked",
      "type": "event"
    },
    {
      "anonymous": false,
      "inputs": [
        {
          "indexed": true,
          "internalType": "address",
          "name": "receiver",
          "type": "address"
        },
        {
          "indexed": false,
          "internalType": "uint8",
          "name": "nftType",
          "type": "uint8"
        },
        {
          "indexed": false,
          "internalType": "uint256",
          "name": "sourceChain",
          "type": "uint256"
        },
        {
          "indexed": true,
          "internalType": "uint256",
          "name": "sourceId",
          "type": "uint256"
        }
      ],
      "name": "TransferedIn",
      "type": "event"
    },
    {
      "inputs": [],
      "name": "DEFAULT_ADMIN_ROLE",
      "outputs": [
        {
          "internalType": "bytes32",
          "name": "",
          "type": "bytes32"
        }
      ],
      "stateMutability": "view",
      "type": "function"
    },
    {
      "inputs": [],
      "name": "GAME_ADMIN",
      "outputs": [
        {
          "internalType": "bytes32",
          "name": "",
          "type": "bytes32"
        }
      ],
      "stateMutability": "view",
      "type": "function"
    },
    {
      "inputs": [],
      "name": "NFTVAR_NON_GENESIS_VERSION",
      "outputs": [
        {
          "internalType": "uint256",
          "name": "",
          "type": "uint256"
        }
      ],
      "stateMutability": "view",
      "type": "function"
    },
    {
      "inputs": [],
      "name": "NFT_TYPE_CHARACTER",
      "outputs": [
        {
          "internalType": "uint8",
          "name": "",
          "type": "uint8"
        }
      ],
      "stateMutability": "view",
      "type": "function"
    },
    {
      "inputs": [],
      "name": "NFT_TYPE_SHIELD",
      "outputs": [
        {
          "internalType": "uint8",
          "name": "",
          "type": "uint8"
        }
      ],
      "stateMutability": "view",
      "type": "function"
    },
    {
      "inputs": [],
      "name": "NFT_TYPE_WEAPON",
      "outputs": [
        {
          "internalType": "uint8",
          "name": "",
          "type": "uint8"
        }
      ],
      "stateMutability": "view",
      "type": "function"
    },
    {
      "inputs": [],
      "name": "TRANSFER_IN_STATUS_AVAILABLE",
      "outputs": [
        {
          "internalType": "uint8",
          "name": "",
          "type": "uint8"
        }
      ],
      "stateMutability": "view",
      "type": "function"
    },
    {
      "inputs": [],
      "name": "TRANSFER_IN_STATUS_WITHDRAWN",
      "outputs": [
        {
          "internalType": "uint8",
          "name": "",
          "type": "uint8"
        }
      ],
      "stateMutability": "view",
      "type": "function"
    },
    {
      "inputs": [],
      "name": "TRANSFER_OUT_STATUS_DONE",
      "outputs": [
        {
          "internalType": "uint8",
          "name": "",
          "type": "uint8"
        }
      ],
      "stateMutability": "view",
      "type": "function"
    },
    {
      "inputs": [],
      "name": "TRANSFER_OUT_STATUS_ERROR",
      "outputs": [
        {
          "internalType": "uint8",
          "name": "",
          "type": "uint8"
        }
      ],
      "stateMutability": "view",
      "type": "function"
    },
    {
      "inputs": [],
      "name": "TRANSFER_OUT_STATUS_NONE",
      "outputs": [
        {
          "internalType": "uint8",
          "name": "",
          "type": "uint8"
        }
      ],
      "stateMutability": "view",
      "type": "function"
    },
    {
      "inputs": [],
      "name": "TRANSFER_OUT_STATUS_PENDING",
      "outputs": [
        {
          "internalType": "uint8",
          "name": "",
          "type": "uint8"
        }
      ],
      "stateMutability": "view",
      "type": "function"
    },
    {
      "inputs": [],
      "name": "TRANSFER_OUT_STATUS_PROCESSING",
      "outputs": [
        {
          "internalType": "uint8",
          "name": "",
          "type": "uint8"
        }
      ],
      "stateMutability": "view",
      "type": "function"
    },
    {
      "inputs": [],
      "name": "TRANSFER_OUT_STATUS_RESTORED",
      "outputs": [
        {
          "internalType": "uint8",
          "name": "",
          "type": "uint8"
        }
      ],
      "stateMutability": "view",
      "type": "function"
    },
    {
      "inputs": [],
      "name": "game",
      "outputs": [
        {
          "internalType": "contract CryptoBlades",
          "name": "",
          "type": "address"
        }
      ],
      "stateMutability": "view",
      "type": "function"
    },
    {
      "inputs": [
        {
          "internalType": "bytes32",
          "name": "role",
          "type": "bytes32"
        }
      ],
      "name": "getRoleAdmin",
      "outputs": [
        {
          "internalType": "bytes32",
          "name": "",
          "type": "bytes32"
        }
      ],
      "stateMutability": "view",
      "type": "function"
    },
    {
      "inputs": [
        {
          "internalType": "bytes32",
          "name": "role",
          "type": "bytes32"
        },
        {
          "internalType": "uint256",
          "name": "index",
          "type": "uint256"
        }
      ],
      "name": "getRoleMember",
      "outputs": [
        {
          "internalType": "address",
          "name": "",
          "type": "address"
        }
      ],
      "stateMutability": "view",
      "type": "function"
    },
    {
      "inputs": [
        {
          "internalType": "bytes32",
          "name": "role",
          "type": "bytes32"
        }
      ],
      "name": "getRoleMemberCount",
      "outputs": [
        {
          "internalType": "uint256",
          "name": "",
          "type": "uint256"
        }
      ],
      "stateMutability": "view",
      "type": "function"
    },
    {
      "inputs": [
        {
          "internalType": "bytes32",
          "name": "role",
          "type": "bytes32"
        },
        {
          "internalType": "address",
          "name": "account",
          "type": "address"
        }
      ],
      "name": "grantRole",
      "outputs": [],
      "stateMutability": "nonpayable",
      "type": "function"
    },
    {
      "inputs": [
        {
          "internalType": "bytes32",
          "name": "role",
          "type": "bytes32"
        },
        {
          "internalType": "address",
          "name": "account",
          "type": "address"
        }
      ],
      "name": "hasRole",
      "outputs": [
        {
          "internalType": "bool",
          "name": "",
          "type": "bool"
        }
      ],
      "stateMutability": "view",
      "type": "function"
    },
    {
      "inputs": [
        {
          "internalType": "address",
          "name": "",
          "type": "address"
        },
        {
          "internalType": "uint256",
          "name": "",
          "type": "uint256"
        }
      ],
      "name": "isNftBridged",
      "outputs": [
        {
          "internalType": "bool",
          "name": "",
          "type": "bool"
        }
      ],
      "stateMutability": "view",
      "type": "function"
    },
    {
      "inputs": [],
      "name": "promos",
      "outputs": [
        {
          "internalType": "contract Promos",
          "name": "",
          "type": "address"
        }
      ],
      "stateMutability": "view",
      "type": "function"
    },
    {
      "inputs": [
        {
          "internalType": "bytes32",
          "name": "role",
          "type": "bytes32"
        },
        {
          "internalType": "address",
          "name": "account",
          "type": "address"
        }
      ],
      "name": "renounceRole",
      "outputs": [],
      "stateMutability": "nonpayable",
      "type": "function"
    },
    {
      "inputs": [
        {
          "internalType": "address",
          "name": "",
          "type": "address"
        }
      ],
      "name": "requestBridgeNativeFee",
      "outputs": [
        {
          "internalType": "uint256",
          "name": "",
          "type": "uint256"
        }
      ],
      "stateMutability": "view",
      "type": "function"
    },
    {
      "inputs": [
        {
          "internalType": "bytes32",
          "name": "role",
          "type": "bytes32"
        },
        {
          "internalType": "address",
          "name": "account",
          "type": "address"
        }
      ],
      "name": "revokeRole",
      "outputs": [],
      "stateMutability": "nonpayable",
      "type": "function"
    },
    {
      "inputs": [
        {
          "internalType": "address",
          "name": "",
          "type": "address"
        }
      ],
      "name": "withdrawFromStorageNativeFee",
      "outputs": [
        {
          "internalType": "uint256",
          "name": "",
          "type": "uint256"
        }
      ],
      "stateMutability": "view",
      "type": "function"
    },
    {
      "inputs": [
        {
          "internalType": "address",
          "name": "_weaponsAddress",
          "type": "address"
        },
        {
          "internalType": "address",
          "name": "_charactersAddress",
          "type": "address"
        },
        {
          "internalType": "contract WeaponRenameTagConsumables",
          "name": "_weaponRenameTagConsumables",
          "type": "address"
        },
        {
          "internalType": "contract CharacterRenameTagConsumables",
          "name": "_characterRenameTagConsumables",
          "type": "address"
        },
        {
          "internalType": "contract WeaponCosmetics",
          "name": "_weaponCosmetics",
          "type": "address"
        },
        {
          "internalType": "contract CharacterCosmetics",
          "name": "_characterCosmetics",
          "type": "address"
        },
        {
          "internalType": "contract NFTMarket",
          "name": "_nftMarket",
          "type": "address"
        }
      ],
      "name": "initialize",
      "outputs": [],
      "stateMutability": "nonpayable",
      "type": "function"
    },
    {
      "inputs": [
        {
          "internalType": "contract CryptoBlades",
          "name": "_game",
          "type": "address"
        }
      ],
      "name": "migrateTo_56837f7",
      "outputs": [],
      "stateMutability": "nonpayable",
      "type": "function"
    },
    {
      "inputs": [
        {
          "internalType": "contract Promos",
          "name": "_promos",
          "type": "address"
        }
      ],
      "name": "migrateTo_98bf302",
      "outputs": [],
      "stateMutability": "nonpayable",
      "type": "function"
    },
    {
      "inputs": [
        {
          "internalType": "address",
          "name": "_shieldsAddress",
          "type": "address"
        }
      ],
      "name": "migrateTo_3f597dc",
      "outputs": [],
      "stateMutability": "nonpayable",
      "type": "function"
    },
    {
      "inputs": [
        {
          "internalType": "contract IERC721",
          "name": "_tokenAddress",
          "type": "address"
        }
      ],
      "name": "isTokenSupported",
      "outputs": [
        {
          "internalType": "bool",
          "name": "",
          "type": "bool"
        }
      ],
      "stateMutability": "view",
      "type": "function"
    },
    {
      "inputs": [],
      "name": "getSupportedTokenTypes",
      "outputs": [
        {
          "internalType": "contract IERC721[]",
          "name": "",
          "type": "address[]"
        }
      ],
      "stateMutability": "view",
      "type": "function"
    },
    {
      "inputs": [
        {
          "internalType": "contract IERC721",
          "name": "_tokenAddress",
          "type": "address"
        },
        {
          "internalType": "address",
          "name": "playerAddress",
          "type": "address"
        }
      ],
      "name": "getNumberOfStoragedItems",
      "outputs": [
        {
          "internalType": "uint256",
          "name": "",
          "type": "uint256"
        }
      ],
      "stateMutability": "view",
      "type": "function"
    },
    {
      "inputs": [
        {
          "internalType": "contract IERC721",
          "name": "_tokenAddress",
          "type": "address"
        }
      ],
      "name": "getNumberOfStoragedItems",
      "outputs": [
        {
          "internalType": "uint256",
          "name": "",
          "type": "uint256"
        }
      ],
      "stateMutability": "view",
      "type": "function"
    },
    {
      "inputs": [
        {
          "internalType": "contract IERC721",
          "name": "_tokenAddress",
          "type": "address"
        }
      ],
      "name": "getStorageItemIds",
      "outputs": [
        {
          "internalType": "uint256[]",
          "name": "tokens",
          "type": "uint256[]"
        }
      ],
      "stateMutability": "view",
      "type": "function"
    },
    {
      "inputs": [
        {
          "internalType": "contract IERC721",
          "name": "_tokenAddress",
          "type": "address"
        },
        {
          "internalType": "address",
          "name": "playerAddress",
          "type": "address"
        }
      ],
      "name": "getStorageItemIds",
      "outputs": [
        {
          "internalType": "uint256[]",
          "name": "tokens",
          "type": "uint256[]"
        }
      ],
      "stateMutability": "view",
      "type": "function"
    },
    {
      "inputs": [
        {
          "internalType": "contract IERC721",
          "name": "_tokenAddress",
          "type": "address"
        },
        {
          "internalType": "uint256",
          "name": "_id",
          "type": "uint256"
        }
      ],
      "name": "storeItem",
      "outputs": [],
      "stateMutability": "nonpayable",
      "type": "function"
    },
    {
      "inputs": [
        {
          "internalType": "contract IERC721",
          "name": "_tokenAddress",
          "type": "address"
        },
        {
          "internalType": "uint256",
          "name": "_id",
          "type": "uint256"
        }
      ],
      "name": "withdrawFromStorage",
      "outputs": [],
      "stateMutability": "payable",
      "type": "function"
    },
    {
      "inputs": [
        {
          "internalType": "contract IERC721",
          "name": "_tokenAddress",
          "type": "address"
        }
      ],
      "name": "allowToken",
      "outputs": [],
      "stateMutability": "nonpayable",
      "type": "function"
    },
    {
      "inputs": [
        {
          "internalType": "contract IERC721",
          "name": "_tokenAddress",
          "type": "address"
        }
      ],
      "name": "disallowToken",
      "outputs": [],
      "stateMutability": "nonpayable",
      "type": "function"
    },
    {
      "inputs": [
        {
          "internalType": "address",
          "name": "",
          "type": "address"
        },
        {
          "internalType": "address",
          "name": "",
          "type": "address"
        },
        {
          "internalType": "uint256",
          "name": "_id",
          "type": "uint256"
        },
        {
          "internalType": "bytes",
          "name": "",
          "type": "bytes"
        }
      ],
      "name": "onERC721Received",
      "outputs": [
        {
          "internalType": "bytes4",
          "name": "",
          "type": "bytes4"
        }
      ],
      "stateMutability": "nonpayable",
      "type": "function"
    },
    {
      "inputs": [],
      "name": "storageIsEnabled",
      "outputs": [
        {
          "internalType": "bool",
          "name": "",
          "type": "bool"
        }
      ],
      "stateMutability": "view",
      "type": "function"
    },
    {
      "inputs": [
        {
          "internalType": "bool",
          "name": "enabled",
          "type": "bool"
        }
      ],
      "name": "setStorageEnabled",
      "outputs": [],
      "stateMutability": "nonpayable",
      "type": "function"
    },
    {
      "inputs": [
        {
          "internalType": "uint256",
          "name": "chainId",
          "type": "uint256"
        }
      ],
      "name": "chainBridgeEnabled",
      "outputs": [
        {
          "internalType": "bool",
          "name": "",
          "type": "bool"
        }
      ],
      "stateMutability": "view",
      "type": "function"
    },
    {
      "inputs": [],
      "name": "getEnabledChainsForBridging",
      "outputs": [
        {
          "internalType": "uint256[]",
          "name": "chainIds",
          "type": "uint256[]"
        }
      ],
      "stateMutability": "view",
      "type": "function"
    },
    {
      "inputs": [
        {
          "internalType": "uint256",
          "name": "chainId",
          "type": "uint256"
        },
        {
          "internalType": "string",
          "name": "prefix",
          "type": "string"
        },
        {
          "internalType": "bool",
          "name": "enable",
          "type": "bool"
        }
      ],
      "name": "toggleChainBridgeEnabled",
      "outputs": [],
      "stateMutability": "nonpayable",
      "type": "function"
    },
    {
      "inputs": [
        {
          "internalType": "contract IERC721",
          "name": "_tokenAddress",
          "type": "address"
        },
        {
          "internalType": "uint256",
          "name": "_id",
          "type": "uint256"
        },
        {
          "internalType": "uint256",
          "name": "targetChain",
          "type": "uint256"
        }
      ],
      "name": "bridgeItem",
      "outputs": [],
      "stateMutability": "payable",
      "type": "function"
    },
    {
      "inputs": [],
      "name": "cancelBridge",
      "outputs": [],
      "stateMutability": "nonpayable",
      "type": "function"
    },
    {
      "inputs": [],
      "name": "getReceivedNFTs",
      "outputs": [
        {
          "internalType": "uint256[]",
          "name": "tokens",
          "type": "uint256[]"
        }
      ],
      "stateMutability": "view",
      "type": "function"
    },
    {
      "inputs": [
        {
          "internalType": "uint256",
          "name": "receivedNFT",
          "type": "uint256"
        }
      ],
      "name": "getReceivedNFT",
      "outputs": [
        {
          "internalType": "address",
          "name": "",
          "type": "address"
        },
        {
          "internalType": "uint8",
          "name": "",
          "type": "uint8"
        },
        {
          "internalType": "uint256",
          "name": "",
          "type": "uint256"
        },
        {
          "internalType": "uint256",
          "name": "",
          "type": "uint256"
        },
        {
          "internalType": "uint8",
          "name": "",
          "type": "uint8"
        },
        {
          "internalType": "uint256",
          "name": "",
          "type": "uint256"
        }
      ],
      "stateMutability": "view",
      "type": "function"
    },
    {
      "inputs": [
        {
          "internalType": "address",
          "name": "nftAddress",
          "type": "address"
        },
        {
          "internalType": "uint256",
          "name": "nftId",
          "type": "uint256"
        }
      ],
      "name": "getNFTChainId",
      "outputs": [
        {
          "internalType": "string",
          "name": "chainId",
          "type": "string"
        }
      ],
      "stateMutability": "view",
      "type": "function"
    },
    {
      "inputs": [
        {
          "internalType": "string",
          "name": "chainid",
          "type": "string"
        },
        {
          "internalType": "address",
          "name": "nftAddress",
          "type": "address"
        }
      ],
      "name": "getNFTFromChainId",
      "outputs": [
        {
          "internalType": "uint256",
          "name": "tokenId",
          "type": "uint256"
        }
      ],
      "stateMutability": "view",
      "type": "function"
    },
    {
      "inputs": [
        {
          "internalType": "address",
          "name": "nftAddress",
          "type": "address"
        },
        {
          "internalType": "uint256",
          "name": "nftId",
          "type": "uint256"
        },
        {
          "internalType": "string",
          "name": "chainId",
          "type": "string"
        },
        {
          "internalType": "bool",
          "name": "forced",
          "type": "bool"
        }
      ],
      "name": "setNFTChainId",
      "outputs": [],
      "stateMutability": "nonpayable",
      "type": "function"
    },
    {
      "inputs": [
        {
          "internalType": "string",
          "name": "prefix",
          "type": "string"
        }
      ],
      "name": "setLocalChainPrefix",
      "outputs": [],
      "stateMutability": "nonpayable",
      "type": "function"
    },
    {
      "inputs": [],
      "name": "getLocalChainPrefix",
      "outputs": [
        {
          "internalType": "string",
          "name": "",
          "type": "string"
        }
      ],
      "stateMutability": "view",
      "type": "function"
    },
    {
      "inputs": [
        {
          "internalType": "uint256",
          "name": "newFee",
          "type": "uint256"
        }
      ],
      "name": "setBridgeFee",
      "outputs": [],
      "stateMutability": "nonpayable",
      "type": "function"
    },
    {
      "inputs": [],
      "name": "getBridgeFee",
      "outputs": [
        {
          "internalType": "uint256",
          "name": "",
          "type": "uint256"
        }
      ],
      "stateMutability": "view",
      "type": "function"
    },
    {
      "inputs": [],
      "name": "botEnabled",
      "outputs": [
        {
          "internalType": "bool",
          "name": "",
          "type": "bool"
        }
      ],
      "stateMutability": "view",
      "type": "function"
    },
    {
      "inputs": [
        {
          "internalType": "bool",
          "name": "enable",
          "type": "bool"
        }
      ],
      "name": "toggleBotEnabled",
      "outputs": [],
      "stateMutability": "nonpayable",
      "type": "function"
    },
    {
      "inputs": [],
      "name": "getBridgeTransferAt",
      "outputs": [
        {
          "internalType": "uint256",
          "name": "",
          "type": "uint256"
        }
      ],
      "stateMutability": "view",
      "type": "function"
    },
    {
      "inputs": [
        {
          "internalType": "uint256",
          "name": "transfersOutAt",
          "type": "uint256"
        }
      ],
      "name": "setBridgeTransferAt",
      "outputs": [],
      "stateMutability": "nonpayable",
      "type": "function"
    },
    {
      "inputs": [],
      "name": "getBridgeTransfers",
      "outputs": [
        {
          "internalType": "uint256",
          "name": "",
          "type": "uint256"
        }
      ],
      "stateMutability": "view",
      "type": "function"
    },
    {
      "inputs": [
        {
          "internalType": "address",
          "name": "player",
          "type": "address"
        }
      ],
      "name": "getBridgeTransferOfPlayer",
      "outputs": [
        {
          "internalType": "uint256",
          "name": "",
          "type": "uint256"
        }
      ],
      "stateMutability": "view",
      "type": "function"
    },
    {
      "inputs": [],
      "name": "getBridgeTransfer",
      "outputs": [
        {
          "internalType": "uint256",
          "name": "",
          "type": "uint256"
        }
      ],
      "stateMutability": "view",
      "type": "function"
    },
    {
      "inputs": [
        {
          "internalType": "uint256",
          "name": "bridgeTransferId",
          "type": "uint256"
        }
      ],
      "name": "getBridgeTransfer",
      "outputs": [
        {
          "internalType": "address",
          "name": "",
          "type": "address"
        },
        {
          "internalType": "address",
          "name": "",
          "type": "address"
        },
        {
          "internalType": "uint256",
          "name": "",
          "type": "uint256"
        },
        {
          "internalType": "uint256",
          "name": "",
          "type": "uint256"
        },
        {
          "internalType": "uint256",
          "name": "",
          "type": "uint256"
        },
        {
          "internalType": "uint256",
          "name": "",
          "type": "uint256"
        },
        {
          "internalType": "uint8",
          "name": "",
          "type": "uint8"
        }
      ],
      "stateMutability": "view",
      "type": "function"
    },
    {
      "inputs": [
        {
          "internalType": "uint256",
          "name": "bridgeTransferId",
          "type": "uint256"
        },
        {
          "internalType": "uint8",
          "name": "status",
          "type": "uint8"
        },
        {
          "internalType": "bool",
          "name": "forced",
          "type": "bool"
        }
      ],
      "name": "updateBridgeTransferStatus",
      "outputs": [],
      "stateMutability": "nonpayable",
      "type": "function"
    },
    {
      "inputs": [
        {
          "internalType": "uint256",
          "name": "sourceChain",
          "type": "uint256"
        },
        {
          "internalType": "uint8",
          "name": "nftType",
          "type": "uint8"
        },
        {
          "internalType": "uint256",
          "name": "sourceId",
          "type": "uint256"
        }
      ],
      "name": "getTransferInFromLog",
      "outputs": [
        {
          "internalType": "uint256",
          "name": "",
          "type": "uint256"
        }
      ],
      "stateMutability": "view",
      "type": "function"
    },
    {
      "inputs": [
        {
          "internalType": "uint256",
          "name": "sourceChain",
          "type": "uint256"
        },
        {
          "internalType": "uint256",
          "name": "sourceTransferId",
          "type": "uint256"
        }
      ],
      "name": "getTransferInFromLogV2",
      "outputs": [
        {
          "internalType": "uint256",
          "name": "",
          "type": "uint256"
        }
      ],
      "stateMutability": "view",
      "type": "function"
    },
    {
      "inputs": [
        {
          "internalType": "address",
          "name": "nftAddress",
          "type": "address"
        },
        {
          "internalType": "uint256",
          "name": "tokenId",
          "type": "uint256"
        }
      ],
      "name": "collectNFTData",
      "outputs": [
        {
          "internalType": "uint256[]",
          "name": "uintVars",
          "type": "uint256[]"
        },
        {
          "internalType": "string",
          "name": "stringVar",
          "type": "string"
        }
      ],
      "stateMutability": "view",
      "type": "function"
    },
    {
      "inputs": [
        {
          "internalType": "address",
          "name": "receiver",
          "type": "address"
        },
        {
          "internalType": "uint256",
          "name": "sourceChain",
          "type": "uint256"
        },
        {
          "internalType": "uint256",
          "name": "sourceTransfer",
          "type": "uint256"
        },
        {
          "internalType": "address",
          "name": "nftAddress",
          "type": "address"
        },
        {
          "internalType": "string",
          "name": "chainId",
          "type": "string"
        },
        {
          "internalType": "uint256[]",
          "name": "uintVars",
          "type": "uint256[]"
        },
        {
          "internalType": "string",
          "name": "stringVar",
          "type": "string"
        }
      ],
      "name": "mintOrUpdate",
      "outputs": [],
      "stateMutability": "nonpayable",
      "type": "function"
    },
    {
      "inputs": [
        {
          "internalType": "address",
          "name": "nft",
          "type": "address"
        },
        {
          "internalType": "address",
          "name": "proxy",
          "type": "address"
        },
        {
          "internalType": "bool",
          "name": "forced",
          "type": "bool"
        }
      ],
      "name": "setProxyContract",
      "outputs": [],
      "stateMutability": "nonpayable",
      "type": "function"
    },
    {
      "inputs": [
        {
          "internalType": "address",
          "name": "nft",
          "type": "address"
        }
      ],
      "name": "getProxyContract",
      "outputs": [
        {
          "internalType": "address",
          "name": "",
          "type": "address"
        }
      ],
      "stateMutability": "view",
      "type": "function"
    },
    {
      "inputs": [
        {
          "internalType": "address",
          "name": "nft",
          "type": "address"
        },
        {
          "internalType": "uint256[]",
          "name": "chainIds",
          "type": "uint256[]"
        },
        {
          "internalType": "bool",
          "name": "support",
          "type": "bool"
        }
      ],
      "name": "setChainSupportedForNFT",
      "outputs": [],
      "stateMutability": "nonpayable",
      "type": "function"
    },
    {
      "inputs": [
        {
          "internalType": "address",
          "name": "nftAddress",
          "type": "address"
        },
        {
          "internalType": "uint256",
          "name": "newFee",
          "type": "uint256"
        }
      ],
      "name": "setWithdrawFromStorageNativeFee",
      "outputs": [],
      "stateMutability": "nonpayable",
      "type": "function"
    },
    {
      "inputs": [
        {
          "internalType": "bool",
          "name": "_enabled",
          "type": "bool"
        }
      ],
      "name": "setGiveawayGen2Enabled",
      "outputs": [],
      "stateMutability": "nonpayable",
      "type": "function"
    },
    {
      "inputs": [
        {
          "internalType": "address",
          "name": "nftAddress",
          "type": "address"
        },
        {
          "internalType": "uint256",
          "name": "newFee",
          "type": "uint256"
        }
      ],
      "name": "setRequestBridgeNativeFee",
      "outputs": [],
      "stateMutability": "nonpayable",
      "type": "function"
    },
    {
      "inputs": [
        {
          "internalType": "address",
          "name": "receiver",
          "type": "address"
        },
        {
          "internalType": "uint256",
          "name": "amount",
          "type": "uint256"
        }
      ],
      "name": "recoverFees",
      "outputs": [],
      "stateMutability": "nonpayable",
      "type": "function"
    },
    {
      "inputs": [
        {
          "internalType": "address",
          "name": "nft",
          "type": "address"
        }
      ],
      "name": "getChainsSupportingNFT",
      "outputs": [
        {
          "internalType": "uint256[]",
          "name": "chains",
          "type": "uint256[]"
        }
      ],
      "stateMutability": "view",
      "type": "function"
    },
    {
      "inputs": [
        {
          "internalType": "uint256",
          "name": "chain",
          "type": "uint256"
        }
      ],
      "name": "getNFTsSupportedByChain",
      "outputs": [
        {
          "internalType": "address[]",
          "name": "nfts",
          "type": "address[]"
        }
      ],
      "stateMutability": "view",
      "type": "function"
    },
    {
      "inputs": [
        {
          "internalType": "uint256",
          "name": "metaData",
          "type": "uint256"
        }
      ],
      "name": "unpackCharactersData",
      "outputs": [
        {
          "internalType": "uint32",
          "name": "appliedCosmetic",
          "type": "uint32"
        },
        {
          "internalType": "uint16",
          "name": "xp",
          "type": "uint16"
        },
        {
          "internalType": "uint8",
          "name": "level",
          "type": "uint8"
        },
        {
          "internalType": "uint8",
          "name": "trait",
          "type": "uint8"
        },
        {
          "internalType": "uint24",
          "name": "bonusPower",
          "type": "uint24"
        },
        {
          "internalType": "uint16",
          "name": "reputation",
          "type": "uint16"
        }
      ],
      "stateMutability": "pure",
      "type": "function"
    }
  ],
  "bytecode": "0x608060405234801561001057600080fd5b506152e1806100206000396000f3fe6080604052600436106104735760003560e01c8063709008111161024a578063b83f391d11610139578063d547741f116100b6578063e81ffa691161007a578063e81ffa6914611600578063ef74bc0e14611639578063fa21fcf71461164e578063fc4fdd3d146116bf578063ff37b531146116f257610473565b8063d547741f146114e4578063ddbb4dcb1461151d578063e58c9fbd146115a1578063e6ad247d146112b5578063e79767af146115cd57610473565b8063ca15c873116100fd578063ca15c87314611318578063cb8ac98914611342578063cdd713cb14611357578063d127e1cb14611496578063d257779b146114ab57610473565b8063b83f391d14610c33578063b88351141461127a578063bf465b76146112b5578063bff6a82f146112ca578063c3fe3e281461130357610473565b806391d14854116101c7578063a007a5b51161018b578063a007a5b514611194578063a217fddf146111cd578063ae3f27c7146111e2578063ae9d4b0b14611214578063b53472ef1461124757610473565b806391d1485414611044578063936054c814610c335780639643ed271461107d578063998cdf83146110b05780639b7453ab146110da57610473565b80637e28b2cf1161020e5780637e28b2cf14610f435780637ece696e14610f58578063840636e214610f6d57806385659de114610fff5780639010d07c1461101457610473565b80637090081114610e625780637187b66114610e9557806374a5788914610ec857806375151b6314610edd57806375b6737314610f1057610473565b80633b7d2e8911610366578063523a33e2116102e35780636056f326116102a75780636056f32614610d6e578063691c448014610da75780636d0d053814610de25780636d570dc614610e125780636d61185414610e2757610473565b8063523a33e214610ce15780635504d3d214610cf657806355dd500814610d0b578063596d2d8614610d44578063602fccf7146108e157610473565b80634304c7901161032a5780634304c79014610c48578063435e156a146108e1578063449b4e3714610c5d578063473d09f214610c9b57806351e717ac14610cb057610473565b80633b7d2e8914610b0b5780633db9b4fa14610b205780633f10ba7d14610b8f5780633fa1334914610c00578063418aa21f14610c3357610473565b806326166248116103f45780633440e7a9116103b85780633440e7a9146109865780633587647614610a1057806336568abe14610a75578063377bdfd214610aae578063380308be14610ae157610473565b806326166248146108cc5780632e8fc441146108e15780632f2ff15d1461090c5780632f48914b1461094557806330a61af31461097157610473565b80631a3186061161043b5780631a3186061461070a57806322773def14610797578063235ad6e1146107e2578063237fe1171461085d578063248a9ca3146108a257610473565b80630660071a1461047857806308d48422146104fb5780630bd18e5914610529578063139772db1461055c578063150b7a0214610652575b600080fd5b34801561048457600080fd5b506104ab6004803603602081101561049b57600080fd5b50356001600160a01b031661171e565b60408051602080825283518183015283519192839290830191858101910280838360005b838110156104e75781810151838201526020016104cf565b505050509050019250505060405180910390f35b6105276004803603604081101561051157600080fd5b506001600160a01b038135169060200135611801565b005b34801561053557600080fd5b506104ab6004803603602081101561054c57600080fd5b50356001600160a01b0316611d6d565b34801561056857600080fd5b506105956004803603604081101561057f57600080fd5b506001600160a01b038135169060200135611d81565b604051808060200180602001838103835285818151815260200191508051906020019060200280838360005b838110156105d95781810151838201526020016105c1565b50505050905001838103825284818151815260200191508051906020019080838360005b838110156106155781810151838201526020016105fd565b50505050905090810190601f1680156106425780820380516001836020036101000a031916815260200191505b5094505050505060405180910390f35b34801561065e57600080fd5b506106ed6004803603608081101561067557600080fd5b6001600160a01b03823581169260208101359091169160408201359190810190608081016060820135600160201b8111156106af57600080fd5b8201836020820111156106c157600080fd5b803590602001918460018302840111600160201b831117156106e257600080fd5b509092509050611f57565b604080516001600160e01b03199092168252519081900360200190f35b34801561071657600080fd5b506105276004803603606081101561072d57600080fd5b6001600160a01b038235169190810190604081016020820135600160201b81111561075757600080fd5b82018360208201111561076957600080fd5b803590602001918460208302840111600160201b8311171561078a57600080fd5b9193509150351515611ff4565b3480156107a357600080fd5b506107d0600480360360608110156107ba57600080fd5b5080359060ff60208201351690604001356121c1565b60408051918252519081900360200190f35b3480156107ee57600080fd5b506105276004803603602081101561080557600080fd5b810190602081018135600160201b81111561081f57600080fd5b82018360208201111561083157600080fd5b803590602001918460018302840111600160201b8311171561085257600080fd5b5090925090506121ea565b34801561086957600080fd5b506105276004803603606081101561088057600080fd5b506001600160a01b03813581169160208101359091169060400135151561223c565b3480156108ae57600080fd5b506107d0600480360360208110156108c557600080fd5b5035612306565b3480156108d857600080fd5b506107d061231b565b3480156108ed57600080fd5b506108f6612322565b6040805160ff9092168252519081900360200190f35b34801561091857600080fd5b506105276004803603604081101561092f57600080fd5b50803590602001356001600160a01b0316612327565b34801561095157600080fd5b506105276004803603602081101561096857600080fd5b50351515612393565b34801561097d57600080fd5b506104ab6123f2565b34801561099257600080fd5b5061099b61248c565b6040805160208082528351818301528351919283929083019185019080838360005b838110156109d55781810151838201526020016109bd565b50505050905090810190601f168015610a025780820380516001836020036101000a031916815260200191505b509250505060405180910390f35b348015610a1c57600080fd5b50610527600480360360e0811015610a3357600080fd5b506001600160a01b038135811691602081013582169160408201358116916060810135821691608082013581169160a081013582169160c09091013516612522565b348015610a8157600080fd5b5061052760048036036040811015610a9857600080fd5b50803590602001356001600160a01b03166126ac565b348015610aba57600080fd5b5061052760048036036020811015610ad157600080fd5b50356001600160a01b031661270d565b348015610aed57600080fd5b5061052760048036036020811015610b0457600080fd5b50356127aa565b348015610b1757600080fd5b506107d0612820565b348015610b2c57600080fd5b50610b4a60048036036020811015610b4357600080fd5b5035612826565b604080516001600160a01b03909716875260ff9586166020880152868101949094526060860192909252909216608084015260a0830191909152519081900360c00190f35b348015610b9b57600080fd5b50610bb960048036036020811015610bb257600080fd5b5035612875565b6040805163ffffffff909716875261ffff958616602088015260ff9485168782015292909316606086015262ffffff166080850152911660a0830152519081900360c00190f35b348015610c0c57600080fd5b5061052760048036036020811015610c2357600080fd5b50356001600160a01b03166128ad565b348015610c3f57600080fd5b506108f6612917565b348015610c5457600080fd5b506104ab61291c565b348015610c6957600080fd5b50610c8760048036036020811015610c8057600080fd5b50356129bc565b604080519115158252519081900360200190f35b348015610ca757600080fd5b506107d06129d1565b348015610cbc57600080fd5b50610cc56129d6565b604080516001600160a01b039092168252519081900360200190f35b348015610ced57600080fd5b506107d06129e5565b348015610d0257600080fd5b506107d06129f5565b348015610d1757600080fd5b5061099b60048036036040811015610d2e57600080fd5b506001600160a01b038135169060200135612a17565b348015610d5057600080fd5b506104ab60048036036020811015610d6757600080fd5b5035612acb565b348015610d7a57600080fd5b5061052760048036036040811015610d9157600080fd5b506001600160a01b038135169060200135612b97565b348015610db357600080fd5b5061052760048036036060811015610dca57600080fd5b5080359060ff60208201351690604001351515612bf4565b348015610dee57600080fd5b506107d060048036036040811015610e0557600080fd5b5080359060200135612e18565b348015610e1e57600080fd5b506108f6612e39565b348015610e3357600080fd5b506107d060048036036040811015610e4a57600080fd5b506001600160a01b0381358116916020013516612e3e565b348015610e6e57600080fd5b506107d060048036036020811015610e8557600080fd5b50356001600160a01b0316612e75565b348015610ea157600080fd5b506107d060048036036020811015610eb857600080fd5b50356001600160a01b0316612e87565b348015610ed457600080fd5b50610c87612e99565b348015610ee957600080fd5b50610c8760048036036020811015610f0057600080fd5b50356001600160a01b0316612ea2565b348015610f1c57600080fd5b506107d060048036036020811015610f3357600080fd5b50356001600160a01b0316612eb5565b348015610f4f57600080fd5b50610527612ec1565b348015610f6457600080fd5b506104ab612f6d565b348015610f7957600080fd5b5061052760048036036080811015610f9057600080fd5b6001600160a01b0382351691602081013591810190606081016040820135600160201b811115610fbf57600080fd5b820183602082011115610fd157600080fd5b803590602001918460018302840111600160201b83111715610ff257600080fd5b919350915035151561302b565b34801561100b57600080fd5b506107d06131df565b34801561102057600080fd5b50610cc56004803603604081101561103757600080fd5b50803590602001356131e5565b34801561105057600080fd5b50610c876004803603604081101561106757600080fd5b50803590602001356001600160a01b0316613203565b34801561108957600080fd5b506107d0600480360360208110156110a057600080fd5b50356001600160a01b0316613221565b3480156110bc57600080fd5b50610527600480360360208110156110d357600080fd5b503561323c565b3480156110e657600080fd5b50610527600480360360608110156110fd57600080fd5b81359190810190604081016020820135600160201b81111561111e57600080fd5b82018360208201111561113057600080fd5b803590602001918460018302840111600160201b8311171561115157600080fd5b91908080601f0160208091040260200160405190810160405280939291908181526020018383808284376000920191909152509295505050503515159050613282565b3480156111a057600080fd5b50610527600480360360408110156111b757600080fd5b506001600160a01b03813516906020013561332a565b3480156111d957600080fd5b506107d06133d1565b610527600480360360608110156111f857600080fd5b506001600160a01b0381351690602081013590604001356133d6565b34801561122057600080fd5b506105276004803603602081101561123757600080fd5b50356001600160a01b0316613d67565b34801561125357600080fd5b506105276004803603602081101561126a57600080fd5b50356001600160a01b0316613dd1565b34801561128657600080fd5b506104ab6004803603604081101561129d57600080fd5b506001600160a01b0381358116916020013516613e23565b3480156112c157600080fd5b506108f66129d1565b3480156112d657600080fd5b50610527600480360360408110156112ed57600080fd5b506001600160a01b038135169060200135613eee565b34801561130f57600080fd5b50610cc5614241565b34801561132457600080fd5b506107d06004803603602081101561133b57600080fd5b5035614250565b34801561134e57600080fd5b506108f6614267565b34801561136357600080fd5b50610527600480360360e081101561137a57600080fd5b6001600160a01b038235811692602081013592604082013592606083013516919081019060a081016080820135600160201b8111156113b857600080fd5b8201836020820111156113ca57600080fd5b803590602001918460018302840111600160201b831117156113eb57600080fd5b919390929091602081019035600160201b81111561140857600080fd5b82018360208201111561141a57600080fd5b803590602001918460208302840111600160201b8311171561143b57600080fd5b919390929091602081019035600160201b81111561145857600080fd5b82018360208201111561146a57600080fd5b803590602001918460018302840111600160201b8311171561148b57600080fd5b50909250905061426c565b3480156114a257600080fd5b506108f66133d1565b3480156114b757600080fd5b50610527600480360360408110156114ce57600080fd5b506001600160a01b0381351690602001356145da565b3480156114f057600080fd5b506105276004803603604081101561150757600080fd5b50803590602001356001600160a01b0316614637565b34801561152957600080fd5b506107d06004803603604081101561154057600080fd5b810190602081018135600160201b81111561155a57600080fd5b82018360208201111561156c57600080fd5b803590602001918460018302840111600160201b8311171561158d57600080fd5b9193509150356001600160a01b0316614690565b3480156115ad57600080fd5b50610527600480360360208110156115c457600080fd5b503515156146d7565b3480156115d957600080fd5b50610527600480360360208110156115f057600080fd5b50356001600160a01b031661472b565b34801561160c57600080fd5b50610c876004803603604081101561162357600080fd5b506001600160a01b03813516906020013561477d565b34801561164557600080fd5b50610c8761479d565b34801561165a57600080fd5b506116786004803603602081101561167157600080fd5b50356147ad565b604080516001600160a01b039889168152969097166020870152858701949094526060850192909252608084015260a083015260ff1660c082015290519081900360e00190f35b3480156116cb57600080fd5b50610cc5600480360360208110156116e257600080fd5b50356001600160a01b03166147fc565b3480156116fe57600080fd5b506105276004803603602081101561171557600080fd5b5035151561481a565b6001600160a01b0381166000908152608d602052604090206060906117429061486e565b67ffffffffffffffff8111801561175857600080fd5b50604051908082528060200260200182016040528015611782578160200160208202803683370190505b50905060005b6001600160a01b0383166000908152608d602052604090206117a99061486e565b8110156117fb576001600160a01b0383166000908152608d602052604081206117d8908363ffffffff61487916565b9050808383815181106117e757fe5b602090810291909101015250600101611788565b50919050565b818161181460788363ffffffff61488516565b801561184e5750336000908152606c602090815260408083206001600160a01b0386168452909152902061184e908263ffffffff61489a16565b61188c576040805162461bcd60e51b815260206004820152600a602482015269139bdd081b1a5cdd195960b21b604482015290519081900360640190fd5b6001600160a01b038085166000908152606d60209081526040808320878452909152902054859185911633146118f9576040805162461bcd60e51b815260206004820152600d60248201526c1058d8d95cdcc819195b9a5959609a1b604482015290519081900360640190fd5b6001600160a01b0386166000908152607760209081526040808320888452825280832054835260759091529020600601548690869060ff16158061197057506001600160a01b03821660009081526077602090815260408083208484528252808320548352607590915290206006015460ff166005145b6119b2576040805162461bcd60e51b815260206004820152600e60248201526d50656e64696e672062726964676560901b604482015290519081900360640190fd5b6001600160a01b0388166000908152608f602090815260408083208a845290915290205460ff1615611c3f576001600160a01b0388166000908152609060205260409020543414611a3b576040805162461bcd60e51b815260206004820152600e60248201526d1098590819995948185b5bdd5b9d60921b604482015290519081900360640190fd5b6001600160a01b038089166000818152608f602090815260408083208c84529091529020805460ff19169055606654909116148015611a7c575060925460ff165b8015611b0457506066546040805163783efb2560e01b8152600481018a90526003602482015290516001600160a01b039092169163783efb2591604480820192602092909190829003018186803b158015611ad657600080fd5b505afa158015611aea573d6000803e3d6000fd5b505050506040513d6020811015611b0057600080fd5b5051155b8015611b8b57506088546040805163434d82a360e01b81523360048201526001602482015290516001600160a01b039092169163434d82a391604480820192602092909190829003018186803b158015611b5d57600080fd5b505afa158015611b71573d6000803e3d6000fd5b505050506040513d6020811015611b8757600080fd5b5051155b15611c3f57604080514260208083019190915233606081901b8385015283516034818503018152605484018086528151918401919091206066546340c10f1960e01b909252605885019290925260788401829052935190936001600160a01b0316926340c10f199260988083019391928290030181600087803b158015611c1157600080fd5b505af1158015611c25573d6000803e3d6000fd5b505050506040513d6020811015611c3b57600080fd5b5050505b336000908152606c602090815260408083206001600160a01b038c1684529091529020611c72908863ffffffff6148a616565b506001600160a01b0388166000908152606e60205260409020611c9b908863ffffffff6148a616565b506001600160a01b0388166000818152606d602090815260408083208b845290915280822080546001600160a01b03191690558051632142170760e11b8152306004820152336024820152604481018b905290516342842e0e9260648084019391929182900301818387803b158015611d1357600080fd5b505af1158015611d27573d6000803e3d6000fd5b50506040518992506001600160a01b038b16915033907fbbde41973f9ce4890f7ad9762c23d8191f261fd643bdf13ed8bbc10549b49fcb90600090a45050505050505050565b6060611d798233613e23565b90505b919050565b6001600160a01b038083166000908152608b6020526040808220548151630ceeba3560e11b815260048101869052915160609485949216926319dd746a926024808301939192829003018186803b158015611ddb57600080fd5b505afa158015611def573d6000803e3d6000fd5b505050506040513d6000823e601f3d908101601f191682016040908152811015611e1857600080fd5b8101908080516040519392919084600160201b821115611e3757600080fd5b908301906020820185811115611e4c57600080fd5b82518660208202830111600160201b82111715611e6857600080fd5b82525081516020918201928201910280838360005b83811015611e95578181015183820152602001611e7d565b5050505090500160405260200180516040519392919084600160201b821115611ebd57600080fd5b908301906020820185811115611ed257600080fd5b8251600160201b811182820188101715611eeb57600080fd5b82525081516020918201929091019080838360005b83811015611f18578181015183820152602001611f00565b50505050905090810190601f168015611f455780820380516001836020036101000a031916815260200191505b50604052505050915091509250929050565b600033611f6b60788263ffffffff61488516565b8015611f9a57506001600160a01b0381166000908152606e60205260409020611f9a908663ffffffff61489a16565b611fe1576040805162461bcd60e51b8152602060048201526013602482015272151bdad95b881251081b9bdd081b1a5cdd1959606a1b604482015290519081900360640190fd5b50630a85bd0160e11b9695505050505050565b611fff600033613203565b612035576040805162461bcd60e51b8152602060048201526002602482015261414f60f01b604482015290519081900360640190fd5b60005b828110156121ba57600084848381811061204e57fe5b9050602002013590508215612109576001600160a01b0386166000908152608d60205260409020612085908263ffffffff61489a16565b156120bc576040805162461bcd60e51b81526020600482015260026024820152614e4160f01b604482015290519081900360640190fd5b6001600160a01b0386166000908152608d602052604090206120e4908263ffffffff6148b216565b506000818152608e60205260409020612103908763ffffffff6148be16565b506121b1565b6001600160a01b0386166000908152608d60205260409020612131908263ffffffff61489a16565b612168576040805162461bcd60e51b815260206004820152600360248201526227209960e91b604482015290519081900360640190fd5b6001600160a01b0386166000908152608d60205260409020612190908263ffffffff6148a616565b506000818152608e602052604090206121af908763ffffffff6148d316565b505b50600101612038565b5050505050565b600092835260826020908152604080852060ff9490941685529281528284209184525290205490565b6121f5600033613203565b61222b576040805162461bcd60e51b8152602060048201526002602482015261414f60f01b604482015290519081900360640190fd5b612237608983836150c7565b505050565b612247600033613203565b61227d576040805162461bcd60e51b8152602060048201526002602482015261414f60f01b604482015290519081900360640190fd5b80806122a157506001600160a01b038381166000908152608b602052604090205416155b6122d7576040805162461bcd60e51b81526020600482015260026024820152614e4160f01b604482015290519081900360640190fd5b506001600160a01b039182166000908152608b6020526040902080546001600160a01b03191691909216179055565b60009081526033602052604090206002015490565b6070545b90565b600181565b60008281526033602052604090206002015461234a906123456148e8565b613203565b6123855760405162461bcd60e51b815260040180806020018281038252602f8152602001806151f0602f913960400191505060405180910390fd5b61238f82826148ec565b5050565b61239e600033613203565b6123d4576040805162461bcd60e51b8152602060048201526002602482015261414f60f01b604482015290519081900360640190fd5b606b8054911515600160a01b0260ff60a01b19909216919091179055565b60606000612400608061486e565b90508067ffffffffffffffff8111801561241957600080fd5b50604051908082528060200260200182016040528015612443578160200160208202803683370190505b50915060005b8181101561248757600061246460808363ffffffff61487916565b90508084838151811061247357fe5b602090810291909101015250600101612449565b505090565b60898054604080516020601f60026000196101006001881615020190951694909404938401819004810282018101909252828152606093909290918301828280156125185780601f106124ed57610100808354040283529160200191612518565b820191906000526020600020905b8154815290600101906020018083116124fb57829003601f168201915b5050505050905090565b600054610100900460ff168061253b575061253b61495b565b80612549575060005460ff16155b6125845760405162461bcd60e51b815260040180806020018281038252602e81526020018061524f602e913960400191505060405180910390fd5b600054610100900460ff161580156125af576000805460ff1961ff0019909116610100171660011790555b6125b761496c565b6125c2600033612385565b606580546001600160a01b03199081166001600160a01b038b8116918217909355607a6020527f32fc32e8e6a367a782c09a02fa01aab4c63a2b183ce5fee9b74a77503c0667c78054831690911790556066805482168a841690811790915560026000527f1b1f440aa85fdd106751da9f081002151e81d7f9c9a991d7f6a7ef20e0b9176f805483169091179055606880548216898416179055606980548216888416179055606a80548216878416179055606b805482168684161790556067805490911691841691909117905580156126a2576000805461ff00191690555b5050505050505050565b6126b46148e8565b6001600160a01b0316816001600160a01b0316146127035760405162461bcd60e51b815260040180806020018281038252602f81526020018061527d602f913960400191505060405180910390fd5b61238f8282614a1e565b612718600033613203565b612755576040805162461bcd60e51b81526020600482015260096024820152682737ba1030b236b4b760b91b604482015290519081900360640190fd5b608a80546001600160a01b039092166001600160a01b031992831681179091556003600052607a6020527f87b4f67b2406d03a55b52bb16d21c469b6c736dc05d05baecc1db4bc2bbb1dbf8054909216179055565b604080516923a0a6a2afa0a226a4a760b11b8152905190819003600a0190206127d39033613203565b806127e457506127e4600033613203565b61281b576040805162461bcd60e51b81526020600482015260036024820152624e474160e81b604482015290519081900360640190fd5b607055565b60715490565b6000908152607d60209081526040808320805460018201546002830154600690930154607e90955292909420546001600160a01b03851695600160a01b90950460ff9081169593949293921691565b63ffffffff602082901c169161ffff601083901c811692600881901c60ff908116939082169262ffffff604084901c169260581c1690565b6128b8600033613203565b6128f5576040805162461bcd60e51b81526020600482015260096024820152682737ba1030b236b4b760b91b604482015290519081900360640190fd5b608480546001600160a01b0319166001600160a01b0392909216919091179055565b600281565b606060788161292a8261486e565b67ffffffffffffffff8111801561294057600080fd5b5060405190808252806020026020018201604052801561296a578160200160208202803683370190505b50905060005b81518110156129b557612989838263ffffffff61487916565b82828151811061299557fe5b6001600160a01b0390921660209283029190910190910152600101612970565b5091505090565b60009081526072602052604090205460ff1690565b600381565b6088546001600160a01b031681565b60006129f033613221565b905090565b604080516923a0a6a2afa0a226a4a760b11b8152905190819003600a01902081565b6001600160a01b0382166000908152606f6020908152604080832084845282529182902080548351601f6002600019610100600186161502019093169290920491820184900484028101840190945280845260609392830182828015612abe5780601f10612a9357610100808354040283529160200191612abe565b820191906000526020600020905b815481529060010190602001808311612aa157829003601f168201915b5050505050905092915050565b6000818152608e60205260409020606090612ae59061486e565b67ffffffffffffffff81118015612afb57600080fd5b50604051908082528060200260200182016040528015612b25578160200160208202803683370190505b50905060005b6000838152608e60205260409020612b429061486e565b8110156117fb576000838152608e60205260408120612b67908363ffffffff61487916565b905080838381518110612b7657fe5b6001600160a01b039092166020928302919091019091015250600101612b2b565b612ba2600033613203565b612bd8576040805162461bcd60e51b8152602060048201526002602482015261414f60f01b604482015290519081900360640190fd5b6001600160a01b03909116600090815260906020526040902055565b604080516923a0a6a2afa0a226a4a760b11b8152905190819003600a019020612c1d9033613203565b80612c2e5750612c2e600033613203565b612c65576040805162461bcd60e51b81526020600482015260036024820152624e474160e81b604482015290519081900360640190fd5b60008381526075602052604090208180612c945750600681015460ff166001148015612c94575060ff83166002145b80612cb45750600681015460ff166002148015612cb4575060ff83166003145b80612cc2575060ff83166004145b612cf9576040805162461bcd60e51b815260206004820152600360248201526249534360e81b604482015290519081900360640190fd5b60068101805460ff191660ff8516908117909155436003808401919091551415612dd457506000838152607560209081526040808320600481015481546001600160a01b039081168652606c8552838620600184015490911686529093529220612d689163ffffffff6148a616565b50600481015460018201546001600160a01b03166000908152606e60205260409020612d999163ffffffff6148a616565b5060018101546001600160a01b03166000908152606d6020908152604080832060048501548452909152902080546001600160a01b03191690555b6040805160ff851681528315156020820152815186927fe9be44629e148c97d70f6fd687136943c6eea85468b1cdccc5983bab033d167d928290030190a250505050565b6000828152608c602090815260408083208484529091529020545b92915050565b600581565b6001600160a01b038082166000908152606c602090815260408083209386168352929052908120612e6e9061486e565b9392505050565b60916020526000908152604090205481565b60906020526000908152604090205481565b60745460ff1690565b6000611d7960788363ffffffff61488516565b6000611d798233612e3e565b33600090815260766020908152604080832054835260759091529020600681015460ff16600114612f2d576040805162461bcd60e51b81526020600482015260116024820152706e6f2070656e64696e672062726964676560781b604482015290519081900360640190fd5b60068101805460ff1916905543600382015560405133907f9488dbae60530b56439c8ff7df875cd889d990a8e77716c0f70df77391d69ba490600090a250565b336000908152607b6020526040812060609190612f899061486e565b90508067ffffffffffffffff81118015612fa257600080fd5b50604051908082528060200260200182016040528015612fcc578160200160208202803683370190505b50336000908152607b602052604081209193505b612fe98261486e565b811015613025576000613002838363ffffffff61487916565b90508085838151811061301157fe5b602090810291909101015250600101612fe0565b50505090565b604080516923a0a6a2afa0a226a4a760b11b8152905190819003600a0190206130549033613203565b806130655750613065600033613203565b61309c576040805162461bcd60e51b81526020600482015260036024820152624e474160e81b604482015290519081900360640190fd5b808061312557506001600160a01b0385166000908152606f602090815260408083208784529091529020546002600019610100600184161502019091160415801561312557506001600160a01b03851660009081526086602052604090819020905184908490808383808284379190910194855250506040519283900360200190922054159150505b61315b576040805162461bcd60e51b81526020600482015260026024820152614e4160f01b604482015290519081900360640190fd5b6001600160a01b0385166000908152606f6020908152604080832087845290915290206131899084846150c7565b508360866000876001600160a01b03166001600160a01b03168152602001908152602001600020848460405180838380828437919091019485525050604051928390036020019092209290925550505050505050565b60855490565b6000828152603360205260408120612e6e908363ffffffff61487916565b6000828152603360205260408120612e6e908363ffffffff61488516565b6001600160a01b031660009081526076602052604090205490565b613247600033613203565b61327d576040805162461bcd60e51b8152602060048201526002602482015261414f60f01b604482015290519081900360640190fd5b608555565b61328d600033613203565b6132c3576040805162461bcd60e51b8152602060048201526002602482015261414f60f01b604482015290519081900360640190fd5b6000838152607260209081526040808320805460ff19168515151790556073825290912083516132f592850190615145565b5080156133135761330d60808463ffffffff6148b216565b50612237565b61332460808463ffffffff6148a616565b50505050565b604080516923a0a6a2afa0a226a4a760b11b8152905190819003600a0190206133539033613203565b806133645750613364600033613203565b61339b576040805162461bcd60e51b81526020600482015260036024820152624e474160e81b604482015290519081900360640190fd5b6040516001600160a01b0383169082156108fc029083906000818181858888f19350505050158015612237573d6000803e3d6000fd5b600081565b826133e081612ea2565b613419576040805162461bcd60e51b815260206004820152600560248201526422b93937b960d91b604482015290519081900360640190fd5b838361342c60788363ffffffff61488516565b80156134665750336000908152606c602090815260408083206001600160a01b03861684529091529020613466908263ffffffff61489a16565b6134a4576040805162461bcd60e51b815260206004820152600a602482015269139bdd081b1a5cdd195960b21b604482015290519081900360640190fd5b6001600160a01b038087166000908152606d6020908152604080832089845290915290205487918791163314613511576040805162461bcd60e51b815260206004820152600d60248201526c1058d8d95cdcc819195b9a5959609a1b604482015290519081900360640190fd5b8787878161354f576040805162461bcd60e51b81526020600480830191909152602482015263424e533160e01b604482015290519081900360640190fd5b6001600160a01b0383166000908152608d60205260409020613577908263ffffffff61489a16565b6135b1576040805162461bcd60e51b815260206004808301919091526024820152632127299960e11b604482015290519081900360640190fd5b6001600160a01b038084166000908152608b602090815260409182902054825163355319db60e11b81529251931692636aa633b6926004808201939291829003018186803b15801561360257600080fd5b505afa158015613616573d6000803e3d6000fd5b505050506040513d602081101561362c57600080fd5b5051613668576040805162461bcd60e51b81526020600480830191909152602482015263424e533360e01b604482015290519081900360640190fd5b6001600160a01b038084166000908152608b6020908152604091829020548251631698a0c560e11b815233600482015260248101879052604481018690529251931692632d31418a926064808201939291829003018186803b1580156136cd57600080fd5b505afa1580156136e1573d6000803e3d6000fd5b505050506040513d60208110156136f757600080fd5b5051613733576040805162461bcd60e51b81526020600480830191909152602482015263109394cd60e21b604482015290519081900360640190fd5b600089815260726020526040902054899060ff1661378c576040805162461bcd60e51b8152602060048201526011602482015270189c9a5919da5b99c8191a5cd8589b1959607a1b604482015290519081900360640190fd5b336000908152607660209081526040808320548352607590915290206006015460ff1615806137dd5750336000908152607660209081526040808320548352607590915290206006015460ff166003145b8061380a5750336000908152607660209081526040808320548352607590915290206006015460ff166005145b61385b576040805162461bcd60e51b815260206004820152601760248201527f43616e6e6f742072657175657374206120627269646765000000000000000000604482015290519081900360640190fd5b606b54600160a01b900460ff16801561396457506088546040805163907ef7d560e01b815290516001600160a01b039092169163434d82a3913391849163907ef7d5916004808301926020929190829003018186803b1580156138bd57600080fd5b505afa1580156138d1573d6000803e3d6000fd5b505050506040513d60208110156138e757600080fd5b5051604080516001600160e01b031960e086901b1681526001600160a01b0390931660048401526024830191909152516044808301926020929190829003018186803b15801561393657600080fd5b505afa15801561394a573d6000803e3d6000fd5b505050506040513d602081101561396057600080fd5b5051155b6139a8576040805162461bcd60e51b815260206004820152601060248201526f1cdd1bdc9859d948191a5cd8589b195960821b604482015290519081900360640190fd5b6001600160a01b038c166000908152609160205260409020543414613a05576040805162461bcd60e51b815260206004820152600e60248201526d1098590819995948185b5bdd5b9d60921b604482015290519081900360640190fd5b6084546085546040805163466cec3360e01b81523360048201526024810192909252516001600160a01b039092169163466cec339160448082019260009290919082900301818387803b158015613a5b57600080fd5b505af1158015613a6f573d6000803e3d6000fd5b505050506040518060e00160405280336001600160a01b031681526020018d6001600160a01b03168152602001438152602001600081526020018c81526020018b8152602001600160ff1681525060756000607160008154600101919050819055815260200190815260200160002060008201518160000160006101000a8154816001600160a01b0302191690836001600160a01b0316021790555060208201518160010160006101000a8154816001600160a01b0302191690836001600160a01b0316021790555060408201518160020155606082015181600301556080820151816004015560a0820151816005015560c08201518160060160006101000a81548160ff021916908360ff16021790555090505060715460766000336001600160a01b03166001600160a01b0316815260200190815260200160002081905550607154607760008e6001600160a01b03166001600160a01b0316815260200190815260200160002060008d815260200190815260200160002081905550606f60008d6001600160a01b03166001600160a01b0316815260200190815260200160002060008c815260200190815260200160002080546001816001161561010002031660029004905060001415613d21576060613c4b8c614a8d565b905080606f60008f6001600160a01b03166001600160a01b0316815260200190815260200160002060008e81526020019081526020016000209080519060200190613c97929190615145565b508b608660008f6001600160a01b03166001600160a01b03168152602001908152602001600020826040518082805190602001908083835b60208310613cee5780518252601f199092019160209182019101613ccf565b51815160209384036101000a60001901801990921691161790529201948552506040519384900301909220929092555050505b6040518b906001600160a01b038e169033907f3bf078f73d5107e1de4b93c941d87936fdfea9fdfc618d32a79db0ec642f84fa90600090a4505050505050505050505050565b613d72600033613203565b613daf576040805162461bcd60e51b81526020600482015260096024820152682737ba1030b236b4b760b91b604482015290519081900360640190fd5b608880546001600160a01b0319166001600160a01b0392909216919091179055565b613ddc600033613203565b613e12576040805162461bcd60e51b8152602060048201526002602482015261414f60f01b604482015290519081900360640190fd5b61238f60788263ffffffff6148be16565b60606000613e318484612e3e565b90508067ffffffffffffffff81118015613e4a57600080fd5b50604051908082528060200260200182016040528015613e74578160200160208202803683370190505b506001600160a01b038085166000908152606c6020908152604080832093891683529290529081209193505b613ea98261486e565b811015613ee5576000613ec2838363ffffffff61487916565b905080858381518110613ed157fe5b602090810291909101015250600101613ea0565b50505092915050565b81613ef881612ea2565b613f31576040805162461bcd60e51b815260206004820152600560248201526422b93937b960d91b604482015290519081900360640190fd5b8282613f4460788363ffffffff61488516565b1580613f805750336000908152606c602090815260408083206001600160a01b03861684529091529020613f7e908263ffffffff61489a16565b155b613fc2576040805162461bcd60e51b815260206004820152600e60248201526d105b1c9958591e481b1a5cdd195960921b604482015290519081900360640190fd5b606b54600160a01b900460ff1680156140cb57506088546040805163907ef7d560e01b815290516001600160a01b039092169163434d82a3913391849163907ef7d5916004808301926020929190829003018186803b15801561402457600080fd5b505afa158015614038573d6000803e3d6000fd5b505050506040513d602081101561404e57600080fd5b5051604080516001600160e01b031960e086901b1681526001600160a01b0390931660048401526024830191909152516044808301926020929190829003018186803b15801561409d57600080fd5b505afa1580156140b1573d6000803e3d6000fd5b505050506040513d60208110156140c757600080fd5b5051155b61410f576040805162461bcd60e51b815260206004820152601060248201526f1cdd1bdc9859d948191a5cd8589b195960821b604482015290519081900360640190fd5b336000908152606c602090815260408083206001600160a01b03891684529091529020614142908563ffffffff6148b216565b506001600160a01b0385166000908152606e6020526040902061416b908563ffffffff6148b216565b506001600160a01b0385166000818152606d6020908152604080832088845290915280822080546001600160a01b031916339081179091558151632142170760e11b815260048101919091523060248201526044810188905290516342842e0e9260648084019391929182900301818387803b1580156141ea57600080fd5b505af11580156141fe573d6000803e3d6000fd5b50506040518692506001600160a01b038816915033907f17441e63855a9d9fbd4e98df39619aaa56b10c5da482dafbc97c5a426a65e04c90600090a45050505050565b6084546001600160a01b031681565b6000818152603360205260408120611d799061486e565b600481565b604080516923a0a6a2afa0a226a4a760b11b8152905190819003600a0190206142959033613203565b806142a657506142a6600033613203565b6142dd576040805162461bcd60e51b81526020600482015260036024820152624e474160e81b604482015290519081900360640190fd5b6000898152608c602090815260408083208b84529091529020541561432e576040805162461bcd60e51b81526020600482015260026024820152614e4160f01b604482015290519081900360640190fd5b6001600160a01b0387166000908152608660205260408082209051889088908083838082843780830192505050925050509081526020016040518091039020549050608b6000896001600160a01b03166001600160a01b0316815260200190815260200160002060009054906101000a90046001600160a01b03166001600160a01b031663d58a097c8c83888888886040518763ffffffff1660e01b815260040180876001600160a01b03166001600160a01b0316815260200186815260200180602001806020018381038352878782818152602001925060200280828437600083820152601f01601f191690910184810383528581526020019050858580828437600081840152601f19601f82011690508083019250505098505050505050505050602060405180830381600087803b15801561446b57600080fd5b505af115801561447f573d6000803e3d6000fd5b505050506040513d602081101561449557600080fd5b5051604080516331a9108f60e11b815260048101839052905191925030916001600160a01b038b1691636352211e916024808301926020929190829003018186803b1580156144e357600080fd5b505afa1580156144f7573d6000803e3d6000fd5b505050506040513d602081101561450d57600080fd5b50516001600160a01b031614614550576040805162461bcd60e51b815260206004820152600360248201526227209960e91b604482015290519081900360640190fd5b6145938a8a8a848b8b8080601f016020809104026020016040519081016040528093929190818152602001838380828437600092019190915250614b6092505050565b61459e8b8983614c34565b6001600160a01b039097166000908152608f6020908152604080832099835298905296909620805460ff19166001179055505050505050505050565b6145e5600033613203565b61461b576040805162461bcd60e51b8152602060048201526002602482015261414f60f01b604482015290519081900360640190fd5b6001600160a01b03909116600090815260916020526040902055565b600082815260336020526040902060020154614655906123456148e8565b6127035760405162461bcd60e51b815260040180806020018281038252603081526020018061521f6030913960400191505060405180910390fd5b6001600160a01b0381166000908152608660205260408082209051859085908083838082843791909101948552505060405192839003602001909220549695505050505050565b6146e2600033613203565b614718576040805162461bcd60e51b8152602060048201526002602482015261414f60f01b604482015290519081900360640190fd5b6092805460ff1916911515919091179055565b614736600033613203565b61476c576040805162461bcd60e51b8152602060048201526002602482015261414f60f01b604482015290519081900360640190fd5b61238f60788263ffffffff6148d316565b608f60209081526000928352604080842090915290825290205460ff1681565b606b54600160a01b900460ff1690565b60009081526075602052604090208054600182015460048301546002840154600385015460058601546006909601546001600160a01b039586169795909416959294919390929160ff90911690565b6001600160a01b039081166000908152608b60205260409020541690565b614825600033613203565b61485b576040805162461bcd60e51b8152602060048201526002602482015261414f60f01b604482015290519081900360640190fd5b6074805460ff1916911515919091179055565b6000611d7982614db9565b6000612e6e8383614dbd565b6000612e6e836001600160a01b038416614e21565b6000612e6e8383614e21565b6000612e6e8383614e39565b6000612e6e8383614eff565b6000612e6e836001600160a01b038416614eff565b6000612e6e836001600160a01b038416614e39565b3390565b600082815260336020526040902061490a908263ffffffff6148be16565b1561238f576149176148e8565b6001600160a01b0316816001600160a01b0316837f2f8788117e7eff1d82e926ec794901d17c78024a50270940304540a733656f0d60405160405180910390a45050565b600061496630614f49565b15905090565b600054610100900460ff1680614985575061498561495b565b80614993575060005460ff16155b6149ce5760405162461bcd60e51b815260040180806020018281038252602e81526020018061524f602e913960400191505060405180910390fd5b600054610100900460ff161580156149f9576000805460ff1961ff0019909116610100171660011790555b614a01614f4f565b614a09614f4f565b8015614a1b576000805461ff00191690555b50565b6000828152603360205260409020614a3c908263ffffffff6148d316565b1561238f57614a496148e8565b6001600160a01b0316816001600160a01b0316837ff6391f5c32d9c69d2a47ea670b442974b53935d1edc7fd64eb21e047a839171b60405160405180910390a45050565b60606089614a9a83614fef565b6040516020018083805460018160011615610100020316600290048015614af85780601f10614ad6576101008083540402835291820191614af8565b820191906000526020600020905b815481529060010190602001808311614ae4575b5050825160208401908083835b60208310614b245780518252601f199092019160209182019101614b05565b6001836020036101000a038019825116818451168082178552505050505050905001925050506040516020818303038152906040529050919050565b6000858152608c6020908152604080832087845282528083208590556001600160a01b0386168352606f825280832085845282529091208251614ba592840190615145565b508160866000856001600160a01b03166001600160a01b03168152602001908152602001600020826040518082805190602001908083835b60208310614bfc5780518252601f199092019160209182019101614bdd565b51815160209384036101000a600019018019909216911617905292019485525060405193849003019092209290925550505050505050565b6001600160a01b038281166000908152606d602090815260408083208584529091529020541615614c92576040805162461bcd60e51b81526020600482015260036024820152624e413360e81b604482015290519081900360640190fd5b6001600160a01b0382166000908152606e60205260409020614cba908263ffffffff61489a16565b614ce8576001600160a01b0382166000908152606e60205260409020614ce6908263ffffffff6148b216565b505b6001600160a01b038281166000818152606d60209081526040808320868452825280832080546001600160a01b0319169589169586179055938252606c81528382209282529190915220614d3c90826148b2565b506001600160a01b03821660009081526077602090815260408083208484528252808320548352607590915290206006015460ff1660031415612237576001600160a01b0382166000908152607760209081526040808320848452825280832054835260759091529020600601805460ff19166005179055505050565b5490565b81546000908210614dff5760405162461bcd60e51b81526004018080602001828103825260228152602001806151ce6022913960400191505060405180910390fd5b826000018281548110614e0e57fe5b9060005260206000200154905092915050565b60009081526001919091016020526040902054151590565b60008181526001830160205260408120548015614ef55783546000198083019190810190600090879083908110614e6c57fe5b9060005260206000200154905080876000018481548110614e8957fe5b600091825260208083209091019290925582815260018981019092526040902090840190558654879080614eb957fe5b60019003818190600052602060002001600090559055866001016000878152602001908152602001600020600090556001945050505050612e33565b6000915050612e33565b6000614f0b8383614e21565b614f4157508154600181810184556000848152602080822090930184905584548482528286019093526040902091909155612e33565b506000612e33565b3b151590565b600054610100900460ff1680614f685750614f6861495b565b80614f76575060005460ff16155b614fb15760405162461bcd60e51b815260040180806020018281038252602e81526020018061524f602e913960400191505060405180910390fd5b600054610100900460ff16158015614a09576000805460ff1961ff0019909116610100171660011790558015614a1b576000805461ff001916905550565b60608161501457506040805180820190915260018152600360fc1b6020820152611d7c565b8160005b811561502c57600101600a82049150615018565b60608167ffffffffffffffff8111801561504557600080fd5b506040519080825280601f01601f191660200182016040528015615070576020820181803683370190505b50905060001982015b85156150be57600a860660300160f81b8282806001900393508151811061509c57fe5b60200101906001600160f81b031916908160001a905350600a86049550615079565b50949350505050565b828054600181600116156101000203166002900490600052602060002090601f016020900481019282601f106151085782800160ff19823516178555615135565b82800160010185558215615135579182015b8281111561513557823582559160200191906001019061511a565b506151419291506151b3565b5090565b828054600181600116156101000203166002900490600052602060002090601f016020900481019282601f1061518657805160ff1916838001178555615135565b82800160010185558215615135579182015b82811115615135578251825591602001919060010190615198565b61231f91905b8082111561514157600081556001016151b956fe456e756d657261626c655365743a20696e646578206f7574206f6620626f756e6473416363657373436f6e74726f6c3a2073656e646572206d75737420626520616e2061646d696e20746f206772616e74416363657373436f6e74726f6c3a2073656e646572206d75737420626520616e2061646d696e20746f207265766f6b65496e697469616c697a61626c653a20636f6e747261637420697320616c726561647920696e697469616c697a6564416363657373436f6e74726f6c3a2063616e206f6e6c792072656e6f756e636520726f6c657320666f722073656c66a2646970667358221220043a43dbba37f90e92c176cd7a1d7496f6947fa17bae80122772219dd1e8ad4764736f6c63430006050033",
  "immutableReferences": {},
  "source": "pragma solidity ^0.6.0;\n\nimport \"@openzeppelin/contracts-upgradeable/proxy/Initializable.sol\";\nimport \"@openzeppelin/contracts-upgradeable/access/AccessControlUpgradeable.sol\";\nimport \"@openzeppelin/contracts-upgradeable/token/ERC721/IERC721ReceiverUpgradeable.sol\";\nimport \"@openzeppelin/contracts/utils/EnumerableSet.sol\";\nimport \"@openzeppelin/contracts/introspection/ERC165Checker.sol\";\nimport \"@openzeppelin/contracts/token/ERC721/IERC721.sol\";\nimport \"./weapons.sol\";\nimport \"./characters.sol\";\nimport \"./shields.sol\";\nimport \"./NFTMarket.sol\";\nimport \"./Promos.sol\";\nimport \"./WeaponRenameTagConsumables.sol\";\nimport \"./CharacterRenameTagConsumables.sol\";\nimport \"./WeaponCosmetics.sol\";\nimport \"./CharacterCosmetics.sol\";\nimport \"./interfaces/IBridgeProxy.sol\";\n\ncontract NFTStorage is IERC721ReceiverUpgradeable, Initializable, AccessControlUpgradeable\n{\n    using EnumerableSet for EnumerableSet.UintSet;\n    using EnumerableSet for EnumerableSet.AddressSet;\n\n    bytes4 private constant _INTERFACE_ID_ERC721 = 0x80ac58cd;\n    bytes32 public constant GAME_ADMIN = keccak256(\"GAME_ADMIN\");\n\n    Weapons weapons;\n    Characters characters;\n    NFTMarket nftMarket;\n    WeaponRenameTagConsumables weaponRenameTagConsumables;\n    CharacterRenameTagConsumables characterRenameTagConsumables;\n    WeaponCosmetics weaponCosmetics;\n    CharacterCosmetics characterCosmetics;\n\n    bool storageEnabled;\n    // sender + token address => ids\n    mapping(address => mapping(address => EnumerableSet.UintSet)) private storedItems;\n    // token address + id => owner who stored\n    mapping(address => mapping(uint256 => address)) private storedItemsOwners;\n    // All stored items\n    mapping(address => EnumerableSet.UintSet) private allStoredItems;\n    // Ideally this would be put in weapons / chars etc.. but hit contract limit on weapons so putting this here for now\n    mapping(address => mapping(uint256 => string)) private nftChainIds;\n\n    // Keeping thing in check\n    // A player can only have one pending request at a time\n\n    uint8 public constant TRANSFER_OUT_STATUS_NONE = 0;\n    uint8 public constant TRANSFER_OUT_STATUS_PENDING = 1;\n    uint8 public constant TRANSFER_OUT_STATUS_PROCESSING = 2;\n    uint8 public constant TRANSFER_OUT_STATUS_DONE = 3;\n    uint8 public constant TRANSFER_OUT_STATUS_ERROR = 4;\n    uint8 public constant TRANSFER_OUT_STATUS_RESTORED = 5;\n\n    struct TransferOut {\n        address owner;\n        address nftAddress;\n\n        uint256 requestBlock; // For tracking. Requested on block x\n        uint256 lastUpdateBlock; // For tracking. Last Update on block y\n        uint256 nftId;\n\n        uint256 chainId;\n        uint8 status; // enumeration. 0 => nothing, 1 => transfer requested, 2 => moved\n    }\n\n    // Bot stuff\n    uint256 private _transfersOutAt;\n    uint256 private _transfersOutCount;\n    mapping(uint256 => bool) private _bridgeEnabled; // Which chain can we go to from here?\n    mapping(uint256 => string) private _chainPrefix; // Prefix to prepend to chainId\n    bool private _botEnabled;\n    mapping(uint256 => TransferOut) private transferOuts;\n\n    // Player stuff\n    // Player => bridgeTransferId\n    mapping(address => uint256) private transferOutOfPlayers;\n\n    // NFT stuff, an NFT should at most have one BridgeTransfer\n    // NFT => id => bridgeTransferId\n    mapping(address => mapping(uint256 => uint256)) private transferOutOfNFTs;\n\n    // address is IERC721\n    EnumerableSet.AddressSet private supportedTokenTypes;\n\n    uint8 public constant TRANSFER_IN_STATUS_AVAILABLE = 1;\n    uint8 public constant TRANSFER_IN_STATUS_WITHDRAWN = 2;\n\n    // Bot deposited items to be extracted by player\n    uint8 public constant NFT_TYPE_WEAPON = 1;\n    uint8 public constant NFT_TYPE_CHARACTER = 2;\n    uint8 public constant NFT_TYPE_SHIELD = 3;\n\n    mapping(uint8 => address) private nftTypeToAddress;\n\n    // Struct to hold data that will always be needed + rename because it can't be packed.\n    // transferInsMeta will hold actual NFT data packed\n    struct TransferIn {\n        address owner;\n\n        uint8 nftType;\n        uint256 sourceChain;\n        uint256 sourceId;\n\n        string rename;\n\n        uint256 arrivedAt; // For tracking. Arrived on block x\n        uint256 lastUpdateBlock; // For tracking. Last Update on block y\n\n        uint8 status; // enumeration. 0 => waiting, 1 => claimed\n    }\n\n    // Player address => items to be extracted\n    mapping(address => EnumerableSet.UintSet) private receivedNFTs;\n\n    uint256 private _transferInsAt;\n    mapping(uint256 => TransferIn) private transferIns;\n    mapping(uint256 => uint256) private transferInsMeta;\n    mapping(uint256 => uint256) private transferInSeeds;\n\n\n    EnumerableSet.UintSet private _supportedChains;\n\n    // Source chain => NFT Type => NFTId of source chain => transfer id\n    mapping(uint256 => mapping(uint256 => mapping(uint256 => uint256))) private _transferInsLog;\n    // Transfer id => minted item Id; no need for NFT type; we can get that from trasnfer in info\n    mapping(uint256 => uint256) private _withdrawFromBridgeLog;\n\n    CryptoBlades public game;\n    uint256 private _bridgeFee;\n\n    // global chainid => local mint id\n    mapping(address => mapping(string => uint256)) private nftChainIdsToMintId;\n\n    mapping(uint256 => string) private transferInChainId;\n\n    Promos public promos;\n\n    string private _localChainPrefix;\n\n    Shields shields;\n\n    // Bot 2.0\n    // Proxy contracts\n    mapping(address => address) private nftProxyContract;\n    // Source chain => transfer out id of source chain => mintid (mint id 0 doesn't exist...)\n    mapping(uint256 => mapping(uint256 => uint256)) private bot2p0Log;\n    // NFT => allowed networks to bridge into\n    mapping(address => EnumerableSet.UintSet) private nftAllowedChains;\n    // Target network => allowed nfts\n    mapping(uint256 => EnumerableSet.AddressSet) private targetChainAllowedNFTs;\n    // Is NFT bridged or only stored\n    mapping(address => mapping(uint256 => bool)) public isNftBridged;\n    mapping(address => uint256) public withdrawFromStorageNativeFee;\n    mapping(address => uint256) public requestBridgeNativeFee;\n\n    event NFTStored(address indexed owner, IERC721 indexed nftAddress, uint256 indexed nftID);\n    event NFTWithdrawn(address indexed owner, IERC721 indexed nftAddress, uint256 indexed nftID);\n    event NFTTransferOutRequest(address indexed owner, IERC721 indexed nftAddress, uint256 indexed nftID);\n    event NFTTransferOutCanceled(address indexed owner);\n    event NFTTransferUpdate(uint256 indexed requestId, uint8 status, bool forced);\n    event TransferedIn(address indexed receiver, uint8 nftType, uint256 sourceChain, uint256 indexed sourceId);\n    event NFTWithdrawnFromBridge(address indexed receiver, uint256 indexed bridgedId, uint8 nftType, uint256 indexed mintedId);\n    \n    // Copied from promos.sol, to avoid paying 5k gas to query a constant.\n    uint256 private constant BIT_FIRST_CHARACTER = 1;\n    // Copied from characters.sol, to avoid paying 5k gas to query a constant.\n    uint256 public constant NFTVAR_NON_GENESIS_VERSION = 3;\n    bool giveawayGen2Enabled;\n\n    function initialize(address _weaponsAddress, address _charactersAddress, WeaponRenameTagConsumables _weaponRenameTagConsumables, CharacterRenameTagConsumables _characterRenameTagConsumables,\n     WeaponCosmetics _weaponCosmetics, CharacterCosmetics _characterCosmetics, NFTMarket _nftMarket)\n        public\n        initializer\n    {\n        __AccessControl_init();\n\n        _setupRole(DEFAULT_ADMIN_ROLE, msg.sender);\n\n        weapons = Weapons(_weaponsAddress);\n        nftTypeToAddress[NFT_TYPE_WEAPON] = _weaponsAddress;\n\n        characters = Characters(_charactersAddress);\n        nftTypeToAddress[NFT_TYPE_CHARACTER] =_charactersAddress;\n\n        weaponRenameTagConsumables = _weaponRenameTagConsumables;\n        characterRenameTagConsumables = _characterRenameTagConsumables;\n\n        weaponCosmetics = _weaponCosmetics;\n        characterCosmetics = _characterCosmetics;\n\n        nftMarket = _nftMarket;\n    }\n\n    function migrateTo_56837f7(CryptoBlades _game) external {\n        require(hasRole(DEFAULT_ADMIN_ROLE, msg.sender), \"Not admin\");\n\n        game = _game;\n    }\n\n    function migrateTo_98bf302(Promos _promos) public {\n        require(hasRole(DEFAULT_ADMIN_ROLE, msg.sender), \"Not admin\");\n\n        promos = _promos;\n    }\n\n    function migrateTo_3f597dc(address _shieldsAddress) public {\n        require(hasRole(DEFAULT_ADMIN_ROLE, msg.sender), \"Not admin\");\n\n        shields = Shields(_shieldsAddress);\n        nftTypeToAddress[NFT_TYPE_SHIELD] =_shieldsAddress;\n    }\n\n    modifier restricted() {\n        require(hasRole(DEFAULT_ADMIN_ROLE, msg.sender), \"AO\");\n        _;\n    }\n\n    modifier gameAdminRestricted() {\n        require(hasRole(GAME_ADMIN, msg.sender) || hasRole(DEFAULT_ADMIN_ROLE, msg.sender), \"NGA\");\n        _;\n    }\n\n    modifier isStored(IERC721 _tokenAddress, uint256 id) {\n        require(\n            supportedTokenTypes.contains(address(_tokenAddress)) &&\n                storedItems[msg.sender][address(_tokenAddress)].contains(id),\n            \"Not listed\"\n        );\n        _;\n    }\n\n    modifier isNotStored(IERC721 _tokenAddress, uint256 id) {\n        require(\n            !supportedTokenTypes.contains(address(_tokenAddress)) ||\n                !storedItems[msg.sender][address(_tokenAddress)].contains(id),\n            \"Already listed\"\n        );\n        _;\n    }\n\n    modifier isOwner(IERC721 _tokenAddress, uint256 id) {\n        require(\n            storedItemsOwners[address(_tokenAddress)][id] == msg.sender,\n            \"Access denied\"\n        );\n        _;\n    }\n\n    modifier tokenNotBanned(IERC721 _tokenAddress) {\n        require(\n            isTokenSupported(_tokenAddress),\n            \"Error\"\n        );\n        _;\n    }\n\n    modifier notBridged(IERC721 _tokenAddress, uint256 id) {\n         require(\n            transferOuts[transferOutOfNFTs[address(_tokenAddress)][id]].status == TRANSFER_OUT_STATUS_NONE\n            || transferOuts[transferOutOfNFTs[address(_tokenAddress)][id]].status == TRANSFER_OUT_STATUS_RESTORED,\n            \"Pending bridge\"\n        );\n        _;\n    }\n\n     modifier canStore() {\n         require(\n            storageEnabled && promos.getBit(msg.sender, promos.BIT_BAD_ACTOR()) == false,\n            \"storage disabled\"\n        );\n        _;\n    }\n\n     modifier bridgeEnabled(uint256 targetChain) {\n         require(\n            _bridgeEnabled[targetChain],\n            \"bridging disabled\"\n        );\n        _;\n    }\n\n    modifier noPendingBridge() {\n         require(\n            transferOuts[transferOutOfPlayers[msg.sender]].status == TRANSFER_OUT_STATUS_NONE\n            || transferOuts[transferOutOfPlayers[msg.sender]].status == TRANSFER_OUT_STATUS_DONE\n            || transferOuts[transferOutOfPlayers[msg.sender]].status == TRANSFER_OUT_STATUS_RESTORED,\n            \"Cannot request a bridge\"\n        );\n        _;\n    }\n\n    modifier ownsBridgedNFT(uint256 bridgedNFT) {\n         require( transferIns[bridgedNFT].owner == msg.sender, \"not bridged NFT owner\" );\n        _;\n    }\n\n    modifier bridgeSupported(IERC721 _tokenAddress, uint256 _id, uint256 targetChain) {\n        require(_id != 0, \"BNS1\"); // avoid sanity issues with mappings; just dont support 0\n        require(nftAllowedChains[address(_tokenAddress)].contains(targetChain), \"BNS2\"); // We support bridging from this chain to that chain\n        require(IBridgeProxy(nftProxyContract[address(_tokenAddress)]).isEnabled(), \"BNS3\");\n        require(IBridgeProxy(nftProxyContract[address(_tokenAddress)]).canBridge(msg.sender, _id, targetChain), \"BNS4\");\n        _;\n    }\n    \n    // fail safes\n    modifier canWithdrawBridgedNFT(uint256 bridgedNFT) {\n         require( transferIns[bridgedNFT].status == TRANSFER_IN_STATUS_AVAILABLE, \"not available\" );\n         require( nftTypeToAddress[transferIns[bridgedNFT].nftType] != address(0), \"NFT not defined\" );\n        _;\n    }\n\n    function isTokenSupported(IERC721 _tokenAddress) public view returns (bool) {\n        return supportedTokenTypes.contains(address(_tokenAddress));\n    }\n\n    function getSupportedTokenTypes() public view returns (IERC721[] memory) {\n        EnumerableSet.AddressSet storage set = supportedTokenTypes;\n        IERC721[] memory tokens = new IERC721[](set.length());\n\n        for (uint256 i = 0; i < tokens.length; i++) {\n            tokens[i] = IERC721(set.at(i));\n        }\n        return tokens;\n    }\n\n    // Get # of stored items of player for NFT\n    function getNumberOfStoragedItems(\n        IERC721 _tokenAddress\n    ) public view returns (uint256) {\n        return getNumberOfStoragedItems(_tokenAddress, msg.sender);\n    }\n\n    function getNumberOfStoragedItems(\n        IERC721 _tokenAddress,\n        address playerAddress\n    ) public view returns (uint256) {\n        return storedItems[playerAddress][address(_tokenAddress)].length();\n    }\n\n    // Get stored items of player for NFT\n    function getStorageItemIds(\n        IERC721 _tokenAddress\n    ) public view  returns (uint256[] memory tokens) {\n\n        return getStorageItemIds(_tokenAddress, msg.sender);\n    }\n\n    function getStorageItemIds(\n        IERC721 _tokenAddress,\n        address playerAddress\n    ) public view  returns (uint256[] memory tokens) {\n\n        uint256 amount = getNumberOfStoragedItems(_tokenAddress, playerAddress);\n        tokens = new uint256[](amount);\n\n        EnumerableSet.UintSet storage storedTokens = storedItems[playerAddress][address(_tokenAddress)];\n\n        for (uint256 i = 0; i < storedTokens.length(); i++) {\n            uint256 id = storedTokens.at(i);\n                tokens[i] = id;\n        }\n    }\n\n    // Player adds NFT to storage\n    function storeItem(\n        IERC721 _tokenAddress,\n        uint256 _id\n    )\n        public\n        tokenNotBanned(_tokenAddress)\n        isNotStored(_tokenAddress, _id)\n        canStore()\n    {\n        storedItems[msg.sender][address(_tokenAddress)].add(_id);\n        allStoredItems[address(_tokenAddress)].add(_id);\n        storedItemsOwners[address(_tokenAddress)][_id] = msg.sender;\n\n        _tokenAddress.safeTransferFrom(msg.sender, address(this), _id);\n\n        emit NFTStored(msg.sender, _tokenAddress, _id);\n    }\n\n    // Player withdraws NFT from storage.\n    function withdrawFromStorage(IERC721 _tokenAddress, uint256 _id)\n        public\n        isStored(_tokenAddress, _id)\n        isOwner(_tokenAddress, _id)\n        notBridged(_tokenAddress, _id)\n        payable\n    {\n        if(isNftBridged[address(_tokenAddress)][_id]) {\n            require(msg.value == withdrawFromStorageNativeFee[address(_tokenAddress)], 'Bad fee amount');\n            delete isNftBridged[address(_tokenAddress)][_id];\n            if(address(_tokenAddress) == address(characters) && giveawayGen2Enabled && characters.getNftVar(_id, NFTVAR_NON_GENESIS_VERSION) == 0 && !promos.getBit(msg.sender, BIT_FIRST_CHARACTER)) {\n                uint256 seed = uint256(keccak256(abi.encodePacked(now, msg.sender)));\n                characters.mint(msg.sender, seed);\n            }\n        }\n\n        storedItems[msg.sender][address(_tokenAddress)].remove(_id);\n        allStoredItems[address(_tokenAddress)].remove(_id);\n        delete storedItemsOwners[address(_tokenAddress)][_id];\n\n        _tokenAddress.safeTransferFrom(address(this), msg.sender, _id);\n\n        emit NFTWithdrawn(msg.sender, _tokenAddress, _id);\n    }\n\n    function allowToken(IERC721 _tokenAddress) public restricted {\n        supportedTokenTypes.add(address(_tokenAddress));\n    }\n\n    function disallowToken(IERC721 _tokenAddress) public restricted {\n        supportedTokenTypes.remove(address(_tokenAddress));\n    }\n\n    // something\n    function onERC721Received(\n        address, /* operator */\n        address, /* from */\n        uint256 _id,\n        bytes calldata /* data */\n    ) external override returns (bytes4) {\n        // NOTE: The contract address is always the message sender.\n        address _tokenAddress = msg.sender;\n\n        require(\n            supportedTokenTypes.contains(_tokenAddress) &&\n                allStoredItems[_tokenAddress].contains(_id),\n            \"Token ID not listed\"\n        );\n\n        return IERC721ReceiverUpgradeable.onERC721Received.selector;\n    }\n\n\n    function storageIsEnabled() public view returns (bool) {\n        return storageEnabled;\n    }\n\n    function setStorageEnabled(bool enabled) public restricted {\n        storageEnabled = enabled;\n    }\n\n    // bridge stuff\n    function chainBridgeEnabled(uint256 chainId) public view returns (bool) {\n        return _bridgeEnabled[chainId];\n    }\n\n    function getEnabledChainsForBridging() public view  returns (uint256[] memory chainIds) {\n        uint256 amount = _supportedChains.length();\n        chainIds = new uint256[](amount);\n\n        for (uint256 i = 0; i < amount; i++) {\n            uint256 id = _supportedChains.at(i);\n                chainIds[i] = id;\n        }\n    }\n\n\n    function toggleChainBridgeEnabled(uint256 chainId, string memory prefix, bool enable) public restricted {\n        _bridgeEnabled[chainId] = enable;\n        _chainPrefix[chainId] = prefix;\n\n        if(enable) {\n            _supportedChains.add(chainId);\n        } else {\n            _supportedChains.remove(chainId);\n        }\n    }\n\n    // Player requests to bridge an item\n    function bridgeItem(\n        IERC721 _tokenAddress,\n        uint256 _id,\n        uint256 targetChain\n    )\n        public\n        payable\n        tokenNotBanned(_tokenAddress)\n        isStored(_tokenAddress, _id)\n        isOwner(_tokenAddress, _id) // isStored built in but why not\n        bridgeSupported(_tokenAddress, _id, targetChain)\n        bridgeEnabled(targetChain)\n        noPendingBridge()\n        canStore()\n    {\n        require(msg.value == requestBridgeNativeFee[address(_tokenAddress)], 'Bad fee amount');\n        game.payContractTokenOnly(msg.sender, _bridgeFee);\n        transferOuts[++_transfersOutCount] = TransferOut(msg.sender, address(_tokenAddress), block.number, 0, _id, targetChain, 1);\n        transferOutOfPlayers[msg.sender] = _transfersOutCount;\n        transferOutOfNFTs[address(_tokenAddress)][_id] = _transfersOutCount;\n\n        // Set the chainid if none is set already\n        // Not set => this is a local mint that was not bridged in\n        // Set it to LocalPrefixMintId (Example BSC123, HECO456)\n        if(bytes(nftChainIds[address(_tokenAddress)][_id]).length == 0){\n            string memory chainId = buildChainId(_id);\n            nftChainIds[address(_tokenAddress)][_id] = chainId;\n            nftChainIdsToMintId[address(_tokenAddress)][chainId] = _id;\n        }\n\n        emit NFTTransferOutRequest(msg.sender, _tokenAddress, _id);\n    }\n\n    // Player cancels bridge request. Can only happen if it's pending.\n    function cancelBridge() public\n    {\n        TransferOut storage transferOut = transferOuts[transferOutOfPlayers[msg.sender]];\n\n        require(transferOut.status == TRANSFER_OUT_STATUS_PENDING, 'no pending bridge');\n        transferOut.status = TRANSFER_OUT_STATUS_NONE;\n        transferOut.lastUpdateBlock = block.number;\n\n        emit NFTTransferOutCanceled(msg.sender);\n    }\n\n    // Player received NFTs waiting to be converted to NFTs\n    function getReceivedNFTs() public view  returns (uint256[] memory tokens) {\n        uint256 amount = receivedNFTs[msg.sender].length();\n        tokens = new uint256[](amount);\n\n        EnumerableSet.UintSet storage storedTokens = receivedNFTs[msg.sender];\n\n        for (uint256 i = 0; i < storedTokens.length(); i++) {\n            uint256 id = storedTokens.at(i);\n                tokens[i] = id;\n        }\n    }\n\n    function getReceivedNFT(uint256 receivedNFT) public view  returns (address, uint8, uint256, uint256, uint8, uint256) {\n        TransferIn storage transferIn = transferIns[receivedNFT];\n        return (transferIn.owner, transferIn.nftType, transferIn.sourceChain, transferIn.sourceId, transferIn.status, transferInsMeta[receivedNFT]);\n    }\n\n    function getNFTChainId(address nftAddress, uint256 nftId) public view returns (string memory chainId) {\n        chainId = nftChainIds[nftAddress][nftId];\n    }\n\n    function getNFTFromChainId(string calldata chainid, address nftAddress) external view returns (uint256 tokenId) {\n        tokenId = nftChainIdsToMintId[nftAddress][chainid];\n    }\n\n    function setNFTChainId(address nftAddress, uint256 nftId, string calldata chainId, bool forced) external gameAdminRestricted {\n        require(forced || (bytes(nftChainIds[nftAddress][nftId]).length == 0 && nftChainIdsToMintId[nftAddress][chainId] == 0), \"NA\");\n        nftChainIds[nftAddress][nftId] = chainId;\n        nftChainIdsToMintId[nftAddress][chainId] = nftId;\n    }\n\n    function setLocalChainPrefix(string calldata prefix) external restricted {\n        _localChainPrefix = prefix;\n    }\n\n    function getLocalChainPrefix() public view returns (string memory) {\n        return _localChainPrefix;\n    }\n\n    function setBridgeFee(uint256 newFee) external restricted {\n        _bridgeFee = newFee;\n    }\n\n     function getBridgeFee() public view returns (uint256){\n        return _bridgeFee;\n    }\n\n    // Bot stuff\n    function botEnabled() public view returns (bool) {\n        return _botEnabled;\n    }\n\n    function toggleBotEnabled(bool enable) public restricted {\n        _botEnabled = enable;\n    }\n\n    function getBridgeTransferAt() public view returns (uint256) {\n        return _transfersOutAt;\n    }\n\n    function setBridgeTransferAt(uint256 transfersOutAt) public gameAdminRestricted {\n        _transfersOutAt = transfersOutAt;\n    }\n\n    function getBridgeTransfers() public view returns (uint256) {\n        return _transfersOutCount;\n    }\n\n    // Transfer request of a player if any (only active one). Not bot... will move up\n    function getBridgeTransfer() public view returns (uint256) {\n        return getBridgeTransferOfPlayer(msg.sender);\n    }\n\n     function getBridgeTransferOfPlayer(address player) public view returns (uint256) {\n        return transferOutOfPlayers[player];\n    }\n\n    function getBridgeTransfer(uint256 bridgeTransferId) public view returns (address, address, uint256, uint256, uint256, uint256, uint8) {\n        TransferOut storage transferOut = transferOuts[bridgeTransferId];\n        return (transferOut.owner,\n                transferOut.nftAddress,\n                transferOut.nftId,\n                transferOut.requestBlock,\n                transferOut.lastUpdateBlock,\n                transferOut.chainId,\n                transferOut.status);\n    }\n\n    // Bot to update status of a transfer request (this chain => outside chain)\n    function updateBridgeTransferStatus(uint256 bridgeTransferId, uint8 status, bool forced) public gameAdminRestricted {\n        TransferOut storage transferOut = transferOuts[bridgeTransferId];\n        require(forced ||\n        (transferOut.status == TRANSFER_OUT_STATUS_PENDING && status == TRANSFER_OUT_STATUS_PROCESSING)\n        || (transferOut.status == TRANSFER_OUT_STATUS_PROCESSING && status == TRANSFER_OUT_STATUS_DONE)\n        || status == TRANSFER_OUT_STATUS_ERROR, 'ISC');\n        transferOut.status = status;\n        transferOut.lastUpdateBlock = block.number;\n\n        if(status == TRANSFER_OUT_STATUS_DONE) {\n            transferOut = transferOuts[bridgeTransferId];\n            storedItems[transferOut.owner][transferOut.nftAddress].remove(transferOut.nftId);\n            allStoredItems[transferOut.nftAddress].remove(transferOut.nftId);\n            delete storedItemsOwners[transferOut.nftAddress][transferOut.nftId];\n        }\n\n        emit NFTTransferUpdate(bridgeTransferId, status, forced);\n    }\n\n    // To know if it actually made it\n    function getTransferInFromLog(uint256 sourceChain, uint8 nftType, uint256 sourceId) public view returns (uint256) {\n        return  _transferInsLog[sourceChain][nftType][sourceId];\n    }\n\n    // mint 0 wont be supported in bridging => if != 0 => it got here => transfer was made\n     function getTransferInFromLogV2(uint256 sourceChain, uint256 sourceTransferId) public view returns (uint256) {\n        return bot2p0Log[sourceChain][sourceTransferId];\n    }\n\n    function collectNFTData(address nftAddress, uint256 tokenId) external view returns (uint256[] memory uintVars, string memory stringVar) {\n        return IBridgeProxy(nftProxyContract[nftAddress]).collectData(tokenId);\n    }\n\n    function mintOrUpdate(address receiver, uint256 sourceChain, uint256 sourceTransfer, address nftAddress, string calldata chainId, uint256[] calldata uintVars, string calldata stringVar) external gameAdminRestricted {\n        require(bot2p0Log[sourceChain][sourceTransfer] == 0, \"NA\");\n        uint256 mintedId = nftChainIdsToMintId[nftAddress][chainId];\n\n        mintedId = IBridgeProxy(nftProxyContract[nftAddress]).mintOrUpdate(receiver, mintedId, uintVars, stringVar);\n\n        // Whether minted or updated, the bridge owns the NFT\n        require(IERC721(nftAddress).ownerOf(mintedId) == address(this), \"NA2\");\n        _logMintOrUpdate(sourceChain, sourceTransfer, nftAddress, mintedId, chainId);\n        _attachToWallet(receiver, nftAddress, mintedId);\n        isNftBridged[nftAddress][mintedId] = true;\n    }\n\n    function _logMintOrUpdate(uint256 sourceChain, uint256 sourceTransfer, address nftAddress, uint256 tokenId, string memory chainId) internal {\n        bot2p0Log[sourceChain][sourceTransfer] = tokenId;\n        nftChainIds[nftAddress][tokenId] = chainId;\n        nftChainIdsToMintId[nftAddress][chainId] = tokenId;\n    }\n\n    function _attachToWallet(address owner, address nftAddress, uint256 tokenId) internal {\n        // Not already attached\n        require(storedItemsOwners[nftAddress][tokenId] == address(0), \"NA3\");\n        \n        if(!allStoredItems[nftAddress].contains(tokenId)) {\n            allStoredItems[nftAddress].add(tokenId);\n        }\n        \n        storedItemsOwners[nftAddress][tokenId] = owner;\n        storedItems[owner][nftAddress].add(tokenId);\n\n        if(transferOuts[transferOutOfNFTs[nftAddress][tokenId]].status == TRANSFER_OUT_STATUS_DONE) {\n            transferOuts[transferOutOfNFTs[nftAddress][tokenId]].status = TRANSFER_OUT_STATUS_RESTORED;\n        }\n    }\n\n    function setProxyContract(address nft, address proxy, bool forced) external restricted {\n        require(forced || nftProxyContract[nft] == address(0), \"NA\");\n        nftProxyContract[nft] = proxy;\n    }\n\n    function getProxyContract(address nft) public view returns (address) {\n        return nftProxyContract[nft];\n    }\n\n    function setChainSupportedForNFT(address nft, uint256[] calldata chainIds, bool support) external restricted {\n        for (uint256 i = 0; i < chainIds.length; i++) {\n            uint256 chainId = chainIds[i];\n            if(support) {\n                require(!nftAllowedChains[nft].contains(chainId), \"NA\");\n                nftAllowedChains[nft].add(chainId);\n                targetChainAllowedNFTs[chainId].add(nft);\n            } else {\n                require(nftAllowedChains[nft].contains(chainId), \"NA2\");\n                nftAllowedChains[nft].remove(chainId);\n                targetChainAllowedNFTs[chainId].remove(nft);\n            }\n        }\n    }\n\n    function setWithdrawFromStorageNativeFee(address nftAddress, uint256 newFee) external restricted {\n        withdrawFromStorageNativeFee[nftAddress] = newFee;\n    }\n\n    function setGiveawayGen2Enabled(bool _enabled) external restricted {\n        giveawayGen2Enabled = _enabled;\n    }\n\n    function setRequestBridgeNativeFee(address nftAddress, uint256 newFee) external restricted {\n        requestBridgeNativeFee[nftAddress] = newFee;\n    }\n\n    function recoverFees(address receiver, uint256 amount) external gameAdminRestricted {\n        payable(receiver).transfer(amount);\n    }\n\n    function getChainsSupportingNFT(address nft) public view returns (uint256[] memory chains) {\n        chains = new uint256[](nftAllowedChains[nft].length());\n\n        for (uint256 i = 0; i < nftAllowedChains[nft].length(); i++) {\n            uint256 id = nftAllowedChains[nft].at(i);\n                chains[i] = id;\n        }\n    }\n\n    function getNFTsSupportedByChain(uint256 chain) public view returns (address[] memory nfts) {\n        nfts = new address[](targetChainAllowedNFTs[chain].length());\n\n        for (uint256 i = 0; i < targetChainAllowedNFTs[chain].length(); i++) {\n            address nft = targetChainAllowedNFTs[chain].at(i);\n                nfts[i] = nft;\n        }\n    }\n\n    function unpackCharactersData(uint256 metaData) public pure returns (uint32 appliedCosmetic, uint16 xp, uint8 level, uint8 trait, uint24 bonusPower, uint16 reputation) {\n        trait = uint8((metaData) & 0xFF);\n        level = uint8((metaData >> 8) & 0xFF);\n        xp = uint16(metaData  >> 16 & 0xFFFF);\n        appliedCosmetic = uint32((metaData >> 32) & 0xFFFFFFFF);\n        bonusPower = uint24((metaData >> 64) & 0xFFFFFF);\n        reputation = uint16((metaData >> 88) & 0xFFFF);\n    }\n\n    function buildChainId(uint256 sourceId) internal view returns (string memory) {\n        return string(abi.encodePacked(_localChainPrefix, uint2str(sourceId)));\n    }\n\n    function uint2str(uint i) internal pure returns (string memory) {\n        if (i == 0) return \"0\";\n        uint j = i;\n        uint length;\n        while (j != 0) {\n            length++;\n            j /= 10;\n        }\n        bytes memory bstr = new bytes(length);\n        uint k = length - 1;\n        while (i != 0) {\n            bstr[k--] = byte(uint8(48 + i % 10));\n            i /= 10;\n        }\n        return string(bstr);\n    }\n}\n",
  "sourcePath": "/mnt/e/work/cryptoblades/contracts/NFTStorage.sol",
  "compiler": {
    "name": "solc",
    "version": "0.6.5+commit.f956cc89.Emscripten.clang"
  },
  "schemaVersion": "3.3.4",
  "updatedAt": "2023-01-24T17:45:31.507Z",
  "devdoc": {
    "methods": {
      "getRoleAdmin(bytes32)": {
        "details": "Returns the admin role that controls `role`. See {grantRole} and {revokeRole}.     * To change a role's admin, use {_setRoleAdmin}."
      },
      "getRoleMember(bytes32,uint256)": {
        "details": "Returns one of the accounts that have `role`. `index` must be a value between 0 and {getRoleMemberCount}, non-inclusive.     * Role bearers are not sorted in any particular way, and their ordering may change at any point.     * WARNING: When using {getRoleMember} and {getRoleMemberCount}, make sure you perform all queries on the same block. See the following https://forum.openzeppelin.com/t/iterating-over-elements-on-enumerableset-in-openzeppelin-contracts/2296[forum post] for more information."
      },
      "getRoleMemberCount(bytes32)": {
        "details": "Returns the number of accounts that have `role`. Can be used together with {getRoleMember} to enumerate all bearers of a role."
      },
      "grantRole(bytes32,address)": {
        "details": "Grants `role` to `account`.     * If `account` had not been already granted `role`, emits a {RoleGranted} event.     * Requirements:     * - the caller must have ``role``'s admin role."
      },
      "hasRole(bytes32,address)": {
        "details": "Returns `true` if `account` has been granted `role`."
      },
      "renounceRole(bytes32,address)": {
        "details": "Revokes `role` from the calling account.     * Roles are often managed via {grantRole} and {revokeRole}: this function's purpose is to provide a mechanism for accounts to lose their privileges if they are compromised (such as when a trusted device is misplaced).     * If the calling account had been granted `role`, emits a {RoleRevoked} event.     * Requirements:     * - the caller must be `account`."
      },
      "revokeRole(bytes32,address)": {
        "details": "Revokes `role` from `account`.     * If `account` had been granted `role`, emits a {RoleRevoked} event.     * Requirements:     * - the caller must have ``role``'s admin role."
      }
    }
  },
  "userdoc": {
    "methods": {}
  }
}