{
  "contractName": "PartnerVault",
  "abi": [
    {
      "anonymous": false,
      "inputs": [
        {
          "indexed": true,
          "internalType": "bytes32",
          "name": "role",
          "type": "bytes32"
        },
        {
          "indexed": true,
          "internalType": "bytes32",
          "name": "previousAdminRole",
          "type": "bytes32"
        },
        {
          "indexed": true,
          "internalType": "bytes32",
          "name": "newAdminRole",
          "type": "bytes32"
        }
      ],
      "name": "RoleAdminChanged",
      "type": "event"
    },
    {
      "anonymous": false,
      "inputs": [
        {
          "indexed": true,
          "internalType": "bytes32",
          "name": "role",
          "type": "bytes32"
        },
        {
          "indexed": true,
          "internalType": "address",
          "name": "account",
          "type": "address"
        },
        {
          "indexed": true,
          "internalType": "address",
          "name": "sender",
          "type": "address"
        }
      ],
      "name": "RoleGranted",
      "type": "event"
    },
    {
      "anonymous": false,
      "inputs": [
        {
          "indexed": true,
          "internalType": "bytes32",
          "name": "role",
          "type": "bytes32"
        },
        {
          "indexed": true,
          "internalType": "address",
          "name": "account",
          "type": "address"
        },
        {
          "indexed": true,
          "internalType": "address",
          "name": "sender",
          "type": "address"
        }
      ],
      "name": "RoleRevoked",
      "type": "event"
    },
    {
      "inputs": [],
      "name": "DEFAULT_ADMIN_ROLE",
      "outputs": [
        {
          "internalType": "bytes32",
          "name": "",
          "type": "bytes32"
        }
      ],
      "stateMutability": "view",
      "type": "function"
    },
    {
      "inputs": [],
      "name": "GAME_ADMIN",
      "outputs": [
        {
          "internalType": "bytes32",
          "name": "",
          "type": "bytes32"
        }
      ],
      "stateMutability": "view",
      "type": "function"
    },
    {
      "inputs": [
        {
          "internalType": "address",
          "name": "",
          "type": "address"
        }
      ],
      "name": "currencies",
      "outputs": [
        {
          "internalType": "uint256",
          "name": "",
          "type": "uint256"
        }
      ],
      "stateMutability": "view",
      "type": "function"
    },
    {
      "inputs": [
        {
          "internalType": "bytes32",
          "name": "role",
          "type": "bytes32"
        }
      ],
      "name": "getRoleAdmin",
      "outputs": [
        {
          "internalType": "bytes32",
          "name": "",
          "type": "bytes32"
        }
      ],
      "stateMutability": "view",
      "type": "function"
    },
    {
      "inputs": [
        {
          "internalType": "bytes32",
          "name": "role",
          "type": "bytes32"
        },
        {
          "internalType": "uint256",
          "name": "index",
          "type": "uint256"
        }
      ],
      "name": "getRoleMember",
      "outputs": [
        {
          "internalType": "address",
          "name": "",
          "type": "address"
        }
      ],
      "stateMutability": "view",
      "type": "function"
    },
    {
      "inputs": [
        {
          "internalType": "bytes32",
          "name": "role",
          "type": "bytes32"
        }
      ],
      "name": "getRoleMemberCount",
      "outputs": [
        {
          "internalType": "uint256",
          "name": "",
          "type": "uint256"
        }
      ],
      "stateMutability": "view",
      "type": "function"
    },
    {
      "inputs": [
        {
          "internalType": "bytes32",
          "name": "role",
          "type": "bytes32"
        },
        {
          "internalType": "address",
          "name": "account",
          "type": "address"
        }
      ],
      "name": "grantRole",
      "outputs": [],
      "stateMutability": "nonpayable",
      "type": "function"
    },
    {
      "inputs": [
        {
          "internalType": "bytes32",
          "name": "role",
          "type": "bytes32"
        },
        {
          "internalType": "address",
          "name": "account",
          "type": "address"
        }
      ],
      "name": "hasRole",
      "outputs": [
        {
          "internalType": "bool",
          "name": "",
          "type": "bool"
        }
      ],
      "stateMutability": "view",
      "type": "function"
    },
    {
      "inputs": [
        {
          "internalType": "address",
          "name": "",
          "type": "address"
        },
        {
          "internalType": "uint256",
          "name": "",
          "type": "uint256"
        }
      ],
      "name": "nfts",
      "outputs": [
        {
          "internalType": "uint256",
          "name": "",
          "type": "uint256"
        }
      ],
      "stateMutability": "view",
      "type": "function"
    },
    {
      "inputs": [
        {
          "internalType": "bytes32",
          "name": "role",
          "type": "bytes32"
        },
        {
          "internalType": "address",
          "name": "account",
          "type": "address"
        }
      ],
      "name": "renounceRole",
      "outputs": [],
      "stateMutability": "nonpayable",
      "type": "function"
    },
    {
      "inputs": [
        {
          "internalType": "bytes32",
          "name": "role",
          "type": "bytes32"
        },
        {
          "internalType": "address",
          "name": "account",
          "type": "address"
        }
      ],
      "name": "revokeRole",
      "outputs": [],
      "stateMutability": "nonpayable",
      "type": "function"
    },
    {
      "inputs": [],
      "name": "initialize",
      "outputs": [],
      "stateMutability": "nonpayable",
      "type": "function"
    },
    {
      "inputs": [
        {
          "internalType": "address",
          "name": "",
          "type": "address"
        },
        {
          "internalType": "address",
          "name": "",
          "type": "address"
        },
        {
          "internalType": "uint256",
          "name": "_id",
          "type": "uint256"
        },
        {
          "internalType": "bytes",
          "name": "",
          "type": "bytes"
        }
      ],
      "name": "onERC721Received",
      "outputs": [
        {
          "internalType": "bytes4",
          "name": "",
          "type": "bytes4"
        }
      ],
      "stateMutability": "nonpayable",
      "type": "function"
    },
    {
      "inputs": [
        {
          "internalType": "contract IERC721",
          "name": "tokenAddress",
          "type": "address"
        },
        {
          "internalType": "uint256[]",
          "name": "tokenIds",
          "type": "uint256[]"
        }
      ],
      "name": "storeNfts",
      "outputs": [],
      "stateMutability": "nonpayable",
      "type": "function"
    },
    {
      "inputs": [
        {
          "internalType": "contract IERC721",
          "name": "tokenAddress",
          "type": "address"
        },
        {
          "internalType": "uint256",
          "name": "startId",
          "type": "uint256"
        },
        {
          "internalType": "uint256",
          "name": "endId",
          "type": "uint256"
        }
      ],
      "name": "recordNfts",
      "outputs": [],
      "stateMutability": "nonpayable",
      "type": "function"
    },
    {
      "inputs": [
        {
          "internalType": "contract IERC721",
          "name": "tokenAddress",
          "type": "address"
        },
        {
          "internalType": "uint256[]",
          "name": "tokenIds",
          "type": "uint256[]"
        },
        {
          "internalType": "address",
          "name": "holder",
          "type": "address"
        },
        {
          "internalType": "uint256",
          "name": "questId",
          "type": "uint256"
        }
      ],
      "name": "showHeldNfts",
      "outputs": [],
      "stateMutability": "nonpayable",
      "type": "function"
    },
    {
      "inputs": [
        {
          "internalType": "contract IERC20",
          "name": "tokenAddress",
          "type": "address"
        },
        {
          "internalType": "uint256",
          "name": "amount",
          "type": "uint256"
        }
      ],
      "name": "storeCurrency",
      "outputs": [],
      "stateMutability": "nonpayable",
      "type": "function"
    },
    {
      "inputs": [
        {
          "internalType": "address",
          "name": "tokenAddress",
          "type": "address"
        },
        {
          "internalType": "address",
          "name": "to",
          "type": "address"
        },
        {
          "internalType": "uint256",
          "name": "amount",
          "type": "uint256"
        },
        {
          "internalType": "uint256",
          "name": "seed",
          "type": "uint256"
        }
      ],
      "name": "transferReward",
      "outputs": [],
      "stateMutability": "nonpayable",
      "type": "function"
    },
    {
      "inputs": [
        {
          "internalType": "address",
          "name": "tokenAddress",
          "type": "address"
        }
      ],
      "name": "getNftsInVault",
      "outputs": [
        {
          "internalType": "uint256[]",
          "name": "",
          "type": "uint256[]"
        }
      ],
      "stateMutability": "view",
      "type": "function"
    },
    {
      "inputs": [
        {
          "internalType": "address",
          "name": "tokenAddress",
          "type": "address"
        },
        {
          "internalType": "uint256",
          "name": "questId",
          "type": "uint256"
        },
        {
          "internalType": "uint256[]",
          "name": "tokenIds",
          "type": "uint256[]"
        }
      ],
      "name": "haveNftsBeenShown",
      "outputs": [
        {
          "internalType": "bool[]",
          "name": "result",
          "type": "bool[]"
        }
      ],
      "stateMutability": "view",
      "type": "function"
    }
  ],
  "bytecode": "0x608060405234801561001057600080fd5b50611b72806100206000396000f3fe608060405234801561001057600080fd5b506004361061012c5760003560e01c80638129fc1c116100ad578063a217fddf11610071578063a217fddf146105af578063bd34a9cc146105b7578063ca15c873146105e3578063d547741f14610600578063d6562dc41461062c5761012c565b80638129fc1c1461048457806383169caf1461048c5780639010d07c146104b257806391d14854146104f15780639d997fb4146105315761012c565b806340b4180f116100f457806340b4180f1461036b57806343af356b146103f85780635504d3d2146104245780636036cba31461042c57806367319dd8146104525761012c565b80630297b9e314610131578063150b7a0214610237578063248a9ca3146102e25780632f2ff15d1461031157806336568abe1461033f575b600080fd5b6101e76004803603606081101561014757600080fd5b6001600160a01b0382351691602081013591810190606081016040820135600160201b81111561017657600080fd5b82018360208201111561018857600080fd5b803590602001918460208302840111600160201b831117156101a957600080fd5b919080806020026020016040519081016040528093929190818152602001838360200280828437600092019190915250929550610668945050505050565b60408051602080825283518183015283519192839290830191858101910280838360005b8381101561022357818101518382015260200161020b565b505050509050019250505060405180910390f35b6102c56004803603608081101561024d57600080fd5b6001600160a01b03823581169260208101359091169160408201359190810190608081016060820135600160201b81111561028757600080fd5b82018360208201111561029957600080fd5b803590602001918460018302840111600160201b831117156102ba57600080fd5b509092509050610730565b604080516001600160e01b03199092168252519081900360200190f35b6102ff600480360360208110156102f857600080fd5b5035610741565b60408051918252519081900360200190f35b61033d6004803603604081101561032757600080fd5b50803590602001356001600160a01b0316610756565b005b61033d6004803603604081101561035557600080fd5b50803590602001356001600160a01b03166107c2565b61033d6004803603608081101561038157600080fd5b6001600160a01b038235169190810190604081016020820135600160201b8111156103ab57600080fd5b8201836020820111156103bd57600080fd5b803590602001918460208302840111600160201b831117156103de57600080fd5b91935091506001600160a01b038135169060200135610823565b6102ff6004803603604081101561040e57600080fd5b506001600160a01b038135169060200135610a47565b6102ff610a75565b6102ff6004803603602081101561044257600080fd5b50356001600160a01b0316610a97565b61033d6004803603606081101561046857600080fd5b506001600160a01b038135169060208101359060400135610aa9565b61033d610b46565b6101e7600480360360208110156104a257600080fd5b50356001600160a01b0316610c24565b6104d5600480360360408110156104c857600080fd5b5080359060200135610c90565b604080516001600160a01b039092168252519081900360200190f35b61051d6004803603604081101561050757600080fd5b50803590602001356001600160a01b0316610cb7565b604080519115158252519081900360200190f35b61033d6004803603604081101561054757600080fd5b6001600160a01b038235169190810190604081016020820135600160201b81111561057157600080fd5b82018360208201111561058357600080fd5b803590602001918460208302840111600160201b831117156105a457600080fd5b509092509050610cd5565b6102ff610e2b565b61033d600480360360408110156105cd57600080fd5b506001600160a01b038135169060200135610e30565b6102ff600480360360208110156105f957600080fd5b5035610f02565b61033d6004803603604081101561061657600080fd5b50803590602001356001600160a01b0316610f19565b61033d6004803603608081101561064257600080fd5b506001600160a01b03813581169160208101359091169060408101359060600135610f72565b6060815167ffffffffffffffff8111801561068257600080fd5b506040519080825280602002602001820160405280156106ac578160200160208202803683370190505b50905060005b8251811015610728576107048382815181106106ca57fe5b6020908102919091018101516001600160a01b0388166000908152606883526040808220898352909352919091209063ffffffff6111ef16565b82828151811061071057fe5b911515602092830291909101909101526001016106b2565b509392505050565b630a85bd0160e11b95945050505050565b60009081526033602052604090206002015490565b600082815260336020526040902060020154610779906107746111fb565b610cb7565b6107b45760405162461bcd60e51b815260040180806020018281038252602f815260200180611a81602f913960400191505060405180910390fd5b6107be82826111ff565b5050565b6107ca6111fb565b6001600160a01b0316816001600160a01b0316146108195760405162461bcd60e51b815260040180806020018281038252602f815260200180611b0e602f913960400191505060405180910390fd5b6107be828261126e565b61082b6112dd565b8461083d816380ac58cd60e01b61133e565b61087c576040805162461bcd60e51b815260206004820152600b60248201526a4e6f74204945524337323160a81b604482015290519081900360640190fd5b60005b84811015610a3e57836001600160a01b0316876001600160a01b0316636352211e8888858181106108ac57fe5b905060200201356040518263ffffffff1660e01b81526004018082815260200191505060206040518083038186803b1580156108e757600080fd5b505afa1580156108fb573d6000803e3d6000fd5b505050506040513d602081101561091157600080fd5b50516001600160a01b03161461095b576040805162461bcd60e51b815260206004820152600a6024820152692737ba103437b63232b960b11b604482015290519081900360640190fd5b61099f86868381811061096a57fe5b6001600160a01b038b1660009081526068602090815260408083208a845282529091209391020135905063ffffffff6111ef16565b156109f1576040805162461bcd60e51b815260206004820181905260248201527f4e465420616c72656164792073686f776e20666f722074686973207175657374604482015290519081900360640190fd5b610a35868683818110610a0057fe5b6001600160a01b038b1660009081526068602090815260408083208a845282529091209391020135905063ffffffff61135a16565b5060010161087f565b50505050505050565b60656020528160005260406000208181548110610a6057fe5b90600052602060002001600091509150505481565b604080516923a0a6a2afa0a226a4a760b11b8152905190819003600a01902081565b60666020526000908152604090205481565b610ab16112dd565b82610ac3816380ac58cd60e01b61133e565b610b02576040805162461bcd60e51b815260206004820152600b60248201526a4e6f74204945524337323160a81b604482015290519081900360640190fd5b825b828111610b3f576001600160a01b03851660009081526065602090815260408220805460018181018355918452919092200182905501610b04565b5050505050565b600054610100900460ff1680610b5f5750610b5f611366565b80610b6d575060005460ff16155b610ba85760405162461bcd60e51b815260040180806020018281038252602e815260200180611ae0602e913960400191505060405180910390fd5b600054610100900460ff16158015610bd3576000805460ff1961ff0019909116610100171660011790555b610bdb611377565b610be66000336107b4565b604080516923a0a6a2afa0a226a4a760b11b8152905190819003600a019020610c0f90336107b4565b8015610c21576000805461ff00191690555b50565b6001600160a01b038116600090815260656020908152604091829020805483518184028101840190945280845260609392830182828015610c8457602002820191906000526020600020905b815481526020019060010190808311610c70575b50505050509050919050565b6000828152603360205260408120610cae908363ffffffff61141716565b90505b92915050565b6000828152603360205260408120610cae908363ffffffff61142316565b610cdd6112dd565b82610cef816380ac58cd60e01b61133e565b610d2e576040805162461bcd60e51b815260206004820152600b60248201526a4e6f74204945524337323160a81b604482015290519081900360640190fd5b60005b82811015610b3f57846001600160a01b03166342842e0e3230878786818110610d5657fe5b905060200201356040518463ffffffff1660e01b815260040180846001600160a01b03166001600160a01b03168152602001836001600160a01b03166001600160a01b031681526020018281526020019350505050600060405180830381600087803b158015610dc557600080fd5b505af1158015610dd9573d6000803e3d6000fd5b505050506001600160a01b0385166000908152606560205260409020848483818110610e0157fe5b83546001808201865560009586526020958690209290950293909301359201919091555001610d31565b600081565b610e386112dd565b604080516323b872dd60e01b81523260048201523060248201526044810183905290516001600160a01b038416916323b872dd9160648083019260209291908290030181600087803b158015610e8d57600080fd5b505af1158015610ea1573d6000803e3d6000fd5b505050506040513d6020811015610eb757600080fd5b50506001600160a01b038216600090815260666020526040902054610ee2908263ffffffff61143816565b6001600160a01b0390921660009081526066602052604090209190915550565b6000818152603360205260408120610cb190611492565b600082815260336020526040902060020154610f37906107746111fb565b6108195760405162461bcd60e51b8152600401808060200182810382526030815260200180611ab06030913960400191505060405180910390fd5b610f7a6112dd565b6001600160a01b03841660009081526065602052604090205482111580610fb957506001600160a01b0384166000908152606660205260409020548211155b61100a576040805162461bcd60e51b815260206004820152601b60248201527f4e6f7420656e6f756768204e465473206f722063757272656e63790000000000604482015290519081900360640190fd5b6001600160a01b03841660009081526066602052604090205482116110f0576040805163a9059cbb60e01b81526001600160a01b038581166004830152602482018590529151869283169163a9059cbb9160448083019260209291908290030181600087803b15801561107c57600080fd5b505af1158015611090573d6000803e3d6000fd5b505050506040513d60208110156110a657600080fd5b50506001600160a01b0385166000908152606660205260409020546110d1908463ffffffff61149d16565b6001600160a01b038616600090815260666020526040902055506111e9565b8360005b838110156111e6576001600160a01b03861660009081526065602052604081205461112590829060001901866114fa565b6001600160a01b0388166000908152606560205260408120805492935090918390811061114e57fe5b600091825260208220015460408051632142170760e11b81523060048201526001600160a01b038b81166024830152604482018490529151929450908716926342842e0e9260648084019382900301818387803b1580156111ae57600080fd5b505af11580156111c2573d6000803e3d6000fd5b505050506111d08483611570565b6111da858461167e565b945050506001016110f4565b50505b50505050565b6000610cae83836116aa565b3390565b600082815260336020526040902061121d908263ffffffff6116c216565b156107be5761122a6111fb565b6001600160a01b0316816001600160a01b0316837f2f8788117e7eff1d82e926ec794901d17c78024a50270940304540a733656f0d60405160405180910390a45050565b600082815260336020526040902061128c908263ffffffff6116d716565b156107be576112996111fb565b6001600160a01b0316816001600160a01b0316837ff6391f5c32d9c69d2a47ea670b442974b53935d1edc7fd64eb21e047a839171b60405160405180910390a45050565b604080516923a0a6a2afa0a226a4a760b11b8152905190819003600a0190206113069033610cb7565b61133c576040805162461bcd60e51b81526020600482015260026024820152614e4160f01b604482015290519081900360640190fd5b565b6000611349836116ec565b8015610cae5750610cae838361171f565b6000610cae8383611745565b60006113713061178f565b15905090565b600054610100900460ff16806113905750611390611366565b8061139e575060005460ff16155b6113d95760405162461bcd60e51b815260040180806020018281038252602e815260200180611ae0602e913960400191505060405180910390fd5b600054610100900460ff16158015610c0f576000805460ff1961ff0019909116610100171660011790558015610c21576000805461ff001916905550565b6000610cae8383611795565b6000610cae836001600160a01b0384166116aa565b600082820183811015610cae576040805162461bcd60e51b815260206004820152601b60248201527f536166654d6174683a206164646974696f6e206f766572666c6f770000000000604482015290519081900360640190fd5b6000610cb1826117f9565b6000828211156114f4576040805162461bcd60e51b815260206004820152601e60248201527f536166654d6174683a207375627472616374696f6e206f766572666c6f770000604482015290519081900360640190fd5b50900390565b60008061151e6001611512868863ffffffff61149d16565b9063ffffffff61143816565b6040805160208082018790528251808303820181529183019092528051910120909150600090611554908363ffffffff6117fd16565b9050611566818763ffffffff61143816565b9695505050505050565b6001600160a01b03821660009081526065602052604090205481106115d2576040805162461bcd60e51b8152602060048201526013602482015272496e646578206f7574206f6620626f756e647360681b604482015290519081900360640190fd5b6001600160a01b0382166000908152606560205260409020805460001981019081106115fa57fe5b906000526020600020015460656000846001600160a01b03166001600160a01b03168152602001908152602001600020828154811061163557fe5b60009182526020808320909101929092556001600160a01b038416815260659091526040902080548061166457fe5b600190038181906000526020600020016000905590555050565b604080516020808201949094528082019290925280518083038201815260609092019052805191012090565b60009081526001919091016020526040902054151590565b6000610cae836001600160a01b038416611745565b6000610cae836001600160a01b038416611864565b60006116ff826301ffc9a760e01b61171f565b8015610cb15750611718826001600160e01b031961171f565b1592915050565b600080600061172e858561192a565b9150915081801561173c5750805b95945050505050565b600061175183836116aa565b61178757508154600181810184556000848152602080822090930184905584548482528286019093526040902091909155610cb1565b506000610cb1565b3b151590565b815460009082106117d75760405162461bcd60e51b8152600401808060200182810382526022815260200180611a5f6022913960400191505060405180910390fd5b8260000182815481106117e657fe5b9060005260206000200154905092915050565b5490565b6000808211611853576040805162461bcd60e51b815260206004820152601860248201527f536166654d6174683a206d6f64756c6f206279207a65726f0000000000000000604482015290519081900360640190fd5b81838161185c57fe5b069392505050565b60008181526001830160205260408120548015611920578354600019808301919081019060009087908390811061189757fe5b90600052602060002001549050808760000184815481106118b457fe5b6000918252602080832090910192909255828152600189810190925260409020908401905586548790806118e457fe5b60019003818190600052602060002001600090559055866001016000878152602001908152602001600020600090556001945050505050610cb1565b6000915050610cb1565b604080516001600160e01b0319831660248083019190915282518083039091018152604490910182526020810180516001600160e01b03166301ffc9a760e01b1781529151815160009384939284926060926001600160a01b038a169261753092879282918083835b602083106119b25780518252601f199092019160209182019101611993565b6001836020036101000a0380198251168184511680821785525050505050509050019150506000604051808303818686fa925050503d8060008114611a13576040519150601f19603f3d011682016040523d82523d6000602084013e611a18565b606091505b5091509150602081511015611a365760008094509450505050611a57565b81818060200190516020811015611a4c57600080fd5b505190955093505050505b925092905056fe456e756d657261626c655365743a20696e646578206f7574206f6620626f756e6473416363657373436f6e74726f6c3a2073656e646572206d75737420626520616e2061646d696e20746f206772616e74416363657373436f6e74726f6c3a2073656e646572206d75737420626520616e2061646d696e20746f207265766f6b65496e697469616c697a61626c653a20636f6e747261637420697320616c726561647920696e697469616c697a6564416363657373436f6e74726f6c3a2063616e206f6e6c792072656e6f756e636520726f6c657320666f722073656c66a26469706673582212206706341796c30368c97f6bf320ca43cce219bc4ca1d3f3c3121b67b9ae4a434764736f6c63430006050033",
  "immutableReferences": {},
  "source": "pragma solidity ^0.6.0;\n\nimport \"@openzeppelin/contracts-upgradeable/proxy/Initializable.sol\";\nimport \"@openzeppelin/contracts-upgradeable/access/AccessControlUpgradeable.sol\";\nimport \"@openzeppelin/contracts-upgradeable/token/ERC721/IERC721ReceiverUpgradeable.sol\";\nimport \"@openzeppelin/contracts/introspection/ERC165Checker.sol\";\nimport \"@openzeppelin/contracts/token/ERC20/IERC20.sol\";\nimport \"@openzeppelin/contracts/token/ERC721/IERC721.sol\";\nimport \"@openzeppelin/contracts/utils/EnumerableSet.sol\";\nimport \"./util.sol\";\n\ncontract PartnerVault is Initializable, AccessControlUpgradeable, IERC721ReceiverUpgradeable {\n    using ABDKMath64x64 for int128;\n    using SafeMath for uint256;\n    using EnumerableSet for EnumerableSet.UintSet;\n\n    bytes4 private constant _INTERFACE_ID_ERC721 = 0x80ac58cd;\n\n    bytes32 public constant GAME_ADMIN = keccak256(\"GAME_ADMIN\");\n\n    mapping(address => uint256[]) public nfts;\n    mapping(address => uint256) public currencies;\n    mapping(address => EnumerableSet.UintSet) private shownNfts; // DEPRECATED\n    mapping(address => mapping(uint => EnumerableSet.UintSet)) private shownQuestNfts; // tokenAddress -> questId -> ID confirmed held by a user (private due to limitation)\n\n    function initialize() public initializer {\n        __AccessControl_init_unchained();\n        _setupRole(DEFAULT_ADMIN_ROLE, msg.sender);\n        _setupRole(GAME_ADMIN, msg.sender);\n    }\n\n    modifier restricted() {\n        _restricted();\n        _;\n    }\n\n    function _restricted() internal view {\n        require(hasRole(GAME_ADMIN, msg.sender), \"NA\");\n    }\n\n    modifier isValidERC721(IERC721 tokenAddress) {\n        require(ERC165Checker.supportsInterface(address(tokenAddress), _INTERFACE_ID_ERC721), \"Not IERC721\");\n        _;\n    }\n\n    function onERC721Received(address, address, uint256 _id, bytes calldata) external override returns (bytes4) {\n        return IERC721ReceiverUpgradeable.onERC721Received.selector;\n    }\n\n    // FUNCTIONS\n\n    function storeNfts(IERC721 tokenAddress, uint256[] calldata tokenIds) external restricted isValidERC721(tokenAddress) {\n        for (uint i = 0; i < tokenIds.length; i++) {\n            tokenAddress.safeTransferFrom(tx.origin, address(this), tokenIds[i]);\n            nfts[address(tokenAddress)].push(tokenIds[i]);\n        }\n    }\n\n    function recordNfts(IERC721 tokenAddress, uint256 startId, uint256 endId) external restricted isValidERC721(tokenAddress) {\n        for (uint i = startId; i <= endId; i++) {\n            nfts[address(tokenAddress)].push(i);\n        }\n    }\n\n    function showHeldNfts(IERC721 tokenAddress, uint256[] calldata tokenIds, address holder, uint questId) external restricted isValidERC721(tokenAddress) {\n        for (uint i = 0; i < tokenIds.length; i++) {\n            require(tokenAddress.ownerOf(tokenIds[i]) == holder, \"Not holder\");\n            require(shownQuestNfts[address(tokenAddress)][questId].contains(tokenIds[i]) == false, \"NFT already shown for this quest\");\n            shownQuestNfts[address(tokenAddress)][questId].add(tokenIds[i]);\n        }\n    }\n\n    function storeCurrency(IERC20 tokenAddress, uint256 amount) external restricted {\n        tokenAddress.transferFrom(tx.origin, address(this), amount);\n        currencies[address(tokenAddress)] = currencies[address(tokenAddress)].add(amount);\n    }\n\n    function transferReward(address tokenAddress, address to, uint256 amount, uint256 seed) external restricted {\n        require(amount <= nfts[tokenAddress].length || amount <= currencies[tokenAddress], \"Not enough NFTs or currency\");\n        if (amount <= currencies[tokenAddress]) {\n            IERC20 currency = IERC20(tokenAddress);\n            currency.transfer(to, amount);\n            currencies[tokenAddress] = currencies[tokenAddress].sub(amount);\n        } else {\n            IERC721 nft = IERC721(tokenAddress);\n            for (uint i = 0; i < amount; i++) {\n                uint256 index = RandomUtil.randomSeededMinMax(0, nfts[tokenAddress].length - 1, seed);\n                uint256 tokenId = nfts[tokenAddress][index];\n                nft.safeTransferFrom(address(this), to, tokenId);\n                deleteNft(nft, index);\n                seed = RandomUtil.combineSeeds(seed, i);\n            }\n        }\n    }\n\n    function deleteNft(IERC721 tokenAddress, uint256 index) internal {\n        require(index < nfts[address(tokenAddress)].length, \"Index out of bounds\");\n        nfts[address(tokenAddress)][index] = nfts[address(tokenAddress)][nfts[address(tokenAddress)].length - 1];\n        nfts[address(tokenAddress)].pop();\n    }\n\n\n    // VIEWS\n\n    function getNftsInVault(address tokenAddress) public view returns (uint256[] memory) {\n        return nfts[tokenAddress];\n    }\n\n    function haveNftsBeenShown(address tokenAddress, uint questId, uint256[] memory tokenIds) public view returns (bool[] memory result) {\n        result = new bool[](tokenIds.length);\n        for(uint i = 0; i < tokenIds.length; i++) {\n            result[i] = shownQuestNfts[tokenAddress][questId].contains(tokenIds[i]);\n        }\n    }\n}\n",
  "sourcePath": "/mnt/e/work/cryptoblades/contracts/PartnerVault.sol",
  "compiler": {
    "name": "solc",
    "version": "0.6.5+commit.f956cc89.Emscripten.clang"
  },
  "schemaVersion": "3.3.4",
  "updatedAt": "2023-01-24T17:45:31.547Z",
  "devdoc": {
    "methods": {
      "getRoleAdmin(bytes32)": {
        "details": "Returns the admin role that controls `role`. See {grantRole} and {revokeRole}.     * To change a role's admin, use {_setRoleAdmin}."
      },
      "getRoleMember(bytes32,uint256)": {
        "details": "Returns one of the accounts that have `role`. `index` must be a value between 0 and {getRoleMemberCount}, non-inclusive.     * Role bearers are not sorted in any particular way, and their ordering may change at any point.     * WARNING: When using {getRoleMember} and {getRoleMemberCount}, make sure you perform all queries on the same block. See the following https://forum.openzeppelin.com/t/iterating-over-elements-on-enumerableset-in-openzeppelin-contracts/2296[forum post] for more information."
      },
      "getRoleMemberCount(bytes32)": {
        "details": "Returns the number of accounts that have `role`. Can be used together with {getRoleMember} to enumerate all bearers of a role."
      },
      "grantRole(bytes32,address)": {
        "details": "Grants `role` to `account`.     * If `account` had not been already granted `role`, emits a {RoleGranted} event.     * Requirements:     * - the caller must have ``role``'s admin role."
      },
      "hasRole(bytes32,address)": {
        "details": "Returns `true` if `account` has been granted `role`."
      },
      "renounceRole(bytes32,address)": {
        "details": "Revokes `role` from the calling account.     * Roles are often managed via {grantRole} and {revokeRole}: this function's purpose is to provide a mechanism for accounts to lose their privileges if they are compromised (such as when a trusted device is misplaced).     * If the calling account had been granted `role`, emits a {RoleRevoked} event.     * Requirements:     * - the caller must be `account`."
      },
      "revokeRole(bytes32,address)": {
        "details": "Revokes `role` from `account`.     * If `account` had been granted `role`, emits a {RoleRevoked} event.     * Requirements:     * - the caller must have ``role``'s admin role."
      }
    }
  },
  "userdoc": {
    "methods": {}
  }
}