{
  "contractName": "Promos",
  "abi": [
    {
      "anonymous": false,
      "inputs": [
        {
          "indexed": true,
          "internalType": "bytes32",
          "name": "role",
          "type": "bytes32"
        },
        {
          "indexed": true,
          "internalType": "bytes32",
          "name": "previousAdminRole",
          "type": "bytes32"
        },
        {
          "indexed": true,
          "internalType": "bytes32",
          "name": "newAdminRole",
          "type": "bytes32"
        }
      ],
      "name": "RoleAdminChanged",
      "type": "event"
    },
    {
      "anonymous": false,
      "inputs": [
        {
          "indexed": true,
          "internalType": "bytes32",
          "name": "role",
          "type": "bytes32"
        },
        {
          "indexed": true,
          "internalType": "address",
          "name": "account",
          "type": "address"
        },
        {
          "indexed": true,
          "internalType": "address",
          "name": "sender",
          "type": "address"
        }
      ],
      "name": "RoleGranted",
      "type": "event"
    },
    {
      "anonymous": false,
      "inputs": [
        {
          "indexed": true,
          "internalType": "bytes32",
          "name": "role",
          "type": "bytes32"
        },
        {
          "indexed": true,
          "internalType": "address",
          "name": "account",
          "type": "address"
        },
        {
          "indexed": true,
          "internalType": "address",
          "name": "sender",
          "type": "address"
        }
      ],
      "name": "RoleRevoked",
      "type": "event"
    },
    {
      "inputs": [],
      "name": "BIT_BAD_ACTOR",
      "outputs": [
        {
          "internalType": "uint256",
          "name": "",
          "type": "uint256"
        }
      ],
      "stateMutability": "view",
      "type": "function"
    },
    {
      "inputs": [],
      "name": "BIT_FIRST_CHARACTER",
      "outputs": [
        {
          "internalType": "uint256",
          "name": "",
          "type": "uint256"
        }
      ],
      "stateMutability": "view",
      "type": "function"
    },
    {
      "inputs": [],
      "name": "BIT_FOUNDER_SHIELD",
      "outputs": [
        {
          "internalType": "uint256",
          "name": "",
          "type": "uint256"
        }
      ],
      "stateMutability": "view",
      "type": "function"
    },
    {
      "inputs": [],
      "name": "BIT_LEGENDARY_DEFENDER",
      "outputs": [
        {
          "internalType": "uint256",
          "name": "",
          "type": "uint256"
        }
      ],
      "stateMutability": "view",
      "type": "function"
    },
    {
      "inputs": [],
      "name": "DEFAULT_ADMIN_ROLE",
      "outputs": [
        {
          "internalType": "bytes32",
          "name": "",
          "type": "bytes32"
        }
      ],
      "stateMutability": "view",
      "type": "function"
    },
    {
      "inputs": [],
      "name": "GAME_ADMIN",
      "outputs": [
        {
          "internalType": "bytes32",
          "name": "",
          "type": "bytes32"
        }
      ],
      "stateMutability": "view",
      "type": "function"
    },
    {
      "inputs": [
        {
          "internalType": "address",
          "name": "",
          "type": "address"
        }
      ],
      "name": "bits",
      "outputs": [
        {
          "internalType": "uint256",
          "name": "",
          "type": "uint256"
        }
      ],
      "stateMutability": "view",
      "type": "function"
    },
    {
      "inputs": [],
      "name": "firstCharacterPromoInGameOnlyFundsGivenInUsd",
      "outputs": [
        {
          "internalType": "int128",
          "name": "",
          "type": "int128"
        }
      ],
      "stateMutability": "view",
      "type": "function"
    },
    {
      "inputs": [
        {
          "internalType": "bytes32",
          "name": "role",
          "type": "bytes32"
        }
      ],
      "name": "getRoleAdmin",
      "outputs": [
        {
          "internalType": "bytes32",
          "name": "",
          "type": "bytes32"
        }
      ],
      "stateMutability": "view",
      "type": "function"
    },
    {
      "inputs": [
        {
          "internalType": "bytes32",
          "name": "role",
          "type": "bytes32"
        },
        {
          "internalType": "uint256",
          "name": "index",
          "type": "uint256"
        }
      ],
      "name": "getRoleMember",
      "outputs": [
        {
          "internalType": "address",
          "name": "",
          "type": "address"
        }
      ],
      "stateMutability": "view",
      "type": "function"
    },
    {
      "inputs": [
        {
          "internalType": "bytes32",
          "name": "role",
          "type": "bytes32"
        }
      ],
      "name": "getRoleMemberCount",
      "outputs": [
        {
          "internalType": "uint256",
          "name": "",
          "type": "uint256"
        }
      ],
      "stateMutability": "view",
      "type": "function"
    },
    {
      "inputs": [
        {
          "internalType": "bytes32",
          "name": "role",
          "type": "bytes32"
        },
        {
          "internalType": "address",
          "name": "account",
          "type": "address"
        }
      ],
      "name": "grantRole",
      "outputs": [],
      "stateMutability": "nonpayable",
      "type": "function"
    },
    {
      "inputs": [
        {
          "internalType": "bytes32",
          "name": "role",
          "type": "bytes32"
        },
        {
          "internalType": "address",
          "name": "account",
          "type": "address"
        }
      ],
      "name": "hasRole",
      "outputs": [
        {
          "internalType": "bool",
          "name": "",
          "type": "bool"
        }
      ],
      "stateMutability": "view",
      "type": "function"
    },
    {
      "inputs": [
        {
          "internalType": "bytes32",
          "name": "role",
          "type": "bytes32"
        },
        {
          "internalType": "address",
          "name": "account",
          "type": "address"
        }
      ],
      "name": "renounceRole",
      "outputs": [],
      "stateMutability": "nonpayable",
      "type": "function"
    },
    {
      "inputs": [
        {
          "internalType": "bytes32",
          "name": "role",
          "type": "bytes32"
        },
        {
          "internalType": "address",
          "name": "account",
          "type": "address"
        }
      ],
      "name": "revokeRole",
      "outputs": [],
      "stateMutability": "nonpayable",
      "type": "function"
    },
    {
      "inputs": [],
      "name": "initialize",
      "outputs": [],
      "stateMutability": "nonpayable",
      "type": "function"
    },
    {
      "inputs": [],
      "name": "migrateTo_f73df27",
      "outputs": [],
      "stateMutability": "nonpayable",
      "type": "function"
    },
    {
      "inputs": [
        {
          "internalType": "address",
          "name": "user",
          "type": "address"
        },
        {
          "internalType": "uint256",
          "name": "bit",
          "type": "uint256"
        }
      ],
      "name": "setBit",
      "outputs": [],
      "stateMutability": "nonpayable",
      "type": "function"
    },
    {
      "inputs": [
        {
          "internalType": "address[]",
          "name": "user",
          "type": "address[]"
        },
        {
          "internalType": "uint256",
          "name": "bit",
          "type": "uint256"
        }
      ],
      "name": "setBits",
      "outputs": [],
      "stateMutability": "nonpayable",
      "type": "function"
    },
    {
      "inputs": [
        {
          "internalType": "address",
          "name": "user",
          "type": "address"
        },
        {
          "internalType": "uint256",
          "name": "bit",
          "type": "uint256"
        }
      ],
      "name": "unsetBit",
      "outputs": [],
      "stateMutability": "nonpayable",
      "type": "function"
    },
    {
      "inputs": [
        {
          "internalType": "address[]",
          "name": "user",
          "type": "address[]"
        },
        {
          "internalType": "uint256",
          "name": "bit",
          "type": "uint256"
        }
      ],
      "name": "unsetBits",
      "outputs": [],
      "stateMutability": "nonpayable",
      "type": "function"
    },
    {
      "inputs": [
        {
          "internalType": "address",
          "name": "user",
          "type": "address"
        },
        {
          "internalType": "uint256",
          "name": "bit",
          "type": "uint256"
        }
      ],
      "name": "getBit",
      "outputs": [
        {
          "internalType": "bool",
          "name": "",
          "type": "bool"
        }
      ],
      "stateMutability": "view",
      "type": "function"
    },
    {
      "inputs": [],
      "name": "firstCharacterPromoInGameOnlyFundsGivenInUsdAsCents",
      "outputs": [
        {
          "internalType": "uint256",
          "name": "",
          "type": "uint256"
        }
      ],
      "stateMutability": "view",
      "type": "function"
    },
    {
      "inputs": [
        {
          "internalType": "uint256",
          "name": "_usdCents",
          "type": "uint256"
        }
      ],
      "name": "setFirstCharacterPromoInGameOnlyFundsGivenInUsdAsCents",
      "outputs": [],
      "stateMutability": "nonpayable",
      "type": "function"
    },
    {
      "inputs": [
        {
          "internalType": "uint256",
          "name": "_numerator",
          "type": "uint256"
        },
        {
          "internalType": "uint256",
          "name": "_denominator",
          "type": "uint256"
        }
      ],
      "name": "setFirstCharacterPromoInGameOnlyFundsGivenInUsdAsRational",
      "outputs": [],
      "stateMutability": "nonpayable",
      "type": "function"
    }
  ],
  "bytecode": "0x608060405234801561001057600080fd5b506113be806100206000396000f3fe608060405234801561001057600080fd5b50600436106101735760003560e01c80638129fc1c116100de578063bf2a28cf11610097578063d547741f11610071578063d547741f14610467578063d5db16f914610493578063d8138acf146104b9578063e3808b821461055e57610173565b8063bf2a28cf1461043a578063ca15c87314610442578063cb12b9321461045f57610173565b80638129fc1c1461031257806384ddbdce1461031a5780639010d07c146103bf578063907ef7d5146103fe57806391d1485414610406578063a217fddf1461043257610173565b80632f2ff15d116101305780632f2ff15d1461022557806336568abe14610251578063434d82a31461027d5780635249fb6d146102bd5780635504d3d2146102de5780637dc18a3a146102e657610173565b806309cc8d46146101785780631976bd47146101975780631c4e328b146101ba578063248a9ca3146101c257806324a9db2a146101f1578063260730e0146101f9575b600080fd5b6101956004803603602081101561018e57600080fd5b5035610566565b005b610195600480360360408110156101ad57600080fd5b5080359060200135610604565b6101956106a2565b6101df600480360360208110156101d857600080fd5b503561071e565b60408051918252519081900360200190f35b6101df610733565b6101956004803603604081101561020f57600080fd5b506001600160a01b038135169060200135610756565b6101956004803603604081101561023b57600080fd5b50803590602001356001600160a01b03166107e3565b6101956004803603604081101561026757600080fd5b50803590602001356001600160a01b031661084f565b6102a96004803603604081101561029357600080fd5b506001600160a01b0381351690602001356108b0565b604080519115158252519081900360200190f35b6102c56108d4565b60408051600f92830b90920b8252519081900360200190f35b6101df6108dd565b610195600480360360408110156102fc57600080fd5b506001600160a01b0381351690602001356108ff565b61019561098f565b6101956004803603604081101561033057600080fd5b81019060208101813564010000000081111561034b57600080fd5b82018360208201111561035d57600080fd5b8035906020019184602083028401116401000000008311171561037f57600080fd5b9190808060200260200160405190810160405280939291908181526020018383602002808284376000920191909152509295505091359250610a44915050565b6103e2600480360360408110156103d557600080fd5b5080359060200135610b04565b604080516001600160a01b039092168252519081900360200190f35b6101df610b29565b6102a96004803603604081101561041c57600080fd5b50803590602001356001600160a01b0316610b2e565b6101df610b4c565b6101df610b51565b6101df6004803603602081101561045857600080fd5b5035610b56565b6101df610b6d565b6101956004803603604081101561047d57600080fd5b50803590602001356001600160a01b0316610b72565b6101df600480360360208110156104a957600080fd5b50356001600160a01b0316610bcb565b610195600480360360408110156104cf57600080fd5b8101906020810181356401000000008111156104ea57600080fd5b8201836020820111156104fc57600080fd5b8035906020019184602083028401116401000000008311171561051e57600080fd5b9190808060200260200160405190810160405280939291908181526020018383602002808284376000920191909152509295505091359250610bdd915050565b6101df610c97565b604080516923a0a6a2afa0a226a4a760b11b8152905190819003600a01902061058f9033610b2e565b6105d1576040805162461bcd60e51b815260206004820152600e60248201526d2737ba1033b0b6b29030b236b4b760911b604482015290519081900360640190fd5b6105dc816064610c9c565b60668054600f9290920b6001600160801b03166001600160801b031990921691909117905550565b604080516923a0a6a2afa0a226a4a760b11b8152905190819003600a01902061062d9033610b2e565b61066f576040805162461bcd60e51b815260206004820152600e60248201526d2737ba1033b0b6b29030b236b4b760911b604482015290519081900360640190fd5b6106798282610c9c565b60668054600f9290920b6001600160801b03166001600160801b03199092169190911790555050565b6106ad600033610b2e565b6106ea576040805162461bcd60e51b81526020600482015260096024820152682737ba1030b236b4b760b91b604482015290519081900360640190fd5b6106f76143446064610c9c565b60668054600f9290920b6001600160801b03166001600160801b0319909216919091179055565b60009081526033602052604090206002015490565b60665460009061075190600f90810b900b606463ffffffff610cdc16565b905090565b604080516923a0a6a2afa0a226a4a760b11b8152905190819003600a01902061077f9033610b2e565b6107c1576040805162461bcd60e51b815260206004820152600e60248201526d2737ba1033b0b6b29030b236b4b760911b604482015290519081900360640190fd5b6001600160a01b03909116600090815260656020526040902080549091179055565b60008281526033602052604090206002015461080690610801610d44565b610b2e565b6108415760405162461bcd60e51b815260040180806020018281038252602f8152602001806112cd602f913960400191505060405180910390fd5b61084b8282610d48565b5050565b610857610d44565b6001600160a01b0316816001600160a01b0316146108a65760405162461bcd60e51b815260040180806020018281038252602f81526020018061135a602f913960400191505060405180910390fd5b61084b8282610db7565b6001600160a01b038216600090815260656020526040902054811681145b92915050565b606654600f0b81565b604080516923a0a6a2afa0a226a4a760b11b8152905190819003600a01902081565b604080516923a0a6a2afa0a226a4a760b11b8152905190819003600a0190206109289033610b2e565b61096a576040805162461bcd60e51b815260206004820152600e60248201526d2737ba1033b0b6b29030b236b4b760911b604482015290519081900360640190fd5b6001600160a01b03909116600090815260656020526040902080549119919091169055565b600054610100900460ff16806109a857506109a8610e26565b806109b6575060005460ff16155b6109f15760405162461bcd60e51b815260040180806020018281038252602e81526020018061132c602e913960400191505060405180910390fd5b600054610100900460ff16158015610a1c576000805460ff1961ff0019909116610100171660011790555b610a24610e37565b610a2f600033610841565b8015610a41576000805461ff00191690555b50565b604080516923a0a6a2afa0a226a4a760b11b8152905190819003600a019020610a6d9033610b2e565b610aaf576040805162461bcd60e51b815260206004820152600e60248201526d2737ba1033b0b6b29030b236b4b760911b604482015290519081900360640190fd5b60005b8251811015610aff57811960656000858481518110610acd57fe5b6020908102919091018101516001600160a01b0316825281019190915260400160002080549091169055600101610ab2565b505050565b6000828152603360205260408120610b22908363ffffffff610ed416565b9392505050565b600481565b6000828152603360205260408120610b22908363ffffffff610ee016565b600081565b600181565b60008181526033602052604081206108ce90610ef5565b600881565b600082815260336020526040902060020154610b9090610801610d44565b6108a65760405162461bcd60e51b81526004018080602001828103825260308152602001806112fc6030913960400191505060405180910390fd5b60656020526000908152604090205481565b604080516923a0a6a2afa0a226a4a760b11b8152905190819003600a019020610c069033610b2e565b610c48576040805162461bcd60e51b815260206004820152600e60248201526d2737ba1033b0b6b29030b236b4b760911b604482015290519081900360640190fd5b60005b8251811015610aff578160656000858481518110610c6557fe5b6020908102919091018101516001600160a01b0316825281019190915260400160002080549091179055600101610c4b565b600281565b600081610ca857600080fd5b6000610cb48484610f00565b90506f7fffffffffffffffffffffffffffffff6001600160801b0382161115610b2257600080fd5b600081610ceb575060006108ce565b600083600f0b1215610cfc57600080fd5b600f83900b6001600160801b038316810260401c90608084901c026001600160c01b03811115610d2b57600080fd5b60401b8119811115610d3c57600080fd5b019392505050565b3390565b6000828152603360205260409020610d66908263ffffffff61104a16565b1561084b57610d73610d44565b6001600160a01b0316816001600160a01b0316837f2f8788117e7eff1d82e926ec794901d17c78024a50270940304540a733656f0d60405160405180910390a45050565b6000828152603360205260409020610dd5908263ffffffff61105f16565b1561084b57610de2610d44565b6001600160a01b0316816001600160a01b0316837ff6391f5c32d9c69d2a47ea670b442974b53935d1edc7fd64eb21e047a839171b60405160405180910390a45050565b6000610e3130611074565b15905090565b600054610100900460ff1680610e505750610e50610e26565b80610e5e575060005460ff16155b610e995760405162461bcd60e51b815260040180806020018281038252602e81526020018061132c602e913960400191505060405180910390fd5b600054610100900460ff16158015610ec4576000805460ff1961ff0019909116610100171660011790555b610ecc61107a565b610a2f61107a565b6000610b22838361111a565b6000610b22836001600160a01b03841661117e565b60006108ce82611196565b600081610f0c57600080fd5b60006001600160c01b038411610f315782604085901b81610f2957fe5b049050611036565b60c084811c6401000000008110610f4a576020918201911c5b620100008110610f5c576010918201911c5b6101008110610f6d576008918201911c5b60108110610f7d576004918201911c5b60048110610f8d576002918201911c5b60028110610f9c576001820191505b60bf820360018603901c6001018260ff0387901b81610fb757fe5b0492506001600160801b03831115610fce57600080fd5b608085901c83026001600160801b038616840260c088901c604089901b82811015610ffa576001820391505b608084901b92900382811015611011576001820391505b829003608084901c821461102157fe5b88818161102a57fe5b04870196505050505050505b6001600160801b03811115610b2257600080fd5b6000610b22836001600160a01b03841661119a565b6000610b22836001600160a01b0384166111e4565b3b151590565b600054610100900460ff16806110935750611093610e26565b806110a1575060005460ff16155b6110dc5760405162461bcd60e51b815260040180806020018281038252602e81526020018061132c602e913960400191505060405180910390fd5b600054610100900460ff16158015610a2f576000805460ff1961ff0019909116610100171660011790558015610a41576000805461ff001916905550565b8154600090821061115c5760405162461bcd60e51b81526004018080602001828103825260228152602001806112ab6022913960400191505060405180910390fd5b82600001828154811061116b57fe5b9060005260206000200154905092915050565b60009081526001919091016020526040902054151590565b5490565b60006111a6838361117e565b6111dc575081546001818101845560008481526020808220909301849055845484825282860190935260409020919091556108ce565b5060006108ce565b600081815260018301602052604081205480156112a0578354600019808301919081019060009087908390811061121757fe5b906000526020600020015490508087600001848154811061123457fe5b60009182526020808320909101929092558281526001898101909252604090209084019055865487908061126457fe5b600190038181906000526020600020016000905590558660010160008781526020019081526020016000206000905560019450505050506108ce565b60009150506108ce56fe456e756d657261626c655365743a20696e646578206f7574206f6620626f756e6473416363657373436f6e74726f6c3a2073656e646572206d75737420626520616e2061646d696e20746f206772616e74416363657373436f6e74726f6c3a2073656e646572206d75737420626520616e2061646d696e20746f207265766f6b65496e697469616c697a61626c653a20636f6e747261637420697320616c726561647920696e697469616c697a6564416363657373436f6e74726f6c3a2063616e206f6e6c792072656e6f756e636520726f6c657320666f722073656c66a26469706673582212209977bcfd319bd0671b7e31ee988686e4911ce0da65b71b607c82172a5f989e1764736f6c63430006050033",
  "immutableReferences": {},
  "source": "pragma solidity ^0.6.0;\n\nimport \"@openzeppelin/contracts-upgradeable/proxy/Initializable.sol\";\nimport \"@openzeppelin/contracts-upgradeable/access/AccessControlUpgradeable.sol\";\nimport \"abdk-libraries-solidity/ABDKMath64x64.sol\";\n\ncontract Promos is Initializable, AccessControlUpgradeable {\n    using ABDKMath64x64 for int128;\n\n    bytes32 public constant GAME_ADMIN = keccak256(\"GAME_ADMIN\");\n\n    function initialize() public initializer {\n        __AccessControl_init();\n\n        _setupRole(DEFAULT_ADMIN_ROLE, msg.sender);\n    }\n\n    function migrateTo_f73df27() external {\n        require(hasRole(DEFAULT_ADMIN_ROLE, msg.sender), \"Not admin\");\n\n        firstCharacterPromoInGameOnlyFundsGivenInUsd = ABDKMath64x64.divu(\n            17220,\n            100\n        );\n    }\n\n    mapping(address => uint256) public bits;\n    uint256 public constant BIT_FIRST_CHARACTER = 1;\n    uint256 public constant BIT_FOUNDER_SHIELD = 2;\n    uint256 public constant BIT_BAD_ACTOR = 4;\n    uint256 public constant BIT_LEGENDARY_DEFENDER = 8;\n\n    int128 public firstCharacterPromoInGameOnlyFundsGivenInUsd;\n\n    modifier restricted() {\n        require(hasRole(GAME_ADMIN, msg.sender), \"Not game admin\");\n        _;\n    }\n\n    function setBit(address user, uint256 bit) external restricted {\n        bits[user] |= bit;\n    }\n\n    function setBits(address[] memory user, uint256 bit) public restricted {\n        for(uint i = 0; i < user.length; i++)\n            bits[user[i]] |= bit;\n    }\n\n    function unsetBit(address user, uint256 bit) public restricted {\n        bits[user] &= ~bit;\n    }\n\n    function unsetBits(address[] memory user, uint256 bit) public restricted {\n        for(uint i = 0; i < user.length; i++)\n            bits[user[i]] &= ~bit;\n    }\n\n    function getBit(address user, uint256 bit) external view returns (bool) {\n        return (bits[user] & bit) == bit;\n    }\n\n    function firstCharacterPromoInGameOnlyFundsGivenInUsdAsCents() external view returns (uint256) {\n        return firstCharacterPromoInGameOnlyFundsGivenInUsd.mulu(100);\n    }\n\n    function setFirstCharacterPromoInGameOnlyFundsGivenInUsdAsCents(\n        uint256 _usdCents\n    ) external restricted {\n        firstCharacterPromoInGameOnlyFundsGivenInUsd = ABDKMath64x64.divu(\n            _usdCents,\n            100\n        );\n    }\n\n    function setFirstCharacterPromoInGameOnlyFundsGivenInUsdAsRational(\n        uint256 _numerator,\n        uint256 _denominator\n    ) external restricted {\n        firstCharacterPromoInGameOnlyFundsGivenInUsd = ABDKMath64x64.divu(\n            _numerator,\n            _denominator\n        );\n    }\n}\n",
  "sourcePath": "/mnt/e/work/cryptoblades/contracts/Promos.sol",
  "compiler": {
    "name": "solc",
    "version": "0.6.5+commit.f956cc89.Emscripten.clang"
  },
  "schemaVersion": "3.3.4",
  "updatedAt": "2023-01-24T17:45:31.567Z",
  "devdoc": {
    "methods": {
      "getRoleAdmin(bytes32)": {
        "details": "Returns the admin role that controls `role`. See {grantRole} and {revokeRole}.     * To change a role's admin, use {_setRoleAdmin}."
      },
      "getRoleMember(bytes32,uint256)": {
        "details": "Returns one of the accounts that have `role`. `index` must be a value between 0 and {getRoleMemberCount}, non-inclusive.     * Role bearers are not sorted in any particular way, and their ordering may change at any point.     * WARNING: When using {getRoleMember} and {getRoleMemberCount}, make sure you perform all queries on the same block. See the following https://forum.openzeppelin.com/t/iterating-over-elements-on-enumerableset-in-openzeppelin-contracts/2296[forum post] for more information."
      },
      "getRoleMemberCount(bytes32)": {
        "details": "Returns the number of accounts that have `role`. Can be used together with {getRoleMember} to enumerate all bearers of a role."
      },
      "grantRole(bytes32,address)": {
        "details": "Grants `role` to `account`.     * If `account` had not been already granted `role`, emits a {RoleGranted} event.     * Requirements:     * - the caller must have ``role``'s admin role."
      },
      "hasRole(bytes32,address)": {
        "details": "Returns `true` if `account` has been granted `role`."
      },
      "renounceRole(bytes32,address)": {
        "details": "Revokes `role` from the calling account.     * Roles are often managed via {grantRole} and {revokeRole}: this function's purpose is to provide a mechanism for accounts to lose their privileges if they are compromised (such as when a trusted device is misplaced).     * If the calling account had been granted `role`, emits a {RoleRevoked} event.     * Requirements:     * - the caller must be `account`."
      },
      "revokeRole(bytes32,address)": {
        "details": "Revokes `role` from `account`.     * If `account` had been granted `role`, emits a {RoleRevoked} event.     * Requirements:     * - the caller must have ``role``'s admin role."
      }
    }
  },
  "userdoc": {
    "methods": {}
  }
}