{
  "contractName": "PvpCore",
  "abi": [
    {
      "anonymous": false,
      "inputs": [
        {
          "indexed": true,
          "internalType": "uint256",
          "name": "characterID",
          "type": "uint256"
        },
        {
          "indexed": false,
          "internalType": "uint256",
          "name": "kickedBy",
          "type": "uint256"
        },
        {
          "indexed": false,
          "internalType": "uint256",
          "name": "timestamp",
          "type": "uint256"
        }
      ],
      "name": "CharacterKicked",
      "type": "event"
    },
    {
      "anonymous": false,
      "inputs": [
        {
          "indexed": true,
          "internalType": "uint256",
          "name": "attacker",
          "type": "uint256"
        },
        {
          "indexed": true,
          "internalType": "uint256",
          "name": "defender",
          "type": "uint256"
        },
        {
          "indexed": false,
          "internalType": "uint256",
          "name": "timestamp",
          "type": "uint256"
        },
        {
          "indexed": false,
          "internalType": "uint256",
          "name": "attackerRoll",
          "type": "uint256"
        },
        {
          "indexed": false,
          "internalType": "uint256",
          "name": "defenderRoll",
          "type": "uint256"
        },
        {
          "indexed": false,
          "internalType": "bool",
          "name": "attackerWon",
          "type": "bool"
        },
        {
          "indexed": false,
          "internalType": "uint256",
          "name": "bonusRank",
          "type": "uint256"
        }
      ],
      "name": "DuelFinished",
      "type": "event"
    },
    {
      "anonymous": false,
      "inputs": [
        {
          "indexed": true,
          "internalType": "bytes32",
          "name": "role",
          "type": "bytes32"
        },
        {
          "indexed": true,
          "internalType": "bytes32",
          "name": "previousAdminRole",
          "type": "bytes32"
        },
        {
          "indexed": true,
          "internalType": "bytes32",
          "name": "newAdminRole",
          "type": "bytes32"
        }
      ],
      "name": "RoleAdminChanged",
      "type": "event"
    },
    {
      "anonymous": false,
      "inputs": [
        {
          "indexed": true,
          "internalType": "bytes32",
          "name": "role",
          "type": "bytes32"
        },
        {
          "indexed": true,
          "internalType": "address",
          "name": "account",
          "type": "address"
        },
        {
          "indexed": true,
          "internalType": "address",
          "name": "sender",
          "type": "address"
        }
      ],
      "name": "RoleGranted",
      "type": "event"
    },
    {
      "anonymous": false,
      "inputs": [
        {
          "indexed": true,
          "internalType": "bytes32",
          "name": "role",
          "type": "bytes32"
        },
        {
          "indexed": true,
          "internalType": "address",
          "name": "account",
          "type": "address"
        },
        {
          "indexed": true,
          "internalType": "address",
          "name": "sender",
          "type": "address"
        }
      ],
      "name": "RoleRevoked",
      "type": "event"
    },
    {
      "inputs": [],
      "name": "DEFAULT_ADMIN_ROLE",
      "outputs": [
        {
          "internalType": "bytes32",
          "name": "",
          "type": "bytes32"
        }
      ],
      "stateMutability": "view",
      "type": "function"
    },
    {
      "inputs": [],
      "name": "GAME_ADMIN",
      "outputs": [
        {
          "internalType": "bytes32",
          "name": "",
          "type": "bytes32"
        }
      ],
      "stateMutability": "view",
      "type": "function"
    },
    {
      "inputs": [],
      "name": "LINK_EQUIPMENT_MANAGER",
      "outputs": [
        {
          "internalType": "uint256",
          "name": "",
          "type": "uint256"
        }
      ],
      "stateMutability": "view",
      "type": "function"
    },
    {
      "inputs": [],
      "name": "arenaAccess",
      "outputs": [
        {
          "internalType": "uint256",
          "name": "",
          "type": "uint256"
        }
      ],
      "stateMutability": "view",
      "type": "function"
    },
    {
      "inputs": [],
      "name": "characters",
      "outputs": [
        {
          "internalType": "contract Characters",
          "name": "",
          "type": "address"
        }
      ],
      "stateMutability": "view",
      "type": "function"
    },
    {
      "inputs": [],
      "name": "decisionSeconds",
      "outputs": [
        {
          "internalType": "uint256",
          "name": "",
          "type": "uint256"
        }
      ],
      "stateMutability": "view",
      "type": "function"
    },
    {
      "inputs": [],
      "name": "duelOffsetCost",
      "outputs": [
        {
          "internalType": "uint256",
          "name": "",
          "type": "uint256"
        }
      ],
      "stateMutability": "view",
      "type": "function"
    },
    {
      "inputs": [
        {
          "internalType": "uint256",
          "name": "",
          "type": "uint256"
        }
      ],
      "name": "excessWagerByCharacter",
      "outputs": [
        {
          "internalType": "uint256",
          "name": "",
          "type": "uint256"
        }
      ],
      "stateMutability": "view",
      "type": "function"
    },
    {
      "inputs": [
        {
          "internalType": "uint256",
          "name": "",
          "type": "uint256"
        }
      ],
      "name": "fighterByCharacter",
      "outputs": [
        {
          "internalType": "uint256",
          "name": "characterID",
          "type": "uint256"
        },
        {
          "internalType": "uint256",
          "name": "weaponID",
          "type": "uint256"
        },
        {
          "internalType": "uint256",
          "name": "shieldID",
          "type": "uint256"
        },
        {
          "internalType": "uint256",
          "name": "wager",
          "type": "uint256"
        },
        {
          "internalType": "bool",
          "name": "useShield",
          "type": "bool"
        }
      ],
      "stateMutability": "view",
      "type": "function"
    },
    {
      "inputs": [
        {
          "internalType": "uint256",
          "name": "",
          "type": "uint256"
        }
      ],
      "name": "finderByOpponent",
      "outputs": [
        {
          "internalType": "uint256",
          "name": "",
          "type": "uint256"
        }
      ],
      "stateMutability": "view",
      "type": "function"
    },
    {
      "inputs": [],
      "name": "game",
      "outputs": [
        {
          "internalType": "contract CryptoBlades",
          "name": "",
          "type": "address"
        }
      ],
      "stateMutability": "view",
      "type": "function"
    },
    {
      "inputs": [
        {
          "internalType": "bytes32",
          "name": "role",
          "type": "bytes32"
        }
      ],
      "name": "getRoleAdmin",
      "outputs": [
        {
          "internalType": "bytes32",
          "name": "",
          "type": "bytes32"
        }
      ],
      "stateMutability": "view",
      "type": "function"
    },
    {
      "inputs": [
        {
          "internalType": "bytes32",
          "name": "role",
          "type": "bytes32"
        },
        {
          "internalType": "uint256",
          "name": "index",
          "type": "uint256"
        }
      ],
      "name": "getRoleMember",
      "outputs": [
        {
          "internalType": "address",
          "name": "",
          "type": "address"
        }
      ],
      "stateMutability": "view",
      "type": "function"
    },
    {
      "inputs": [
        {
          "internalType": "bytes32",
          "name": "role",
          "type": "bytes32"
        }
      ],
      "name": "getRoleMemberCount",
      "outputs": [
        {
          "internalType": "uint256",
          "name": "",
          "type": "uint256"
        }
      ],
      "stateMutability": "view",
      "type": "function"
    },
    {
      "inputs": [
        {
          "internalType": "bytes32",
          "name": "role",
          "type": "bytes32"
        },
        {
          "internalType": "address",
          "name": "account",
          "type": "address"
        }
      ],
      "name": "grantRole",
      "outputs": [],
      "stateMutability": "nonpayable",
      "type": "function"
    },
    {
      "inputs": [
        {
          "internalType": "bytes32",
          "name": "role",
          "type": "bytes32"
        },
        {
          "internalType": "address",
          "name": "account",
          "type": "address"
        }
      ],
      "name": "hasRole",
      "outputs": [
        {
          "internalType": "bool",
          "name": "",
          "type": "bool"
        }
      ],
      "stateMutability": "view",
      "type": "function"
    },
    {
      "inputs": [
        {
          "internalType": "uint256",
          "name": "",
          "type": "uint256"
        }
      ],
      "name": "isCharacterInArena",
      "outputs": [
        {
          "internalType": "bool",
          "name": "",
          "type": "bool"
        }
      ],
      "stateMutability": "view",
      "type": "function"
    },
    {
      "inputs": [
        {
          "internalType": "uint256",
          "name": "",
          "type": "uint256"
        }
      ],
      "name": "isDefending",
      "outputs": [
        {
          "internalType": "bool",
          "name": "",
          "type": "bool"
        }
      ],
      "stateMutability": "view",
      "type": "function"
    },
    {
      "inputs": [
        {
          "internalType": "uint256",
          "name": "",
          "type": "uint256"
        }
      ],
      "name": "isShieldInArena",
      "outputs": [
        {
          "internalType": "bool",
          "name": "",
          "type": "bool"
        }
      ],
      "stateMutability": "view",
      "type": "function"
    },
    {
      "inputs": [
        {
          "internalType": "uint256",
          "name": "",
          "type": "uint256"
        }
      ],
      "name": "isWeaponInArena",
      "outputs": [
        {
          "internalType": "bool",
          "name": "",
          "type": "bool"
        }
      ],
      "stateMutability": "view",
      "type": "function"
    },
    {
      "inputs": [
        {
          "internalType": "uint256",
          "name": "",
          "type": "uint256"
        }
      ],
      "name": "matchByFinder",
      "outputs": [
        {
          "internalType": "uint256",
          "name": "attackerID",
          "type": "uint256"
        },
        {
          "internalType": "uint256",
          "name": "defenderID",
          "type": "uint256"
        },
        {
          "internalType": "uint256",
          "name": "createdAt",
          "type": "uint256"
        }
      ],
      "stateMutability": "view",
      "type": "function"
    },
    {
      "inputs": [
        {
          "internalType": "uint256",
          "name": "",
          "type": "uint256"
        }
      ],
      "name": "previousTierByCharacter",
      "outputs": [
        {
          "internalType": "uint8",
          "name": "",
          "type": "uint8"
        }
      ],
      "stateMutability": "view",
      "type": "function"
    },
    {
      "inputs": [],
      "name": "pvpBotAddress",
      "outputs": [
        {
          "internalType": "address payable",
          "name": "",
          "type": "address"
        }
      ],
      "stateMutability": "view",
      "type": "function"
    },
    {
      "inputs": [],
      "name": "pvprankings",
      "outputs": [
        {
          "internalType": "contract PvpRankings",
          "name": "",
          "type": "address"
        }
      ],
      "stateMutability": "view",
      "type": "function"
    },
    {
      "inputs": [],
      "name": "randoms",
      "outputs": [
        {
          "internalType": "contract IRandoms",
          "name": "",
          "type": "address"
        }
      ],
      "stateMutability": "view",
      "type": "function"
    },
    {
      "inputs": [],
      "name": "reRollFeePercent",
      "outputs": [
        {
          "internalType": "uint256",
          "name": "",
          "type": "uint256"
        }
      ],
      "stateMutability": "view",
      "type": "function"
    },
    {
      "inputs": [
        {
          "internalType": "bytes32",
          "name": "role",
          "type": "bytes32"
        },
        {
          "internalType": "address",
          "name": "account",
          "type": "address"
        }
      ],
      "name": "renounceRole",
      "outputs": [],
      "stateMutability": "nonpayable",
      "type": "function"
    },
    {
      "inputs": [
        {
          "internalType": "bytes32",
          "name": "role",
          "type": "bytes32"
        },
        {
          "internalType": "address",
          "name": "account",
          "type": "address"
        }
      ],
      "name": "revokeRole",
      "outputs": [],
      "stateMutability": "nonpayable",
      "type": "function"
    },
    {
      "inputs": [],
      "name": "shields",
      "outputs": [
        {
          "internalType": "contract Shields",
          "name": "",
          "type": "address"
        }
      ],
      "stateMutability": "view",
      "type": "function"
    },
    {
      "inputs": [],
      "name": "skillToken",
      "outputs": [
        {
          "internalType": "contract IERC20",
          "name": "",
          "type": "address"
        }
      ],
      "stateMutability": "view",
      "type": "function"
    },
    {
      "inputs": [
        {
          "internalType": "uint256",
          "name": "",
          "type": "uint256"
        }
      ],
      "name": "specialWeaponRerollTimestamp",
      "outputs": [
        {
          "internalType": "uint256",
          "name": "",
          "type": "uint256"
        }
      ],
      "stateMutability": "view",
      "type": "function"
    },
    {
      "inputs": [],
      "name": "wageringFactor",
      "outputs": [
        {
          "internalType": "uint8",
          "name": "",
          "type": "uint8"
        }
      ],
      "stateMutability": "view",
      "type": "function"
    },
    {
      "inputs": [],
      "name": "weapons",
      "outputs": [
        {
          "internalType": "contract Weapons",
          "name": "",
          "type": "address"
        }
      ],
      "stateMutability": "view",
      "type": "function"
    },
    {
      "inputs": [],
      "name": "withdrawFeePercent",
      "outputs": [
        {
          "internalType": "uint256",
          "name": "",
          "type": "uint256"
        }
      ],
      "stateMutability": "view",
      "type": "function"
    },
    {
      "inputs": [
        {
          "internalType": "address",
          "name": "gameContract",
          "type": "address"
        },
        {
          "internalType": "address",
          "name": "shieldsContract",
          "type": "address"
        },
        {
          "internalType": "address",
          "name": "randomsContract",
          "type": "address"
        },
        {
          "internalType": "address",
          "name": "pvpRankingsContract",
          "type": "address"
        }
      ],
      "name": "initialize",
      "outputs": [],
      "stateMutability": "nonpayable",
      "type": "function"
    },
    {
      "inputs": [
        {
          "internalType": "uint256",
          "name": "characterID",
          "type": "uint256"
        },
        {
          "internalType": "bool",
          "name": "tierless",
          "type": "bool"
        }
      ],
      "name": "enterArena",
      "outputs": [],
      "stateMutability": "nonpayable",
      "type": "function"
    },
    {
      "inputs": [
        {
          "internalType": "uint256",
          "name": "characterID",
          "type": "uint256"
        }
      ],
      "name": "withdrawFromArena",
      "outputs": [],
      "stateMutability": "nonpayable",
      "type": "function"
    },
    {
      "inputs": [
        {
          "internalType": "uint256",
          "name": "characterID",
          "type": "uint256"
        }
      ],
      "name": "findOpponent",
      "outputs": [],
      "stateMutability": "nonpayable",
      "type": "function"
    },
    {
      "inputs": [
        {
          "internalType": "uint256",
          "name": "characterID",
          "type": "uint256"
        }
      ],
      "name": "reRollOpponent",
      "outputs": [],
      "stateMutability": "nonpayable",
      "type": "function"
    },
    {
      "inputs": [
        {
          "internalType": "uint256",
          "name": "attackerID",
          "type": "uint256"
        }
      ],
      "name": "prepareDuel",
      "outputs": [],
      "stateMutability": "payable",
      "type": "function"
    },
    {
      "inputs": [
        {
          "internalType": "uint256[]",
          "name": "attackerIDs",
          "type": "uint256[]"
        }
      ],
      "name": "performDuels",
      "outputs": [],
      "stateMutability": "nonpayable",
      "type": "function"
    },
    {
      "inputs": [
        {
          "internalType": "uint256",
          "name": "characterID",
          "type": "uint256"
        }
      ],
      "name": "isCharacterUnderAttack",
      "outputs": [
        {
          "internalType": "bool",
          "name": "",
          "type": "bool"
        }
      ],
      "stateMutability": "view",
      "type": "function"
    },
    {
      "inputs": [
        {
          "internalType": "uint256",
          "name": "characterID",
          "type": "uint256"
        }
      ],
      "name": "getEntryWager",
      "outputs": [
        {
          "internalType": "uint256",
          "name": "",
          "type": "uint256"
        }
      ],
      "stateMutability": "view",
      "type": "function"
    },
    {
      "inputs": [
        {
          "internalType": "uint8",
          "name": "tier",
          "type": "uint8"
        }
      ],
      "name": "getEntryWagerByTier",
      "outputs": [
        {
          "internalType": "uint256",
          "name": "",
          "type": "uint256"
        }
      ],
      "stateMutability": "view",
      "type": "function"
    },
    {
      "inputs": [
        {
          "internalType": "uint256",
          "name": "characterID",
          "type": "uint256"
        }
      ],
      "name": "getDuelCost",
      "outputs": [
        {
          "internalType": "uint256",
          "name": "",
          "type": "uint256"
        }
      ],
      "stateMutability": "view",
      "type": "function"
    },
    {
      "inputs": [
        {
          "internalType": "uint256",
          "name": "characterID",
          "type": "uint256"
        }
      ],
      "name": "getArenaTier",
      "outputs": [
        {
          "internalType": "uint8",
          "name": "",
          "type": "uint8"
        }
      ],
      "stateMutability": "view",
      "type": "function"
    },
    {
      "inputs": [
        {
          "internalType": "uint256",
          "name": "attackerID",
          "type": "uint256"
        }
      ],
      "name": "getOpponent",
      "outputs": [
        {
          "internalType": "uint256",
          "name": "",
          "type": "uint256"
        }
      ],
      "stateMutability": "view",
      "type": "function"
    },
    {
      "inputs": [],
      "name": "getDuelQueue",
      "outputs": [
        {
          "internalType": "uint256[]",
          "name": "",
          "type": "uint256[]"
        }
      ],
      "stateMutability": "view",
      "type": "function"
    },
    {
      "inputs": [
        {
          "internalType": "uint256",
          "name": "characterID",
          "type": "uint256"
        },
        {
          "internalType": "uint8",
          "name": "tier",
          "type": "uint8"
        }
      ],
      "name": "getCharacterPower",
      "outputs": [
        {
          "internalType": "uint24",
          "name": "",
          "type": "uint24"
        }
      ],
      "stateMutability": "view",
      "type": "function"
    },
    {
      "inputs": [
        {
          "internalType": "uint256",
          "name": "characterID",
          "type": "uint256"
        }
      ],
      "name": "getMatchablePlayerCount",
      "outputs": [
        {
          "internalType": "uint256",
          "name": "",
          "type": "uint256"
        }
      ],
      "stateMutability": "view",
      "type": "function"
    },
    {
      "inputs": [
        {
          "internalType": "uint8",
          "name": "tier",
          "type": "uint8"
        }
      ],
      "name": "getMatchablePlayerCountByTier",
      "outputs": [
        {
          "internalType": "uint256",
          "name": "",
          "type": "uint256"
        }
      ],
      "stateMutability": "view",
      "type": "function"
    },
    {
      "inputs": [
        {
          "internalType": "uint256",
          "name": "characterID",
          "type": "uint256"
        },
        {
          "internalType": "uint8",
          "name": "tier",
          "type": "uint8"
        }
      ],
      "name": "isCharacterMatchableByTier",
      "outputs": [
        {
          "internalType": "bool",
          "name": "",
          "type": "bool"
        }
      ],
      "stateMutability": "view",
      "type": "function"
    },
    {
      "inputs": [
        {
          "internalType": "uint256",
          "name": "cents",
          "type": "uint256"
        }
      ],
      "name": "setBaseWagerInCents",
      "outputs": [],
      "stateMutability": "nonpayable",
      "type": "function"
    },
    {
      "inputs": [
        {
          "internalType": "uint256",
          "name": "cents",
          "type": "uint256"
        }
      ],
      "name": "setTierWagerInCents",
      "outputs": [],
      "stateMutability": "nonpayable",
      "type": "function"
    },
    {
      "inputs": [
        {
          "internalType": "uint8",
          "name": "factor",
          "type": "uint8"
        }
      ],
      "name": "setWageringFactor",
      "outputs": [],
      "stateMutability": "nonpayable",
      "type": "function"
    },
    {
      "inputs": [
        {
          "internalType": "uint256",
          "name": "percent",
          "type": "uint256"
        }
      ],
      "name": "setReRollFeePercent",
      "outputs": [],
      "stateMutability": "nonpayable",
      "type": "function"
    },
    {
      "inputs": [
        {
          "internalType": "uint256",
          "name": "percent",
          "type": "uint256"
        }
      ],
      "name": "setWithdrawFeePercent",
      "outputs": [],
      "stateMutability": "nonpayable",
      "type": "function"
    },
    {
      "inputs": [
        {
          "internalType": "uint256",
          "name": "secs",
          "type": "uint256"
        }
      ],
      "name": "setDecisionSeconds",
      "outputs": [],
      "stateMutability": "nonpayable",
      "type": "function"
    },
    {
      "inputs": [
        {
          "internalType": "uint256",
          "name": "accessFlags",
          "type": "uint256"
        }
      ],
      "name": "setArenaAccess",
      "outputs": [],
      "stateMutability": "nonpayable",
      "type": "function"
    },
    {
      "inputs": [
        {
          "internalType": "uint256",
          "name": "cost",
          "type": "uint256"
        }
      ],
      "name": "setDuelOffsetCost",
      "outputs": [],
      "stateMutability": "nonpayable",
      "type": "function"
    },
    {
      "inputs": [
        {
          "internalType": "address payable",
          "name": "botAddress",
          "type": "address"
        }
      ],
      "name": "setPvpBotAddress",
      "outputs": [],
      "stateMutability": "nonpayable",
      "type": "function"
    },
    {
      "inputs": [
        {
          "internalType": "uint256",
          "name": "linkId",
          "type": "uint256"
        },
        {
          "internalType": "address",
          "name": "linkAddress",
          "type": "address"
        }
      ],
      "name": "setLink",
      "outputs": [],
      "stateMutability": "nonpayable",
      "type": "function"
    },
    {
      "inputs": [
        {
          "internalType": "uint256",
          "name": "characterID",
          "type": "uint256"
        }
      ],
      "name": "forceRemoveCharacterFromArena",
      "outputs": [],
      "stateMutability": "nonpayable",
      "type": "function"
    }
  ],
  "bytecode": "0x608060405234801561001057600080fd5b50615092806100206000396000f3fe6080604052600436106103b85760003560e01c80639010d07c116101f2578063c98513161161010d578063d6984021116100a0578063f5974a9d1161006f578063f5974a9d14610dd3578063f732731a14610de8578063f8c8765e14610e12578063fd679e5d14610e5d576103b8565b8063d698402114610d40578063d86936c314610d6a578063eae007dc14610d94578063eb52547414610dbe576103b8565b8063d1ebdfd3116100dc578063d1ebdfd314610cb3578063d344a24414610cc8578063d547741f14610cf2578063d6714a1b14610d2b576103b8565b8063c985131614610c2d578063ca15c87314610c4a578063caab2f4d14610c74578063d070bb5414610c9e576103b8565b8063a9b97cec11610185578063bee666d811610154578063bee666d814610ba6578063c347f42214610bbb578063c3fe3e2814610bee578063c6fbbe1c14610c03576103b8565b8063a9b97cec14610b28578063b2b0521214610b52578063b7e1cd8614610b7c578063b9495bfc14610b91576103b8565b8063a217fddf116101c1578063a217fddf14610a8d578063a231da3c14610aa2578063a50376dc14610acc578063a6db4e4414610afe576103b8565b80639010d07c1461097657806391d14854146109c2578063939957c8146109fb5780639e00de8214610a78576103b8565b8063406d6cec116102e2578063592c73e81161027557806384399b051161024457806384399b05146108e057806387dad82f1461090d5780638972cd8d146109375780638ce639cf14610961576103b8565b8063592c73e8146108295780635cd4ca9e1461086257806371fb41af1461088c57806379cc60bd146108b6576103b8565b8063495ef705116102b1578063495ef705146107ab5780634f6cc3ca146107c05780635504d3d2146107ea578063582b6ced146107ff576103b8565b8063406d6cec146106bf57806341282a8f146107245780634177a81f14610757578063447cb89614610781576103b8565b806320eb39401161035a578063329d026f11610329578063329d026f1461061a57806336568abe1461064757806336786e6c146106805780633b1f4541146106aa576103b8565b806320eb394014610562578063248a9ca31461058c57806329602775146105b65780632f2ff15d146105e1576103b8565b806316c996011161039657806316c99601146104795780631783d0a9146104a5578063180677e4146104f05780631d73beb614610538576103b8565b80630828c521146103bd578063123b5946146103e4578063134a897b1461043b575b600080fd5b3480156103c957600080fd5b506103d2610e8a565b60408051918252519081900360200190f35b3480156103f057600080fd5b5061040e6004803603602081101561040757600080fd5b5035610e8f565b60408051958652602086019490945284840192909252606084015215156080830152519081900360a00190f35b34801561044757600080fd5b506104656004803603602081101561045e57600080fd5b5035610ec1565b604080519115158252519081900360200190f35b34801561048557600080fd5b506104a36004803603602081101561049c57600080fd5b5035610ed6565b005b3480156104b157600080fd5b506104d8600480360360408110156104c857600080fd5b508035906020013560ff16610ee3565b6040805162ffffff9092168252519081900360200190f35b3480156104fc57600080fd5b5061051a6004803603602081101561051357600080fd5b5035611136565b60408051938452602084019290925282820152519081900360600190f35b34801561054457600080fd5b506103d26004803603602081101561055b57600080fd5b5035611157565b34801561056e57600080fd5b506104a36004803603602081101561058557600080fd5b5035611169565b34801561059857600080fd5b506103d2600480360360208110156105af57600080fd5b5035611176565b3480156105c257600080fd5b506105cb61118e565b6040805160ff9092168252519081900360200190f35b3480156105ed57600080fd5b506104a36004803603604081101561060457600080fd5b50803590602001356001600160a01b0316611197565b34801561062657600080fd5b506104a36004803603602081101561063d57600080fd5b503560ff16611203565b34801561065357600080fd5b506104a36004803603604081101561066a57600080fd5b50803590602001356001600160a01b0316611221565b34801561068c57600080fd5b506104a3600480360360208110156106a357600080fd5b5035611282565b3480156106b657600080fd5b506103d261128f565b3480156106cb57600080fd5b506106d4611295565b60408051602080825283518183015283519192839290830191858101910280838360005b838110156107105781810151838201526020016106f8565b505050509050019250505060405180910390f35b34801561073057600080fd5b506104656004803603604081101561074757600080fd5b508035906020013560ff1661132d565b34801561076357600080fd5b506104a36004803603602081101561077a57600080fd5b5035611356565b34801561078d57600080fd5b506104a3600480360360208110156107a457600080fd5b5035611421565b3480156107b757600080fd5b506103d261142e565b3480156107cc57600080fd5b506103d2600480360360208110156107e357600080fd5b5035611434565b3480156107f657600080fd5b506103d2611456565b34801561080b57600080fd5b506104a36004803603602081101561082257600080fd5b5035611478565b34801561083557600080fd5b506104a36004803603604081101561084c57600080fd5b50803590602001356001600160a01b03166115cc565b34801561086e57600080fd5b506103d26004803603602081101561088557600080fd5b5035611602565b34801561089857600080fd5b50610465600480360360208110156108af57600080fd5b5035611617565b3480156108c257600080fd5b506103d2600480360360208110156108d957600080fd5b503561162c565b3480156108ec57600080fd5b506103d26004803603602081101561090357600080fd5b503560ff166117a7565b34801561091957600080fd5b506105cb6004803603602081101561093057600080fd5b50356117bd565b34801561094357600080fd5b506104a36004803603602081101561095a57600080fd5b5035611845565b34801561096d57600080fd5b506103d26119da565b34801561098257600080fd5b506109a66004803603604081101561099957600080fd5b50803590602001356119e0565b604080516001600160a01b039092168252519081900360200190f35b3480156109ce57600080fd5b50610465600480360360408110156109e557600080fd5b50803590602001356001600160a01b03166119fe565b348015610a0757600080fd5b506104a360048036036020811015610a1e57600080fd5b810190602081018135640100000000811115610a3957600080fd5b820183602082011115610a4b57600080fd5b80359060200191846020830284011164010000000083111715610a6d57600080fd5b509092509050611a1c565b348015610a8457600080fd5b506109a661222f565b348015610a9957600080fd5b506103d261223e565b348015610aae57600080fd5b506104a360048036036020811015610ac557600080fd5b5035612243565b348015610ad857600080fd5b506104a360048036036040811015610aef57600080fd5b50803590602001351515612282565b348015610b0a57600080fd5b506103d260048036036020811015610b2157600080fd5b50356129a3565b348015610b3457600080fd5b506103d260048036036020811015610b4b57600080fd5b50356129b5565b348015610b5e57600080fd5b506104a360048036036020811015610b7557600080fd5b5035612a00565b348015610b8857600080fd5b506109a6612a0d565b348015610b9d57600080fd5b506109a6612a1c565b348015610bb257600080fd5b506109a6612a2b565b348015610bc757600080fd5b506104a360048036036020811015610bde57600080fd5b50356001600160a01b0316612a3a565b348015610bfa57600080fd5b506109a6612a64565b348015610c0f57600080fd5b506104a360048036036020811015610c2657600080fd5b5035612a73565b6104a360048036036020811015610c4357600080fd5b5035612aae565b348015610c5657600080fd5b506103d260048036036020811015610c6d57600080fd5b5035612c85565b348015610c8057600080fd5b5061046560048036036020811015610c9757600080fd5b5035612c9c565b348015610caa57600080fd5b506109a6612cb1565b348015610cbf57600080fd5b506109a6612cc0565b348015610cd457600080fd5b5061046560048036036020811015610ceb57600080fd5b5035612ccf565b348015610cfe57600080fd5b506104a360048036036040811015610d1557600080fd5b50803590602001356001600160a01b0316612ce4565b348015610d3757600080fd5b506103d2612d3d565b348015610d4c57600080fd5b506103d260048036036020811015610d6357600080fd5b5035612d43565b348015610d7657600080fd5b5061046560048036036020811015610d8d57600080fd5b5035612d55565b348015610da057600080fd5b506105cb60048036036020811015610db757600080fd5b5035612dcb565b348015610dca57600080fd5b506109a6612de0565b348015610ddf57600080fd5b506103d2612def565b348015610df457600080fd5b506104a360048036036020811015610e0b57600080fd5b5035612df5565b348015610e1e57600080fd5b506104a360048036036080811015610e3557600080fd5b506001600160a01b0381358116916020810135821691604082013581169160600135166130af565b348015610e6957600080fd5b506103d260048036036020811015610e8057600080fd5b503560ff166133cd565b600181565b607660205260009081526040902080546001820154600283015460038401546004909401549293919290919060ff1685565b607b6020526000908152604090205460ff1681565b610ede6133e8565b607055565b606754600083815260766020908152604080832060010154606654825163acb586df60e01b815260048101899052925194958695869586956001600160a01b039384169563d58227c8959094169263acb586df92602480840193919291829003018186803b158015610f5457600080fd5b505afa158015610f68573d6000803e3d6000fd5b505050506040513d6020811015610f7e57600080fd5b5051604080516001600160e01b031960e086901b168152600481019390935260ff9091166024830152516044808301926080929190829003018186803b158015610fc757600080fd5b505afa158015610fdb573d6000803e3d6000fd5b505050506040513d6080811015610ff157600080fd5b5060208082015160409283015160008a81526076909352929091206004015490935090915060ff1615611066576110636064611054601461104560016110368c61341c565b600f0b9063ffffffff61353616565b600f0b9063ffffffff61356a16565b600f0b9063ffffffff6135a016565b92505b60008560ff16601414156110855761107e60226135f2565b9050611106565b60665460408051630219207560e61b8152600481018a90529051611103926001600160a01b0316916386481d40916024808301926020929190829003018186803b1580156110d257600080fd5b505afa1580156110e6573d6000803e3d6000fd5b505050506040513d60208110156110fc57600080fd5b50516135f2565b90505b61112962ffffff8216611123600f86900b8763ffffffff61364216565b84613675565b9450505050505b92915050565b60776020526000908152604090208054600182015460029092015490919083565b607c6020526000908152604090205481565b6111716133e8565b607155565b6000818152603360205260409020600201545b919050565b606d5460ff1681565b6000828152603360205260409020600201546111ba906111b56136a5565b6119fe565b6111f55760405162461bcd60e51b815260040180806020018281038252602f815260200180614f30602f913960400191505060405180910390fd5b6111ff82826136a9565b5050565b61120b6133e8565b606d805460ff191660ff92909216919091179055565b6112296136a5565b6001600160a01b0316816001600160a01b0316146112785760405162461bcd60e51b815260040180806020018281038252602f81526020018061502e602f913960400191505060405180910390fd5b6111ff8282613718565b61128a6133e8565b607255565b60705481565b606060006112a36074613787565b905060608167ffffffffffffffff811180156112be57600080fd5b506040519080825280602002602001820160405280156112e8578160200160208202803683370190505b50905060005b828110156113265761130760748263ffffffff61379216565b82828151811061131357fe5b60209081029190910101526001016112ee565b5091505090565b60ff81166000908152607f6020526040812061134f908463ffffffff61379e16565b9392505050565b60008181526081602052604090205481906001600160a01b0316331461137b57600080fd5b81611385816137aa565b8261138f816137f4565b8361139981613833565b600085815260776020526040902060020154156113e1576040805162461bcd60e51b81526020600482015260016024820152604d60f81b604482015290519081900360640190fd5b6000858152607d602052604081205460ff16601414156114035750601461140f565b61140c866117bd565b90505b6114198682613872565b505050505050565b6114296133e8565b606f55565b606f5481565b606d546000906111309060ff1661144a8461162c565b9063ffffffff613aee16565b604080516923a0a6a2afa0a226a4a760b11b8152905190819003600a01902081565b60008181526081602052604090205481906001600160a01b0316331461149d57600080fd5b816114a7816137aa565b826114b1816137f4565b836114bb81613833565b60008581526076602090815260408083206003810154607d9093529083205490929060ff16601414156114f0575060146114fc565b6114f9886117bd565b90505b600061150789611434565b60008a8152607760205260409020600201549091501561158457611547606461153b606f5484613aee90919063ffffffff16565b9063ffffffff613b4716565b8310156115575760009250611584565b611581611574606461153b606f5485613aee90919063ffffffff16565b849063ffffffff613bae16565b92505b61158e8983613c0b565b6000898152607e6020526040812081905560038501556069546115c1906001600160a01b0316338563ffffffff613e6f16565b505050505050505050565b6115d46133e8565b60009182526082602052604090912080546001600160a01b0319166001600160a01b03909216919091179055565b60009081526077602052604090206001015490565b60796020526000908152604090205460ff1681565b6000818152607d602052604081205460ff16601414156116cf57606554606c5460408051630a8a921560e01b8152600f92830b830b90920b6004830152516001600160a01b0390921691630a8a921591602480820192602092909190829003018186803b15801561169c57600080fd5b505afa1580156116b0573d6000803e3d6000fd5b505050506040513d60208110156116c657600080fd5b50519050611189565b606c5460009061170a90600160801b9004600f0b61104561170360646116f4886117bd565b60ff169063ffffffff613aee16565b6064613ec1565b606554606c549192506001600160a01b031690630a8a92159061173a90600f90810b900b8463ffffffff61364216565b6040518263ffffffff1660e01b81526004018082600f0b600f0b815260200191505060206040518083038186803b15801561177457600080fd5b505afa158015611788573d6000803e3d6000fd5b505050506040513d602081101561179e57600080fd5b50519392505050565b606d546000906111309060ff1661144a84613ef8565b60665460408051630219207560e61b815260048101849052905160009283926001600160a01b03909116916386481d4091602480820192602092909190829003018186803b15801561180e57600080fd5b505afa158015611822573d6000803e3d6000fd5b505050506040513d602081101561183857600080fd5b5051905061134f81613f87565b61184d6133e8565b80611857816137f4565b8161186181613833565b6000838152607660209081526040808320607d90925282205490919060ff16601414156118905750601461189c565b611899856117bd565b90505b600382015460006118ac87611434565b6000888152607760205260409020600201549091501561191d576118e0606461153b606f5484613aee90919063ffffffff16565b8210156118f0576000915061191d565b61191a61190d606461153b606f5485613aee90919063ffffffff16565b839063ffffffff613bae16565b91505b6119278784613c0b565b6000878152607e60209081526040808320839055600387019290925560665482516331a9108f60e11b8152600481018b905292516119d1936001600160a01b0390921692636352211e9260248082019391829003018186803b15801561198c57600080fd5b505afa1580156119a0573d6000803e3d6000fd5b505050506040513d60208110156119b657600080fd5b50516069546001600160a01b0316908463ffffffff613e6f16565b50505050505050565b60715481565b600082815260336020526040812061134f908363ffffffff61379216565b600082815260336020526040812061134f908363ffffffff613f9d16565b611a246133e8565b60005b8181101561222a57611a37614e6c565b611a52848484818110611a4657fe5b90506020020135613fb2565b80825251611a689060749063ffffffff61379e16565b611a725750612222565b805151611a8790611a8290611602565b613fb2565b6020828101919091528151516000908152607d909152604090205460ff1660141415611ab95760146040820152611ad1565b805160200151611ac890613f87565b60ff1660408201525b611ade8160400151613ef8565b60608201528051516040820151611af59190610ee3565b815162ffffff919091166080909101526020810151516040820151611b1a9190610ee3565b62ffffff1681602001516080018181525050611b478160000151826020015160400151836040015161405b565b815162ffffff9091166060909101526020810151815160409081015190830151611b7292919061405b565b60208083015162ffffff90921660609092019190915281515160009081526076909152604090206004015460ff1615611c9d57606854815151600090815260766020908152604080832060020154815163acb586df60e01b8152600481019190915290516003946001600160a01b03169263acb586df9260248082019391829003018186803b158015611c0457600080fd5b505afa158015611c18573d6000803e3d6000fd5b505050506040513d6020811015611c2e57600080fd5b5051602084015160400151909150611c4790829061421f565b15611c5157600a91505b611c88606461153b611c6e8262ffffff871663ffffffff613bae16565b60208701516060015162ffffff169063ffffffff613aee16565b602084015162ffffff90911660609091015250505b6020808201515160009081526076909152604090206004015460ff1615611db25760685460208083015151600090815260768252604080822060020154815163acb586df60e01b81526004810191909152905160039492936001600160a01b039093169263acb586df9260248082019391829003018186803b158015611d2257600080fd5b505afa158015611d36573d6000803e3d6000fd5b505050506040513d6020811015611d4c57600080fd5b5051835160400151909150611d6290829061421f565b15611d6c57600a91505b611da0606461153b611d898262ffffff871663ffffffff613bae16565b86516060015162ffffff169063ffffffff613aee16565b835162ffffff90911660609091015250505b602081015160609081015182519091015162ffffff9182169116101560808201819052600090611de757602082015151611deb565b8151515b905060008260800151611e0057825151611e07565b6020830151515b83515190915082148015611e2a5750826020015160800151836000015160800151105b15611e5357611e49836000015160800151846020015160800151614242565b60a0840152611e9b565b60208301515182148015611e765750826020015160800151836000015160800151115b15611e9b57611e95836020015160800151846000015160800151614242565b60a08401525b602080840151805185518051606091820151938201516080808a015160a0808c01516040805142815262ffffff9a8b169b81019b909b52989094168989015290151594880194909452860152925191937fd5e813a6e9b83d4a4a28930587fae27babef1714015ee302198e9019b4740691929081900390910190a3606b546060840151604080516358c2b0bf60e11b81526004810192909252805160009384936001600160a01b039091169263b185617e92602480840193829003018186803b158015611f6757600080fd5b505afa158015611f7b573d6000803e3d6000fd5b505050506040513d6040811015611f9157600080fd5b50805160209182015160008781526076909352604090922060030154909350909150611fc3908363ffffffff61437f16565b60008581526076602052604080822060039081019390935560608801518683529082209092015490911115611ffa57506000612023565b60608601516000858152607660205260409020600301546120209163ffffffff613bae16565b90505b60008481526076602081815260408084206003018581558a5151855260778352818520858155600181018690556002018590558a83018051518652607c845282862086905551518552607b8352908420805460ff1916905560608a0151938890529190525410806120bb57506120a7606461153b606f5461144a8a604001516117a7565b600085815260766020526040902060030154105b1561210c576120ce848760400151613c0b565b60408051868152426020820152815186927fcbcc502324fd245cc282fbc26877f3c608e64f5c640e8664669bf8b09b15264b928290030190a2612132565b60408087015160ff166000908152607f60205220612130908563ffffffff6143d916565b505b60408087015160ff166000908152607f60205220612156908663ffffffff6143d916565b50606b5460a087015160408089015181516303dca99960e01b8152600481018a905260248101899052604481019390935260ff16606483015260848201859052516001600160a01b03909216916303dca9999160a48082019260009290919082900301818387803b1580156121ca57600080fd5b505af11580156121de573d6000803e3d6000fd5b5050606b5460695461220593506001600160a01b039081169250168463ffffffff613e6f16565b85515161221a9060749063ffffffff6143e516565b505050505050505b600101611a27565b505050565b6068546001600160a01b031681565b600081565b61224b6133e8565b612256816064613ec1565b606c60106101000a8154816001600160801b030219169083600f0b6001600160801b0316021790555050565b60016000818152608260209081527fe4ad88b2403cedd4779f1ce7b6d5ccff77daf92d1e86668e8aeebf70585977d6546066546040805163695d4da560e01b81526001600160a01b03928316600482015260248101899052604481019690965251911693849263695d4da592606480840193829003018186803b15801561230857600080fd5b505afa15801561231c573d6000803e3d6000fd5b505050506040513d602081101561233257600080fd5b50516066546040805163695d4da560e01b81526001600160a01b039283166004820152602481018890526002604482015290519293506000929185169163695d4da591606480820192602092909190829003018186803b15801561239557600080fd5b505afa1580156123a9573d6000803e3d6000fd5b505050506040513d60208110156123bf57600080fd5b505160665460408051631b1bd8ab60e11b81526001600160a01b0392831660048201526024810189905260026044820152905192935060009291861691633637b15691606480820192602092909190829003018186803b15801561242257600080fd5b505afa158015612436573d6000803e3d6000fd5b505050506040513d602081101561244c57600080fd5b5051606654604080516331a9108f60e11b8152600481018a9052905192935033926001600160a01b0390921691636352211e91602480820192602092909190829003018186803b15801561249f57600080fd5b505afa1580156124b3573d6000803e3d6000fd5b505050506040513d60208110156124c957600080fd5b50516001600160a01b031614801561255d57506066546040805163783efb2560e01b8152600481018990526001602482015290516001600160a01b039092169163783efb2591604480820192602092909190829003018186803b15801561252f57600080fd5b505afa158015612543573d6000803e3d6000fd5b505050506040513d602081101561255957600080fd5b5051155b61256657600080fd5b606654604080516322eddfb560e21b81526004810189905290516001600160a01b0390921691638bb77ed491602480820192602092909190829003018186803b1580156125b257600080fd5b505afa1580156125c6573d6000803e3d6000fd5b505050506040513d60208110156125dc57600080fd5b50516125e757600080fd5b607154600116600114612625576040805162461bcd60e51b81526020600482015260016024820152601360fa1b604482015290519081900360640190fd5b6000851561263557506014612641565b61263e876117bd565b90505b600061264c826117a7565b6000898152608160205260409020549091506001600160a01b0316331461268c57600088815260816020526040902080546001600160a01b031916331790555b6000888152607d602052604090205460ff83811691161461271357606b5460408051636166c2b960e01b8152600481018b905260006024820181905291516001600160a01b0390931692636166c2b99260448084019391929182900301818387803b1580156126fa57600080fd5b505af115801561270e573d6000803e3d6000fd5b505050505b606b546040805163733a485b60e01b8152336004820152602481018b905260ff8516604482015290516001600160a01b039092169163733a485b9160648082019260009290919082900301818387803b15801561276f57600080fd5b505af1158015612783573d6000803e3d6000fd5b505050600089815260786020526040808220805460ff191660019081179091556066548251631f771def60e31b8152600481018e905260248101839052604481019290925291516001600160a01b03909216935063fbb8ef7892606480830193919282900301818387803b1580156127fa57600080fd5b505af115801561280e573d6000803e3d6000fd5b5050506000898152607e60205260408120549091501561283d57506000888152607e6020526040902054612851565b506000888152607660205260409020600301545b60ff83166000908152607f60205260409020612873908a63ffffffff6143d916565b506040518060a001604052808a81526020018781526020018681526020016128a4838561437f90919063ffffffff16565b815285151560209182015260008b815260768252604080822084518155848401516001820155848201516002820155606085015160038201556080909401516004948501805491151560ff19928316179055607d8452818320805460ff8a169216919091179055607e835280822082905560695481516323b872dd60e01b815233958101959095523060248601526044850187905290516001600160a01b03909116936323b872dd936064808301949193928390030190829087803b15801561296c57600080fd5b505af1158015612980573d6000803e3d6000fd5b505050506040513d602081101561299657600080fd5b5050505050505050505050565b607e6020526000908152604090205481565b6000818152607d6020526040812054819060ff16601414156129d9575060146129e5565b6129e2836117bd565b90505b60ff81166000908152607f6020526040902061134f90613787565b612a086133e8565b606e55565b6067546001600160a01b031681565b606b546001600160a01b031681565b606a546001600160a01b031681565b612a426133e8565b607380546001600160a01b0319166001600160a01b0392909216919091179055565b6065546001600160a01b031681565b612a7b6133e8565b612a86816064613ec1565b606c8054600f9290920b6001600160801b03166001600160801b031990921691909117905550565b60008181526081602052604090205481906001600160a01b03163314612ad357600080fd5b81612add816137aa565b82612ae7816143f1565b83612af181613833565b607154600116600114612b0357600080fd5b6072543414612b3d576040805162461bcd60e51b81526020600482015260016024820152604f60f81b604482015290519081900360640190fd5b6000612b4886611602565b606b546040805163172766fb60e21b8152336004820152602481018a905290519293506001600160a01b0390911691635c9d9bec9160448082019260009290919082900301818387803b158015612b9e57600080fd5b505af1158015612bb2573d6000803e3d6000fd5b5050606b546040805163172766fb60e21b81523360048201526024810186905290516001600160a01b039092169350635c9d9bec925060448082019260009290919082900301818387803b158015612c0957600080fd5b505af1158015612c1d573d6000803e3d6000fd5b5050506000828152607b60205260409020805460ff1916600117905550612c4b60748763ffffffff6143d916565b506073546040516001600160a01b03909116903480156108fc02916000818181858888f193505050501580156119d1573d6000803e3d6000fd5b600081815260336020526040812061113090613787565b60786020526000908152604090205460ff1681565b6066546001600160a01b031681565b6069546001600160a01b031681565b607a6020526000908152604090205460ff1681565b600082815260336020526040902060020154612d02906111b56136a5565b6112785760405162461bcd60e51b8152600401808060200182810382526030815260200180614f856030913960400191505060405180910390fd5b606e5481565b60806020526000908152604090205481565b6000818152607c6020526040812054612db3576000805260776020527f5bc4dfdf00d266d79007b974fdf03467b7a6429c65a950cd7d967e8c7af65da754821415612dab57612da4600061442f565b9050611189565b506000611189565b6000828152607c60205260409020546111309061442f565b607d6020526000908152604090205460ff1681565b6073546001600160a01b031681565b60725481565b80612dff816137aa565b81612e09816137f4565b60008381526081602052604090205483906001600160a01b03163314612e2e57600080fd5b83612e3881613833565b6000612e4386611602565b6000878152607d60205260408120549192509060ff1660141415612e6957506014612e75565b612e72876117bd565b90505b600087815260776020526040902060020154612ebc576040805162461bcd60e51b81526020600482015260016024820152602960f91b604482015290519081900360640190fd5b6000828152607c60209081526040808320839055607890915290205460ff1615612f045760ff81166000908152607f60205260409020612f02908363ffffffff6143d916565b505b612f0e8782613872565b6000878152607660209081526040808320600101546067548251633d76f98960e21b81526004810183905292519194936001600160a01b039091169263f5dbe6249260248083019392829003018186803b158015612f6b57600080fd5b505afa158015612f7f573d6000803e3d6000fd5b505050506040513d6020811015612f9557600080fd5b505162ffffff16118015612fb6575060008181526080602052604090205442115b15612fd657600081815260806020526040902062015180420190556130a5565b606960009054906101000a90046001600160a01b03166001600160a01b03166323b872dd3330613010606461153b606e5461144a8a613ef8565b6040518463ffffffff1660e01b815260040180846001600160a01b03166001600160a01b03168152602001836001600160a01b03166001600160a01b031681526020018281526020019350505050602060405180830381600087803b15801561307857600080fd5b505af115801561308c573d6000803e3d6000fd5b505050506040513d60208110156130a257600080fd5b50505b5050505050505050565b600054610100900460ff16806130c857506130c861445e565b806130d6575060005460ff16155b6131115760405162461bcd60e51b815260040180806020018281038252602e815260200180614fb5602e913960400191505060405180910390fd5b600054610100900460ff1615801561313c576000805460ff1961ff0019909116610100171660011790555b61314461446f565b61314f6000336111f5565b606580546001600160a01b0319166001600160a01b0387811691909117918290556040805163341c2ed560e21b81529051929091169163d070bb5491600480820192602092909190829003018186803b1580156131ab57600080fd5b505afa1580156131bf573d6000803e3d6000fd5b505050506040513d60208110156131d557600080fd5b5051606680546001600160a01b0319166001600160a01b0392831617905560655460408051635bf0e6c360e11b81529051919092169163b7e1cd86916004808301926020929190829003018186803b15801561323057600080fd5b505afa158015613244573d6000803e3d6000fd5b505050506040513d602081101561325a57600080fd5b5051606780546001600160a01b03199081166001600160a01b0393841617909155606880549091168683161790556065546040805163d1ebdfd360e01b81529051919092169163d1ebdfd3916004808301926020929190829003018186803b1580156132c557600080fd5b505afa1580156132d9573d6000803e3d6000fd5b505050506040513d60208110156132ef57600080fd5b5051606980546001600160a01b03199081166001600160a01b0393841617909155606a80548216868416179055606b80549091169184169190911790556133396101f46064613ec1565b606c8054600f9290920b6001600160801b03166001600160801b031990921691909117905561336a60326064613ec1565b606c8054600f9290920b6001600160801b03908116600160801b029216919091179055606d805460ff191660031790556019606e819055606f5560786070556611c37937e0800060725580156133c6576000805461ff00191690555b5050505050565b60ff81166000908152607f6020526040812061113090613787565b604080516923a0a6a2afa0a226a4a760b11b8152905190819003600a01902061341190336119fe565b61341a57600080fd5b565b6066546040805163acb586df60e01b815260048101849052905160009283926001600160a01b039091169163acb586df91602480820192602092909190829003018186803b15801561346d57600080fd5b505afa158015613481573d6000803e3d6000fd5b505050506040513d602081101561349757600080fd5b5051600084815260766020908152604080832060020154606854825163f5de8f4b60e01b81526004810183905260ff87166024820152925195965090946001600160a01b039091169263f5de8f4b9260448082019391829003018186803b15801561350157600080fd5b505afa158015613515573d6000803e3d6000fd5b505050506040513d602081101561352b57600080fd5b505195945050505050565b6000600f82810b9084900b0360016001607f1b03198112801590613561575060016001607f1b038113155b61134f57600080fd5b6000600f83810b9083900b0260401d60016001607f1b03198112801590613561575060016001607f1b0381131561134f57600080fd5b600081600f0b600014156135b357600080fd5b600082600f0b604085600f0b901b816135c857fe5b05905060016001607f1b03198112801590613561575060016001607f1b0381131561134f57600080fd5b600061113061361c600161361060ff8616600a63ffffffff613b4716565b9063ffffffff61437f16565b61144a61363360ff8616600a63ffffffff613aee16565b6103e89063ffffffff61437f16565b6000600f83810b9083900b0160016001607f1b03198112801590613561575060016001607f1b0381131561134f57600080fd5b600061369d6103e8613610606461153b62ffffff871683600f8a900b8b63ffffffff61451016565b949350505050565b3390565b60008281526033602052604090206136c7908263ffffffff61457816565b156111ff576136d46136a5565b6001600160a01b0316816001600160a01b0316837f2f8788117e7eff1d82e926ec794901d17c78024a50270940304540a733656f0d60405160405180910390a45050565b6000828152603360205260409020613736908263ffffffff61458d16565b156111ff576137436136a5565b6001600160a01b0316816001600160a01b0316837ff6391f5c32d9c69d2a47ea670b442974b53935d1edc7fd64eb21e047a839171b60405160405180910390a45050565b6000611130826145a2565b600061134f83836145a6565b600061134f838361460a565b60008181526078602052604090205460ff166137f1576040805162461bcd60e51b81526020600482015260016024820152602760f91b604482015290519081900360640190fd5b50565b6137fd81612d55565b156137f1576040805162461bcd60e51b81526020600482015260016024820152605560f81b604482015290519081900360640190fd5b61383c81614622565b156137f1576040805162461bcd60e51b81526020600482015260016024820152605160f81b604482015290519081900360640190fd5b60ff81166000908152607f6020526040902061388d81613787565b6138c2576040805162461bcd60e51b81526020600482015260016024820152601360fa1b604482015290519081900360640190fd5b606a5460408051630e20f61560e21b815233600482015290516000926001600160a01b031691633883d854916024808301926020929190829003018186803b15801561390d57600080fd5b505afa158015613921573d6000803e3d6000fd5b505050506040513d602081101561393757600080fd5b50519050600061395381600161394c86613787565b0384614651565b905060008061396185613787565b90506000805b82811015613a2f576000838287018161397c57fe5b0690506000613991898363ffffffff61379216565b90508a8114156139f45784600114156139ab575050613a2f565b806139c08a600019880163ffffffff61379216565b14156139de576139d789600063ffffffff61379216565b90506139f4565b6139f1896001840163ffffffff61379216565b90505b6000818152608160205260409020546001600160a01b0316331415613a1a575050613a27565b945060019250613a2f9050565b600101613967565b5080613a66576040805162461bcd60e51b81526020600482015260016024820152604560f81b604482015290519081900360640190fd5b6040805160608101825289815260208082018681524283850190815260008d815260778452858120945185559151600185015551600290930192909255858252607c81528282208b905560ff8a168252607f905220613acb908963ffffffff6143e516565b5060ff87166000908152607f602052604090206115c1908463ffffffff6143e516565b600082613afd57506000611130565b82820282848281613b0a57fe5b041461134f5760405162461bcd60e51b8152600401808060200182810382526021815260200180614fe36021913960400191505060405180910390fd5b6000808211613b9d576040805162461bcd60e51b815260206004820152601a60248201527f536166654d6174683a206469766973696f6e206279207a65726f000000000000604482015290519081900360640190fd5b818381613ba657fe5b049392505050565b600082821115613c05576040805162461bcd60e51b815260206004820152601e60248201527f536166654d6174683a207375627472616374696f6e206f766572666c6f770000604482015290519081900360640190fd5b50900390565b81613c15816137aa565b6000838152607660209081526040808320600181015460028201546003830154607e9095529290942092909255600482015491929160ff1615613cd6576000818152607a6020526040808220805460ff191690556068548151631f771def60e31b815260048101859052600160248201526044810184905291516001600160a01b039091169263fbb8ef78926064808201939182900301818387803b158015613cbd57600080fd5b505af1158015613cd1573d6000803e3d6000fd5b505050505b600086815260766020908152604080832083815560018082018590556002808301869055600383018690556004909201805460ff19169055607784528285208581559081018590550183905560ff88168352607f9091529020613d3f908763ffffffff61379e16565b15613d685760ff85166000908152607f60205260409020613d66908763ffffffff6143e516565b505b6000868152607860209081526040808320805460ff19908116909155858452607990925280832080549092169091556066548151631f771def60e31b8152600481018a9052600160248201526044810184905291516001600160a01b039091169263fbb8ef78926064808201939182900301818387803b158015613deb57600080fd5b505af1158015613dff573d6000803e3d6000fd5b505060675460408051631f771def60e31b8152600481018790526001602482015260006044820181905291516001600160a01b03909316945063fbb8ef7893506064808201939182900301818387803b158015613e5b57600080fd5b505af11580156130a2573d6000803e3d6000fd5b604080516001600160a01b038416602482015260448082018490528251808303909101815260649091019091526020810180516001600160e01b031663a9059cbb60e01b17905261222a9084906146bb565b600081613ecd57600080fd5b6000613ed9848461476c565b905060016001607f1b036001600160801b038216111561134f57600080fd5b60008160ff1660141415613f5c57606554606c5460408051630a8a921560e01b8152600f92830b830b90920b6004830152516001600160a01b0390921691630a8a921591602480820192602092909190829003018186803b15801561169c57600080fd5b606c5460009061170a90600160801b9004600f0b61104561170360ff8716606463ffffffff613aee16565b600061113060ff8316600a63ffffffff613b4716565b600061134f836001600160a01b03841661460a565b613fba614eae565b81815260665460408051634a83e9cd60e11b81526004810185905290516001600160a01b0390921691639507d39a9160248082019261014092909190829003018186803b15801561400a57600080fd5b505afa15801561401e573d6000803e3d6000fd5b505050506040513d61014081101561403557600080fd5b5060208082015160409283015160ff908116938501939093529190911690820152919050565b60008061406c856000015184610ee3565b9050614076614edc565b5084516000908152607660209081526040808320815160a0810183528154815260018201548185018190526002830154828501526003830154606083015260049283015460ff1615156080830152606a548b5187526081865284872054855163319b22a760e01b81526001600160a01b039182169581019590955260001943014060248601529451929691959194169263319b22a79260448083019392829003018186803b15801561412757600080fd5b505afa15801561413b573d6000803e3d6000fd5b505050506040513d602081101561415157600080fd5b50516067546040805163acb586df60e01b81526004810186905290519293506000926001600160a01b039092169163acb586df91602480820192602092909190829003018186803b1580156141a557600080fd5b505afa1580156141b9573d6000803e3d6000fd5b505050506040513d60208110156141cf57600080fd5b505160408a01519091506000906141e790838b6148b6565b905060006141fa8762ffffff16856149ff565b9050614210600f83900b8263ffffffff61451016565b9b9a5050505050505050505050565b60008160ff1660048460010160ff168161423557fe5b0660ff1614905092915050565b6000808061425c606461153b86605a63ffffffff613aee16565b90506000614276606461153b87606e63ffffffff613aee16565b90506000614290606461153b89605a63ffffffff613aee16565b905060006142aa606461153b8a606e63ffffffff613aee16565b905060006142be848663ffffffff613bae16565b905060006142d2838563ffffffff613bae16565b905060006142e6848863ffffffff613bae16565b905060006142ff8461153b84606463ffffffff613aee16565b905060006143188461153b85606463ffffffff613aee16565b90506000614337614e2061153b606461144a878763ffffffff613aee16565b9050603281101561436e5761435b61435660328363ffffffff613bae16565b614a44565b9b506111309a5050505050505050505050565b505050505050505050505092915050565b60008282018381101561134f576040805162461bcd60e51b815260206004820152601b60248201527f536166654d6174683a206164646974696f6e206f766572666c6f770000000000604482015290519081900360640190fd5b600061134f8383614ac2565b600061134f8383614b0c565b6143fa8161442f565b6137f1576040805162461bcd60e51b81526020600482015260016024820152601160fa1b604482015290519081900360640190fd5b607054600082815260776020526040812060020154909142916144579163ffffffff61437f16565b1192915050565b600061446930614bd2565b15905090565b600054610100900460ff1680614488575061448861445e565b80614496575060005460ff16155b6144d15760405162461bcd60e51b815260040180806020018281038252602e815260200180614fb5602e913960400191505060405180910390fd5b600054610100900460ff161580156144fc576000805460ff1961ff0019909116610100171660011790555b80156137f1576000805461ff001916905550565b60008161451f57506000611130565b600083600f0b121561453057600080fd5b600f83900b6001600160801b038316810260401c90608084901c026001600160c01b0381111561455f57600080fd5b60401b811981111561457057600080fd5b019392505050565b600061134f836001600160a01b038416614ac2565b600061134f836001600160a01b038416614b0c565b5490565b815460009082106145e85760405162461bcd60e51b8152600401808060200182810382526022815260200180614f0e6022913960400191505060405180910390fd5b8260000182815481106145f757fe5b9060005260206000200154905092915050565b60009081526001919091016020526040902054151590565b600061463560748363ffffffff61379e16565b806111305750506000908152607b602052604090205460ff1690565b6000806146696001613610868863ffffffff613bae16565b604080516020808201879052825180830382018152918301909252805191012090915060009061469f908363ffffffff614bd816565b90506146b1818763ffffffff61437f16565b9695505050505050565b6060614710826040518060400160405280602081526020017f5361666545524332303a206c6f772d6c6576656c2063616c6c206661696c6564815250856001600160a01b0316614c3f9092919063ffffffff16565b80519091501561222a5780806020019051602081101561472f57600080fd5b505161222a5760405162461bcd60e51b815260040180806020018281038252602a815260200180615004602a913960400191505060405180910390fd5b60008161477857600080fd5b60006001600160c01b03841161479d5782604085901b8161479557fe5b0490506148a2565b60c084811c64010000000081106147b6576020918201911c5b6201000081106147c8576010918201911c5b61010081106147d9576008918201911c5b601081106147e9576004918201911c5b600481106147f9576002918201911c5b60028110614808576001820191505b60bf820360018603901c6001018260ff0387901b8161482357fe5b0492506001600160801b0383111561483a57600080fd5b608085901c83026001600160801b038616840260c088901c604089901b82811015614866576001820391505b608084901b9290038281101561487d576001820391505b829003608084901c821461488d57fe5b88818161489657fe5b04870196505050505050505b6001600160801b0381111561134f57600080fd5b6000806148c36001614c4e565b90506000606560009054906101000a90046001600160a01b03166001600160a01b0316637d3eb7d36040518163ffffffff1660e01b815260040160206040518083038186803b15801561491557600080fd5b505afa158015614929573d6000803e3d6000fd5b505050506040513d602081101561493f57600080fd5b50519050600061495160326064613ec1565b90508560ff168760ff16141561498d5761498a614979600f84900b600363ffffffff61356a16565b600f85900b9063ffffffff61364216565b92505b614997878661421f565b156149ba576149b3614979600f84900b8363ffffffff61356a16565b92506149f4565b6149c4858861421f565b156149f4576149f16149e0600f84900b8363ffffffff61356a16565b600f85900b9063ffffffff61353616565b92505b509095945050505050565b600080614a1384600a63ffffffff613b4716565b905061369d614a346000614a2e84600263ffffffff613aee16565b86614651565b613610868463ffffffff613bae16565b600060288211614a6657612da4603583900a603284900a63ffffffff613b4716565b612da46007613610614a956030614a89600a61153b89600d63ffffffff613aee16565b9063ffffffff613bae16565b60020a614ab36030614a89600a61153b8a600d63ffffffff613aee16565b60030a9063ffffffff613b4716565b6000614ace838361460a565b614b0457508154600181810184556000848152602080822090930184905584548482528286019093526040902091909155611130565b506000611130565b60008181526001830160205260408120548015614bc85783546000198083019190810190600090879083908110614b3f57fe5b9060005260206000200154905080876000018481548110614b5c57fe5b600091825260208083209091019290925582815260018981019092526040902090840190558654879080614b8c57fe5b60019003818190600052602060002001600090559055866001016000878152602001908152602001600020600090556001945050505050611130565b6000915050611130565b3b151590565b6000808211614c2e576040805162461bcd60e51b815260206004820152601860248201527f536166654d6174683a206d6f64756c6f206279207a65726f0000000000000000604482015290519081900360640190fd5b818381614c3757fe5b069392505050565b606061369d8484600085614c6c565b6000677fffffffffffffff821115614c6557600080fd5b5060401b90565b606082471015614cad5760405162461bcd60e51b8152600401808060200182810382526026815260200180614f5f6026913960400191505060405180910390fd5b614cb685614bd2565b614d07576040805162461bcd60e51b815260206004820152601d60248201527f416464726573733a2063616c6c20746f206e6f6e2d636f6e7472616374000000604482015290519081900360640190fd5b60006060866001600160a01b031685876040518082805190602001908083835b60208310614d465780518252601f199092019160209182019101614d27565b6001836020036101000a03801982511681845116808217855250505050505090500191505060006040518083038185875af1925050503d8060008114614da8576040519150601f19603f3d011682016040523d82523d6000602084013e614dad565b606091505b5091509150614dbd828286614dc8565b979650505050505050565b60608315614dd757508161134f565b825115614de75782518084602001fd5b8160405162461bcd60e51b81526004018080602001828103825283818151815260200191508051906020019080838360005b83811015614e31578181015183820152602001614e19565b50505050905090810190601f168015614e5e5780820380516001836020036101000a031916815260200191505b509250505060405180910390fd5b6040518060c00160405280614e7f614eae565b8152602001614e8c614eae565b8152600060208201819052604082018190526060820181905260809091015290565b6040805160a08101825260008082526020820181905291810182905260608101829052608081019190915290565b6040518060a0016040528060008152602001600081526020016000815260200160008152602001600015158152509056fe456e756d657261626c655365743a20696e646578206f7574206f6620626f756e6473416363657373436f6e74726f6c3a2073656e646572206d75737420626520616e2061646d696e20746f206772616e74416464726573733a20696e73756666696369656e742062616c616e636520666f722063616c6c416363657373436f6e74726f6c3a2073656e646572206d75737420626520616e2061646d696e20746f207265766f6b65496e697469616c697a61626c653a20636f6e747261637420697320616c726561647920696e697469616c697a6564536166654d6174683a206d756c7469706c69636174696f6e206f766572666c6f775361666545524332303a204552433230206f7065726174696f6e20646964206e6f742073756363656564416363657373436f6e74726f6c3a2063616e206f6e6c792072656e6f756e636520726f6c657320666f722073656c66a264697066735822122058593a5a6cddfb245526f67e58978a81002ad55b9d1f167536c690bcb5f5345364736f6c63430006050033",
  "immutableReferences": {},
  "source": "pragma solidity ^0.6.0;\nimport \"@openzeppelin/contracts-upgradeable/proxy/Initializable.sol\";\nimport \"@openzeppelin/contracts-upgradeable/access/AccessControlUpgradeable.sol\";\nimport \"@openzeppelin/contracts/math/SafeMath.sol\";\nimport \"@openzeppelin/contracts/token/ERC20/IERC20.sol\";\nimport \"@openzeppelin/contracts/token/ERC20/SafeERC20.sol\";\nimport \"@openzeppelin/contracts/utils/EnumerableSet.sol\";\nimport \"./interfaces/IRandoms.sol\";\nimport \"./cryptoblades.sol\";\nimport \"./characters.sol\";\nimport \"./weapons.sol\";\nimport \"./shields.sol\";\nimport \"./common.sol\";\nimport \"./PvpRankings.sol\";\nimport \"./EquipmentManager.sol\";\n\ncontract PvpCore is Initializable, AccessControlUpgradeable {\n    using EnumerableSet for EnumerableSet.UintSet;\n    using SafeMath for uint8;\n    using SafeMath for uint24;\n    using SafeMath for uint256;\n    using ABDKMath64x64 for int128;\n    using SafeERC20 for IERC20;\n\n    struct Fighter {\n        uint256 characterID;\n        uint256 weaponID;\n        uint256 shieldID;\n        uint256 wager;\n        bool useShield;\n    }\n\n    struct Match {\n        uint256 attackerID;\n        uint256 defenderID;\n        uint256 createdAt;\n    }\n\n    struct Duelist {\n        uint256 ID;\n        uint8 level;\n        uint8 trait;\n        uint24 roll;\n        uint256 power;\n    }\n\n    struct Duel {\n        Duelist attacker;\n        Duelist defender;\n        uint8 tier;\n        uint256 cost;\n        bool attackerWon;\n        uint256 bonusRank;\n    }\n\n    bytes32 public constant GAME_ADMIN = keccak256(\"GAME_ADMIN\");\n\n    CryptoBlades public game;\n    Characters public characters;\n    Weapons public weapons;\n    Shields public shields;\n    IERC20 public skillToken;\n    IRandoms public randoms;\n    PvpRankings public pvprankings;\n\n    /// @dev the base amount wagered per duel in dollars\n    int128 private _baseWagerUSD;\n    /// @dev how much extra USD is wagered per level tier\n    int128 private _tierWagerUSD;\n    /// @dev how many times the cost of battling must be wagered to enter the arena\n    uint8 public wageringFactor;\n    /// @dev percentage of duel cost charged when rerolling opponent\n    uint256 public reRollFeePercent;\n    /// @dev percentage of entry wager charged when withdrawing from arena with pending duel\n    uint256 public withdrawFeePercent;\n    /// @dev amount of time a match finder has to make a decision\n    uint256 public decisionSeconds;\n    /// @dev allows or blocks entering arena (we can extend later to disable other parts such as rerolls)\n    uint256 public arenaAccess; // 0 = cannot join, 1 = can join\n    /// @dev value sent by players to offset bot's duel costs\n    uint256 public duelOffsetCost;\n    /// @dev PvP bot address\n    address payable public pvpBotAddress;\n    /// @dev characters by id that are on queue to perform a duel\n    EnumerableSet.UintSet private _duelQueue;\n\n    /// @dev Fighter by characterID\n    mapping(uint256 => Fighter) public fighterByCharacter;\n    /// @dev Active match by characterID of the finder\n    mapping(uint256 => Match) public matchByFinder;\n    /// @dev if character is currently in the arena\n    mapping(uint256 => bool) public isCharacterInArena;\n    /// @dev if weapon is currently in the arena\n    mapping(uint256 => bool) public isWeaponInArena;\n    /// @dev if shield is currently in the arena\n    mapping(uint256 => bool) public isShieldInArena;\n    /// @dev if defender is in a duel that has not finished processing\n    mapping(uint256 => bool) public isDefending;\n    /// @dev if a character is someone else's opponent\n    mapping(uint256 => uint256) public finderByOpponent;\n    /// @dev character's tier when it last entered arena. Used to reset rank if it changes\n    mapping(uint256 => uint8) public previousTierByCharacter;\n    /// @dev excess wager by character for when they re-enter the arena\n    mapping(uint256 => uint256) public excessWagerByCharacter;\n    /// @dev IDs of characters available for matchmaking by tier\n    mapping(uint8 => EnumerableSet.UintSet) private _matchableCharactersByTier;\n    /// @dev special weapon reroll timestamp\n    mapping(uint256 => uint256) public specialWeaponRerollTimestamp;\n    /// @dev owner's address by character ID\n    mapping(uint256 => address) private _ownerByCharacter;\n\n    \n    uint256 public constant LINK_EQUIPMENT_MANAGER = 1;\n\n    mapping(uint256 => address) private links;\n    \n    event DuelFinished(\n        uint256 indexed attacker,\n        uint256 indexed defender,\n        uint256 timestamp,\n        uint256 attackerRoll,\n        uint256 defenderRoll,\n        bool attackerWon,\n        uint256 bonusRank\n    );\n\n    event CharacterKicked(\n        uint256 indexed characterID,\n        uint256 kickedBy,\n        uint256 timestamp\n    );\n\n    modifier characterInArena(uint256 characterID) {\n        _characterInArena(characterID);\n        _;\n    }\n\n    function _characterInArena(uint256 characterID) internal view {\n        require(isCharacterInArena[characterID], \"N\");\n    }\n\n    modifier characterWithinDecisionTime(uint256 characterID) {\n        _characterWithinDecisionTime(characterID);\n        _;\n    }\n\n    function _characterWithinDecisionTime(uint256 characterID) internal view {\n        require(\n            isCharacterWithinDecisionTime(characterID),\n            \"D\"\n        );\n    }\n\n    modifier characterNotUnderAttack(uint256 characterID) {\n        _characterNotUnderAttack(characterID);\n        _;\n    }\n\n    function _characterNotUnderAttack(uint256 characterID) internal view {\n        require(!isCharacterUnderAttack(characterID), \"U\");\n    }\n\n    modifier characterNotInDuel(uint256 characterID) {\n        _characterNotInDuel(characterID);\n        _;\n    }\n\n    function _characterNotInDuel(uint256 characterID) internal view {\n        require(!isCharacterInDuel(characterID), \"Q\");\n    }\n\n    modifier isOwnedCharacter(uint256 characterID) {\n        require(_ownerByCharacter[characterID] == msg.sender);\n        _;\n    }\n\n    modifier restricted() {\n        _restricted();\n        _;\n    }\n\n    function _restricted() internal view {\n        require(hasRole(GAME_ADMIN, msg.sender));\n    }\n\n    function initialize(\n        address gameContract,\n        address shieldsContract,\n        address randomsContract,\n        address pvpRankingsContract\n    ) public initializer {\n        __AccessControl_init_unchained();\n        _setupRole(DEFAULT_ADMIN_ROLE, msg.sender);\n\n        game = CryptoBlades(gameContract);\n        characters = Characters(game.characters());\n        weapons = Weapons(game.weapons());\n        shields = Shields(shieldsContract);\n        skillToken = IERC20(game.skillToken());\n        randoms = IRandoms(randomsContract);\n        pvprankings = PvpRankings(pvpRankingsContract);\n\n        _baseWagerUSD = ABDKMath64x64.divu(500, 100); // $5\n        _tierWagerUSD = ABDKMath64x64.divu(50, 100); // $0.5\n        wageringFactor = 3;\n        reRollFeePercent = 25;\n        withdrawFeePercent = 25;\n        decisionSeconds = 2 minutes;\n        duelOffsetCost = 0.005 ether;\n    }\n\n    /// @dev enter the arena with a character, a weapon and optionally a shield\n    function enterArena(uint256 characterID, bool tierless) external {\n\n        EquipmentManager equipment = EquipmentManager(links[LINK_EQUIPMENT_MANAGER]);\n        uint256 weaponID = equipment.equippedSlotID(address(characters), characterID, 1);\n        uint256 shieldID = equipment.equippedSlotID(address(characters), characterID, 2);\n        bool useShield = equipment.hasSlotEquipped(address(characters), characterID, 2);\n\n        require(characters.ownerOf(characterID) == msg.sender\n            && characters.getNftVar(characterID, 1) == 0);\n        require(characters.isEquipmentReady(characterID));\n\n        require((arenaAccess & 1) == 1, \"L\");\n\n        uint8 tier;\n        if (tierless) {\n            tier = 20;\n        } else {\n            tier = getArenaTier(characterID);\n        }\n\n        uint256 wager = getEntryWagerByTier(tier);\n\n        if (_ownerByCharacter[characterID] != msg.sender) {\n            _ownerByCharacter[characterID] = msg.sender;\n        }\n\n        if (previousTierByCharacter[characterID] != tier) {\n            pvprankings.changeRankingPoints(characterID, 0);\n        }\n\n        pvprankings.handleEnterArena(msg.sender, characterID, tier);\n\n        isCharacterInArena[characterID] = true;\n        characters.setNftVar(characterID, 1, 1);\n\n        uint256 characterWager;\n\n        if (excessWagerByCharacter[characterID] != 0) {\n            characterWager = excessWagerByCharacter[characterID];\n        } else {\n            characterWager = fighterByCharacter[characterID].wager;\n        }\n\n        _matchableCharactersByTier[tier].add(characterID);\n        fighterByCharacter[characterID] = Fighter(\n            characterID,\n            weaponID,\n            shieldID,\n            wager.add(characterWager),\n            useShield\n        );\n        previousTierByCharacter[characterID] = tier;\n        excessWagerByCharacter[characterID] = 0;\n\n        skillToken.transferFrom(msg.sender, address(this), wager);\n    }\n\n    /// @dev withdraws a character and its items from the arena.\n    /// if the character is in a battle, a penalty is charged\n    function withdrawFromArena(uint256 characterID)\n        external\n        isOwnedCharacter(characterID)\n        characterInArena(characterID)\n        characterNotUnderAttack(characterID)\n        characterNotInDuel(characterID)\n    {\n        Fighter storage fighter = fighterByCharacter[characterID];\n        uint256 wager = fighter.wager;\n\n        uint8 tier;\n        \n        if (previousTierByCharacter[characterID] == 20) {\n            tier = 20;\n        } else {\n            tier = getArenaTier(characterID);\n        }\n\n        uint256 entryWager = getEntryWager(characterID);\n\n        if (matchByFinder[characterID].createdAt != 0) {\n            if (wager < entryWager.mul(withdrawFeePercent).div(100)) {\n                wager = 0;\n            } else {\n                wager = wager.sub(entryWager.mul(withdrawFeePercent).div(100));\n            }\n        }\n\n        _removeCharacterFromArena(characterID, tier);\n\n        excessWagerByCharacter[characterID] = 0;\n        fighter.wager = 0;\n\n        skillToken.safeTransfer(msg.sender, wager);\n    }\n\n    /// @dev attempts to find an opponent for a character\n    function findOpponent(uint256 characterID)\n        external\n        isOwnedCharacter(characterID)\n        characterInArena(characterID)\n        characterNotUnderAttack(characterID)\n        characterNotInDuel(characterID)\n    {\n        require(matchByFinder[characterID].createdAt == 0, \"M\");\n\n        uint8 tier;\n\n        if (previousTierByCharacter[characterID] == 20) {\n            tier = 20;\n        } else {\n            tier = getArenaTier(characterID);\n        }\n\n        _assignOpponent(characterID, tier);\n    }\n\n    /// @dev attempts to find a new opponent for a fee\n    function reRollOpponent(uint256 characterID)\n        external\n        characterInArena(characterID)\n        characterNotUnderAttack(characterID)\n        isOwnedCharacter(characterID)\n        characterNotInDuel(characterID)\n    {\n        uint256 opponentID = getOpponent(characterID);\n        uint8 tier;\n        \n        if (previousTierByCharacter[characterID] == 20) {\n            tier = 20;\n        } else {\n            tier = getArenaTier(characterID);\n        }\n\n        require(matchByFinder[characterID].createdAt != 0, \"R\");\n\n        delete finderByOpponent[opponentID];\n        if (isCharacterInArena[opponentID]) {\n            _matchableCharactersByTier[tier].add(opponentID);\n        }\n\n        _assignOpponent(characterID, tier);\n\n        uint256 weaponID = fighterByCharacter[characterID].weaponID;\n        if(weapons.getWeaponType(weaponID) > 0 && specialWeaponRerollTimestamp[weaponID] < block.timestamp) {\n            specialWeaponRerollTimestamp[weaponID] = block.timestamp + 24 hours;\n        }\n        else {\n            skillToken.transferFrom(\n                msg.sender,\n                address(this),\n                getDuelCostByTier(tier).mul(reRollFeePercent).div(100)\n            );\n        }\n    }\n\n    /// @dev adds a character to the duel queue\n    function prepareDuel(uint256 attackerID)\n        external\n        payable\n        isOwnedCharacter(attackerID)\n        characterInArena(attackerID)\n        characterWithinDecisionTime(attackerID)\n        characterNotInDuel(attackerID)\n    {\n        require((arenaAccess & 1) == 1);\n        require(msg.value == duelOffsetCost, \"O\");\n\n        uint256 defenderID = getOpponent(attackerID);\n\n        pvprankings.handlePrepareDuel(msg.sender, attackerID);\n\n        pvprankings.handlePrepareDuel(msg.sender, defenderID);\n\n        isDefending[defenderID] = true;\n\n        _duelQueue.add(attackerID);\n\n        pvpBotAddress.transfer(msg.value);\n    }\n\n    function createDuelist(uint256 id) internal view returns (Duelist memory duelist) {\n        duelist.ID = id;\n\n        (\n            , // xp\n            duelist.level,\n            duelist.trait,\n            , // staminaTimestamp\n            , // head\n            , // torso\n            , // legs\n            , // boots\n            , // race\n        ) = characters.get(id);\n    }\n\n    /// @dev performs a list of duels\n    function performDuels(uint256[] calldata attackerIDs) external restricted {\n        for (uint256 i = 0; i < attackerIDs.length; i++) {\n            Duel memory duel;\n            duel.attacker = createDuelist(attackerIDs[i]);\n\n            if (!_duelQueue.contains(duel.attacker.ID)) continue;\n\n            duel.defender = createDuelist(getOpponent(duel.attacker.ID));\n\n            if (previousTierByCharacter[duel.attacker.ID] == 20) {\n                duel.tier = 20;\n            } else {\n                duel.tier = getArenaTierForLevel(duel.attacker.level);\n            }\n\n            duel.cost = getDuelCostByTier(duel.tier);\n\n            duel.attacker.power = getCharacterPower(duel.attacker.ID, duel.tier);\n            duel.defender.power = getCharacterPower(duel.defender.ID, duel.tier);\n\n            duel.attacker.roll = _getCharacterPowerRoll(duel.attacker, duel.defender.trait, duel.tier);\n            duel.defender.roll = _getCharacterPowerRoll(duel.defender, duel.attacker.trait, duel.tier);\n\n            // Reduce defender roll if attacker has a shield\n            if (fighterByCharacter[duel.attacker.ID].useShield) {\n                uint24 attackerShieldDefense = 3;\n\n                uint8 attackerShieldTrait = shields.getTrait(\n                    fighterByCharacter[duel.attacker.ID].shieldID\n                );\n\n                if (\n                    Common.isTraitEffectiveAgainst(attackerShieldTrait, duel.defender.trait)\n                ) {\n                    attackerShieldDefense = 10;\n                }\n\n                duel.defender.roll = uint24(\n                    (duel.defender.roll.mul(uint24(100).sub(attackerShieldDefense)))\n                        .div(100)\n                );\n            }\n\n            // Reduce attacker roll if defender has a shield\n            if (fighterByCharacter[duel.defender.ID].useShield) {\n                uint24 defenderShieldDefense = 3;\n\n                uint8 defenderShieldTrait = shields.getTrait(\n                    fighterByCharacter[duel.defender.ID].shieldID\n                );\n\n                if (\n                    Common.isTraitEffectiveAgainst(defenderShieldTrait, duel.attacker.trait)\n                ) {\n                    defenderShieldDefense = 10;\n                }\n\n                duel.attacker.roll = uint24(\n                    (duel.attacker.roll.mul(uint24(100).sub(defenderShieldDefense)))\n                        .div(100)\n                );\n            }\n\n            duel.attackerWon = (duel.attacker.roll >= duel.defender.roll);\n\n            uint256 winnerID = duel.attackerWon\n                ? duel.attacker.ID\n                : duel.defender.ID;\n            uint256 loserID = duel.attackerWon\n                ? duel.defender.ID\n                : duel.attacker.ID;\n\n            if (winnerID == duel.attacker.ID && duel.attacker.power < duel.defender.power) {\n                duel.bonusRank = Common.getBonusRankingPoints(duel.attacker.power, duel.defender.power);\n            } else if (winnerID == duel.defender.ID && duel.attacker.power > duel.defender.power) {\n                duel.bonusRank = Common.getBonusRankingPoints(duel.defender.power, duel.attacker.power);           \n            }\n\n            emit DuelFinished(\n                duel.attacker.ID,\n                duel.defender.ID,\n                block.timestamp,\n                duel.attacker.roll,\n                duel.defender.roll,\n                duel.attackerWon,\n                duel.bonusRank\n            );\n\n            (\n                uint256 reward,\n                uint256 poolTax\n            ) = pvprankings.getDuelBountyDistribution(duel.cost);\n\n            fighterByCharacter[winnerID].wager = fighterByCharacter[winnerID]\n                .wager\n                .add(reward);\n\n            uint256 loserWager;\n\n            if (\n                fighterByCharacter[loserID].wager <\n                duel.cost\n            ) {\n                loserWager = 0;\n            } else {\n                loserWager = fighterByCharacter[loserID].wager.sub(\n                    duel.cost\n                );\n            }\n\n            fighterByCharacter[loserID].wager = loserWager;\n\n            delete matchByFinder[duel.attacker.ID];\n            delete finderByOpponent[duel.defender.ID];\n            isDefending[duel.defender.ID] = false;\n\n            if (\n                fighterByCharacter[loserID].wager < duel.cost ||\n                fighterByCharacter[loserID].wager <\n                getEntryWagerByTier(duel.tier).mul(withdrawFeePercent).div(100)\n            ) {\n                _removeCharacterFromArena(loserID, duel.tier);\n                emit CharacterKicked(\n                    loserID,\n                    winnerID,\n                    block.timestamp\n                );\n            } else {\n                _matchableCharactersByTier[duel.tier].add(loserID);\n            }\n\n            _matchableCharactersByTier[duel.tier].add(winnerID);\n\n            pvprankings.handlePerformDuel(winnerID, loserID, duel.bonusRank, duel.tier, poolTax);\n\n            skillToken.safeTransfer(address(pvprankings), poolTax);\n\n            _duelQueue.remove(duel.attacker.ID);\n        }\n    }\n\n    /// @dev wether or not the character is still in time to start a duel\n    function isCharacterWithinDecisionTime(uint256 characterID)\n        internal\n        view\n        returns (bool)\n    {\n        return\n            matchByFinder[characterID].createdAt.add(decisionSeconds) >\n            block.timestamp;\n    }\n\n    /// @dev checks wether or not the character is actively someone else's opponent\n    function isCharacterUnderAttack(uint256 characterID)\n        public\n        view\n        returns (bool)\n    {\n        if (finderByOpponent[characterID] == 0) {\n            if (matchByFinder[0].defenderID == characterID) {\n                return isCharacterWithinDecisionTime(0);\n            }\n            return false;\n        }\n\n        return isCharacterWithinDecisionTime(finderByOpponent[characterID]);\n    }\n\n    /// @dev checks wether or not the character is currently in the duel queue\n    function isCharacterInDuel(uint256 characterID)\n        internal\n        view\n        returns (bool)\n    {\n        return _duelQueue.contains(characterID) || isDefending[characterID];\n    }\n\n    /// @dev gets the amount of SKILL required to enter the arena\n    function getEntryWager(uint256 characterID) public view returns (uint256) {\n        return getDuelCost(characterID).mul(wageringFactor);\n    }\n\n    /// @dev gets the amount of SKILL required to enter the arena by tier\n    function getEntryWagerByTier(uint8 tier) public view returns (uint256) {\n        return getDuelCostByTier(tier).mul(wageringFactor);\n    }\n\n    /// @dev gets the amount of SKILL that is risked per duel\n    function getDuelCost(uint256 characterID) public view returns (uint256) {\n        if (previousTierByCharacter[characterID] == 20) {\n            return  game.usdToSkill(_baseWagerUSD);\n        }\n\n        int128 tierExtra = ABDKMath64x64\n            .divu(getArenaTier(characterID).mul(100), 100)\n            .mul(_tierWagerUSD);\n\n        return game.usdToSkill(_baseWagerUSD.add(tierExtra));\n    }\n\n    /// @dev gets the amount of SKILL that is risked per duel by tier\n    function getDuelCostByTier(uint8 tier) internal view returns (uint256) {\n        if (tier == 20) {\n            return game.usdToSkill(_baseWagerUSD);\n        }\n\n        int128 tierExtra = ABDKMath64x64\n            .divu(tier.mul(100), 100)\n            .mul(_tierWagerUSD);\n\n        return game.usdToSkill(_baseWagerUSD.add(tierExtra));\n    }\n\n    /// @dev gets the arena tier of a character (tiers are 1-10, 11-20, etc...)\n    function getArenaTier(uint256 characterID) public view returns (uint8) {\n        uint8 level = characters.getLevel(characterID);\n        return getArenaTierForLevel(level);\n    }\n\n    function getArenaTierForLevel(uint8 level) internal pure returns (uint8) {\n        return uint8(level.div(10));\n    }\n\n    /// @dev get an attacker's opponent\n    function getOpponent(uint256 attackerID) public view returns (uint256) {\n        return matchByFinder[attackerID].defenderID;\n    }\n\n    /// @dev returns the current duel queue\n    function getDuelQueue() public view returns (uint256[] memory) {\n        uint256 length = _duelQueue.length();\n        uint256[] memory values = new uint256[](length);\n\n        for (uint256 i = 0; i < length; i++) {\n            values[i] = _duelQueue.at(i);\n        }\n\n        return values;\n    }\n\n    /// @dev assigns an opponent to a character\n    function _assignOpponent(uint256 characterID, uint8 tier) private {\n        EnumerableSet.UintSet\n            storage matchableCharacters = _matchableCharactersByTier[tier];\n\n        require(matchableCharacters.length() != 0, \"L\");\n\n        uint256 seed = randoms.getRandomSeed(msg.sender);\n        uint256 randomIndex = RandomUtil.randomSeededMinMax(\n            0,\n            matchableCharacters.length() - 1,\n            seed\n        );\n        uint256 opponentID;\n        uint256 matchableCharactersCount = matchableCharacters.length();\n        bool foundOpponent = false;\n\n        for (uint256 i = 0; i < matchableCharactersCount; i++) {\n            uint256 index = (randomIndex + i) % matchableCharactersCount;\n            uint256 candidateID = matchableCharacters.at(index);\n\n            if (candidateID == characterID) {\n                if (matchableCharactersCount == 1) {\n                    break;\n                }\n                if (\n                    matchableCharacters.at(matchableCharactersCount - 1) ==\n                    candidateID\n                ) {\n                    candidateID = matchableCharacters.at(0);\n                } else {\n                    candidateID = matchableCharacters.at(index + 1);\n                }\n            }\n            if (\n                _ownerByCharacter[candidateID] == msg.sender\n            ) {\n                continue;\n            }\n\n            foundOpponent = true;\n            opponentID = candidateID;\n            break;\n        }\n\n        require(foundOpponent, \"E\");\n\n        matchByFinder[characterID] = Match(\n            characterID,\n            opponentID,\n            block.timestamp\n        );\n        finderByOpponent[opponentID] = characterID;\n        _matchableCharactersByTier[tier].remove(characterID);\n        _matchableCharactersByTier[tier].remove(opponentID);\n    }\n\n    /// @dev removes a character from arena and clears it's matches\n    function _removeCharacterFromArena(uint256 characterID, uint8 tier)\n        private\n        characterInArena(characterID)\n    {\n        Fighter storage fighter = fighterByCharacter[characterID];\n\n        uint256 weaponID = fighter.weaponID;\n        uint256 shieldID = fighter.shieldID;\n\n        excessWagerByCharacter[characterID] = fighter.wager;\n\n        // Shield removed first before the fighter is deleted\n        if (fighter.useShield) {\n            isShieldInArena[shieldID] = false;\n            shields.setNftVar(shieldID, 1, 0);\n        }\n\n        delete fighterByCharacter[characterID];\n        delete matchByFinder[characterID];\n\n        if (_matchableCharactersByTier[tier].contains(characterID)) {\n            _matchableCharactersByTier[tier].remove(characterID);\n        }\n\n        isCharacterInArena[characterID] = false;\n        isWeaponInArena[weaponID] = false;\n\n        characters.setNftVar(characterID, 1, 0);\n        weapons.setNftVar(weaponID, 1, 0);\n    }\n\n    function _getCharacterPowerRoll(Duelist memory character, uint8 opponentTrait, uint8 tier)\n        private\n        view\n        returns (uint24)\n    {\n        uint24 playerFightPower = getCharacterPower(character.ID, tier);\n\n        Fighter memory fighter = fighterByCharacter[character.ID];\n        uint256 weaponID = fighter.weaponID;\n        uint256 seed = randoms.getRandomSeedUsingHash(\n            _ownerByCharacter[character.ID],\n            blockhash(block.number - 1)\n        );\n\n        uint8 weaponTrait = weapons.getTrait(weaponID);\n\n        int128 playerTraitBonus = _getPVPTraitBonusAgainst(\n            character.trait,\n            weaponTrait,\n            opponentTrait\n        );\n\n        uint256 playerPower = RandomUtil.plusMinus10PercentSeeded(\n            playerFightPower,\n            seed\n        );\n\n        return uint24(playerTraitBonus.mulu(playerPower));\n    }\n\n    function getCharacterPower(uint256 characterID, uint8 tier)\n        public\n        view\n        returns (uint24) \n    {\n        int128 bonusShieldStats;\n        \n        (\n            ,\n            int128 weaponMultFight,\n            uint24 weaponBonusPower,\n            \n        ) = weapons.getFightData(fighterByCharacter[characterID].weaponID, characters.getTrait(characterID));\n\n        if (fighterByCharacter[characterID].useShield) {\n            // we set bonus shield stats as 0.2\n            bonusShieldStats = _getShieldStats(characterID).sub(1).mul(20).div(100);\n        }\n\n        uint24 power;\n\n        if (tier == 20) {\n            power = Common.getPowerAtLevel(34);\n        } else {\n            power = Common.getPowerAtLevel(characters.getLevel(characterID));\n        }\n\n        return (   \n            Common.getPlayerPowerBase100(\n                power,\n                (weaponMultFight.add(bonusShieldStats)),\n                weaponBonusPower)\n        );\n    }\n\n    /// @dev returns the amount of matcheable characters\n    function getMatchablePlayerCount(uint256 characterID) external view returns(uint) {\n        uint8 tier;\n        \n        if (previousTierByCharacter[characterID] == 20) {\n            tier = 20;\n        } else {\n            tier = getArenaTier(characterID);\n        }\n        return _matchableCharactersByTier[tier].length();   \n    }\n\n    function getMatchablePlayerCountByTier(uint8 tier) external view returns (uint) {\n        return _matchableCharactersByTier[tier].length();\n    }\n\n    function isCharacterMatchableByTier(uint256 characterID, uint8 tier) external view returns (bool) {\n        return _matchableCharactersByTier[tier].contains(characterID);\n    }\n\n    function _getPVPTraitBonusAgainst(\n        uint8 characterTrait,\n        uint8 weaponTrait,\n        uint8 opponentTrait\n    ) private view returns (int128) {\n        int128 traitBonus = ABDKMath64x64.fromUInt(1);\n        int128 fightTraitBonus = game.fightTraitBonus();\n        int128 charTraitFactor = ABDKMath64x64.divu(50, 100);\n        if (characterTrait == weaponTrait) {\n            traitBonus = traitBonus.add(fightTraitBonus.mul(3));\n        }\n\n        // We apply 50% of char trait bonuses because they are applied twice (once per fighter)\n        if (\n            Common.isTraitEffectiveAgainst(characterTrait, opponentTrait)\n        ) {\n            traitBonus = traitBonus.add(fightTraitBonus.mul(charTraitFactor));\n        } else if (\n            Common.isTraitEffectiveAgainst(opponentTrait, characterTrait)\n        ) {\n            traitBonus = traitBonus.sub(fightTraitBonus.mul(charTraitFactor));\n        }\n        return traitBonus;\n    }\n\n    function _getShieldStats(uint256 characterID)\n        private\n        view\n        returns (int128)\n    {\n        uint8 trait = characters.getTrait(characterID);\n        uint256 shieldID = fighterByCharacter[characterID].shieldID;\n        int128 shieldMultFight = shields.getDefenseMultiplierForTrait(shieldID, trait);\n        return (shieldMultFight);\n    }\n\n    function setBaseWagerInCents(uint256 cents) external restricted {\n        _baseWagerUSD = ABDKMath64x64.divu(cents, 100);\n    }\n\n    function setTierWagerInCents(uint256 cents) external restricted {\n        _tierWagerUSD = ABDKMath64x64.divu(cents, 100);\n    }\n\n    function setWageringFactor(uint8 factor) external restricted {\n        wageringFactor = factor;\n    }\n\n    function setReRollFeePercent(uint256 percent) external restricted {\n        reRollFeePercent = percent;\n    }\n\n    function setWithdrawFeePercent(uint256 percent) external restricted {\n        withdrawFeePercent = percent;\n    }\n\n    function setDecisionSeconds(uint256 secs) external restricted {\n        decisionSeconds = secs;\n    }\n\n    function setArenaAccess(uint256 accessFlags) external restricted {\n        arenaAccess = accessFlags;\n    }\n\n    function setDuelOffsetCost(uint256 cost) external restricted {\n        duelOffsetCost = cost;\n    }\n\n    function setPvpBotAddress(address payable botAddress) external restricted {\n        pvpBotAddress = botAddress;\n    }\n\n    function setLink(uint256 linkId, address linkAddress) external restricted {\n        links[linkId] = linkAddress;\n    }\n\n    // Note: The following are debugging functions, they can be muted to save contract size\n\n    function forceRemoveCharacterFromArena(uint256 characterID)\n        external \n        restricted\n        characterNotUnderAttack(characterID)\n        characterNotInDuel(characterID)\n    {\n        Fighter storage fighter = fighterByCharacter[characterID];\n        uint8 tier;\n        \n        if (previousTierByCharacter[characterID] == 20) {\n            tier = 20;\n        } else {\n            tier = getArenaTier(characterID);\n        }\n\n        uint256 wager = fighter.wager;\n        uint256 entryWager = getEntryWager(characterID);\n\n        if (matchByFinder[characterID].createdAt != 0) {\n            if (wager < entryWager.mul(withdrawFeePercent).div(100)) {\n                wager = 0;\n            } else {\n                wager = wager.sub(entryWager.mul(withdrawFeePercent).div(100));\n            }\n        }\n\n        _removeCharacterFromArena(characterID, tier);\n\n        excessWagerByCharacter[characterID] = 0;\n        fighter.wager = 0;\n\n        skillToken.safeTransfer(characters.ownerOf(characterID), wager);\n    }\n\n    // function clearDuelQueue(uint256 length) external restricted {\n    //     for (uint256 i = 0; i < length; i++) {\n    //         if (matchByFinder[_duelQueue.at(i)].defenderID > 0) {\n    //             isDefending[matchByFinder[_duelQueue.at(i)].defenderID] = false;\n    //         }\n\n    //         _duelQueue.remove(_duelQueue.at(i));\n    //     }\n\n    //     isDefending[0] = false;\n    // }\n}\n",
  "sourcePath": "/mnt/e/work/cryptoblades/contracts/PvpCore.sol",
  "compiler": {
    "name": "solc",
    "version": "0.6.5+commit.f956cc89.Emscripten.clang"
  },
  "schemaVersion": "3.3.4",
  "updatedAt": "2023-01-24T17:45:31.648Z",
  "devdoc": {
    "methods": {
      "enterArena(uint256,bool)": {
        "details": "enter the arena with a character, a weapon and optionally a shield"
      },
      "findOpponent(uint256)": {
        "details": "attempts to find an opponent for a character"
      },
      "getArenaTier(uint256)": {
        "details": "gets the arena tier of a character (tiers are 1-10, 11-20, etc...)"
      },
      "getDuelCost(uint256)": {
        "details": "gets the amount of SKILL that is risked per duel"
      },
      "getDuelQueue()": {
        "details": "returns the current duel queue"
      },
      "getEntryWager(uint256)": {
        "details": "gets the amount of SKILL required to enter the arena"
      },
      "getEntryWagerByTier(uint8)": {
        "details": "gets the amount of SKILL required to enter the arena by tier"
      },
      "getMatchablePlayerCount(uint256)": {
        "details": "returns the amount of matcheable characters"
      },
      "getOpponent(uint256)": {
        "details": "get an attacker's opponent"
      },
      "getRoleAdmin(bytes32)": {
        "details": "Returns the admin role that controls `role`. See {grantRole} and {revokeRole}.     * To change a role's admin, use {_setRoleAdmin}."
      },
      "getRoleMember(bytes32,uint256)": {
        "details": "Returns one of the accounts that have `role`. `index` must be a value between 0 and {getRoleMemberCount}, non-inclusive.     * Role bearers are not sorted in any particular way, and their ordering may change at any point.     * WARNING: When using {getRoleMember} and {getRoleMemberCount}, make sure you perform all queries on the same block. See the following https://forum.openzeppelin.com/t/iterating-over-elements-on-enumerableset-in-openzeppelin-contracts/2296[forum post] for more information."
      },
      "getRoleMemberCount(bytes32)": {
        "details": "Returns the number of accounts that have `role`. Can be used together with {getRoleMember} to enumerate all bearers of a role."
      },
      "grantRole(bytes32,address)": {
        "details": "Grants `role` to `account`.     * If `account` had not been already granted `role`, emits a {RoleGranted} event.     * Requirements:     * - the caller must have ``role``'s admin role."
      },
      "hasRole(bytes32,address)": {
        "details": "Returns `true` if `account` has been granted `role`."
      },
      "isCharacterUnderAttack(uint256)": {
        "details": "checks wether or not the character is actively someone else's opponent"
      },
      "performDuels(uint256[])": {
        "details": "performs a list of duels"
      },
      "prepareDuel(uint256)": {
        "details": "adds a character to the duel queue"
      },
      "reRollOpponent(uint256)": {
        "details": "attempts to find a new opponent for a fee"
      },
      "renounceRole(bytes32,address)": {
        "details": "Revokes `role` from the calling account.     * Roles are often managed via {grantRole} and {revokeRole}: this function's purpose is to provide a mechanism for accounts to lose their privileges if they are compromised (such as when a trusted device is misplaced).     * If the calling account had been granted `role`, emits a {RoleRevoked} event.     * Requirements:     * - the caller must be `account`."
      },
      "revokeRole(bytes32,address)": {
        "details": "Revokes `role` from `account`.     * If `account` had been granted `role`, emits a {RoleRevoked} event.     * Requirements:     * - the caller must have ``role``'s admin role."
      },
      "withdrawFromArena(uint256)": {
        "details": "withdraws a character and its items from the arena. if the character is in a battle, a penalty is charged"
      }
    }
  },
  "userdoc": {
    "methods": {}
  }
}