{
  "contractName": "PvpRankings",
  "abi": [
    {
      "anonymous": false,
      "inputs": [
        {
          "indexed": true,
          "internalType": "bytes32",
          "name": "role",
          "type": "bytes32"
        },
        {
          "indexed": true,
          "internalType": "bytes32",
          "name": "previousAdminRole",
          "type": "bytes32"
        },
        {
          "indexed": true,
          "internalType": "bytes32",
          "name": "newAdminRole",
          "type": "bytes32"
        }
      ],
      "name": "RoleAdminChanged",
      "type": "event"
    },
    {
      "anonymous": false,
      "inputs": [
        {
          "indexed": true,
          "internalType": "bytes32",
          "name": "role",
          "type": "bytes32"
        },
        {
          "indexed": true,
          "internalType": "address",
          "name": "account",
          "type": "address"
        },
        {
          "indexed": true,
          "internalType": "address",
          "name": "sender",
          "type": "address"
        }
      ],
      "name": "RoleGranted",
      "type": "event"
    },
    {
      "anonymous": false,
      "inputs": [
        {
          "indexed": true,
          "internalType": "bytes32",
          "name": "role",
          "type": "bytes32"
        },
        {
          "indexed": true,
          "internalType": "address",
          "name": "account",
          "type": "address"
        },
        {
          "indexed": true,
          "internalType": "address",
          "name": "sender",
          "type": "address"
        }
      ],
      "name": "RoleRevoked",
      "type": "event"
    },
    {
      "anonymous": false,
      "inputs": [
        {
          "indexed": true,
          "internalType": "uint256",
          "name": "newSeason",
          "type": "uint256"
        },
        {
          "indexed": false,
          "internalType": "uint256",
          "name": "timestamp",
          "type": "uint256"
        }
      ],
      "name": "SeasonRestarted",
      "type": "event"
    },
    {
      "inputs": [],
      "name": "DEFAULT_ADMIN_ROLE",
      "outputs": [
        {
          "internalType": "bytes32",
          "name": "",
          "type": "bytes32"
        }
      ],
      "stateMutability": "view",
      "type": "function"
    },
    {
      "inputs": [],
      "name": "GAME_ADMIN",
      "outputs": [
        {
          "internalType": "bytes32",
          "name": "",
          "type": "bytes32"
        }
      ],
      "stateMutability": "view",
      "type": "function"
    },
    {
      "inputs": [],
      "name": "characters",
      "outputs": [
        {
          "internalType": "contract Characters",
          "name": "",
          "type": "address"
        }
      ],
      "stateMutability": "view",
      "type": "function"
    },
    {
      "inputs": [],
      "name": "currentRankedSeason",
      "outputs": [
        {
          "internalType": "uint256",
          "name": "",
          "type": "uint256"
        }
      ],
      "stateMutability": "view",
      "type": "function"
    },
    {
      "inputs": [],
      "name": "game",
      "outputs": [
        {
          "internalType": "contract CryptoBlades",
          "name": "",
          "type": "address"
        }
      ],
      "stateMutability": "view",
      "type": "function"
    },
    {
      "inputs": [],
      "name": "gameCofferTaxDue",
      "outputs": [
        {
          "internalType": "uint256",
          "name": "",
          "type": "uint256"
        }
      ],
      "stateMutability": "view",
      "type": "function"
    },
    {
      "inputs": [
        {
          "internalType": "bytes32",
          "name": "role",
          "type": "bytes32"
        }
      ],
      "name": "getRoleAdmin",
      "outputs": [
        {
          "internalType": "bytes32",
          "name": "",
          "type": "bytes32"
        }
      ],
      "stateMutability": "view",
      "type": "function"
    },
    {
      "inputs": [
        {
          "internalType": "bytes32",
          "name": "role",
          "type": "bytes32"
        },
        {
          "internalType": "uint256",
          "name": "index",
          "type": "uint256"
        }
      ],
      "name": "getRoleMember",
      "outputs": [
        {
          "internalType": "address",
          "name": "",
          "type": "address"
        }
      ],
      "stateMutability": "view",
      "type": "function"
    },
    {
      "inputs": [
        {
          "internalType": "bytes32",
          "name": "role",
          "type": "bytes32"
        }
      ],
      "name": "getRoleMemberCount",
      "outputs": [
        {
          "internalType": "uint256",
          "name": "",
          "type": "uint256"
        }
      ],
      "stateMutability": "view",
      "type": "function"
    },
    {
      "inputs": [
        {
          "internalType": "bytes32",
          "name": "role",
          "type": "bytes32"
        },
        {
          "internalType": "address",
          "name": "account",
          "type": "address"
        }
      ],
      "name": "grantRole",
      "outputs": [],
      "stateMutability": "nonpayable",
      "type": "function"
    },
    {
      "inputs": [
        {
          "internalType": "bytes32",
          "name": "role",
          "type": "bytes32"
        },
        {
          "internalType": "address",
          "name": "account",
          "type": "address"
        }
      ],
      "name": "hasRole",
      "outputs": [
        {
          "internalType": "bool",
          "name": "",
          "type": "bool"
        }
      ],
      "stateMutability": "view",
      "type": "function"
    },
    {
      "inputs": [],
      "name": "losingPoints",
      "outputs": [
        {
          "internalType": "uint8",
          "name": "",
          "type": "uint8"
        }
      ],
      "stateMutability": "view",
      "type": "function"
    },
    {
      "inputs": [
        {
          "internalType": "uint256",
          "name": "",
          "type": "uint256"
        }
      ],
      "name": "prizePercentages",
      "outputs": [
        {
          "internalType": "uint256",
          "name": "",
          "type": "uint256"
        }
      ],
      "stateMutability": "view",
      "type": "function"
    },
    {
      "inputs": [],
      "name": "pvpcore",
      "outputs": [
        {
          "internalType": "contract PvpCore",
          "name": "",
          "type": "address"
        }
      ],
      "stateMutability": "view",
      "type": "function"
    },
    {
      "inputs": [
        {
          "internalType": "uint256",
          "name": "",
          "type": "uint256"
        }
      ],
      "name": "rankingPointsByCharacter",
      "outputs": [
        {
          "internalType": "uint256",
          "name": "",
          "type": "uint256"
        }
      ],
      "stateMutability": "view",
      "type": "function"
    },
    {
      "inputs": [
        {
          "internalType": "uint8",
          "name": "",
          "type": "uint8"
        }
      ],
      "name": "rankingsPoolByTier",
      "outputs": [
        {
          "internalType": "uint256",
          "name": "",
          "type": "uint256"
        }
      ],
      "stateMutability": "view",
      "type": "function"
    },
    {
      "inputs": [
        {
          "internalType": "bytes32",
          "name": "role",
          "type": "bytes32"
        },
        {
          "internalType": "address",
          "name": "account",
          "type": "address"
        }
      ],
      "name": "renounceRole",
      "outputs": [],
      "stateMutability": "nonpayable",
      "type": "function"
    },
    {
      "inputs": [
        {
          "internalType": "bytes32",
          "name": "role",
          "type": "bytes32"
        },
        {
          "internalType": "address",
          "name": "account",
          "type": "address"
        }
      ],
      "name": "revokeRole",
      "outputs": [],
      "stateMutability": "nonpayable",
      "type": "function"
    },
    {
      "inputs": [
        {
          "internalType": "uint256",
          "name": "",
          "type": "uint256"
        }
      ],
      "name": "seasonByCharacter",
      "outputs": [
        {
          "internalType": "uint256",
          "name": "",
          "type": "uint256"
        }
      ],
      "stateMutability": "view",
      "type": "function"
    },
    {
      "inputs": [],
      "name": "seasonDuration",
      "outputs": [
        {
          "internalType": "uint256",
          "name": "",
          "type": "uint256"
        }
      ],
      "stateMutability": "view",
      "type": "function"
    },
    {
      "inputs": [],
      "name": "seasonStartedAt",
      "outputs": [
        {
          "internalType": "uint256",
          "name": "",
          "type": "uint256"
        }
      ],
      "stateMutability": "view",
      "type": "function"
    },
    {
      "inputs": [],
      "name": "skillToken",
      "outputs": [
        {
          "internalType": "contract IERC20",
          "name": "",
          "type": "address"
        }
      ],
      "stateMutability": "view",
      "type": "function"
    },
    {
      "inputs": [],
      "name": "winningPoints",
      "outputs": [
        {
          "internalType": "uint8",
          "name": "",
          "type": "uint8"
        }
      ],
      "stateMutability": "view",
      "type": "function"
    },
    {
      "inputs": [
        {
          "internalType": "address",
          "name": "gameContract",
          "type": "address"
        }
      ],
      "name": "initialize",
      "outputs": [],
      "stateMutability": "nonpayable",
      "type": "function"
    },
    {
      "inputs": [],
      "name": "withdrawRankedRewards",
      "outputs": [],
      "stateMutability": "nonpayable",
      "type": "function"
    },
    {
      "inputs": [],
      "name": "restartRankedSeason",
      "outputs": [],
      "stateMutability": "nonpayable",
      "type": "function"
    },
    {
      "inputs": [
        {
          "internalType": "uint256",
          "name": "characterID",
          "type": "uint256"
        },
        {
          "internalType": "uint8",
          "name": "position",
          "type": "uint8"
        },
        {
          "internalType": "uint256",
          "name": "pool",
          "type": "uint256"
        }
      ],
      "name": "forceAssignRewards",
      "outputs": [],
      "stateMutability": "nonpayable",
      "type": "function"
    },
    {
      "inputs": [
        {
          "internalType": "uint256",
          "name": "characterID",
          "type": "uint256"
        },
        {
          "internalType": "uint256",
          "name": "amount",
          "type": "uint256"
        }
      ],
      "name": "changeRankingRewards",
      "outputs": [],
      "stateMutability": "nonpayable",
      "type": "function"
    },
    {
      "inputs": [
        {
          "internalType": "uint256",
          "name": "characterID",
          "type": "uint256"
        }
      ],
      "name": "getRankingRewards",
      "outputs": [
        {
          "internalType": "uint256",
          "name": "",
          "type": "uint256"
        }
      ],
      "stateMutability": "view",
      "type": "function"
    },
    {
      "inputs": [
        {
          "internalType": "uint8",
          "name": "tier",
          "type": "uint8"
        }
      ],
      "name": "clearTierTopCharacters",
      "outputs": [],
      "stateMutability": "nonpayable",
      "type": "function"
    },
    {
      "inputs": [
        {
          "internalType": "uint8",
          "name": "tier",
          "type": "uint8"
        }
      ],
      "name": "getTierTopCharacters",
      "outputs": [
        {
          "internalType": "uint256[]",
          "name": "",
          "type": "uint256[]"
        }
      ],
      "stateMutability": "view",
      "type": "function"
    },
    {
      "inputs": [],
      "name": "getPlayerPrizePoolRewards",
      "outputs": [
        {
          "internalType": "uint256",
          "name": "",
          "type": "uint256"
        }
      ],
      "stateMutability": "view",
      "type": "function"
    },
    {
      "inputs": [
        {
          "internalType": "uint256",
          "name": "duelCost",
          "type": "uint256"
        }
      ],
      "name": "getDuelBountyDistribution",
      "outputs": [
        {
          "internalType": "uint256",
          "name": "",
          "type": "uint256"
        },
        {
          "internalType": "uint256",
          "name": "",
          "type": "uint256"
        }
      ],
      "stateMutability": "view",
      "type": "function"
    },
    {
      "inputs": [],
      "name": "fillGameCoffers",
      "outputs": [],
      "stateMutability": "nonpayable",
      "type": "function"
    },
    {
      "inputs": [
        {
          "internalType": "uint8",
          "name": "tier",
          "type": "uint8"
        },
        {
          "internalType": "uint256",
          "name": "amount",
          "type": "uint256"
        }
      ],
      "name": "increaseRankingsPool",
      "outputs": [],
      "stateMutability": "nonpayable",
      "type": "function"
    },
    {
      "inputs": [
        {
          "internalType": "uint256",
          "name": "characterID",
          "type": "uint256"
        },
        {
          "internalType": "uint256",
          "name": "points",
          "type": "uint256"
        }
      ],
      "name": "changeRankingPoints",
      "outputs": [],
      "stateMutability": "nonpayable",
      "type": "function"
    },
    {
      "inputs": [
        {
          "internalType": "address",
          "name": "fighter",
          "type": "address"
        },
        {
          "internalType": "uint256",
          "name": "characterID",
          "type": "uint256"
        },
        {
          "internalType": "uint8",
          "name": "tier",
          "type": "uint8"
        }
      ],
      "name": "handleEnterArena",
      "outputs": [],
      "stateMutability": "nonpayable",
      "type": "function"
    },
    {
      "inputs": [
        {
          "internalType": "address",
          "name": "fighter",
          "type": "address"
        },
        {
          "internalType": "uint256",
          "name": "characterID",
          "type": "uint256"
        }
      ],
      "name": "handlePrepareDuel",
      "outputs": [],
      "stateMutability": "nonpayable",
      "type": "function"
    },
    {
      "inputs": [
        {
          "internalType": "uint256",
          "name": "winnerID",
          "type": "uint256"
        },
        {
          "internalType": "uint256",
          "name": "loserID",
          "type": "uint256"
        },
        {
          "internalType": "uint256",
          "name": "bonusRank",
          "type": "uint256"
        },
        {
          "internalType": "uint8",
          "name": "tier",
          "type": "uint8"
        },
        {
          "internalType": "uint256",
          "name": "poolTax",
          "type": "uint256"
        }
      ],
      "name": "handlePerformDuel",
      "outputs": [],
      "stateMutability": "nonpayable",
      "type": "function"
    },
    {
      "inputs": [
        {
          "internalType": "uint256",
          "name": "index",
          "type": "uint256"
        },
        {
          "internalType": "uint256",
          "name": "value",
          "type": "uint256"
        }
      ],
      "name": "setPrizePercentage",
      "outputs": [],
      "stateMutability": "nonpayable",
      "type": "function"
    },
    {
      "inputs": [
        {
          "internalType": "uint8",
          "name": "percent",
          "type": "uint8"
        }
      ],
      "name": "setRankingsPoolTaxPercent",
      "outputs": [],
      "stateMutability": "nonpayable",
      "type": "function"
    },
    {
      "inputs": [
        {
          "internalType": "uint8",
          "name": "pts",
          "type": "uint8"
        }
      ],
      "name": "setWinningPoints",
      "outputs": [],
      "stateMutability": "nonpayable",
      "type": "function"
    },
    {
      "inputs": [
        {
          "internalType": "uint8",
          "name": "pts",
          "type": "uint8"
        }
      ],
      "name": "setLosingPoints",
      "outputs": [],
      "stateMutability": "nonpayable",
      "type": "function"
    },
    {
      "inputs": [
        {
          "internalType": "uint8",
          "name": "max",
          "type": "uint8"
        }
      ],
      "name": "setMaxTopCharactersPerTier",
      "outputs": [],
      "stateMutability": "nonpayable",
      "type": "function"
    },
    {
      "inputs": [
        {
          "internalType": "uint256",
          "name": "duration",
          "type": "uint256"
        }
      ],
      "name": "setSeasonDuration",
      "outputs": [],
      "stateMutability": "nonpayable",
      "type": "function"
    },
    {
      "inputs": [
        {
          "internalType": "address",
          "name": "pvpCoreContract",
          "type": "address"
        }
      ],
      "name": "setPvpCoreAddress",
      "outputs": [],
      "stateMutability": "nonpayable",
      "type": "function"
    }
  ],
  "bytecode": "0x608060405234801561001057600080fd5b5061262b806100206000396000f3fe608060405234801561001057600080fd5b506004361061028a5760003560e01c80636fe3d65a1161015c578063c3fe3e28116100ce578063d547741f11610087578063d547741f1461076b578063dc61764114610797578063e76c59081461079f578063eb73ad14146107a7578063fc780591146107cd578063ffd9c8a9146107ed5761028a565b8063c3fe3e2814610708578063c4d66de814610710578063c6a3c9f514610736578063ca15c8731461073e578063d070bb541461075b578063d1ebdfd3146107635761028a565b806391d148541161012057806391d148541461063f578063954288ae1461067f578063a217fddf14610687578063a448bd231461068f578063a687719c146106ac578063b185617e146106d25761028a565b80636fe3d65a1461059e578063733a485b146105a65780638181c060146105db57806384f86a66146105e35780639010d07c146106005761028a565b80633f19adeb1161020057806354c7d576116101b957806354c7d576146104e45780635504d3d2146105075780635a0f202d1461050f5780635c9d9bec1461052f5780636166c2b91461055b5780636aa0ea4c1461057e5761028a565b80633f19adeb146103ec578063437b4cfe14610409578063480fe829146104295780634848c57c1461049957806349c94721146104bc5780634d8fc595146104c45761028a565b806314ec1e5a1161025257806314ec1e5a1461034a5780631b74880214610352578063248a9ca31461036f57806326542ec71461038c5780632f2ff15d1461039457806336568abe146103c05761028a565b806303dca9991461028f578063061183de146102c95780630a5f400c146102f857806310c2366d14610300578063144ed7531461031e575b600080fd5b6102c7600480360360a08110156102a557600080fd5b5080359060208101359060408101359060ff606082013516906080013561080d565b005b6102e6600480360360208110156102df57600080fd5b50356108b8565b60408051918252519081900360200190f35b6102c76108ca565b610308610968565b6040805160ff9092168252519081900360200190f35b6102c76004803603606081101561033457600080fd5b5080359060ff6020820135169060400135610978565b6102c7610a1c565b6102e66004803603602081101561036857600080fd5b5035610e9d565b6102e66004803603602081101561038557600080fd5b5035610ed0565b6102c7610ee5565b6102c7600480360360408110156103aa57600080fd5b50803590602001356001600160a01b0316610f27565b6102c7600480360360408110156103d657600080fd5b50803590602001356001600160a01b0316610f93565b6102e66004803603602081101561040257600080fd5b5035610ff4565b6102c76004803603602081101561041f57600080fd5b503560ff16611006565b6104496004803603602081101561043f57600080fd5b503560ff1661102e565b60408051602080825283518183015283519192839290830191858101910280838360005b8381101561048557818101518382015260200161046d565b505050509050019250505060405180910390f35b6102c7600480360360408110156104af57600080fd5b508035906020013561112e565b610308611154565b6102c7600480360360208110156104da57600080fd5b503560ff16611164565b6102c7600480360360408110156104fa57600080fd5b508035906020013561118c565b6102e66111bc565b6102c76004803603602081101561052557600080fd5b503560ff166111de565b6102c76004803603604081101561054557600080fd5b506001600160a01b038135169060200135611206565b6102c76004803603604081101561057157600080fd5b5080359060200135611294565b6102c76004803603602081101561059457600080fd5b503560ff166112ae565b6102e66112d6565b6102c7600480360360608110156105bc57600080fd5b5080356001600160a01b0316906020810135906040013560ff166112ea565b6102e661142b565b6102c7600480360360208110156105f957600080fd5b5035611431565b6106236004803603604081101561061657600080fd5b508035906020013561143e565b604080516001600160a01b039092168252519081900360200190f35b61066b6004803603604081101561065557600080fd5b50803590602001356001600160a01b0316611465565b604080519115158252519081900360200190f35b6102e6611483565b6102e6611489565b6102e6600480360360208110156106a557600080fd5b503561148e565b6102c7600480360360208110156106c257600080fd5b50356001600160a01b03166114ac565b6106ef600480360360208110156106e857600080fd5b50356114d6565b6040805192835260208301919091528051918290030190f35b61062361153f565b6102c76004803603602081101561072657600080fd5b50356001600160a01b031661154e565b6102e66117ca565b6102e66004803603602081101561075457600080fd5b50356117d0565b6106236117e7565b6106236117f6565b6102c76004803603604081101561078157600080fd5b50803590602001356001600160a01b0316611805565b61062361185e565b6102e661186d565b6102c7600480360360408110156107bd57600080fd5b5060ff8135169060200135611873565b6102e6600480360360208110156107e357600080fd5b503560ff166118b8565b6102c76004803603602081101561080357600080fd5b503560ff166118ca565b610815611966565b60685461084b9061083090600160a81b900460ff168561199a565b6000878152606f60205260409020549063ffffffff61199a16565b6000868152606f602052604090205561086485836119f4565b61086e8483611b9f565b60ff821660009081526070602052604090205461088e906002830461199a565b60ff8316600090815260706020526040902055600281606c80549290910490910190555050505050565b606e6020526000908152604090205481565b6108d2611966565b606554606c546067546108f9926001600160a01b039182169291169063ffffffff611cb116565b606554606c54604080516321407c4d60e01b81526004810192909252516001600160a01b03909216916321407c4d9160248082019260009290919082900301818387803b15801561094957600080fd5b505af115801561095d573d6000803e3d6000fd5b50506000606c555050565b606854600160a81b900460ff1681565b610980611966565b6000606d8360ff168154811061099257fe5b600091825260208220015491506109c060646109b4858563ffffffff611d0816565b9063ffffffff611d6116565b6000868152607360209081526040808320546001600160a01b0316808452607190925290912054919250906109fb908363ffffffff61199a16565b6001600160a01b039091166000908152607160205260409020555050505050565b610a24611966565b6068546040805163101b5b3b60e21b815290516060926001600160a01b03169163406d6cec916004808301926000929190829003018186803b158015610a6957600080fd5b505afa158015610a7d573d6000803e3d6000fd5b505050506040513d6000823e601f3d908101601f191682016040526020811015610aa657600080fd5b8101908080516040519392919084640100000000821115610ac657600080fd5b908301906020820185811115610adb57600080fd5b8251866020820283011164010000000082111715610af857600080fd5b82525081516020918201928201910280838360005b83811015610b25578181015183820152602001610b0d565b505050509050016040525050509050600081511115610bdd576068546040516312732af960e31b81526020600482018181528451602484015284516001600160a01b039094169363939957c89386938392604490920191818601910280838360005b83811015610b9f578181015183820152602001610b87565b5050505090500192505050600060405180830381600087803b158015610bc457600080fd5b505af1158015610bd8573d6000803e3d6000fd5b505050505b60005b60148160ff1611610e485760ff8116600090815260726020526040902054610c0757610e40565b606d5460ff8216600090815260726020526040812054909110610c3d575060ff8116600090815260726020526040902054606d54035b606d5460ff83166000908152607260205260409020541015610d5b5760ff82166000908152607260205260408120805482916073918391908290610c7d57fe5b60009182526020808320909101548352820192909252604001902054606d546001600160a01b0390911691508390035b606d54811015610ceb57610ce1606d8281548110610cc757fe5b90600052602060002001548461199a90919063ffffffff16565b9250600101610cad565b5060ff8416600090815260706020526040902054610d3f90610d1a906064906109b4908663ffffffff611d0816565b6001600160a01b0383166000908152607160205260409020549063ffffffff61199a16565b6001600160a01b03909116600090815260716020526040902055505b60005b606d5482900360ff82161015610dc55760ff80841660009081526072602052604090208054610dbd928416908110610d9257fe5b906000526020600020015482607060008760ff1660ff16815260200190815260200160002054610980565b600101610d5e565b5060ff821660009081526070602052604081208190555b60ff8316600090815260726020526040902054811015610e3d5760ff831660009081526072602052604081208054606f91839185908110610e1957fe5b60009182526020808320909101548352820192909252604001902055600101610ddc565b50505b600101610be0565b50606954610e5d90600163ffffffff61199a16565b606981905542606a81905560408051918252517f29523b900f3bc82dba4dbf4b9eee9754c540f21fdf4f7c95f449347ad90a14919181900360200190a250565b6000610ea7611966565b506000908152607360209081526040808320546001600160a01b03168352607190915290205490565b60009081526033602052604090206002015490565b336000908152607160205260409020548015610f245733600081815260716020526040812055606754610f24916001600160a01b039091169083611cb1565b50565b600082815260336020526040902060020154610f4a90610f45611dc8565b611465565b610f855760405162461bcd60e51b815260040180806020018281038252602f8152602001806124c9602f913960400191505060405180910390fd5b610f8f8282611dcc565b5050565b610f9b611dc8565b6001600160a01b0316816001600160a01b031614610fea5760405162461bcd60e51b815260040180806020018281038252602f8152602001806125c7602f913960400191505060405180910390fd5b610f8f8282611e3b565b606f6020526000908152604090205481565b61100e611966565b6068805460ff909216600160b01b0260ff60b01b19909216919091179055565b60685460ff8281166000908152607260205260408120546060939192600160b81b9092049091161415611078575060ff82166000908152607260205260409020546000190161108d565b5060ff82166000908152607260205260409020545b60608167ffffffffffffffff811180156110a657600080fd5b506040519080825280602002602001820160405280156110d0578160200160208202803683370190505b50905060005b828110156111265760ff851660009081526072602052604090208054829081106110fc57fe5b906000526020600020015482828151811061111357fe5b60209081029190910101526001016110d6565b509392505050565b611136611966565b80606d838154811061114457fe5b6000918252602090912001555050565b606854600160b01b900460ff1681565b61116c611966565b6068805460ff909216600160b81b0260ff60b81b19909216919091179055565b611194611966565b6000918252607360209081526040808420546001600160a01b03168452607190915290912055565b604080516923a0a6a2afa0a226a4a760b11b8152905190819003600a01902081565b6111e6611966565b6068805460ff909216600160a81b0260ff60a81b19909216919091179055565b61120e611966565b6069546000828152606e602052604090205414611246576000818152606f60209081526040808320839055606954606e909252909120555b6000818152607360205260409020546001600160a01b03838116911614610f8f57600081815260736020526040902080546001600160a01b0384166001600160a01b03199091161790555050565b61129c611966565b6000918252606f602052604090912055565b6112b6611966565b6068805460ff909216600160a01b0260ff60a01b19909216919091179055565b336000908152607160205260409020545b90565b6112f2611966565b6000805b60ff831660009081526072602052604090205481101561134d5760ff8316600090815260726020526040902080548290811061132e57fe5b906000526020600020015484141561134557600191505b6001016112f6565b5060685460ff838116600090815260726020526040902054600160b81b90920416118015611379575080155b156113a45760ff82166000908152607260209081526040822080546001810182559083529120018390555b6069546000848152606e6020526040902054146113dc576000838152606f60209081526040808320839055606954606e909252909120555b6000838152607360205260409020546001600160a01b0385811691161461142557600083815260736020526040902080546001600160a01b0319166001600160a01b0386161790555b50505050565b606a5481565b611439611966565b606b55565b600082815260336020526040812061145c908363ffffffff611eaa16565b90505b92915050565b600082815260336020526040812061145c908363ffffffff611eb616565b606c5481565b600081565b606d818154811061149b57fe5b600091825260209091200154905081565b6114b4611966565b606880546001600160a01b0319166001600160a01b0392909216919091179055565b600080806114eb84600263ffffffff611d0816565b60685490915060009061150f906064906109b490600160a01b900460ff1685611d08565b9050600061153386611527858563ffffffff611ecb16565b9063ffffffff611ecb16565b94509092505050915091565b6065546001600160a01b031681565b600054610100900460ff16806115675750611567611f28565b80611575575060005460ff16155b6115b05760405162461bcd60e51b815260040180806020018281038252602e81526020018061254e602e913960400191505060405180910390fd5b600054610100900460ff161580156115db576000805460ff1961ff0019909116610100171660011790555b6115e3611f39565b6115ee600033610f85565b606580546001600160a01b0319166001600160a01b0384811691909117918290556040805163341c2ed560e21b81529051929091169163d070bb5491600480820192602092909190829003018186803b15801561164a57600080fd5b505afa15801561165e573d6000803e3d6000fd5b505050506040513d602081101561167457600080fd5b5051606680546001600160a01b0319166001600160a01b039283161790556065546040805163d1ebdfd360e01b81529051919092169163d1ebdfd3916004808301926020929190829003018186803b1580156116cf57600080fd5b505afa1580156116e3573d6000803e3d6000fd5b505050506040513d60208110156116f957600080fd5b5051606780546001600160a01b0319166001600160a01b039092169190911790556068805460ff60a01b1916600f60a01b1760ff60a81b1916600560a81b1760ff60b01b1916600360b01b1760ff60b81b1916600160ba1b1790556001606981905542606a5562093a80606b55606d805480830182556000829052603c7f5006b838207c6a9ae9b84d68f467dd4bb5c305fbfb6b04eab8faaabeec1e18d89182015581548084018355601e908201558154928301909155600a9101558015610f8f576000805461ff00191690555050565b60695481565b600081815260336020526040812061145f90611fda565b6066546001600160a01b031681565b6067546001600160a01b031681565b60008281526033602052604090206002015461182390610f45611dc8565b610fea5760405162461bcd60e51b815260040180806020018281038252603081526020018061251e6030913960400191505060405180910390fd5b6068546001600160a01b031681565b606b5481565b61187b611966565b60ff821660009081526070602052604090205461189e908263ffffffff61199a16565b60ff90921660009081526070602052604090209190915550565b60706020526000908152604090205481565b6118d2611966565b60005b60ff82166000908152607260205260409020548110156119365760ff821660009081526072602052604081208054606f9183918590811061191257fe5b600091825260208083209091015483528201929092526040019020556001016118d5565b5060ff811660009081526072602052604081206119529161246f565b60ff16600090815260706020526040812055565b604080516923a0a6a2afa0a226a4a760b11b8152905190819003600a01902061198f9033611465565b61199857600080fd5b565b60008282018381101561145c576040805162461bcd60e51b815260206004820152601b60248201527f536166654d6174683a206164646974696f6e206f766572666c6f770000000000604482015290519081900360640190fd5b6000828152606f602090815260408083205460ff8516845260729092528220909180805b835460ff82161015611a5c57838160ff1681548110611a3357fe5b9060005260206000200154871415611a54578060ff16925060019150611a5c565b600101611a18565b5080158015611a9b5750606f600084600186805490500381548110611a7d57fe5b90600052602060002001548152602001908152602001600020548410155b15611ac9578254869084906000198101908110611ab457fe5b60009182526020909120015582546000190191505b8115611b9757606f6000846001850381548110611ae257fe5b9060005260206000200154815260200190815260200160002054606f6000858581548110611b0c57fe5b906000526020600020015481526020019081526020016000205410611b86576000836001840381548110611b3c57fe5b9060005260206000200154905086846001850381548110611b5957fe5b906000526020600020018190555080848481548110611b7457fe5b60009182526020909120015550611b8b565b611b97565b60001990910190611ac9565b505050505050565b6000828152606f602090815260408083205460ff8516845260729092528220909180805b835460ff82161015611c0757838160ff1681548110611bde57fe5b9060005260206000200154871415611bff578060ff16925060019150611c07565b600101611bc3565b508015611b97575b825460001901821015611b9757606f6000848460010181548110611c2f57fe5b9060005260206000200154815260200190815260200160002054841015611b86576000838360010181548110611c6157fe5b9060005260206000200154905086848460010181548110611c7e57fe5b906000526020600020018190555080848481548110611c9957fe5b60009182526020909120015550600190910190611c0f565b604080516001600160a01b038416602482015260448082018490528251808303909101815260649091019091526020810180516001600160e01b031663a9059cbb60e01b179052611d03908490611fe5565b505050565b600082611d175750600061145f565b82820282848281611d2457fe5b041461145c5760405162461bcd60e51b815260040180806020018281038252602181526020018061257c6021913960400191505060405180910390fd5b6000808211611db7576040805162461bcd60e51b815260206004820152601a60248201527f536166654d6174683a206469766973696f6e206279207a65726f000000000000604482015290519081900360640190fd5b818381611dc057fe5b049392505050565b3390565b6000828152603360205260409020611dea908263ffffffff61209616565b15610f8f57611df7611dc8565b6001600160a01b0316816001600160a01b0316837f2f8788117e7eff1d82e926ec794901d17c78024a50270940304540a733656f0d60405160405180910390a45050565b6000828152603360205260409020611e59908263ffffffff6120ab16565b15610f8f57611e66611dc8565b6001600160a01b0316816001600160a01b0316837ff6391f5c32d9c69d2a47ea670b442974b53935d1edc7fd64eb21e047a839171b60405160405180910390a45050565b600061145c83836120c0565b600061145c836001600160a01b038416612124565b600082821115611f22576040805162461bcd60e51b815260206004820152601e60248201527f536166654d6174683a207375627472616374696f6e206f766572666c6f770000604482015290519081900360640190fd5b50900390565b6000611f333061213c565b15905090565b600054610100900460ff1680611f525750611f52611f28565b80611f60575060005460ff16155b611f9b5760405162461bcd60e51b815260040180806020018281038252602e81526020018061254e602e913960400191505060405180910390fd5b600054610100900460ff16158015611fc6576000805460ff1961ff0019909116610100171660011790555b8015610f24576000805461ff001916905550565b600061145f82612142565b606061203a826040518060400160405280602081526020017f5361666545524332303a206c6f772d6c6576656c2063616c6c206661696c6564815250856001600160a01b03166121469092919063ffffffff16565b805190915015611d035780806020019051602081101561205957600080fd5b5051611d035760405162461bcd60e51b815260040180806020018281038252602a81526020018061259d602a913960400191505060405180910390fd5b600061145c836001600160a01b03841661215f565b600061145c836001600160a01b0384166121a9565b815460009082106121025760405162461bcd60e51b81526004018080602001828103825260228152602001806124a76022913960400191505060405180910390fd5b82600001828154811061211157fe5b9060005260206000200154905092915050565b60009081526001919091016020526040902054151590565b3b151590565b5490565b6060612155848460008561226f565b90505b9392505050565b600061216b8383612124565b6121a15750815460018181018455600084815260208082209093018490558454848252828601909352604090209190915561145f565b50600061145f565b6000818152600183016020526040812054801561226557835460001980830191908101906000908790839081106121dc57fe5b90600052602060002001549050808760000184815481106121f957fe5b60009182526020808320909101929092558281526001898101909252604090209084019055865487908061222957fe5b6001900381819060005260206000200160009055905586600101600087815260200190815260200160002060009055600194505050505061145f565b600091505061145f565b6060824710156122b05760405162461bcd60e51b81526004018080602001828103825260268152602001806124f86026913960400191505060405180910390fd5b6122b98561213c565b61230a576040805162461bcd60e51b815260206004820152601d60248201527f416464726573733a2063616c6c20746f206e6f6e2d636f6e7472616374000000604482015290519081900360640190fd5b60006060866001600160a01b031685876040518082805190602001908083835b602083106123495780518252601f19909201916020918201910161232a565b6001836020036101000a03801982511681845116808217855250505050505090500191505060006040518083038185875af1925050503d80600081146123ab576040519150601f19603f3d011682016040523d82523d6000602084013e6123b0565b606091505b50915091506123c08282866123cb565b979650505050505050565b606083156123da575081612158565b8251156123ea5782518084602001fd5b8160405162461bcd60e51b81526004018080602001828103825283818151815260200191508051906020019080838360005b8381101561243457818101518382015260200161241c565b50505050905090810190601f1680156124615780820380516001836020036101000a031916815260200191505b509250505060405180910390fd5b5080546000825590600052602060002090810190610f2491906112e791905b808211156124a2576000815560010161248e565b509056fe456e756d657261626c655365743a20696e646578206f7574206f6620626f756e6473416363657373436f6e74726f6c3a2073656e646572206d75737420626520616e2061646d696e20746f206772616e74416464726573733a20696e73756666696369656e742062616c616e636520666f722063616c6c416363657373436f6e74726f6c3a2073656e646572206d75737420626520616e2061646d696e20746f207265766f6b65496e697469616c697a61626c653a20636f6e747261637420697320616c726561647920696e697469616c697a6564536166654d6174683a206d756c7469706c69636174696f6e206f766572666c6f775361666545524332303a204552433230206f7065726174696f6e20646964206e6f742073756363656564416363657373436f6e74726f6c3a2063616e206f6e6c792072656e6f756e636520726f6c657320666f722073656c66a26469706673582212202c75f524c93d1cfbb7898f190513fdacf4d7161a147800d86f70e780ce2dd0eb64736f6c63430006050033",
  "immutableReferences": {},
  "source": "pragma solidity ^0.6.0;\n// TODO: Clean unused imports after splitting contract\nimport \"@openzeppelin/contracts-upgradeable/proxy/Initializable.sol\";\nimport \"@openzeppelin/contracts-upgradeable/access/AccessControlUpgradeable.sol\";\nimport \"@openzeppelin/contracts/math/SafeMath.sol\";\nimport \"@openzeppelin/contracts/token/ERC20/IERC20.sol\";\nimport \"@openzeppelin/contracts/token/ERC20/SafeERC20.sol\";\nimport \"./cryptoblades.sol\";\nimport \"./characters.sol\";\nimport \"./PvpCore.sol\";\n\ncontract PvpRankings is Initializable, AccessControlUpgradeable {\n    using SafeMath for uint8;\n    using SafeMath for uint256;\n    using SafeERC20 for IERC20;\n\n    bytes32 public constant GAME_ADMIN = keccak256(\"GAME_ADMIN\");\n\n    CryptoBlades public game;\n    Characters public characters;\n    IERC20 public skillToken;\n    PvpCore public pvpcore;\n\n    /// @dev how much of a duel's bounty is sent to the rankings pool\n    uint8 private _rankingsPoolTaxPercent;\n    /// @dev amount of points earned by winning a duel\n    uint8 public winningPoints;\n    /// @dev amount of points subtracted by losing duel\n    uint8 public losingPoints;\n    /// @dev max amount of top characters by tier\n    uint8 private _maxTopCharactersPerTier;\n    /// @dev current ranked season\n    uint256 public currentRankedSeason;\n    /// @dev timestamp of when the current season started\n    uint256 public seasonStartedAt;\n    /// @dev interval of ranked season restarts\n    uint256 public seasonDuration;\n    /// @dev amount of skill due for game coffers from tax\n    uint256 public gameCofferTaxDue;\n    /// @dev percentages of ranked prize distribution by fighter rank (represented as index)\n    uint256[] public prizePercentages;\n\n    /// @dev season number associated to character\n    mapping(uint256 => uint256) public seasonByCharacter;\n    /// @dev ranking points by character\n    mapping(uint256 => uint256) public rankingPointsByCharacter;\n    /// @dev accumulated skill pool per tier\n    mapping(uint8 => uint256) public rankingsPoolByTier;\n    /// @dev funds available for withdrawal by address\n    mapping(address => uint256) private _rankingRewardsByPlayer;\n    /// @dev top ranking characters by tier\n    mapping(uint8 => uint256[]) private _topRankingCharactersByTier;\n    /// @dev owner's address by character ID\n    mapping(uint256 => address) private _ownerByCharacter;\n\n\n    event SeasonRestarted(\n        uint256 indexed newSeason,\n        uint256 timestamp\n    );\n\n    modifier restricted() {\n        _restricted();\n        _;\n    }\n\n    function _restricted() internal view {\n        require(hasRole(GAME_ADMIN, msg.sender));\n    }\n\n    function initialize(\n        address gameContract\n    ) public initializer {\n        __AccessControl_init_unchained();\n        _setupRole(DEFAULT_ADMIN_ROLE, msg.sender);\n\n        game = CryptoBlades(gameContract);\n        characters = Characters(game.characters());\n        skillToken = IERC20(game.skillToken());\n\n        _rankingsPoolTaxPercent = 15;\n        winningPoints = 5;\n        losingPoints = 3;\n        _maxTopCharactersPerTier = 4;\n        currentRankedSeason = 1;\n        seasonStartedAt = block.timestamp;\n        seasonDuration = 7 days;\n        prizePercentages.push(60);\n        prizePercentages.push(30);\n        prizePercentages.push(10);\n    }\n\n    function withdrawRankedRewards() external {\n        uint256 amountToTransfer = _rankingRewardsByPlayer[msg.sender];\n\n        if (amountToTransfer > 0) {\n            _rankingRewardsByPlayer[msg.sender] = 0;\n\n            skillToken.safeTransfer(msg.sender, amountToTransfer);\n        }\n    }\n\n    function restartRankedSeason() external restricted {\n        uint256[] memory duelQueue = pvpcore.getDuelQueue();\n\n        if (duelQueue.length > 0) {\n            pvpcore.performDuels(duelQueue);\n        }\n\n        // Loops over 20 tiers. Should not be reachable anytime in the foreseeable future\n        for (uint8 i = 0; i <= 20; i++) {\n            if (_topRankingCharactersByTier[i].length == 0) {\n                continue;\n            }\n\n            uint256 difference = 0;\n\n            if (\n                _topRankingCharactersByTier[i].length <= prizePercentages.length\n            ) {\n                difference =\n                    prizePercentages.length -\n                    _topRankingCharactersByTier[i].length;\n            }\n\n            // If there are less players than top positions, excess is transferred to top 1\n            if (\n                _topRankingCharactersByTier[i].length < prizePercentages.length\n            ) {\n                uint256 excessPercentage;\n                \n                address topOnePlayer = _ownerByCharacter[_topRankingCharactersByTier[i][0]];\n\n                // We accumulate excess percentage\n                for (\n                    uint256 j = prizePercentages.length - difference;\n                    j < prizePercentages.length;\n                    j++\n                ) {\n                    excessPercentage = excessPercentage.add(\n                        prizePercentages[j]\n                    );\n                }\n\n                // We assign excessive rewards to top 1 player\n                _rankingRewardsByPlayer[topOnePlayer] = _rankingRewardsByPlayer[\n                    topOnePlayer\n                ].add((rankingsPoolByTier[i].mul(excessPercentage)).div(100));\n            }\n\n            // We assign rewards normally to all possible players\n            for (uint8 h = 0; h < prizePercentages.length - difference; h++) {\n                _assignRewards(\n                    _topRankingCharactersByTier[i][h],\n                    h,\n                    rankingsPoolByTier[i]\n                );\n            }\n\n            // We reset ranking prize pools\n            rankingsPoolByTier[i] = 0;\n \n            // We reset top players' scores\n            for (uint256 k = 0; k < _topRankingCharactersByTier[i].length; k++) {\n                rankingPointsByCharacter[_topRankingCharactersByTier[i][k]] = 0;\n            }\n        }\n\n        currentRankedSeason = currentRankedSeason.add(1);\n        seasonStartedAt = block.timestamp;\n\n        emit SeasonRestarted(\n                currentRankedSeason,\n                seasonStartedAt\n            );\n    }\n\n    // Note: Manual method in case of issues, remove when not needed.\n    function forceAssignRewards(\n        uint256 characterID,\n        uint8 position,\n        uint256 pool\n    ) external restricted {\n        uint256 percentage = prizePercentages[position];\n        uint256 amountToTransfer = (pool.mul(percentage)).div(100);\n        address playerToTransfer = _ownerByCharacter[characterID];\n\n        _rankingRewardsByPlayer[playerToTransfer] = _rankingRewardsByPlayer[\n            playerToTransfer\n        ].add(amountToTransfer);\n    }\n\n    // Note: Manual method in case of issues, remove when not needed.\n    function changeRankingRewards(\n        uint256 characterID,\n        uint256 amount\n    ) external restricted {\n        address playerToTransfer = _ownerByCharacter[characterID];\n\n        _rankingRewardsByPlayer[playerToTransfer] = amount;\n    }\n\n    // Note: Manual method in case of issues, remove when not needed.\n    function getRankingRewards(\n        uint256 characterID\n    ) external restricted view returns (uint256) {\n        address player = _ownerByCharacter[characterID];\n\n        return _rankingRewardsByPlayer[player];\n    }\n\n    // Note: Manual method in case of issues, remove when not needed.\n    function clearTierTopCharacters(uint8 tier) external restricted {\n        for (uint256 k = 0; k < _topRankingCharactersByTier[tier].length; k++) {\n            rankingPointsByCharacter[_topRankingCharactersByTier[tier][k]] = 0;\n        }\n        delete _topRankingCharactersByTier[tier];\n        rankingsPoolByTier[tier] = 0;\n    }\n\n    function _processWinner(uint256 winnerID, uint8 tier) private {\n        uint256 rankingPoints = rankingPointsByCharacter[winnerID];\n        uint256[] storage topRankingCharacters = _topRankingCharactersByTier[\n            tier\n        ];\n        uint256 winnerPosition;\n        bool winnerInRanking;\n\n        // check if winner is withing the top 4\n        for (uint8 i = 0; i < topRankingCharacters.length; i++) {\n            if (winnerID == topRankingCharacters[i]) {\n                winnerPosition = i;\n                winnerInRanking = true;\n                break;\n            }\n        }\n        \n        // if the winner is not in the top characters we then compare it to the last character of the top rank, swapping positions if the condition is met\n        if (\n            !winnerInRanking &&\n            rankingPoints >=\n            rankingPointsByCharacter[\n                topRankingCharacters[topRankingCharacters.length - 1]\n            ]\n        ) {\n            topRankingCharacters[topRankingCharacters.length - 1] = winnerID;\n            winnerPosition = topRankingCharacters.length - 1;\n        }\n\n        for (winnerPosition; winnerPosition > 0; winnerPosition--) {\n            if (\n                rankingPointsByCharacter[\n                    topRankingCharacters[winnerPosition]\n                ] >=\n                rankingPointsByCharacter[\n                    topRankingCharacters[winnerPosition - 1]\n                ]\n            ) {\n                uint256 oldCharacter = topRankingCharacters[winnerPosition - 1];\n                topRankingCharacters[winnerPosition - 1] = winnerID;\n                topRankingCharacters[winnerPosition] = oldCharacter;\n            } else {\n                break;\n            }\n        }\n    }\n\n    function _processLoser(uint256 loserID, uint8 tier) private {\n        uint256 rankingPoints = rankingPointsByCharacter[loserID];\n        uint256[] storage ranking = _topRankingCharactersByTier[tier];\n        uint256 loserPosition;\n        bool loserFound;\n\n        // check if the loser is in the top 4\n        for (uint8 i = 0; i < ranking.length; i++) {\n            if (loserID == ranking[i]) {\n                loserPosition = i;\n                loserFound = true;\n                break;\n            }\n        }\n        // if the character is within the top 4, compare it to the character that precedes it and swap positions if the condition is met\n        if (loserFound) {\n            for (\n                loserPosition;\n                loserPosition < ranking.length - 1;\n                loserPosition++\n            ) {\n                if (\n                    rankingPoints <\n                    rankingPointsByCharacter[ranking[loserPosition + 1]]\n                ) {\n                    uint256 oldCharacter = ranking[loserPosition + 1];\n                    ranking[loserPosition + 1] = loserID;\n                    ranking[loserPosition] = oldCharacter;\n                } else {\n                    break;\n                }\n            }\n        }\n    }\n\n    function getTierTopCharacters(uint8 tier)\n        external\n        view\n        returns (uint256[] memory)\n    {\n        uint256 arrayLength;\n        // we return only the top 3 players, returning the array without the pivot ranker if it exists\n        if (\n            _topRankingCharactersByTier[tier].length == _maxTopCharactersPerTier\n        ) {\n            arrayLength = _topRankingCharactersByTier[tier].length - 1;\n        } else {\n            arrayLength = _topRankingCharactersByTier[tier].length;\n        }\n        uint256[] memory topRankers = new uint256[](arrayLength);\n        for (uint256 i = 0; i < arrayLength; i++) {\n            topRankers[i] = _topRankingCharactersByTier[tier][i];\n        }\n\n        return topRankers;\n    }\n\n    function getPlayerPrizePoolRewards() external view returns (uint256) {\n        return _rankingRewardsByPlayer[msg.sender];\n    }\n\n    function _assignRewards(\n        uint256 characterID,\n        uint8 position,\n        uint256 pool\n    ) private {\n        uint256 percentage = prizePercentages[position];\n        uint256 amountToTransfer = (pool.mul(percentage)).div(100);\n        address playerToTransfer = _ownerByCharacter[characterID];\n\n        _rankingRewardsByPlayer[playerToTransfer] = _rankingRewardsByPlayer[\n            playerToTransfer\n        ].add(amountToTransfer);\n    }\n\n    function getDuelBountyDistribution(uint256 duelCost)\n        external\n        view\n        returns (uint256, uint256)\n    {\n        uint256 bounty = duelCost.mul(2);\n        uint256 poolTax = _rankingsPoolTaxPercent.mul(bounty).div(100);\n\n        uint256 reward = bounty.sub(poolTax).sub(duelCost);\n\n        return (reward, poolTax);\n    }\n\n    function fillGameCoffers() external restricted {\n        skillToken.safeTransfer(address(game), gameCofferTaxDue);\n        game.trackIncome(gameCofferTaxDue);\n        gameCofferTaxDue = 0;\n    }\n\n    function increaseRankingsPool(uint8 tier, uint256 amount) external restricted {\n        rankingsPoolByTier[tier] = rankingsPoolByTier[tier].add(amount);\n    }\n\n    function changeRankingPoints(uint256 characterID, uint256 points) external restricted {\n        rankingPointsByCharacter[characterID] = points;\n    }\n\n    function handleEnterArena(address fighter, uint256 characterID, uint8 tier) external restricted {\n        bool isCharacterInTopRanks;\n    \n        for (uint i = 0; i < _topRankingCharactersByTier[tier].length; i++) {\n            if (characterID == _topRankingCharactersByTier[tier][i]) {\n                isCharacterInTopRanks = true;\n            }\n        }\n\n        if (\n            _topRankingCharactersByTier[tier].length <\n            _maxTopCharactersPerTier && !isCharacterInTopRanks\n        ) {\n            _topRankingCharactersByTier[tier].push(characterID);\n        }\n\n        if (seasonByCharacter[characterID] != currentRankedSeason) {\n            rankingPointsByCharacter[characterID] = 0;\n            seasonByCharacter[characterID] = currentRankedSeason;\n        }\n\n        if (_ownerByCharacter[characterID] != fighter) {\n            _ownerByCharacter[characterID] = fighter;\n        }\n    }\n\n    function handlePrepareDuel(address fighter, uint256 characterID) external restricted {\n        if (seasonByCharacter[characterID] != currentRankedSeason) {\n            rankingPointsByCharacter[characterID] = 0;\n            seasonByCharacter[characterID] = currentRankedSeason;\n        }\n\n        if (_ownerByCharacter[characterID] != fighter) {\n            _ownerByCharacter[characterID] = fighter;\n        }\n    }\n\n    function handlePerformDuel(uint256 winnerID, uint256 loserID, uint256 bonusRank, uint8 tier, uint256 poolTax) external restricted {\n        rankingPointsByCharacter[winnerID] = rankingPointsByCharacter[\n                winnerID\n        ].add(winningPoints.add(bonusRank));\n\n        // Mute the ranking loss from users in pvpRankings\n        // if (rankingPointsByCharacter[loserID] <= losingPoints) {\n        //     rankingPointsByCharacter[loserID] = 0;\n        // } else {\n        //     rankingPointsByCharacter[loserID] = rankingPointsByCharacter[\n        //         loserID\n        //     ].sub(losingPoints);\n        // }\n\n        _processWinner(winnerID, tier);\n        _processLoser(loserID, tier);\n\n        rankingsPoolByTier[tier] = rankingsPoolByTier[\n            tier\n        ].add(poolTax / 2);\n\n        gameCofferTaxDue += poolTax / 2;\n    }\n\n    // SETTERS\n\n    function setPrizePercentage(uint256 index, uint256 value)\n        external\n        restricted\n    {\n        prizePercentages[index] = value;\n    }\n\n    function setRankingsPoolTaxPercent(uint8 percent) external restricted {\n        _rankingsPoolTaxPercent = percent;\n    }\n\n    function setWinningPoints(uint8 pts) external restricted {\n        winningPoints = pts;\n    }\n\n    function setLosingPoints(uint8 pts) external restricted {\n        losingPoints = pts;\n    }\n\n    function setMaxTopCharactersPerTier(uint8 max) external restricted {\n        _maxTopCharactersPerTier = max;\n    }\n\n    function setSeasonDuration(uint256 duration) external restricted {\n        seasonDuration = duration;\n    }\n\n    function setPvpCoreAddress(address pvpCoreContract) external restricted {\n        pvpcore = PvpCore(pvpCoreContract);\n    }\n}",
  "sourcePath": "/mnt/e/work/cryptoblades/contracts/PvpRankings.sol",
  "compiler": {
    "name": "solc",
    "version": "0.6.5+commit.f956cc89.Emscripten.clang"
  },
  "schemaVersion": "3.3.4",
  "updatedAt": "2023-01-24T17:45:31.680Z",
  "devdoc": {
    "methods": {
      "getRoleAdmin(bytes32)": {
        "details": "Returns the admin role that controls `role`. See {grantRole} and {revokeRole}.     * To change a role's admin, use {_setRoleAdmin}."
      },
      "getRoleMember(bytes32,uint256)": {
        "details": "Returns one of the accounts that have `role`. `index` must be a value between 0 and {getRoleMemberCount}, non-inclusive.     * Role bearers are not sorted in any particular way, and their ordering may change at any point.     * WARNING: When using {getRoleMember} and {getRoleMemberCount}, make sure you perform all queries on the same block. See the following https://forum.openzeppelin.com/t/iterating-over-elements-on-enumerableset-in-openzeppelin-contracts/2296[forum post] for more information."
      },
      "getRoleMemberCount(bytes32)": {
        "details": "Returns the number of accounts that have `role`. Can be used together with {getRoleMember} to enumerate all bearers of a role."
      },
      "grantRole(bytes32,address)": {
        "details": "Grants `role` to `account`.     * If `account` had not been already granted `role`, emits a {RoleGranted} event.     * Requirements:     * - the caller must have ``role``'s admin role."
      },
      "hasRole(bytes32,address)": {
        "details": "Returns `true` if `account` has been granted `role`."
      },
      "renounceRole(bytes32,address)": {
        "details": "Revokes `role` from the calling account.     * Roles are often managed via {grantRole} and {revokeRole}: this function's purpose is to provide a mechanism for accounts to lose their privileges if they are compromised (such as when a trusted device is misplaced).     * If the calling account had been granted `role`, emits a {RoleRevoked} event.     * Requirements:     * - the caller must be `account`."
      },
      "revokeRole(bytes32,address)": {
        "details": "Revokes `role` from `account`.     * If `account` had been granted `role`, emits a {RoleRevoked} event.     * Requirements:     * - the caller must have ``role``'s admin role."
      }
    }
  },
  "userdoc": {
    "methods": {}
  }
}