{
  "contractName": "RaidBasic",
  "abi": [
    {
      "anonymous": false,
      "inputs": [],
      "name": "RaidCompleted",
      "type": "event"
    },
    {
      "anonymous": false,
      "inputs": [],
      "name": "RaidReset",
      "type": "event"
    },
    {
      "anonymous": false,
      "inputs": [
        {
          "indexed": false,
          "internalType": "address",
          "name": "owner",
          "type": "address"
        },
        {
          "indexed": false,
          "internalType": "uint256",
          "name": "character",
          "type": "uint256"
        },
        {
          "indexed": false,
          "internalType": "uint256",
          "name": "weapon",
          "type": "uint256"
        },
        {
          "indexed": false,
          "internalType": "uint24",
          "name": "power",
          "type": "uint24"
        }
      ],
      "name": "RaiderJoined",
      "type": "event"
    },
    {
      "anonymous": false,
      "inputs": [
        {
          "indexed": false,
          "internalType": "address",
          "name": "addr",
          "type": "address"
        },
        {
          "indexed": false,
          "internalType": "uint256",
          "name": "wepID",
          "type": "uint256"
        }
      ],
      "name": "WeaponWinner",
      "type": "event"
    },
    {
      "anonymous": false,
      "inputs": [
        {
          "indexed": false,
          "internalType": "address",
          "name": "addr",
          "type": "address"
        },
        {
          "indexed": false,
          "internalType": "uint256",
          "name": "charID",
          "type": "uint256"
        },
        {
          "indexed": false,
          "internalType": "uint256",
          "name": "amount",
          "type": "uint256"
        }
      ],
      "name": "XpReward",
      "type": "event"
    },
    {
      "inputs": [],
      "name": "getExpectedFinishTime",
      "outputs": [
        {
          "internalType": "uint256",
          "name": "",
          "type": "uint256"
        }
      ],
      "stateMutability": "view",
      "type": "function"
    },
    {
      "inputs": [],
      "name": "getRaiderCount",
      "outputs": [
        {
          "internalType": "uint256",
          "name": "",
          "type": "uint256"
        }
      ],
      "stateMutability": "view",
      "type": "function"
    },
    {
      "inputs": [
        {
          "internalType": "address",
          "name": "to",
          "type": "address"
        }
      ],
      "name": "grantAccess",
      "outputs": [],
      "stateMutability": "nonpayable",
      "type": "function"
    },
    {
      "inputs": [
        {
          "internalType": "uint256",
          "name": "character",
          "type": "uint256"
        }
      ],
      "name": "isRaider",
      "outputs": [
        {
          "internalType": "bool",
          "name": "",
          "type": "bool"
        }
      ],
      "stateMutability": "view",
      "type": "function"
    },
    {
      "inputs": [
        {
          "internalType": "address",
          "name": "from",
          "type": "address"
        }
      ],
      "name": "revokeAccess",
      "outputs": [],
      "stateMutability": "nonpayable",
      "type": "function"
    },
    {
      "inputs": [
        {
          "internalType": "uint256",
          "name": "time",
          "type": "uint256"
        }
      ],
      "name": "setExpectedFinishTime",
      "outputs": [],
      "stateMutability": "nonpayable",
      "type": "function"
    },
    {
      "inputs": [],
      "name": "initialize",
      "outputs": [],
      "stateMutability": "nonpayable",
      "type": "function"
    },
    {
      "inputs": [
        {
          "internalType": "address",
          "name": "gameContract",
          "type": "address"
        }
      ],
      "name": "initialize",
      "outputs": [],
      "stateMutability": "nonpayable",
      "type": "function"
    },
    {
      "inputs": [
        {
          "internalType": "uint256",
          "name": "characterID",
          "type": "uint256"
        },
        {
          "internalType": "uint256",
          "name": "weaponID",
          "type": "uint256"
        }
      ],
      "name": "addRaider",
      "outputs": [],
      "stateMutability": "nonpayable",
      "type": "function"
    },
    {
      "inputs": [
        {
          "internalType": "uint256",
          "name": "seed",
          "type": "uint256"
        }
      ],
      "name": "completeRaid",
      "outputs": [],
      "stateMutability": "nonpayable",
      "type": "function"
    },
    {
      "inputs": [],
      "name": "reset",
      "outputs": [],
      "stateMutability": "nonpayable",
      "type": "function"
    },
    {
      "inputs": [
        {
          "internalType": "uint8",
          "name": "trait",
          "type": "uint8"
        }
      ],
      "name": "setBossTrait",
      "outputs": [],
      "stateMutability": "nonpayable",
      "type": "function"
    },
    {
      "inputs": [],
      "name": "getTotalPower",
      "outputs": [
        {
          "internalType": "uint256",
          "name": "",
          "type": "uint256"
        }
      ],
      "stateMutability": "view",
      "type": "function"
    },
    {
      "inputs": [],
      "name": "getWeaponDrops",
      "outputs": [
        {
          "internalType": "uint256[]",
          "name": "",
          "type": "uint256[]"
        }
      ],
      "stateMutability": "view",
      "type": "function"
    },
    {
      "inputs": [
        {
          "internalType": "uint64",
          "name": "secs",
          "type": "uint64"
        }
      ],
      "name": "setStaminaDrainSeconds",
      "outputs": [],
      "stateMutability": "nonpayable",
      "type": "function"
    },
    {
      "inputs": [],
      "name": "getStaminaDrainSeconds",
      "outputs": [
        {
          "internalType": "uint64",
          "name": "",
          "type": "uint64"
        }
      ],
      "stateMutability": "view",
      "type": "function"
    }
  ],
  "bytecode": "0x608060405234801561001057600080fd5b50610f78806100206000396000f3fe608060405234801561001057600080fd5b50600436106101005760003560e01c806385e6853111610097578063d826f88f11610066578063d826f88f1461024f578063da574c5814610257578063f08e33bf14610288578063f7582168146102ad57610100565b806385e68531146101f35780638fcc2c3a14610219578063bde13ade14610221578063c4d66de81461022957610100565b80636c771ea0116100d35780636c771ea01461018a57806372362611146101b15780637fcf0cd7146101ce5780638129fc1c146101eb57610100565b80630ae5e739146101055780633330c1dc1461012d578063434594dd1461015057806353976a2614610170575b600080fd5b61012b6004803603602081101561011b57600080fd5b50356001600160a01b0316610305565b005b61012b6004803603604081101561014357600080fd5b5080359060200135610386565b61012b6004803603602081101561016657600080fd5b503560ff1661062f565b61017861069f565b60408051918252519081900360200190f35b61012b600480360360208110156101a057600080fd5b503567ffffffffffffffff166106a6565b61012b600480360360208110156101c757600080fd5b5035610724565b61012b600480360360208110156101e457600080fd5b5035610783565b61012b610858565b61012b6004803603602081101561020957600080fd5b50356001600160a01b0316610917565b610178610992565b610178610998565b61012b6004803603602081101561023f57600080fd5b50356001600160a01b031661099e565b61012b610a5f565b6102746004803603602081101561026d57600080fd5b5035610ad6565b604080519115158252519081900360200190f35b610290610aeb565b6040805167ffffffffffffffff9092168252519081900360200190f35b6102b5610afb565b60408051602080825283518183015283519192839290830191858101910280838360005b838110156102f15781810151838201526020016102d9565b505050509050019250505060405180910390f35b3360009081526001602081905260409091205460ff1615151461035f576040805162461bcd60e51b815260206004820152600d60248201526c1058d8d95cdcc819195b9a5959609a1b604482015290519081900360640190fd5b6001600160a01b03166000908152600160208190526040909120805460ff19169091179055565b600554604080516331a9108f60e11b815260048101859052905133926001600160a01b031691636352211e916024808301926020929190829003018186803b1580156103d157600080fd5b505afa1580156103e5573d6000803e3d6000fd5b505050506040513d60208110156103fb57600080fd5b50516001600160a01b03161461041057600080fd5b600654604080516331a9108f60e11b815260048101849052905133926001600160a01b031691636352211e916024808301926020929190829003018186803b15801561045b57600080fd5b505afa15801561046f573d6000803e3d6000fd5b505050506040513d602081101561048557600080fd5b50516001600160a01b03161461049a57600080fd5b60008281526008602052604090205460ff16156104e85760405162461bcd60e51b815260040180806020018281038252602a815260200180610f19602a913960400191505060405180910390fd5b60008281526008602090815260408083208054600160ff1990911681179091558151608080820184523380835282860189815283860189815260608086018a81526007805498890181558b5295517fa66cc928b5edb82af9bd49922954155ab7b0942694bea4ce44661d9a8736c68860049098029788015591517fa66cc928b5edb82af9bd49922954155ab7b0942694bea4ce44661d9a8736c689870155517fa66cc928b5edb82af9bd49922954155ab7b0942694bea4ce44661d9a8736c68a86015592517fa66cc928b5edb82af9bd49922954155ab7b0942694bea4ce44661d9a8736c68b909401805462ffffff191662ffffff9095169490941790935583519283529382018790528183018690528101849052905183927f3b5b51314c72259d72381975d913d49f7b46afc94c0d15e935202c8ecf5c1465928290030190a150505050565b3360009081526001602081905260409091205460ff16151514610689576040805162461bcd60e51b815260206004820152600d60248201526c1058d8d95cdcc819195b9a5959609a1b604482015290519081900360640190fd5b600c805460ff191660ff92909216919091179055565b600d545b90565b3360009081526001602081905260409091205460ff16151514610700576040805162461bcd60e51b815260206004820152600d60248201526c1058d8d95cdcc819195b9a5959609a1b604482015290519081900360640190fd5b6009805467ffffffffffffffff191667ffffffffffffffff92909216919091179055565b3360009081526001602081905260409091205460ff1615151461077e576040805162461bcd60e51b815260206004820152600d60248201526c1058d8d95cdcc819195b9a5959609a1b604482015290519081900360640190fd5b600355565b3360009081526001602081905260409091205460ff161515146107dd576040805162461bcd60e51b815260206004820152600d60248201526c1058d8d95cdcc819195b9a5959609a1b604482015290519081900360640190fd5b60025460ff161561081f5760405162461bcd60e51b8152600401808060200182810382526027815260200180610ec46027913960400191505060405180910390fd5b6002805460ff191660011790556040517f05c57ab95c0002b1c500198dff372a054d7d3271602b5c20d4ae31119141d8e390600090a150565b600054610100900460ff16806108715750610871610b53565b8061087f575060005460ff16155b6108ba5760405162461bcd60e51b815260040180806020018281038252602e815260200180610eeb602e913960400191505060405180910390fd5b600054610100900460ff161580156108e5576000805460ff1961ff0019909116610100171660011790555b336000908152600160208190526040909120805460ff191690911790558015610914576000805461ff00191690555b50565b3360009081526001602081905260409091205460ff16151514610971576040805162461bcd60e51b815260206004820152600d60248201526c1058d8d95cdcc819195b9a5959609a1b604482015290519081900360640190fd5b6001600160a01b03166000908152600160205260409020805460ff19169055565b60075490565b60035490565b600054610100900460ff16806109b757506109b7610b53565b806109c5575060005460ff16155b610a005760405162461bcd60e51b815260040180806020018281038252602e815260200180610eeb602e913960400191505060405180910390fd5b600054610100900460ff16158015610a2b576000805460ff1961ff0019909116610100171660011790555b610a3482610b64565b6009805467ffffffffffffffff191661a8c01790558015610a5b576000805461ff00191690555b5050565b3360009081526001602081905260409091205460ff16151514610ab9576040805162461bcd60e51b815260206004820152600d60248201526c1058d8d95cdcc819195b9a5959609a1b604482015290519081900360640190fd5b6000600d819055610acc90600a90610e31565b610ad4610d3f565b565b60009081526008602052604090205460ff1690565b60095467ffffffffffffffff1690565b6060600a805480602002602001604051908101604052809291908181526020018280548015610b4957602002820191906000526020600020905b815481526020019060010190808311610b35575b5050505050905090565b6000610b5e30610e2b565b15905090565b600054610100900460ff1680610b7d5750610b7d610b53565b80610b8b575060005460ff16155b610bc65760405162461bcd60e51b815260040180806020018281038252602e815260200180610eeb602e913960400191505060405180910390fd5b600054610100900460ff16158015610bf1576000805460ff1961ff0019909116610100171660011790555b610bf9610858565b610c0282610305565b600480546001600160a01b0319166001600160a01b03848116919091178083556040805163341c2ed560e21b81529051919092169263d070bb5492808201926020929091829003018186803b158015610c5a57600080fd5b505afa158015610c6e573d6000803e3d6000fd5b505050506040513d6020811015610c8457600080fd5b5051600580546001600160a01b0319166001600160a01b039283161790556004805460408051635bf0e6c360e11b81529051919093169263b7e1cd869281810192602092909190829003018186803b158015610cdf57600080fd5b505afa158015610cf3573d6000803e3d6000fd5b505050506040513d6020811015610d0957600080fd5b5051600680546001600160a01b0319166001600160a01b039092169190911790558015610a5b576000805461ff00191690555050565b3360009081526001602081905260409091205460ff16151514610d99576040805162461bcd60e51b815260206004820152600d60248201526c1058d8d95cdcc819195b9a5959609a1b604482015290519081900360640190fd5b60005b600754811015610de9576008600060078381548110610db757fe5b600091825260208083206001600490930201820154845283019390935260409091019020805460ff1916905501610d9c565b50610df660076000610e4f565b6002805460ff191690556040517fa645797aa1dfd9e6468e9839242e439c1c97e015cf6667c4d201368fc3983c0d90600090a1565b3b151590565b50805460008255906000526020600020908101906109149190610e70565b50805460008255600402906000526020600020908101906109149190610e8e565b6106a391905b80821115610e8a5760008155600101610e76565b5090565b6106a391905b80821115610e8a57600080825560018201819055600282015560038101805462ffffff19169055600401610e9456fe5261696420616c726561647920636f6d706c657465642c2072756e207265736574206669727374496e697469616c697a61626c653a20636f6e747261637420697320616c726561647920696e697469616c697a6564546869732063686172616374657220697320616c72656164792070617274206f66207468652072616964a2646970667358221220e9f46d10f2b8bbf7885a7c1b0d8269586d90100a64bdc8e2cbcaa320165d715f64736f6c63430006050033",
  "immutableReferences": {},
  "source": "pragma solidity ^0.6.0;\n\nimport \"@openzeppelin/contracts-upgradeable/proxy/Initializable.sol\";\nimport \"abdk-libraries-solidity/ABDKMath64x64.sol\";\nimport \"./raid.sol\";\n\ncontract RaidBasic is Initializable, Raid {\n\n    // THIS AND raid.sol are old unused files, DO NOT USE!\n\n    using ABDKMath64x64 for int128;\n    using ABDKMath64x64 for uint256;\n\n    uint64 internal staminaDrain;\n    uint256[] weaponDrops; // given out randomly, we add them manually\n    uint256 bounty; // UNUSED; KEPT FOR UPGRADE PROXY BACKWARDS COMPAT\n    uint8 bossTrait; // set manually for now\n\n    uint256 totalPower;\n\n    event XpReward(address addr, uint256 charID, uint256 amount);\n    event WeaponWinner(address addr, uint256 wepID);\n\n    function initialize(address gameContract) public override initializer {\n        Raid.initialize(gameContract);\n\n        staminaDrain = 12 * 60 * 60;\n    }\n\n    function addRaider(uint256 characterID, uint256 weaponID) public override {\n        require(characters.ownerOf(characterID) == msg.sender);\n        require(weapons.ownerOf(weaponID) == msg.sender);\n        require(participation[characterID] == false, \"This character is already part of the raid\");\n\n        participation[characterID] = true;\n        // we drain ~12h of stamina from the character\n        // we may want to have a specific lockout in the future\n        int128 traitMultiplier = 0;\n        uint24 power = 0;\n        totalPower += power;\n        raiders.push(Raider(uint256(msg.sender), characterID, weaponID, power));\n        emit RaiderJoined(msg.sender, characterID, weaponID, power);\n    }\n\n    function completeRaid(uint256 seed) public override restricted {\n        require(completed == false, \"Raid already completed, run reset first\");\n        completed = true;\n\n        emit RaidCompleted();\n    }\n\n    function reset() public override restricted {\n        totalPower = 0;\n        delete weaponDrops;\n        super.reset();\n    }\n\n    function setBossTrait(uint8 trait) public restricted {\n        bossTrait = trait;\n    }\n\n    function getTotalPower() public view returns(uint256) {\n        return totalPower;\n    }\n\n    function getWeaponDrops() public view returns(uint256[] memory) {\n        return weaponDrops;\n    }\n\n    function setStaminaDrainSeconds(uint64 secs) public restricted {\n        staminaDrain = secs;\n    }\n\n    function getStaminaDrainSeconds() public view returns(uint64) {\n        return staminaDrain;\n    }\n}",
  "sourcePath": "/mnt/e/work/cryptoblades/contracts/raidBasic.sol",
  "compiler": {
    "name": "solc",
    "version": "0.6.5+commit.f956cc89.Emscripten.clang"
  },
  "schemaVersion": "3.3.4",
  "updatedAt": "2023-01-24T17:45:32.167Z",
  "devdoc": {
    "methods": {}
  },
  "userdoc": {
    "methods": {}
  }
}