{
  "contractName": "SafeRandoms",
  "abi": [
    {
      "anonymous": false,
      "inputs": [
        {
          "indexed": true,
          "internalType": "bytes32",
          "name": "role",
          "type": "bytes32"
        },
        {
          "indexed": true,
          "internalType": "bytes32",
          "name": "previousAdminRole",
          "type": "bytes32"
        },
        {
          "indexed": true,
          "internalType": "bytes32",
          "name": "newAdminRole",
          "type": "bytes32"
        }
      ],
      "name": "RoleAdminChanged",
      "type": "event"
    },
    {
      "anonymous": false,
      "inputs": [
        {
          "indexed": true,
          "internalType": "bytes32",
          "name": "role",
          "type": "bytes32"
        },
        {
          "indexed": true,
          "internalType": "address",
          "name": "account",
          "type": "address"
        },
        {
          "indexed": true,
          "internalType": "address",
          "name": "sender",
          "type": "address"
        }
      ],
      "name": "RoleGranted",
      "type": "event"
    },
    {
      "anonymous": false,
      "inputs": [
        {
          "indexed": true,
          "internalType": "bytes32",
          "name": "role",
          "type": "bytes32"
        },
        {
          "indexed": true,
          "internalType": "address",
          "name": "account",
          "type": "address"
        },
        {
          "indexed": true,
          "internalType": "address",
          "name": "sender",
          "type": "address"
        }
      ],
      "name": "RoleRevoked",
      "type": "event"
    },
    {
      "anonymous": false,
      "inputs": [
        {
          "indexed": true,
          "internalType": "address",
          "name": "popper",
          "type": "address"
        },
        {
          "indexed": true,
          "internalType": "uint256",
          "name": "requestId",
          "type": "uint256"
        }
      ],
      "name": "SeedPopped",
      "type": "event"
    },
    {
      "anonymous": false,
      "inputs": [
        {
          "indexed": true,
          "internalType": "address",
          "name": "requester",
          "type": "address"
        },
        {
          "indexed": true,
          "internalType": "uint256",
          "name": "requestId",
          "type": "uint256"
        }
      ],
      "name": "SeedRequested",
      "type": "event"
    },
    {
      "anonymous": false,
      "inputs": [
        {
          "indexed": true,
          "internalType": "address",
          "name": "resolver",
          "type": "address"
        },
        {
          "indexed": true,
          "internalType": "uint256",
          "name": "seedIndex",
          "type": "uint256"
        }
      ],
      "name": "SeedResolved",
      "type": "event"
    },
    {
      "inputs": [],
      "name": "DEFAULT_ADMIN_ROLE",
      "outputs": [
        {
          "internalType": "bytes32",
          "name": "",
          "type": "bytes32"
        }
      ],
      "stateMutability": "view",
      "type": "function"
    },
    {
      "inputs": [],
      "name": "GAME_ADMIN",
      "outputs": [
        {
          "internalType": "bytes32",
          "name": "",
          "type": "bytes32"
        }
      ],
      "stateMutability": "view",
      "type": "function"
    },
    {
      "inputs": [],
      "name": "currentSeedIndex",
      "outputs": [
        {
          "internalType": "uint256",
          "name": "",
          "type": "uint256"
        }
      ],
      "stateMutability": "view",
      "type": "function"
    },
    {
      "inputs": [],
      "name": "emitPopEvent",
      "outputs": [
        {
          "internalType": "bool",
          "name": "",
          "type": "bool"
        }
      ],
      "stateMutability": "view",
      "type": "function"
    },
    {
      "inputs": [],
      "name": "emitRequestEvent",
      "outputs": [
        {
          "internalType": "bool",
          "name": "",
          "type": "bool"
        }
      ],
      "stateMutability": "view",
      "type": "function"
    },
    {
      "inputs": [],
      "name": "emitResolutionEvent",
      "outputs": [
        {
          "internalType": "bool",
          "name": "",
          "type": "bool"
        }
      ],
      "stateMutability": "view",
      "type": "function"
    },
    {
      "inputs": [],
      "name": "firstRequestBlockNumber",
      "outputs": [
        {
          "internalType": "uint256",
          "name": "",
          "type": "uint256"
        }
      ],
      "stateMutability": "view",
      "type": "function"
    },
    {
      "inputs": [
        {
          "internalType": "bytes32",
          "name": "role",
          "type": "bytes32"
        }
      ],
      "name": "getRoleAdmin",
      "outputs": [
        {
          "internalType": "bytes32",
          "name": "",
          "type": "bytes32"
        }
      ],
      "stateMutability": "view",
      "type": "function"
    },
    {
      "inputs": [
        {
          "internalType": "bytes32",
          "name": "role",
          "type": "bytes32"
        },
        {
          "internalType": "uint256",
          "name": "index",
          "type": "uint256"
        }
      ],
      "name": "getRoleMember",
      "outputs": [
        {
          "internalType": "address",
          "name": "",
          "type": "address"
        }
      ],
      "stateMutability": "view",
      "type": "function"
    },
    {
      "inputs": [
        {
          "internalType": "bytes32",
          "name": "role",
          "type": "bytes32"
        }
      ],
      "name": "getRoleMemberCount",
      "outputs": [
        {
          "internalType": "uint256",
          "name": "",
          "type": "uint256"
        }
      ],
      "stateMutability": "view",
      "type": "function"
    },
    {
      "inputs": [
        {
          "internalType": "bytes32",
          "name": "role",
          "type": "bytes32"
        },
        {
          "internalType": "address",
          "name": "account",
          "type": "address"
        }
      ],
      "name": "grantRole",
      "outputs": [],
      "stateMutability": "nonpayable",
      "type": "function"
    },
    {
      "inputs": [
        {
          "internalType": "bytes32",
          "name": "role",
          "type": "bytes32"
        },
        {
          "internalType": "address",
          "name": "account",
          "type": "address"
        }
      ],
      "name": "hasRole",
      "outputs": [
        {
          "internalType": "bool",
          "name": "",
          "type": "bool"
        }
      ],
      "stateMutability": "view",
      "type": "function"
    },
    {
      "inputs": [],
      "name": "publicResolutionBlocks",
      "outputs": [
        {
          "internalType": "uint256",
          "name": "",
          "type": "uint256"
        }
      ],
      "stateMutability": "view",
      "type": "function"
    },
    {
      "inputs": [],
      "name": "publicResolutionLimited",
      "outputs": [
        {
          "internalType": "bool",
          "name": "",
          "type": "bool"
        }
      ],
      "stateMutability": "view",
      "type": "function"
    },
    {
      "inputs": [
        {
          "internalType": "address",
          "name": "",
          "type": "address"
        },
        {
          "internalType": "uint256",
          "name": "",
          "type": "uint256"
        },
        {
          "internalType": "uint256",
          "name": "",
          "type": "uint256"
        }
      ],
      "name": "queuedSeedRequests",
      "outputs": [
        {
          "internalType": "uint256",
          "name": "",
          "type": "uint256"
        }
      ],
      "stateMutability": "view",
      "type": "function"
    },
    {
      "inputs": [
        {
          "internalType": "bytes32",
          "name": "role",
          "type": "bytes32"
        },
        {
          "internalType": "address",
          "name": "account",
          "type": "address"
        }
      ],
      "name": "renounceRole",
      "outputs": [],
      "stateMutability": "nonpayable",
      "type": "function"
    },
    {
      "inputs": [
        {
          "internalType": "bytes32",
          "name": "role",
          "type": "bytes32"
        },
        {
          "internalType": "address",
          "name": "account",
          "type": "address"
        }
      ],
      "name": "revokeRole",
      "outputs": [],
      "stateMutability": "nonpayable",
      "type": "function"
    },
    {
      "inputs": [
        {
          "internalType": "uint256",
          "name": "",
          "type": "uint256"
        }
      ],
      "name": "seedHashes",
      "outputs": [
        {
          "internalType": "bytes32",
          "name": "",
          "type": "bytes32"
        }
      ],
      "stateMutability": "view",
      "type": "function"
    },
    {
      "inputs": [],
      "name": "seedIndexBlockNumber",
      "outputs": [
        {
          "internalType": "uint256",
          "name": "",
          "type": "uint256"
        }
      ],
      "stateMutability": "view",
      "type": "function"
    },
    {
      "inputs": [
        {
          "internalType": "address",
          "name": "",
          "type": "address"
        },
        {
          "internalType": "uint256",
          "name": "",
          "type": "uint256"
        }
      ],
      "name": "singleSeedRequests",
      "outputs": [
        {
          "internalType": "uint256",
          "name": "",
          "type": "uint256"
        }
      ],
      "stateMutability": "view",
      "type": "function"
    },
    {
      "inputs": [
        {
          "internalType": "address",
          "name": "",
          "type": "address"
        },
        {
          "internalType": "uint256",
          "name": "",
          "type": "uint256"
        }
      ],
      "name": "singleSeedSalts",
      "outputs": [
        {
          "internalType": "uint256",
          "name": "",
          "type": "uint256"
        }
      ],
      "stateMutability": "view",
      "type": "function"
    },
    {
      "inputs": [],
      "name": "initialize",
      "outputs": [],
      "stateMutability": "nonpayable",
      "type": "function"
    },
    {
      "inputs": [
        {
          "internalType": "address",
          "name": "user",
          "type": "address"
        },
        {
          "internalType": "uint256",
          "name": "requestID",
          "type": "uint256"
        },
        {
          "internalType": "bool",
          "name": "force",
          "type": "bool"
        }
      ],
      "name": "requestSingleSeed",
      "outputs": [],
      "stateMutability": "nonpayable",
      "type": "function"
    },
    {
      "inputs": [
        {
          "internalType": "address",
          "name": "user",
          "type": "address"
        },
        {
          "internalType": "uint256",
          "name": "requestID",
          "type": "uint256"
        }
      ],
      "name": "requestSingleSeed",
      "outputs": [],
      "stateMutability": "nonpayable",
      "type": "function"
    },
    {
      "inputs": [
        {
          "internalType": "address",
          "name": "user",
          "type": "address"
        },
        {
          "internalType": "uint256",
          "name": "requestID",
          "type": "uint256"
        }
      ],
      "name": "requestQueuedSeed",
      "outputs": [],
      "stateMutability": "nonpayable",
      "type": "function"
    },
    {
      "inputs": [],
      "name": "resolveSeedPublic",
      "outputs": [],
      "stateMutability": "nonpayable",
      "type": "function"
    },
    {
      "inputs": [],
      "name": "resolveSeedAdmin",
      "outputs": [],
      "stateMutability": "nonpayable",
      "type": "function"
    },
    {
      "inputs": [
        {
          "internalType": "address",
          "name": "user",
          "type": "address"
        },
        {
          "internalType": "uint256",
          "name": "requestID",
          "type": "uint256"
        },
        {
          "internalType": "bool",
          "name": "resolve",
          "type": "bool"
        },
        {
          "internalType": "bool",
          "name": "requestNext",
          "type": "bool"
        }
      ],
      "name": "popSingleSeed",
      "outputs": [
        {
          "internalType": "uint256",
          "name": "seed",
          "type": "uint256"
        }
      ],
      "stateMutability": "nonpayable",
      "type": "function"
    },
    {
      "inputs": [
        {
          "internalType": "address",
          "name": "user",
          "type": "address"
        },
        {
          "internalType": "uint256",
          "name": "requestID",
          "type": "uint256"
        },
        {
          "internalType": "bool",
          "name": "allowZero",
          "type": "bool"
        }
      ],
      "name": "readSingleSeed",
      "outputs": [
        {
          "internalType": "uint256",
          "name": "seed",
          "type": "uint256"
        }
      ],
      "stateMutability": "view",
      "type": "function"
    },
    {
      "inputs": [
        {
          "internalType": "address",
          "name": "user",
          "type": "address"
        },
        {
          "internalType": "uint256",
          "name": "requestID",
          "type": "uint256"
        },
        {
          "internalType": "bool",
          "name": "resolve",
          "type": "bool"
        }
      ],
      "name": "saltSingleSeed",
      "outputs": [
        {
          "internalType": "uint256",
          "name": "seed",
          "type": "uint256"
        }
      ],
      "stateMutability": "nonpayable",
      "type": "function"
    },
    {
      "inputs": [
        {
          "internalType": "address",
          "name": "user",
          "type": "address"
        },
        {
          "internalType": "uint256",
          "name": "requestID",
          "type": "uint256"
        },
        {
          "internalType": "bool",
          "name": "resolve",
          "type": "bool"
        },
        {
          "internalType": "bool",
          "name": "requestNext",
          "type": "bool"
        }
      ],
      "name": "popQueuedSeed",
      "outputs": [
        {
          "internalType": "uint256",
          "name": "seed",
          "type": "uint256"
        }
      ],
      "stateMutability": "nonpayable",
      "type": "function"
    },
    {
      "inputs": [
        {
          "internalType": "address",
          "name": "user",
          "type": "address"
        },
        {
          "internalType": "uint256",
          "name": "requestID",
          "type": "uint256"
        },
        {
          "internalType": "bool",
          "name": "allowZero",
          "type": "bool"
        }
      ],
      "name": "readQueuedSeed",
      "outputs": [
        {
          "internalType": "uint256",
          "name": "seed",
          "type": "uint256"
        }
      ],
      "stateMutability": "view",
      "type": "function"
    },
    {
      "inputs": [
        {
          "internalType": "address",
          "name": "user",
          "type": "address"
        },
        {
          "internalType": "uint256",
          "name": "requestID",
          "type": "uint256"
        }
      ],
      "name": "hasSingleSeedRequest",
      "outputs": [
        {
          "internalType": "bool",
          "name": "",
          "type": "bool"
        }
      ],
      "stateMutability": "view",
      "type": "function"
    },
    {
      "inputs": [
        {
          "internalType": "uint256",
          "name": "requestID",
          "type": "uint256"
        }
      ],
      "name": "getQueuedRequestCount",
      "outputs": [
        {
          "internalType": "uint256",
          "name": "",
          "type": "uint256"
        }
      ],
      "stateMutability": "view",
      "type": "function"
    },
    {
      "inputs": [
        {
          "internalType": "uint256[]",
          "name": "requestData",
          "type": "uint256[]"
        }
      ],
      "name": "encode",
      "outputs": [
        {
          "internalType": "uint256",
          "name": "",
          "type": "uint256"
        }
      ],
      "stateMutability": "pure",
      "type": "function"
    },
    {
      "inputs": [
        {
          "internalType": "bool",
          "name": "to",
          "type": "bool"
        }
      ],
      "name": "setPublicResolutionLimited",
      "outputs": [],
      "stateMutability": "nonpayable",
      "type": "function"
    },
    {
      "inputs": [
        {
          "internalType": "uint256",
          "name": "to",
          "type": "uint256"
        }
      ],
      "name": "setPublicResolutionBlocks",
      "outputs": [],
      "stateMutability": "nonpayable",
      "type": "function"
    },
    {
      "inputs": [
        {
          "internalType": "bool",
          "name": "to",
          "type": "bool"
        }
      ],
      "name": "setEmitResolutionEvent",
      "outputs": [],
      "stateMutability": "nonpayable",
      "type": "function"
    },
    {
      "inputs": [
        {
          "internalType": "bool",
          "name": "to",
          "type": "bool"
        }
      ],
      "name": "setEmitRequestEvent",
      "outputs": [],
      "stateMutability": "nonpayable",
      "type": "function"
    },
    {
      "inputs": [
        {
          "internalType": "bool",
          "name": "to",
          "type": "bool"
        }
      ],
      "name": "setEmitPopEvent",
      "outputs": [],
      "stateMutability": "nonpayable",
      "type": "function"
    }
  ],
  "bytecode": "0x608060405234801561001057600080fd5b506117e4806100206000396000f3fe608060405234801561001057600080fd5b50600436106102485760003560e01c80639010d07c1161013b578063b33a204e116100b8578063ced94e081161007c578063ced94e08146106f3578063d547741f146106fb578063d88f731914610727578063de5c292214610744578063fd4cc5c41461076357610248565b8063b33a204e1461066e578063b6a525aa14610676578063b7783c3f146106a2578063c59fe3bb146106ce578063ca15c873146106d657610248565b80639b5a5381116100ff5780639b5a53811461059b5780639c445a97146105a3578063a217fddf146105c2578063aa87deac146105ca578063b003dd86146105fe57610248565b80639010d07c146104ec57806391d148541461052b5780639316e85a1461055757806395aee4321461057457806395b54f8f1461059357610248565b80635504d3d2116101c957806378f508491161018d57806378f508491461044a5780638129fc1c14610476578063856311e71461047e578063862c62d3146104b0578063873eeac1146104e457610248565b80635504d3d2146103b357806360b08eb5146103bb57806363468149146103f75780637257dc0314610416578063775eb0e21461041e57610248565b806336568abe1161021057806336568abe146102d75780633ea2c9741461030357806342016a561461031f57806349e9e07e14610353578063536c5f301461038757610248565b8063248a9ca31461024d57806327b0a0d71461027c5780632bec2fa1146102865780632d9e16931461028e5780632f2ff15d146102ab575b600080fd5b61026a6004803603602081101561026357600080fd5b503561079f565b60408051918252519081900360200190f35b6102846107b4565b005b6102846107bf565b610284600480360360208110156102a457600080fd5b50356107d0565b610284600480360360408110156102c157600080fd5b50803590602001356001600160a01b03166107dd565b610284600480360360408110156102ed57600080fd5b50803590602001356001600160a01b0316610849565b61030b6108aa565b604080519115158252519081900360200190f35b61026a6004803603606081101561033557600080fd5b506001600160a01b03813516906020810135906040013515156108b9565b6102846004803603606081101561036957600080fd5b506001600160a01b0381351690602081013590604001351515610982565b6102846004803603604081101561039d57600080fd5b506001600160a01b0381351690602001356109b7565b61026a6109d2565b61026a600480360360808110156103d157600080fd5b506001600160a01b038135169060208101359060408101351515906060013515156109f4565b6102846004803603602081101561040d57600080fd5b50351515610ac3565b61030b610ade565b6102846004803603604081101561043457600080fd5b506001600160a01b038135169060200135610aec565b61030b6004803603604081101561046057600080fd5b506001600160a01b038135169060200135610b07565b610284610b34565b61026a6004803603606081101561049457600080fd5b506001600160a01b038135169060208101359060400135610bfb565b61026a600480360360608110156104c657600080fd5b506001600160a01b0381351690602081013590604001351515610c36565b61030b610cef565b61050f6004803603604081101561050257600080fd5b5080359060200135610cf8565b604080516001600160a01b039092168252519081900360200190f35b61030b6004803603604081101561054157600080fd5b50803590602001356001600160a01b0316610d16565b61026a6004803603602081101561056d57600080fd5b5035610d34565b6102846004803603602081101561058a57600080fd5b50351515610d46565b61026a610d6a565b61026a610d70565b610284600480360360208110156105b957600080fd5b50351515610d76565b61026a610d98565b61026a600480360360608110156105e057600080fd5b506001600160a01b0381351690602081013590604001351515610d9d565b61026a6004803603602081101561061457600080fd5b81019060208101813564010000000081111561062f57600080fd5b82018360208201111561064157600080fd5b8035906020019184602083028401116401000000008311171561066357600080fd5b509092509050610e69565b61030b610ea9565b61026a6004803603604081101561068c57600080fd5b506001600160a01b038135169060200135610eb2565b61026a600480360360408110156106b857600080fd5b506001600160a01b038135169060200135610ecf565b61026a610eec565b61026a600480360360208110156106ec57600080fd5b5035610ef2565b61026a610f09565b6102846004803603604081101561071157600080fd5b50803590602001356001600160a01b0316610f0f565b61026a6004803603602081101561073d57600080fd5b5035610f68565b6102846004803603602081101561075a57600080fd5b50351515610f85565b61026a6004803603608081101561077957600080fd5b506001600160a01b03813516906020810135906040810135151590606001351515610fa0565b60009081526033602052604090206002015490565b6107bd33611044565b565b6107c7611069565b6107bd336110cf565b6107d8611069565b606d55565b600082815260336020526040902060020154610800906107fb611154565b610d16565b61083b5760405162461bcd60e51b815260040180806020018281038252602f8152602001806116f3602f913960400191505060405180910390fd5b6108458282611158565b5050565b610851611154565b6001600160a01b0316816001600160a01b0316146108a05760405162461bcd60e51b815260040180806020018281038252602f815260200180611780602f913960400191505060405180910390fd5b61084582826111c7565b606e5462010000900460ff1681565b6001600160a01b0383166000908152606b6020908152604080832085845290915281208054600019810191606891849190849081106108f457fe5b906000526020600020015481526020019081526020016000205485858360405160200180858152602001846001600160a01b03166001600160a01b031660601b81526014018381526020018281526020019450505050506040516020818303038152906040528051906020012060001c9150828061097157508115155b61097a57600080fd5b509392505050565b61098a611069565b61099383611044565b80156109a8576109a38383611236565b6109b2565b6109b283836112b8565b505050565b6109bf611069565b6109c882611044565b61084582826112f0565b604080516923a0a6a2afa0a226a4a760b11b8152905190819003600a01902081565b60006109fe611069565b8215610a0d57610a0d85611044565b610a19858560006108b9565b6001600160a01b0386166000908152606b60209081526040808320888452909152902080549192509080610a4957fe5b60019003818190600052602060002001600090559055606e60029054906101000a900460ff1615610aab5760405184906001600160a01b038716907fcabe8c22e4876f21a225e35b612ef3237e6e279ffc9d676d2cdce6299635966b90600090a35b8115610abb57610abb85856112f0565b949350505050565b610acb611069565b606c805460ff1916911515919091179055565b606e54610100900460ff1681565b610af4611069565b610afd82611044565b61084582826112b8565b6001600160a01b038216600090815260696020908152604080832084845290915290205415155b92915050565b600054610100900460ff1680610b4d5750610b4d611382565b80610b5b575060005460ff16155b610b965760405162461bcd60e51b815260040180806020018281038252602e815260200180611752602e913960400191505060405180910390fd5b600054610100900460ff16158015610bc1576000805460ff1961ff0019909116610100171660011790555b610bc9611393565b610bd460003361083b565b6001606555436066819055600019016067558015610bf8576000805461ff00191690555b50565b606b6020528260005260406000206020528160005260406000208181548110610c2057fe5b9060005260206000200160009250925050505481565b6001600160a01b038316600090815260696020908152604080832085845282528083205483526068909152812054610c775781610c7257600080fd5b610ce8565b506001600160a01b038316600090815260696020908152604080832085845282528083205483526068825291829020548251808301919091526bffffffffffffffffffffffff19606087901b1681840152605480820186905283518083039091018152607490910190925281519101205b9392505050565b606e5460ff1681565b6000828152603360205260408120610ce8908363ffffffff61144416565b6000828152603360205260408120610ce8908363ffffffff61145016565b60686020526000908152604090205481565b610d4e611069565b606e8054911515620100000262ff000019909216919091179055565b60655481565b606d5481565b610d7e611069565b606e80549115156101000261ff0019909216919091179055565b600081565b6000610da7611069565b8115610db657610db684611044565b6001600160a01b038416600090815260696020908152604080832086845282528083205483526068909152902054610ded57600080fd5b50506001600160a01b0391909116600081815260696020908152604080832085845282528083205483526068825280832054938352606a82528083208584528083528184208054835180860197909752868401528251808703840181526060909601909252845194830194909420949092529190915281905590565b600082826040516020018083836020028082843780830192505050925050506040516020818303038152906040528051906020012060001c905092915050565b606c5460ff1681565b606960209081526000928352604080842090915290825290205481565b606a60209081526000928352604080842090915290825290205481565b60675481565b6000818152603360205260408120610b2e90611465565b60665481565b600082815260336020526040902060020154610f2d906107fb611154565b6108a05760405162461bcd60e51b81526004018080602001828103825260308152602001806117226030913960400191505060405180910390fd5b336000908152606b60209081526040808320938352929052205490565b610f8d611069565b606e805460ff1916911515919091179055565b6000610faa611069565b8215610fb957610fb985611044565b610fc585856000610c36565b6001600160a01b0386166000908152606960209081526040808320888452909152812055606e5490915062010000900460ff16156110345760405184906001600160a01b038716907fcabe8c22e4876f21a225e35b612ef3237e6e279ffc9d676d2cdce6299635966b90600090a35b8115610abb57610abb8585611236565b606c5460ff16158061105b5750606d546067540143105b15610bf857610bf8816110cf565b604080516923a0a6a2afa0a226a4a760b11b8152905190819003600a0190206110929033610d16565b6107bd576040805162461bcd60e51b81526020600482015260096024820152682737ba1030b236b4b760b91b604482015290519081900360640190fd5b606754431180156110e4575060665460675410155b15610bf8576065805460018101909155600090815260686020526040902043600019810140909155606655606e5460ff1615610bf8576065546040516001600160a01b038316907fc6d88e4a6d99dd0c8272af45444aa4387688618c023ced444a5573852740ca4a90600090a350565b3390565b6000828152603360205260409020611176908263ffffffff61147016565b1561084557611183611154565b6001600160a01b0316816001600160a01b0316837f2f8788117e7eff1d82e926ec794901d17c78024a50270940304540a733656f0d60405160405180910390a45050565b60008281526033602052604090206111e5908263ffffffff61148516565b15610845576111f2611154565b6001600160a01b0316816001600160a01b0316837ff6391f5c32d9c69d2a47ea670b442974b53935d1edc7fd64eb21e047a839171b60405160405180910390a45050565b6065546001600160a01b0383166000908152606960209081526040808320858452909152902055606654606754101561126e57436067555b606e54610100900460ff16156108455760405181906001600160a01b038416907fd30ed66470cb6dbbb996c75bcd792d71315cb67975b60922b1b3a013e0a2885a90600090a35050565b6001600160a01b0382166000908152606960209081526040808320848452909152902054156112e657600080fd5b6108458282611236565b6001600160a01b0382166000908152606b602090815260408083208484528252822060655481546001810183559184529190922090910155606654606754101561126e5743606755606e54610100900460ff16156108455760405181906001600160a01b038416907fd30ed66470cb6dbbb996c75bcd792d71315cb67975b60922b1b3a013e0a2885a90600090a35050565b600061138d3061149a565b15905090565b600054610100900460ff16806113ac57506113ac611382565b806113ba575060005460ff16155b6113f55760405162461bcd60e51b815260040180806020018281038252602e815260200180611752602e913960400191505060405180910390fd5b600054610100900460ff16158015611420576000805460ff1961ff0019909116610100171660011790555b6114286114a0565b6114306114a0565b8015610bf8576000805461ff001916905550565b6000610ce88383611540565b6000610ce8836001600160a01b0384166115a4565b6000610b2e826115bc565b6000610ce8836001600160a01b0384166115c0565b6000610ce8836001600160a01b03841661160a565b3b151590565b600054610100900460ff16806114b957506114b9611382565b806114c7575060005460ff16155b6115025760405162461bcd60e51b815260040180806020018281038252602e815260200180611752602e913960400191505060405180910390fd5b600054610100900460ff16158015611430576000805460ff1961ff0019909116610100171660011790558015610bf8576000805461ff001916905550565b815460009082106115825760405162461bcd60e51b81526004018080602001828103825260228152602001806116d16022913960400191505060405180910390fd5b82600001828154811061159157fe5b9060005260206000200154905092915050565b60009081526001919091016020526040902054151590565b5490565b60006115cc83836115a4565b61160257508154600181810184556000848152602080822090930184905584548482528286019093526040902091909155610b2e565b506000610b2e565b600081815260018301602052604081205480156116c6578354600019808301919081019060009087908390811061163d57fe5b906000526020600020015490508087600001848154811061165a57fe5b60009182526020808320909101929092558281526001898101909252604090209084019055865487908061168a57fe5b60019003818190600052602060002001600090559055866001016000878152602001908152602001600020600090556001945050505050610b2e565b6000915050610b2e56fe456e756d657261626c655365743a20696e646578206f7574206f6620626f756e6473416363657373436f6e74726f6c3a2073656e646572206d75737420626520616e2061646d696e20746f206772616e74416363657373436f6e74726f6c3a2073656e646572206d75737420626520616e2061646d696e20746f207265766f6b65496e697469616c697a61626c653a20636f6e747261637420697320616c726561647920696e697469616c697a6564416363657373436f6e74726f6c3a2063616e206f6e6c792072656e6f756e636520726f6c657320666f722073656c66a26469706673582212204c42d905e41c960ce5cd4f291b153e857cbb3dbd338547a08a4e662e190e460a64736f6c63430006050033",
  "immutableReferences": {},
  "source": "pragma solidity ^0.6.5;\n\nimport \"@openzeppelin/contracts-upgradeable/proxy/Initializable.sol\";\nimport \"@openzeppelin/contracts-upgradeable/access/AccessControlUpgradeable.sol\";\n\ncontract SafeRandoms is Initializable, AccessControlUpgradeable {\n\n    bytes32 public constant GAME_ADMIN = keccak256(\"GAME_ADMIN\");\n\n    /* Security\n    *   Seeds are more secure the faster they are resolved\n    *   Resolution every block = 100% security\n    *   Optionally, publicResolutionBlocks can be set to 0 to force admin resolution\n    */\n\n    /* Usage:\n    *\n    *   Transaction #1: Have the user pay costs (if applicable) and request the seed\n    *   Transaction #2: Pop the seed (will revert if not ready, use check if necessary)\n    *\n    *   After popping, you can use one seed for multiple outcomes (ie 10 weapon seeds)\n    *   Just make sure to re-encode with keccak256(abi.encodePacked(seed,value...))\n    *   ONLY with values that won't change over time:\n    *   ie. block.number: NO\n    *   1,2,3 etc: YES, IF seeds aren't shared under the same action identifier\n    *    (so 1x weapons produce different requestIDs than 10x weapons)\n    *\n    *   You can use the requestNext boolean for pop calls to request the next seed already,\n    *   This allows you to have a new secure seed ready for every transaction (except the first)\n    *\n    *   Resolve booleans of functions contribute to seed resolution,\n    *   (sending false can be used to save gas if necessary)\n    *    Check costs ~2k gas, resolution costs 35k (+3.1k for event + 1.7k for event check)\n    */\n\n    /* Seed Types\n    *\n    *   Single (One-at-a-time) seeds:\n    *    Only one request possible per user for this type at a time\n    *    The seed must be used before another one can be requested\n    *    Can be used for actions that don't have up-front cost (besides gas)\n    *     But! Consider possibility that the user may transfer NFT to another wallet or bridge networks\n    *    These seeds can be salted after without popping to produce expectable results if tolerable\n    *     (this saves gas if the initial action needed security but the following ones don't)\n    *     ! Salted seeds are stored separately, the original one-at-a-time seed will be available raw\n    *\n    *   Queued seeds:\n    *    More than one seed request can be piled up (costs ~15-20k more gas than single seeds)\n    *    Example use: Ordering multiple batches of weapons without requiring the first batch to complete\n    *    MUST HAVE a full upfront cost to avoid abuse! (ie skill cost to mint an NFT)\n    *\n    *   !!! IMPORTANT !!!!\n    *    Seed types are not to be mixed for the same action type!\n    *    Requesting a queued seed and popping a one-timer won't work, and vice versa\n    */\n\n    /* RequestIDs\n    *\n    *   Request ID is a unique value to identify the exact action a random seed is requested for.\n    *   A seed requested for 1x weapon mint must be different than for 10x weapon mints etc.\n    *\n    *   Produce clean looking request IDs for two properties:\n    *    RandomUtil.combineSeeds(SEED_WEAPON_MINT, amount)\n    *\n    *   Or dirtier / for many properties: (you can slap arrays into encodePacked directly)\n    *    uint(keccak256(abi.encodePacked(SEED_WEAPON_MINT, amount, special_weapon_series)))\n    *\n    *   !!! DO NOT USE SIMPLE CONSTANT VALUES FOR THE ACTION IDENTIFIER (1,2,3) !!!\n    *   USE ENCODED STRING CONSTANTS FOR EXAMPLE:\n    *   uint256 public constant SEED_WEAPON_MINT = uint(keccak256(\"SEED_WEAPON_MINT\"));\n    */\n\n    uint256 public currentSeedIndex; // new requests pile up under this index\n    uint256 public seedIndexBlockNumber; // the block number \"currentSeedIndex\" was reached on\n    uint256 public firstRequestBlockNumber; // first request block for the latest seed index\n    mapping(uint256 => bytes32) public seedHashes; // key: seedIndex\n\n    // keys: user, requestID / value: seedIndex\n    mapping(address => mapping(uint256 => uint256)) public singleSeedRequests; // one-at-a-time (saltable)\n    mapping(address => mapping(uint256 => uint256)) public singleSeedSalts; // optional, ONLY for single seeds\n    mapping(address => mapping(uint256 => uint256[])) public queuedSeedRequests; // arbitrary in/out LIFO\n\n    bool public publicResolutionLimited;\n    uint256 public publicResolutionBlocks; // max number of blocks to resolve if limited\n\n    bool public emitResolutionEvent;\n    bool public emitRequestEvent;\n    bool public emitPopEvent;\n\n    event SeedResolved(address indexed resolver, uint256 indexed seedIndex);\n    event SeedRequested(address indexed requester, uint256 indexed requestId);\n    event SeedPopped(address indexed popper, uint256 indexed requestId);\n\n    function initialize () public initializer {\n        __AccessControl_init();\n\n        _setupRole(DEFAULT_ADMIN_ROLE, msg.sender);\n        currentSeedIndex = 1; // one-at-a-time seeds have a 0 check\n        seedIndexBlockNumber = block.number;\n        firstRequestBlockNumber = block.number-1; // save 15k gas for very first user\n    }\n\n    modifier restricted() {\n        _restricted();\n        _;\n    }\n\n    function _restricted() internal view {\n        require(hasRole(GAME_ADMIN, msg.sender), \"Not admin\");\n    }\n\n    // SINGLE SEED REQUESTS\n\n    function requestSingleSeed(address user, uint256 requestID) public restricted {\n        _resolveSeedPublic(user);\n        _requestSingleSeedAssert(user, requestID);\n    }\n\n    function requestSingleSeed(address user, uint256 requestID, bool force) public restricted {\n        _resolveSeedPublic(user);\n        if(force)\n            _requestSingleSeed(user, requestID);\n        else\n            _requestSingleSeedAssert(user, requestID);\n    }\n\n    function _requestSingleSeedAssert(address user, uint256 requestID) internal {\n        require(singleSeedRequests[user][requestID] == 0);\n        _requestSingleSeed(user, requestID);\n    }\n    \n    function _requestSingleSeed(address user, uint256 requestID) internal {\n        singleSeedRequests[user][requestID] = currentSeedIndex;\n        if(firstRequestBlockNumber < seedIndexBlockNumber)\n            firstRequestBlockNumber = block.number;\n\n        if(emitRequestEvent)\n            emit SeedRequested(user, requestID);\n    }\n\n    // QUEUED SEED REQUESTS\n\n    function requestQueuedSeed(address user, uint256 requestID) public restricted {\n        _resolveSeedPublic(user);\n        _requestQueuedSeed(user, requestID);\n    }\n\n    function _requestQueuedSeed(address user, uint256 requestID) internal {\n        queuedSeedRequests[user][requestID].push(currentSeedIndex);\n        if(firstRequestBlockNumber < seedIndexBlockNumber)\n            firstRequestBlockNumber = block.number;\n\n        if(emitRequestEvent)\n            emit SeedRequested(user, requestID);\n    }\n\n    // SEED RESOLUTIONS\n\n    function resolveSeedPublic() public {\n       _resolveSeedPublic(msg.sender);\n    }\n\n    function _resolveSeedPublic(address resolver) internal {\n        if(!publicResolutionLimited || block.number < firstRequestBlockNumber + publicResolutionBlocks)\n            _resolveSeed(resolver);\n    }\n\n    function resolveSeedAdmin() public restricted {\n        _resolveSeed(msg.sender);\n    }\n\n    function _resolveSeed(address resolver) internal {\n        if(block.number > firstRequestBlockNumber && firstRequestBlockNumber >= seedIndexBlockNumber) {\n            seedHashes[currentSeedIndex++] = blockhash(block.number - 1);\n            seedIndexBlockNumber = block.number;\n            if(emitResolutionEvent)\n                emit SeedResolved(resolver, currentSeedIndex);\n        }\n    }\n\n    // SINGLE SEED FULFILLMENT\n\n    function popSingleSeed(address user, uint256 requestID, bool resolve, bool requestNext) public restricted returns (uint256 seed) {\n        if(resolve)\n            _resolveSeedPublic(user);\n\n        seed = readSingleSeed(user, requestID, false); // reverts on zero\n        delete singleSeedRequests[user][requestID];\n\n        if(emitPopEvent)\n            emit SeedPopped(user, requestID);\n\n        if(requestNext)\n            _requestSingleSeed(user, requestID);\n    }\n\n    function readSingleSeed(address user, uint256 requestID, bool allowZero) public view returns (uint256 seed) {\n        if(seedHashes[singleSeedRequests[user][requestID]] == 0) {\n            require(allowZero);\n            // seed stays 0 by default if allowed\n        }\n        else {\n            seed = uint256(keccak256(abi.encodePacked(\n                seedHashes[singleSeedRequests[user][requestID]],\n                user, requestID\n            )));\n        }\n    }\n\n    function saltSingleSeed(address user, uint256 requestID, bool resolve) public restricted returns (uint256 seed) {\n        if(resolve)\n            _resolveSeedPublic(user);\n\n        require(seedHashes[singleSeedRequests[user][requestID]] != 0);\n        seed = uint(keccak256(abi.encodePacked(\n            seedHashes[singleSeedRequests[user][requestID]]\n            ,singleSeedSalts[user][requestID]\n        )));\n        singleSeedSalts[user][requestID] = seed;\n        return seed;\n    }\n\n    // QUEUED SEED FULFILLMENT\n\n    function popQueuedSeed(address user, uint256 requestID, bool resolve, bool requestNext) public restricted returns (uint256 seed) {\n        if(resolve)\n            _resolveSeedPublic(user);\n\n        // will revert on empty queue due to pop()\n        seed = readQueuedSeed(user, requestID, false);\n        queuedSeedRequests[user][requestID].pop();\n\n        if(emitPopEvent)\n            emit SeedPopped(user, requestID);\n\n        if(requestNext)\n            _requestQueuedSeed(user, requestID);\n\n        return seed;\n    }\n\n    function readQueuedSeed(address user, uint256 requestID, bool allowZero) public view returns (uint256 seed) {\n        uint256 lastIndex = queuedSeedRequests[user][requestID].length-1;\n        seed = uint256(keccak256(abi.encodePacked(\n            seedHashes[queuedSeedRequests[user][requestID][lastIndex]],\n            user, requestID, lastIndex\n        )));\n        require(allowZero || seed != 0);\n    }\n\n    // HELPER VIEWS\n\n    function hasSingleSeedRequest(address user, uint256 requestID) public view returns (bool) {\n        return singleSeedRequests[user][requestID] != 0;\n    }\n\n    function getQueuedRequestCount(uint256 requestID) public view returns (uint256) {\n        return queuedSeedRequests[msg.sender][requestID].length;\n    }\n\n    function encode(uint256[] calldata requestData) external pure returns (uint256) {\n        return uint256(keccak256(abi.encodePacked(requestData)));\n    }\n\n    // ADMIN FUNCTIONS (excluding resolveSeedAdmin)\n\n    function setPublicResolutionLimited(bool to) public restricted {\n        publicResolutionLimited = to;\n    }\n\n    function setPublicResolutionBlocks(uint256 to) public restricted {\n        publicResolutionBlocks = to;\n    }\n\n    function setEmitResolutionEvent(bool to) public restricted {\n        emitResolutionEvent = to;\n    }\n\n    function setEmitRequestEvent(bool to) public restricted {\n        emitRequestEvent = to;\n    }\n\n    function setEmitPopEvent(bool to) public restricted {\n        emitPopEvent = to;\n    }\n\n}\n",
  "sourcePath": "/mnt/e/work/cryptoblades/contracts/SafeRandoms.sol",
  "compiler": {
    "name": "solc",
    "version": "0.6.5+commit.f956cc89.Emscripten.clang"
  },
  "schemaVersion": "3.3.4",
  "updatedAt": "2023-01-24T17:45:31.700Z",
  "devdoc": {
    "methods": {
      "getRoleAdmin(bytes32)": {
        "details": "Returns the admin role that controls `role`. See {grantRole} and {revokeRole}.     * To change a role's admin, use {_setRoleAdmin}."
      },
      "getRoleMember(bytes32,uint256)": {
        "details": "Returns one of the accounts that have `role`. `index` must be a value between 0 and {getRoleMemberCount}, non-inclusive.     * Role bearers are not sorted in any particular way, and their ordering may change at any point.     * WARNING: When using {getRoleMember} and {getRoleMemberCount}, make sure you perform all queries on the same block. See the following https://forum.openzeppelin.com/t/iterating-over-elements-on-enumerableset-in-openzeppelin-contracts/2296[forum post] for more information."
      },
      "getRoleMemberCount(bytes32)": {
        "details": "Returns the number of accounts that have `role`. Can be used together with {getRoleMember} to enumerate all bearers of a role."
      },
      "grantRole(bytes32,address)": {
        "details": "Grants `role` to `account`.     * If `account` had not been already granted `role`, emits a {RoleGranted} event.     * Requirements:     * - the caller must have ``role``'s admin role."
      },
      "hasRole(bytes32,address)": {
        "details": "Returns `true` if `account` has been granted `role`."
      },
      "renounceRole(bytes32,address)": {
        "details": "Revokes `role` from the calling account.     * Roles are often managed via {grantRole} and {revokeRole}: this function's purpose is to provide a mechanism for accounts to lose their privileges if they are compromised (such as when a trusted device is misplaced).     * If the calling account had been granted `role`, emits a {RoleRevoked} event.     * Requirements:     * - the caller must be `account`."
      },
      "revokeRole(bytes32,address)": {
        "details": "Revokes `role` from `account`.     * If `account` had been granted `role`, emits a {RoleRevoked} event.     * Requirements:     * - the caller must have ``role``'s admin role."
      }
    }
  },
  "userdoc": {
    "methods": {}
  }
}