{
  "contractName": "ShieldBridgeProxyContract",
  "abi": [
    {
      "anonymous": false,
      "inputs": [
        {
          "indexed": true,
          "internalType": "bytes32",
          "name": "role",
          "type": "bytes32"
        },
        {
          "indexed": true,
          "internalType": "bytes32",
          "name": "previousAdminRole",
          "type": "bytes32"
        },
        {
          "indexed": true,
          "internalType": "bytes32",
          "name": "newAdminRole",
          "type": "bytes32"
        }
      ],
      "name": "RoleAdminChanged",
      "type": "event"
    },
    {
      "anonymous": false,
      "inputs": [
        {
          "indexed": true,
          "internalType": "bytes32",
          "name": "role",
          "type": "bytes32"
        },
        {
          "indexed": true,
          "internalType": "address",
          "name": "account",
          "type": "address"
        },
        {
          "indexed": true,
          "internalType": "address",
          "name": "sender",
          "type": "address"
        }
      ],
      "name": "RoleGranted",
      "type": "event"
    },
    {
      "anonymous": false,
      "inputs": [
        {
          "indexed": true,
          "internalType": "bytes32",
          "name": "role",
          "type": "bytes32"
        },
        {
          "indexed": true,
          "internalType": "address",
          "name": "account",
          "type": "address"
        },
        {
          "indexed": true,
          "internalType": "address",
          "name": "sender",
          "type": "address"
        }
      ],
      "name": "RoleRevoked",
      "type": "event"
    },
    {
      "inputs": [],
      "name": "DEFAULT_ADMIN_ROLE",
      "outputs": [
        {
          "internalType": "bytes32",
          "name": "",
          "type": "bytes32"
        }
      ],
      "stateMutability": "view",
      "type": "function"
    },
    {
      "inputs": [],
      "name": "GAME_ADMIN",
      "outputs": [
        {
          "internalType": "bytes32",
          "name": "",
          "type": "bytes32"
        }
      ],
      "stateMutability": "view",
      "type": "function"
    },
    {
      "inputs": [],
      "name": "UINT_NFT_VAR_META",
      "outputs": [
        {
          "internalType": "uint8",
          "name": "",
          "type": "uint8"
        }
      ],
      "stateMutability": "view",
      "type": "function"
    },
    {
      "inputs": [],
      "name": "UINT_NFT_VAR_SEED3DCOSMETIC",
      "outputs": [
        {
          "internalType": "uint8",
          "name": "",
          "type": "uint8"
        }
      ],
      "stateMutability": "view",
      "type": "function"
    },
    {
      "inputs": [
        {
          "internalType": "bytes32",
          "name": "role",
          "type": "bytes32"
        }
      ],
      "name": "getRoleAdmin",
      "outputs": [
        {
          "internalType": "bytes32",
          "name": "",
          "type": "bytes32"
        }
      ],
      "stateMutability": "view",
      "type": "function"
    },
    {
      "inputs": [
        {
          "internalType": "bytes32",
          "name": "role",
          "type": "bytes32"
        },
        {
          "internalType": "uint256",
          "name": "index",
          "type": "uint256"
        }
      ],
      "name": "getRoleMember",
      "outputs": [
        {
          "internalType": "address",
          "name": "",
          "type": "address"
        }
      ],
      "stateMutability": "view",
      "type": "function"
    },
    {
      "inputs": [
        {
          "internalType": "bytes32",
          "name": "role",
          "type": "bytes32"
        }
      ],
      "name": "getRoleMemberCount",
      "outputs": [
        {
          "internalType": "uint256",
          "name": "",
          "type": "uint256"
        }
      ],
      "stateMutability": "view",
      "type": "function"
    },
    {
      "inputs": [
        {
          "internalType": "bytes32",
          "name": "role",
          "type": "bytes32"
        },
        {
          "internalType": "address",
          "name": "account",
          "type": "address"
        }
      ],
      "name": "grantRole",
      "outputs": [],
      "stateMutability": "nonpayable",
      "type": "function"
    },
    {
      "inputs": [
        {
          "internalType": "bytes32",
          "name": "role",
          "type": "bytes32"
        },
        {
          "internalType": "address",
          "name": "account",
          "type": "address"
        }
      ],
      "name": "hasRole",
      "outputs": [
        {
          "internalType": "bool",
          "name": "",
          "type": "bool"
        }
      ],
      "stateMutability": "view",
      "type": "function"
    },
    {
      "inputs": [
        {
          "internalType": "bytes32",
          "name": "role",
          "type": "bytes32"
        },
        {
          "internalType": "address",
          "name": "account",
          "type": "address"
        }
      ],
      "name": "renounceRole",
      "outputs": [],
      "stateMutability": "nonpayable",
      "type": "function"
    },
    {
      "inputs": [
        {
          "internalType": "bytes32",
          "name": "role",
          "type": "bytes32"
        },
        {
          "internalType": "address",
          "name": "account",
          "type": "address"
        }
      ],
      "name": "revokeRole",
      "outputs": [],
      "stateMutability": "nonpayable",
      "type": "function"
    },
    {
      "inputs": [
        {
          "internalType": "address",
          "name": "_nftStorageAddress",
          "type": "address"
        },
        {
          "internalType": "address",
          "name": "_shields",
          "type": "address"
        }
      ],
      "name": "initialize",
      "outputs": [],
      "stateMutability": "nonpayable",
      "type": "function"
    },
    {
      "inputs": [
        {
          "internalType": "uint256",
          "name": "tokenId",
          "type": "uint256"
        }
      ],
      "name": "collectData",
      "outputs": [
        {
          "internalType": "uint256[]",
          "name": "uintVars",
          "type": "uint256[]"
        },
        {
          "internalType": "string",
          "name": "stringVar",
          "type": "string"
        }
      ],
      "stateMutability": "view",
      "type": "function"
    },
    {
      "inputs": [],
      "name": "sigVersion",
      "outputs": [
        {
          "internalType": "uint256",
          "name": "",
          "type": "uint256"
        }
      ],
      "stateMutability": "view",
      "type": "function"
    },
    {
      "inputs": [],
      "name": "isEnabled",
      "outputs": [
        {
          "internalType": "bool",
          "name": "",
          "type": "bool"
        }
      ],
      "stateMutability": "view",
      "type": "function"
    },
    {
      "inputs": [
        {
          "internalType": "bool",
          "name": "_enabled",
          "type": "bool"
        }
      ],
      "name": "setEnabled",
      "outputs": [],
      "stateMutability": "nonpayable",
      "type": "function"
    },
    {
      "inputs": [
        {
          "internalType": "address",
          "name": "",
          "type": "address"
        },
        {
          "internalType": "uint256",
          "name": "tokenId",
          "type": "uint256"
        },
        {
          "internalType": "uint256[]",
          "name": "uintVars",
          "type": "uint256[]"
        },
        {
          "internalType": "string",
          "name": "stringVar",
          "type": "string"
        }
      ],
      "name": "mintOrUpdate",
      "outputs": [
        {
          "internalType": "uint256",
          "name": "",
          "type": "uint256"
        }
      ],
      "stateMutability": "nonpayable",
      "type": "function"
    },
    {
      "inputs": [
        {
          "internalType": "uint32",
          "name": "appliedCosmetic",
          "type": "uint32"
        },
        {
          "internalType": "uint16",
          "name": "properties",
          "type": "uint16"
        },
        {
          "internalType": "uint16",
          "name": "stat1",
          "type": "uint16"
        },
        {
          "internalType": "uint16",
          "name": "stat2",
          "type": "uint16"
        },
        {
          "internalType": "uint16",
          "name": "stat3",
          "type": "uint16"
        },
        {
          "internalType": "uint8",
          "name": "shieldType",
          "type": "uint8"
        }
      ],
      "name": "_packShieldsData",
      "outputs": [
        {
          "internalType": "uint256",
          "name": "",
          "type": "uint256"
        }
      ],
      "stateMutability": "pure",
      "type": "function"
    },
    {
      "inputs": [
        {
          "internalType": "address",
          "name": "wallet",
          "type": "address"
        },
        {
          "internalType": "uint256",
          "name": "tokenId",
          "type": "uint256"
        },
        {
          "internalType": "uint256",
          "name": "targetChain",
          "type": "uint256"
        }
      ],
      "name": "canBridge",
      "outputs": [
        {
          "internalType": "bool",
          "name": "",
          "type": "bool"
        }
      ],
      "stateMutability": "view",
      "type": "function"
    }
  ],
  "bytecode": "0x608060405234801561001057600080fd5b50611187806100206000396000f3fe608060405234801561001057600080fd5b50600436106101215760003560e01c80635504d3d2116100ad578063a71ba79511610071578063a71ba795146103c5578063ca15c87314610416578063cf17d1b414610433578063d547741f1461043b578063d58a097c1461046757610121565b80635504d3d2146103425780636aa633b61461034a5780639010d07c1461035257806391d1485414610391578063a217fddf146103bd57610121565b80632f2ff15d116100f45780632f2ff15d14610293578063328d8f72146102c157806336568abe146102e05780634594fac41461030c578063485cc9551461031457610121565b8063135701f71461012657806319dd746a14610144578063248a9ca31461021e5780632d31418a1461024d575b600080fd5b61012e61053e565b6040805160ff9092168252519081900360200190f35b6101616004803603602081101561015a57600080fd5b5035610543565b604051808060200180602001838103835285818151815260200191508051906020019060200280838360005b838110156101a557818101518382015260200161018d565b50505050905001838103825284818151815260200191508051906020019080838360005b838110156101e15781810151838201526020016101c9565b50505050905090810190601f16801561020e5780820380516001836020036101000a031916815260200191505b5094505050505060405180910390f35b61023b6004803603602081101561023457600080fd5b5035610761565b60408051918252519081900360200190f35b61027f6004803603606081101561026357600080fd5b506001600160a01b038135169060208101359060400135610776565b604080519115158252519081900360200190f35b6102bf600480360360408110156102a957600080fd5b50803590602001356001600160a01b031661077f565b005b6102bf600480360360208110156102d757600080fd5b503515156107eb565b6102bf600480360360408110156102f657600080fd5b50803590602001356001600160a01b0316610811565b61023b610872565b6102bf6004803603604081101561032a57600080fd5b506001600160a01b0381358116916020013516610877565b61023b61095e565b61027f610980565b6103756004803603604081101561036857600080fd5b5080359060200135610990565b604080516001600160a01b039092168252519081900360200190f35b61027f600480360360408110156103a757600080fd5b50803590602001356001600160a01b03166109b7565b61023b61053e565b61023b600480360360c08110156103db57600080fd5b50803563ffffffff1690602081013561ffff908116916040810135821691606082013581169160808101359091169060a0013560ff166109d5565b61023b6004803603602081101561042c57600080fd5b5035610a2e565b61012e610a45565b6102bf6004803603604081101561045157600080fd5b50803590602001356001600160a01b0316610a4a565b61023b6004803603608081101561047d57600080fd5b6001600160a01b03823516916020810135918101906060810160408201356401000000008111156104ad57600080fd5b8201836020820111156104bf57600080fd5b803590602001918460208302840111640100000000831117156104e157600080fd5b9193909290916020810190356401000000008111156104ff57600080fd5b82018360208201111561051157600080fd5b8035906020019184600183028401116401000000008311171561053357600080fd5b509092509050610aa3565b600081565b606080600080600080606560009054906101000a90046001600160a01b03166001600160a01b0316639507d39a886040518263ffffffff1660e01b81526004018082815260200191505060806040518083038186803b1580156105a557600080fd5b505afa1580156105b9573d6000803e3d6000fd5b505050506040513d60808110156105cf57600080fd5b508051602080830151604080850151606090950151606554825163783efb2560e01b8152600481018f9052600260248201529251959a509298509496509394506000936001600160a01b039091169263783efb2592604480840193919291829003018186803b15801561064157600080fd5b505afa158015610655573d6000803e3d6000fd5b505050506040513d602081101561066b57600080fd5b50516065546040805163098ad60560e21b8152600481018c905290519293506000926001600160a01b039092169163262b581491602480820192602092909190829003018186803b1580156106bf57600080fd5b505afa1580156106d3573d6000803e3d6000fd5b505050506040513d60208110156106e957600080fd5b5051604080516002808252606082018352929350919060208301908036833701905050975061071d600087878787876109d5565b88600060ff168151811061072d57fe5b6020026020010181815250508088600160ff168151811061074a57fe5b602002602001018181525050505050505050915091565b60009081526033602052604090206002015490565b60019392505050565b6000828152603360205260409020600201546107a29061079d610bd0565b6109b7565b6107dd5760405162461bcd60e51b815260040180806020018281038252602f815260200180611096602f913960400191505060405180910390fd5b6107e78282610bd4565b5050565b6107f3610c43565b60668054911515600160a01b0260ff60a01b19909216919091179055565b610819610bd0565b6001600160a01b0316816001600160a01b0316146108685760405162461bcd60e51b815260040180806020018281038252602f815260200180611123602f913960400191505060405180910390fd5b6107e78282610cb5565b600390565b600054610100900460ff16806108905750610890610d24565b8061089e575060005460ff16155b6108d95760405162461bcd60e51b815260040180806020018281038252602e8152602001806110f5602e913960400191505060405180910390fd5b600054610100900460ff16158015610904576000805460ff1961ff0019909116610100171660011790555b61090c610d35565b6109176000336107dd565b606680546001600160a01b038086166001600160a01b03199283161790925560658054928516929091169190911790558015610959576000805461ff00191690555b505050565b604080516923a0a6a2afa0a226a4a760b11b8152905190819003600a01902081565b606654600160a01b900460ff1690565b60008281526033602052604081206109ae908363ffffffff610de716565b90505b92915050565b60008281526033602052604081206109ae908363ffffffff610df316565b60ff811663ffff0000601084901b161765ffff00000000602085901b161767ffff000000000000603086901b161769ffff0000000000000000604087901b161763ffffffff60501b605088901b16179695505050505050565b60008181526033602052604081206109b190610e08565b600181565b600082815260336020526040902060020154610a689061079d610bd0565b6108685760405162461bcd60e51b81526004018080602001828103825260308152602001806110c56030913960400191505060405180910390fd5b6000610aad610c43565b606654600160a01b900460ff16610af9576040805162461bcd60e51b815260206004820152600b60248201526a1b9bdd08195b98589b195960aa1b604482015290519081900360640190fd5b6065546066546001600160a01b03918216916348b1b41c91168787600081610b1d57fe5b905060200201358888600160ff16818110610b3457fe5b905060200201358a6040518563ffffffff1660e01b815260040180856001600160a01b03166001600160a01b03168152602001848152602001838152602001828152602001945050505050602060405180830381600087803b158015610b9957600080fd5b505af1158015610bad573d6000803e3d6000fd5b505050506040513d6020811015610bc357600080fd5b5051979650505050505050565b3390565b6000828152603360205260409020610bf2908263ffffffff610e1316565b156107e757610bff610bd0565b6001600160a01b0316816001600160a01b0316837f2f8788117e7eff1d82e926ec794901d17c78024a50270940304540a733656f0d60405160405180910390a45050565b604080516923a0a6a2afa0a226a4a760b11b8152905190819003600a019020610c6c90336109b7565b80610c7d5750610c7d6000336109b7565b610cb3576040805162461bcd60e51b81526020600482015260026024820152614e4160f01b604482015290519081900360640190fd5b565b6000828152603360205260409020610cd3908263ffffffff610e2816565b156107e757610ce0610bd0565b6001600160a01b0316816001600160a01b0316837ff6391f5c32d9c69d2a47ea670b442974b53935d1edc7fd64eb21e047a839171b60405160405180910390a45050565b6000610d2f30610e3d565b15905090565b600054610100900460ff1680610d4e5750610d4e610d24565b80610d5c575060005460ff16155b610d975760405162461bcd60e51b815260040180806020018281038252602e8152602001806110f5602e913960400191505060405180910390fd5b600054610100900460ff16158015610dc2576000805460ff1961ff0019909116610100171660011790555b610dca610e43565b610dd2610e43565b8015610de4576000805461ff00191690555b50565b60006109ae8383610ee3565b60006109ae836001600160a01b038416610f47565b60006109b182610f5f565b60006109ae836001600160a01b038416610f63565b60006109ae836001600160a01b038416610fad565b3b151590565b600054610100900460ff1680610e5c5750610e5c610d24565b80610e6a575060005460ff16155b610ea55760405162461bcd60e51b815260040180806020018281038252602e8152602001806110f5602e913960400191505060405180910390fd5b600054610100900460ff16158015610dd2576000805460ff1961ff0019909116610100171660011790558015610de4576000805461ff001916905550565b81546000908210610f255760405162461bcd60e51b81526004018080602001828103825260228152602001806110746022913960400191505060405180910390fd5b826000018281548110610f3457fe5b9060005260206000200154905092915050565b60009081526001919091016020526040902054151590565b5490565b6000610f6f8383610f47565b610fa5575081546001818101845560008481526020808220909301849055845484825282860190935260409020919091556109b1565b5060006109b1565b600081815260018301602052604081205480156110695783546000198083019190810190600090879083908110610fe057fe5b9060005260206000200154905080876000018481548110610ffd57fe5b60009182526020808320909101929092558281526001898101909252604090209084019055865487908061102d57fe5b600190038181906000526020600020016000905590558660010160008781526020019081526020016000206000905560019450505050506109b1565b60009150506109b156fe456e756d657261626c655365743a20696e646578206f7574206f6620626f756e6473416363657373436f6e74726f6c3a2073656e646572206d75737420626520616e2061646d696e20746f206772616e74416363657373436f6e74726f6c3a2073656e646572206d75737420626520616e2061646d696e20746f207265766f6b65496e697469616c697a61626c653a20636f6e747261637420697320616c726561647920696e697469616c697a6564416363657373436f6e74726f6c3a2063616e206f6e6c792072656e6f756e636520726f6c657320666f722073656c66a2646970667358221220eb52b5034b95be5384f2a88ff4f728eceed06fad1d4d510fe16c0949d396135f64736f6c63430006050033",
  "immutableReferences": {},
  "source": "pragma solidity ^0.6.0;\n\nimport \"@openzeppelin/contracts-upgradeable/proxy/Initializable.sol\";\nimport \"@openzeppelin/contracts-upgradeable/access/AccessControlUpgradeable.sol\";\nimport \"./shields.sol\";\nimport \"./interfaces/IBridgeProxy.sol\";\n\n\ncontract ShieldBridgeProxyContract is Initializable, AccessControlUpgradeable, IBridgeProxy {\n  \n    bytes32 public constant GAME_ADMIN = keccak256(\"GAME_ADMIN\");\n\n    Shields shields;\n    address nftStorageAddress;\n    bool enabled;\n\n    uint8 public constant UINT_NFT_VAR_META = 0;\n    uint8 public constant UINT_NFT_VAR_SEED3DCOSMETIC = 1;\n\n    modifier restricted() {\n        _restricted();\n        _;\n    }\n\n    function _restricted() internal view {\n        require(hasRole(GAME_ADMIN, msg.sender) || hasRole(DEFAULT_ADMIN_ROLE, msg.sender), \"NA\");\n    }\n\n    function initialize(address _nftStorageAddress, address _shields) public initializer {\n        __AccessControl_init();\n\n        _setupRole(DEFAULT_ADMIN_ROLE, msg.sender);\n\n        nftStorageAddress = _nftStorageAddress;\n        shields = Shields(_shields);\n    }\n\n \n    function collectData(uint256 tokenId) external view override returns (uint256[] memory uintVars, string memory stringVar) {\n        \n        (uint16 _properties, uint16 _stat1, uint16 _stat2, uint16 _stat3) = shields.get(tokenId);\n        uint8 _type = uint8(shields.getNftVar(tokenId, 2)); // 2 => shield type\n        uint256 seed3dCosmetics = shields.getCosmeticsSeed(tokenId);\n\n        uintVars = new uint256[](2);\n        uintVars[UINT_NFT_VAR_META] = _packShieldsData(0, _properties, _stat1, _stat2, _stat3, _type);\n        uintVars[UINT_NFT_VAR_SEED3DCOSMETIC] = seed3dCosmetics;\n    }\n\n    // for future use, bot will probe the returned value to know if the proxy contract has proper signature behavior\n    function sigVersion() external view override returns (uint256) {\n        return 3;\n    }\n\n    function isEnabled() external view override returns (bool) {\n        return enabled;\n    }\n\n    function setEnabled(bool _enabled) external restricted {\n        enabled = _enabled;\n    }\n\n    function mintOrUpdate(address /*receiver*/, uint256 tokenId, uint256[] calldata uintVars, string calldata stringVar) external restricted override returns (uint256) {\n        require(enabled, \"not enabled\");\n\n         tokenId = \n            shields.performMintShieldDetailed(nftStorageAddress, uintVars[UINT_NFT_VAR_META], uintVars[UINT_NFT_VAR_SEED3DCOSMETIC], tokenId);\n\n        return tokenId;\n    }\n\n    function _packShieldsData(uint32 appliedCosmetic, uint16 properties, uint16 stat1, uint16 stat2, uint16 stat3, uint8 shieldType) public pure returns (uint256) {\n        return  uint256(uint256(shieldType) | uint256(stat3) << 16| (uint256(stat2) << 32) | (uint256(stat1) << 48) | (uint256(properties) << 64) | (uint256(appliedCosmetic) << 80));\n    }\n\n    function canBridge(address wallet, uint256 tokenId, uint256 targetChain) external view override returns (bool) {\n        return true;\n    }\n}\n",
  "sourcePath": "/mnt/e/work/cryptoblades/contracts/ShieldBridgeProxyContract.sol",
  "compiler": {
    "name": "solc",
    "version": "0.6.5+commit.f956cc89.Emscripten.clang"
  },
  "schemaVersion": "3.3.4",
  "updatedAt": "2023-01-24T17:45:31.714Z",
  "devdoc": {
    "methods": {
      "getRoleAdmin(bytes32)": {
        "details": "Returns the admin role that controls `role`. See {grantRole} and {revokeRole}.     * To change a role's admin, use {_setRoleAdmin}."
      },
      "getRoleMember(bytes32,uint256)": {
        "details": "Returns one of the accounts that have `role`. `index` must be a value between 0 and {getRoleMemberCount}, non-inclusive.     * Role bearers are not sorted in any particular way, and their ordering may change at any point.     * WARNING: When using {getRoleMember} and {getRoleMemberCount}, make sure you perform all queries on the same block. See the following https://forum.openzeppelin.com/t/iterating-over-elements-on-enumerableset-in-openzeppelin-contracts/2296[forum post] for more information."
      },
      "getRoleMemberCount(bytes32)": {
        "details": "Returns the number of accounts that have `role`. Can be used together with {getRoleMember} to enumerate all bearers of a role."
      },
      "grantRole(bytes32,address)": {
        "details": "Grants `role` to `account`.     * If `account` had not been already granted `role`, emits a {RoleGranted} event.     * Requirements:     * - the caller must have ``role``'s admin role."
      },
      "hasRole(bytes32,address)": {
        "details": "Returns `true` if `account` has been granted `role`."
      },
      "renounceRole(bytes32,address)": {
        "details": "Revokes `role` from the calling account.     * Roles are often managed via {grantRole} and {revokeRole}: this function's purpose is to provide a mechanism for accounts to lose their privileges if they are compromised (such as when a trusted device is misplaced).     * If the calling account had been granted `role`, emits a {RoleRevoked} event.     * Requirements:     * - the caller must be `account`."
      },
      "revokeRole(bytes32,address)": {
        "details": "Revokes `role` from `account`.     * If `account` had been granted `role`, emits a {RoleRevoked} event.     * Requirements:     * - the caller must have ``role``'s admin role."
      }
    }
  },
  "userdoc": {
    "methods": {}
  }
}