{
  "contractName": "SkillERC20BridgeProxyContract",
  "abi": [
    {
      "anonymous": false,
      "inputs": [
        {
          "indexed": true,
          "internalType": "bytes32",
          "name": "role",
          "type": "bytes32"
        },
        {
          "indexed": true,
          "internalType": "bytes32",
          "name": "previousAdminRole",
          "type": "bytes32"
        },
        {
          "indexed": true,
          "internalType": "bytes32",
          "name": "newAdminRole",
          "type": "bytes32"
        }
      ],
      "name": "RoleAdminChanged",
      "type": "event"
    },
    {
      "anonymous": false,
      "inputs": [
        {
          "indexed": true,
          "internalType": "bytes32",
          "name": "role",
          "type": "bytes32"
        },
        {
          "indexed": true,
          "internalType": "address",
          "name": "account",
          "type": "address"
        },
        {
          "indexed": true,
          "internalType": "address",
          "name": "sender",
          "type": "address"
        }
      ],
      "name": "RoleGranted",
      "type": "event"
    },
    {
      "anonymous": false,
      "inputs": [
        {
          "indexed": true,
          "internalType": "bytes32",
          "name": "role",
          "type": "bytes32"
        },
        {
          "indexed": true,
          "internalType": "address",
          "name": "account",
          "type": "address"
        },
        {
          "indexed": true,
          "internalType": "address",
          "name": "sender",
          "type": "address"
        }
      ],
      "name": "RoleRevoked",
      "type": "event"
    },
    {
      "inputs": [],
      "name": "DEFAULT_ADMIN_ROLE",
      "outputs": [
        {
          "internalType": "bytes32",
          "name": "",
          "type": "bytes32"
        }
      ],
      "stateMutability": "view",
      "type": "function"
    },
    {
      "inputs": [],
      "name": "GAME_ADMIN",
      "outputs": [
        {
          "internalType": "bytes32",
          "name": "",
          "type": "bytes32"
        }
      ],
      "stateMutability": "view",
      "type": "function"
    },
    {
      "inputs": [
        {
          "internalType": "bytes32",
          "name": "role",
          "type": "bytes32"
        }
      ],
      "name": "getRoleAdmin",
      "outputs": [
        {
          "internalType": "bytes32",
          "name": "",
          "type": "bytes32"
        }
      ],
      "stateMutability": "view",
      "type": "function"
    },
    {
      "inputs": [
        {
          "internalType": "bytes32",
          "name": "role",
          "type": "bytes32"
        },
        {
          "internalType": "uint256",
          "name": "index",
          "type": "uint256"
        }
      ],
      "name": "getRoleMember",
      "outputs": [
        {
          "internalType": "address",
          "name": "",
          "type": "address"
        }
      ],
      "stateMutability": "view",
      "type": "function"
    },
    {
      "inputs": [
        {
          "internalType": "bytes32",
          "name": "role",
          "type": "bytes32"
        }
      ],
      "name": "getRoleMemberCount",
      "outputs": [
        {
          "internalType": "uint256",
          "name": "",
          "type": "uint256"
        }
      ],
      "stateMutability": "view",
      "type": "function"
    },
    {
      "inputs": [
        {
          "internalType": "bytes32",
          "name": "role",
          "type": "bytes32"
        },
        {
          "internalType": "address",
          "name": "account",
          "type": "address"
        }
      ],
      "name": "grantRole",
      "outputs": [],
      "stateMutability": "nonpayable",
      "type": "function"
    },
    {
      "inputs": [
        {
          "internalType": "bytes32",
          "name": "role",
          "type": "bytes32"
        },
        {
          "internalType": "address",
          "name": "account",
          "type": "address"
        }
      ],
      "name": "hasRole",
      "outputs": [
        {
          "internalType": "bool",
          "name": "",
          "type": "bool"
        }
      ],
      "stateMutability": "view",
      "type": "function"
    },
    {
      "inputs": [],
      "name": "promos",
      "outputs": [
        {
          "internalType": "contract Promos",
          "name": "",
          "type": "address"
        }
      ],
      "stateMutability": "view",
      "type": "function"
    },
    {
      "inputs": [
        {
          "internalType": "bytes32",
          "name": "role",
          "type": "bytes32"
        },
        {
          "internalType": "address",
          "name": "account",
          "type": "address"
        }
      ],
      "name": "renounceRole",
      "outputs": [],
      "stateMutability": "nonpayable",
      "type": "function"
    },
    {
      "inputs": [
        {
          "internalType": "bytes32",
          "name": "role",
          "type": "bytes32"
        },
        {
          "internalType": "address",
          "name": "account",
          "type": "address"
        }
      ],
      "name": "revokeRole",
      "outputs": [],
      "stateMutability": "nonpayable",
      "type": "function"
    },
    {
      "inputs": [
        {
          "internalType": "contract Promos",
          "name": "_promos",
          "type": "address"
        }
      ],
      "name": "initialize",
      "outputs": [],
      "stateMutability": "nonpayable",
      "type": "function"
    },
    {
      "inputs": [],
      "name": "sigVersion",
      "outputs": [
        {
          "internalType": "uint256",
          "name": "",
          "type": "uint256"
        }
      ],
      "stateMutability": "view",
      "type": "function"
    },
    {
      "inputs": [],
      "name": "isEnabled",
      "outputs": [
        {
          "internalType": "bool",
          "name": "",
          "type": "bool"
        }
      ],
      "stateMutability": "view",
      "type": "function"
    },
    {
      "inputs": [
        {
          "internalType": "bool",
          "name": "_enabled",
          "type": "bool"
        }
      ],
      "name": "setEnabled",
      "outputs": [],
      "stateMutability": "nonpayable",
      "type": "function"
    },
    {
      "inputs": [
        {
          "internalType": "address",
          "name": "wallet",
          "type": "address"
        },
        {
          "internalType": "uint256",
          "name": "amount",
          "type": "uint256"
        },
        {
          "internalType": "uint256",
          "name": "targetChain",
          "type": "uint256"
        }
      ],
      "name": "canBridge",
      "outputs": [
        {
          "internalType": "bool",
          "name": "",
          "type": "bool"
        }
      ],
      "stateMutability": "view",
      "type": "function"
    }
  ],
  "bytecode": "0x608060405234801561001057600080fd5b50610c77806100206000396000f3fe608060405234801561001057600080fd5b50600436106100f55760003560e01c80635504d3d211610097578063a217fddf11610066578063a217fddf14610273578063c4d66de81461027b578063ca15c873146102a1578063d547741f146102be576100f5565b80635504d3d2146102145780636aa633b61461021c5780639010d07c1461022457806391d1485414610247576100f5565b8063328d8f72116100d3578063328d8f721461019d57806336568abe146101bc5780634594fac4146101e857806351e717ac146101f0576100f5565b8063248a9ca3146100fa5780632d31418a146101295780632f2ff15d1461016f575b600080fd5b6101176004803603602081101561011057600080fd5b50356102ea565b60408051918252519081900360200190f35b61015b6004803603606081101561013f57600080fd5b506001600160a01b0381351690602081013590604001356102ff565b604080519115158252519081900360200190f35b61019b6004803603604081101561018557600080fd5b50803590602001356001600160a01b03166103fd565b005b61019b600480360360208110156101b357600080fd5b50351515610469565b61019b600480360360408110156101d257600080fd5b50803590602001356001600160a01b031661048f565b6101176104f0565b6101f86104f5565b604080516001600160a01b039092168252519081900360200190f35b610117610504565b61015b610526565b6101f86004803603604081101561023a57600080fd5b5080359060200135610536565b61015b6004803603604081101561025d57600080fd5b50803590602001356001600160a01b031661055d565b61011761057b565b61019b6004803603602081101561029157600080fd5b50356001600160a01b0316610580565b610117600480360360208110156102b757600080fd5b5035610650565b61019b600480360360408110156102d457600080fd5b50803590602001356001600160a01b0316610667565b60009081526033602052604090206002015490565b6065546040805163907ef7d560e01b815290516000926001600160a01b03169163434d82a3913391849163907ef7d591600480820192602092909190829003018186803b15801561034f57600080fd5b505afa158015610363573d6000803e3d6000fd5b505050506040513d602081101561037957600080fd5b5051604080516001600160e01b031960e086901b1681526001600160a01b0390931660048401526024830191909152516044808301926020929190829003018186803b1580156103c857600080fd5b505afa1580156103dc573d6000803e3d6000fd5b505050506040513d60208110156103f257600080fd5b505115949350505050565b6000828152603360205260409020600201546104209061041b6106c0565b61055d565b61045b5760405162461bcd60e51b815260040180806020018281038252602f815260200180610b86602f913960400191505060405180910390fd5b61046582826106c4565b5050565b610471610733565b60658054911515600160a01b0260ff60a01b19909216919091179055565b6104976106c0565b6001600160a01b0316816001600160a01b0316146104e65760405162461bcd60e51b815260040180806020018281038252602f815260200180610c13602f913960400191505060405180910390fd5b61046582826107a5565b600190565b6065546001600160a01b031681565b604080516923a0a6a2afa0a226a4a760b11b8152905190819003600a01902081565b606554600160a01b900460ff1690565b6000828152603360205260408120610554908363ffffffff61081416565b90505b92915050565b6000828152603360205260408120610554908363ffffffff61082016565b600081565b600054610100900460ff16806105995750610599610835565b806105a7575060005460ff16155b6105e25760405162461bcd60e51b815260040180806020018281038252602e815260200180610be5602e913960400191505060405180910390fd5b600054610100900460ff1615801561060d576000805460ff1961ff0019909116610100171660011790555b610615610846565b61062060003361045b565b606580546001600160a01b0319166001600160a01b0384161790558015610465576000805461ff00191690555050565b6000818152603360205260408120610557906108f8565b6000828152603360205260409020600201546106859061041b6106c0565b6104e65760405162461bcd60e51b8152600401808060200182810382526030815260200180610bb56030913960400191505060405180910390fd5b3390565b60008281526033602052604090206106e2908263ffffffff61090316565b15610465576106ef6106c0565b6001600160a01b0316816001600160a01b0316837f2f8788117e7eff1d82e926ec794901d17c78024a50270940304540a733656f0d60405160405180910390a45050565b604080516923a0a6a2afa0a226a4a760b11b8152905190819003600a01902061075c903361055d565b8061076d575061076d60003361055d565b6107a3576040805162461bcd60e51b81526020600482015260026024820152614e4160f01b604482015290519081900360640190fd5b565b60008281526033602052604090206107c3908263ffffffff61091816565b15610465576107d06106c0565b6001600160a01b0316816001600160a01b0316837ff6391f5c32d9c69d2a47ea670b442974b53935d1edc7fd64eb21e047a839171b60405160405180910390a45050565b6000610554838361092d565b6000610554836001600160a01b038416610991565b6000610840306109a9565b15905090565b600054610100900460ff168061085f575061085f610835565b8061086d575060005460ff16155b6108a85760405162461bcd60e51b815260040180806020018281038252602e815260200180610be5602e913960400191505060405180910390fd5b600054610100900460ff161580156108d3576000805460ff1961ff0019909116610100171660011790555b6108db6109af565b6108e36109af565b80156108f5576000805461ff00191690555b50565b600061055782610a4f565b6000610554836001600160a01b038416610a53565b6000610554836001600160a01b038416610a9d565b8154600090821061096f5760405162461bcd60e51b8152600401808060200182810382526022815260200180610b646022913960400191505060405180910390fd5b82600001828154811061097e57fe5b9060005260206000200154905092915050565b60009081526001919091016020526040902054151590565b3b151590565b600054610100900460ff16806109c857506109c8610835565b806109d6575060005460ff16155b610a115760405162461bcd60e51b815260040180806020018281038252602e815260200180610be5602e913960400191505060405180910390fd5b600054610100900460ff161580156108e3576000805460ff1961ff00199091166101001716600117905580156108f5576000805461ff001916905550565b5490565b6000610a5f8383610991565b610a9557508154600181810184556000848152602080822090930184905584548482528286019093526040902091909155610557565b506000610557565b60008181526001830160205260408120548015610b595783546000198083019190810190600090879083908110610ad057fe5b9060005260206000200154905080876000018481548110610aed57fe5b600091825260208083209091019290925582815260018981019092526040902090840190558654879080610b1d57fe5b60019003818190600052602060002001600090559055866001016000878152602001908152602001600020600090556001945050505050610557565b600091505061055756fe456e756d657261626c655365743a20696e646578206f7574206f6620626f756e6473416363657373436f6e74726f6c3a2073656e646572206d75737420626520616e2061646d696e20746f206772616e74416363657373436f6e74726f6c3a2073656e646572206d75737420626520616e2061646d696e20746f207265766f6b65496e697469616c697a61626c653a20636f6e747261637420697320616c726561647920696e697469616c697a6564416363657373436f6e74726f6c3a2063616e206f6e6c792072656e6f756e636520726f6c657320666f722073656c66a2646970667358221220cfe500282c036d9a2876df1d965e003ff9b9434900412268a2d5643d440d7c7964736f6c63430006050033",
  "immutableReferences": {},
  "source": "pragma solidity ^0.6.0;\n\nimport \"@openzeppelin/contracts-upgradeable/proxy/Initializable.sol\";\nimport \"@openzeppelin/contracts-upgradeable/access/AccessControlUpgradeable.sol\";\nimport \"./interfaces/IERC20BridgeProxy.sol\";\nimport \"./Promos.sol\";\n\n\ncontract SkillERC20BridgeProxyContract is Initializable, AccessControlUpgradeable, IERC20BridgeProxy {\n  \n    bytes32 public constant GAME_ADMIN = keccak256(\"GAME_ADMIN\");\n    \n    Promos public promos;\n    bool enabled;\n\n    modifier restricted() {\n        _restricted();\n        _;\n    }\n\n    function _restricted() internal view {\n        require(hasRole(GAME_ADMIN, msg.sender) || hasRole(DEFAULT_ADMIN_ROLE, msg.sender), \"NA\");\n    }\n\n    function initialize(Promos _promos) public initializer {\n        __AccessControl_init();\n\n        _setupRole(DEFAULT_ADMIN_ROLE, msg.sender);\n\n        promos = _promos;\n    }\n\n    // for future use, bot will probe the returned value to know if the proxy contract has proper signature behavior\n    function sigVersion() external view override returns (uint256) {\n        return 1;\n    }\n\n    function isEnabled() external view override returns (bool) {\n        return enabled;\n    }\n\n    function setEnabled(bool _enabled) external restricted {\n        enabled = _enabled;\n    }\n\n    function canBridge(address wallet, uint256 amount, uint256 targetChain) external view override returns (bool) {\n        return promos.getBit(msg.sender, promos.BIT_BAD_ACTOR()) == false;\n    }\n}\n",
  "sourcePath": "/mnt/e/work/cryptoblades/contracts/SkillERC20BridgeProxyContract.sol",
  "compiler": {
    "name": "solc",
    "version": "0.6.5+commit.f956cc89.Emscripten.clang"
  },
  "schemaVersion": "3.3.4",
  "updatedAt": "2023-01-24T17:45:31.765Z",
  "devdoc": {
    "methods": {
      "getRoleAdmin(bytes32)": {
        "details": "Returns the admin role that controls `role`. See {grantRole} and {revokeRole}.     * To change a role's admin, use {_setRoleAdmin}."
      },
      "getRoleMember(bytes32,uint256)": {
        "details": "Returns one of the accounts that have `role`. `index` must be a value between 0 and {getRoleMemberCount}, non-inclusive.     * Role bearers are not sorted in any particular way, and their ordering may change at any point.     * WARNING: When using {getRoleMember} and {getRoleMemberCount}, make sure you perform all queries on the same block. See the following https://forum.openzeppelin.com/t/iterating-over-elements-on-enumerableset-in-openzeppelin-contracts/2296[forum post] for more information."
      },
      "getRoleMemberCount(bytes32)": {
        "details": "Returns the number of accounts that have `role`. Can be used together with {getRoleMember} to enumerate all bearers of a role."
      },
      "grantRole(bytes32,address)": {
        "details": "Grants `role` to `account`.     * If `account` had not been already granted `role`, emits a {RoleGranted} event.     * Requirements:     * - the caller must have ``role``'s admin role."
      },
      "hasRole(bytes32,address)": {
        "details": "Returns `true` if `account` has been granted `role`."
      },
      "renounceRole(bytes32,address)": {
        "details": "Revokes `role` from the calling account.     * Roles are often managed via {grantRole} and {revokeRole}: this function's purpose is to provide a mechanism for accounts to lose their privileges if they are compromised (such as when a trusted device is misplaced).     * If the calling account had been granted `role`, emits a {RoleRevoked} event.     * Requirements:     * - the caller must be `account`."
      },
      "revokeRole(bytes32,address)": {
        "details": "Revokes `role` from `account`.     * If `account` had been granted `role`, emits a {RoleRevoked} event.     * Requirements:     * - the caller must have ``role``'s admin role."
      }
    }
  },
  "userdoc": {
    "methods": {}
  }
}