{
  "contractName": "StakingRewardsUpgradeable",
  "abi": [
    {
      "anonymous": false,
      "inputs": [],
      "name": "FailsafeModeEnabled",
      "type": "event"
    },
    {
      "anonymous": false,
      "inputs": [
        {
          "indexed": false,
          "internalType": "uint256",
          "name": "newMinimumStakeAmount",
          "type": "uint256"
        }
      ],
      "name": "MinimumStakeAmountUpdated",
      "type": "event"
    },
    {
      "anonymous": false,
      "inputs": [
        {
          "indexed": false,
          "internalType": "uint256",
          "name": "newMinimumStakeTime",
          "type": "uint256"
        }
      ],
      "name": "MinimumStakeTimeUpdated",
      "type": "event"
    },
    {
      "anonymous": false,
      "inputs": [
        {
          "indexed": true,
          "internalType": "address",
          "name": "previousOwner",
          "type": "address"
        },
        {
          "indexed": true,
          "internalType": "address",
          "name": "newOwner",
          "type": "address"
        }
      ],
      "name": "OwnershipTransferred",
      "type": "event"
    },
    {
      "anonymous": false,
      "inputs": [
        {
          "indexed": false,
          "internalType": "address",
          "name": "account",
          "type": "address"
        }
      ],
      "name": "Paused",
      "type": "event"
    },
    {
      "anonymous": false,
      "inputs": [
        {
          "indexed": false,
          "internalType": "address",
          "name": "token",
          "type": "address"
        },
        {
          "indexed": false,
          "internalType": "uint256",
          "name": "amount",
          "type": "uint256"
        }
      ],
      "name": "Recovered",
      "type": "event"
    },
    {
      "anonymous": false,
      "inputs": [
        {
          "indexed": false,
          "internalType": "uint256",
          "name": "reward",
          "type": "uint256"
        }
      ],
      "name": "RewardAdded",
      "type": "event"
    },
    {
      "anonymous": false,
      "inputs": [
        {
          "indexed": true,
          "internalType": "address",
          "name": "user",
          "type": "address"
        },
        {
          "indexed": false,
          "internalType": "uint256",
          "name": "reward",
          "type": "uint256"
        }
      ],
      "name": "RewardPaid",
      "type": "event"
    },
    {
      "anonymous": false,
      "inputs": [
        {
          "indexed": false,
          "internalType": "uint256",
          "name": "newDuration",
          "type": "uint256"
        }
      ],
      "name": "RewardsDurationUpdated",
      "type": "event"
    },
    {
      "anonymous": false,
      "inputs": [
        {
          "indexed": true,
          "internalType": "address",
          "name": "user",
          "type": "address"
        },
        {
          "indexed": false,
          "internalType": "uint256",
          "name": "amount",
          "type": "uint256"
        }
      ],
      "name": "Staked",
      "type": "event"
    },
    {
      "anonymous": false,
      "inputs": [
        {
          "indexed": false,
          "internalType": "address",
          "name": "account",
          "type": "address"
        }
      ],
      "name": "Unpaused",
      "type": "event"
    },
    {
      "anonymous": false,
      "inputs": [
        {
          "indexed": true,
          "internalType": "address",
          "name": "user",
          "type": "address"
        },
        {
          "indexed": false,
          "internalType": "uint256",
          "name": "amount",
          "type": "uint256"
        }
      ],
      "name": "Withdrawn",
      "type": "event"
    },
    {
      "inputs": [],
      "name": "failsafeModeActive",
      "outputs": [
        {
          "internalType": "bool",
          "name": "",
          "type": "bool"
        }
      ],
      "stateMutability": "view",
      "type": "function"
    },
    {
      "inputs": [],
      "name": "lastUpdateTime",
      "outputs": [
        {
          "internalType": "uint256",
          "name": "",
          "type": "uint256"
        }
      ],
      "stateMutability": "view",
      "type": "function"
    },
    {
      "inputs": [],
      "name": "minimumStakeAmount",
      "outputs": [
        {
          "internalType": "uint256",
          "name": "",
          "type": "uint256"
        }
      ],
      "stateMutability": "view",
      "type": "function"
    },
    {
      "inputs": [],
      "name": "minimumStakeTime",
      "outputs": [
        {
          "internalType": "uint256",
          "name": "",
          "type": "uint256"
        }
      ],
      "stateMutability": "view",
      "type": "function"
    },
    {
      "inputs": [],
      "name": "owner",
      "outputs": [
        {
          "internalType": "address",
          "name": "",
          "type": "address"
        }
      ],
      "stateMutability": "view",
      "type": "function"
    },
    {
      "inputs": [],
      "name": "paused",
      "outputs": [
        {
          "internalType": "bool",
          "name": "",
          "type": "bool"
        }
      ],
      "stateMutability": "view",
      "type": "function"
    },
    {
      "inputs": [],
      "name": "periodFinish",
      "outputs": [
        {
          "internalType": "uint256",
          "name": "",
          "type": "uint256"
        }
      ],
      "stateMutability": "view",
      "type": "function"
    },
    {
      "inputs": [],
      "name": "renounceOwnership",
      "outputs": [],
      "stateMutability": "nonpayable",
      "type": "function"
    },
    {
      "inputs": [],
      "name": "rewardPerTokenStored",
      "outputs": [
        {
          "internalType": "uint256",
          "name": "",
          "type": "uint256"
        }
      ],
      "stateMutability": "view",
      "type": "function"
    },
    {
      "inputs": [],
      "name": "rewardRate",
      "outputs": [
        {
          "internalType": "uint256",
          "name": "",
          "type": "uint256"
        }
      ],
      "stateMutability": "view",
      "type": "function"
    },
    {
      "inputs": [
        {
          "internalType": "address",
          "name": "",
          "type": "address"
        }
      ],
      "name": "rewards",
      "outputs": [
        {
          "internalType": "uint256",
          "name": "",
          "type": "uint256"
        }
      ],
      "stateMutability": "view",
      "type": "function"
    },
    {
      "inputs": [],
      "name": "rewardsDistribution",
      "outputs": [
        {
          "internalType": "address",
          "name": "",
          "type": "address"
        }
      ],
      "stateMutability": "view",
      "type": "function"
    },
    {
      "inputs": [],
      "name": "rewardsDuration",
      "outputs": [
        {
          "internalType": "uint256",
          "name": "",
          "type": "uint256"
        }
      ],
      "stateMutability": "view",
      "type": "function"
    },
    {
      "inputs": [],
      "name": "rewardsToken",
      "outputs": [
        {
          "internalType": "contract IERC20",
          "name": "",
          "type": "address"
        }
      ],
      "stateMutability": "view",
      "type": "function"
    },
    {
      "inputs": [
        {
          "internalType": "address",
          "name": "_rewardsDistribution",
          "type": "address"
        }
      ],
      "name": "setRewardsDistribution",
      "outputs": [],
      "stateMutability": "nonpayable",
      "type": "function"
    },
    {
      "inputs": [],
      "name": "stakingToken",
      "outputs": [
        {
          "internalType": "contract IERC20",
          "name": "",
          "type": "address"
        }
      ],
      "stateMutability": "view",
      "type": "function"
    },
    {
      "inputs": [
        {
          "internalType": "address",
          "name": "newOwner",
          "type": "address"
        }
      ],
      "name": "transferOwnership",
      "outputs": [],
      "stateMutability": "nonpayable",
      "type": "function"
    },
    {
      "inputs": [
        {
          "internalType": "address",
          "name": "",
          "type": "address"
        }
      ],
      "name": "userRewardPerTokenPaid",
      "outputs": [
        {
          "internalType": "uint256",
          "name": "",
          "type": "uint256"
        }
      ],
      "stateMutability": "view",
      "type": "function"
    },
    {
      "inputs": [
        {
          "internalType": "address",
          "name": "_owner",
          "type": "address"
        },
        {
          "internalType": "address",
          "name": "_rewardsDistribution",
          "type": "address"
        },
        {
          "internalType": "address",
          "name": "_rewardsToken",
          "type": "address"
        },
        {
          "internalType": "address",
          "name": "_stakingToken",
          "type": "address"
        },
        {
          "internalType": "uint256",
          "name": "_minimumStakeTime",
          "type": "uint256"
        }
      ],
      "name": "initialize",
      "outputs": [],
      "stateMutability": "nonpayable",
      "type": "function"
    },
    {
      "inputs": [
        {
          "internalType": "uint256",
          "name": "_minimumStakeAmount",
          "type": "uint256"
        }
      ],
      "name": "migrateTo_8cb6e70",
      "outputs": [],
      "stateMutability": "nonpayable",
      "type": "function"
    },
    {
      "inputs": [],
      "name": "totalSupply",
      "outputs": [
        {
          "internalType": "uint256",
          "name": "",
          "type": "uint256"
        }
      ],
      "stateMutability": "view",
      "type": "function"
    },
    {
      "inputs": [
        {
          "internalType": "address",
          "name": "account",
          "type": "address"
        }
      ],
      "name": "balanceOf",
      "outputs": [
        {
          "internalType": "uint256",
          "name": "",
          "type": "uint256"
        }
      ],
      "stateMutability": "view",
      "type": "function"
    },
    {
      "inputs": [],
      "name": "lastTimeRewardApplicable",
      "outputs": [
        {
          "internalType": "uint256",
          "name": "",
          "type": "uint256"
        }
      ],
      "stateMutability": "view",
      "type": "function"
    },
    {
      "inputs": [],
      "name": "rewardPerToken",
      "outputs": [
        {
          "internalType": "uint256",
          "name": "",
          "type": "uint256"
        }
      ],
      "stateMutability": "view",
      "type": "function"
    },
    {
      "inputs": [
        {
          "internalType": "address",
          "name": "account",
          "type": "address"
        }
      ],
      "name": "earned",
      "outputs": [
        {
          "internalType": "uint256",
          "name": "",
          "type": "uint256"
        }
      ],
      "stateMutability": "view",
      "type": "function"
    },
    {
      "inputs": [],
      "name": "getRewardForDuration",
      "outputs": [
        {
          "internalType": "uint256",
          "name": "",
          "type": "uint256"
        }
      ],
      "stateMutability": "view",
      "type": "function"
    },
    {
      "inputs": [],
      "name": "getStakeRewardDistributionTimeLeft",
      "outputs": [
        {
          "internalType": "uint256",
          "name": "",
          "type": "uint256"
        }
      ],
      "stateMutability": "view",
      "type": "function"
    },
    {
      "inputs": [],
      "name": "getStakeUnlockTimeLeft",
      "outputs": [
        {
          "internalType": "uint256",
          "name": "",
          "type": "uint256"
        }
      ],
      "stateMutability": "view",
      "type": "function"
    },
    {
      "inputs": [
        {
          "internalType": "uint256",
          "name": "amount",
          "type": "uint256"
        }
      ],
      "name": "stake",
      "outputs": [],
      "stateMutability": "nonpayable",
      "type": "function"
    },
    {
      "inputs": [
        {
          "internalType": "uint256",
          "name": "amount",
          "type": "uint256"
        }
      ],
      "name": "withdraw",
      "outputs": [],
      "stateMutability": "nonpayable",
      "type": "function"
    },
    {
      "inputs": [],
      "name": "getReward",
      "outputs": [],
      "stateMutability": "nonpayable",
      "type": "function"
    },
    {
      "inputs": [],
      "name": "exit",
      "outputs": [],
      "stateMutability": "nonpayable",
      "type": "function"
    },
    {
      "inputs": [],
      "name": "recoverOwnStake",
      "outputs": [],
      "stateMutability": "nonpayable",
      "type": "function"
    },
    {
      "inputs": [
        {
          "internalType": "uint256",
          "name": "reward",
          "type": "uint256"
        }
      ],
      "name": "notifyRewardAmount",
      "outputs": [],
      "stateMutability": "nonpayable",
      "type": "function"
    },
    {
      "inputs": [
        {
          "internalType": "uint256",
          "name": "timestamp",
          "type": "uint256"
        }
      ],
      "name": "updatePeriodFinish",
      "outputs": [],
      "stateMutability": "nonpayable",
      "type": "function"
    },
    {
      "inputs": [
        {
          "internalType": "address",
          "name": "tokenAddress",
          "type": "address"
        },
        {
          "internalType": "uint256",
          "name": "tokenAmount",
          "type": "uint256"
        }
      ],
      "name": "recoverERC20",
      "outputs": [],
      "stateMutability": "nonpayable",
      "type": "function"
    },
    {
      "inputs": [
        {
          "internalType": "uint256",
          "name": "_rewardsDuration",
          "type": "uint256"
        }
      ],
      "name": "setRewardsDuration",
      "outputs": [],
      "stateMutability": "nonpayable",
      "type": "function"
    },
    {
      "inputs": [
        {
          "internalType": "uint256",
          "name": "_minimumStakeTime",
          "type": "uint256"
        }
      ],
      "name": "setMinimumStakeTime",
      "outputs": [],
      "stateMutability": "nonpayable",
      "type": "function"
    },
    {
      "inputs": [
        {
          "internalType": "uint256",
          "name": "_minimumStakeAmount",
          "type": "uint256"
        }
      ],
      "name": "setMinimumStakeAmount",
      "outputs": [],
      "stateMutability": "nonpayable",
      "type": "function"
    },
    {
      "inputs": [],
      "name": "enableFailsafeMode",
      "outputs": [],
      "stateMutability": "nonpayable",
      "type": "function"
    },
    {
      "inputs": [],
      "name": "recoverExtraStakingTokensToOwner",
      "outputs": [],
      "stateMutability": "nonpayable",
      "type": "function"
    },
    {
      "inputs": [],
      "name": "pause",
      "outputs": [],
      "stateMutability": "nonpayable",
      "type": "function"
    },
    {
      "inputs": [],
      "name": "unpause",
      "outputs": [],
      "stateMutability": "nonpayable",
      "type": "function"
    }
  ],
  "bytecode": "0x608060405234801561001057600080fd5b50612dbb806100206000396000f3fe608060405234801561001057600080fd5b50600436106102685760003560e01c8063715018a611610151578063cd3daf9d116100c3578063e9fad8ee11610087578063e9fad8ee14610526578063ebe2b12b1461052e578063f2fde38b14610536578063f603944c1461055c578063f7013ef614610564578063ff994033146105aa57610268565b8063cd3daf9d146104e9578063d1af0c7d146104f1578063df136d65146104f9578063e2adc23714610501578063e94220461461050957610268565b80638980f11f116101155780638980f11f1461044d5780638b876347146104795780638da5cb5b1461049f578063a694fc3a146104a7578063c8f33c91146104c4578063cc1a378f146104cc57610268565b8063715018a61461042557806372f702f31461042d5780637b0a47ee1461043557806380faa57d1461043d5780638456cb591461044557610268565b80632f3d3b14116101ea5780633fc6df6e116101ae5780633fc6df6e146103a657806344142db5146103ca578063556f6e6b146103d25780635c975abb146103ef5780636b036f45146103f757806370a08231146103ff57610268565b80632f3d3b1414610369578063386a9525146103715780633c6b16ab146103795780633d18b912146103965780633f4ba83a1461039e57610268565b80631976214311610231578063197621431461030e5780631c1f78eb14610334578063242df9e11461033c57806327ab1969146103445780632e1a7d4d1461034c57610268565b80628cc2621461026d5780630700037d146102a55780630d29fcd4146102cb5780631265cc97146102ea57806318160ddd14610306575b600080fd5b6102936004803603602081101561028357600080fd5b50356001600160a01b03166105c7565b60408051918252519081900360200190f35b610293600480360360208110156102bb57600080fd5b50356001600160a01b031661065d565b6102e8600480360360208110156102e157600080fd5b503561066f565b005b6102f261074e565b604080519115158252519081900360200190f35b610293610757565b6102e86004803603602081101561032457600080fd5b50356001600160a01b031661075e565b6102936107e2565b610293610800565b610293610806565b6102e86004803603602081101561036257600080fd5b5035610839565b6102e86109e7565b610293610aa3565b6102e86004803603602081101561038f57600080fd5b5035610aa9565b6102e8610d47565b6102e8610f43565b6103ae610fff565b604080516001600160a01b039092168252519081900360200190f35b6102e861100e565b6102e8600480360360208110156103e857600080fd5b503561112b565b6102f261127c565b61029361128a565b6102936004803603602081101561041557600080fd5b50356001600160a01b0316611290565b6102e86112ab565b6103ae611357565b610293611366565b61029361136c565b6102e861137a565b6102e86004803603604081101561046357600080fd5b506001600160a01b038135169060200135611431565b6102936004803603602081101561048f57600080fd5b50356001600160a01b031661154a565b6103ae61155c565b6102e8600480360360208110156104bd57600080fd5b503561156b565b6102936116e5565b6102e8600480360360208110156104e257600080fd5b50356116eb565b61029361180a565b6103ae611864565b610293611873565b6102e8611879565b6102e86004803603602081101561051f57600080fd5b503561193e565b6102e8611a1d565b610293611a80565b6102e86004803603602081101561054c57600080fd5b50356001600160a01b0316611a86565b610293611b89565b6102e8600480360360a081101561057a57600080fd5b506001600160a01b0381358116916020810135821691604082013581169160608101359091169060800135611bd4565b6102e8600480360360208110156105c057600080fd5b5035611d07565b6001600160a01b038116600090815260d3602090815260408083205460d2909252822054610657919061064b90670de0b6b3a76400009061063f9061061a9061060e61180a565b9063ffffffff611d6e16565b6001600160a01b038816600090815260d560205260409020549063ffffffff611dcb16565b9063ffffffff611e2b16565b9063ffffffff611e9216565b92915050565b60d36020526000908152604090205481565b60985460ff16156106b15760405162461bcd60e51b8152600401808060200182810382526046815260200180612b366046913960600191505060405180910390fd5b6106b9611eec565b6001600160a01b03166106ca61155c565b6001600160a01b031614610713576040805162461bcd60e51b81526020600482018190526024820152600080516020612c5f833981519152604482015290519081900360640190fd5b60d88190556040805182815290517ff7fc4cb95c43f64f7a376fd9ef5947d85e6aff2df3e9b1715789ffff63d716329181900360200190a150565b60985460ff1681565b60d4545b90565b610766611eec565b6001600160a01b031661077761155c565b6001600160a01b0316146107c0576040805162461bcd60e51b81526020600482018190526024820152600080516020612c5f833981519152604482015290519081900360640190fd5b606580546001600160a01b0319166001600160a01b0392909216919091179055565b60006107fb60ce5460cd54611dcb90919063ffffffff16565b905090565b60cf5481565b60008060006108204260cc54611ef090919063ffffffff16565b9150915081610830576000610832565b805b9250505090565b60985460ff161561087b5760405162461bcd60e51b8152600401808060200182810382526046815260200180612b366046913960600191505060405180910390fd5b600260665414156108d3576040805162461bcd60e51b815260206004820152601f60248201527f5265656e7472616e637947756172643a207265656e7472616e742063616c6c00604482015290519081900360640190fd5b6002606655609854339060ff1661093e576108ec61180a565b60d1556108f761136c565b60d0556001600160a01b0381161561093e57610912816105c7565b6001600160a01b038216600090815260d3602090815260408083209390935560d15460d2909152919020555b60cf54158061096f575060cf5433600090815260d6602052604090205461096c90429063ffffffff611d6e16565b10155b8061097c57504260cc5411155b6109b75760405162461bcd60e51b8152600401808060200182810382526035815260200180612c7f6035913960400191505060405180910390fd5b6109c13383611f16565b60cb546109de906001600160a01b0316338463ffffffff61203a16565b50506001606655565b60985460ff16610a285760405162461bcd60e51b8152600401808060200182810382526048815260200180612b7c6048913960600191505060405180910390fd5b33600090815260d560205260409020548015610aa05760d454610a51908263ffffffff611d6e16565b60d45533600090815260d56020526040902054610a74908263ffffffff611d6e16565b33600081815260d5602052604090209190915560cb54610aa0916001600160a01b03909116908361203a565b50565b60ce5481565b60985460ff1615610aeb5760405162461bcd60e51b8152600401808060200182810382526046815260200180612b366046913960600191505060405180910390fd5b6065546001600160a01b03163314610b345760405162461bcd60e51b815260040180806020018281038252602a815260200180612cda602a913960400191505060405180910390fd5b60985460009060ff16610b9b57610b4961180a565b60d155610b5461136c565b60d0556001600160a01b03811615610b9b57610b6f816105c7565b6001600160a01b038216600090815260d3602090815260408083209390935560d15460d2909152919020555b60cc544210610bc05760ce54610bb890839063ffffffff611e2b16565b60cd55610c0f565b60cc54600090610bd6904263ffffffff611d6e16565b90506000610bef60cd5483611dcb90919063ffffffff16565b60ce54909150610c099061063f868463ffffffff611e9216565b60cd5550505b60ca54604080516370a0823160e01b815230600482015290516000926001600160a01b0316916370a08231916024808301926020929190829003018186803b158015610c5a57600080fd5b505afa158015610c6e573d6000803e3d6000fd5b505050506040513d6020811015610c8457600080fd5b505160ce54909150610c9d90829063ffffffff611e2b16565b60cd541115610cf3576040805162461bcd60e51b815260206004820152601860248201527f50726f76696465642072657761726420746f6f20686967680000000000000000604482015290519081900360640190fd5b4260d081905560ce54610d0c919063ffffffff611e9216565b60cc556040805184815290517fde88a922e0d3b88b24e9623efeb464919c6bf9f66857a65e2bfcf2ce87a9433d9181900360200190a1505050565b60985460ff1615610d895760405162461bcd60e51b8152600401808060200182810382526046815260200180612b366046913960600191505060405180910390fd5b60026066541415610de1576040805162461bcd60e51b815260206004820152601f60248201527f5265656e7472616e637947756172643a207265656e7472616e742063616c6c00604482015290519081900360640190fd5b6002606655609854339060ff16610e4c57610dfa61180a565b60d155610e0561136c565b60d0556001600160a01b03811615610e4c57610e20816105c7565b6001600160a01b038216600090815260d3602090815260408083209390935560d15460d2909152919020555b60cf541580610e7d575060cf5433600090815260d66020526040902054610e7a90429063ffffffff611d6e16565b10155b80610e8a57504260cc5411155b610ec55760405162461bcd60e51b8152600401808060200182810382526037815260200180612d2e6037913960400191505060405180910390fd5b33600090815260d3602052604090205480156109de5733600081815260d3602052604081205560ca54610f04916001600160a01b03909116908361203a565b60408051828152905133917fe2403640ba68fed3a2f88b7557551d1993f84b99bb10ff833f0cf8db0c5e0486919081900360200190a250506001606655565b610f4b611eec565b6001600160a01b0316610f5c61155c565b6001600160a01b031614610fa5576040805162461bcd60e51b81526020600482018190526024820152600080516020612c5f833981519152604482015290519081900360640190fd5b610fad61127c565b610ff5576040805162461bcd60e51b815260206004820152601460248201527314185d5cd8589b194e881b9bdd081c185d5cd95960621b604482015290519081900360640190fd5b610ffd612091565b565b6065546001600160a01b031681565b611016611eec565b6001600160a01b031661102761155c565b6001600160a01b031614611070576040805162461bcd60e51b81526020600482018190526024820152600080516020612c5f833981519152604482015290519081900360640190fd5b60d45460cb54604080516370a0823160e01b815230600482015290516000936110ff9390926001600160a01b03909116916370a0823191602480820192602092909190829003018186803b1580156110c757600080fd5b505afa1580156110db573d6000803e3d6000fd5b505050506040513d60208110156110f157600080fd5b50519063ffffffff611d6e16565b90508015610aa057610aa061111261155c565b60cb546001600160a01b0316908363ffffffff61203a16565b60985460ff161561116d5760405162461bcd60e51b8152600401808060200182810382526046815260200180612b366046913960600191505060405180910390fd5b611175611eec565b6001600160a01b031661118661155c565b6001600160a01b0316146111cf576040805162461bcd60e51b81526020600482018190526024820152600080516020612c5f833981519152604482015290519081900360640190fd5b60985460009060ff16611236576111e461180a565b60d1556111ef61136c565b60d0556001600160a01b038116156112365761120a816105c7565b6001600160a01b038216600090815260d3602090815260408083209390935560d15460d2909152919020555b60d05482116112765760405162461bcd60e51b8152600401808060200182810382526026815260200180612cb46026913960400191505060405180910390fd5b5060cc55565b609854610100900460ff1690565b60d85481565b6001600160a01b0316600090815260d5602052604090205490565b6112b3611eec565b6001600160a01b03166112c461155c565b6001600160a01b03161461130d576040805162461bcd60e51b81526020600482018190526024820152600080516020612c5f833981519152604482015290519081900360640190fd5b6033546040516000916001600160a01b0316907f8be0079c531659141344cd1fd0a4f28419497f9722a3daafe3b4186f6b6457e0908390a3603380546001600160a01b0319169055565b60cb546001600160a01b031681565b60cd5481565b60006107fb4260cc54612132565b611382611eec565b6001600160a01b031661139361155c565b6001600160a01b0316146113dc576040805162461bcd60e51b81526020600482018190526024820152600080516020612c5f833981519152604482015290519081900360640190fd5b6113e461127c565b15611429576040805162461bcd60e51b815260206004820152601060248201526f14185d5cd8589b194e881c185d5cd95960821b604482015290519081900360640190fd5b610ffd612148565b611439611eec565b6001600160a01b031661144a61155c565b6001600160a01b031614611493576040805162461bcd60e51b81526020600482018190526024820152600080516020612c5f833981519152604482015290519081900360640190fd5b60cb546001600160a01b03838116911614156114e05760405162461bcd60e51b8152600401808060200182810382526021815260200180612d656021913960400191505060405180910390fd5b6115026114eb61155c565b6001600160a01b038416908363ffffffff61203a16565b604080516001600160a01b03841681526020810183905281517f8c1256b8896378cd5044f80c202f9772b9d77dc85c8a6eb51967210b09bfaa28929181900390910190a15050565b60d26020526000908152604090205481565b6033546001600160a01b031690565b60985460ff16156115ad5760405162461bcd60e51b8152600401808060200182810382526046815260200180612b366046913960600191505060405180910390fd5b60026066541415611605576040805162461bcd60e51b815260206004820152601f60248201527f5265656e7472616e637947756172643a207265656e7472616e742063616c6c00604482015290519081900360640190fd5b600260665561161261127c565b15611657576040805162461bcd60e51b815260206004820152601060248201526f14185d5cd8589b194e881c185d5cd95960821b604482015290519081900360640190fd5b609854339060ff166116bd5761166b61180a565b60d15561167661136c565b60d0556001600160a01b038116156116bd57611691816105c7565b6001600160a01b038216600090815260d3602090815260408083209390935560d15460d2909152919020555b6116c733836121cd565b60cb546109de906001600160a01b031633308563ffffffff6122c516565b60d05481565b60985460ff161561172d5760405162461bcd60e51b8152600401808060200182810382526046815260200180612b366046913960600191505060405180910390fd5b611735611eec565b6001600160a01b031661174661155c565b6001600160a01b03161461178f576040805162461bcd60e51b81526020600482018190526024820152600080516020612c5f833981519152604482015290519081900360640190fd5b60cc5442116117cf5760405162461bcd60e51b8152600401808060200182810382526058815260200180612ade6058913960600191505060405180910390fd5b60ce8190556040805182815290517ffb46ca5a5e06d4540d6387b930a7c978bce0db5f449ec6b3f5d07c6e1d44f2d39181900360200190a150565b600060d45460001415611820575060d15461075b565b6107fb61185560d45461063f670de0b6b3a764000061184960cd5461184960d05461060e61136c565b9063ffffffff611dcb16565b60d1549063ffffffff611e9216565b60ca546001600160a01b031681565b60d15481565b60985460ff16156118bb5760405162461bcd60e51b8152600401808060200182810382526046815260200180612b366046913960600191505060405180910390fd5b6118c3611eec565b6001600160a01b03166118d461155c565b6001600160a01b03161461191d576040805162461bcd60e51b81526020600482018190526024820152600080516020612c5f833981519152604482015290519081900360640190fd5b600060d881905560cf81905560cc81905560cd81905560d155610ffd612325565b60985460ff16156119805760405162461bcd60e51b8152600401808060200182810382526046815260200180612b366046913960600191505060405180910390fd5b611988611eec565b6001600160a01b031661199961155c565b6001600160a01b0316146119e2576040805162461bcd60e51b81526020600482018190526024820152600080516020612c5f833981519152604482015290519081900360640190fd5b60cf8190556040805182815290517f2b0fa66d155c9598699cb6569577f27b95729bbf580268eed39db6bc4e8144779181900360200190a150565b60985460ff1615611a5f5760405162461bcd60e51b8152600401808060200182810382526046815260200180612b366046913960600191505060405180910390fd5b33600090815260d56020526040902054611a7890610839565b610ffd610d47565b60cc5481565b611a8e611eec565b6001600160a01b0316611a9f61155c565b6001600160a01b031614611ae8576040805162461bcd60e51b81526020600482018190526024820152600080516020612c5f833981519152604482015290519081900360640190fd5b6001600160a01b038116611b2d5760405162461bcd60e51b8152600401808060200182810382526026815260200180612bc46026913960400191505060405180910390fd5b6033546040516001600160a01b038084169216907f8be0079c531659141344cd1fd0a4f28419497f9722a3daafe3b4186f6b6457e090600090a3603380546001600160a01b0319166001600160a01b0392909216919091179055565b60004260cc5411611b9c5750600061075b565b60cf5433600090815260d6602052604081205490918291610820914291611bc89163ffffffff611e9216565b9063ffffffff611ef016565b600054610100900460ff1680611bed5750611bed6123bf565b80611bfb575060005460ff16155b611c365760405162461bcd60e51b815260040180806020018281038252602e815260200180612c10602e913960400191505060405180910390fd5b600054610100900460ff16158015611c61576000805460ff1961ff0019909116610100171660011790555b611c696123d0565b611c71612479565b611c79612572565b611c8161261e565b611c896126c9565b611c9161276f565b611c9a86611a86565b60ca80546001600160a01b038087166001600160a01b03199283161790925560cb8054868416908316179055606580549288169290911691909117905560cf829055600060cc81905560cd5562ed4e0060ce558015611cff576000805461ff00191690555b505050505050565b611d0f611eec565b6001600160a01b0316611d2061155c565b6001600160a01b031614611d69576040805162461bcd60e51b81526020600482018190526024820152600080516020612c5f833981519152604482015290519081900360640190fd5b60d855565b600082821115611dc5576040805162461bcd60e51b815260206004820152601e60248201527f536166654d6174683a207375627472616374696f6e206f766572666c6f770000604482015290519081900360640190fd5b50900390565b600082611dda57506000610657565b82820282848281611de757fe5b0414611e245760405162461bcd60e51b8152600401808060200182810382526021815260200180612c3e6021913960400191505060405180910390fd5b9392505050565b6000808211611e81576040805162461bcd60e51b815260206004820152601a60248201527f536166654d6174683a206469766973696f6e206279207a65726f000000000000604482015290519081900360640190fd5b818381611e8a57fe5b049392505050565b600082820183811015611e24576040805162461bcd60e51b815260206004820152601b60248201527f536166654d6174683a206164646974696f6e206f766572666c6f770000000000604482015290519081900360640190fd5b3390565b60008083831115611f0657506000905080611f0f565b50600190508183035b9250929050565b60008111611f5f576040805162461bcd60e51b8152602060048201526011602482015270043616e6e6f74207769746864726177203607c1b604482015290519081900360640190fd5b60d454611f72908263ffffffff611d6e16565b60d4556001600160a01b038216600090815260d56020526040902054611f9e908263ffffffff611d6e16565b6001600160a01b038316600090815260d560205260409020819055611fdb576001600160a01b038216600090815260d66020526040812055611ff7565b6001600160a01b038216600090815260d6602052604090204290555b6040805182815290516001600160a01b038416917f7084f5476618d8e60b11ef0d7d3f06914655adb8793e28ff7f018d4c76d505d5919081900360200190a25050565b604080516001600160a01b038416602482015260448082018490528251808303909101815260649091019091526020810180516001600160e01b031663a9059cbb60e01b17905261208c90849061280f565b505050565b61209961127c565b6120e1576040805162461bcd60e51b815260206004820152601460248201527314185d5cd8589b194e881b9bdd081c185d5cd95960621b604482015290519081900360640190fd5b6098805461ff00191690557f5db9ee0a495bf2e6ff9c91a7834c1ba4fdd244a5e8aa4e537bd38aeae4b073aa612115611eec565b604080516001600160a01b039092168252519081900360200190a1565b60008183106121415781611e24565b5090919050565b61215061127c565b15612195576040805162461bcd60e51b815260206004820152601060248201526f14185d5cd8589b194e881c185d5cd95960821b604482015290519081900360640190fd5b6098805461ff0019166101001790557f62e78cea01bee320cd4e420270b5ea74000d11b0c9f74754ebdbfc544b05a258612115611eec565b60d854811015612224576040805162461bcd60e51b815260206004820152601d60248201527f4d696e696d756d207374616b6520616d6f756e74207265717569726564000000604482015290519081900360640190fd5b60d454612237908263ffffffff611e9216565b60d4556001600160a01b038216600090815260d56020526040902054612263908263ffffffff611e9216565b6001600160a01b038316600081815260d5602090815260408083209490945560d68152908390204290558251848152925191927f9e71bc8eea02a63969f509818f2dafb9254532904319f9dbda79b67bd34a5f3d929081900390910190a25050565b604080516001600160a01b0380861660248301528416604482015260648082018490528251808303909101815260849091019091526020810180516001600160e01b03166323b872dd60e01b17905261231f90859061280f565b50505050565b61232d611eec565b6001600160a01b031661233e61155c565b6001600160a01b031614612387576040805162461bcd60e51b81526020600482018190526024820152600080516020612c5f833981519152604482015290519081900360640190fd5b6098805460ff191660011790556040517fe68101b30364d616deefc8cd307b7e27ccbd9c73f138bd478179497563d97a1190600090a1565b60006123ca306128c0565b15905090565b600054610100900460ff16806123e957506123e96123bf565b806123f7575060005460ff16155b6124325760405162461bcd60e51b815260040180806020018281038252602e815260200180612c10602e913960400191505060405180910390fd5b600054610100900460ff1615801561245d576000805460ff1961ff0019909116610100171660011790555b61246561276f565b8015610aa0576000805461ff001916905550565b600054610100900460ff168061249257506124926123bf565b806124a0575060005460ff16155b6124db5760405162461bcd60e51b815260040180806020018281038252602e815260200180612c10602e913960400191505060405180910390fd5b600054610100900460ff16158015612506576000805460ff1961ff0019909116610100171660011790555b6000612510611eec565b603380546001600160a01b0319166001600160a01b038316908117909155604051919250906000907f8be0079c531659141344cd1fd0a4f28419497f9722a3daafe3b4186f6b6457e0908290a3508015610aa0576000805461ff001916905550565b600054610100900460ff168061258b575061258b6123bf565b80612599575060005460ff16155b6125d45760405162461bcd60e51b815260040180806020018281038252602e815260200180612c10602e913960400191505060405180910390fd5b600054610100900460ff161580156125ff576000805460ff1961ff0019909116610100171660011790555b6098805461ff00191690558015610aa0576000805461ff001916905550565b600054610100900460ff168061263757506126376123bf565b80612645575060005460ff16155b6126805760405162461bcd60e51b815260040180806020018281038252602e815260200180612c10602e913960400191505060405180910390fd5b600054610100900460ff161580156126ab576000805460ff1961ff0019909116610100171660011790555b6098805460ff191690558015610aa0576000805461ff001916905550565b600054610100900460ff16806126e257506126e26123bf565b806126f0575060005460ff16155b61272b5760405162461bcd60e51b815260040180806020018281038252602e815260200180612c10602e913960400191505060405180910390fd5b600054610100900460ff16158015612756576000805460ff1961ff0019909116610100171660011790555b60016066558015610aa0576000805461ff001916905550565b600054610100900460ff168061278857506127886123bf565b80612796575060005460ff16155b6127d15760405162461bcd60e51b815260040180806020018281038252602e815260200180612c10602e913960400191505060405180910390fd5b600054610100900460ff16158015612465576000805460ff1961ff0019909116610100171660011790558015610aa0576000805461ff001916905550565b6060612864826040518060400160405280602081526020017f5361666545524332303a206c6f772d6c6576656c2063616c6c206661696c6564815250856001600160a01b03166128c69092919063ffffffff16565b80519091501561208c5780806020019051602081101561288357600080fd5b505161208c5760405162461bcd60e51b815260040180806020018281038252602a815260200180612d04602a913960400191505060405180910390fd5b3b151590565b60606128d584846000856128dd565b949350505050565b60608247101561291e5760405162461bcd60e51b8152600401808060200182810382526026815260200180612bea6026913960400191505060405180910390fd5b612927856128c0565b612978576040805162461bcd60e51b815260206004820152601d60248201527f416464726573733a2063616c6c20746f206e6f6e2d636f6e7472616374000000604482015290519081900360640190fd5b60006060866001600160a01b031685876040518082805190602001908083835b602083106129b75780518252601f199092019160209182019101612998565b6001836020036101000a03801982511681845116808217855250505050505090500191505060006040518083038185875af1925050503d8060008114612a19576040519150601f19603f3d011682016040523d82523d6000602084013e612a1e565b606091505b5091509150612a2e828286612a39565b979650505050505050565b60608315612a48575081611e24565b825115612a585782518084602001fd5b8160405162461bcd60e51b81526004018080602001828103825283818151815260200191508051906020019080838360005b83811015612aa2578181015183820152602001612a8a565b50505050905090810190601f168015612acf5780820380516001836020036101000a031916815260200191505b509250505060405180910390fdfe50726576696f7573207265776172647320706572696f64206d75737420626520636f6d706c657465206265666f7265206368616e67696e6720746865206475726174696f6e20666f7220746865206e657720706572696f645468697320616374696f6e2063616e6e6f7420626520706572666f726d6564207768696c652074686520636f6e747261637420697320696e204661696c73616665204d6f64655468697320616374696f6e2063616e206f6e6c7920626520706572666f726d6564207768696c652074686520636f6e747261637420697320696e204661696c73616665204d6f64654f776e61626c653a206e6577206f776e657220697320746865207a65726f2061646472657373416464726573733a20696e73756666696369656e742062616c616e636520666f722063616c6c496e697469616c697a61626c653a20636f6e747261637420697320616c726561647920696e697469616c697a6564536166654d6174683a206d756c7469706c69636174696f6e206f766572666c6f774f776e61626c653a2063616c6c6572206973206e6f7420746865206f776e657243616e6e6f7420776974686472617720756e74696c206d696e696d756d207374616b696e672074696d65206861732070617373656454696d657374616d70206d757374206265206166746572206c61737455706461746554696d6543616c6c6572206973206e6f742052657761726473446973747269627574696f6e20636f6e74726163745361666545524332303a204552433230206f7065726174696f6e20646964206e6f74207375636365656443616e6e6f74206765742072657761726420756e74696c206d696e696d756d207374616b696e672074696d65206861732070617373656443616e6e6f7420776974686472617720746865207374616b696e6720746f6b656ea2646970667358221220c6f578f058fc2c2871b10c8f42d4d9710e2fd75a3f18d2adc446dd34286c9fa864736f6c63430006050033",
  "immutableReferences": {},
  "source": "pragma solidity ^0.6.2;\n\nimport \"@openzeppelin/contracts-upgradeable/proxy/Initializable.sol\";\nimport \"@openzeppelin/contracts-upgradeable/utils/ReentrancyGuardUpgradeable.sol\";\nimport \"@openzeppelin/contracts-upgradeable/utils/PausableUpgradeable.sol\";\nimport \"@openzeppelin/contracts/math/Math.sol\";\nimport \"@openzeppelin/contracts/math/SafeMath.sol\";\nimport \"@openzeppelin/contracts/token/ERC20/SafeERC20.sol\";\n\nimport \"../cryptoblades.sol\";\n\n// Inheritance\nimport \"./interfaces/IStakingRewards.sol\";\nimport \"./RewardsDistributionRecipientUpgradeable.sol\";\nimport \"./FailsafeUpgradeable.sol\";\n\n// https://docs.synthetix.io/contracts/source/contracts/stakingrewards\ncontract StakingRewardsUpgradeable is\n    IStakingRewards,\n    Initializable,\n    RewardsDistributionRecipientUpgradeable,\n    ReentrancyGuardUpgradeable,\n    FailsafeUpgradeable,\n    PausableUpgradeable\n{\n    using SafeMath for uint256;\n    using SafeERC20 for IERC20;\n\n    /* ========== STATE VARIABLES ========== */\n\n    IERC20 public rewardsToken;\n    IERC20 public stakingToken;\n    uint256 public periodFinish;\n    uint256 public override rewardRate;\n    uint256 public override rewardsDuration;\n    uint256 public override minimumStakeTime;\n    uint256 public lastUpdateTime;\n    uint256 public rewardPerTokenStored;\n\n    mapping(address => uint256) public userRewardPerTokenPaid;\n    mapping(address => uint256) public rewards;\n\n    uint256 internal _totalSupply;\n    mapping(address => uint256) internal _balances;\n    mapping(address => uint256) internal _stakeTimestamp;\n\n    // used only by the SKILL-for-SKILL staking contract\n    CryptoBlades internal __game;\n\n    uint256 public override minimumStakeAmount;\n\n    /* ========== CONSTRUCTOR ========== */\n\n    function initialize(\n        address _owner,\n        address _rewardsDistribution,\n        address _rewardsToken,\n        address _stakingToken,\n        uint256 _minimumStakeTime\n    ) public virtual initializer {\n        __Context_init();\n        __Ownable_init_unchained();\n        __Pausable_init_unchained();\n        __Failsafe_init_unchained();\n        __ReentrancyGuard_init_unchained();\n        __RewardsDistributionRecipient_init_unchained();\n\n        // for consistency with the old contract\n        transferOwnership(_owner);\n\n        rewardsToken = IERC20(_rewardsToken);\n        stakingToken = IERC20(_stakingToken);\n        rewardsDistribution = _rewardsDistribution;\n        minimumStakeTime = _minimumStakeTime;\n\n        periodFinish = 0;\n        rewardRate = 0;\n        rewardsDuration = 180 days;\n    }\n\n    function migrateTo_8cb6e70(uint256 _minimumStakeAmount) external onlyOwner {\n        minimumStakeAmount = _minimumStakeAmount;\n    }\n\n    /* ========== VIEWS ========== */\n\n    function totalSupply() external view override returns (uint256) {\n        return _totalSupply;\n    }\n\n    function balanceOf(address account)\n        external\n        view\n        override\n        returns (uint256)\n    {\n        return _balances[account];\n    }\n\n    function lastTimeRewardApplicable() public view override returns (uint256) {\n        return Math.min(block.timestamp, periodFinish);\n    }\n\n    function rewardPerToken() public view override returns (uint256) {\n        if (_totalSupply == 0) {\n            return rewardPerTokenStored;\n        }\n        return\n            rewardPerTokenStored.add(\n                lastTimeRewardApplicable()\n                    .sub(lastUpdateTime)\n                    .mul(rewardRate)\n                    .mul(1e18)\n                    .div(_totalSupply)\n            );\n    }\n\n    function earned(address account) public view override returns (uint256) {\n        return\n            _balances[account]\n                .mul(rewardPerToken().sub(userRewardPerTokenPaid[account]))\n                .div(1e18)\n                .add(rewards[account]);\n    }\n\n    function getRewardForDuration() external view override returns (uint256) {\n        return rewardRate.mul(rewardsDuration);\n    }\n\n    function getStakeRewardDistributionTimeLeft()\n        external\n        override\n        view\n        returns (uint256)\n    {\n        (bool success, uint256 diff) = periodFinish.trySub(block.timestamp);\n        return success ? diff : 0;\n    }\n\n    function getStakeUnlockTimeLeft() external override view returns (uint256) {\n        if(periodFinish <= block.timestamp) return 0;\n        (bool success, uint256 diff) =\n            _stakeTimestamp[msg.sender].add(minimumStakeTime).trySub(\n                block.timestamp\n            );\n        return success ? diff : 0;\n    }\n\n    /* ========== MUTATIVE FUNCTIONS ========== */\n\n    function stake(uint256 amount)\n        external\n        virtual\n        override\n        normalMode\n        nonReentrant\n        whenNotPaused\n        updateReward(msg.sender)\n    {\n        _stake(msg.sender, amount);\n        stakingToken.safeTransferFrom(msg.sender, address(this), amount);\n    }\n\n    function withdraw(uint256 amount)\n        public\n        virtual\n        override\n        normalMode\n        nonReentrant\n        updateReward(msg.sender)\n    {\n        require(\n            minimumStakeTime == 0 ||\n                block.timestamp.sub(_stakeTimestamp[msg.sender]) >=\n                minimumStakeTime ||\n                periodFinish <= block.timestamp,\n            \"Cannot withdraw until minimum staking time has passed\"\n        );\n        _unstake(msg.sender, amount);\n        stakingToken.safeTransfer(msg.sender, amount);\n    }\n\n    function getReward()\n        public\n        virtual\n        override\n        normalMode\n        nonReentrant\n        updateReward(msg.sender)\n    {\n        require(\n            minimumStakeTime == 0 ||\n                block.timestamp.sub(_stakeTimestamp[msg.sender]) >=\n                minimumStakeTime ||\n                periodFinish <= block.timestamp,\n            \"Cannot get reward until minimum staking time has passed\"\n        );\n        uint256 reward = rewards[msg.sender];\n        if (reward > 0) {\n            rewards[msg.sender] = 0;\n            rewardsToken.safeTransfer(msg.sender, reward);\n            emit RewardPaid(msg.sender, reward);\n        }\n    }\n\n    function exit() external virtual override normalMode {\n        withdraw(_balances[msg.sender]);\n        getReward();\n    }\n\n    function recoverOwnStake() external virtual failsafeMode {\n        uint256 amount = _balances[msg.sender];\n        if (amount > 0) {\n            _totalSupply = _totalSupply.sub(amount);\n            _balances[msg.sender] = _balances[msg.sender].sub(amount);\n            stakingToken.safeTransfer(msg.sender, amount);\n        }\n    }\n\n    /* ========== RESTRICTED FUNCTIONS ========== */\n\n    function notifyRewardAmount(uint256 reward)\n        external\n        override\n        normalMode\n        onlyRewardsDistribution\n        updateReward(address(0))\n    {\n        if (block.timestamp >= periodFinish) {\n            rewardRate = reward.div(rewardsDuration);\n        } else {\n            uint256 remaining = periodFinish.sub(block.timestamp);\n            uint256 leftover = remaining.mul(rewardRate);\n            rewardRate = reward.add(leftover).div(rewardsDuration);\n        }\n\n        // Ensure the provided reward amount is not more than the balance in the contract.\n        // This keeps the reward rate in the right range, preventing overflows due to\n        // very high values of rewardRate in the earned and rewardsPerToken functions;\n        // Reward + leftover must be less than 2^256 / 10^18 to avoid overflow.\n        uint256 balance = rewardsToken.balanceOf(address(this));\n        require(\n            rewardRate <= balance.div(rewardsDuration),\n            \"Provided reward too high\"\n        );\n\n        lastUpdateTime = block.timestamp;\n        periodFinish = block.timestamp.add(rewardsDuration);\n        emit RewardAdded(reward);\n    }\n\n    // End rewards emission earlier\n    function updatePeriodFinish(uint256 timestamp)\n        external\n        normalMode\n        onlyOwner\n        updateReward(address(0))\n    {\n        require(\n            timestamp > lastUpdateTime,\n            \"Timestamp must be after lastUpdateTime\"\n        );\n        periodFinish = timestamp;\n    }\n\n    // Added to support recovering LP Rewards from other systems such as BAL to be distributed to holders\n    function recoverERC20(address tokenAddress, uint256 tokenAmount)\n        external\n        virtual\n        onlyOwner\n    {\n        require(\n            tokenAddress != address(stakingToken),\n            \"Cannot withdraw the staking token\"\n        );\n        IERC20(tokenAddress).safeTransfer(owner(), tokenAmount);\n        emit Recovered(tokenAddress, tokenAmount);\n    }\n\n    function setRewardsDuration(uint256 _rewardsDuration)\n        external\n        normalMode\n        onlyOwner\n    {\n        require(\n            block.timestamp > periodFinish,\n            \"Previous rewards period must be complete before changing the duration for the new period\"\n        );\n        rewardsDuration = _rewardsDuration;\n        emit RewardsDurationUpdated(rewardsDuration);\n    }\n\n    function setMinimumStakeTime(uint256 _minimumStakeTime)\n        external\n        normalMode\n        onlyOwner\n    {\n        minimumStakeTime = _minimumStakeTime;\n        emit MinimumStakeTimeUpdated(_minimumStakeTime);\n    }\n\n    function setMinimumStakeAmount(uint256 _minimumStakeAmount)\n        external\n        normalMode\n        onlyOwner\n    {\n        minimumStakeAmount = _minimumStakeAmount;\n        emit MinimumStakeAmountUpdated(_minimumStakeAmount);\n    }\n\n    function enableFailsafeMode() public override normalMode onlyOwner {\n        minimumStakeAmount = 0;\n        minimumStakeTime = 0;\n        periodFinish = 0;\n        rewardRate = 0;\n        rewardPerTokenStored = 0;\n\n        super.enableFailsafeMode();\n    }\n\n    function recoverExtraStakingTokensToOwner() external onlyOwner {\n        // stake() and withdraw() should guarantee that\n        // _totalSupply <= stakingToken.balanceOf(this)\n        uint256 stakingTokenAmountBelongingToOwner =\n            stakingToken.balanceOf(address(this)).sub(_totalSupply);\n\n        if (stakingTokenAmountBelongingToOwner > 0) {\n            stakingToken.safeTransfer(\n                owner(),\n                stakingTokenAmountBelongingToOwner\n            );\n        }\n    }\n\n    function pause() external onlyOwner whenNotPaused {\n        _pause();\n    }\n\n    function unpause() external onlyOwner whenPaused {\n        _unpause();\n    }\n\n    /* ========== INTERNAL FUNCTIONS ========== */\n\n    function _stake(address staker, uint256 amount) internal\n    {\n        require(amount >= minimumStakeAmount, \"Minimum stake amount required\");\n        _totalSupply = _totalSupply.add(amount);\n        _balances[staker] = _balances[staker].add(amount);\n        _stakeTimestamp[staker] = block.timestamp; // reset timer on adding to stake\n\n        emit Staked(staker, amount);\n    }\n\n    function _unstake(address staker, uint256 amount) internal\n    {\n        require(amount > 0, \"Cannot withdraw 0\");\n        _totalSupply = _totalSupply.sub(amount);\n        _balances[staker] = _balances[staker].sub(amount);\n        if (_balances[staker] == 0) {\n            _stakeTimestamp[staker] = 0;\n        } else {\n            _stakeTimestamp[staker] = block.timestamp;\n        }\n        emit Withdrawn(staker, amount);\n    }\n\n    /* ========== MODIFIERS ========== */\n\n    modifier updateReward(address account) {\n        if (!failsafeModeActive) {\n            rewardPerTokenStored = rewardPerToken();\n            lastUpdateTime = lastTimeRewardApplicable();\n            if (account != address(0)) {\n                rewards[account] = earned(account);\n                userRewardPerTokenPaid[account] = rewardPerTokenStored;\n            }\n        }\n        _;\n    }\n\n    /* ========== EVENTS ========== */\n\n    event RewardAdded(uint256 reward);\n    event Staked(address indexed user, uint256 amount);\n    event Withdrawn(address indexed user, uint256 amount);\n    event RewardPaid(address indexed user, uint256 reward);\n    event RewardsDurationUpdated(uint256 newDuration);\n    event MinimumStakeTimeUpdated(uint256 newMinimumStakeTime);\n    event MinimumStakeAmountUpdated(uint256 newMinimumStakeAmount);\n    event Recovered(address token, uint256 amount);\n}\n",
  "sourcePath": "/mnt/e/work/cryptoblades/contracts/staking/StakingRewardsUpgradeable.sol",
  "compiler": {
    "name": "solc",
    "version": "0.6.5+commit.f956cc89.Emscripten.clang"
  },
  "schemaVersion": "3.3.4",
  "updatedAt": "2023-01-24T17:45:32.292Z",
  "devdoc": {
    "methods": {
      "owner()": {
        "details": "Returns the address of the current owner."
      },
      "paused()": {
        "details": "Returns true if the contract is paused, and false otherwise."
      },
      "renounceOwnership()": {
        "details": "Leaves the contract without owner. It will not be possible to call `onlyOwner` functions anymore. Can only be called by the current owner.     * NOTE: Renouncing ownership will leave the contract without an owner, thereby removing any functionality that is only available to the owner."
      },
      "transferOwnership(address)": {
        "details": "Transfers ownership of the contract to a new account (`newOwner`). Can only be called by the current owner."
      }
    }
  },
  "userdoc": {
    "methods": {}
  }
}