{
  "contractName": "TokensManager",
  "abi": [
    {
      "anonymous": false,
      "inputs": [
        {
          "indexed": true,
          "internalType": "bytes32",
          "name": "role",
          "type": "bytes32"
        },
        {
          "indexed": true,
          "internalType": "bytes32",
          "name": "previousAdminRole",
          "type": "bytes32"
        },
        {
          "indexed": true,
          "internalType": "bytes32",
          "name": "newAdminRole",
          "type": "bytes32"
        }
      ],
      "name": "RoleAdminChanged",
      "type": "event"
    },
    {
      "anonymous": false,
      "inputs": [
        {
          "indexed": true,
          "internalType": "bytes32",
          "name": "role",
          "type": "bytes32"
        },
        {
          "indexed": true,
          "internalType": "address",
          "name": "account",
          "type": "address"
        },
        {
          "indexed": true,
          "internalType": "address",
          "name": "sender",
          "type": "address"
        }
      ],
      "name": "RoleGranted",
      "type": "event"
    },
    {
      "anonymous": false,
      "inputs": [
        {
          "indexed": true,
          "internalType": "bytes32",
          "name": "role",
          "type": "bytes32"
        },
        {
          "indexed": true,
          "internalType": "address",
          "name": "account",
          "type": "address"
        },
        {
          "indexed": true,
          "internalType": "address",
          "name": "sender",
          "type": "address"
        }
      ],
      "name": "RoleRevoked",
      "type": "event"
    },
    {
      "inputs": [],
      "name": "DEFAULT_ADMIN_ROLE",
      "outputs": [
        {
          "internalType": "bytes32",
          "name": "",
          "type": "bytes32"
        }
      ],
      "stateMutability": "view",
      "type": "function"
    },
    {
      "inputs": [],
      "name": "GAME_ADMIN",
      "outputs": [
        {
          "internalType": "bytes32",
          "name": "",
          "type": "bytes32"
        }
      ],
      "stateMutability": "view",
      "type": "function"
    },
    {
      "inputs": [],
      "name": "combatTokenChargePercent",
      "outputs": [
        {
          "internalType": "uint256",
          "name": "",
          "type": "uint256"
        }
      ],
      "stateMutability": "view",
      "type": "function"
    },
    {
      "inputs": [],
      "name": "game",
      "outputs": [
        {
          "internalType": "contract CryptoBlades",
          "name": "",
          "type": "address"
        }
      ],
      "stateMutability": "view",
      "type": "function"
    },
    {
      "inputs": [
        {
          "internalType": "bytes32",
          "name": "role",
          "type": "bytes32"
        }
      ],
      "name": "getRoleAdmin",
      "outputs": [
        {
          "internalType": "bytes32",
          "name": "",
          "type": "bytes32"
        }
      ],
      "stateMutability": "view",
      "type": "function"
    },
    {
      "inputs": [
        {
          "internalType": "bytes32",
          "name": "role",
          "type": "bytes32"
        },
        {
          "internalType": "uint256",
          "name": "index",
          "type": "uint256"
        }
      ],
      "name": "getRoleMember",
      "outputs": [
        {
          "internalType": "address",
          "name": "",
          "type": "address"
        }
      ],
      "stateMutability": "view",
      "type": "function"
    },
    {
      "inputs": [
        {
          "internalType": "bytes32",
          "name": "role",
          "type": "bytes32"
        }
      ],
      "name": "getRoleMemberCount",
      "outputs": [
        {
          "internalType": "uint256",
          "name": "",
          "type": "uint256"
        }
      ],
      "stateMutability": "view",
      "type": "function"
    },
    {
      "inputs": [
        {
          "internalType": "bytes32",
          "name": "role",
          "type": "bytes32"
        },
        {
          "internalType": "address",
          "name": "account",
          "type": "address"
        }
      ],
      "name": "grantRole",
      "outputs": [],
      "stateMutability": "nonpayable",
      "type": "function"
    },
    {
      "inputs": [
        {
          "internalType": "bytes32",
          "name": "role",
          "type": "bytes32"
        },
        {
          "internalType": "address",
          "name": "account",
          "type": "address"
        }
      ],
      "name": "hasRole",
      "outputs": [
        {
          "internalType": "bool",
          "name": "",
          "type": "bool"
        }
      ],
      "stateMutability": "view",
      "type": "function"
    },
    {
      "inputs": [],
      "name": "offsetSlippage",
      "outputs": [
        {
          "internalType": "uint8",
          "name": "",
          "type": "uint8"
        }
      ],
      "stateMutability": "view",
      "type": "function"
    },
    {
      "inputs": [
        {
          "internalType": "bytes32",
          "name": "role",
          "type": "bytes32"
        },
        {
          "internalType": "address",
          "name": "account",
          "type": "address"
        }
      ],
      "name": "renounceRole",
      "outputs": [],
      "stateMutability": "nonpayable",
      "type": "function"
    },
    {
      "inputs": [
        {
          "internalType": "bytes32",
          "name": "role",
          "type": "bytes32"
        },
        {
          "internalType": "address",
          "name": "account",
          "type": "address"
        }
      ],
      "name": "revokeRole",
      "outputs": [],
      "stateMutability": "nonpayable",
      "type": "function"
    },
    {
      "inputs": [],
      "name": "skillTokenPrice",
      "outputs": [
        {
          "internalType": "uint256",
          "name": "",
          "type": "uint256"
        }
      ],
      "stateMutability": "view",
      "type": "function"
    },
    {
      "inputs": [],
      "name": "tokenPrice",
      "outputs": [
        {
          "internalType": "uint256",
          "name": "",
          "type": "uint256"
        }
      ],
      "stateMutability": "view",
      "type": "function"
    },
    {
      "stateMutability": "payable",
      "type": "receive"
    },
    {
      "inputs": [
        {
          "internalType": "address",
          "name": "gameContract",
          "type": "address"
        }
      ],
      "name": "initialize",
      "outputs": [],
      "stateMutability": "nonpayable",
      "type": "function"
    },
    {
      "inputs": [
        {
          "internalType": "uint256",
          "name": "char",
          "type": "uint256"
        },
        {
          "internalType": "uint32",
          "name": "target",
          "type": "uint32"
        },
        {
          "internalType": "uint8",
          "name": "fightMultiplier",
          "type": "uint8"
        }
      ],
      "name": "fight",
      "outputs": [],
      "stateMutability": "payable",
      "type": "function"
    },
    {
      "inputs": [
        {
          "internalType": "address",
          "name": "addressToTransferTo",
          "type": "address"
        },
        {
          "internalType": "uint256",
          "name": "amount",
          "type": "uint256"
        }
      ],
      "name": "retrieve",
      "outputs": [],
      "stateMutability": "nonpayable",
      "type": "function"
    },
    {
      "inputs": [],
      "name": "getSkillToNativeRatio",
      "outputs": [
        {
          "internalType": "int128",
          "name": "",
          "type": "int128"
        }
      ],
      "stateMutability": "view",
      "type": "function"
    },
    {
      "inputs": [
        {
          "internalType": "uint256",
          "name": "price",
          "type": "uint256"
        }
      ],
      "name": "setTokenPrice",
      "outputs": [],
      "stateMutability": "nonpayable",
      "type": "function"
    },
    {
      "inputs": [
        {
          "internalType": "uint256",
          "name": "price",
          "type": "uint256"
        }
      ],
      "name": "setSkillTokenPrice",
      "outputs": [],
      "stateMutability": "nonpayable",
      "type": "function"
    },
    {
      "inputs": [
        {
          "internalType": "uint256",
          "name": "percent",
          "type": "uint256"
        }
      ],
      "name": "setCombatTokenChargePercent",
      "outputs": [],
      "stateMutability": "nonpayable",
      "type": "function"
    },
    {
      "inputs": [
        {
          "internalType": "uint8",
          "name": "slippage",
          "type": "uint8"
        }
      ],
      "name": "setOffsetSlippage",
      "outputs": [],
      "stateMutability": "nonpayable",
      "type": "function"
    }
  ],
  "bytecode": "0x608060405234801561001057600080fd5b506111c6806100206000396000f3fe6080604052600436106101395760003560e01c80639010d07c116100ab578063c3fe3e281161006f578063c3fe3e2814610413578063c4d66de814610428578063ca15c8731461045b578063d1b44f6e14610485578063d547741f146104b3578063ef4d235a146104ec57610148565b80639010d07c1461031757806391d1485414610363578063a217fddf146103b0578063ad43c293146103c5578063c3a2a665146103da57610148565b806336568abe116100fd57806336568abe1461022e5780635504d3d21461026757806363617b8b1461027c5780636a61e5fc146102a65780637ff9b596146102d0578063824b9ce9146102e557610148565b80630283d9a81461014d5780630c37ccfb146101745780631e44da9b146101a1578063248a9ca3146101cb5780632f2ff15d146101f557610148565b3661014857610146610517565b005b600080fd5b34801561015957600080fd5b5061016261054b565b60408051918252519081900360200190f35b34801561018057600080fd5b506101466004803603602081101561019757600080fd5b503560ff16610551565b3480156101ad57600080fd5b50610146600480360360208110156101c457600080fd5b503561056f565b3480156101d757600080fd5b50610162600480360360208110156101ee57600080fd5b503561057c565b34801561020157600080fd5b506101466004803603604081101561021857600080fd5b50803590602001356001600160a01b0316610591565b34801561023a57600080fd5b506101466004803603604081101561025157600080fd5b50803590602001356001600160a01b03166105fd565b34801561027357600080fd5b5061016261065e565b34801561028857600080fd5b506101466004803603602081101561029f57600080fd5b5035610680565b3480156102b257600080fd5b50610146600480360360208110156102c957600080fd5b503561068d565b3480156102dc57600080fd5b5061016261069a565b610146600480360360608110156102fb57600080fd5b50803590602081013563ffffffff16906040013560ff166106a0565b34801561032357600080fd5b506103476004803603604081101561033a57600080fd5b508035906020013561084a565b604080516001600160a01b039092168252519081900360200190f35b34801561036f57600080fd5b5061039c6004803603604081101561038657600080fd5b50803590602001356001600160a01b0316610871565b604080519115158252519081900360200190f35b3480156103bc57600080fd5b5061016261088f565b3480156103d157600080fd5b50610162610894565b3480156103e657600080fd5b50610146600480360360408110156103fd57600080fd5b506001600160a01b03813516906020013561089a565b34801561041f57600080fd5b506103476108dd565b34801561043457600080fd5b506101466004803603602081101561044b57600080fd5b50356001600160a01b03166108ec565b34801561046757600080fd5b506101626004803603602081101561047e57600080fd5b50356109d0565b34801561049157600080fd5b5061049a6109e7565b60408051600f92830b90920b8252519081900360200190f35b3480156104bf57600080fd5b50610146600480360360408110156104d657600080fd5b50803590602001356001600160a01b03166109fc565b3480156104f857600080fd5b50610501610a55565b6040805160ff9092168252519081900360200190f35b604080516923a0a6a2afa0a226a4a760b11b8152905190819003600a0190206105409033610871565b61054957600080fd5b565b60685481565b610559610517565b6069805460ff191660ff92909216919091179055565b610577610517565b606855565b60009081526033602052604090206002015490565b6000828152603360205260409020600201546105b4906105af610a5e565b610871565b6105ef5760405162461bcd60e51b815260040180806020018281038252602f8152602001806110b4602f913960400191505060405180910390fd5b6105f98282610a62565b5050565b610605610a5e565b6001600160a01b0316816001600160a01b0316146106545760405162461bcd60e51b815260040180806020018281038252602f815260200180611162602f913960400191505060405180910390fd5b6105f98282610ad1565b604080516923a0a6a2afa0a226a4a760b11b8152905190819003600a01902081565b610688610517565b606655565b610695610517565b606755565b60675481565b6065546040805163584b57cd60e11b81523360048201526024810186905263ffffffff8516604482015260ff84166064820152815160009384936001600160a01b039091169263b096af9a926084808301939282900301818787803b15801561070857600080fd5b505af115801561071c573d6000803e3d6000fd5b505050506040513d604081101561073257600080fd5b5080516020909101519092509050600061077861074d6109e7565b610773606461076760665487610b4090919063ffffffff16565b9063ffffffff610b9916565b610c00565b60695490915061079e9060649061076790849060ff90811684031663ffffffff610b4016565b34101580156107cf57506069546107cb9060649061076790849060ff90811684011663ffffffff610b4016565b3411155b61080f576040805162461bcd60e51b815260206004820152600c60248201526b27b33339b2ba1032b93937b960a11b604482015290519081900360640190fd5b826108425760405133903480156108fc02916000818181858888f19350505050158015610840573d6000803e3d6000fd5b505b505050505050565b6000828152603360205260408120610868908363ffffffff610c6816565b90505b92915050565b6000828152603360205260408120610868908363ffffffff610c7416565b600081565b60665481565b6108a2610517565b6040516001600160a01b0383169082156108fc029083906000818181858888f193505050501580156108d8573d6000803e3d6000fd5b505050565b6065546001600160a01b031681565b600054610100900460ff16806109055750610905610c89565b80610913575060005460ff16155b61094e5760405162461bcd60e51b815260040180806020018281038252602e815260200180611113602e913960400191505060405180910390fd5b600054610100900460ff16158015610979576000805460ff1961ff0019909116610100171660011790555b610981610c9a565b61098c6000336105ef565b606580546001600160a01b0384166001600160a01b031990911617905560196066556069805460ff1916600517905580156105f9576000805461ff00191690555050565b600081815260336020526040812061086b90610d3c565b60006109f7606854606754610d47565b905090565b600082815260336020526040902060020154610a1a906105af610a5e565b6106545760405162461bcd60e51b81526004018080602001828103825260308152602001806110e36030913960400191505060405180910390fd5b60695460ff1681565b3390565b6000828152603360205260409020610a80908263ffffffff610d8716565b156105f957610a8d610a5e565b6001600160a01b0316816001600160a01b0316837f2f8788117e7eff1d82e926ec794901d17c78024a50270940304540a733656f0d60405160405180910390a45050565b6000828152603360205260409020610aef908263ffffffff610d9c16565b156105f957610afc610a5e565b6001600160a01b0316816001600160a01b0316837ff6391f5c32d9c69d2a47ea670b442974b53935d1edc7fd64eb21e047a839171b60405160405180910390a45050565b600082610b4f5750600061086b565b82820282848281610b5c57fe5b04146108685760405162461bcd60e51b81526004018080602001828103825260218152602001806111416021913960400191505060405180910390fd5b6000808211610bef576040805162461bcd60e51b815260206004820152601a60248201527f536166654d6174683a206469766973696f6e206279207a65726f000000000000604482015290519081900360640190fd5b818381610bf857fe5b049392505050565b600081610c0f5750600061086b565b600083600f0b1215610c2057600080fd5b600f83900b6001600160801b038316810260401c90608084901c026001600160c01b03811115610c4f57600080fd5b60401b8119811115610c6057600080fd5b019392505050565b60006108688383610db1565b6000610868836001600160a01b038416610e15565b6000610c9430610e2d565b15905090565b600054610100900460ff1680610cb35750610cb3610c89565b80610cc1575060005460ff16155b610cfc5760405162461bcd60e51b815260040180806020018281038252602e815260200180611113602e913960400191505060405180910390fd5b600054610100900460ff16158015610d27576000805460ff1961ff0019909116610100171660011790555b8015610d39576000805461ff00191690555b50565b600061086b82610e33565b600081610d5357600080fd5b6000610d5f8484610e37565b90506f7fffffffffffffffffffffffffffffff6001600160801b038216111561086857600080fd5b6000610868836001600160a01b038416610f81565b6000610868836001600160a01b038416610fcb565b81546000908210610df35760405162461bcd60e51b81526004018080602001828103825260228152602001806110926022913960400191505060405180910390fd5b826000018281548110610e0257fe5b9060005260206000200154905092915050565b60009081526001919091016020526040902054151590565b3b151590565b5490565b600081610e4357600080fd5b60006001600160c01b038411610e685782604085901b81610e6057fe5b049050610f6d565b60c084811c6401000000008110610e81576020918201911c5b620100008110610e93576010918201911c5b6101008110610ea4576008918201911c5b60108110610eb4576004918201911c5b60048110610ec4576002918201911c5b60028110610ed3576001820191505b60bf820360018603901c6001018260ff0387901b81610eee57fe5b0492506001600160801b03831115610f0557600080fd5b608085901c83026001600160801b038616840260c088901c604089901b82811015610f31576001820391505b608084901b92900382811015610f48576001820391505b829003608084901c8214610f5857fe5b888181610f6157fe5b04870196505050505050505b6001600160801b0381111561086857600080fd5b6000610f8d8383610e15565b610fc35750815460018181018455600084815260208082209093018490558454848252828601909352604090209190915561086b565b50600061086b565b600081815260018301602052604081205480156110875783546000198083019190810190600090879083908110610ffe57fe5b906000526020600020015490508087600001848154811061101b57fe5b60009182526020808320909101929092558281526001898101909252604090209084019055865487908061104b57fe5b6001900381819060005260206000200160009055905586600101600087815260200190815260200160002060009055600194505050505061086b565b600091505061086b56fe456e756d657261626c655365743a20696e646578206f7574206f6620626f756e6473416363657373436f6e74726f6c3a2073656e646572206d75737420626520616e2061646d696e20746f206772616e74416363657373436f6e74726f6c3a2073656e646572206d75737420626520616e2061646d696e20746f207265766f6b65496e697469616c697a61626c653a20636f6e747261637420697320616c726561647920696e697469616c697a6564536166654d6174683a206d756c7469706c69636174696f6e206f766572666c6f77416363657373436f6e74726f6c3a2063616e206f6e6c792072656e6f756e636520726f6c657320666f722073656c66a264697066735822122055afc2cfffdd51733377a1c2eec769a75df794c5d01adf91ae48a9469e522cda64736f6c63430006050033",
  "immutableReferences": {},
  "source": "pragma solidity ^0.6.0;\nimport \"@openzeppelin/contracts-upgradeable/proxy/Initializable.sol\";\nimport \"@openzeppelin/contracts-upgradeable/access/AccessControlUpgradeable.sol\";\nimport \"@openzeppelin/contracts/math/SafeMath.sol\";\nimport \"abdk-libraries-solidity/ABDKMath64x64.sol\";\nimport \"./cryptoblades.sol\";\n\ncontract TokensManager is Initializable, AccessControlUpgradeable {\n    using SafeMath for uint256;\n    using ABDKMath64x64 for int128;\n\n    bytes32 public constant GAME_ADMIN = keccak256(\"GAME_ADMIN\");\n\n    CryptoBlades public game;\n\n    uint256 public combatTokenChargePercent;\n    // Note: All prices are multiplied by 100\n    uint256 public tokenPrice;\n    uint256 public skillTokenPrice;\n    uint8 public offsetSlippage;\n\n    modifier restricted() {\n        _restricted();\n        _;\n    }\n\n    function _restricted() internal view {\n        require(hasRole(GAME_ADMIN, msg.sender));\n    }\n\n    function initialize(\n        address gameContract\n    ) public initializer {\n        __AccessControl_init_unchained();\n        _setupRole(DEFAULT_ADMIN_ROLE, msg.sender);\n\n        game = CryptoBlades(gameContract);\n        combatTokenChargePercent = 25;\n        offsetSlippage = 5;\n    }\n\n    receive() external payable restricted {\n    }\n\n    function fight(uint256 char, uint32 target, uint8 fightMultiplier) external payable {\n        (uint256 tokens, uint256 expectedTokens) = game.fight(msg.sender, char, target, fightMultiplier);\n\n        uint256 offset = ABDKMath64x64.mulu(getSkillToNativeRatio(), expectedTokens.mul(combatTokenChargePercent).div(100));\n\n        require(\n            msg.value >= offset.mul(100 - offsetSlippage).div(100) && msg.value <= offset.mul(100 + offsetSlippage).div(100),\n            'Offset error'\n            );\n\n        if (tokens == 0) {\n            payable(msg.sender).transfer(msg.value);\n        }\n    }\n\n    function retrieve(address addressToTransferTo, uint256 amount) external restricted {\n        payable(addressToTransferTo).transfer(amount);\n    }\n\n    function getSkillToNativeRatio() public view returns (int128) {\n        return ABDKMath64x64.divu(skillTokenPrice, tokenPrice);\n    }\n\n    function setTokenPrice(uint256 price) external restricted {\n        tokenPrice = price;\n    }\n\n    function setSkillTokenPrice(uint256 price) external restricted {\n        skillTokenPrice = price;\n    }\n\n    function setCombatTokenChargePercent(uint256 percent) external restricted {\n        combatTokenChargePercent = percent;\n    }\n\n    function setOffsetSlippage(uint8 slippage) external restricted {\n        offsetSlippage = slippage;\n    }\n}",
  "sourcePath": "/mnt/e/work/cryptoblades/contracts/TokensManager.sol",
  "compiler": {
    "name": "solc",
    "version": "0.6.5+commit.f956cc89.Emscripten.clang"
  },
  "schemaVersion": "3.3.4",
  "updatedAt": "2023-01-24T17:45:31.837Z",
  "devdoc": {
    "methods": {
      "getRoleAdmin(bytes32)": {
        "details": "Returns the admin role that controls `role`. See {grantRole} and {revokeRole}.     * To change a role's admin, use {_setRoleAdmin}."
      },
      "getRoleMember(bytes32,uint256)": {
        "details": "Returns one of the accounts that have `role`. `index` must be a value between 0 and {getRoleMemberCount}, non-inclusive.     * Role bearers are not sorted in any particular way, and their ordering may change at any point.     * WARNING: When using {getRoleMember} and {getRoleMemberCount}, make sure you perform all queries on the same block. See the following https://forum.openzeppelin.com/t/iterating-over-elements-on-enumerableset-in-openzeppelin-contracts/2296[forum post] for more information."
      },
      "getRoleMemberCount(bytes32)": {
        "details": "Returns the number of accounts that have `role`. Can be used together with {getRoleMember} to enumerate all bearers of a role."
      },
      "grantRole(bytes32,address)": {
        "details": "Grants `role` to `account`.     * If `account` had not been already granted `role`, emits a {RoleGranted} event.     * Requirements:     * - the caller must have ``role``'s admin role."
      },
      "hasRole(bytes32,address)": {
        "details": "Returns `true` if `account` has been granted `role`."
      },
      "renounceRole(bytes32,address)": {
        "details": "Revokes `role` from the calling account.     * Roles are often managed via {grantRole} and {revokeRole}: this function's purpose is to provide a mechanism for accounts to lose their privileges if they are compromised (such as when a trusted device is misplaced).     * If the calling account had been granted `role`, emits a {RoleRevoked} event.     * Requirements:     * - the caller must be `account`."
      },
      "revokeRole(bytes32,address)": {
        "details": "Revokes `role` from `account`.     * If `account` had been granted `role`, emits a {RoleRevoked} event.     * Requirements:     * - the caller must have ``role``'s admin role."
      }
    }
  },
  "userdoc": {
    "methods": {}
  }
}