{
  "contractName": "Treasury",
  "abi": [
    {
      "anonymous": false,
      "inputs": [
        {
          "indexed": true,
          "internalType": "bytes32",
          "name": "role",
          "type": "bytes32"
        },
        {
          "indexed": true,
          "internalType": "bytes32",
          "name": "previousAdminRole",
          "type": "bytes32"
        },
        {
          "indexed": true,
          "internalType": "bytes32",
          "name": "newAdminRole",
          "type": "bytes32"
        }
      ],
      "name": "RoleAdminChanged",
      "type": "event"
    },
    {
      "anonymous": false,
      "inputs": [
        {
          "indexed": true,
          "internalType": "bytes32",
          "name": "role",
          "type": "bytes32"
        },
        {
          "indexed": true,
          "internalType": "address",
          "name": "account",
          "type": "address"
        },
        {
          "indexed": true,
          "internalType": "address",
          "name": "sender",
          "type": "address"
        }
      ],
      "name": "RoleGranted",
      "type": "event"
    },
    {
      "anonymous": false,
      "inputs": [
        {
          "indexed": true,
          "internalType": "bytes32",
          "name": "role",
          "type": "bytes32"
        },
        {
          "indexed": true,
          "internalType": "address",
          "name": "account",
          "type": "address"
        },
        {
          "indexed": true,
          "internalType": "address",
          "name": "sender",
          "type": "address"
        }
      ],
      "name": "RoleRevoked",
      "type": "event"
    },
    {
      "anonymous": false,
      "inputs": [
        {
          "indexed": true,
          "internalType": "address",
          "name": "sender",
          "type": "address"
        },
        {
          "indexed": true,
          "internalType": "uint256",
          "name": "partnerId",
          "type": "uint256"
        },
        {
          "indexed": false,
          "internalType": "uint256",
          "name": "claimedAmount",
          "type": "uint256"
        },
        {
          "indexed": false,
          "internalType": "uint256",
          "name": "currentMultiplier",
          "type": "uint256"
        }
      ],
      "name": "TreasuryClaimed",
      "type": "event"
    },
    {
      "inputs": [],
      "name": "DEFAULT_ADMIN_ROLE",
      "outputs": [
        {
          "internalType": "bytes32",
          "name": "",
          "type": "bytes32"
        }
      ],
      "stateMutability": "view",
      "type": "function"
    },
    {
      "inputs": [],
      "name": "GAMEUSERVAR_GEN2_UNCLAIMED",
      "outputs": [
        {
          "internalType": "uint256",
          "name": "",
          "type": "uint256"
        }
      ],
      "stateMutability": "view",
      "type": "function"
    },
    {
      "inputs": [],
      "name": "GAME_ADMIN",
      "outputs": [
        {
          "internalType": "bytes32",
          "name": "",
          "type": "bytes32"
        }
      ],
      "stateMutability": "view",
      "type": "function"
    },
    {
      "inputs": [],
      "name": "defaultSlippage",
      "outputs": [
        {
          "internalType": "uint256",
          "name": "",
          "type": "uint256"
        }
      ],
      "stateMutability": "view",
      "type": "function"
    },
    {
      "inputs": [],
      "name": "game",
      "outputs": [
        {
          "internalType": "contract CryptoBlades",
          "name": "",
          "type": "address"
        }
      ],
      "stateMutability": "view",
      "type": "function"
    },
    {
      "inputs": [
        {
          "internalType": "bytes32",
          "name": "role",
          "type": "bytes32"
        }
      ],
      "name": "getRoleAdmin",
      "outputs": [
        {
          "internalType": "bytes32",
          "name": "",
          "type": "bytes32"
        }
      ],
      "stateMutability": "view",
      "type": "function"
    },
    {
      "inputs": [
        {
          "internalType": "bytes32",
          "name": "role",
          "type": "bytes32"
        },
        {
          "internalType": "uint256",
          "name": "index",
          "type": "uint256"
        }
      ],
      "name": "getRoleMember",
      "outputs": [
        {
          "internalType": "address",
          "name": "",
          "type": "address"
        }
      ],
      "stateMutability": "view",
      "type": "function"
    },
    {
      "inputs": [
        {
          "internalType": "bytes32",
          "name": "role",
          "type": "bytes32"
        }
      ],
      "name": "getRoleMemberCount",
      "outputs": [
        {
          "internalType": "uint256",
          "name": "",
          "type": "uint256"
        }
      ],
      "stateMutability": "view",
      "type": "function"
    },
    {
      "inputs": [
        {
          "internalType": "bytes32",
          "name": "role",
          "type": "bytes32"
        },
        {
          "internalType": "address",
          "name": "account",
          "type": "address"
        }
      ],
      "name": "grantRole",
      "outputs": [],
      "stateMutability": "nonpayable",
      "type": "function"
    },
    {
      "inputs": [
        {
          "internalType": "bytes32",
          "name": "role",
          "type": "bytes32"
        },
        {
          "internalType": "address",
          "name": "account",
          "type": "address"
        }
      ],
      "name": "hasRole",
      "outputs": [
        {
          "internalType": "bool",
          "name": "",
          "type": "bool"
        }
      ],
      "stateMutability": "view",
      "type": "function"
    },
    {
      "inputs": [],
      "name": "multiplierUnit",
      "outputs": [
        {
          "internalType": "uint256",
          "name": "",
          "type": "uint256"
        }
      ],
      "stateMutability": "view",
      "type": "function"
    },
    {
      "inputs": [
        {
          "internalType": "uint256",
          "name": "",
          "type": "uint256"
        }
      ],
      "name": "partneredProjects",
      "outputs": [
        {
          "internalType": "uint256",
          "name": "id",
          "type": "uint256"
        },
        {
          "internalType": "string",
          "name": "name",
          "type": "string"
        },
        {
          "internalType": "string",
          "name": "tokenSymbol",
          "type": "string"
        },
        {
          "internalType": "address",
          "name": "tokenAddress",
          "type": "address"
        },
        {
          "internalType": "uint256",
          "name": "tokenSupply",
          "type": "uint256"
        },
        {
          "internalType": "uint256",
          "name": "tokenPrice",
          "type": "uint256"
        },
        {
          "internalType": "bool",
          "name": "isActive",
          "type": "bool"
        }
      ],
      "stateMutability": "view",
      "type": "function"
    },
    {
      "inputs": [
        {
          "internalType": "uint256",
          "name": "",
          "type": "uint256"
        }
      ],
      "name": "projectDetails",
      "outputs": [
        {
          "internalType": "string",
          "name": "",
          "type": "string"
        }
      ],
      "stateMutability": "view",
      "type": "function"
    },
    {
      "inputs": [
        {
          "internalType": "uint256",
          "name": "",
          "type": "uint256"
        }
      ],
      "name": "projectDistributionTime",
      "outputs": [
        {
          "internalType": "uint256",
          "name": "",
          "type": "uint256"
        }
      ],
      "stateMutability": "view",
      "type": "function"
    },
    {
      "inputs": [
        {
          "internalType": "uint256",
          "name": "",
          "type": "uint256"
        }
      ],
      "name": "projectIsValor",
      "outputs": [
        {
          "internalType": "bool",
          "name": "",
          "type": "bool"
        }
      ],
      "stateMutability": "view",
      "type": "function"
    },
    {
      "inputs": [
        {
          "internalType": "uint256",
          "name": "",
          "type": "uint256"
        }
      ],
      "name": "projectLogo",
      "outputs": [
        {
          "internalType": "string",
          "name": "",
          "type": "string"
        }
      ],
      "stateMutability": "view",
      "type": "function"
    },
    {
      "inputs": [
        {
          "internalType": "uint256",
          "name": "",
          "type": "uint256"
        }
      ],
      "name": "projectNote",
      "outputs": [
        {
          "internalType": "string",
          "name": "",
          "type": "string"
        }
      ],
      "stateMutability": "view",
      "type": "function"
    },
    {
      "inputs": [
        {
          "internalType": "uint256",
          "name": "",
          "type": "uint256"
        }
      ],
      "name": "projectWebsite",
      "outputs": [
        {
          "internalType": "string",
          "name": "",
          "type": "string"
        }
      ],
      "stateMutability": "view",
      "type": "function"
    },
    {
      "inputs": [
        {
          "internalType": "bytes32",
          "name": "role",
          "type": "bytes32"
        },
        {
          "internalType": "address",
          "name": "account",
          "type": "address"
        }
      ],
      "name": "renounceRole",
      "outputs": [],
      "stateMutability": "nonpayable",
      "type": "function"
    },
    {
      "inputs": [
        {
          "internalType": "bytes32",
          "name": "role",
          "type": "bytes32"
        },
        {
          "internalType": "address",
          "name": "account",
          "type": "address"
        }
      ],
      "name": "revokeRole",
      "outputs": [],
      "stateMutability": "nonpayable",
      "type": "function"
    },
    {
      "inputs": [],
      "name": "skillPrice",
      "outputs": [
        {
          "internalType": "uint256",
          "name": "",
          "type": "uint256"
        }
      ],
      "stateMutability": "view",
      "type": "function"
    },
    {
      "inputs": [
        {
          "internalType": "uint256",
          "name": "",
          "type": "uint256"
        }
      ],
      "name": "tokensClaimed",
      "outputs": [
        {
          "internalType": "uint256",
          "name": "",
          "type": "uint256"
        }
      ],
      "stateMutability": "view",
      "type": "function"
    },
    {
      "inputs": [
        {
          "internalType": "contract CryptoBlades",
          "name": "_game",
          "type": "address"
        }
      ],
      "name": "initialize",
      "outputs": [],
      "stateMutability": "nonpayable",
      "type": "function"
    },
    {
      "inputs": [],
      "name": "getAmountOfActiveProjects",
      "outputs": [
        {
          "internalType": "uint256",
          "name": "activeCount",
          "type": "uint256"
        }
      ],
      "stateMutability": "view",
      "type": "function"
    },
    {
      "inputs": [],
      "name": "getActivePartnerProjectsIds",
      "outputs": [
        {
          "internalType": "uint256[]",
          "name": "activeProjectsIds",
          "type": "uint256[]"
        }
      ],
      "stateMutability": "view",
      "type": "function"
    },
    {
      "inputs": [
        {
          "internalType": "uint256",
          "name": "partnerId",
          "type": "uint256"
        }
      ],
      "name": "getProjectMultiplier",
      "outputs": [
        {
          "internalType": "uint256",
          "name": "",
          "type": "uint256"
        }
      ],
      "stateMutability": "view",
      "type": "function"
    },
    {
      "inputs": [
        {
          "internalType": "uint256",
          "name": "partnerId",
          "type": "uint256"
        }
      ],
      "name": "getSkillToPartnerRatio",
      "outputs": [
        {
          "internalType": "int128",
          "name": "",
          "type": "int128"
        }
      ],
      "stateMutability": "view",
      "type": "function"
    },
    {
      "inputs": [
        {
          "internalType": "uint256",
          "name": "partnerId",
          "type": "uint256"
        }
      ],
      "name": "getRemainingPartnerTokenSupply",
      "outputs": [
        {
          "internalType": "uint256",
          "name": "",
          "type": "uint256"
        }
      ],
      "stateMutability": "view",
      "type": "function"
    },
    {
      "inputs": [
        {
          "internalType": "uint256",
          "name": "partnerId",
          "type": "uint256"
        },
        {
          "internalType": "uint256",
          "name": "claimingAmount",
          "type": "uint256"
        }
      ],
      "name": "getAmountInPartnerToken",
      "outputs": [
        {
          "internalType": "uint256",
          "name": "amountWithMultiplier",
          "type": "uint256"
        }
      ],
      "stateMutability": "view",
      "type": "function"
    },
    {
      "inputs": [
        {
          "internalType": "uint256",
          "name": "partnerId",
          "type": "uint256"
        }
      ],
      "name": "getProjectData",
      "outputs": [
        {
          "internalType": "string",
          "name": "",
          "type": "string"
        },
        {
          "internalType": "string",
          "name": "",
          "type": "string"
        },
        {
          "internalType": "string",
          "name": "",
          "type": "string"
        },
        {
          "internalType": "string",
          "name": "",
          "type": "string"
        }
      ],
      "stateMutability": "view",
      "type": "function"
    },
    {
      "inputs": [
        {
          "internalType": "string",
          "name": "name",
          "type": "string"
        },
        {
          "internalType": "string",
          "name": "tokenSymbol",
          "type": "string"
        },
        {
          "internalType": "address",
          "name": "tokenAddress",
          "type": "address"
        },
        {
          "internalType": "uint256",
          "name": "tokenSupply",
          "type": "uint256"
        },
        {
          "internalType": "uint256",
          "name": "tokenPrice",
          "type": "uint256"
        },
        {
          "internalType": "uint256",
          "name": "distributionTime",
          "type": "uint256"
        },
        {
          "internalType": "bool",
          "name": "isActive",
          "type": "bool"
        },
        {
          "internalType": "string",
          "name": "logo",
          "type": "string"
        },
        {
          "internalType": "string",
          "name": "details",
          "type": "string"
        },
        {
          "internalType": "string",
          "name": "website",
          "type": "string"
        },
        {
          "internalType": "string",
          "name": "note",
          "type": "string"
        },
        {
          "internalType": "bool",
          "name": "isValor",
          "type": "bool"
        }
      ],
      "name": "addPartnerProject",
      "outputs": [],
      "stateMutability": "nonpayable",
      "type": "function"
    },
    {
      "inputs": [
        {
          "internalType": "uint256",
          "name": "partnerId",
          "type": "uint256"
        }
      ],
      "name": "claim",
      "outputs": [],
      "stateMutability": "nonpayable",
      "type": "function"
    },
    {
      "inputs": [
        {
          "internalType": "uint256",
          "name": "partnerId",
          "type": "uint256"
        },
        {
          "internalType": "uint256",
          "name": "claimingAmount",
          "type": "uint256"
        },
        {
          "internalType": "uint256",
          "name": "currentMultiplier",
          "type": "uint256"
        },
        {
          "internalType": "uint256",
          "name": "slippage",
          "type": "uint256"
        }
      ],
      "name": "claim",
      "outputs": [],
      "stateMutability": "nonpayable",
      "type": "function"
    },
    {
      "inputs": [
        {
          "internalType": "uint256",
          "name": "unit",
          "type": "uint256"
        }
      ],
      "name": "setMultiplierUnit",
      "outputs": [],
      "stateMutability": "nonpayable",
      "type": "function"
    },
    {
      "inputs": [
        {
          "internalType": "uint256",
          "name": "id",
          "type": "uint256"
        },
        {
          "internalType": "bool",
          "name": "isActive",
          "type": "bool"
        }
      ],
      "name": "setIsActive",
      "outputs": [],
      "stateMutability": "nonpayable",
      "type": "function"
    },
    {
      "inputs": [
        {
          "internalType": "uint256",
          "name": "id",
          "type": "uint256"
        },
        {
          "internalType": "bool",
          "name": "isValor",
          "type": "bool"
        }
      ],
      "name": "setIsValor",
      "outputs": [],
      "stateMutability": "nonpayable",
      "type": "function"
    },
    {
      "inputs": [
        {
          "internalType": "uint256",
          "name": "newPrice",
          "type": "uint256"
        }
      ],
      "name": "setSkillPrice",
      "outputs": [],
      "stateMutability": "nonpayable",
      "type": "function"
    },
    {
      "inputs": [
        {
          "internalType": "uint256",
          "name": "partnerId",
          "type": "uint256"
        },
        {
          "internalType": "uint256",
          "name": "newPrice",
          "type": "uint256"
        }
      ],
      "name": "setPartnerTokenPrice",
      "outputs": [],
      "stateMutability": "nonpayable",
      "type": "function"
    },
    {
      "inputs": [
        {
          "internalType": "uint256",
          "name": "partnerId",
          "type": "uint256"
        },
        {
          "internalType": "uint256",
          "name": "distributionTime",
          "type": "uint256"
        }
      ],
      "name": "setDistributionTime",
      "outputs": [],
      "stateMutability": "nonpayable",
      "type": "function"
    },
    {
      "inputs": [
        {
          "internalType": "uint256",
          "name": "newSlippage",
          "type": "uint256"
        }
      ],
      "name": "setDefaultSlippage",
      "outputs": [],
      "stateMutability": "nonpayable",
      "type": "function"
    },
    {
      "inputs": [
        {
          "internalType": "uint256",
          "name": "partnerId",
          "type": "uint256"
        },
        {
          "internalType": "string",
          "name": "logo",
          "type": "string"
        }
      ],
      "name": "setProjectLogo",
      "outputs": [],
      "stateMutability": "nonpayable",
      "type": "function"
    },
    {
      "inputs": [
        {
          "internalType": "uint256",
          "name": "partnerId",
          "type": "uint256"
        },
        {
          "internalType": "string",
          "name": "details",
          "type": "string"
        }
      ],
      "name": "setProjectDetails",
      "outputs": [],
      "stateMutability": "nonpayable",
      "type": "function"
    },
    {
      "inputs": [
        {
          "internalType": "uint256",
          "name": "partnerId",
          "type": "uint256"
        },
        {
          "internalType": "string",
          "name": "website",
          "type": "string"
        }
      ],
      "name": "setProjectWebsite",
      "outputs": [],
      "stateMutability": "nonpayable",
      "type": "function"
    },
    {
      "inputs": [
        {
          "internalType": "uint256",
          "name": "partnerId",
          "type": "uint256"
        },
        {
          "internalType": "string",
          "name": "note",
          "type": "string"
        }
      ],
      "name": "setProjectNote",
      "outputs": [],
      "stateMutability": "nonpayable",
      "type": "function"
    }
  ],
  "bytecode": "0x608060405234801561001057600080fd5b50613287806100206000396000f3fe608060405234801561001057600080fd5b50600436106102745760003560e01c80638dd91a5611610151578063d5c26c4a116100c3578063e2356f0b11610087578063e2356f0b14610db3578063ea52e8ca14610dd8578063ec753e7b14610de0578063ed25e8cf14610dfd578063f6acc34c14610e72578063f949cdd614610e8f57610274565b8063d5c26c4a14610d31578063d83cedef14610d54578063dcdb525a14610d71578063dd45240b14610d8e578063e1408cee14610d9657610274565b8063b5add71711610115578063b5add71714610c16578063c3fe3e2814610c45578063c4d66de814610c4d578063ca15c87314610c73578063d075066b14610c90578063d547741f14610d0557610274565b80638dd91a5614610b095780639010d07c14610b9b57806391d1485414610bda578063a217fddf14610c06578063b523595914610c0e57610274565b806336568abe116101ea5780635487404a116101ae5780635487404a146108485780635504d3d21461085057806358f36c131461085857806360f1d89d14610a1f578063757c9dff14610a775780637b3b7c2414610aec57610274565b806336568abe146107a2578063379607f5146107ce5780633f522c8a146107eb57806344bd1afd14610808578063485cf4371461082557610274565b8063161bd5491161023c578063161bd5491461037b5780631640b7fd146106e1578063248a9ca314610717578063272d3d531461073457806328052c92146107595780632f2ff15d1461077657610274565b80630119abb21461027957806302a7efcc146102aa578063032a5609146102cf578063065a774814610344578063138ac0ac1461035e575b600080fd5b6102966004803603602081101561028f57600080fd5b5035610fc3565b604080519115158252519081900360200190f35b6102cd600480360360408110156102c057600080fd5b5080359060200135610fd8565b005b6102cd600480360360408110156102e557600080fd5b81359190810190604081016020820135600160201b81111561030657600080fd5b82018360208201111561031857600080fd5b803590602001918460018302840111600160201b8311171561033957600080fd5b509092509050611014565b61034c61103b565b60408051918252519081900360200190f35b61034c6004803603602081101561037457600080fd5b5035611041565b6102cd600480360361018081101561039257600080fd5b810190602081018135600160201b8111156103ac57600080fd5b8201836020820111156103be57600080fd5b803590602001918460018302840111600160201b831117156103df57600080fd5b91908080601f0160208091040260200160405190810160405280939291908181526020018383808284376000920191909152509295949360208101935035915050600160201b81111561043157600080fd5b82018360208201111561044357600080fd5b803590602001918460018302840111600160201b8311171561046457600080fd5b91908080601f01602080910402602001604051908101604052809392919081815260200183838082843760009201919091525092956001600160a01b0385351695602086013595604081013595506060810135945060808101351515935060c081019060a00135600160201b8111156104dc57600080fd5b8201836020820111156104ee57600080fd5b803590602001918460018302840111600160201b8311171561050f57600080fd5b91908080601f0160208091040260200160405190810160405280939291908181526020018383808284376000920191909152509295949360208101935035915050600160201b81111561056157600080fd5b82018360208201111561057357600080fd5b803590602001918460018302840111600160201b8311171561059457600080fd5b91908080601f0160208091040260200160405190810160405280939291908181526020018383808284376000920191909152509295949360208101935035915050600160201b8111156105e657600080fd5b8201836020820111156105f857600080fd5b803590602001918460018302840111600160201b8311171561061957600080fd5b91908080601f0160208091040260200160405190810160405280939291908181526020018383808284376000920191909152509295949360208101935035915050600160201b81111561066b57600080fd5b82018360208201111561067d57600080fd5b803590602001918460018302840111600160201b8311171561069e57600080fd5b91908080601f0160208091040260200160405190810160405280939291908181526020018383808284376000920191909152509295505050503515159050611123565b6106fe600480360360208110156106f757600080fd5b503561131a565b60408051600f92830b90920b8252519081900360200190f35b61034c6004803603602081101561072d57600080fd5b503561134c565b6102cd6004803603604081101561074a57600080fd5b50803590602001351515611361565b61034c6004803603602081101561076f57600080fd5b5035611389565b6102cd6004803603604081101561078c57600080fd5b50803590602001356001600160a01b03166113e7565b6102cd600480360360408110156107b857600080fd5b50803590602001356001600160a01b0316611453565b6102cd600480360360208110156107e457600080fd5b50356114b4565b61034c6004803603602081101561080157600080fd5b50356115e1565b6102cd6004803603602081101561081e57600080fd5b50356115f3565b6102cd6004803603604081101561083b57600080fd5b5080359060200135611600565b61034c61161a565b61034c611620565b6108756004803603602081101561086e57600080fd5b5035611642565b6040518080602001806020018060200180602001858103855289818151815260200191508051906020019080838360005b838110156108be5781810151838201526020016108a6565b50505050905090810190601f1680156108eb5780820380516001836020036101000a031916815260200191505b5085810384528851815288516020918201918a019080838360005b8381101561091e578181015183820152602001610906565b50505050905090810190601f16801561094b5780820380516001836020036101000a031916815260200191505b50858103835287518152875160209182019189019080838360005b8381101561097e578181015183820152602001610966565b50505050905090810190601f1680156109ab5780820380516001836020036101000a031916815260200191505b50858103825286518152865160209182019188019080838360005b838110156109de5781810151838201526020016109c6565b50505050905090810190601f168015610a0b5780820380516001836020036101000a031916815260200191505b509850505050505050505060405180910390f35b610a276118b8565b60408051602080825283518183015283519192839290830191858101910280838360005b83811015610a63578181015183820152602001610a4b565b505050509050019250505060405180910390f35b6102cd60048036036040811015610a8d57600080fd5b81359190810190604081016020820135600160201b811115610aae57600080fd5b820183602082011115610ac057600080fd5b803590602001918460018302840111600160201b83111715610ae157600080fd5b50909250905061196f565b6102cd60048036036020811015610b0257600080fd5b5035611990565b610b2660048036036020811015610b1f57600080fd5b503561199d565b6040805160208082528351818301528351919283929083019185019080838360005b83811015610b60578181015183820152602001610b48565b50505050905090810190601f168015610b8d5780820380516001836020036101000a031916815260200191505b509250505060405180910390f35b610bbe60048036036040811015610bb157600080fd5b5080359060200135611a38565b604080516001600160a01b039092168252519081900360200190f35b61029660048036036040811015610bf057600080fd5b50803590602001356001600160a01b0316611a5d565b61034c611a7b565b61034c611a80565b6102cd60048036036080811015610c2c57600080fd5b5080359060208101359060408101359060600135611a86565b610bbe612010565b6102cd60048036036020811015610c6357600080fd5b50356001600160a01b031661201f565b61034c60048036036020811015610c8957600080fd5b503561211e565b6102cd60048036036040811015610ca657600080fd5b81359190810190604081016020820135600160201b811115610cc757600080fd5b820183602082011115610cd957600080fd5b803590602001918460018302840111600160201b83111715610cfa57600080fd5b509092509050612135565b6102cd60048036036040811015610d1b57600080fd5b50803590602001356001600160a01b0316612156565b61034c60048036036040811015610d4757600080fd5b50803590602001356121af565b6102cd60048036036020811015610d6a57600080fd5b50356121fd565b610b2660048036036020811015610d8757600080fd5b5035612217565b61034c61227f565b610b2660048036036020811015610dac57600080fd5b50356122c9565b6102cd60048036036040811015610dc957600080fd5b50803590602001351515612331565b61034c61236d565b610b2660048036036020811015610df657600080fd5b5035612373565b6102cd60048036036040811015610e1357600080fd5b81359190810190604081016020820135600160201b811115610e3457600080fd5b820183602082011115610e4657600080fd5b803590602001918460018302840111600160201b83111715610e6757600080fd5b5090925090506123db565b61034c60048036036020811015610e8857600080fd5b50356123fc565b610eac60048036036020811015610ea557600080fd5b503561240e565b604051808881526020018060200180602001876001600160a01b03166001600160a01b0316815260200186815260200185815260200184151515158152602001838103835289818151815260200191508051906020019080838360005b83811015610f21578181015183820152602001610f09565b50505050905090810190601f168015610f4e5780820380516001836020036101000a031916815260200191505b5083810382528851815288516020918201918a019080838360005b83811015610f81578181015183820152602001610f69565b50505050905090810190601f168015610fae5780820380516001836020036101000a031916815260200191505b50995050505050505050505060405180910390f35b60726020526000908152604090205460ff1681565b610fe061258f565b60008111610fed57600080fd5b8060668381548110610ffb57fe5b9060005260206000209060070201600501819055505050565b61101c61258f565b6000838152606f60205260409020611035908383612ff8565b50505050565b61271b81565b6000818152606c602052604081205442106110c3576000828152606c60205260409020546110bc90670de0b6b3a7640000906110b09061108890429063ffffffff6125fc16565b6065546110a490670de0b6b3a76400009063ffffffff61265916565b9063ffffffff6126c016565b9063ffffffff61271916565b905061111e565b6000828152606c60205260408120546110e690611088904263ffffffff6125fc16565b9050670de0b6b3a764000081111561110257600091505061111e565b61111a670de0b6b3a76400008263ffffffff6125fc16565b9150505b919050565b61112b61258f565b6000606680549050905042606c6000838152602001908152602001600020819055506000606860008381526020019081526020016000208190555060666040518060e001604052808381526020018f81526020018e81526020018d6001600160a01b031681526020018c81526020018b815260200189151581525090806001815401808255809150506001900390600052602060002090600702016000909190919091506000820151816000015560208201518160010190805190602001906111f5929190613072565b5060408201518051611211916002840191602090910190613072565b5060608201516003820180546001600160a01b0319166001600160a01b039092169190911790556080820151600482015560a0820151600582015560c0909101516006909101805460ff19169115159190911790556000818152606b602090815260408083208b9055606e8252909120875161128f92890190613072565b506000818152606f6020908152604090912086516112af92880190613072565b50600081815260706020908152604090912085516112cf92870190613072565b50600081815260716020908152604090912084516112ef92860190613072565b506000908152607260205260409020805460ff19169115159190911790555050505050505050505050565b60006113466069546066848154811061132f57fe5b906000526020600020906007020160050154612773565b92915050565b60009081526033602052604090206002015490565b61136961258f565b600091825260726020526040909120805460ff1916911515919091179055565b600061134660686000848152602001908152602001600020546113db670de0b6b3a7640000606686815481106113bb57fe5b9060005260206000209060070201600401546126c090919063ffffffff16565b9063ffffffff6125fc16565b60008281526033602052604090206002015461140a906114056127b3565b611a5d565b6114455760405162461bcd60e51b815260040180806020018281038252602f81526020018061311d602f913960400191505060405180910390fd5b61144f82826127b8565b5050565b61145b6127b3565b6001600160a01b0316816001600160a01b0316146114aa5760405162461bcd60e51b815260040180806020018281038252602f815260200180613223602f913960400191505060405180910390fd5b61144f8282612827565b60008181526072602052604081205460ff161561155157606a546040805163199a107160e01b815233600482015261271b602482015290516001600160a01b039092169163199a107191604480820192602092909190829003018186803b15801561151e57600080fd5b505afa158015611532573d6000803e3d6000fd5b505050506040513d602081101561154857600080fd5b505190506115cb565b606a5460408051637998b3fd60e01b815233600482015290516001600160a01b0390921691637998b3fd91602480820192602092909190829003018186803b15801561159c57600080fd5b505afa1580156115b0573d6000803e3d6000fd5b505050506040513d60208110156115c657600080fd5b505190505b61144f82826115d985611041565b606d54611a86565b60686020526000908152604090205481565b6115fb61258f565b606d55565b61160861258f565b6000918252606b602052604090912055565b606d5481565b604080516923a0a6a2afa0a226a4a760b11b8152905190819003600a01902081565b6000818152606e60209081526040808320606f83528184206070845282852060718552948390208254845160026001831615610100026000190190921691909104601f810187900487028201870190955284815260609687968796879695949293918691908301828280156116f85780601f106116cd576101008083540402835291602001916116f8565b820191906000526020600020905b8154815290600101906020018083116116db57829003601f168201915b5050865460408051602060026001851615610100026000190190941693909304601f8101849004840282018401909252818152959950889450925084019050828280156117865780601f1061175b57610100808354040283529160200191611786565b820191906000526020600020905b81548152906001019060200180831161176957829003601f168201915b5050855460408051602060026001851615610100026000190190941693909304601f8101849004840282018401909252818152959850879450925084019050828280156118145780601f106117e957610100808354040283529160200191611814565b820191906000526020600020905b8154815290600101906020018083116117f757829003601f168201915b5050845460408051602060026001851615610100026000190190941693909304601f8101849004840282018401909252818152959750869450925084019050828280156118a25780601f10611877576101008083540402835291602001916118a2565b820191906000526020600020905b81548152906001019060200180831161188557829003601f168201915b5050505050905093509350935093509193509193565b606060006118c461227f565b905060008167ffffffffffffffff811180156118df57600080fd5b50604051908082528060200260200182016040528015611909578160200160208202803683370190505b50925060005b606654811015611969576066818154811061192657fe5b600091825260209091206006600790920201015460ff1615611961578084838151811061194f57fe5b60209081029190910101526001909101905b60010161190f565b50505090565b61197761258f565b6000838152607160205260409020611035908383612ff8565b61199861258f565b606555565b606f6020908152600091825260409182902080548351601f600260001961010060018616150201909316929092049182018490048402810184019094528084529091830182828015611a305780601f10611a0557610100808354040283529160200191611a30565b820191906000526020600020905b815481529060010190602001808311611a1357829003601f168201915b505050505081565b6000828152603360205260408120611a56908363ffffffff61289616565b9392505050565b6000828152603360205260408120611a56908363ffffffff6128a216565b600081565b60695481565b60008481526072602052604090205460ff1615611b5d57606a546040805163199a107160e01b815233600482015261271b6024820152905185926001600160a01b03169163199a1071916044808301926020929190829003018186803b158015611aef57600080fd5b505afa158015611b03573d6000803e3d6000fd5b505050506040513d6020811015611b1957600080fd5b50511015611b585760405162461bcd60e51b815260040180806020018281038252602e81526020018061314c602e913960400191505060405180910390fd5b611c10565b606a5460408051637998b3fd60e01b8152336004820152905185926001600160a01b031691637998b3fd916024808301926020929190829003018186803b158015611ba757600080fd5b505afa158015611bbb573d6000803e3d6000fd5b505050506040513d6020811015611bd157600080fd5b50511015611c105760405162461bcd60e51b815260040180806020018281038252602e81526020018061314c602e913960400191505060405180910390fd5b6000611c1b85611041565b905080611c56670de0b6b3a7640000611c4a611c3d828763ffffffff6125fc16565b879063ffffffff6126c016565b9063ffffffff61265916565b10611c9c576040805162461bcd60e51b815260206004820152601160248201527014db1a5c1c1859d948195e18d959591959607a1b604482015290519081900360640190fd5b60668581548110611ca957fe5b600091825260209091206006600790920201015460ff161515600114611d09576040805162461bcd60e51b815260206004820152601060248201526f50726f6a65637420696e61637469766560801b604482015290519081900360640190fd5b6000611d1586866121af565b90506000611d2287611389565b90508581831115611d4757611d4183611c4a838563ffffffff6126c016565b90508192505b60008881526072602052604090205460ff1615611dce57606a546040805163a0074b1960e01b81526004810184905233602482015290516001600160a01b039092169163a0074b199160448082019260009290919082900301818387803b158015611db157600080fd5b505af1158015611dc5573d6000803e3d6000fd5b50505050611e3a565b606a54604080516305243e7960e11b81526004810184905233602482015290516001600160a01b0390921691630a487cf29160448082019260009290919082900301818387803b158015611e2157600080fd5b505af1158015611e35573d6000803e3d6000fd5b505050505b6000888152606860205260408120805485019055606680548a908110611e5c57fe5b6000918252602091829020600360079092020101546040805163313ce56760e01b815290516001600160a01b039092169263313ce56792600480840193829003018186803b158015611ead57600080fd5b505afa158015611ec1573d6000803e3d6000fd5b505050506040513d6020811015611ed757600080fd5b505160ff169050611f2333611eec86846128b7565b60668c81548110611ef957fe5b60009182526020909120600360079092020101546001600160a01b0316919063ffffffff6128f716565b611fb5611f9a611f46606554670de0b6b3a764000061265990919063ffffffff16565b611c4a611f8d606b60008f81526020019081526020016000205460668f81548110611f6d57fe5b90600052602060002090600702016004015461265990919063ffffffff16565b889063ffffffff61265916565b60008b8152606c60205260409020549063ffffffff61271916565b60008a8152606c602090815260409182902092909255805186815291820187905280518b9233927f28a3ea4d199e72c2f5ac0a033b6a76c586656dd17ef9aeac769874b9a1104b5492918290030190a3505050505050505050565b606a546001600160a01b031681565b600054610100900460ff1680612038575061203861294e565b80612046575060005460ff16155b6120815760405162461bcd60e51b815260040180806020018281038252602e8152602001806131aa602e913960400191505060405180910390fd5b600054610100900460ff161580156120ac576000805460ff1961ff0019909116610100171660011790555b6120b461295f565b6120bf600033611445565b604080516923a0a6a2afa0a226a4a760b11b8152905190819003600a0190206120e89033611445565b606a80546001600160a01b0319166001600160a01b038416179055612710606555801561144f576000805461ff00191690555050565b600081815260336020526040812061134690612a01565b61213d61258f565b6000838152606e60205260409020611035908383612ff8565b600082815260336020526040902060020154612174906114056127b3565b6114aa5760405162461bcd60e51b815260040180806020018281038252603081526020018061317a6030913960400191505060405180910390fd5b6000806121ce836121bf8661131a565b600f0b9063ffffffff612a0c16565b90506121f5670de0b6b3a7640000611c4a6121e887611041565b849063ffffffff6126c016565b949350505050565b61220561258f565b6000811161221257600080fd5b606955565b606e6020908152600091825260409182902080548351601f600260001961010060018616150201909316929092049182018490048402810184019094528084529091830182828015611a305780601f10611a0557610100808354040283529160200191611a30565b6000805b6066548110156122c5576066818154811061229a57fe5b600091825260209091206006600790920201015460ff16156122bd576001820191505b600101612283565b5090565b60716020908152600091825260409182902080548351601f600260001961010060018616150201909316929092049182018490048402810184019094528084529091830182828015611a305780601f10611a0557610100808354040283529160200191611a30565b61233961258f565b806066838154811061234757fe5b60009182526020909120600790910201600601805460ff19169115159190911790555050565b60655481565b60706020908152600091825260409182902080548351601f600260001961010060018616150201909316929092049182018490048402810184019094528084529091830182828015611a305780601f10611a0557610100808354040283529160200191611a30565b6123e361258f565b6000838152607060205260409020611035908383612ff8565b606b6020526000908152604090205481565b6066818154811061241b57fe5b9060005260206000209060070201600091509050806000015490806001018054600181600116156101000203166002900480601f0160208091040260200160405190810160405280929190818152602001828054600181600116156101000203166002900480156124cd5780601f106124a2576101008083540402835291602001916124cd565b820191906000526020600020905b8154815290600101906020018083116124b057829003601f168201915b50505060028085018054604080516020601f600019610100600187161502019094169590950492830185900485028101850190915281815295969594509092509083018282801561255f5780601f106125345761010080835404028352916020019161255f565b820191906000526020600020905b81548152906001019060200180831161254257829003601f168201915b5050505060038301546004840154600585015460069095015493946001600160a01b039092169390925060ff1687565b604080516923a0a6a2afa0a226a4a760b11b8152905190819003600a0190206125b89033611a5d565b6125fa576040805162461bcd60e51b815260206004820152600e60248201526d2737ba1033b0b6b29030b236b4b760911b604482015290519081900360640190fd5b565b600082821115612653576040805162461bcd60e51b815260206004820152601e60248201527f536166654d6174683a207375627472616374696f6e206f766572666c6f770000604482015290519081900360640190fd5b50900390565b60008082116126af576040805162461bcd60e51b815260206004820152601a60248201527f536166654d6174683a206469766973696f6e206279207a65726f000000000000604482015290519081900360640190fd5b8183816126b857fe5b049392505050565b6000826126cf57506000611346565b828202828482816126dc57fe5b0414611a565760405162461bcd60e51b81526004018080602001828103825260218152602001806131d86021913960400191505060405180910390fd5b600082820183811015611a56576040805162461bcd60e51b815260206004820152601b60248201527f536166654d6174683a206164646974696f6e206f766572666c6f770000000000604482015290519081900360640190fd5b60008161277f57600080fd5b600061278b8484612a74565b90506f7fffffffffffffffffffffffffffffff6001600160801b0382161115611a5657600080fd5b335b90565b60008281526033602052604090206127d6908263ffffffff612bbd16565b1561144f576127e36127b3565b6001600160a01b0316816001600160a01b0316837f2f8788117e7eff1d82e926ec794901d17c78024a50270940304540a733656f0d60405160405180910390a45050565b6000828152603360205260409020612845908263ffffffff612bd216565b1561144f576128526127b3565b6001600160a01b0316816001600160a01b0316837ff6391f5c32d9c69d2a47ea670b442974b53935d1edc7fd64eb21e047a839171b60405160405180910390a45050565b6000611a568383612be7565b6000611a56836001600160a01b038416612c4b565b600060128211156128e0576128d9836011198401600a0a63ffffffff6126c016565b9050611346565b611a56836012849003600a0a63ffffffff61265916565b604080516001600160a01b038416602482015260448082018490528251808303909101815260649091019091526020810180516001600160e01b031663a9059cbb60e01b179052612949908490612c63565b505050565b600061295930612d14565b15905090565b600054610100900460ff1680612978575061297861294e565b80612986575060005460ff16155b6129c15760405162461bcd60e51b815260040180806020018281038252602e8152602001806131aa602e913960400191505060405180910390fd5b600054610100900460ff161580156129ec576000805460ff1961ff0019909116610100171660011790555b80156129fe576000805461ff00191690555b50565b600061134682612d1a565b600081612a1b57506000611346565b600083600f0b1215612a2c57600080fd5b600f83900b6001600160801b038316810260401c90608084901c026001600160c01b03811115612a5b57600080fd5b60401b8119811115612a6c57600080fd5b019392505050565b600081612a8057600080fd5b60006001600160c01b038411612aa55782604085901b81612a9d57fe5b049050612ba9565b60c084811c600160201b8110612abd576020918201911c5b620100008110612acf576010918201911c5b6101008110612ae0576008918201911c5b60108110612af0576004918201911c5b60048110612b00576002918201911c5b60028110612b0f576001820191505b60bf820360018603901c6001018260ff0387901b81612b2a57fe5b0492506001600160801b03831115612b4157600080fd5b608085901c83026001600160801b038616840260c088901c604089901b82811015612b6d576001820391505b608084901b92900382811015612b84576001820391505b829003608084901c8214612b9457fe5b888181612b9d57fe5b04870196505050505050505b6001600160801b03811115611a5657600080fd5b6000611a56836001600160a01b038416612d1e565b6000611a56836001600160a01b038416612d68565b81546000908210612c295760405162461bcd60e51b81526004018080602001828103825260228152602001806130fb6022913960400191505060405180910390fd5b826000018281548110612c3857fe5b9060005260206000200154905092915050565b60009081526001919091016020526040902054151590565b6060612cb8826040518060400160405280602081526020017f5361666545524332303a206c6f772d6c6576656c2063616c6c206661696c6564815250856001600160a01b0316612e2e9092919063ffffffff16565b80519091501561294957808060200190516020811015612cd757600080fd5b50516129495760405162461bcd60e51b815260040180806020018281038252602a8152602001806131f9602a913960400191505060405180910390fd5b3b151590565b5490565b6000612d2a8383612c4b565b612d6057508154600181810184556000848152602080822090930184905584548482528286019093526040902091909155611346565b506000611346565b60008181526001830160205260408120548015612e245783546000198083019190810190600090879083908110612d9b57fe5b9060005260206000200154905080876000018481548110612db857fe5b600091825260208083209091019290925582815260018981019092526040902090840190558654879080612de857fe5b60019003818190600052602060002001600090559055866001016000878152602001908152602001600020600090556001945050505050611346565b6000915050611346565b60606121f5848460008585612e4285612d14565b612e93576040805162461bcd60e51b815260206004820152601d60248201527f416464726573733a2063616c6c20746f206e6f6e2d636f6e7472616374000000604482015290519081900360640190fd5b60006060866001600160a01b031685876040518082805190602001908083835b60208310612ed25780518252601f199092019160209182019101612eb3565b6001836020036101000a03801982511681845116808217855250505050505090500191505060006040518083038185875af1925050503d8060008114612f34576040519150601f19603f3d011682016040523d82523d6000602084013e612f39565b606091505b5091509150612f49828286612f54565b979650505050505050565b60608315612f63575081611a56565b825115612f735782518084602001fd5b8160405162461bcd60e51b81526004018080602001828103825283818151815260200191508051906020019080838360005b83811015612fbd578181015183820152602001612fa5565b50505050905090810190601f168015612fea5780820380516001836020036101000a031916815260200191505b509250505060405180910390fd5b828054600181600116156101000203166002900490600052602060002090601f016020900481019282601f106130395782800160ff19823516178555613066565b82800160010185558215613066579182015b8281111561306657823582559160200191906001019061304b565b506122c59291506130e0565b828054600181600116156101000203166002900490600052602060002090601f016020900481019282601f106130b357805160ff1916838001178555613066565b82800160010185558215613066579182015b828111156130665782518255916020019190600101906130c5565b6127b591905b808211156122c557600081556001016130e656fe456e756d657261626c655365743a20696e646578206f7574206f6620626f756e6473416363657373436f6e74726f6c3a2073656e646572206d75737420626520616e2061646d696e20746f206772616e74436c61696d20616d6f756e74206578636565647320617661696c61626c6520726577617264732062616c616e6365416363657373436f6e74726f6c3a2073656e646572206d75737420626520616e2061646d696e20746f207265766f6b65496e697469616c697a61626c653a20636f6e747261637420697320616c726561647920696e697469616c697a6564536166654d6174683a206d756c7469706c69636174696f6e206f766572666c6f775361666545524332303a204552433230206f7065726174696f6e20646964206e6f742073756363656564416363657373436f6e74726f6c3a2063616e206f6e6c792072656e6f756e636520726f6c657320666f722073656c66a2646970667358221220fe12e796ac20d5a49d82243e8b84750b09998092d3c86acbb0ab63a5d2aa4d3e64736f6c63430006050033",
  "immutableReferences": {},
  "source": "pragma solidity ^0.6.5;\n\nimport \"@openzeppelin/contracts-upgradeable/proxy/Initializable.sol\";\nimport \"@openzeppelin/contracts-upgradeable/access/AccessControlUpgradeable.sol\";\nimport \"@openzeppelin/contracts/token/ERC20/IERC20.sol\";\nimport \"@openzeppelin/contracts/token/ERC20/ERC20.sol\";\nimport \"@openzeppelin/contracts/token/ERC20/SafeERC20.sol\";\nimport \"abdk-libraries-solidity/ABDKMath64x64.sol\";\nimport \"@openzeppelin/contracts/math/SafeMath.sol\";\nimport \"./cryptoblades.sol\";\n\ncontract Treasury is Initializable, AccessControlUpgradeable {\n    using SafeMath for uint256;\n    using ABDKMath64x64 for int128;\n    using SafeERC20 for IERC20;\n\n    bytes32 public constant GAME_ADMIN = keccak256(\"GAME_ADMIN\");\n\n    uint256 public constant GAMEUSERVAR_GEN2_UNCLAIMED = 10011;\n\n    uint256 public multiplierUnit;\n\n    PartnerProject[] public partneredProjects;\n    mapping(uint256 => uint256) projectAddedBlockNumber;\n    mapping(uint256 => uint256) public tokensClaimed;\n    uint256 public skillPrice;\n\n    event TreasuryClaimed(address indexed sender, uint256 indexed partnerId, uint256 claimedAmount, uint256 currentMultiplier);\n\n    struct PartnerProject {\n        uint256 id;\n        string name;\n        string tokenSymbol;\n        address tokenAddress;\n        uint256 tokenSupply;\n        uint256 tokenPrice;\n        bool isActive;\n    }\n\n    CryptoBlades public game;\n\n    mapping(uint256 => uint256) public projectDistributionTime;\n    mapping(uint256 => uint256) multiplierTimestamp;\n    uint256 public defaultSlippage;\n    mapping(uint256 => string) public projectLogo;\n    mapping(uint256 => string) public projectDetails;\n    mapping(uint256 => string) public projectWebsite;\n    mapping(uint256 => string) public projectNote;\n    mapping(uint256 => bool) public projectIsValor;\n\n    function initialize(CryptoBlades _game) public initializer {\n        __AccessControl_init_unchained();\n        _setupRole(DEFAULT_ADMIN_ROLE, msg.sender);\n        _setupRole(GAME_ADMIN, msg.sender);\n\n        game = _game;\n        // multiplier increases every second by 1e18/multiplierUnit\n        multiplierUnit = 1e4;\n    }\n\n    modifier restricted() {\n        _restricted();\n        _;\n    }\n\n    function _restricted() internal view {\n        require(hasRole(GAME_ADMIN, msg.sender), \"Not game admin\");\n    }\n\n    // Views\n\n    function getAmountOfActiveProjects() public view returns (uint256 activeCount) {\n        activeCount = 0;\n        for (uint i; i < partneredProjects.length; i++) {\n            if (partneredProjects[i].isActive) {\n                activeCount += 1;\n            }\n        }\n    }\n\n    function getActivePartnerProjectsIds() public view returns (uint256[] memory activeProjectsIds){\n        uint256 activeCount = getAmountOfActiveProjects();\n        uint256 counter = 0;\n\n        activeProjectsIds = new uint256[](activeCount);\n        for (uint i = 0; i < partneredProjects.length; i++) {\n            if (partneredProjects[i].isActive) {\n                activeProjectsIds[counter] = i;\n                counter++;\n            }\n        }\n    }\n\n    function getProjectMultiplier(uint256 partnerId) public view returns (uint256) {\n        if (block.timestamp >= multiplierTimestamp[partnerId]) {\n            return uint(1e18).div(multiplierUnit).mul(block.timestamp.sub(multiplierTimestamp[partnerId])).add(1e18);\n        }\n        uint256 multiplierDecrease = uint(1e18).div(multiplierUnit).mul(multiplierTimestamp[partnerId].sub(block.timestamp));\n        if (multiplierDecrease > 1e18) {\n            return 0;\n        }\n        return uint(1e18).sub(multiplierDecrease);\n    }\n\n    function getSkillToPartnerRatio(uint256 partnerId) public view returns (int128) {\n        return ABDKMath64x64.divu(skillPrice, partneredProjects[partnerId].tokenPrice);\n    }\n\n    function getRemainingPartnerTokenSupply(uint256 partnerId) public view returns (uint256) {\n        return partneredProjects[partnerId].tokenSupply.mul(1e18).sub(tokensClaimed[partnerId]);\n    }\n\n    function getAmountInPartnerToken(uint256 partnerId, uint256 claimingAmount) public view returns (uint256 amountWithMultiplier) {\n        uint256 baseAmount = getSkillToPartnerRatio(partnerId).mulu(claimingAmount);\n        amountWithMultiplier = baseAmount.mul(getProjectMultiplier(partnerId)).div(1e18);\n    }\n\n    function getAmountWithAdjustedDecimals(uint256 partnerTokenAmount, uint256 partnerTokenDecimals) internal pure returns (uint256 partnerTokenAmountAdjusted) {\n        if (partnerTokenDecimals > 18) {\n            partnerTokenAmountAdjusted = partnerTokenAmount.mul(10 ** uint(partnerTokenDecimals - 18));\n        } else {\n            partnerTokenAmountAdjusted = partnerTokenAmount.div(10 ** uint(18 - partnerTokenDecimals));\n        }\n    }\n\n    function getProjectData(uint256 partnerId) public view returns (string memory, string memory, string memory, string memory) {\n        return (projectLogo[partnerId], projectDetails[partnerId], projectWebsite[partnerId], projectNote[partnerId]);\n    }\n\n    // Mutative\n\n    function addPartnerProject(\n        string memory name,\n        string memory tokenSymbol,\n        address tokenAddress,\n        uint256 tokenSupply,\n        uint256 tokenPrice,\n        uint256 distributionTime,\n        bool isActive,\n        string memory logo,\n        string memory details,\n        string memory website,\n        string memory note,\n        bool isValor)\n    public restricted {\n        uint256 id = partneredProjects.length;\n        multiplierTimestamp[id] = block.timestamp;\n        tokensClaimed[id] = 0;\n        partneredProjects.push(PartnerProject(\n                id,\n                name,\n                tokenSymbol,\n                tokenAddress,\n                tokenSupply,\n                tokenPrice,\n                isActive\n            ));\n        projectDistributionTime[id] = distributionTime;\n        projectLogo[id] = logo;\n        projectDetails[id] = details;\n        projectWebsite[id] = website;\n        projectNote[id] = note;\n        projectIsValor[id] = isValor;\n    }\n\n    function claim(uint256 partnerId) public {\n        uint256 claimingAmount;\n        if(projectIsValor[partnerId]) {\n            claimingAmount = game.userVars(msg.sender,GAMEUSERVAR_GEN2_UNCLAIMED);\n        }\n        else {\n            claimingAmount = game.getTokenRewardsFor(msg.sender);\n        }\n        claim(partnerId, claimingAmount, getProjectMultiplier(partnerId), defaultSlippage);\n    }\n\n    function claim(uint256 partnerId, uint256 claimingAmount, uint256 currentMultiplier, uint256 slippage) public {\n        if(projectIsValor[partnerId]) {\n            require(game.userVars(msg.sender,GAMEUSERVAR_GEN2_UNCLAIMED) >= claimingAmount, 'Claim amount exceeds available rewards balance');\n        }\n        else {\n            require(game.getTokenRewardsFor(msg.sender) >= claimingAmount, 'Claim amount exceeds available rewards balance');\n        }\n        uint256 effectiveMultiplier = getProjectMultiplier(partnerId);\n        require(currentMultiplier.mul(uint(1e18).sub(slippage)).div(1e18) < effectiveMultiplier, 'Slippage exceeded');\n        require(partneredProjects[partnerId].isActive == true, 'Project inactive');\n\n        uint256 partnerTokenAmount = getAmountInPartnerToken(partnerId, claimingAmount);\n        uint256 remainingPartnerTokenSupply = getRemainingPartnerTokenSupply(partnerId);\n        uint256 tokensToDeduct = claimingAmount;\n\n        if (partnerTokenAmount > remainingPartnerTokenSupply) {\n            tokensToDeduct = tokensToDeduct.mul(remainingPartnerTokenSupply).div(partnerTokenAmount);\n            partnerTokenAmount = remainingPartnerTokenSupply;\n        }\n\n        if(projectIsValor[partnerId]) {\n            game.deductValor(tokensToDeduct, msg.sender);\n        }\n        else {\n            game.deductAfterPartnerClaim(tokensToDeduct, msg.sender);\n        }\n        tokensClaimed[partnerId] += partnerTokenAmount;\n\n        uint256 partnerTokenDecimals = ERC20(partneredProjects[partnerId].tokenAddress).decimals();\n        IERC20(partneredProjects[partnerId].tokenAddress).safeTransfer(msg.sender, getAmountWithAdjustedDecimals(partnerTokenAmount, partnerTokenDecimals));\n\n        multiplierTimestamp[partnerId] = multiplierTimestamp[partnerId].add(partnerTokenAmount.div(partneredProjects[partnerId].tokenSupply.div(projectDistributionTime[partnerId])).div(uint(1e18).div(multiplierUnit)));\n\n        emit TreasuryClaimed(msg.sender, partnerId, partnerTokenAmount, effectiveMultiplier);\n    }\n\n    // Setters\n\n    function setMultiplierUnit(uint256 unit) external restricted {\n        multiplierUnit = unit;\n    }\n\n    function setIsActive(uint256 id, bool isActive) public restricted {\n        partneredProjects[id].isActive = isActive;\n    }\n\n    function setIsValor(uint256 id, bool isValor) public restricted {\n        projectIsValor[id] = isValor;\n    }\n\n    function setSkillPrice(uint256 newPrice) external restricted {\n        require(newPrice > 0);\n        skillPrice = newPrice;\n    }\n\n    function setPartnerTokenPrice(uint256 partnerId, uint256 newPrice) external restricted {\n        require(newPrice > 0);\n        partneredProjects[partnerId].tokenPrice = newPrice;\n    }\n\n    function setDistributionTime(uint256 partnerId, uint256 distributionTime) external restricted {\n        projectDistributionTime[partnerId] = distributionTime;\n    }\n\n    function setDefaultSlippage(uint256 newSlippage) external restricted {\n        defaultSlippage = newSlippage;\n    }\n\n    function setProjectLogo(uint256 partnerId, string calldata logo) external restricted {\n        projectLogo[partnerId] = logo;\n    }\n\n    function setProjectDetails(uint256 partnerId, string calldata details) external restricted {\n        projectDetails[partnerId] = details;\n    }\n\n    function setProjectWebsite(uint256 partnerId, string calldata website) external restricted {\n        projectWebsite[partnerId] = website;\n    }\n\n    function setProjectNote(uint256 partnerId, string calldata note) external restricted {\n        projectNote[partnerId] = note;\n    }\n\n}\n",
  "sourcePath": "/mnt/e/work/cryptoblades/contracts/Treasury.sol",
  "compiler": {
    "name": "solc",
    "version": "0.6.5+commit.f956cc89.Emscripten.clang"
  },
  "schemaVersion": "3.3.4",
  "updatedAt": "2023-01-24T17:45:31.850Z",
  "devdoc": {
    "methods": {
      "getRoleAdmin(bytes32)": {
        "details": "Returns the admin role that controls `role`. See {grantRole} and {revokeRole}.     * To change a role's admin, use {_setRoleAdmin}."
      },
      "getRoleMember(bytes32,uint256)": {
        "details": "Returns one of the accounts that have `role`. `index` must be a value between 0 and {getRoleMemberCount}, non-inclusive.     * Role bearers are not sorted in any particular way, and their ordering may change at any point.     * WARNING: When using {getRoleMember} and {getRoleMemberCount}, make sure you perform all queries on the same block. See the following https://forum.openzeppelin.com/t/iterating-over-elements-on-enumerableset-in-openzeppelin-contracts/2296[forum post] for more information."
      },
      "getRoleMemberCount(bytes32)": {
        "details": "Returns the number of accounts that have `role`. Can be used together with {getRoleMember} to enumerate all bearers of a role."
      },
      "grantRole(bytes32,address)": {
        "details": "Grants `role` to `account`.     * If `account` had not been already granted `role`, emits a {RoleGranted} event.     * Requirements:     * - the caller must have ``role``'s admin role."
      },
      "hasRole(bytes32,address)": {
        "details": "Returns `true` if `account` has been granted `role`."
      },
      "renounceRole(bytes32,address)": {
        "details": "Revokes `role` from the calling account.     * Roles are often managed via {grantRole} and {revokeRole}: this function's purpose is to provide a mechanism for accounts to lose their privileges if they are compromised (such as when a trusted device is misplaced).     * If the calling account had been granted `role`, emits a {RoleRevoked} event.     * Requirements:     * - the caller must be `account`."
      },
      "revokeRole(bytes32,address)": {
        "details": "Revokes `role` from `account`.     * If `account` had been granted `role`, emits a {RoleRevoked} event.     * Requirements:     * - the caller must have ``role``'s admin role."
      }
    }
  },
  "userdoc": {
    "methods": {}
  }
}