{
  "contractName": "ValorToken",
  "abi": [
    {
      "anonymous": false,
      "inputs": [
        {
          "indexed": true,
          "internalType": "address",
          "name": "owner",
          "type": "address"
        },
        {
          "indexed": true,
          "internalType": "address",
          "name": "spender",
          "type": "address"
        },
        {
          "indexed": false,
          "internalType": "uint256",
          "name": "value",
          "type": "uint256"
        }
      ],
      "name": "Approval",
      "type": "event"
    },
    {
      "anonymous": false,
      "inputs": [
        {
          "indexed": true,
          "internalType": "address",
          "name": "previousOwner",
          "type": "address"
        },
        {
          "indexed": true,
          "internalType": "address",
          "name": "newOwner",
          "type": "address"
        }
      ],
      "name": "OwnershipTransferred",
      "type": "event"
    },
    {
      "anonymous": false,
      "inputs": [
        {
          "indexed": true,
          "internalType": "address",
          "name": "from",
          "type": "address"
        },
        {
          "indexed": true,
          "internalType": "address",
          "name": "to",
          "type": "address"
        },
        {
          "indexed": false,
          "internalType": "uint256",
          "name": "value",
          "type": "uint256"
        }
      ],
      "name": "Transfer",
      "type": "event"
    },
    {
      "inputs": [
        {
          "internalType": "address",
          "name": "owner",
          "type": "address"
        },
        {
          "internalType": "address",
          "name": "spender",
          "type": "address"
        }
      ],
      "name": "allowance",
      "outputs": [
        {
          "internalType": "uint256",
          "name": "",
          "type": "uint256"
        }
      ],
      "stateMutability": "view",
      "type": "function"
    },
    {
      "inputs": [
        {
          "internalType": "address",
          "name": "spender",
          "type": "address"
        },
        {
          "internalType": "uint256",
          "name": "amount",
          "type": "uint256"
        }
      ],
      "name": "approve",
      "outputs": [
        {
          "internalType": "bool",
          "name": "",
          "type": "bool"
        }
      ],
      "stateMutability": "nonpayable",
      "type": "function"
    },
    {
      "inputs": [
        {
          "internalType": "address",
          "name": "account",
          "type": "address"
        }
      ],
      "name": "balanceOf",
      "outputs": [
        {
          "internalType": "uint256",
          "name": "",
          "type": "uint256"
        }
      ],
      "stateMutability": "view",
      "type": "function"
    },
    {
      "inputs": [],
      "name": "decimals",
      "outputs": [
        {
          "internalType": "uint8",
          "name": "",
          "type": "uint8"
        }
      ],
      "stateMutability": "view",
      "type": "function"
    },
    {
      "inputs": [
        {
          "internalType": "address",
          "name": "spender",
          "type": "address"
        },
        {
          "internalType": "uint256",
          "name": "subtractedValue",
          "type": "uint256"
        }
      ],
      "name": "decreaseAllowance",
      "outputs": [
        {
          "internalType": "bool",
          "name": "",
          "type": "bool"
        }
      ],
      "stateMutability": "nonpayable",
      "type": "function"
    },
    {
      "inputs": [
        {
          "internalType": "address",
          "name": "spender",
          "type": "address"
        },
        {
          "internalType": "uint256",
          "name": "addedValue",
          "type": "uint256"
        }
      ],
      "name": "increaseAllowance",
      "outputs": [
        {
          "internalType": "bool",
          "name": "",
          "type": "bool"
        }
      ],
      "stateMutability": "nonpayable",
      "type": "function"
    },
    {
      "inputs": [],
      "name": "name",
      "outputs": [
        {
          "internalType": "string",
          "name": "",
          "type": "string"
        }
      ],
      "stateMutability": "view",
      "type": "function"
    },
    {
      "inputs": [],
      "name": "owner",
      "outputs": [
        {
          "internalType": "address",
          "name": "",
          "type": "address"
        }
      ],
      "stateMutability": "view",
      "type": "function"
    },
    {
      "inputs": [],
      "name": "renounceOwnership",
      "outputs": [],
      "stateMutability": "nonpayable",
      "type": "function"
    },
    {
      "inputs": [],
      "name": "symbol",
      "outputs": [
        {
          "internalType": "string",
          "name": "",
          "type": "string"
        }
      ],
      "stateMutability": "view",
      "type": "function"
    },
    {
      "inputs": [],
      "name": "totalSupply",
      "outputs": [
        {
          "internalType": "uint256",
          "name": "",
          "type": "uint256"
        }
      ],
      "stateMutability": "view",
      "type": "function"
    },
    {
      "inputs": [
        {
          "internalType": "address",
          "name": "recipient",
          "type": "address"
        },
        {
          "internalType": "uint256",
          "name": "amount",
          "type": "uint256"
        }
      ],
      "name": "transfer",
      "outputs": [
        {
          "internalType": "bool",
          "name": "",
          "type": "bool"
        }
      ],
      "stateMutability": "nonpayable",
      "type": "function"
    },
    {
      "inputs": [
        {
          "internalType": "address",
          "name": "sender",
          "type": "address"
        },
        {
          "internalType": "address",
          "name": "recipient",
          "type": "address"
        },
        {
          "internalType": "uint256",
          "name": "amount",
          "type": "uint256"
        }
      ],
      "name": "transferFrom",
      "outputs": [
        {
          "internalType": "bool",
          "name": "",
          "type": "bool"
        }
      ],
      "stateMutability": "nonpayable",
      "type": "function"
    },
    {
      "inputs": [
        {
          "internalType": "address",
          "name": "newOwner",
          "type": "address"
        }
      ],
      "name": "transferOwnership",
      "outputs": [],
      "stateMutability": "nonpayable",
      "type": "function"
    },
    {
      "inputs": [],
      "name": "initialize",
      "outputs": [],
      "stateMutability": "nonpayable",
      "type": "function"
    },
    {
      "inputs": [
        {
          "internalType": "address",
          "name": "account",
          "type": "address"
        },
        {
          "internalType": "uint256",
          "name": "amount",
          "type": "uint256"
        }
      ],
      "name": "mint",
      "outputs": [],
      "stateMutability": "nonpayable",
      "type": "function"
    }
  ],
  "bytecode": "0x608060405234801561001057600080fd5b50611434806100206000396000f3fe608060405234801561001057600080fd5b50600436106101005760003560e01c8063715018a611610097578063a457c2d711610066578063a457c2d7146102ec578063a9059cbb14610318578063dd62ed3e14610344578063f2fde38b1461037257610100565b8063715018a6146102b05780638129fc1c146102b85780638da5cb5b146102c057806395d89b41146102e457610100565b8063313ce567116100d3578063313ce56714610212578063395093511461023057806340c10f191461025c57806370a082311461028a57610100565b806306fdde0314610105578063095ea7b31461018257806318160ddd146101c257806323b872dd146101dc575b600080fd5b61010d610398565b6040805160208082528351818301528351919283929083019185019080838360005b8381101561014757818101518382015260200161012f565b50505050905090810190601f1680156101745780820380516001836020036101000a031916815260200191505b509250505060405180910390f35b6101ae6004803603604081101561019857600080fd5b506001600160a01b03813516906020013561042f565b604080519115158252519081900360200190f35b6101ca61044c565b60408051918252519081900360200190f35b6101ae600480360360608110156101f257600080fd5b506001600160a01b03813581169160208101359091169060400135610452565b61021a6104df565b6040805160ff9092168252519081900360200190f35b6101ae6004803603604081101561024657600080fd5b506001600160a01b0381351690602001356104e8565b6102886004803603604081101561027257600080fd5b506001600160a01b03813516906020013561053c565b005b6101ca600480360360208110156102a057600080fd5b50356001600160a01b03166105be565b6102886105d9565b610288610697565b6102c86107b5565b604080516001600160a01b039092168252519081900360200190f35b61010d6107c4565b6101ae6004803603604081101561030257600080fd5b506001600160a01b038135169060200135610825565b6101ae6004803603604081101561032e57600080fd5b506001600160a01b038135169060200135610893565b6101ca6004803603604081101561035a57600080fd5b506001600160a01b03813581169160200135166108a7565b6102886004803603602081101561038857600080fd5b50356001600160a01b03166108d2565b60368054604080516020601f60026000196101006001881615020190951694909404938401819004810282018101909252828152606093909290918301828280156104245780601f106103f957610100808354040283529160200191610424565b820191906000526020600020905b81548152906001019060200180831161040757829003601f168201915b505050505090505b90565b600061044361043c6109e7565b84846109eb565b50600192915050565b60355490565b600061045f848484610ad7565b6104d58461046b6109e7565b6104d085604051806060016040528060288152602001611369602891396001600160a01b038a166000908152603460205260408120906104a96109e7565b6001600160a01b03168152602081019190915260400160002054919063ffffffff610c4016565b6109eb565b5060019392505050565b60385460ff1690565b60006104436104f56109e7565b846104d085603460006105066109e7565b6001600160a01b03908116825260208083019390935260409182016000908120918c16815292529020549063ffffffff610cd716565b6105446109e7565b6001600160a01b03166105556107b5565b6001600160a01b0316146105b0576040805162461bcd60e51b815260206004820181905260248201527f4f776e61626c653a2063616c6c6572206973206e6f7420746865206f776e6572604482015290519081900360640190fd5b6105ba8282610d38565b5050565b6001600160a01b031660009081526033602052604090205490565b6105e16109e7565b6001600160a01b03166105f26107b5565b6001600160a01b03161461064d576040805162461bcd60e51b815260206004820181905260248201527f4f776e61626c653a2063616c6c6572206973206e6f7420746865206f776e6572604482015290519081900360640190fd5b6065546040516000916001600160a01b0316907f8be0079c531659141344cd1fd0a4f28419497f9722a3daafe3b4186f6b6457e0908390a3606580546001600160a01b0319169055565b600054610100900460ff16806106b057506106b0610e36565b806106be575060005460ff16155b6106f95760405162461bcd60e51b815260040180806020018281038252602e81526020018061133b602e913960400191505060405180910390fd5b600054610100900460ff16158015610724576000805460ff1961ff0019909116610100171660011790555b61076e6040518060400160405280600b81526020016a2b30b637b9102a37b5b2b760a91b815250604051806040016040528060058152602001642b20a627a960d91b815250610e47565b610776610efd565b610793306107826104df565b60ff16600a0a6305f5e10002610d38565b6107a030336104d061044c565b80156107b2576000805461ff00191690555b50565b6065546001600160a01b031690565b60378054604080516020601f60026000196101006001881615020190951694909404938401819004810282018101909252828152606093909290918301828280156104245780601f106103f957610100808354040283529160200191610424565b60006104436108326109e7565b846104d0856040518060600160405280602581526020016113da602591396034600061085c6109e7565b6001600160a01b03908116825260208083019390935260409182016000908120918d1681529252902054919063ffffffff610c4016565b60006104436108a06109e7565b8484610ad7565b6001600160a01b03918216600090815260346020908152604080832093909416825291909152205490565b6108da6109e7565b6001600160a01b03166108eb6107b5565b6001600160a01b031614610946576040805162461bcd60e51b815260206004820181905260248201527f4f776e61626c653a2063616c6c6572206973206e6f7420746865206f776e6572604482015290519081900360640190fd5b6001600160a01b03811661098b5760405162461bcd60e51b81526004018080602001828103825260268152602001806112cd6026913960400191505060405180910390fd5b6065546040516001600160a01b038084169216907f8be0079c531659141344cd1fd0a4f28419497f9722a3daafe3b4186f6b6457e090600090a3606580546001600160a01b0319166001600160a01b0392909216919091179055565b3390565b6001600160a01b038316610a305760405162461bcd60e51b81526004018080602001828103825260248152602001806113b66024913960400191505060405180910390fd5b6001600160a01b038216610a755760405162461bcd60e51b81526004018080602001828103825260228152602001806112f36022913960400191505060405180910390fd5b6001600160a01b03808416600081815260346020908152604080832094871680845294825291829020859055815185815291517f8c5be1e5ebec7d5bd14f71427d1e84f3dd0314c0f7b2291e5b200ac8c7c3b9259281900390910190a3505050565b6001600160a01b038316610b1c5760405162461bcd60e51b81526004018080602001828103825260258152602001806113916025913960400191505060405180910390fd5b6001600160a01b038216610b615760405162461bcd60e51b81526004018080602001828103825260238152602001806112aa6023913960400191505060405180910390fd5b610b6c838383610ef8565b610baf81604051806060016040528060268152602001611315602691396001600160a01b038616600090815260336020526040902054919063ffffffff610c4016565b6001600160a01b038085166000908152603360205260408082209390935590841681522054610be4908263ffffffff610cd716565b6001600160a01b0380841660008181526033602090815260409182902094909455805185815290519193928716927fddf252ad1be2c89b69c2b068fc378daa952ba7f163c4a11628f55a4df523b3ef92918290030190a3505050565b60008184841115610ccf5760405162461bcd60e51b81526004018080602001828103825283818151815260200191508051906020019080838360005b83811015610c94578181015183820152602001610c7c565b50505050905090810190601f168015610cc15780820380516001836020036101000a031916815260200191505b509250505060405180910390fd5b505050900390565b600082820183811015610d31576040805162461bcd60e51b815260206004820152601b60248201527f536166654d6174683a206164646974696f6e206f766572666c6f770000000000604482015290519081900360640190fd5b9392505050565b6001600160a01b038216610d93576040805162461bcd60e51b815260206004820152601f60248201527f45524332303a206d696e7420746f20746865207a65726f206164647265737300604482015290519081900360640190fd5b610d9f60008383610ef8565b603554610db2908263ffffffff610cd716565b6035556001600160a01b038216600090815260336020526040902054610dde908263ffffffff610cd716565b6001600160a01b03831660008181526033602090815260408083209490945583518581529351929391927fddf252ad1be2c89b69c2b068fc378daa952ba7f163c4a11628f55a4df523b3ef9281900390910190a35050565b6000610e4130610f9a565b15905090565b600054610100900460ff1680610e605750610e60610e36565b80610e6e575060005460ff16155b610ea95760405162461bcd60e51b815260040180806020018281038252602e81526020018061133b602e913960400191505060405180910390fd5b600054610100900460ff16158015610ed4576000805460ff1961ff0019909116610100171660011790555b610edc610fa0565b610ee68383611040565b8015610ef8576000805461ff00191690555b505050565b600054610100900460ff1680610f165750610f16610e36565b80610f24575060005460ff16155b610f5f5760405162461bcd60e51b815260040180806020018281038252602e81526020018061133b602e913960400191505060405180910390fd5b600054610100900460ff16158015610f8a576000805460ff1961ff0019909116610100171660011790555b610f92610fa0565b6107a0611118565b3b151590565b600054610100900460ff1680610fb95750610fb9610e36565b80610fc7575060005460ff16155b6110025760405162461bcd60e51b815260040180806020018281038252602e81526020018061133b602e913960400191505060405180910390fd5b600054610100900460ff161580156107a0576000805460ff1961ff00199091166101001716600117905580156107b2576000805461ff001916905550565b600054610100900460ff16806110595750611059610e36565b80611067575060005460ff16155b6110a25760405162461bcd60e51b815260040180806020018281038252602e81526020018061133b602e913960400191505060405180910390fd5b600054610100900460ff161580156110cd576000805460ff1961ff0019909116610100171660011790555b82516110e0906036906020860190611211565b5081516110f4906037906020850190611211565b506038805460ff191660121790558015610ef8576000805461ff0019169055505050565b600054610100900460ff16806111315750611131610e36565b8061113f575060005460ff16155b61117a5760405162461bcd60e51b815260040180806020018281038252602e81526020018061133b602e913960400191505060405180910390fd5b600054610100900460ff161580156111a5576000805460ff1961ff0019909116610100171660011790555b60006111af6109e7565b606580546001600160a01b0319166001600160a01b038316908117909155604051919250906000907f8be0079c531659141344cd1fd0a4f28419497f9722a3daafe3b4186f6b6457e0908290a35080156107b2576000805461ff001916905550565b828054600181600116156101000203166002900490600052602060002090601f016020900481019282601f1061125257805160ff191683800117855561127f565b8280016001018555821561127f579182015b8281111561127f578251825591602001919060010190611264565b5061128b92915061128f565b5090565b61042c91905b8082111561128b576000815560010161129556fe45524332303a207472616e7366657220746f20746865207a65726f20616464726573734f776e61626c653a206e6577206f776e657220697320746865207a65726f206164647265737345524332303a20617070726f766520746f20746865207a65726f206164647265737345524332303a207472616e7366657220616d6f756e7420657863656564732062616c616e6365496e697469616c697a61626c653a20636f6e747261637420697320616c726561647920696e697469616c697a656445524332303a207472616e7366657220616d6f756e74206578636565647320616c6c6f77616e636545524332303a207472616e736665722066726f6d20746865207a65726f206164647265737345524332303a20617070726f76652066726f6d20746865207a65726f206164647265737345524332303a2064656372656173656420616c6c6f77616e63652062656c6f77207a65726fa264697066735822122015e7d0eedf5ee6ebca2c6976ae3a3f6aa6e731672125b8809b9f3513219093a764736f6c63430006050033",
  "immutableReferences": {},
  "source": "pragma solidity ^0.6.2;\n\nimport \"@openzeppelin/contracts-upgradeable/token/ERC20/ERC20Upgradeable.sol\";\nimport \"@openzeppelin/contracts-upgradeable/access/OwnableUpgradeable.sol\";\n\n/**\n * @title SimpleToken\n * @dev Very simple ERC20 Token example, where all tokens are pre-assigned to the creator.\n * Note they can later distribute these tokens as they wish using `transfer` and other\n * `ERC20` functions.\n * Based on https://github.com/OpenZeppelin/openzeppelin-contracts/blob/v2.5.1/contracts/examples/SimpleToken.sol\n */\ncontract ValorToken is ERC20Upgradeable, OwnableUpgradeable {\n    function initialize()\n        public\n        initializer\n    {\n        __ERC20_init(\"Valor Token\", \"VALOR\");\n        __Ownable_init();\n        _mint(address(this), 100000000 * (10 ** uint256(decimals())));\n        _approve(address(this), msg.sender, totalSupply());\n    }\n\n    function mint(address account, uint256 amount) external onlyOwner {\n        _mint(account, amount);\n    }\n}",
  "sourcePath": "/mnt/e/work/cryptoblades/contracts/ValorToken.sol",
  "compiler": {
    "name": "solc",
    "version": "0.6.5+commit.f956cc89.Emscripten.clang"
  },
  "schemaVersion": "3.3.4",
  "updatedAt": "2023-01-24T17:45:31.879Z",
  "devdoc": {
    "details": "Very simple ERC20 Token example, where all tokens are pre-assigned to the creator. Note they can later distribute these tokens as they wish using `transfer` and other `ERC20` functions. Based on https://github.com/OpenZeppelin/openzeppelin-contracts/blob/v2.5.1/contracts/examples/SimpleToken.sol",
    "methods": {
      "allowance(address,address)": {
        "details": "See {IERC20-allowance}."
      },
      "approve(address,uint256)": {
        "details": "See {IERC20-approve}.     * Requirements:     * - `spender` cannot be the zero address."
      },
      "balanceOf(address)": {
        "details": "See {IERC20-balanceOf}."
      },
      "decimals()": {
        "details": "Returns the number of decimals used to get its user representation. For example, if `decimals` equals `2`, a balance of `505` tokens should be displayed to a user as `5,05` (`505 / 10 ** 2`).     * Tokens usually opt for a value of 18, imitating the relationship between Ether and Wei. This is the value {ERC20} uses, unless {_setupDecimals} is called.     * NOTE: This information is only used for _display_ purposes: it in no way affects any of the arithmetic of the contract, including {IERC20-balanceOf} and {IERC20-transfer}."
      },
      "decreaseAllowance(address,uint256)": {
        "details": "Atomically decreases the allowance granted to `spender` by the caller.     * This is an alternative to {approve} that can be used as a mitigation for problems described in {IERC20-approve}.     * Emits an {Approval} event indicating the updated allowance.     * Requirements:     * - `spender` cannot be the zero address. - `spender` must have allowance for the caller of at least `subtractedValue`."
      },
      "increaseAllowance(address,uint256)": {
        "details": "Atomically increases the allowance granted to `spender` by the caller.     * This is an alternative to {approve} that can be used as a mitigation for problems described in {IERC20-approve}.     * Emits an {Approval} event indicating the updated allowance.     * Requirements:     * - `spender` cannot be the zero address."
      },
      "name()": {
        "details": "Returns the name of the token."
      },
      "owner()": {
        "details": "Returns the address of the current owner."
      },
      "renounceOwnership()": {
        "details": "Leaves the contract without owner. It will not be possible to call `onlyOwner` functions anymore. Can only be called by the current owner.     * NOTE: Renouncing ownership will leave the contract without an owner, thereby removing any functionality that is only available to the owner."
      },
      "symbol()": {
        "details": "Returns the symbol of the token, usually a shorter version of the name."
      },
      "totalSupply()": {
        "details": "See {IERC20-totalSupply}."
      },
      "transfer(address,uint256)": {
        "details": "See {IERC20-transfer}.     * Requirements:     * - `recipient` cannot be the zero address. - the caller must have a balance of at least `amount`."
      },
      "transferFrom(address,address,uint256)": {
        "details": "See {IERC20-transferFrom}.     * Emits an {Approval} event indicating the updated allowance. This is not required by the EIP. See the note at the beginning of {ERC20}.     * Requirements:     * - `sender` and `recipient` cannot be the zero address. - `sender` must have a balance of at least `amount`. - the caller must have allowance for ``sender``'s tokens of at least `amount`."
      },
      "transferOwnership(address)": {
        "details": "Transfers ownership of the contract to a new account (`newOwner`). Can only be called by the current owner."
      }
    },
    "title": "SimpleToken"
  },
  "userdoc": {
    "methods": {}
  }
}