{
  "contractName": "WeaponBridgeProxyContract",
  "abi": [
    {
      "anonymous": false,
      "inputs": [
        {
          "indexed": true,
          "internalType": "bytes32",
          "name": "role",
          "type": "bytes32"
        },
        {
          "indexed": true,
          "internalType": "bytes32",
          "name": "previousAdminRole",
          "type": "bytes32"
        },
        {
          "indexed": true,
          "internalType": "bytes32",
          "name": "newAdminRole",
          "type": "bytes32"
        }
      ],
      "name": "RoleAdminChanged",
      "type": "event"
    },
    {
      "anonymous": false,
      "inputs": [
        {
          "indexed": true,
          "internalType": "bytes32",
          "name": "role",
          "type": "bytes32"
        },
        {
          "indexed": true,
          "internalType": "address",
          "name": "account",
          "type": "address"
        },
        {
          "indexed": true,
          "internalType": "address",
          "name": "sender",
          "type": "address"
        }
      ],
      "name": "RoleGranted",
      "type": "event"
    },
    {
      "anonymous": false,
      "inputs": [
        {
          "indexed": true,
          "internalType": "bytes32",
          "name": "role",
          "type": "bytes32"
        },
        {
          "indexed": true,
          "internalType": "address",
          "name": "account",
          "type": "address"
        },
        {
          "indexed": true,
          "internalType": "address",
          "name": "sender",
          "type": "address"
        }
      ],
      "name": "RoleRevoked",
      "type": "event"
    },
    {
      "inputs": [],
      "name": "DEFAULT_ADMIN_ROLE",
      "outputs": [
        {
          "internalType": "bytes32",
          "name": "",
          "type": "bytes32"
        }
      ],
      "stateMutability": "view",
      "type": "function"
    },
    {
      "inputs": [],
      "name": "GAME_ADMIN",
      "outputs": [
        {
          "internalType": "bytes32",
          "name": "",
          "type": "bytes32"
        }
      ],
      "stateMutability": "view",
      "type": "function"
    },
    {
      "inputs": [],
      "name": "UINT_NFT_VAR_META",
      "outputs": [
        {
          "internalType": "uint8",
          "name": "",
          "type": "uint8"
        }
      ],
      "stateMutability": "view",
      "type": "function"
    },
    {
      "inputs": [],
      "name": "UINT_NFT_VAR_SEED3DCOSMETIC",
      "outputs": [
        {
          "internalType": "uint8",
          "name": "",
          "type": "uint8"
        }
      ],
      "stateMutability": "view",
      "type": "function"
    },
    {
      "inputs": [
        {
          "internalType": "bytes32",
          "name": "role",
          "type": "bytes32"
        }
      ],
      "name": "getRoleAdmin",
      "outputs": [
        {
          "internalType": "bytes32",
          "name": "",
          "type": "bytes32"
        }
      ],
      "stateMutability": "view",
      "type": "function"
    },
    {
      "inputs": [
        {
          "internalType": "bytes32",
          "name": "role",
          "type": "bytes32"
        },
        {
          "internalType": "uint256",
          "name": "index",
          "type": "uint256"
        }
      ],
      "name": "getRoleMember",
      "outputs": [
        {
          "internalType": "address",
          "name": "",
          "type": "address"
        }
      ],
      "stateMutability": "view",
      "type": "function"
    },
    {
      "inputs": [
        {
          "internalType": "bytes32",
          "name": "role",
          "type": "bytes32"
        }
      ],
      "name": "getRoleMemberCount",
      "outputs": [
        {
          "internalType": "uint256",
          "name": "",
          "type": "uint256"
        }
      ],
      "stateMutability": "view",
      "type": "function"
    },
    {
      "inputs": [
        {
          "internalType": "bytes32",
          "name": "role",
          "type": "bytes32"
        },
        {
          "internalType": "address",
          "name": "account",
          "type": "address"
        }
      ],
      "name": "grantRole",
      "outputs": [],
      "stateMutability": "nonpayable",
      "type": "function"
    },
    {
      "inputs": [
        {
          "internalType": "bytes32",
          "name": "role",
          "type": "bytes32"
        },
        {
          "internalType": "address",
          "name": "account",
          "type": "address"
        }
      ],
      "name": "hasRole",
      "outputs": [
        {
          "internalType": "bool",
          "name": "",
          "type": "bool"
        }
      ],
      "stateMutability": "view",
      "type": "function"
    },
    {
      "inputs": [
        {
          "internalType": "bytes32",
          "name": "role",
          "type": "bytes32"
        },
        {
          "internalType": "address",
          "name": "account",
          "type": "address"
        }
      ],
      "name": "renounceRole",
      "outputs": [],
      "stateMutability": "nonpayable",
      "type": "function"
    },
    {
      "inputs": [
        {
          "internalType": "bytes32",
          "name": "role",
          "type": "bytes32"
        },
        {
          "internalType": "address",
          "name": "account",
          "type": "address"
        }
      ],
      "name": "revokeRole",
      "outputs": [],
      "stateMutability": "nonpayable",
      "type": "function"
    },
    {
      "inputs": [
        {
          "internalType": "address",
          "name": "_nftStorageAddress",
          "type": "address"
        },
        {
          "internalType": "address",
          "name": "_weapons",
          "type": "address"
        },
        {
          "internalType": "address",
          "name": "_weaponCosmetics",
          "type": "address"
        },
        {
          "internalType": "address",
          "name": "_weaponRenameTagConsumables",
          "type": "address"
        }
      ],
      "name": "initialize",
      "outputs": [],
      "stateMutability": "nonpayable",
      "type": "function"
    },
    {
      "inputs": [
        {
          "internalType": "uint256",
          "name": "tokenId",
          "type": "uint256"
        }
      ],
      "name": "collectData",
      "outputs": [
        {
          "internalType": "uint256[]",
          "name": "uintVars",
          "type": "uint256[]"
        },
        {
          "internalType": "string",
          "name": "stringVar",
          "type": "string"
        }
      ],
      "stateMutability": "view",
      "type": "function"
    },
    {
      "inputs": [],
      "name": "sigVersion",
      "outputs": [
        {
          "internalType": "uint256",
          "name": "",
          "type": "uint256"
        }
      ],
      "stateMutability": "view",
      "type": "function"
    },
    {
      "inputs": [],
      "name": "isEnabled",
      "outputs": [
        {
          "internalType": "bool",
          "name": "",
          "type": "bool"
        }
      ],
      "stateMutability": "view",
      "type": "function"
    },
    {
      "inputs": [
        {
          "internalType": "bool",
          "name": "_enabled",
          "type": "bool"
        }
      ],
      "name": "setEnabled",
      "outputs": [],
      "stateMutability": "nonpayable",
      "type": "function"
    },
    {
      "inputs": [
        {
          "internalType": "address",
          "name": "",
          "type": "address"
        },
        {
          "internalType": "uint256",
          "name": "tokenId",
          "type": "uint256"
        },
        {
          "internalType": "uint256[]",
          "name": "uintVars",
          "type": "uint256[]"
        },
        {
          "internalType": "string",
          "name": "stringVar",
          "type": "string"
        }
      ],
      "name": "mintOrUpdate",
      "outputs": [
        {
          "internalType": "uint256",
          "name": "",
          "type": "uint256"
        }
      ],
      "stateMutability": "nonpayable",
      "type": "function"
    },
    {
      "inputs": [
        {
          "internalType": "address",
          "name": "wallet",
          "type": "address"
        },
        {
          "internalType": "uint256",
          "name": "tokenId",
          "type": "uint256"
        },
        {
          "internalType": "uint256",
          "name": "targetChain",
          "type": "uint256"
        }
      ],
      "name": "canBridge",
      "outputs": [
        {
          "internalType": "bool",
          "name": "",
          "type": "bool"
        }
      ],
      "stateMutability": "view",
      "type": "function"
    }
  ],
  "bytecode": "0x608060405234801561001057600080fd5b50611490806100206000396000f3fe608060405234801561001057600080fd5b50600436106101165760003560e01c80636aa633b6116100a2578063ca15c87311610071578063ca15c8731461038c578063cf17d1b4146103a9578063d547741f146103b1578063d58a097c146103dd578063f8c8765e146104b457610116565b80636aa633b6146103115780639010d07c1461031957806391d1485414610358578063a217fddf1461038457610116565b80632f2ff15d116100e95780632f2ff15d14610288578063328d8f72146102b657806336568abe146102d55780634594fac4146103015780635504d3d21461030957610116565b8063135701f71461011b57806319dd746a14610139578063248a9ca3146102135780632d31418a14610242575b600080fd5b6101236104f2565b6040805160ff9092168252519081900360200190f35b6101566004803603602081101561014f57600080fd5b50356104f7565b604051808060200180602001838103835285818151815260200191508051906020019060200280838360005b8381101561019a578181015183820152602001610182565b50505050905001838103825284818151815260200191508051906020019080838360005b838110156101d65781810151838201526020016101be565b50505050905090810190601f1680156102035780820380516001836020036101000a031916815260200191505b5094505050505060405180910390f35b6102306004803603602081101561022957600080fd5b50356108d9565b60408051918252519081900360200190f35b6102746004803603606081101561025857600080fd5b506001600160a01b0381351690602081013590604001356108ee565b604080519115158252519081900360200190f35b6102b46004803603604081101561029e57600080fd5b50803590602001356001600160a01b03166108f7565b005b6102b4600480360360208110156102cc57600080fd5b50351515610963565b6102b4600480360360408110156102eb57600080fd5b50803590602001356001600160a01b0316610989565b6102306109ea565b6102306109ef565b610274610a11565b61033c6004803603604081101561032f57600080fd5b5080359060200135610a21565b604080516001600160a01b039092168252519081900360200190f35b6102746004803603604081101561036e57600080fd5b50803590602001356001600160a01b0316610a48565b6102306104f2565b610230600480360360208110156103a257600080fd5b5035610a66565b610123610a7d565b6102b4600480360360408110156103c757600080fd5b50803590602001356001600160a01b0316610a82565b610230600480360360808110156103f357600080fd5b6001600160a01b038235169160208101359181019060608101604082013564010000000081111561042357600080fd5b82018360208201111561043557600080fd5b8035906020019184602083028401116401000000008311171561045757600080fd5b91939092909160208101903564010000000081111561047557600080fd5b82018360208201111561048757600080fd5b803590602001918460018302840111640100000000831117156104a957600080fd5b509092509050610adb565b6102b4600480360360808110156104ca57600080fd5b506001600160a01b038135811691602081013582169160408201358116916060013516610d4c565b600081565b6060806000806000806000806000606560009054906101000a90046001600160a01b03166001600160a01b0316639507d39a8b6040518263ffffffff1660e01b8152600401808281526020019150506101206040518083038186803b15801561055f57600080fd5b505afa158015610573573d6000803e3d6000fd5b505050506040513d61012081101561058a57600080fd5b81019080805190602001909291908051906020019092919080519060200190929190805190602001909291908051906020019092919080519060200190929190805190602001909291908051906020019092919080519060200190929190505050985050975050965096509650965096506000606660009054906101000a90046001600160a01b03166001600160a01b031663d6f7b0938c6040518263ffffffff1660e01b81526004018082815260200191505060206040518083038186803b15801561065657600080fd5b505afa15801561066a573d6000803e3d6000fd5b505050506040513d602081101561068057600080fd5b505160675460408051634257fb5560e01b8152600481018f905290519293506060926001600160a01b0390921691634257fb5591602480820192600092909190829003018186803b1580156106d457600080fd5b505afa1580156106e8573d6000803e3d6000fd5b505050506040513d6000823e601f3d908101601f19168201604052602081101561071157600080fd5b810190808051604051939291908464010000000082111561073157600080fd5b90830190602082018581111561074657600080fd5b825164010000000081118282018810171561076057600080fd5b82525081516020918201929091019080838360005b8381101561078d578181015183820152602001610775565b50505050905090810190601f1680156107ba5780820380516001836020036101000a031916815260200191505b5060405250505090506000606560009054906101000a90046001600160a01b03166001600160a01b031663262b58148e6040518263ffffffff1660e01b81526004018082815260200191505060206040518083038186803b15801561081e57600080fd5b505afa158015610832573d6000803e3d6000fd5b505050506040513d602081101561084857600080fd5b50516040805160028082526060820183529293509190602083019080368337019050509b50610890838b8b8b8b8b60ff808d169060088e901c81169060108f901c168d610e4f565b8c600060ff16815181106108a057fe5b602002602001018181525050808c600160ff16815181106108bd57fe5b602090810291909101015250999b999a50505050505050505050565b60009081526033602052604090206002015490565b60019392505050565b60008281526033602052604090206002015461091a90610915610ed9565b610a48565b6109555760405162461bcd60e51b815260040180806020018281038252602f81526020018061139f602f913960400191505060405180910390fd5b61095f8282610edd565b5050565b61096b610f4c565b60688054911515600160a01b0260ff60a01b19909216919091179055565b610991610ed9565b6001600160a01b0316816001600160a01b0316146109e05760405162461bcd60e51b815260040180806020018281038252602f81526020018061142c602f913960400191505060405180910390fd5b61095f8282610fbe565b600390565b604080516923a0a6a2afa0a226a4a760b11b8152905190819003600a01902081565b606854600160a01b900460ff1690565b6000828152603360205260408120610a3f908363ffffffff61102d16565b90505b92915050565b6000828152603360205260408120610a3f908363ffffffff61103916565b6000818152603360205260408120610a429061104e565b600181565b600082815260336020526040902060020154610aa090610915610ed9565b6109e05760405162461bcd60e51b81526004018080602001828103825260308152602001806113ce6030913960400191505060405180910390fd5b6000610ae5610f4c565b606854600160a01b900460ff16610b31576040805162461bcd60e51b815260206004820152600b60248201526a1b9bdd08195b98589b195960aa1b604482015290519081900360640190fd5b6000606086868381610b3f57fe5b60655460685463ffffffff6020909302949094013590941c169350506001600160a01b0391821691632499bb0991168888600081610b7957fe5b905060200201358989600160ff16818110610b9057fe5b905060200201358b6040518563ffffffff1660e01b815260040180856001600160a01b03166001600160a01b03168152602001848152602001838152602001828152602001945050505050602060405180830381600087803b158015610bf557600080fd5b505af1158015610c09573d6000803e3d6000fd5b505050506040513d6020811015610c1f57600080fd5b5051965063ffffffff811615610ca157606654604080516303bb877560e11b8152600481018a905263ffffffff8416602482015290516001600160a01b03909216916307770eea9160448082019260009290919082900301818387803b158015610c8857600080fd5b505af1158015610c9c573d6000803e3d6000fd5b505050505b8215610d405760675460408051637f2ac99560e11b8152600481018a815260248201928352604482018790526001600160a01b039093169263fe55932a928b92899289929091606401848480828437600081840152601f19601f820116905080830192505050945050505050600060405180830381600087803b158015610d2757600080fd5b505af1158015610d3b573d6000803e3d6000fd5b505050505b50949695505050505050565b600054610100900460ff1680610d655750610d65611059565b80610d73575060005460ff16155b610dae5760405162461bcd60e51b815260040180806020018281038252602e8152602001806113fe602e913960400191505060405180910390fd5b600054610100900460ff16158015610dd9576000805460ff1961ff0019909116610100171660011790555b610de161106a565b610dec600033610955565b606880546001600160a01b038088166001600160a01b031992831617909255606580548784169083161790556066805486841690831617905560678054928516929091169190911790558015610e48576000805461ff00191690555b5050505050565b60801b62ffffff60801b1660609990991b63ffffffff60601b1660509890981b61ffff60501b1660409790971b69ffff00000000000000001660309690961b67ffff0000000000001660209590951b65ffff000000001660189490941b63ff0000001660109390931b62ff00001660089290921b61ff001660ff9190911617171717171717171790565b3390565b6000828152603360205260409020610efb908263ffffffff61111c16565b1561095f57610f08610ed9565b6001600160a01b0316816001600160a01b0316837f2f8788117e7eff1d82e926ec794901d17c78024a50270940304540a733656f0d60405160405180910390a45050565b604080516923a0a6a2afa0a226a4a760b11b8152905190819003600a019020610f759033610a48565b80610f865750610f86600033610a48565b610fbc576040805162461bcd60e51b81526020600482015260026024820152614e4160f01b604482015290519081900360640190fd5b565b6000828152603360205260409020610fdc908263ffffffff61113116565b1561095f57610fe9610ed9565b6001600160a01b0316816001600160a01b0316837ff6391f5c32d9c69d2a47ea670b442974b53935d1edc7fd64eb21e047a839171b60405160405180910390a45050565b6000610a3f8383611146565b6000610a3f836001600160a01b0384166111aa565b6000610a42826111c2565b6000611064306111c6565b15905090565b600054610100900460ff16806110835750611083611059565b80611091575060005460ff16155b6110cc5760405162461bcd60e51b815260040180806020018281038252602e8152602001806113fe602e913960400191505060405180910390fd5b600054610100900460ff161580156110f7576000805460ff1961ff0019909116610100171660011790555b6110ff6111cc565b6111076111cc565b8015611119576000805461ff00191690555b50565b6000610a3f836001600160a01b03841661126c565b6000610a3f836001600160a01b0384166112b6565b815460009082106111885760405162461bcd60e51b815260040180806020018281038252602281526020018061137d6022913960400191505060405180910390fd5b82600001828154811061119757fe5b9060005260206000200154905092915050565b60009081526001919091016020526040902054151590565b5490565b3b151590565b600054610100900460ff16806111e557506111e5611059565b806111f3575060005460ff16155b61122e5760405162461bcd60e51b815260040180806020018281038252602e8152602001806113fe602e913960400191505060405180910390fd5b600054610100900460ff16158015611107576000805460ff1961ff0019909116610100171660011790558015611119576000805461ff001916905550565b600061127883836111aa565b6112ae57508154600181810184556000848152602080822090930184905584548482528286019093526040902091909155610a42565b506000610a42565b6000818152600183016020526040812054801561137257835460001980830191908101906000908790839081106112e957fe5b906000526020600020015490508087600001848154811061130657fe5b60009182526020808320909101929092558281526001898101909252604090209084019055865487908061133657fe5b60019003818190600052602060002001600090559055866001016000878152602001908152602001600020600090556001945050505050610a42565b6000915050610a4256fe456e756d657261626c655365743a20696e646578206f7574206f6620626f756e6473416363657373436f6e74726f6c3a2073656e646572206d75737420626520616e2061646d696e20746f206772616e74416363657373436f6e74726f6c3a2073656e646572206d75737420626520616e2061646d696e20746f207265766f6b65496e697469616c697a61626c653a20636f6e747261637420697320616c726561647920696e697469616c697a6564416363657373436f6e74726f6c3a2063616e206f6e6c792072656e6f756e636520726f6c657320666f722073656c66a2646970667358221220d7a180f7400e4aafa91f08eddb2548685bbcc2def9a9f2f8237dc47cd0111f0964736f6c63430006050033",
  "immutableReferences": {},
  "source": "pragma solidity ^0.6.0;\n\nimport \"@openzeppelin/contracts-upgradeable/proxy/Initializable.sol\";\nimport \"@openzeppelin/contracts-upgradeable/access/AccessControlUpgradeable.sol\";\nimport \"./WeaponCosmetics.sol\";\nimport \"./WeaponRenameTagConsumables.sol\";\nimport \"./weapons.sol\";\nimport \"./interfaces/IBridgeProxy.sol\";\n\n\ncontract WeaponBridgeProxyContract is Initializable, AccessControlUpgradeable, IBridgeProxy {\n  \n    bytes32 public constant GAME_ADMIN = keccak256(\"GAME_ADMIN\");\n\n    Weapons weapons;\n    WeaponCosmetics weaponCosmetics;\n    WeaponRenameTagConsumables weaponRenameTagConsumables;\n    address nftStorageAddress;\n    bool enabled;\n\n    uint8 public constant UINT_NFT_VAR_META = 0;\n    uint8 public constant UINT_NFT_VAR_SEED3DCOSMETIC = 1;\n\n    modifier restricted() {\n        _restricted();\n        _;\n    }\n\n    function _restricted() internal view {\n        require(hasRole(GAME_ADMIN, msg.sender) || hasRole(DEFAULT_ADMIN_ROLE, msg.sender), \"NA\");\n    }\n\n    function initialize(address _nftStorageAddress, address _weapons, address _weaponCosmetics, address _weaponRenameTagConsumables) public initializer {\n        __AccessControl_init();\n\n        _setupRole(DEFAULT_ADMIN_ROLE, msg.sender);\n\n        nftStorageAddress = _nftStorageAddress;\n        weapons = Weapons(_weapons);\n        weaponCosmetics = WeaponCosmetics(_weaponCosmetics);\n        weaponRenameTagConsumables = WeaponRenameTagConsumables(_weaponRenameTagConsumables);\n    }\n\n \n    function collectData(uint256 tokenId) external view override returns (uint256[] memory uintVars, string memory stringVar) {\n        \n        (uint16 _properties, uint16 _stat1, uint16 _stat2, uint16 _stat3, uint8 _level,, uint24 _burnPoints,, uint24 _weaponType) = weapons.get(tokenId);\n        uint32 appliedCosmetic = weaponCosmetics.getWeaponCosmetic(tokenId);\n        string memory rename = weaponRenameTagConsumables.getWeaponRename(tokenId);\n        uint256 seed3dCosmetics = weapons.getCosmeticsSeed(tokenId);\n\n        uintVars = new uint256[](2);\n        uintVars[UINT_NFT_VAR_META] = _packWeaponsData(appliedCosmetic, _properties, _stat1, _stat2, _stat3, _level, uint8(_burnPoints & 0xFF), uint8((_burnPoints >> 8) & 0xFF), uint8((_burnPoints >> 16) & 0xFF), _weaponType);\n        uintVars[UINT_NFT_VAR_SEED3DCOSMETIC] = seed3dCosmetics;\n\n        stringVar = rename;\n    }\n\n    // for future use, bot will probe the returned value to know if the proxy contract has proper signature behavior\n    function sigVersion() external view override returns (uint256) {\n        return 3;\n    }\n\n    function isEnabled() external view override returns (bool) {\n        return enabled;\n    }\n\n    function setEnabled(bool _enabled) external restricted {\n        enabled = _enabled;\n    }\n\n    function mintOrUpdate(address /*receiver*/, uint256 tokenId, uint256[] calldata uintVars, string calldata stringVar) external restricted override returns (uint256) {\n        require(enabled, \"not enabled\");\n\n        uint32 appliedCosmetic = uint32((uintVars[UINT_NFT_VAR_META] >> 96) & 0xFFFFFFFF);\n\n         tokenId = \n            weapons.performMintWeaponDetailed(nftStorageAddress, uintVars[UINT_NFT_VAR_META], uintVars[UINT_NFT_VAR_SEED3DCOSMETIC], tokenId);\n\n        if(appliedCosmetic > 0) {\n            weaponCosmetics.setWeaponCosmetic(tokenId, appliedCosmetic);\n        }\n\n        if(bytes(stringVar).length > 0) {\n            weaponRenameTagConsumables.setName(tokenId, stringVar);\n        }\n\n        return tokenId;\n    }\n\n    function _packWeaponsData(uint32 appliedCosmetic, uint16 properties, uint16 stat1, uint16 stat2, uint16 stat3, uint8 weaponLevel, uint8 lowStarBurnPoints, uint8 fourStarBurnPoints, uint8 fiveStarBurnPoints, uint24 weaponType) internal pure returns (uint256) {\n        return  uint256(fiveStarBurnPoints | (uint256(fourStarBurnPoints) << 8) | (uint256(lowStarBurnPoints) << 16) | (uint256(weaponLevel) << 24) | (uint256(stat3) << 32) | (uint256(stat2) << 48) | (uint256(stat1) << 64) | (uint256(properties) << 80) | (uint256(appliedCosmetic) << 96) | (uint256(weaponType) << 128));\n    }\n\n    function canBridge(address wallet, uint256 tokenId, uint256 targetChain) external view override returns (bool) {\n        return true;\n    }\n}\n",
  "sourcePath": "/mnt/e/work/cryptoblades/contracts/WeaponBridgeProxyContract.sol",
  "compiler": {
    "name": "solc",
    "version": "0.6.5+commit.f956cc89.Emscripten.clang"
  },
  "schemaVersion": "3.3.4",
  "updatedAt": "2023-01-24T17:45:31.899Z",
  "devdoc": {
    "methods": {
      "getRoleAdmin(bytes32)": {
        "details": "Returns the admin role that controls `role`. See {grantRole} and {revokeRole}.     * To change a role's admin, use {_setRoleAdmin}."
      },
      "getRoleMember(bytes32,uint256)": {
        "details": "Returns one of the accounts that have `role`. `index` must be a value between 0 and {getRoleMemberCount}, non-inclusive.     * Role bearers are not sorted in any particular way, and their ordering may change at any point.     * WARNING: When using {getRoleMember} and {getRoleMemberCount}, make sure you perform all queries on the same block. See the following https://forum.openzeppelin.com/t/iterating-over-elements-on-enumerableset-in-openzeppelin-contracts/2296[forum post] for more information."
      },
      "getRoleMemberCount(bytes32)": {
        "details": "Returns the number of accounts that have `role`. Can be used together with {getRoleMember} to enumerate all bearers of a role."
      },
      "grantRole(bytes32,address)": {
        "details": "Grants `role` to `account`.     * If `account` had not been already granted `role`, emits a {RoleGranted} event.     * Requirements:     * - the caller must have ``role``'s admin role."
      },
      "hasRole(bytes32,address)": {
        "details": "Returns `true` if `account` has been granted `role`."
      },
      "renounceRole(bytes32,address)": {
        "details": "Revokes `role` from the calling account.     * Roles are often managed via {grantRole} and {revokeRole}: this function's purpose is to provide a mechanism for accounts to lose their privileges if they are compromised (such as when a trusted device is misplaced).     * If the calling account had been granted `role`, emits a {RoleRevoked} event.     * Requirements:     * - the caller must be `account`."
      },
      "revokeRole(bytes32,address)": {
        "details": "Revokes `role` from `account`.     * If `account` had been granted `role`, emits a {RoleRevoked} event.     * Requirements:     * - the caller must have ``role``'s admin role."
      }
    }
  },
  "userdoc": {
    "methods": {}
  }
}