{
  "contractName": "WeaponCosmetics",
  "abi": [
    {
      "anonymous": false,
      "inputs": [
        {
          "indexed": true,
          "internalType": "address",
          "name": "owner",
          "type": "address"
        },
        {
          "indexed": false,
          "internalType": "uint32",
          "name": "cosmetic",
          "type": "uint32"
        },
        {
          "indexed": false,
          "internalType": "uint32",
          "name": "amount",
          "type": "uint32"
        }
      ],
      "name": "CosmeticGiven",
      "type": "event"
    },
    {
      "anonymous": false,
      "inputs": [
        {
          "indexed": true,
          "internalType": "address",
          "name": "owner",
          "type": "address"
        },
        {
          "indexed": false,
          "internalType": "uint32",
          "name": "cosmetic",
          "type": "uint32"
        },
        {
          "indexed": false,
          "internalType": "uint32",
          "name": "amount",
          "type": "uint32"
        }
      ],
      "name": "CosmeticGivenByAdmin",
      "type": "event"
    },
    {
      "anonymous": false,
      "inputs": [
        {
          "indexed": true,
          "internalType": "address",
          "name": "owner",
          "type": "address"
        },
        {
          "indexed": false,
          "internalType": "uint32",
          "name": "cosmetic",
          "type": "uint32"
        },
        {
          "indexed": false,
          "internalType": "uint32",
          "name": "amount",
          "type": "uint32"
        }
      ],
      "name": "CosmeticRestored",
      "type": "event"
    },
    {
      "anonymous": false,
      "inputs": [
        {
          "indexed": true,
          "internalType": "address",
          "name": "owner",
          "type": "address"
        },
        {
          "indexed": false,
          "internalType": "uint32",
          "name": "cosmetic",
          "type": "uint32"
        },
        {
          "indexed": false,
          "internalType": "uint32",
          "name": "amount",
          "type": "uint32"
        }
      ],
      "name": "CosmeticTakenByAdmin",
      "type": "event"
    },
    {
      "anonymous": false,
      "inputs": [
        {
          "indexed": true,
          "internalType": "address",
          "name": "owner",
          "type": "address"
        },
        {
          "indexed": false,
          "internalType": "uint32",
          "name": "cosmetic",
          "type": "uint32"
        },
        {
          "indexed": false,
          "internalType": "uint32",
          "name": "amount",
          "type": "uint32"
        }
      ],
      "name": "CosmeticUsed",
      "type": "event"
    },
    {
      "anonymous": false,
      "inputs": [
        {
          "indexed": true,
          "internalType": "bytes32",
          "name": "role",
          "type": "bytes32"
        },
        {
          "indexed": true,
          "internalType": "bytes32",
          "name": "previousAdminRole",
          "type": "bytes32"
        },
        {
          "indexed": true,
          "internalType": "bytes32",
          "name": "newAdminRole",
          "type": "bytes32"
        }
      ],
      "name": "RoleAdminChanged",
      "type": "event"
    },
    {
      "anonymous": false,
      "inputs": [
        {
          "indexed": true,
          "internalType": "bytes32",
          "name": "role",
          "type": "bytes32"
        },
        {
          "indexed": true,
          "internalType": "address",
          "name": "account",
          "type": "address"
        },
        {
          "indexed": true,
          "internalType": "address",
          "name": "sender",
          "type": "address"
        }
      ],
      "name": "RoleGranted",
      "type": "event"
    },
    {
      "anonymous": false,
      "inputs": [
        {
          "indexed": true,
          "internalType": "bytes32",
          "name": "role",
          "type": "bytes32"
        },
        {
          "indexed": true,
          "internalType": "address",
          "name": "account",
          "type": "address"
        },
        {
          "indexed": true,
          "internalType": "address",
          "name": "sender",
          "type": "address"
        }
      ],
      "name": "RoleRevoked",
      "type": "event"
    },
    {
      "anonymous": false,
      "inputs": [
        {
          "indexed": true,
          "internalType": "address",
          "name": "owner",
          "type": "address"
        },
        {
          "indexed": true,
          "internalType": "uint256",
          "name": "weapon",
          "type": "uint256"
        },
        {
          "indexed": false,
          "internalType": "uint32",
          "name": "cosmetic",
          "type": "uint32"
        }
      ],
      "name": "WeaponCosmeticApplied",
      "type": "event"
    },
    {
      "anonymous": false,
      "inputs": [
        {
          "indexed": true,
          "internalType": "address",
          "name": "owner",
          "type": "address"
        },
        {
          "indexed": true,
          "internalType": "uint256",
          "name": "weapon",
          "type": "uint256"
        },
        {
          "indexed": false,
          "internalType": "uint32",
          "name": "cosmetic",
          "type": "uint32"
        }
      ],
      "name": "WeaponCosmeticRemoved",
      "type": "event"
    },
    {
      "inputs": [],
      "name": "DEFAULT_ADMIN_ROLE",
      "outputs": [
        {
          "internalType": "bytes32",
          "name": "",
          "type": "bytes32"
        }
      ],
      "stateMutability": "view",
      "type": "function"
    },
    {
      "inputs": [],
      "name": "GAME_ADMIN",
      "outputs": [
        {
          "internalType": "bytes32",
          "name": "",
          "type": "bytes32"
        }
      ],
      "stateMutability": "view",
      "type": "function"
    },
    {
      "inputs": [
        {
          "internalType": "uint256",
          "name": "",
          "type": "uint256"
        }
      ],
      "name": "appliedCosmetics",
      "outputs": [
        {
          "internalType": "uint32",
          "name": "",
          "type": "uint32"
        }
      ],
      "stateMutability": "view",
      "type": "function"
    },
    {
      "inputs": [
        {
          "internalType": "uint32",
          "name": "cosmetic",
          "type": "uint32"
        }
      ],
      "name": "getCosmeticCount",
      "outputs": [
        {
          "internalType": "uint32",
          "name": "",
          "type": "uint32"
        }
      ],
      "stateMutability": "view",
      "type": "function"
    },
    {
      "inputs": [
        {
          "internalType": "bytes32",
          "name": "role",
          "type": "bytes32"
        }
      ],
      "name": "getRoleAdmin",
      "outputs": [
        {
          "internalType": "bytes32",
          "name": "",
          "type": "bytes32"
        }
      ],
      "stateMutability": "view",
      "type": "function"
    },
    {
      "inputs": [
        {
          "internalType": "bytes32",
          "name": "role",
          "type": "bytes32"
        },
        {
          "internalType": "uint256",
          "name": "index",
          "type": "uint256"
        }
      ],
      "name": "getRoleMember",
      "outputs": [
        {
          "internalType": "address",
          "name": "",
          "type": "address"
        }
      ],
      "stateMutability": "view",
      "type": "function"
    },
    {
      "inputs": [
        {
          "internalType": "bytes32",
          "name": "role",
          "type": "bytes32"
        }
      ],
      "name": "getRoleMemberCount",
      "outputs": [
        {
          "internalType": "uint256",
          "name": "",
          "type": "uint256"
        }
      ],
      "stateMutability": "view",
      "type": "function"
    },
    {
      "inputs": [
        {
          "internalType": "address",
          "name": "buyer",
          "type": "address"
        },
        {
          "internalType": "uint32",
          "name": "cosmetic",
          "type": "uint32"
        },
        {
          "internalType": "uint32",
          "name": "amount",
          "type": "uint32"
        }
      ],
      "name": "giveCosmetic",
      "outputs": [],
      "stateMutability": "nonpayable",
      "type": "function"
    },
    {
      "inputs": [
        {
          "internalType": "address",
          "name": "receiver",
          "type": "address"
        },
        {
          "internalType": "uint32",
          "name": "cosmetic",
          "type": "uint32"
        },
        {
          "internalType": "uint32",
          "name": "amount",
          "type": "uint32"
        }
      ],
      "name": "giveCosmeticByAdmin",
      "outputs": [],
      "stateMutability": "nonpayable",
      "type": "function"
    },
    {
      "inputs": [
        {
          "internalType": "bytes32",
          "name": "role",
          "type": "bytes32"
        },
        {
          "internalType": "address",
          "name": "account",
          "type": "address"
        }
      ],
      "name": "grantRole",
      "outputs": [],
      "stateMutability": "nonpayable",
      "type": "function"
    },
    {
      "inputs": [
        {
          "internalType": "bytes32",
          "name": "role",
          "type": "bytes32"
        },
        {
          "internalType": "address",
          "name": "account",
          "type": "address"
        }
      ],
      "name": "hasRole",
      "outputs": [
        {
          "internalType": "bool",
          "name": "",
          "type": "bool"
        }
      ],
      "stateMutability": "view",
      "type": "function"
    },
    {
      "inputs": [
        {
          "internalType": "uint32",
          "name": "cosmetic",
          "type": "uint32"
        }
      ],
      "name": "isCosmeticAvailable",
      "outputs": [
        {
          "internalType": "bool",
          "name": "",
          "type": "bool"
        }
      ],
      "stateMutability": "view",
      "type": "function"
    },
    {
      "inputs": [
        {
          "internalType": "address",
          "name": "",
          "type": "address"
        },
        {
          "internalType": "uint32",
          "name": "",
          "type": "uint32"
        }
      ],
      "name": "owned",
      "outputs": [
        {
          "internalType": "uint32",
          "name": "",
          "type": "uint32"
        }
      ],
      "stateMutability": "view",
      "type": "function"
    },
    {
      "inputs": [
        {
          "internalType": "bytes32",
          "name": "role",
          "type": "bytes32"
        },
        {
          "internalType": "address",
          "name": "account",
          "type": "address"
        }
      ],
      "name": "renounceRole",
      "outputs": [],
      "stateMutability": "nonpayable",
      "type": "function"
    },
    {
      "inputs": [
        {
          "internalType": "bytes32",
          "name": "role",
          "type": "bytes32"
        },
        {
          "internalType": "address",
          "name": "account",
          "type": "address"
        }
      ],
      "name": "revokeRole",
      "outputs": [],
      "stateMutability": "nonpayable",
      "type": "function"
    },
    {
      "inputs": [
        {
          "internalType": "address",
          "name": "target",
          "type": "address"
        },
        {
          "internalType": "uint32",
          "name": "cosmetic",
          "type": "uint32"
        },
        {
          "internalType": "uint32",
          "name": "amount",
          "type": "uint32"
        }
      ],
      "name": "takeCosmeticByAdmin",
      "outputs": [],
      "stateMutability": "nonpayable",
      "type": "function"
    },
    {
      "inputs": [
        {
          "internalType": "uint32",
          "name": "cosmetic",
          "type": "uint32"
        },
        {
          "internalType": "bool",
          "name": "available",
          "type": "bool"
        }
      ],
      "name": "toggleCosmeticAvailable",
      "outputs": [],
      "stateMutability": "nonpayable",
      "type": "function"
    },
    {
      "inputs": [],
      "name": "weapons",
      "outputs": [
        {
          "internalType": "contract Weapons",
          "name": "",
          "type": "address"
        }
      ],
      "stateMutability": "view",
      "type": "function"
    },
    {
      "inputs": [],
      "name": "initialize",
      "outputs": [],
      "stateMutability": "nonpayable",
      "type": "function"
    },
    {
      "inputs": [
        {
          "internalType": "contract Weapons",
          "name": "_weapons",
          "type": "address"
        }
      ],
      "name": "initialize",
      "outputs": [],
      "stateMutability": "nonpayable",
      "type": "function"
    },
    {
      "inputs": [
        {
          "internalType": "uint256",
          "name": "weaponId",
          "type": "uint256"
        },
        {
          "internalType": "uint32",
          "name": "cosmetic",
          "type": "uint32"
        }
      ],
      "name": "applyCosmetic",
      "outputs": [],
      "stateMutability": "nonpayable",
      "type": "function"
    },
    {
      "inputs": [
        {
          "internalType": "uint256",
          "name": "weaponId",
          "type": "uint256"
        }
      ],
      "name": "removeCosmetic",
      "outputs": [],
      "stateMutability": "nonpayable",
      "type": "function"
    },
    {
      "inputs": [
        {
          "internalType": "uint256",
          "name": "weaponId",
          "type": "uint256"
        }
      ],
      "name": "getWeaponCosmetic",
      "outputs": [
        {
          "internalType": "uint32",
          "name": "",
          "type": "uint32"
        }
      ],
      "stateMutability": "view",
      "type": "function"
    },
    {
      "inputs": [
        {
          "internalType": "uint256",
          "name": "weaponId",
          "type": "uint256"
        },
        {
          "internalType": "uint32",
          "name": "cosmetic",
          "type": "uint32"
        }
      ],
      "name": "setWeaponCosmetic",
      "outputs": [],
      "stateMutability": "nonpayable",
      "type": "function"
    }
  ],
  "bytecode": "0x608060405234801561001057600080fd5b5061168b806100206000396000f3fe608060405234801561001057600080fd5b50600436106101585760003560e01c80639c8e440f116100c3578063c4d66de81161007c578063c4d66de814610418578063ca15c8731461043e578063cd5b184e1461045b578063d547741f14610484578063d6f7b093146104b0578063ef1099dc146104cd57610158565b80639c8e440f1461034e578063a217fddf14610379578063a52fac6714610381578063ad590ea4146103bb578063b7e1cd86146103de578063bd7b9d26146103e657610158565b806336568abe1161011557806336568abe146102715780635504d3d21461029d5780638129fc1c146102a55780639010d07c146102ad57806391098bef146102ec57806391d148541461032257610158565b806307770eea1461015d578063133e4974146101885780631ee1f5c9146101c2578063248a9ca3146101f95780632da1768c146102285780632f2ff15d14610245575b600080fd5b6101866004803603604081101561017357600080fd5b508035906020013563ffffffff16610507565b005b6101866004803603606081101561019e57600080fd5b506001600160a01b038135169063ffffffff60208201358116916040013516610537565b6101e5600480360360208110156101d857600080fd5b503563ffffffff166105c0565b604080519115158252519081900360200190f35b6102166004803603602081101561020f57600080fd5b50356105db565b60408051918252519081900360200190f35b6101866004803603602081101561023e57600080fd5b50356105f0565b6101866004803603604081101561025b57600080fd5b50803590602001356001600160a01b031661079e565b6101866004803603604081101561028757600080fd5b50803590602001356001600160a01b031661080a565b61021661086b565b61018661088d565b6102d0600480360360408110156102c357600080fd5b5080359060200135610942565b604080516001600160a01b039092168252519081900360200190f35b6103096004803603602081101561030257600080fd5b5035610969565b6040805163ffffffff9092168252519081900360200190f35b6101e56004803603604081101561033857600080fd5b50803590602001356001600160a01b0316610981565b6101866004803603604081101561036457600080fd5b5063ffffffff8135169060200135151561099f565b610216610a0f565b6101866004803603606081101561039757600080fd5b506001600160a01b038135169063ffffffff60208201358116916040013516610a14565b610309600480360360208110156103d157600080fd5b503563ffffffff16610b57565b6102d0610b7d565b610309600480360360408110156103fc57600080fd5b5080356001600160a01b0316906020013563ffffffff16610b8c565b6101866004803603602081101561042e57600080fd5b50356001600160a01b0316610baf565b6102166004803603602081101561045457600080fd5b5035610cb5565b6101866004803603604081101561047157600080fd5b508035906020013563ffffffff16610ccc565b6101866004803603604081101561049a57600080fd5b50803590602001356001600160a01b0316610e3a565b610309600480360360208110156104c657600080fd5b5035610e93565b610186600480360360608110156104e357600080fd5b506001600160a01b038135169063ffffffff60208201358116916040013516610eab565b61050f610fd1565b600091825260686020526040909120805463ffffffff191663ffffffff909216919091179055565b61053f610fd1565b6001600160a01b038316600081815260656020908152604080832063ffffffff87811680865291845293829020805463ffffffff1981169086168801861617905581519081529285169183019190915280517f300a60b37421121b3a49ed548490bd1e41e617e9eb676a26bcd786d6d8a794e19281900390910190a2505050565b63ffffffff1660009081526066602052604090205460ff1690565b60009081526033602052604090206002015490565b606754604080516331a9108f60e11b815260048101849052905133926001600160a01b031691636352211e916024808301926020929190829003018186803b15801561063b57600080fd5b505afa15801561064f573d6000803e3d6000fd5b505050506040513d602081101561066557600080fd5b50516001600160a01b0316146106b9576040805162461bcd60e51b81526020600482015260146024820152732737ba103a3432903bb2b0b837b71037bbb732b960611b604482015290519081900360640190fd5b60008181526068602052604090205463ffffffff16610715576040805162461bcd60e51b8152602060048201526013602482015272139bc818dbdcdb595d1a58c8185c1c1b1a5959606a1b604482015290519081900360640190fd5b6000818152606860205260409020546107359063ffffffff16600161103e565b60008181526068602090815260409182902054825163ffffffff90911681529151839233927febd9bb4f331e8a283c59d2928791ba132c4594c55925577183db788fd7454f9392918290030190a36000908152606860205260409020805463ffffffff19169055565b6000828152603360205260409020600201546107c1906107bc6110b5565b610981565b6107fc5760405162461bcd60e51b815260040180806020018281038252602f81526020018061159a602f913960400191505060405180910390fd5b61080682826110b9565b5050565b6108126110b5565b6001600160a01b0316816001600160a01b0316146108615760405162461bcd60e51b815260040180806020018281038252602f815260200180611627602f913960400191505060405180910390fd5b6108068282611128565b604080516923a0a6a2afa0a226a4a760b11b8152905190819003600a01902081565b600054610100900460ff16806108a657506108a6611197565b806108b4575060005460ff16155b6108ef5760405162461bcd60e51b815260040180806020018281038252602e8152602001806115f9602e913960400191505060405180910390fd5b600054610100900460ff1615801561091a576000805460ff1961ff0019909116610100171660011790555b6109226111a8565b61092d6000336107fc565b801561093f576000805461ff00191690555b50565b6000828152603360205260408120610960908363ffffffff61124816565b90505b92915050565b60686020526000908152604090205463ffffffff1681565b6000828152603360205260408120610960908363ffffffff61125416565b6109aa600033610981565b6109e7576040805162461bcd60e51b81526020600482015260096024820152682737ba1030b236b4b760b91b604482015290519081900360640190fd5b63ffffffff919091166000908152606660205260409020805460ff1916911515919091179055565b600081565b610a1f600033610981565b610a5c576040805162461bcd60e51b81526020600482015260096024820152682737ba1030b236b4b760b91b604482015290519081900360640190fd5b6001600160a01b038316600090815260656020908152604080832063ffffffff868116855292529091205481831691161015610ad5576040805162461bcd60e51b81526020600482015260136024820152724e6f7420656e6f75676820636f736d6574696360681b604482015290519081900360640190fd5b6001600160a01b038316600081815260656020908152604080832063ffffffff87811680865291845293829020805463ffffffff198116908616889003861617905581519081529285169183019190915280517ffcf3e674add1628d6cfe91578cdfd2b25614c275d2a504fff80bcdbf5311a1639281900390910190a2505050565b33600090815260656020908152604080832063ffffffff94851684529091529020541690565b6067546001600160a01b031681565b606560209081526000928352604080842090915290825290205463ffffffff1681565b600054610100900460ff1680610bc85750610bc8611197565b80610bd6575060005460ff16155b610c115760405162461bcd60e51b815260040180806020018281038252602e8152602001806115f9602e913960400191505060405180910390fd5b600054610100900460ff16158015610c3c576000805460ff1961ff0019909116610100171660011790555b610c446111a8565b610c4f6000336107fc565b606780546001600160a01b0319166001600160a01b03841617905560015b60148160ff161015610c9f5760ff81166000908152606660205260409020805460ff1916600190811790915501610c6d565b508015610806576000805461ff00191690555050565b600081815260336020526040812061096390611269565b606754604080516331a9108f60e11b815260048101859052905133926001600160a01b031691636352211e916024808301926020929190829003018186803b158015610d1757600080fd5b505afa158015610d2b573d6000803e3d6000fd5b505050506040513d6020811015610d4157600080fd5b50516001600160a01b031614610d95576040805162461bcd60e51b81526020600482015260146024820152732737ba103a3432903bb2b0b837b71037bbb732b960611b604482015290519081900360640190fd5b60008281526068602052604090205463ffffffff1615610dcf57600082815260686020526040902054610dcf9063ffffffff16600161103e565b610dda816001611274565b600082815260686020908152604091829020805463ffffffff191663ffffffff851690811790915582519081529151849233927fd336cf7247965259ace08c1d2b5e790a6a7d9cf3c2d1f4fd9883d9a41ed5ee1492918290030190a35050565b600082815260336020526040902060020154610e58906107bc6110b5565b6108615760405162461bcd60e51b81526004018080602001828103825260308152602001806115c96030913960400191505060405180910390fd5b60009081526068602052604090205463ffffffff1690565b610eb6600033610981565b610ef3576040805162461bcd60e51b81526020600482015260096024820152682737ba1030b236b4b760b91b604482015290519081900360640190fd5b63ffffffff8216600090815260666020526040902054829060ff16610f4f576040805162461bcd60e51b815260206004820152600d60248201526c4e6f7420617661696c61626c6560981b604482015290519081900360640190fd5b6001600160a01b038416600081815260656020908152604080832063ffffffff88811680865291845293829020805463ffffffff1981169086168901861617905581519081529286169183019190915280517f62af5ce10f22564720d801f6b9187b7eb61b5642cf0cc55050414de2960aba599281900390910190a250505050565b604080516923a0a6a2afa0a226a4a760b11b8152905190819003600a019020610ffa9033610981565b61103c576040805162461bcd60e51b815260206004820152600e60248201526d2737ba1033b0b6b29030b236b4b760911b604482015290519081900360640190fd5b565b33600081815260656020908152604080832063ffffffff87811680865291845293829020805463ffffffff1981169086168801861617905581519081529285169183019190915280517f83c866fd0309e1e152853e50980428a5aad33e8ca8a66cfd71db46f887ec9a049281900390910190a25050565b3390565b60008281526033602052604090206110d7908263ffffffff6113b716565b15610806576110e46110b5565b6001600160a01b0316816001600160a01b0316837f2f8788117e7eff1d82e926ec794901d17c78024a50270940304540a733656f0d60405160405180910390a45050565b6000828152603360205260409020611146908263ffffffff6113cc16565b15610806576111536110b5565b6001600160a01b0316816001600160a01b0316837ff6391f5c32d9c69d2a47ea670b442974b53935d1edc7fd64eb21e047a839171b60405160405180910390a45050565b60006111a2306113e1565b15905090565b600054610100900460ff16806111c157506111c1611197565b806111cf575060005460ff16155b61120a5760405162461bcd60e51b815260040180806020018281038252602e8152602001806115f9602e913960400191505060405180910390fd5b600054610100900460ff1615801561092d576000805460ff1961ff001990911661010017166001179055801561093f576000805461ff001916905550565b600061096083836113e7565b6000610960836001600160a01b03841661144b565b600061096382611463565b33600090815260656020908152604080832063ffffffff808716855292529091205483918391818316911610156112e0576040805162461bcd60e51b815260206004820152600b60248201526a4e6f20636f736d6574696360a81b604482015290519081900360640190fd5b63ffffffff8416600090815260666020526040902054849060ff1661133c576040805162461bcd60e51b815260206004820152600d60248201526c4e6f7420617661696c61626c6560981b604482015290519081900360640190fd5b33600081815260656020908152604080832063ffffffff8a811680865291845293829020805463ffffffff1981169086168b9003861617905581519081529288169183019190915280517f66b5ba93fdea2a14f9f9772aa38fbdca397a99d0db1b71679a60bf8df84a54269281900390910190a25050505050565b6000610960836001600160a01b038416611467565b6000610960836001600160a01b0384166114b1565b3b151590565b815460009082106114295760405162461bcd60e51b81526004018080602001828103825260228152602001806115786022913960400191505060405180910390fd5b82600001828154811061143857fe5b9060005260206000200154905092915050565b60009081526001919091016020526040902054151590565b5490565b6000611473838361144b565b6114a957508154600181810184556000848152602080822090930184905584548482528286019093526040902091909155610963565b506000610963565b6000818152600183016020526040812054801561156d57835460001980830191908101906000908790839081106114e457fe5b906000526020600020015490508087600001848154811061150157fe5b60009182526020808320909101929092558281526001898101909252604090209084019055865487908061153157fe5b60019003818190600052602060002001600090559055866001016000878152602001908152602001600020600090556001945050505050610963565b600091505061096356fe456e756d657261626c655365743a20696e646578206f7574206f6620626f756e6473416363657373436f6e74726f6c3a2073656e646572206d75737420626520616e2061646d696e20746f206772616e74416363657373436f6e74726f6c3a2073656e646572206d75737420626520616e2061646d696e20746f207265766f6b65496e697469616c697a61626c653a20636f6e747261637420697320616c726561647920696e697469616c697a6564416363657373436f6e74726f6c3a2063616e206f6e6c792072656e6f756e636520726f6c657320666f722073656c66a26469706673582212209c57459d2449b65f04f33f74d71f4ee6010f5f2ec20c419d8e132675b4e22ba064736f6c63430006050033",
  "immutableReferences": {},
  "source": "pragma solidity ^0.6.5;\n\nimport \"./Cosmetics.sol\";\nimport \"./weapons.sol\";\n\ncontract WeaponCosmetics is Cosmetics {\n\n    Weapons public weapons;\n\n    mapping(uint256 => uint32) public appliedCosmetics;\n\n    event WeaponCosmeticApplied(address indexed owner, uint256 indexed weapon, uint32 cosmetic);\n    event WeaponCosmeticRemoved(address indexed owner, uint256 indexed weapon, uint32 cosmetic);\n\n    function initialize(Weapons _weapons)\n        public\n        initializer\n    {\n        __AccessControl_init_unchained();\n\n        _setupRole(DEFAULT_ADMIN_ROLE, msg.sender);\n\n        weapons = _weapons;\n        for(uint8 i = 1; i < 20; i++) {\n            _cosmeticAvailable[i] = true;\n        }\n    }\n\n    function applyCosmetic(uint256 weaponId, uint32 cosmetic) public {\n        require(weapons.ownerOf(weaponId) == msg.sender, \"Not the weapon owner\");\n        if(appliedCosmetics[weaponId] != _noCosmetic){\n            _restoreCosmetic(appliedCosmetics[weaponId], 1);\n        }\n\n        useCosmetic(cosmetic, 1);\n\n        appliedCosmetics[weaponId] = cosmetic;\n        emit WeaponCosmeticApplied(msg.sender, weaponId, cosmetic);\n    }\n\n    function removeCosmetic(uint256 weaponId) public {\n        require(weapons.ownerOf(weaponId) == msg.sender, \"Not the weapon owner\");\n        require(appliedCosmetics[weaponId] != _noCosmetic, \"No cosmetic applied\");\n        _restoreCosmetic(appliedCosmetics[weaponId], 1);\n        emit WeaponCosmeticRemoved(msg.sender, weaponId, appliedCosmetics[weaponId]);\n        appliedCosmetics[weaponId] = _noCosmetic;\n    }\n\n    function getWeaponCosmetic(uint256 weaponId) public view returns (uint32) {\n        return appliedCosmetics[weaponId];\n    }\n\n    function setWeaponCosmetic(uint256 weaponId, uint32 cosmetic) public restricted {\n        appliedCosmetics[weaponId] = cosmetic;\n    }\n}",
  "sourcePath": "/mnt/e/work/cryptoblades/contracts/WeaponCosmetics.sol",
  "compiler": {
    "name": "solc",
    "version": "0.6.5+commit.f956cc89.Emscripten.clang"
  },
  "schemaVersion": "3.3.4",
  "updatedAt": "2023-01-24T17:45:31.911Z",
  "devdoc": {
    "methods": {
      "getRoleAdmin(bytes32)": {
        "details": "Returns the admin role that controls `role`. See {grantRole} and {revokeRole}.     * To change a role's admin, use {_setRoleAdmin}."
      },
      "getRoleMember(bytes32,uint256)": {
        "details": "Returns one of the accounts that have `role`. `index` must be a value between 0 and {getRoleMemberCount}, non-inclusive.     * Role bearers are not sorted in any particular way, and their ordering may change at any point.     * WARNING: When using {getRoleMember} and {getRoleMemberCount}, make sure you perform all queries on the same block. See the following https://forum.openzeppelin.com/t/iterating-over-elements-on-enumerableset-in-openzeppelin-contracts/2296[forum post] for more information."
      },
      "getRoleMemberCount(bytes32)": {
        "details": "Returns the number of accounts that have `role`. Can be used together with {getRoleMember} to enumerate all bearers of a role."
      },
      "grantRole(bytes32,address)": {
        "details": "Grants `role` to `account`.     * If `account` had not been already granted `role`, emits a {RoleGranted} event.     * Requirements:     * - the caller must have ``role``'s admin role."
      },
      "hasRole(bytes32,address)": {
        "details": "Returns `true` if `account` has been granted `role`."
      },
      "renounceRole(bytes32,address)": {
        "details": "Revokes `role` from the calling account.     * Roles are often managed via {grantRole} and {revokeRole}: this function's purpose is to provide a mechanism for accounts to lose their privileges if they are compromised (such as when a trusted device is misplaced).     * If the calling account had been granted `role`, emits a {RoleRevoked} event.     * Requirements:     * - the caller must be `account`."
      },
      "revokeRole(bytes32,address)": {
        "details": "Revokes `role` from `account`.     * If `account` had been granted `role`, emits a {RoleRevoked} event.     * Requirements:     * - the caller must have ``role``'s admin role."
      }
    }
  },
  "userdoc": {
    "methods": {}
  }
}